{
  "contractName": "InterestConsensus",
  "abi": [
    {
      "anonymous": false,
      "inputs": [
        {
          "indexed": true,
          "internalType": "address",
          "name": "lender",
          "type": "address"
        },
        {
          "indexed": false,
          "internalType": "uint256",
          "name": "requestNonce",
          "type": "uint256"
        },
        {
          "indexed": false,
          "internalType": "uint256",
          "name": "endTime",
          "type": "uint256"
        },
        {
          "indexed": false,
          "internalType": "uint256",
          "name": "interest",
          "type": "uint256"
        }
      ],
      "name": "InterestAccepted",
      "type": "event"
    },
    {
      "anonymous": false,
      "inputs": [
        {
          "indexed": true,
          "internalType": "address",
          "name": "signer",
          "type": "address"
        },
        {
          "indexed": true,
          "internalType": "address",
          "name": "lender",
          "type": "address"
        },
        {
          "indexed": false,
          "internalType": "uint256",
          "name": "requestNonce",
          "type": "uint256"
        },
        {
          "indexed": false,
          "internalType": "uint256",
          "name": "endTime",
          "type": "uint256"
        },
        {
          "indexed": false,
          "internalType": "uint256",
          "name": "interest",
          "type": "uint256"
        }
      ],
      "name": "InterestSubmitted",
      "type": "event"
    },
    {
      "anonymous": false,
      "inputs": [
        {
          "indexed": true,
          "internalType": "address",
          "name": "previousOwner",
          "type": "address"
        },
        {
          "indexed": true,
          "internalType": "address",
          "name": "newOwner",
          "type": "address"
        }
      ],
      "name": "OwnershipTransferred",
      "type": "event"
    },
    {
      "anonymous": false,
      "inputs": [
        {
          "indexed": true,
          "internalType": "address",
          "name": "account",
          "type": "address"
        }
      ],
      "name": "SignerAdded",
      "type": "event"
    },
    {
      "anonymous": false,
      "inputs": [
        {
          "indexed": true,
          "internalType": "address",
          "name": "account",
          "type": "address"
        }
      ],
      "name": "SignerRemoved",
      "type": "event"
    },
    {
      "constant": false,
      "inputs": [
        {
          "internalType": "address",
          "name": "account",
          "type": "address"
        }
      ],
      "name": "addSigner",
      "outputs": [],
      "payable": false,
      "stateMutability": "nonpayable",
      "type": "function"
    },
    {
      "constant": false,
      "inputs": [
        {
          "internalType": "address[]",
          "name": "accounts",
          "type": "address[]"
        }
      ],
      "name": "addSigners",
      "outputs": [],
      "payable": false,
      "stateMutability": "nonpayable",
      "type": "function"
    },
    {
      "constant": true,
      "inputs": [],
      "name": "callerAddress",
      "outputs": [
        {
          "internalType": "address",
          "name": "",
          "type": "address"
        }
      ],
      "payable": false,
      "stateMutability": "view",
      "type": "function"
    },
    {
      "constant": true,
      "inputs": [
        {
          "internalType": "address",
          "name": "",
          "type": "address"
        },
        {
          "internalType": "address",
          "name": "",
          "type": "address"
        },
        {
          "internalType": "uint256",
          "name": "",
          "type": "uint256"
        }
      ],
      "name": "hasSubmitted",
      "outputs": [
        {
          "internalType": "bool",
          "name": "",
          "type": "bool"
        }
      ],
      "payable": false,
      "stateMutability": "view",
      "type": "function"
    },
    {
      "constant": false,
      "inputs": [],
      "name": "initialize",
      "outputs": [],
      "payable": false,
      "stateMutability": "nonpayable",
      "type": "function"
    },
    {
      "constant": false,
      "inputs": [
        {
          "internalType": "address",
          "name": "owner",
          "type": "address"
        },
        {
          "internalType": "address",
          "name": "aCallerAddress",
          "type": "address"
        },
        {
          "internalType": "address",
          "name": "aSettingAddress",
          "type": "address"
        }
      ],
      "name": "initialize",
      "outputs": [],
      "payable": false,
      "stateMutability": "nonpayable",
      "type": "function"
    },
    {
      "constant": false,
      "inputs": [
        {
          "internalType": "address",
          "name": "sender",
          "type": "address"
        }
      ],
      "name": "initialize",
      "outputs": [],
      "payable": false,
      "stateMutability": "nonpayable",
      "type": "function"
    },
    {
      "constant": true,
      "inputs": [],
      "name": "initialized",
      "outputs": [
        {
          "internalType": "bool",
          "name": "value",
          "type": "bool"
        }
      ],
      "payable": false,
      "stateMutability": "view",
      "type": "function"
    },
    {
      "constant": true,
      "inputs": [
        {
          "internalType": "address",
          "name": "",
          "type": "address"
        },
        {
          "internalType": "uint256",
          "name": "",
          "type": "uint256"
        }
      ],
      "name": "interestSubmissions",
      "outputs": [
        {
          "internalType": "uint256",
          "name": "count",
          "type": "uint256"
        },
        {
          "internalType": "uint256",
          "name": "max",
          "type": "uint256"
        },
        {
          "internalType": "uint256",
          "name": "min",
          "type": "uint256"
        },
        {
          "internalType": "uint256",
          "name": "sum",
          "type": "uint256"
        }
      ],
      "payable": false,
      "stateMutability": "view",
      "type": "function"
    },
    {
      "constant": true,
      "inputs": [],
      "name": "isOwner",
      "outputs": [
        {
          "internalType": "bool",
          "name": "",
          "type": "bool"
        }
      ],
      "payable": false,
      "stateMutability": "view",
      "type": "function"
    },
    {
      "constant": true,
      "inputs": [
        {
          "internalType": "address",
          "name": "account",
          "type": "address"
        }
      ],
      "name": "isSigner",
      "outputs": [
        {
          "internalType": "bool",
          "name": "",
          "type": "bool"
        }
      ],
      "payable": false,
      "stateMutability": "view",
      "type": "function"
    },
    {
      "constant": true,
      "inputs": [],
      "name": "owner",
      "outputs": [
        {
          "internalType": "address",
          "name": "",
          "type": "address"
        }
      ],
      "payable": false,
      "stateMutability": "view",
      "type": "function"
    },
    {
      "constant": false,
      "inputs": [
        {
          "internalType": "address",
          "name": "account",
          "type": "address"
        }
      ],
      "name": "removeSigner",
      "outputs": [],
      "payable": false,
      "stateMutability": "nonpayable",
      "type": "function"
    },
    {
      "constant": false,
      "inputs": [],
      "name": "renounceOwnership",
      "outputs": [],
      "payable": false,
      "stateMutability": "nonpayable",
      "type": "function"
    },
    {
      "constant": true,
      "inputs": [
        {
          "internalType": "address",
          "name": "",
          "type": "address"
        },
        {
          "internalType": "uint256",
          "name": "",
          "type": "uint256"
        }
      ],
      "name": "requestNonceTaken",
      "outputs": [
        {
          "internalType": "bool",
          "name": "",
          "type": "bool"
        }
      ],
      "payable": false,
      "stateMutability": "view",
      "type": "function"
    },
    {
      "constant": true,
      "inputs": [],
      "name": "settings",
      "outputs": [
        {
          "internalType": "contract SettingsInterface",
          "name": "",
          "type": "address"
        }
      ],
      "payable": false,
      "stateMutability": "view",
      "type": "function"
    },
    {
      "constant": true,
      "inputs": [
        {
          "internalType": "address",
          "name": "",
          "type": "address"
        },
        {
          "internalType": "uint256",
          "name": "",
          "type": "uint256"
        }
      ],
      "name": "signerNonceTaken",
      "outputs": [
        {
          "internalType": "bool",
          "name": "",
          "type": "bool"
        }
      ],
      "payable": false,
      "stateMutability": "view",
      "type": "function"
    },
    {
      "constant": false,
      "inputs": [
        {
          "internalType": "address",
          "name": "newOwner",
          "type": "address"
        }
      ],
      "name": "transferOwnership",
      "outputs": [],
      "payable": false,
      "stateMutability": "nonpayable",
      "type": "function"
    },
    {
      "constant": false,
      "inputs": [
        {
          "components": [
            {
              "internalType": "address",
              "name": "lender",
              "type": "address"
            },
            {
              "internalType": "address",
              "name": "consensusAddress",
              "type": "address"
            },
            {
              "internalType": "uint256",
              "name": "requestNonce",
              "type": "uint256"
            },
            {
              "internalType": "uint256",
              "name": "startTime",
              "type": "uint256"
            },
            {
              "internalType": "uint256",
              "name": "endTime",
              "type": "uint256"
            },
            {
              "internalType": "uint256",
              "name": "requestTime",
              "type": "uint256"
            }
          ],
          "internalType": "struct TellerCommon.InterestRequest",
          "name": "request",
          "type": "tuple"
        },
        {
          "components": [
            {
              "internalType": "address",
              "name": "signer",
              "type": "address"
            },
            {
              "internalType": "address",
              "name": "consensusAddress",
              "type": "address"
            },
            {
              "internalType": "uint256",
              "name": "responseTime",
              "type": "uint256"
            },
            {
              "internalType": "uint256",
              "name": "interest",
              "type": "uint256"
            },
            {
              "components": [
                {
                  "internalType": "uint256",
                  "name": "signerNonce",
                  "type": "uint256"
                },
                {
                  "internalType": "uint8",
                  "name": "v",
                  "type": "uint8"
                },
                {
                  "internalType": "bytes32",
                  "name": "r",
                  "type": "bytes32"
                },
                {
                  "internalType": "bytes32",
                  "name": "s",
                  "type": "bytes32"
                }
              ],
              "internalType": "struct TellerCommon.Signature",
              "name": "signature",
              "type": "tuple"
            }
          ],
          "internalType": "struct TellerCommon.InterestResponse[]",
          "name": "responses",
          "type": "tuple[]"
        }
      ],
      "name": "processRequest",
      "outputs": [
        {
          "internalType": "uint256",
          "name": "",
          "type": "uint256"
        }
      ],
      "payable": false,
      "stateMutability": "nonpayable",
      "type": "function"
    }
  ],
  "bytecode": "0x60806040526126f1806100136000396000f3fe608060405234801561001057600080fd5b50600436106101215760003560e01c80638f32d59b116100ad578063e8906a2d11610071578063e8906a2d1461023d578063eb12d61e14610250578063f2fde38b14610263578063faa8aab114610276578063fb98d9e21461027e57610121565b80638f32d59b146101e757806399ffe065146101ef578063c0c53b8b14610202578063c4d66de814610215578063e06174e41461022857610121565b806368fcdeb8116100f457806368fcdeb81461019c578063715018a6146101af5780637df73e27146101b75780638129fc1c146101ca5780638da5cb5b146101d257610121565b80630e316ab714610126578063158ef93e1461013b57806365e8eb8e1461015957806367136b351461017c575b600080fd5b610139610134366004611acc565b610291565b005b6101436102ca565b60405161015091906123af565b60405180910390f35b61016c610167366004611b7a565b6102ec565b60405161015094939291906125a0565b61018f61018a366004611c25565b61031e565b60405161015091906123bd565b6101436101aa366004611b7a565b6106b6565b6101396106d6565b6101436101c5366004611acc565b610744565b61013961075d565b6101da6107e4565b60405161015091906122d0565b6101436107f3565b6101436101fd366004611b37565b610819565b610139610210366004611aea565b61083f565b610139610223366004611acc565b6108c8565b61023061099b565b6040516101509190612409565b61013961024b366004611bb4565b6109aa565b61013961025e366004611acc565b610a32565b610139610271366004611acc565b610a5f565b6101da610a8c565b61014361028c366004611b7a565b610a9b565b6102996107f3565b6102be5760405162461bcd60e51b81526004016102b5906124e8565b60405180910390fd5b6102c781610abb565b50565b60008060016040516102db9061229a565b604051908190039020035492915050565b609e60209081526000928352604080842090915290825290208054600182015460028301546003909301549192909184565b60006103286102ca565b6103445760405162461bcd60e51b81526004016102b590612548565b3361034e81610b03565b61036a5760405162461bcd60e51b81526004016102b590612538565b610372610b17565b6001600160a01b031663269012a0610388610b17565b6001600160a01b031663d86d744e6040518163ffffffff1660e01b815260040160206040518083038186803b1580156103c057600080fd5b505afa1580156103d4573d6000803e3d6000fd5b505050506040513d601f19601f820116820180604052506103f89190810190611c07565b6001600160a01b0316633ff591d96040518163ffffffff1660e01b815260040160206040518083038186803b15801561043057600080fd5b505afa158015610444573d6000803e3d6000fd5b505050506040513d601f19601f820116820180604052506104689190810190611be9565b6040518263ffffffff1660e01b815260040161048491906123bd565b60206040518083038186803b15801561049c57600080fd5b505afa1580156104b0573d6000803e3d6000fd5b505050506040513d601f19601f820116820180604052506104d49190810190611be9565b8310156104f35760405162461bcd60e51b81526004016102b590612568565b609d60006105046020880188611acc565b6001600160a01b031681526020808201929092526040908101600090812088830135825290925290205460ff161561054e5760405162461bcd60e51b81526004016102b5906124c8565b6001609d60006105616020890189611acc565b6001600160a01b03168152602080820192909252604090810160009081208983013582529092528120805460ff1916921515929092179091556105b16105ac36889003880188611c7b565b610b3c565b905060005b84811015610601576105f96105d036899003890189611c7b565b8787848181106105dc57fe5b905061010002018036036105f39190810190611c99565b84610ba8565b6001016105b6565b506000610651609e8261061760208b018b611acc565b6001600160a01b03166001600160a01b03168152602001908152602001600020600089608001358152602001908152602001600020610c7d565b90506106606020880188611acc565b6001600160a01b03167f3ae9cc3885aef787ea70c8cdfc77b61a78c7b546f8d22ea80fa0aeb7b0894b1488604001358960800135846040516106a493929190612578565b60405180910390a29695505050505050565b609b60209081526000928352604080842090915290825290205460ff1681565b6106de6107f3565b6106fa5760405162461bcd60e51b81526004016102b5906124e8565b6066546040516000916001600160a01b0316907f8be0079c531659141344cd1fd0a4f28419497f9722a3daafe3b4186f6b6457e0908390a3606680546001600160a01b0319169055565b600061075760998363ffffffff610e1e16565b92915050565b600054610100900460ff16806107765750610776610e66565b80610784575060005460ff16155b6107a05760405162461bcd60e51b81526004016102b590612508565b600054610100900460ff161580156107cb576000805460ff1961ff0019909116610100171660011790555b600160335580156102c7576000805461ff001916905550565b6066546001600160a01b031690565b6066546000906001600160a01b031661080a610e6c565b6001600160a01b031614905090565b609a60209081526000938452604080852082529284528284209052825290205460ff1681565b6108476102ca565b156108645760405162461bcd60e51b81526004016102b590612558565b610876826001600160a01b0316610e70565b6108925760405162461bcd60e51b81526004016102b590612498565b61089b836108c8565b6108a481610eac565b50609c80546001600160a01b0319166001600160a01b039290921691909117905550565b600054610100900460ff16806108e157506108e1610e66565b806108ef575060005460ff16155b61090b5760405162461bcd60e51b81526004016102b590612508565b600054610100900460ff16158015610936576000805460ff1961ff0019909116610100171660011790555b606680546001600160a01b0319166001600160a01b0384811691909117918290556040519116906000907f8be0079c531659141344cd1fd0a4f28419497f9722a3daafe3b4186f6b6457e0908290a38015610997576000805461ff00191690555b5050565b60006109a5610b17565b905090565b6109b26107f3565b6109ce5760405162461bcd60e51b81526004016102b5906124e8565b60008151116109ef5760405162461bcd60e51b81526004016102b590612438565b60005b8151811015610997576000828281518110610a0957fe5b60200260200101519050610a1c81610744565b610a2957610a2981610f5e565b506001016109f2565b610a3a6107f3565b610a565760405162461bcd60e51b81526004016102b5906124e8565b6102c781610f5e565b610a676107f3565b610a835760405162461bcd60e51b81526004016102b5906124e8565b6102c781610fa6565b609c546001600160a01b031681565b609d60209081526000928352604080842090915290825290205460ff1681565b610acc60998263ffffffff61102816565b6040516001600160a01b038216907f3525e22824a8a7df2c9a6029941c824cf95b6447f1e13d5128fd3826d35afe8b90600090a250565b609c546001600160a01b0391821691161490565b60008060006001604051610b2a906122c5565b60405190819003902003549250505090565b609c548151602083015160408401516060850151608086015160a08701516000966001600160a01b0316959493929190610b74611070565b604051602001610b8b9897969594939291906122de565b604051602081830303815290604052805190602001209050919050565b6000610bb48383611074565b9050610bd883600001518560000151866040015186604001518588608001516110ca565b606083015184516001600160a01b03166000908152609e60209081526040808320608089015184529091529020610c149163ffffffff61134816565b83600001516001600160a01b031683600001516001600160a01b03167f6f00cb8f849a2a1b231819b8145a2da4a16ffffe806e5e39787bc79ca276097c866040015187608001518760600151604051610c6f93929190612578565b60405180910390a350505050565b6000610df9610c8a610b17565b6001600160a01b031663269012a0610ca0610b17565b6001600160a01b031663d86d744e6040518163ffffffff1660e01b815260040160206040518083038186803b158015610cd857600080fd5b505afa158015610cec573d6000803e3d6000fd5b505050506040513d601f19601f82011682018060405250610d109190810190611c07565b6001600160a01b031663c41dd8ce6040518163ffffffff1660e01b815260040160206040518083038186803b158015610d4857600080fd5b505afa158015610d5c573d6000803e3d6000fd5b505050506040513d601f19601f82011682018060405250610d809190810190611be9565b6040518263ffffffff1660e01b8152600401610d9c91906123bd565b60206040518083038186803b158015610db457600080fd5b505afa158015610dc8573d6000803e3d6000fd5b505050506040513d601f19601f82011682018060405250610dec9190810190611be9565b839063ffffffff6113ad16565b610e155760405162461bcd60e51b81526004016102b590612468565b6107578261144c565b60006001600160a01b038216610e465760405162461bcd60e51b81526004016102b5906124f8565b506001600160a01b03166000908152602091909152604090205460ff1690565b303b1590565b3390565b6000813f7fc5d2460186f7233c927e7db2dcc703c0e500b653ca82273b7bfad8045d85a470818114801590610ea457508115155b949350505050565b610eb46102ca565b15610ed15760405162461bcd60e51b81526004016102b590612558565b60408051808201909152601981527f53455454494e47535f4d5553545f42455f50524f5649444544000000000000006020820152610f1f906001600160a01b0383169063ffffffff61148516565b610f31816001600160a01b0316610e70565b610f4d5760405162461bcd60e51b81526004016102b590612488565b610f556114b2565b6102c7816114d4565b610f6f60998263ffffffff61154616565b6040516001600160a01b038216907f47d1c22a25bb3a5d4e481b9b1e6944c2eade3181a0a20b495ed61d35b5323f2490600090a250565b6001600160a01b038116610fcc5760405162461bcd60e51b81526004016102b590612458565b6066546040516001600160a01b038084169216907f8be0079c531659141344cd1fd0a4f28419497f9722a3daafe3b4186f6b6457e090600090a3606680546001600160a01b0319166001600160a01b0392909216919091179055565b6110328282610e1e565b61104e5760405162461bcd60e51b81526004016102b5906124b8565b6001600160a01b0316600090815260209190915260409020805460ff19169055565b4690565b6000826020015183604001518460600151856080015160000151611096611070565b866040516020016110ac96959493929190612355565b60405160208183030381529060405280519060200120905092915050565b6001600160a01b038087166000908152609a6020908152604080832093891683529281528282208783529052205460ff16156111185760405162461bcd60e51b81526004016102b590612448565b6001600160a01b038087166000908152609a602090815260408083209389168352928152828220878352905220805460ff191660011790556112ca61115b610b17565b6001600160a01b031663269012a0611171610b17565b6001600160a01b031663d86d744e6040518163ffffffff1660e01b815260040160206040518083038186803b1580156111a957600080fd5b505afa1580156111bd573d6000803e3d6000fd5b505050506040513d601f19601f820116820180604052506111e19190810190611c07565b6001600160a01b031663e3f33d006040518163ffffffff1660e01b815260040160206040518083038186803b15801561121957600080fd5b505afa15801561122d573d6000803e3d6000fd5b505050506040513d601f19601f820116820180604052506112519190810190611be9565b6040518263ffffffff1660e01b815260040161126d91906123bd565b60206040518083038186803b15801561128557600080fd5b505afa158015611299573d6000803e3d6000fd5b505050506040513d601f19601f820116820180604052506112bd9190810190611be9565b429063ffffffff61159216565b8310156112e95760405162461bcd60e51b81526004016102b590612518565b6112f48183886115db565b6113105760405162461bcd60e51b81526004016102b590612528565b6001600160a01b039095166000908152609b602090815260408083209751835296905294909420805460ff1916600117905550505050565b808260010154101561135c57600182018190555b808260020154118061136d57508154155b1561137a57600282018190555b600382015461138f908263ffffffff6116d316565b600383015581546113a790600163ffffffff6116d316565b90915550565b60006113b8836116f8565b156113c557506000610757565b60006113d08461144c565b905060006113e4828563ffffffff61170a16565b905060006113f8838363ffffffff61159216565b905080866002015410156114125760009350505050610757565b6000611424848463ffffffff6116d316565b9050808760010154111561143f576000945050505050610757565b5060019695505050505050565b6000611457826116f8565b61147d5761147861146783611733565b60038401549063ffffffff61173716565b610757565b506000919050565b61148e82611779565b81906114ad5760405162461bcd60e51b81526004016102b59190612417565b505050565b600060016040516114c29061229a565b60405190819003902060019190035550565b6114ed6114df610b17565b6001600160a01b0316611779565b156114f7576102c7565b611509816001600160a01b0316610e70565b6115255760405162461bcd60e51b81526004016102b590612488565b60006001604051611535906122c5565b604051908190039020038290555050565b6115508282610e1e565b1561156d5760405162461bcd60e51b81526004016102b590612428565b6001600160a01b0316600090815260209190915260409020805460ff19166001179055565b60006115d483836040518060400160405280601e81526020017f536166654d6174683a207375627472616374696f6e206f766572666c6f770000815250611787565b9392505050565b60006115e682610744565b6115f2575060006115d4565b6001600160a01b0382166000908152609b602090815260408083208751845290915290205460ff16156116375760405162461bcd60e51b81526004016102b5906124a8565b600060018460405160200161164c91906122a5565b604051602081830303815290604052805190602001208660200151876040015188606001516040516000815260200160405260405161168e94939291906123cb565b6020604051602081039080840390855afa1580156116b0573d6000803e3d6000fd5b5050604051601f1901516001600160a01b03858116911614925050509392505050565b6000828201838110156115d45760405162461bcd60e51b81526004016102b590612478565b600061170382611733565b1592915050565b60006115d46117176117b3565b611727858563ffffffff6117b916565b9063ffffffff61173716565b5490565b60006115d483836040518060400160405280601a81526020017f536166654d6174683a206469766973696f6e206279207a65726f0000000000008152506117f3565b6001600160a01b0316151590565b600081848411156117ab5760405162461bcd60e51b81526004016102b59190612417565b505050900390565b61271090565b6000826117c857506000610757565b828202828482816117d557fe5b04146115d45760405162461bcd60e51b81526004016102b5906124d8565b600081836118145760405162461bcd60e51b81526004016102b59190612417565b50600083858161182057fe5b0495945050505050565b80356107578161267f565b600082601f83011261184657600080fd5b8135611859611854826125e2565b6125bb565b9150818183526020840193506020810190508385602084028201111561187e57600080fd5b60005b838110156118aa5781611894888261182a565b8452506020928301929190910190600101611881565b5050505092915050565b60008083601f8401126118c657600080fd5b50813567ffffffffffffffff8111156118de57600080fd5b602083019150836101008202830111156118f757600080fd5b9250929050565b803561075781612693565b805161075781612693565b80516107578161269c565b600060c0828403121561193157600080fd5b50919050565b600060c0828403121561194957600080fd5b61195360c06125bb565b90506000611961848461182a565b82525060206119728484830161182a565b6020830152506040611986848285016118fe565b604083015250606061199a848285016118fe565b60608301525060806119ae848285016118fe565b60808301525060a06119c2848285016118fe565b60a08301525092915050565b600061010082840312156119e157600080fd5b6119eb60a06125bb565b905060006119f9848461182a565b8252506020611a0a8484830161182a565b6020830152506040611a1e848285016118fe565b6040830152506060611a32848285016118fe565b6060830152506080611a4684828501611a52565b60808301525092915050565b600060808284031215611a6457600080fd5b611a6e60806125bb565b90506000611a7c84846118fe565b8252506020611a8d84848301611ac1565b6020830152506040611aa1848285016118fe565b6040830152506060611ab5848285016118fe565b60608301525092915050565b8035610757816126a5565b600060208284031215611ade57600080fd5b6000610ea4848461182a565b600080600060608486031215611aff57600080fd5b6000611b0b868661182a565b9350506020611b1c8682870161182a565b9250506040611b2d8682870161182a565b9150509250925092565b600080600060608486031215611b4c57600080fd5b6000611b58868661182a565b9350506020611b698682870161182a565b9250506040611b2d868287016118fe565b60008060408385031215611b8d57600080fd5b6000611b99858561182a565b9250506020611baa858286016118fe565b9150509250929050565b600060208284031215611bc657600080fd5b813567ffffffffffffffff811115611bdd57600080fd5b610ea484828501611835565b600060208284031215611bfb57600080fd5b6000610ea48484611909565b600060208284031215611c1957600080fd5b6000610ea48484611914565b600080600060e08486031215611c3a57600080fd5b6000611c46868661191f565b93505060c084013567ffffffffffffffff811115611c6357600080fd5b611c6f868287016118b4565b92509250509250925092565b600060c08284031215611c8d57600080fd5b6000610ea48484611937565b60006101008284031215611cac57600080fd5b6000610ea484846119ce565b611cc181612615565b82525050565b611cc181612620565b611cc181612625565b611cc1611ce582612625565b612625565b611cc181612628565b6000611cfe82612603565b611d088185612607565b9350611d18818560208601612645565b611d2181612675565b9093019392505050565b6000611d38601c83612610565b7f54496e697469616c697a61626c652e6973496e697469616c697a6564000000008152601c0192915050565b6000611d71601f83612607565b7f526f6c65733a206163636f756e7420616c72656164792068617320726f6c6500815260200192915050565b6000611daa601383612607565b724143434f554e54535f4c4953545f454d50545960681b815260200192915050565b6000611dd9601c83612610565b7f19457468657265756d205369676e6564204d6573736167653a0a3332000000008152601c0192915050565b6000611e12601883612607565b7f5349474e45525f414c52454144595f5355424d49545445440000000000000000815260200192915050565b6000611e4b602683612607565b7f4f776e61626c653a206e6577206f776e657220697320746865207a65726f206181526564647265737360d01b602082015260400192915050565b6000611e93601483612607565b73149154d413d394d154d7d513d3d7d5905492515160621b815260200192915050565b6000611ec3601b83612607565b7f536166654d6174683a206164646974696f6e206f766572666c6f770000000000815260200192915050565b6000611efc601b83612607565b7f53455454494e47535f4d5553545f42455f415f434f4e54524143540000000000815260200192915050565b6000611f35601783612607565b7f43414c4c45525f4d5553545f42455f434f4e5452414354000000000000000000815260200192915050565b6000611f6e601283612607565b7129a4a3a722a92fa727a721a2afaa20a5a2a760711b815260200192915050565b6000611f9c602183612607565b7f526f6c65733a206163636f756e7420646f6573206e6f74206861766520726f6c8152606560f81b602082015260400192915050565b6000611fdf601c83612607565b7f494e5445524553545f524551554553545f4e4f4e43455f54414b454e00000000815260200192915050565b6000612018602183612607565b7f536166654d6174683a206d756c7469706c69636174696f6e206f766572666c6f8152607760f81b602082015260400192915050565b600061205b602083612607565b7f4f776e61626c653a2063616c6c6572206973206e6f7420746865206f776e6572815260200192915050565b6000612094602283612607565b7f526f6c65733a206163636f756e7420697320746865207a65726f206164647265815261737360f01b602082015260400192915050565b60006120d8602e83612607565b7f436f6e747261637420696e7374616e63652068617320616c726561647920626581526d195b881a5b9a5d1a585b1a5e995960921b602082015260400192915050565b6000612128601083612607565b6f149154d413d394d157d156141254915160821b815260200192915050565b6000612154601183612607565b7014d251d3905515549157d2539590531251607a1b815260200192915050565b6000612181601883612607565b7f53454e4445525f4841534e545f5045524d495353494f4e530000000000000000815260200192915050565b60006121ba601883612610565b7f426173655570677261646561626c652e73657474696e67730000000000000000815260180192915050565b60006121f3601883612607565b7f434f4e54524143545f4e4f545f494e495449414c495a45440000000000000000815260200192915050565b600061222c601c83612607565b7f434f4e54524143545f414c52454144595f494e495449414c495a454400000000815260200192915050565b6000612265601f83612607565b7f494e5445524553545f494e53554646494349454e545f524553504f4e53455300815260200192915050565b611cc18161263f565b600061075782611d2b565b60006122b082611dcc565b91506122bc8284611cd9565b50602001919050565b6000610757826121ad565b602081016107578284611cb8565b61010081016122ed828b611cb8565b6122fa602083018a611cb8565b6123076040830189611cb8565b6123146060830188611cd0565b6123216080830187611cd0565b61232e60a0830186611cd0565b61233b60c0830185611cd0565b61234860e0830184611cd0565b9998505050505050505050565b60c081016123638289611cb8565b6123706020830188611cd0565b61237d6040830187611cd0565b61238a6060830186611cd0565b6123976080830185611cd0565b6123a460a0830184611cd0565b979650505050505050565b602081016107578284611cc7565b602081016107578284611cd0565b608081016123d98287611cd0565b6123e66020830186612291565b6123f36040830185611cd0565b6124006060830184611cd0565b95945050505050565b602081016107578284611cea565b602080825281016115d48184611cf3565b6020808252810161075781611d64565b6020808252810161075781611d9d565b6020808252810161075781611e05565b6020808252810161075781611e3e565b6020808252810161075781611e86565b6020808252810161075781611eb6565b6020808252810161075781611eef565b6020808252810161075781611f28565b6020808252810161075781611f61565b6020808252810161075781611f8f565b6020808252810161075781611fd2565b602080825281016107578161200b565b602080825281016107578161204e565b6020808252810161075781612087565b60208082528101610757816120cb565b602080825281016107578161211b565b6020808252810161075781612147565b6020808252810161075781612174565b60208082528101610757816121e6565b602080825281016107578161221f565b6020808252810161075781612258565b606081016125868286611cd0565b6125936020830185611cd0565b610ea46040830184611cd0565b608081016125ae8287611cd0565b6123e66020830186611cd0565b60405181810167ffffffffffffffff811182821017156125da57600080fd5b604052919050565b600067ffffffffffffffff8211156125f957600080fd5b5060209081020190565b5190565b90815260200190565b919050565b600061075782612633565b151590565b90565b600061075782612615565b6001600160a01b031690565b60ff1690565b60005b83811015612660578181015183820152602001612648565b8381111561266f576000848401525b50505050565b601f01601f191690565b61268881612615565b81146102c757600080fd5b61268881612625565b61268881612628565b6126888161263f56fea365627a7a723158209fb67ea66d06dfd76df1b8f2be572b0c1bac35587ba677a07f68e8aaa5510c2a6c6578706572696d656e74616cf564736f6c63430005110040",
  "source": "pragma solidity 0.5.17;\npragma experimental ABIEncoderV2;\n\n// Libraries\n\n// Interfaces\nimport \"../interfaces/InterestConsensusInterface.sol\";\n\n// Contracts\nimport \"./Consensus.sol\";\n\n/*****************************************************************************************************/\n/**                                             WARNING                                             **/\n/**                                  THIS CONTRACT IS UPGRADEABLE!                                  **/\n/**  ---------------------------------------------------------------------------------------------  **/\n/**  Do NOT change the order of or PREPEND any storage variables to this or new versions of this    **/\n/**  contract as this will cause the the storage slots to be overwritten on the proxy contract!!    **/\n/**                                                                                                 **/\n/**  Visit https://docs.openzeppelin.com/upgrades/2.6/proxies#upgrading-via-the-proxy-pattern for   **/\n/**  more information.                                                                              **/\n/*****************************************************************************************************/\n/**\n    @notice This contract processes the node responses to get consensus in the lender interest.\n\n    @author develop@teller.finance\n */\ncontract InterestConsensus is InterestConsensusInterface, Consensus {\n    /* State Variables */\n\n    // mapping of (lender, endTime) to the aggregated node submissions for their request\n    mapping(address => mapping(uint256 => NumbersList.Values)) public interestSubmissions;\n\n    /** Modifiers */\n\n    /* Constructor */\n\n    /* External Functions */\n    /**\n        @notice It processes all the node responses for a request in order to get a consensus value.\n        @param request the interest request sent by the lender.\n        @param responses all node responses to process.\n        @return the consensus interest.\n     */\n    function processRequest(\n        TellerCommon.InterestRequest calldata request,\n        TellerCommon.InterestResponse[] calldata responses\n    ) external isInitialized() isCaller(msg.sender) returns (uint256) {\n        require(\n            responses.length >=\n                _getSettings().getPlatformSettingValue(\n                    _getSettings().consts().REQUIRED_SUBMISSIONS_SETTING()\n                ),\n            \"INTEREST_INSUFFICIENT_RESPONSES\"\n        );\n        require(\n            !requestNonceTaken[request.lender][request.requestNonce],\n            \"INTEREST_REQUEST_NONCE_TAKEN\"\n        );\n        requestNonceTaken[request.lender][request.requestNonce] = true;\n\n        bytes32 requestHash = _hashRequest(request);\n\n        for (uint256 i = 0; i < responses.length; i++) {\n            _processResponse(request, responses[i], requestHash);\n        }\n\n        uint256 interestAccrued = _getConsensus(\n            interestSubmissions[request.lender][request.endTime]\n        );\n\n        emit InterestAccepted(\n            request.lender,\n            request.requestNonce,\n            request.endTime,\n            interestAccrued\n        );\n\n        return interestAccrued;\n    }\n\n    /** Internal Functions */\n\n    /**\n        @notice It processes a node response.\n        @param request the interest request sent by the lender.\n        @param response a node response.\n     */\n    function _processResponse(\n        TellerCommon.InterestRequest memory request,\n        TellerCommon.InterestResponse memory response,\n        bytes32 requestHash\n    ) internal {\n        bytes32 responseHash = _hashResponse(response, requestHash);\n\n        _validateResponse(\n            response.signer,\n            request.lender,\n            request.requestNonce,\n            response.responseTime,\n            responseHash,\n            response.signature\n        );\n\n        interestSubmissions[request.lender][request.endTime].addValue(response.interest);\n\n        emit InterestSubmitted(\n            response.signer,\n            request.lender,\n            request.requestNonce,\n            request.endTime,\n            response.interest\n        );\n    }\n\n    /**\n        @notice It creates a hash based on a node response and lender request.\n        @param response a node response.\n        @param requestHash a hash value that represents the lender request.\n        @return a hash value.\n     */\n    function _hashResponse(\n        TellerCommon.InterestResponse memory response,\n        bytes32 requestHash\n    ) internal view returns (bytes32) {\n        return\n            keccak256(\n                abi.encode(\n                    response.consensusAddress,\n                    response.responseTime,\n                    response.interest,\n                    response.signature.signerNonce,\n                    _getChainId(),\n                    requestHash\n                )\n            );\n    }\n\n    /**\n        @notice It creates a hash value based on the lender request.\n        @param request the interest request sent by the lender.\n        @return a hash value.\n     */\n    function _hashRequest(TellerCommon.InterestRequest memory request)\n        internal\n        view\n        returns (bytes32)\n    {\n        return\n            keccak256(\n                abi.encode(\n                    callerAddress,\n                    request.lender,\n                    request.consensusAddress,\n                    request.requestNonce,\n                    request.startTime,\n                    request.endTime,\n                    request.requestTime,\n                    _getChainId()\n                )\n            );\n    }\n}\n",
  "sourcePath": "/Users/sy/Documents/GitHub/teller-protocol-v1/contracts/base/InterestConsensus.sol",
  "compiler": {
    "name": "solc",
    "version": "0.5.17+commit.d19bba13.Emscripten.clang"
  },
  "schemaVersion": "3.2.3",
  "updatedAt": "2020-12-28T20:49:13.002Z",
  "networkType": "ethereum",
  "devdoc": {
    "author": "develop@teller.finance",
    "methods": {
      "addSigner(address)": {
        "details": "The sender must be the owner.It throws a require error if the sender is not the owner.",
        "params": {
          "account": "address to add."
        }
      },
      "addSigners(address[])": {
        "details": "The sender must be the owner.It throws a require error if the sender is not the owner.",
        "params": {
          "accounts": "addresses to add."
        }
      },
      "initialize(address)": {
        "details": "Initializes the contract setting the deployer as the initial owner."
      },
      "initialize(address,address,address)": {
        "details": "The caller address must be the loans contract for LoanTermsConsensus, and the lenders contract for InterestConsensus.",
        "params": {
          "aCallerAddress": "the contract that will call it.",
          "aSettingAddress": "the settings contract address.",
          "owner": "the owner address."
        }
      },
      "initialized()": {
        "return": "true if contract is initialized. Otherwise it returns false."
      },
      "isOwner()": {
        "details": "Returns true if the caller is the current owner."
      },
      "isSigner(address)": {
        "params": {
          "account": "address to test."
        },
        "return": "true if account is a signer. Otherwise it returns false."
      },
      "owner()": {
        "details": "Returns the address of the current owner."
      },
      "processRequest((address,address,uint256,uint256,uint256,uint256),(address,address,uint256,uint256,(uint256,uint8,bytes32,bytes32))[])": {
        "params": {
          "request": "the interest request sent by the lender.",
          "responses": "all node responses to process."
        },
        "return": "the consensus interest."
      },
      "removeSigner(address)": {
        "details": "The sender must be the owner.It throws a require error if the sender is not the owner.",
        "params": {
          "account": "address to remove."
        }
      },
      "renounceOwnership()": {
        "details": "Leaves the contract without owner. It will not be possible to call `onlyOwner` functions anymore. Can only be called by the current owner.     * > Note: Renouncing ownership will leave the contract without an owner, thereby removing any functionality that is only available to the owner."
      },
      "settings()": {
        "details": "This address should NOT change over the time. See details in the _setSettings(...) function."
      },
      "transferOwnership(address)": {
        "details": "Transfers ownership of the contract to a new account (`newOwner`). Can only be called by the current owner."
      }
    }
  },
  "userdoc": {
    "methods": {
      "addSigner(address)": {
        "notice": "It adds a new account as a signer."
      },
      "addSigners(address[])": {
        "notice": "It adds a list of account as signers."
      },
      "initialize(address,address,address)": {
        "notice": "It initializes this consensus contract."
      },
      "initialized()": {
        "notice": "Gets if the contract is initialized."
      },
      "isSigner(address)": {
        "notice": "Gets whether an account address is a signer or not."
      },
      "processRequest((address,address,uint256,uint256,uint256,uint256),(address,address,uint256,uint256,(uint256,uint8,bytes32,bytes32))[])": {
        "notice": "It processes all the node responses for a request in order to get a consensus value."
      },
      "removeSigner(address)": {
        "notice": "It removes an account as signer."
      },
      "settings()": {
        "notice": "The gets the settings contract address from the SETTINGS_SLOT."
      }
    },
    "notice": "This contract processes the node responses to get consensus in the lender interest."
  }
}