{
  "contractName": "InterestConsensus",
  "abi": [
    {
      "anonymous": false,
      "inputs": [
        {
          "indexed": true,
          "internalType": "address",
          "name": "lender",
          "type": "address"
        },
        {
          "indexed": false,
          "internalType": "uint256",
          "name": "requestNonce",
          "type": "uint256"
        },
        {
          "indexed": false,
          "internalType": "uint256",
          "name": "endTime",
          "type": "uint256"
        },
        {
          "indexed": false,
          "internalType": "uint256",
          "name": "interest",
          "type": "uint256"
        }
      ],
      "name": "InterestAccepted",
      "type": "event"
    },
    {
      "anonymous": false,
      "inputs": [
        {
          "indexed": true,
          "internalType": "address",
          "name": "signer",
          "type": "address"
        },
        {
          "indexed": true,
          "internalType": "address",
          "name": "lender",
          "type": "address"
        },
        {
          "indexed": false,
          "internalType": "uint256",
          "name": "requestNonce",
          "type": "uint256"
        },
        {
          "indexed": false,
          "internalType": "uint256",
          "name": "endTime",
          "type": "uint256"
        },
        {
          "indexed": false,
          "internalType": "uint256",
          "name": "interest",
          "type": "uint256"
        }
      ],
      "name": "InterestSubmitted",
      "type": "event"
    },
    {
      "anonymous": false,
      "inputs": [
        {
          "indexed": true,
          "internalType": "address",
          "name": "previousOwner",
          "type": "address"
        },
        {
          "indexed": true,
          "internalType": "address",
          "name": "newOwner",
          "type": "address"
        }
      ],
      "name": "OwnershipTransferred",
      "type": "event"
    },
    {
      "anonymous": false,
      "inputs": [
        {
          "indexed": true,
          "internalType": "address",
          "name": "account",
          "type": "address"
        }
      ],
      "name": "SignerAdded",
      "type": "event"
    },
    {
      "anonymous": false,
      "inputs": [
        {
          "indexed": true,
          "internalType": "address",
          "name": "account",
          "type": "address"
        }
      ],
      "name": "SignerRemoved",
      "type": "event"
    },
    {
      "constant": false,
      "inputs": [
        {
          "internalType": "address",
          "name": "account",
          "type": "address"
        }
      ],
      "name": "addSigner",
      "outputs": [],
      "payable": false,
      "stateMutability": "nonpayable",
      "type": "function"
    },
    {
      "constant": true,
      "inputs": [],
      "name": "callerAddress",
      "outputs": [
        {
          "internalType": "address",
          "name": "",
          "type": "address"
        }
      ],
      "payable": false,
      "stateMutability": "view",
      "type": "function"
    },
    {
      "constant": true,
      "inputs": [
        {
          "internalType": "address",
          "name": "",
          "type": "address"
        },
        {
          "internalType": "address",
          "name": "",
          "type": "address"
        },
        {
          "internalType": "uint256",
          "name": "",
          "type": "uint256"
        }
      ],
      "name": "hasSubmitted",
      "outputs": [
        {
          "internalType": "bool",
          "name": "",
          "type": "bool"
        }
      ],
      "payable": false,
      "stateMutability": "view",
      "type": "function"
    },
    {
      "constant": false,
      "inputs": [
        {
          "internalType": "address",
          "name": "aCallerAddress",
          "type": "address"
        },
        {
          "internalType": "address",
          "name": "aSettingAddress",
          "type": "address"
        }
      ],
      "name": "initialize",
      "outputs": [],
      "payable": false,
      "stateMutability": "nonpayable",
      "type": "function"
    },
    {
      "constant": true,
      "inputs": [],
      "name": "initialized",
      "outputs": [
        {
          "internalType": "bool",
          "name": "",
          "type": "bool"
        }
      ],
      "payable": false,
      "stateMutability": "view",
      "type": "function"
    },
    {
      "constant": true,
      "inputs": [
        {
          "internalType": "address",
          "name": "",
          "type": "address"
        },
        {
          "internalType": "uint256",
          "name": "",
          "type": "uint256"
        }
      ],
      "name": "interestSubmissions",
      "outputs": [
        {
          "internalType": "uint256",
          "name": "count",
          "type": "uint256"
        },
        {
          "internalType": "uint256",
          "name": "max",
          "type": "uint256"
        },
        {
          "internalType": "uint256",
          "name": "min",
          "type": "uint256"
        },
        {
          "internalType": "uint256",
          "name": "sum",
          "type": "uint256"
        }
      ],
      "payable": false,
      "stateMutability": "view",
      "type": "function"
    },
    {
      "constant": true,
      "inputs": [],
      "name": "isOwner",
      "outputs": [
        {
          "internalType": "bool",
          "name": "",
          "type": "bool"
        }
      ],
      "payable": false,
      "stateMutability": "view",
      "type": "function"
    },
    {
      "constant": true,
      "inputs": [
        {
          "internalType": "address",
          "name": "account",
          "type": "address"
        }
      ],
      "name": "isSigner",
      "outputs": [
        {
          "internalType": "bool",
          "name": "",
          "type": "bool"
        }
      ],
      "payable": false,
      "stateMutability": "view",
      "type": "function"
    },
    {
      "constant": true,
      "inputs": [],
      "name": "owner",
      "outputs": [
        {
          "internalType": "address",
          "name": "",
          "type": "address"
        }
      ],
      "payable": false,
      "stateMutability": "view",
      "type": "function"
    },
    {
      "constant": false,
      "inputs": [
        {
          "internalType": "address",
          "name": "account",
          "type": "address"
        }
      ],
      "name": "removeSigner",
      "outputs": [],
      "payable": false,
      "stateMutability": "nonpayable",
      "type": "function"
    },
    {
      "constant": false,
      "inputs": [],
      "name": "renounceOwnership",
      "outputs": [],
      "payable": false,
      "stateMutability": "nonpayable",
      "type": "function"
    },
    {
      "constant": true,
      "inputs": [
        {
          "internalType": "address",
          "name": "",
          "type": "address"
        },
        {
          "internalType": "uint256",
          "name": "",
          "type": "uint256"
        }
      ],
      "name": "requestNonceTaken",
      "outputs": [
        {
          "internalType": "bool",
          "name": "",
          "type": "bool"
        }
      ],
      "payable": false,
      "stateMutability": "view",
      "type": "function"
    },
    {
      "constant": true,
      "inputs": [],
      "name": "settings",
      "outputs": [
        {
          "internalType": "contract SettingsInterface",
          "name": "",
          "type": "address"
        }
      ],
      "payable": false,
      "stateMutability": "view",
      "type": "function"
    },
    {
      "constant": true,
      "inputs": [
        {
          "internalType": "address",
          "name": "",
          "type": "address"
        },
        {
          "internalType": "uint256",
          "name": "",
          "type": "uint256"
        }
      ],
      "name": "signerNonceTaken",
      "outputs": [
        {
          "internalType": "bool",
          "name": "",
          "type": "bool"
        }
      ],
      "payable": false,
      "stateMutability": "view",
      "type": "function"
    },
    {
      "constant": false,
      "inputs": [
        {
          "internalType": "address",
          "name": "newOwner",
          "type": "address"
        }
      ],
      "name": "transferOwnership",
      "outputs": [],
      "payable": false,
      "stateMutability": "nonpayable",
      "type": "function"
    },
    {
      "constant": false,
      "inputs": [
        {
          "components": [
            {
              "internalType": "address",
              "name": "lender",
              "type": "address"
            },
            {
              "internalType": "address",
              "name": "consensusAddress",
              "type": "address"
            },
            {
              "internalType": "uint256",
              "name": "requestNonce",
              "type": "uint256"
            },
            {
              "internalType": "uint256",
              "name": "startTime",
              "type": "uint256"
            },
            {
              "internalType": "uint256",
              "name": "endTime",
              "type": "uint256"
            },
            {
              "internalType": "uint256",
              "name": "requestTime",
              "type": "uint256"
            }
          ],
          "internalType": "struct ZeroCollateralCommon.InterestRequest",
          "name": "request",
          "type": "tuple"
        },
        {
          "components": [
            {
              "internalType": "address",
              "name": "signer",
              "type": "address"
            },
            {
              "internalType": "address",
              "name": "consensusAddress",
              "type": "address"
            },
            {
              "internalType": "uint256",
              "name": "responseTime",
              "type": "uint256"
            },
            {
              "internalType": "uint256",
              "name": "interest",
              "type": "uint256"
            },
            {
              "components": [
                {
                  "internalType": "uint256",
                  "name": "signerNonce",
                  "type": "uint256"
                },
                {
                  "internalType": "uint8",
                  "name": "v",
                  "type": "uint8"
                },
                {
                  "internalType": "bytes32",
                  "name": "r",
                  "type": "bytes32"
                },
                {
                  "internalType": "bytes32",
                  "name": "s",
                  "type": "bytes32"
                }
              ],
              "internalType": "struct ZeroCollateralCommon.Signature",
              "name": "signature",
              "type": "tuple"
            }
          ],
          "internalType": "struct ZeroCollateralCommon.InterestResponse[]",
          "name": "responses",
          "type": "tuple[]"
        }
      ],
      "name": "processRequest",
      "outputs": [
        {
          "internalType": "uint256",
          "name": "",
          "type": "uint256"
        }
      ],
      "payable": false,
      "stateMutability": "nonpayable",
      "type": "function"
    }
  ],
  "bytecode": "0x60806040526000805461ff0019166101001781556100246001600160e01b0361007716565b600180546001600160a01b0319166001600160a01b038316908117909155604051919250906000907f8be0079c531659141344cd1fd0a4f28419497f9722a3daafe3b4186f6b6457e0908290a35061007b565b3390565b611eb68061008a6000396000f3fe608060405234801561001057600080fd5b50600436106101005760003560e01c80638da5cb5b11610097578063eb12d61e11610066578063eb12d61e14610201578063f2fde38b14610214578063faa8aab114610227578063fb98d9e21461022f57610100565b80638da5cb5b146101bc5780638f32d59b146101d157806399ffe065146101d9578063e06174e4146101ec57610100565b806367136b35116100d357806367136b351461016e57806368fcdeb81461018e578063715018a6146101a15780637df73e27146101a957610100565b80630e316ab714610105578063158ef93e1461011a578063485cc9551461013857806365e8eb8e1461014b575b600080fd5b610118610113366004611491565b610242565b005b61012261027b565b60405161012f9190611bce565b60405180910390f35b6101186101463660046114af565b610284565b61015e610159366004611536565b610321565b60405161012f9493929190611d8f565b61018161017c366004611566565b610353565b60405161012f9190611d59565b61012261019c366004611536565b610609565b610118610629565b6101226101b7366004611491565b610697565b6101c46106b0565b60405161012f9190611aef565b6101226106bf565b6101226101e73660046114e9565b6106e5565b6101f461070b565b60405161012f9190611c1a565b61011861020f366004611491565b610720565b610118610222366004611491565b61074d565b6101c461077a565b61012261023d366004611536565b610789565b61024a6106bf565b61026f5760405162461bcd60e51b815260040161026690611cd9565b60405180910390fd5b610278816107a9565b50565b60005460ff1690565b60005460ff16156102a75760405162461bcd60e51b815260040161026690611d39565b60408051808201909152601881527f4d5553545f50524f564944455f4c454e4445525f494e464f000000000000000060208201526102f5906001600160a01b0384169063ffffffff6107f116565b6102fe8161081e565b50600580546001600160a01b0319166001600160a01b0392909216919091179055565b600760209081526000928352604080842090915290825290208054600182015460028301546003909301549192909184565b6000805460ff166103765760405162461bcd60e51b815260040161026690611d29565b6005546001600160a01b031633146103a05760405162461bcd60e51b815260040161026690611d19565b600060029054906101000a90046001600160a01b03166001600160a01b031663b9f9e3046040518163ffffffff1660e01b815260040160206040518083038186803b1580156103ee57600080fd5b505afa158015610402573d6000803e3d6000fd5b505050506040513d601f19601f8201168201806040525061042691908101906115f9565b8210156104455760405162461bcd60e51b815260040161026690611d49565b600660006104566020870187611491565b6001600160a01b031681526020808201929092526040908101600090812087830135825290925290205460ff16156104a05760405162461bcd60e51b815260040161026690611cb9565b6001600660006104b36020880188611491565b6001600160a01b03168152602080820192909252604090810160009081208883013582529092528120805460ff1916921515929092179091556105036104fe368790038701876115bc565b6108ef565b905060005b838110156105535761054b610522368890038801886115bc565b86868481811061052e57fe5b9050610100020180360361054591908101906115da565b8461095b565b600101610508565b5060006105a360078261056960208a018a611491565b6001600160a01b03166001600160a01b03168152602001908152602001600020600088608001358152602001908152602001600020610a30565b90506105b26020870187611491565b6001600160a01b03167f3ae9cc3885aef787ea70c8cdfc77b61a78c7b546f8d22ea80fa0aeb7b0894b1487604001358860800135846040516105f693929190611d67565b60405180910390a29150505b9392505050565b600460209081526000928352604080842090915290825290205460ff1681565b6106316106bf565b61064d5760405162461bcd60e51b815260040161026690611cd9565b6001546040516000916001600160a01b0316907f8be0079c531659141344cd1fd0a4f28419497f9722a3daafe3b4186f6b6457e0908390a3600180546001600160a01b0319169055565b60006106aa60028363ffffffff610aed16565b92915050565b6001546001600160a01b031690565b6001546000906001600160a01b03166106d6610b35565b6001600160a01b031614905090565b600360209081526000938452604080852082529284528284209052825290205460ff1681565b6000546201000090046001600160a01b031681565b6107286106bf565b6107445760405162461bcd60e51b815260040161026690611cd9565b61027881610b39565b6107556106bf565b6107715760405162461bcd60e51b815260040161026690611cd9565b61027881610b81565b6005546001600160a01b031681565b600660209081526000928352604080842090915290825290205460ff1681565b6107ba60028263ffffffff610c0316565b6040516001600160a01b038216907f3525e22824a8a7df2c9a6029941c824cf95b6447f1e13d5128fd3826d35afe8b90600090a250565b6107fa82610c4b565b81906108195760405162461bcd60e51b81526004016102669190611c28565b505050565b60005460ff16156108415760405162461bcd60e51b815260040161026690611d39565b60408051808201909152601981527f53455454494e47535f4d5553545f42455f50524f564944454400000000000000602082015261088f906001600160a01b0383169063ffffffff6107f116565b6108a1816001600160a01b0316610c59565b6108bd5760405162461bcd60e51b815260040161026690611c89565b6108c5610c95565b600080546001600160a01b03909216620100000262010000600160b01b0319909216919091179055565b6005548151602083015160408401516060850151608086015160a08701516000966001600160a01b0316959493929190610927610ca4565b60405160200161093e989796959493929190611afd565b604051602081830303815290604052805190602001209050919050565b60006109678383610ca8565b905061098b8360000151856000015186608001518660400151858860800151610cfe565b606083015184516001600160a01b031660009081526007602090815260408083206080890151845290915290206109c79163ffffffff610e8916565b83600001516001600160a01b031683600001516001600160a01b03167f6f00cb8f849a2a1b231819b8145a2da4a16ffffe806e5e39787bc79ca276097c866040015187608001518760600151604051610a2293929190611d67565b60405180910390a350505050565b6000610ac8600060029054906101000a90046001600160a01b03166001600160a01b0316637f4339436040518163ffffffff1660e01b815260040160206040518083038186803b158015610a8357600080fd5b505afa158015610a97573d6000803e3d6000fd5b505050506040513d601f19601f82011682018060405250610abb91908101906115f9565b839063ffffffff610eee16565b610ae45760405162461bcd60e51b815260040161026690611c69565b6106aa82610f9f565b60006001600160a01b038216610b155760405162461bcd60e51b815260040161026690611ce9565b506001600160a01b03166000908152602091909152604090205460ff1690565b3390565b610b4a60028263ffffffff610fd816565b6040516001600160a01b038216907f47d1c22a25bb3a5d4e481b9b1e6944c2eade3181a0a20b495ed61d35b5323f2490600090a250565b6001600160a01b038116610ba75760405162461bcd60e51b815260040161026690611c59565b6001546040516001600160a01b038084169216907f8be0079c531659141344cd1fd0a4f28419497f9722a3daafe3b4186f6b6457e090600090a3600180546001600160a01b0319166001600160a01b0392909216919091179055565b610c0d8282610aed565b610c295760405162461bcd60e51b815260040161026690611ca9565b6001600160a01b0316600090815260209190915260409020805460ff19169055565b6001600160a01b0316151590565b6000813f7fc5d2460186f7233c927e7db2dcc703c0e500b653ca82273b7bfad8045d85a470818114801590610c8d57508115155b949350505050565b6000805460ff19166001179055565b4690565b6000826020015183604001518460600151856080015160000151610cca610ca4565b86604051602001610ce096959493929190611b74565b60405160208183030381529060405280519060200120905092915050565b6001600160a01b03808716600090815260036020908152604080832093891683529281528282208783529052205460ff1615610d4c5760405162461bcd60e51b815260040161026690611c49565b6001600160a01b038087166000908152600360209081526040808320898516845282528083208884528252808320805460ff19166001179055915482516314ff9dad60e31b81529251610e0b94620100009092049091169263a7fced68926004808301939192829003018186803b158015610dc657600080fd5b505afa158015610dda573d6000803e3d6000fd5b505050506040513d601f19601f82011682018060405250610dfe91908101906115f9565b429063ffffffff61102416565b831015610e2a5760405162461bcd60e51b815260040161026690611cf9565b610e35818388611066565b610e515760405162461bcd60e51b815260040161026690611d09565b6001600160a01b0390951660009081526004602090815260408083209751835296905294909420805460ff1916600117905550505050565b8082600101541015610e9d57600182018190555b8082600201541180610eae57508154155b15610ebb57600282018190555b6003820154610ed0908263ffffffff61115f16565b60038301558154610ee890600163ffffffff61115f16565b90915550565b6000610ef983611184565b15610f06575060006106aa565b6000610f1184610f9f565b90506000610f37612710610f2b848763ffffffff61119616565b9063ffffffff6111d016565b90506000610f4b838363ffffffff61102416565b90508086600201541015610f6557600093505050506106aa565b6000610f77848463ffffffff61115f16565b90508087600101541115610f925760009450505050506106aa565b5060019695505050505050565b6000610faa82611184565b610fd057610fcb610fba83611212565b60038401549063ffffffff6111d016565b6106aa565b506000919050565b610fe28282610aed565b15610fff5760405162461bcd60e51b815260040161026690611c39565b6001600160a01b0316600090815260209190915260409020805460ff19166001179055565b600061060283836040518060400160405280601e81526020017f536166654d6174683a207375627472616374696f6e206f766572666c6f770000815250611216565b600061107182610697565b61107d57506000610602565b6001600160a01b03821660009081526004602090815260408083208751845290915290205460ff16156110c25760405162461bcd60e51b815260040161026690611c99565b60006001846040516020016110d79190611acf565b60405160208183030381529060405280519060200120866020015187604001518860600151604051600081526020016040526040516111199493929190611bdc565b6020604051602081039080840390855afa15801561113b573d6000803e3d6000fd5b5050604051601f1901516001600160a01b0390811690851614925050509392505050565b6000828201838110156106025760405162461bcd60e51b815260040161026690611c79565b600061118f82611212565b1592915050565b6000826111a5575060006106aa565b828202828482816111b257fe5b04146106025760405162461bcd60e51b815260040161026690611cc9565b600061060283836040518060400160405280601a81526020017f536166654d6174683a206469766973696f6e206279207a65726f000000000000815250611242565b5490565b6000818484111561123a5760405162461bcd60e51b81526004016102669190611c28565b505050900390565b600081836112635760405162461bcd60e51b81526004016102669190611c28565b50600083858161126f57fe5b0495945050505050565b80356106aa81611e4d565b60008083601f84011261129657600080fd5b50813567ffffffffffffffff8111156112ae57600080fd5b602083019150836101008202830111156112c757600080fd5b9250929050565b80356106aa81611e61565b600060c082840312156112eb57600080fd5b50919050565b600060c0828403121561130357600080fd5b61130d60c0611daa565b9050600061131b8484611279565b825250602061132c84848301611279565b6020830152506040611340848285016112ce565b6040830152506060611354848285016112ce565b6060830152506080611368848285016112ce565b60808301525060a061137c848285016112ce565b60a08301525092915050565b6000610100828403121561139b57600080fd5b6113a560a0611daa565b905060006113b38484611279565b82525060206113c484848301611279565b60208301525060406113d8848285016112ce565b60408301525060606113ec848285016112ce565b60608301525060806114008482850161140c565b60808301525092915050565b60006080828403121561141e57600080fd5b6114286080611daa565b9050600061143684846112ce565b825250602061144784848301611486565b602083015250604061145b848285016112ce565b604083015250606061146f848285016112ce565b60608301525092915050565b80516106aa81611e61565b80356106aa81611e6a565b6000602082840312156114a357600080fd5b6000610c8d8484611279565b600080604083850312156114c257600080fd5b60006114ce8585611279565b92505060206114df85828601611279565b9150509250929050565b6000806000606084860312156114fe57600080fd5b600061150a8686611279565b935050602061151b86828701611279565b925050604061152c868287016112ce565b9150509250925092565b6000806040838503121561154957600080fd5b60006115558585611279565b92505060206114df858286016112ce565b600080600060e0848603121561157b57600080fd5b600061158786866112d9565b93505060c084013567ffffffffffffffff8111156115a457600080fd5b6115b086828701611284565b92509250509250925092565b600060c082840312156115ce57600080fd5b6000610c8d84846112f1565b600061010082840312156115ed57600080fd5b6000610c8d8484611388565b60006020828403121561160b57600080fd5b6000610c8d848461147b565b61162081611de3565b82525050565b61162081611dee565b61162081611df3565b61162061164482611df3565b611df3565b61162081611e08565b600061165d82611dd1565b6116678185611dd5565b9350611677818560208601611e13565b61168081611e43565b9093019392505050565b6000611697601f83611dd5565b7f526f6c65733a206163636f756e7420616c72656164792068617320726f6c6500815260200192915050565b60006116d0601c83611dde565b7f19457468657265756d205369676e6564204d6573736167653a0a3332000000008152601c0192915050565b6000611709601883611dd5565b7f5349474e45525f414c52454144595f5355424d49545445440000000000000000815260200192915050565b6000611742602683611dd5565b7f4f776e61626c653a206e6577206f776e657220697320746865207a65726f206181526564647265737360d01b602082015260400192915050565b600061178a601483611dd5565b73149154d413d394d154d7d513d3d7d5905492515160621b815260200192915050565b60006117ba601b83611dd5565b7f536166654d6174683a206164646974696f6e206f766572666c6f770000000000815260200192915050565b60006117f3601b83611dd5565b7f53455454494e47535f4d5553545f42455f415f434f4e54524143540000000000815260200192915050565b600061182c601283611dd5565b7129a4a3a722a92fa727a721a2afaa20a5a2a760711b815260200192915050565b600061185a602183611dd5565b7f526f6c65733a206163636f756e7420646f6573206e6f74206861766520726f6c8152606560f81b602082015260400192915050565b600061189d601c83611dd5565b7f494e5445524553545f524551554553545f4e4f4e43455f54414b454e00000000815260200192915050565b60006118d6602183611dd5565b7f536166654d6174683a206d756c7469706c69636174696f6e206f766572666c6f8152607760f81b602082015260400192915050565b6000611919602083611dd5565b7f4f776e61626c653a2063616c6c6572206973206e6f7420746865206f776e6572815260200192915050565b6000611952602283611dd5565b7f526f6c65733a206163636f756e7420697320746865207a65726f206164647265815261737360f01b602082015260400192915050565b6000611996601083611dd5565b6f149154d413d394d157d156141254915160821b815260200192915050565b60006119c2601183611dd5565b7014d251d3905515549157d2539590531251607a1b815260200192915050565b60006119ef601883611dd5565b7f53454e4445525f4841534e545f5045524d495353494f4e530000000000000000815260200192915050565b6000611a28601883611dd5565b7f434f4e54524143545f4e4f545f494e495449414c495a45440000000000000000815260200192915050565b6000611a61601c83611dd5565b7f434f4e54524143545f414c52454144595f494e495449414c495a454400000000815260200192915050565b6000611a9a601f83611dd5565b7f494e5445524553545f494e53554646494349454e545f524553504f4e53455300815260200192915050565b61162081611e02565b6000611ada826116c3565b9150611ae68284611638565b50602001919050565b602081016106aa8284611617565b6101008101611b0c828b611617565b611b19602083018a611617565b611b266040830189611617565b611b33606083018861162f565b611b40608083018761162f565b611b4d60a083018661162f565b611b5a60c083018561162f565b611b6760e083018461162f565b9998505050505050505050565b60c08101611b828289611617565b611b8f602083018861162f565b611b9c604083018761162f565b611ba9606083018661162f565b611bb6608083018561162f565b611bc360a083018461162f565b979650505050505050565b602081016106aa8284611626565b60808101611bea828761162f565b611bf76020830186611ac6565b611c04604083018561162f565b611c11606083018461162f565b95945050505050565b602081016106aa8284611649565b602080825281016106028184611652565b602080825281016106aa8161168a565b602080825281016106aa816116fc565b602080825281016106aa81611735565b602080825281016106aa8161177d565b602080825281016106aa816117ad565b602080825281016106aa816117e6565b602080825281016106aa8161181f565b602080825281016106aa8161184d565b602080825281016106aa81611890565b602080825281016106aa816118c9565b602080825281016106aa8161190c565b602080825281016106aa81611945565b602080825281016106aa81611989565b602080825281016106aa816119b5565b602080825281016106aa816119e2565b602080825281016106aa81611a1b565b602080825281016106aa81611a54565b602080825281016106aa81611a8d565b602081016106aa828461162f565b60608101611d75828661162f565b611d82602083018561162f565b610c8d604083018461162f565b60808101611d9d828761162f565b611bf7602083018661162f565b60405181810167ffffffffffffffff81118282101715611dc957600080fd5b604052919050565b5190565b90815260200190565b919050565b60006106aa82611df6565b151590565b90565b6001600160a01b031690565b60ff1690565b60006106aa82611de3565b60005b83811015611e2e578181015183820152602001611e16565b83811115611e3d576000848401525b50505050565b601f01601f191690565b611e5681611de3565b811461027857600080fd5b611e5681611df3565b611e5681611e0256fea365627a7a723158204db5b5f3246d3c01675d9e9a70908fd816a93d86b1bc82b88da195eb3956bad76c6578706572696d656e74616cf564736f6c63430005110040",
  "source": "pragma solidity 0.5.17;\npragma experimental ABIEncoderV2;\n\n// Libraries\nimport \"../util/AddressLib.sol\";\n\n// Interfaces\nimport \"../interfaces/InterestConsensusInterface.sol\";\n\n// Contracts\nimport \"./Consensus.sol\";\n\n\n/**\n    @notice This contract processes the node responses to get consensus in the lender interest.\n\n    @author develop@teller.finance\n */\ncontract InterestConsensus is Consensus, InterestConsensusInterface {\n    using AddressLib for address;\n\n    /* State Variables */\n\n    // mapping of (lender, endTime) to the aggregated node submissions for their request\n    mapping(address => mapping(uint256 => NumbersList.Values)) public interestSubmissions;\n\n    /** Modifiers */\n\n    /* Constructor */\n\n    /* External Functions */\n    /**\n        @notice It processes all the node responses for a request in order to get a consensus value.\n        @param request the interest request sent by the lender.\n        @param responses all node responses to process.\n        @return the consensus interest.\n     */\n    function processRequest(\n        ZeroCollateralCommon.InterestRequest calldata request,\n        ZeroCollateralCommon.InterestResponse[] calldata responses\n    ) external isInitialized() isCaller() returns (uint256) {\n        require(\n            responses.length >= settings.requiredSubmissions(),\n            \"INTEREST_INSUFFICIENT_RESPONSES\"\n        );\n        require(\n            !requestNonceTaken[request.lender][request.requestNonce],\n            \"INTEREST_REQUEST_NONCE_TAKEN\"\n        );\n        requestNonceTaken[request.lender][request.requestNonce] = true;\n\n        bytes32 requestHash = _hashRequest(request);\n\n        for (uint256 i = 0; i < responses.length; i++) {\n            _processResponse(request, responses[i], requestHash);\n        }\n\n        uint256 interestAccrued = _getConsensus(\n            interestSubmissions[request.lender][request.endTime]\n        );\n\n        emit InterestAccepted(\n            request.lender,\n            request.requestNonce,\n            request.endTime,\n            interestAccrued\n        );\n\n        return interestAccrued;\n    }\n\n    /** Internal Functions */\n\n    /**\n        @notice It processes a node response.\n        @param request the interest request sent by the lender.\n        @param response a node response.\n     */\n    function _processResponse(\n        ZeroCollateralCommon.InterestRequest memory request,\n        ZeroCollateralCommon.InterestResponse memory response,\n        bytes32 requestHash\n    ) internal {\n        bytes32 responseHash = _hashResponse(response, requestHash);\n\n        _validateResponse(\n            response.signer,\n            request.lender,\n            request.endTime,\n            response.responseTime,\n            responseHash,\n            response.signature\n        );\n\n        interestSubmissions[request.lender][request.endTime].addValue(response.interest);\n\n        emit InterestSubmitted(\n            response.signer,\n            request.lender,\n            request.requestNonce,\n            request.endTime,\n            response.interest\n        );\n    }\n\n    /**\n        @notice It creates a hash based on a node response and lender request.\n        @param response a node response.\n        @param requestHash a hash value that represents the lender request.\n        @return a hash value.\n     */\n    function _hashResponse(\n        ZeroCollateralCommon.InterestResponse memory response,\n        bytes32 requestHash\n    ) internal view returns (bytes32) {\n        return\n            keccak256(\n                abi.encode(\n                    response.consensusAddress,\n                    response.responseTime,\n                    response.interest,\n                    response.signature.signerNonce,\n                    _getChainId(),\n                    requestHash\n                )\n            );\n    }\n\n    /**\n        @notice It creates a hash value based on the lender request.\n        @param request the interest request sent by the lender.\n        @return a hash value.\n     */\n    function _hashRequest(ZeroCollateralCommon.InterestRequest memory request)\n        internal\n        view\n        returns (bytes32)\n    {\n        return\n            keccak256(\n                abi.encode(\n                    callerAddress,\n                    request.lender,\n                    request.consensusAddress,\n                    request.requestNonce,\n                    request.startTime,\n                    request.endTime,\n                    request.requestTime,\n                    _getChainId()\n                )\n            );\n    }\n}\n",
  "sourcePath": "/Users/guillesalazar/Repos/ZeroCollateral/smart-contracts-v1/contracts/base/InterestConsensus.sol",
  "compiler": {
    "name": "solc",
    "version": "0.5.17+commit.d19bba13.Emscripten.clang"
  },
  "schemaVersion": "3.0.23",
  "updatedAt": "2020-08-05T11:54:12.561Z",
  "devdoc": {
    "author": "develop@teller.finance",
    "methods": {
      "addSigner(address)": {
        "details": "The sender must be the owner.It throws a require error if the sender is not the owner.",
        "params": {
          "account": "address to add."
        }
      },
      "initialize(address,address)": {
        "params": {
          "aCallerAddress": "the contract that will call it.",
          "aSettingAddress": "the settings contract address."
        }
      },
      "initialized()": {
        "return": "true if contract is initialized. Otherwise it returns false."
      },
      "isOwner()": {
        "details": "Returns true if the caller is the current owner."
      },
      "isSigner(address)": {
        "params": {
          "account": "address to test."
        },
        "return": "true if account is a signer. Otherwise it returns false."
      },
      "owner()": {
        "details": "Returns the address of the current owner."
      },
      "processRequest((address,address,uint256,uint256,uint256,uint256),(address,address,uint256,uint256,(uint256,uint8,bytes32,bytes32))[])": {
        "params": {
          "request": "the interest request sent by the lender.",
          "responses": "all node responses to process."
        },
        "return": "the consensus interest."
      },
      "removeSigner(address)": {
        "details": "The sender must be the owner.It throws a require error if the sender is not the owner.",
        "params": {
          "account": "address to remove."
        }
      },
      "renounceOwnership()": {
        "details": "Leaves the contract without owner. It will not be possible to call `onlyOwner` functions anymore. Can only be called by the current owner.     * NOTE: Renouncing ownership will leave the contract without an owner, thereby removing any functionality that is only available to the owner."
      },
      "transferOwnership(address)": {
        "details": "Transfers ownership of the contract to a new account (`newOwner`). Can only be called by the current owner."
      }
    }
  },
  "userdoc": {
    "methods": {
      "addSigner(address)": {
        "notice": "It adds a new account as a signer."
      },
      "initialize(address,address)": {
        "notice": "It initializes this contract setting the parameters."
      },
      "initialized()": {
        "notice": "Gets if the contract is initialized."
      },
      "isSigner(address)": {
        "notice": "Gets whether an account address is a signer or not."
      },
      "processRequest((address,address,uint256,uint256,uint256,uint256),(address,address,uint256,uint256,(uint256,uint8,bytes32,bytes32))[])": {
        "notice": "It processes all the node responses for a request in order to get a consensus value."
      },
      "removeSigner(address)": {
        "notice": "It removes an account as signer."
      }
    },
    "notice": "This contract processes the node responses to get consensus in the lender interest."
  }
}