{
  "contractName": "InterestConsensus",
  "abi": [
    {
      "anonymous": false,
      "inputs": [
        {
          "indexed": true,
          "internalType": "address",
          "name": "lender",
          "type": "address"
        },
        {
          "indexed": false,
          "internalType": "uint256",
          "name": "requestNonce",
          "type": "uint256"
        },
        {
          "indexed": false,
          "internalType": "uint256",
          "name": "endTime",
          "type": "uint256"
        },
        {
          "indexed": false,
          "internalType": "uint256",
          "name": "interest",
          "type": "uint256"
        }
      ],
      "name": "InterestAccepted",
      "type": "event"
    },
    {
      "anonymous": false,
      "inputs": [
        {
          "indexed": true,
          "internalType": "address",
          "name": "signer",
          "type": "address"
        },
        {
          "indexed": true,
          "internalType": "address",
          "name": "lender",
          "type": "address"
        },
        {
          "indexed": false,
          "internalType": "uint256",
          "name": "requestNonce",
          "type": "uint256"
        },
        {
          "indexed": false,
          "internalType": "uint256",
          "name": "endTime",
          "type": "uint256"
        },
        {
          "indexed": false,
          "internalType": "uint256",
          "name": "interest",
          "type": "uint256"
        }
      ],
      "name": "InterestSubmitted",
      "type": "event"
    },
    {
      "anonymous": false,
      "inputs": [
        {
          "indexed": true,
          "internalType": "address",
          "name": "previousOwner",
          "type": "address"
        },
        {
          "indexed": true,
          "internalType": "address",
          "name": "newOwner",
          "type": "address"
        }
      ],
      "name": "OwnershipTransferred",
      "type": "event"
    },
    {
      "anonymous": false,
      "inputs": [
        {
          "indexed": true,
          "internalType": "address",
          "name": "account",
          "type": "address"
        }
      ],
      "name": "SignerAdded",
      "type": "event"
    },
    {
      "anonymous": false,
      "inputs": [
        {
          "indexed": true,
          "internalType": "address",
          "name": "account",
          "type": "address"
        }
      ],
      "name": "SignerRemoved",
      "type": "event"
    },
    {
      "constant": true,
      "inputs": [],
      "name": "LIQUIDATE_ETH_PRICE_SETTING",
      "outputs": [
        {
          "internalType": "bytes32",
          "name": "",
          "type": "bytes32"
        }
      ],
      "payable": false,
      "stateMutability": "view",
      "type": "function"
    },
    {
      "constant": true,
      "inputs": [],
      "name": "MAXIMUM_LOAN_DURATION_SETTING",
      "outputs": [
        {
          "internalType": "bytes32",
          "name": "",
          "type": "bytes32"
        }
      ],
      "payable": false,
      "stateMutability": "view",
      "type": "function"
    },
    {
      "constant": true,
      "inputs": [],
      "name": "MAXIMUM_TOLERANCE_SETTING",
      "outputs": [
        {
          "internalType": "bytes32",
          "name": "",
          "type": "bytes32"
        }
      ],
      "payable": false,
      "stateMutability": "view",
      "type": "function"
    },
    {
      "constant": true,
      "inputs": [],
      "name": "REQUIRED_SUBMISSIONS_SETTING",
      "outputs": [
        {
          "internalType": "bytes32",
          "name": "",
          "type": "bytes32"
        }
      ],
      "payable": false,
      "stateMutability": "view",
      "type": "function"
    },
    {
      "constant": true,
      "inputs": [],
      "name": "RESPONSE_EXPIRY_LENGTH_SETTING",
      "outputs": [
        {
          "internalType": "bytes32",
          "name": "",
          "type": "bytes32"
        }
      ],
      "payable": false,
      "stateMutability": "view",
      "type": "function"
    },
    {
      "constant": true,
      "inputs": [],
      "name": "SAFETY_INTERVAL_SETTING",
      "outputs": [
        {
          "internalType": "bytes32",
          "name": "",
          "type": "bytes32"
        }
      ],
      "payable": false,
      "stateMutability": "view",
      "type": "function"
    },
    {
      "constant": true,
      "inputs": [],
      "name": "TERMS_EXPIRY_TIME_SETTING",
      "outputs": [
        {
          "internalType": "bytes32",
          "name": "",
          "type": "bytes32"
        }
      ],
      "payable": false,
      "stateMutability": "view",
      "type": "function"
    },
    {
      "constant": false,
      "inputs": [
        {
          "internalType": "address",
          "name": "account",
          "type": "address"
        }
      ],
      "name": "addSigner",
      "outputs": [],
      "payable": false,
      "stateMutability": "nonpayable",
      "type": "function"
    },
    {
      "constant": true,
      "inputs": [],
      "name": "callerAddress",
      "outputs": [
        {
          "internalType": "address",
          "name": "",
          "type": "address"
        }
      ],
      "payable": false,
      "stateMutability": "view",
      "type": "function"
    },
    {
      "constant": true,
      "inputs": [
        {
          "internalType": "address",
          "name": "",
          "type": "address"
        },
        {
          "internalType": "address",
          "name": "",
          "type": "address"
        },
        {
          "internalType": "uint256",
          "name": "",
          "type": "uint256"
        }
      ],
      "name": "hasSubmitted",
      "outputs": [
        {
          "internalType": "bool",
          "name": "",
          "type": "bool"
        }
      ],
      "payable": false,
      "stateMutability": "view",
      "type": "function"
    },
    {
      "constant": false,
      "inputs": [
        {
          "internalType": "address",
          "name": "aCallerAddress",
          "type": "address"
        },
        {
          "internalType": "address",
          "name": "aSettingAddress",
          "type": "address"
        },
        {
          "internalType": "address",
          "name": "aMarketsAddress",
          "type": "address"
        }
      ],
      "name": "initialize",
      "outputs": [],
      "payable": false,
      "stateMutability": "nonpayable",
      "type": "function"
    },
    {
      "constant": true,
      "inputs": [],
      "name": "initialized",
      "outputs": [
        {
          "internalType": "bool",
          "name": "",
          "type": "bool"
        }
      ],
      "payable": false,
      "stateMutability": "view",
      "type": "function"
    },
    {
      "constant": true,
      "inputs": [
        {
          "internalType": "address",
          "name": "",
          "type": "address"
        },
        {
          "internalType": "uint256",
          "name": "",
          "type": "uint256"
        }
      ],
      "name": "interestSubmissions",
      "outputs": [
        {
          "internalType": "uint256",
          "name": "count",
          "type": "uint256"
        },
        {
          "internalType": "uint256",
          "name": "max",
          "type": "uint256"
        },
        {
          "internalType": "uint256",
          "name": "min",
          "type": "uint256"
        },
        {
          "internalType": "uint256",
          "name": "sum",
          "type": "uint256"
        }
      ],
      "payable": false,
      "stateMutability": "view",
      "type": "function"
    },
    {
      "constant": true,
      "inputs": [],
      "name": "isOwner",
      "outputs": [
        {
          "internalType": "bool",
          "name": "",
          "type": "bool"
        }
      ],
      "payable": false,
      "stateMutability": "view",
      "type": "function"
    },
    {
      "constant": true,
      "inputs": [
        {
          "internalType": "address",
          "name": "account",
          "type": "address"
        }
      ],
      "name": "isSigner",
      "outputs": [
        {
          "internalType": "bool",
          "name": "",
          "type": "bool"
        }
      ],
      "payable": false,
      "stateMutability": "view",
      "type": "function"
    },
    {
      "constant": true,
      "inputs": [],
      "name": "markets",
      "outputs": [
        {
          "internalType": "contract MarketsStateInterface",
          "name": "",
          "type": "address"
        }
      ],
      "payable": false,
      "stateMutability": "view",
      "type": "function"
    },
    {
      "constant": true,
      "inputs": [],
      "name": "owner",
      "outputs": [
        {
          "internalType": "address",
          "name": "",
          "type": "address"
        }
      ],
      "payable": false,
      "stateMutability": "view",
      "type": "function"
    },
    {
      "constant": false,
      "inputs": [
        {
          "internalType": "address",
          "name": "account",
          "type": "address"
        }
      ],
      "name": "removeSigner",
      "outputs": [],
      "payable": false,
      "stateMutability": "nonpayable",
      "type": "function"
    },
    {
      "constant": false,
      "inputs": [],
      "name": "renounceOwnership",
      "outputs": [],
      "payable": false,
      "stateMutability": "nonpayable",
      "type": "function"
    },
    {
      "constant": true,
      "inputs": [
        {
          "internalType": "address",
          "name": "",
          "type": "address"
        },
        {
          "internalType": "uint256",
          "name": "",
          "type": "uint256"
        }
      ],
      "name": "requestNonceTaken",
      "outputs": [
        {
          "internalType": "bool",
          "name": "",
          "type": "bool"
        }
      ],
      "payable": false,
      "stateMutability": "view",
      "type": "function"
    },
    {
      "constant": true,
      "inputs": [],
      "name": "settings",
      "outputs": [
        {
          "internalType": "contract SettingsInterface",
          "name": "",
          "type": "address"
        }
      ],
      "payable": false,
      "stateMutability": "view",
      "type": "function"
    },
    {
      "constant": true,
      "inputs": [
        {
          "internalType": "address",
          "name": "",
          "type": "address"
        },
        {
          "internalType": "uint256",
          "name": "",
          "type": "uint256"
        }
      ],
      "name": "signerNonceTaken",
      "outputs": [
        {
          "internalType": "bool",
          "name": "",
          "type": "bool"
        }
      ],
      "payable": false,
      "stateMutability": "view",
      "type": "function"
    },
    {
      "constant": false,
      "inputs": [
        {
          "internalType": "address",
          "name": "newOwner",
          "type": "address"
        }
      ],
      "name": "transferOwnership",
      "outputs": [],
      "payable": false,
      "stateMutability": "nonpayable",
      "type": "function"
    },
    {
      "constant": false,
      "inputs": [
        {
          "components": [
            {
              "internalType": "address",
              "name": "lender",
              "type": "address"
            },
            {
              "internalType": "address",
              "name": "consensusAddress",
              "type": "address"
            },
            {
              "internalType": "uint256",
              "name": "requestNonce",
              "type": "uint256"
            },
            {
              "internalType": "uint256",
              "name": "startTime",
              "type": "uint256"
            },
            {
              "internalType": "uint256",
              "name": "endTime",
              "type": "uint256"
            },
            {
              "internalType": "uint256",
              "name": "requestTime",
              "type": "uint256"
            }
          ],
          "internalType": "struct TellerCommon.InterestRequest",
          "name": "request",
          "type": "tuple"
        },
        {
          "components": [
            {
              "internalType": "address",
              "name": "signer",
              "type": "address"
            },
            {
              "internalType": "address",
              "name": "consensusAddress",
              "type": "address"
            },
            {
              "internalType": "uint256",
              "name": "responseTime",
              "type": "uint256"
            },
            {
              "internalType": "uint256",
              "name": "interest",
              "type": "uint256"
            },
            {
              "components": [
                {
                  "internalType": "uint256",
                  "name": "signerNonce",
                  "type": "uint256"
                },
                {
                  "internalType": "uint8",
                  "name": "v",
                  "type": "uint8"
                },
                {
                  "internalType": "bytes32",
                  "name": "r",
                  "type": "bytes32"
                },
                {
                  "internalType": "bytes32",
                  "name": "s",
                  "type": "bytes32"
                }
              ],
              "internalType": "struct TellerCommon.Signature",
              "name": "signature",
              "type": "tuple"
            }
          ],
          "internalType": "struct TellerCommon.InterestResponse[]",
          "name": "responses",
          "type": "tuple[]"
        }
      ],
      "name": "processRequest",
      "outputs": [
        {
          "internalType": "uint256",
          "name": "",
          "type": "uint256"
        }
      ],
      "payable": false,
      "stateMutability": "nonpayable",
      "type": "function"
    }
  ],
  "bytecode": "0x60806040526000805461ff0019166101001781556100246001600160e01b0361007716565b600280546001600160a01b0319166001600160a01b038316908117909155604051919250906000907f8be0079c531659141344cd1fd0a4f28419497f9722a3daafe3b4186f6b6457e0908290a35061007b565b3390565b6121348061008a6000396000f3fe608060405234801561001057600080fd5b50600436106101585760003560e01c80638f32d59b116100c3578063e06174e41161007c578063e06174e414610289578063e3f33d0014610291578063eb12d61e14610299578063f2fde38b146102ac578063faa8aab1146102bf578063fb98d9e2146102c757610158565b80638f32d59b1461024357806399ffe0651461024b578063c0c53b8b1461025e578063c41dd8ce14610271578063cc44cadb14610279578063e00a46151461028157610158565b806365e8eb8e1161011557806365e8eb8e146101ca57806367136b35146101ed57806368fcdeb814610200578063715018a6146102135780637df73e271461021b5780638da5cb5b1461022e57610158565b80630e316ab71461015d5780631139087a1461017257806311880cc814610190578063158ef93e146101985780633ac2a032146101ad5780633ff591d9146101c2575b600080fd5b61017061016b3660046116b3565b6102da565b005b61017a610313565b6040516101879190611e4a565b60405180910390f35b61017a61032b565b6101a0610340565b6040516101879190611e3c565b6101b5610349565b6040516101879190611e96565b61017a610358565b6101dd6101d8366004611761565b610372565b604051610187949392919061200d565b61017a6101fb36600461179b565b6103a4565b6101a061020e366004611761565b61066f565b61017061068f565b6101a06102293660046116b3565b6106fd565b610236610716565b6040516101879190611d5d565b6101a0610725565b6101a061025936600461171e565b61074b565b61017061026c3660046116d1565b610771565b61017a610810565b61017a610827565b61017a610841565b6101b5610857565b61017a61086c565b6101706102a73660046116b3565b610887565b6101706102ba3660046116b3565b6108b4565b6102366108e1565b6101a06102d5366004611761565b6108f0565b6102e2610725565b6103075760405162461bcd60e51b81526004016102fe90611f65565b60405180910390fd5b61031081610910565b50565b704c6971756964617465457468507269636560781b81565b6d14d859995d1e525b9d195c9d985b60921b81565b60005460ff1690565b6001546001600160a01b031681565b7252657175697265645375626d697373696f6e7360681b81565b600860209081526000928352604080842090915290825290208054600182015460028301546003909301549192909184565b6000805460ff166103c75760405162461bcd60e51b81526004016102fe90611fb5565b6006546001600160a01b031633146103f15760405162461bcd60e51b81526004016102fe90611fa5565b600054604051630134809560e51b8152620100009091046001600160a01b03169063269012a09061043c907252657175697265645375626d697373696f6e7360681b90600401611e4a565b60206040518083038186803b15801561045457600080fd5b505afa158015610468573d6000803e3d6000fd5b505050506040513d601f19601f8201168201806040525061048c919081019061182e565b8210156104ab5760405162461bcd60e51b81526004016102fe90611fd5565b600760006104bc60208701876116b3565b6001600160a01b031681526020808201929092526040908101600090812087830135825290925290205460ff16156105065760405162461bcd60e51b81526004016102fe90611f45565b60016007600061051960208801886116b3565b6001600160a01b03168152602080820192909252604090810160009081208883013582529092528120805460ff191692151592909217909155610569610564368790038701876117f1565b610958565b905060005b838110156105b9576105b1610588368890038801886117f1565b86868481811061059457fe5b905061010002018036036105ab919081019061180f565b846109c4565b60010161056e565b5060006106096008826105cf60208a018a6116b3565b6001600160a01b03166001600160a01b03168152602001908152602001600020600088608001358152602001908152602001600020610a99565b905061061860208701876116b3565b6001600160a01b03167f3ae9cc3885aef787ea70c8cdfc77b61a78c7b546f8d22ea80fa0aeb7b0894b14876040013588608001358460405161065c93929190611fe5565b60405180910390a29150505b9392505050565b600560209081526000928352604080842090915290825290205460ff1681565b610697610725565b6106b35760405162461bcd60e51b81526004016102fe90611f65565b6002546040516000916001600160a01b0316907f8be0079c531659141344cd1fd0a4f28419497f9722a3daafe3b4186f6b6457e0908390a3600280546001600160a01b0319169055565b600061071060038363ffffffff610b6716565b92915050565b6002546001600160a01b031690565b6002546000906001600160a01b031661073c610baf565b6001600160a01b031614905090565b600460209081526000938452604080852082529284528284209052825290205460ff1681565b60005460ff16156107945760405162461bcd60e51b81526004016102fe90611fc5565b60408051808201909152601881527f4d5553545f50524f564944455f4c454e4445525f494e464f000000000000000060208201526107e2906001600160a01b0385169063ffffffff610bb316565b6107ec8282610be0565b5050600680546001600160a01b0319166001600160a01b0392909216919091179055565b6f4d6178696d756d546f6c6572616e636560801b81565b7226b0bc34b6bab6a637b0b7223ab930ba34b7b760691b81565b6e5465726d7345787069727954696d6560881b81565b6000546201000090046001600160a01b031681565b730a4cae6e0dedce6ca8af0e0d2e4f298cadccee8d60631b81565b61088f610725565b6108ab5760405162461bcd60e51b81526004016102fe90611f65565b61031081610d3d565b6108bc610725565b6108d85760405162461bcd60e51b81526004016102fe90611f65565b61031081610d85565b6006546001600160a01b031681565b600760209081526000928352604080842090915290825290205460ff1681565b61092160038263ffffffff610e0716565b6040516001600160a01b038216907f3525e22824a8a7df2c9a6029941c824cf95b6447f1e13d5128fd3826d35afe8b90600090a250565b6006548151602083015160408401516060850151608086015160a08701516000966001600160a01b0316959493929190610990610e4f565b6040516020016109a7989796959493929190611d6b565b604051602081830303815290604052805190602001209050919050565b60006109d08383610e53565b90506109f48360000151856000015186608001518660400151858860800151610ea9565b606083015184516001600160a01b03166000908152600860209081526040808320608089015184529091529020610a309163ffffffff61105216565b83600001516001600160a01b031683600001516001600160a01b03167f6f00cb8f849a2a1b231819b8145a2da4a16ffffe806e5e39787bc79ca276097c866040015187608001518760600151604051610a8b93929190611fe5565b60405180910390a350505050565b60008054604051630134809560e51b8152610b42916201000090046001600160a01b03169063269012a090610ae5906f4d6178696d756d546f6c6572616e636560801b90600401611e4a565b60206040518083038186803b158015610afd57600080fd5b505afa158015610b11573d6000803e3d6000fd5b505050506040513d601f19601f82011682018060405250610b35919081019061182e565b839063ffffffff6110b716565b610b5e5760405162461bcd60e51b81526004016102fe90611ee5565b61071082611168565b60006001600160a01b038216610b8f5760405162461bcd60e51b81526004016102fe90611f75565b506001600160a01b03166000908152602091909152604090205460ff1690565b3390565b610bbc826111a1565b8190610bdb5760405162461bcd60e51b81526004016102fe9190611ea4565b505050565b60005460ff1615610c035760405162461bcd60e51b81526004016102fe90611fc5565b60408051808201909152601981527f53455454494e47535f4d5553545f42455f50524f5649444544000000000000006020820152610c51906001600160a01b0384169063ffffffff610bb316565b610c63826001600160a01b03166111af565b610c7f5760405162461bcd60e51b81526004016102fe90611f15565b60408051808201909152601881527f4d41524b4554535f4d5553545f42455f50524f564944454400000000000000006020820152610ccd906001600160a01b0383169063ffffffff610bb316565b610cdf816001600160a01b03166111af565b610cfb5760405162461bcd60e51b81526004016102fe90611f05565b610d036111eb565b6000805462010000600160b01b031916620100006001600160a01b0394851602179055600180546001600160a01b03191691909216179055565b610d4e60038263ffffffff6111fa16565b6040516001600160a01b038216907f47d1c22a25bb3a5d4e481b9b1e6944c2eade3181a0a20b495ed61d35b5323f2490600090a250565b6001600160a01b038116610dab5760405162461bcd60e51b81526004016102fe90611ed5565b6002546040516001600160a01b038084169216907f8be0079c531659141344cd1fd0a4f28419497f9722a3daafe3b4186f6b6457e090600090a3600280546001600160a01b0319166001600160a01b0392909216919091179055565b610e118282610b67565b610e2d5760405162461bcd60e51b81526004016102fe90611f35565b6001600160a01b0316600090815260209190915260409020805460ff19169055565b4690565b6000826020015183604001518460600151856080015160000151610e75610e4f565b86604051602001610e8b96959493929190611de2565b60405160208183030381529060405280519060200120905092915050565b6001600160a01b03808716600090815260046020908152604080832093891683529281528282208783529052205460ff1615610ef75760405162461bcd60e51b81526004016102fe90611ec5565b6001600160a01b0380871660009081526004602081815260408084208a861685528252808420898552909152808320805460ff1916600117905591549151630134809560e51b8152610fd493620100009093049092169163269012a091610f7791730a4cae6e0dedce6ca8af0e0d2e4f298cadccee8d60631b9101611e4a565b60206040518083038186803b158015610f8f57600080fd5b505afa158015610fa3573d6000803e3d6000fd5b505050506040513d601f19601f82011682018060405250610fc7919081019061182e565b429063ffffffff61124616565b831015610ff35760405162461bcd60e51b81526004016102fe90611f85565b610ffe818388611288565b61101a5760405162461bcd60e51b81526004016102fe90611f95565b6001600160a01b0390951660009081526005602090815260408083209751835296905294909420805460ff1916600117905550505050565b808260010154101561106657600182018190555b808260020154118061107757508154155b1561108457600282018190555b6003820154611099908263ffffffff61138116565b600383015581546110b190600163ffffffff61138116565b90915550565b60006110c2836113a6565b156110cf57506000610710565b60006110da84611168565b905060006111006127106110f4848763ffffffff6113b816565b9063ffffffff6113f216565b90506000611114838363ffffffff61124616565b9050808660020154101561112e5760009350505050610710565b6000611140848463ffffffff61138116565b9050808760010154111561115b576000945050505050610710565b5060019695505050505050565b6000611173826113a6565b6111995761119461118383611434565b60038401549063ffffffff6113f216565b610710565b506000919050565b6001600160a01b0316151590565b6000813f7fc5d2460186f7233c927e7db2dcc703c0e500b653ca82273b7bfad8045d85a4708181148015906111e357508115155b949350505050565b6000805460ff19166001179055565b6112048282610b67565b156112215760405162461bcd60e51b81526004016102fe90611eb5565b6001600160a01b0316600090815260209190915260409020805460ff19166001179055565b600061066883836040518060400160405280601e81526020017f536166654d6174683a207375627472616374696f6e206f766572666c6f770000815250611438565b6000611293826106fd565b61129f57506000610668565b6001600160a01b03821660009081526005602090815260408083208751845290915290205460ff16156112e45760405162461bcd60e51b81526004016102fe90611f25565b60006001846040516020016112f99190611d3d565b604051602081830303815290604052805190602001208660200151876040015188606001516040516000815260200160405260405161133b9493929190611e58565b6020604051602081039080840390855afa15801561135d573d6000803e3d6000fd5b5050604051601f1901516001600160a01b0390811690851614925050509392505050565b6000828201838110156106685760405162461bcd60e51b81526004016102fe90611ef5565b60006113b182611434565b1592915050565b6000826113c757506000610710565b828202828482816113d457fe5b04146106685760405162461bcd60e51b81526004016102fe90611f55565b600061066883836040518060400160405280601a81526020017f536166654d6174683a206469766973696f6e206279207a65726f000000000000815250611464565b5490565b6000818484111561145c5760405162461bcd60e51b81526004016102fe9190611ea4565b505050900390565b600081836114855760405162461bcd60e51b81526004016102fe9190611ea4565b50600083858161149157fe5b0495945050505050565b8035610710816120cb565b60008083601f8401126114b857600080fd5b50813567ffffffffffffffff8111156114d057600080fd5b602083019150836101008202830111156114e957600080fd5b9250929050565b8035610710816120df565b600060c0828403121561150d57600080fd5b50919050565b600060c0828403121561152557600080fd5b61152f60c0612028565b9050600061153d848461149b565b825250602061154e8484830161149b565b6020830152506040611562848285016114f0565b6040830152506060611576848285016114f0565b606083015250608061158a848285016114f0565b60808301525060a061159e848285016114f0565b60a08301525092915050565b600061010082840312156115bd57600080fd5b6115c760a0612028565b905060006115d5848461149b565b82525060206115e68484830161149b565b60208301525060406115fa848285016114f0565b604083015250606061160e848285016114f0565b60608301525060806116228482850161162e565b60808301525092915050565b60006080828403121561164057600080fd5b61164a6080612028565b9050600061165884846114f0565b8252506020611669848483016116a8565b602083015250604061167d848285016114f0565b6040830152506060611691848285016114f0565b60608301525092915050565b8051610710816120df565b8035610710816120e8565b6000602082840312156116c557600080fd5b60006111e3848461149b565b6000806000606084860312156116e657600080fd5b60006116f2868661149b565b93505060206117038682870161149b565b92505060406117148682870161149b565b9150509250925092565b60008060006060848603121561173357600080fd5b600061173f868661149b565b93505060206117508682870161149b565b9250506040611714868287016114f0565b6000806040838503121561177457600080fd5b6000611780858561149b565b9250506020611791858286016114f0565b9150509250929050565b600080600060e084860312156117b057600080fd5b60006117bc86866114fb565b93505060c084013567ffffffffffffffff8111156117d957600080fd5b6117e5868287016114a6565b92509250509250925092565b600060c0828403121561180357600080fd5b60006111e38484611513565b6000610100828403121561182257600080fd5b60006111e384846115aa565b60006020828403121561184057600080fd5b60006111e3848461169d565b61185581612061565b82525050565b6118558161206c565b61185581612071565b61185561187982612071565b612071565b61185581612086565b60006118928261204f565b61189c8185612053565b93506118ac818560208601612091565b6118b5816120c1565b9093019392505050565b60006118cc601f83612053565b7f526f6c65733a206163636f756e7420616c72656164792068617320726f6c6500815260200192915050565b6000611905601c8361205c565b7f19457468657265756d205369676e6564204d6573736167653a0a3332000000008152601c0192915050565b600061193e601883612053565b7f5349474e45525f414c52454144595f5355424d49545445440000000000000000815260200192915050565b6000611977602683612053565b7f4f776e61626c653a206e6577206f776e657220697320746865207a65726f206181526564647265737360d01b602082015260400192915050565b60006119bf601483612053565b73149154d413d394d154d7d513d3d7d5905492515160621b815260200192915050565b60006119ef601b83612053565b7f536166654d6174683a206164646974696f6e206f766572666c6f770000000000815260200192915050565b6000611a28601a83612053565b7f4d41524b4554535f4d5553545f42455f415f434f4e5452414354000000000000815260200192915050565b6000611a61601b83612053565b7f53455454494e47535f4d5553545f42455f415f434f4e54524143540000000000815260200192915050565b6000611a9a601283612053565b7129a4a3a722a92fa727a721a2afaa20a5a2a760711b815260200192915050565b6000611ac8602183612053565b7f526f6c65733a206163636f756e7420646f6573206e6f74206861766520726f6c8152606560f81b602082015260400192915050565b6000611b0b601c83612053565b7f494e5445524553545f524551554553545f4e4f4e43455f54414b454e00000000815260200192915050565b6000611b44602183612053565b7f536166654d6174683a206d756c7469706c69636174696f6e206f766572666c6f8152607760f81b602082015260400192915050565b6000611b87602083612053565b7f4f776e61626c653a2063616c6c6572206973206e6f7420746865206f776e6572815260200192915050565b6000611bc0602283612053565b7f526f6c65733a206163636f756e7420697320746865207a65726f206164647265815261737360f01b602082015260400192915050565b6000611c04601083612053565b6f149154d413d394d157d156141254915160821b815260200192915050565b6000611c30601183612053565b7014d251d3905515549157d2539590531251607a1b815260200192915050565b6000611c5d601883612053565b7f53454e4445525f4841534e545f5045524d495353494f4e530000000000000000815260200192915050565b6000611c96601883612053565b7f434f4e54524143545f4e4f545f494e495449414c495a45440000000000000000815260200192915050565b6000611ccf601c83612053565b7f434f4e54524143545f414c52454144595f494e495449414c495a454400000000815260200192915050565b6000611d08601f83612053565b7f494e5445524553545f494e53554646494349454e545f524553504f4e53455300815260200192915050565b61185581612080565b6000611d48826118f8565b9150611d54828461186d565b50602001919050565b60208101610710828461184c565b6101008101611d7a828b61184c565b611d87602083018a61184c565b611d94604083018961184c565b611da16060830188611864565b611dae6080830187611864565b611dbb60a0830186611864565b611dc860c0830185611864565b611dd560e0830184611864565b9998505050505050505050565b60c08101611df0828961184c565b611dfd6020830188611864565b611e0a6040830187611864565b611e176060830186611864565b611e246080830185611864565b611e3160a0830184611864565b979650505050505050565b60208101610710828461185b565b602081016107108284611864565b60808101611e668287611864565b611e736020830186611d34565b611e806040830185611864565b611e8d6060830184611864565b95945050505050565b60208101610710828461187e565b602080825281016106688184611887565b60208082528101610710816118bf565b6020808252810161071081611931565b602080825281016107108161196a565b60208082528101610710816119b2565b60208082528101610710816119e2565b6020808252810161071081611a1b565b6020808252810161071081611a54565b6020808252810161071081611a8d565b6020808252810161071081611abb565b6020808252810161071081611afe565b6020808252810161071081611b37565b6020808252810161071081611b7a565b6020808252810161071081611bb3565b6020808252810161071081611bf7565b6020808252810161071081611c23565b6020808252810161071081611c50565b6020808252810161071081611c89565b6020808252810161071081611cc2565b6020808252810161071081611cfb565b60608101611ff38286611864565b6120006020830185611864565b6111e36040830184611864565b6080810161201b8287611864565b611e736020830186611864565b60405181810167ffffffffffffffff8111828210171561204757600080fd5b604052919050565b5190565b90815260200190565b919050565b600061071082612074565b151590565b90565b6001600160a01b031690565b60ff1690565b600061071082612061565b60005b838110156120ac578181015183820152602001612094565b838111156120bb576000848401525b50505050565b601f01601f191690565b6120d481612061565b811461031057600080fd5b6120d481612071565b6120d48161208056fea365627a7a723158200c81134f00bd85e6c876df06f4fbef4607544a382360530f12b41b7af8a025556c6578706572696d656e74616cf564736f6c63430005110040",
  "source": "pragma solidity 0.5.17;\npragma experimental ABIEncoderV2;\n\n// Libraries\nimport \"../util/AddressLib.sol\";\n\n// Interfaces\nimport \"../interfaces/InterestConsensusInterface.sol\";\n\n// Contracts\nimport \"./Consensus.sol\";\n\n\n/**\n    @notice This contract processes the node responses to get consensus in the lender interest.\n\n    @author develop@teller.finance\n */\ncontract InterestConsensus is Consensus, InterestConsensusInterface {\n    using AddressLib for address;\n\n    /* State Variables */\n\n    // mapping of (lender, endTime) to the aggregated node submissions for their request\n    mapping(address => mapping(uint256 => NumbersList.Values)) public interestSubmissions;\n\n    /** Modifiers */\n\n    /* Constructor */\n\n    /* External Functions */\n    /**\n        @notice It processes all the node responses for a request in order to get a consensus value.\n        @param request the interest request sent by the lender.\n        @param responses all node responses to process.\n        @return the consensus interest.\n     */\n    function processRequest(\n        TellerCommon.InterestRequest calldata request,\n        TellerCommon.InterestResponse[] calldata responses\n    ) external isInitialized() isCaller() returns (uint256) {\n        require(\n            responses.length >=\n                settings.getPlatformSettingValue(REQUIRED_SUBMISSIONS_SETTING),\n            \"INTEREST_INSUFFICIENT_RESPONSES\"\n        );\n        require(\n            !requestNonceTaken[request.lender][request.requestNonce],\n            \"INTEREST_REQUEST_NONCE_TAKEN\"\n        );\n        requestNonceTaken[request.lender][request.requestNonce] = true;\n\n        bytes32 requestHash = _hashRequest(request);\n\n        for (uint256 i = 0; i < responses.length; i++) {\n            _processResponse(request, responses[i], requestHash);\n        }\n\n        uint256 interestAccrued = _getConsensus(\n            interestSubmissions[request.lender][request.endTime]\n        );\n\n        emit InterestAccepted(\n            request.lender,\n            request.requestNonce,\n            request.endTime,\n            interestAccrued\n        );\n\n        return interestAccrued;\n    }\n\n    /** Internal Functions */\n\n    /**\n        @notice It processes a node response.\n        @param request the interest request sent by the lender.\n        @param response a node response.\n     */\n    function _processResponse(\n        TellerCommon.InterestRequest memory request,\n        TellerCommon.InterestResponse memory response,\n        bytes32 requestHash\n    ) internal {\n        bytes32 responseHash = _hashResponse(response, requestHash);\n\n        _validateResponse(\n            response.signer,\n            request.lender,\n            request.endTime,\n            response.responseTime,\n            responseHash,\n            response.signature\n        );\n\n        interestSubmissions[request.lender][request.endTime].addValue(response.interest);\n\n        emit InterestSubmitted(\n            response.signer,\n            request.lender,\n            request.requestNonce,\n            request.endTime,\n            response.interest\n        );\n    }\n\n    /**\n        @notice It creates a hash based on a node response and lender request.\n        @param response a node response.\n        @param requestHash a hash value that represents the lender request.\n        @return a hash value.\n     */\n    function _hashResponse(\n        TellerCommon.InterestResponse memory response,\n        bytes32 requestHash\n    ) internal view returns (bytes32) {\n        return\n            keccak256(\n                abi.encode(\n                    response.consensusAddress,\n                    response.responseTime,\n                    response.interest,\n                    response.signature.signerNonce,\n                    _getChainId(),\n                    requestHash\n                )\n            );\n    }\n\n    /**\n        @notice It creates a hash value based on the lender request.\n        @param request the interest request sent by the lender.\n        @return a hash value.\n     */\n    function _hashRequest(TellerCommon.InterestRequest memory request)\n        internal\n        view\n        returns (bytes32)\n    {\n        return\n            keccak256(\n                abi.encode(\n                    callerAddress,\n                    request.lender,\n                    request.consensusAddress,\n                    request.requestNonce,\n                    request.startTime,\n                    request.endTime,\n                    request.requestTime,\n                    _getChainId()\n                )\n            );\n    }\n}\n",
  "sourcePath": "/Users/guillesalazar/Repos/ZeroCollateral/smart-contracts-v1/contracts/base/InterestConsensus.sol",
  "compiler": {
    "name": "solc",
    "version": "0.5.17+commit.d19bba13.Emscripten.clang"
  },
  "schemaVersion": "3.0.23",
  "updatedAt": "2020-08-12T16:48:45.157Z",
  "devdoc": {
    "author": "develop@teller.finance",
    "methods": {
      "addSigner(address)": {
        "details": "The sender must be the owner.It throws a require error if the sender is not the owner.",
        "params": {
          "account": "address to add."
        }
      },
      "initialize(address,address,address)": {
        "params": {
          "aCallerAddress": "the contract that will call it.",
          "aMarketsAddress": "the markets state address.",
          "aSettingAddress": "the settings contract address."
        }
      },
      "initialized()": {
        "return": "true if contract is initialized. Otherwise it returns false."
      },
      "isOwner()": {
        "details": "Returns true if the caller is the current owner."
      },
      "isSigner(address)": {
        "params": {
          "account": "address to test."
        },
        "return": "true if account is a signer. Otherwise it returns false."
      },
      "owner()": {
        "details": "Returns the address of the current owner."
      },
      "processRequest((address,address,uint256,uint256,uint256,uint256),(address,address,uint256,uint256,(uint256,uint8,bytes32,bytes32))[])": {
        "params": {
          "request": "the interest request sent by the lender.",
          "responses": "all node responses to process."
        },
        "return": "the consensus interest."
      },
      "removeSigner(address)": {
        "details": "The sender must be the owner.It throws a require error if the sender is not the owner.",
        "params": {
          "account": "address to remove."
        }
      },
      "renounceOwnership()": {
        "details": "Leaves the contract without owner. It will not be possible to call `onlyOwner` functions anymore. Can only be called by the current owner.     * NOTE: Renouncing ownership will leave the contract without an owner, thereby removing any functionality that is only available to the owner."
      },
      "transferOwnership(address)": {
        "details": "Transfers ownership of the contract to a new account (`newOwner`). Can only be called by the current owner."
      }
    }
  },
  "userdoc": {
    "methods": {
      "addSigner(address)": {
        "notice": "It adds a new account as a signer."
      },
      "initialize(address,address,address)": {
        "notice": "It initializes this contract setting the parameters."
      },
      "initialized()": {
        "notice": "Gets if the contract is initialized."
      },
      "isSigner(address)": {
        "notice": "Gets whether an account address is a signer or not."
      },
      "processRequest((address,address,uint256,uint256,uint256,uint256),(address,address,uint256,uint256,(uint256,uint8,bytes32,bytes32))[])": {
        "notice": "It processes all the node responses for a request in order to get a consensus value."
      },
      "removeSigner(address)": {
        "notice": "It removes an account as signer."
      }
    },
    "notice": "This contract processes the node responses to get consensus in the lender interest."
  }
}