{
  "contractName": "InterestConsensus",
  "abi": [
    {
      "anonymous": false,
      "inputs": [
        {
          "indexed": true,
          "internalType": "address",
          "name": "lender",
          "type": "address"
        },
        {
          "indexed": false,
          "internalType": "uint256",
          "name": "endTime",
          "type": "uint256"
        },
        {
          "indexed": false,
          "internalType": "uint256",
          "name": "interest",
          "type": "uint256"
        }
      ],
      "name": "InterestAccepted",
      "type": "event"
    },
    {
      "anonymous": false,
      "inputs": [
        {
          "indexed": true,
          "internalType": "address",
          "name": "signer",
          "type": "address"
        },
        {
          "indexed": true,
          "internalType": "address",
          "name": "lender",
          "type": "address"
        },
        {
          "indexed": false,
          "internalType": "uint256",
          "name": "endTime",
          "type": "uint256"
        },
        {
          "indexed": false,
          "internalType": "uint256",
          "name": "interest",
          "type": "uint256"
        }
      ],
      "name": "InterestSubmitted",
      "type": "event"
    },
    {
      "anonymous": false,
      "inputs": [
        {
          "indexed": true,
          "internalType": "address",
          "name": "account",
          "type": "address"
        }
      ],
      "name": "SignerAdded",
      "type": "event"
    },
    {
      "anonymous": false,
      "inputs": [
        {
          "indexed": true,
          "internalType": "address",
          "name": "account",
          "type": "address"
        }
      ],
      "name": "SignerRemoved",
      "type": "event"
    },
    {
      "constant": false,
      "inputs": [
        {
          "internalType": "address",
          "name": "account",
          "type": "address"
        }
      ],
      "name": "addSigner",
      "outputs": [],
      "payable": false,
      "stateMutability": "nonpayable",
      "type": "function"
    },
    {
      "constant": true,
      "inputs": [],
      "name": "caller",
      "outputs": [
        {
          "internalType": "address",
          "name": "",
          "type": "address"
        }
      ],
      "payable": false,
      "stateMutability": "view",
      "type": "function"
    },
    {
      "constant": true,
      "inputs": [
        {
          "internalType": "address",
          "name": "",
          "type": "address"
        },
        {
          "internalType": "address",
          "name": "",
          "type": "address"
        },
        {
          "internalType": "uint256",
          "name": "",
          "type": "uint256"
        }
      ],
      "name": "hasSubmitted",
      "outputs": [
        {
          "internalType": "bool",
          "name": "",
          "type": "bool"
        }
      ],
      "payable": false,
      "stateMutability": "view",
      "type": "function"
    },
    {
      "constant": false,
      "inputs": [
        {
          "internalType": "address",
          "name": "callerAddress",
          "type": "address"
        },
        {
          "internalType": "address",
          "name": "settingAddress",
          "type": "address"
        }
      ],
      "name": "initialize",
      "outputs": [],
      "payable": false,
      "stateMutability": "nonpayable",
      "type": "function"
    },
    {
      "constant": true,
      "inputs": [],
      "name": "initialized",
      "outputs": [
        {
          "internalType": "bool",
          "name": "",
          "type": "bool"
        }
      ],
      "payable": false,
      "stateMutability": "view",
      "type": "function"
    },
    {
      "constant": true,
      "inputs": [
        {
          "internalType": "address",
          "name": "",
          "type": "address"
        },
        {
          "internalType": "uint256",
          "name": "",
          "type": "uint256"
        }
      ],
      "name": "interestSubmissions",
      "outputs": [
        {
          "internalType": "uint256",
          "name": "count",
          "type": "uint256"
        },
        {
          "internalType": "uint256",
          "name": "max",
          "type": "uint256"
        },
        {
          "internalType": "uint256",
          "name": "min",
          "type": "uint256"
        },
        {
          "internalType": "uint256",
          "name": "sum",
          "type": "uint256"
        }
      ],
      "payable": false,
      "stateMutability": "view",
      "type": "function"
    },
    {
      "constant": true,
      "inputs": [
        {
          "internalType": "address",
          "name": "account",
          "type": "address"
        }
      ],
      "name": "isSigner",
      "outputs": [
        {
          "internalType": "bool",
          "name": "",
          "type": "bool"
        }
      ],
      "payable": false,
      "stateMutability": "view",
      "type": "function"
    },
    {
      "constant": false,
      "inputs": [],
      "name": "renounceSigner",
      "outputs": [],
      "payable": false,
      "stateMutability": "nonpayable",
      "type": "function"
    },
    {
      "constant": true,
      "inputs": [],
      "name": "settings",
      "outputs": [
        {
          "internalType": "contract SettingsInterface",
          "name": "",
          "type": "address"
        }
      ],
      "payable": false,
      "stateMutability": "view",
      "type": "function"
    },
    {
      "constant": true,
      "inputs": [
        {
          "internalType": "address",
          "name": "",
          "type": "address"
        },
        {
          "internalType": "uint256",
          "name": "",
          "type": "uint256"
        }
      ],
      "name": "signerNonceTaken",
      "outputs": [
        {
          "internalType": "bool",
          "name": "",
          "type": "bool"
        }
      ],
      "payable": false,
      "stateMutability": "view",
      "type": "function"
    },
    {
      "constant": false,
      "inputs": [
        {
          "components": [
            {
              "internalType": "address",
              "name": "lender",
              "type": "address"
            },
            {
              "internalType": "uint256",
              "name": "startTime",
              "type": "uint256"
            },
            {
              "internalType": "uint256",
              "name": "endTime",
              "type": "uint256"
            },
            {
              "internalType": "uint256",
              "name": "requestTime",
              "type": "uint256"
            }
          ],
          "internalType": "struct ZeroCollateralCommon.InterestRequest",
          "name": "request",
          "type": "tuple"
        },
        {
          "components": [
            {
              "internalType": "address",
              "name": "signer",
              "type": "address"
            },
            {
              "internalType": "uint256",
              "name": "responseTime",
              "type": "uint256"
            },
            {
              "internalType": "uint256",
              "name": "interest",
              "type": "uint256"
            },
            {
              "components": [
                {
                  "internalType": "uint256",
                  "name": "signerNonce",
                  "type": "uint256"
                },
                {
                  "internalType": "uint8",
                  "name": "v",
                  "type": "uint8"
                },
                {
                  "internalType": "bytes32",
                  "name": "r",
                  "type": "bytes32"
                },
                {
                  "internalType": "bytes32",
                  "name": "s",
                  "type": "bytes32"
                }
              ],
              "internalType": "struct ZeroCollateralCommon.Signature",
              "name": "signature",
              "type": "tuple"
            }
          ],
          "internalType": "struct ZeroCollateralCommon.InterestResponse[]",
          "name": "responses",
          "type": "tuple[]"
        }
      ],
      "name": "processRequest",
      "outputs": [
        {
          "internalType": "uint256",
          "name": "",
          "type": "uint256"
        }
      ],
      "payable": false,
      "stateMutability": "nonpayable",
      "type": "function"
    }
  ],
  "bytecode": "0x6080604052600180819055506200002b6200001f6200003160201b60201c565b6200003960201b60201c565b62000317565b600033905090565b620000548160036200009a60201b6200130c1790919060201c565b8073ffffffffffffffffffffffffffffffffffffffff167f47d1c22a25bb3a5d4e481b9b1e6944c2eade3181a0a20b495ed61d35b5323f2460405160405180910390a250565b620000ac82826200014d60201b60201c565b15620000ef576040517f08c379a0000000000000000000000000000000000000000000000000000000008152600401620000e690620002c2565b60405180910390fd5b60018260000160008373ffffffffffffffffffffffffffffffffffffffff1673ffffffffffffffffffffffffffffffffffffffff16815260200190815260200160002060006101000a81548160ff0219169083151502179055505050565b60008073ffffffffffffffffffffffffffffffffffffffff168273ffffffffffffffffffffffffffffffffffffffff161415620001c1576040517f08c379a0000000000000000000000000000000000000000000000000000000008152600401620001b890620002e4565b60405180910390fd5b8260000160008373ffffffffffffffffffffffffffffffffffffffff1673ffffffffffffffffffffffffffffffffffffffff16815260200190815260200160002060009054906101000a900460ff16905092915050565b600062000227601f8362000306565b91507f526f6c65733a206163636f756e7420616c72656164792068617320726f6c65006000830152602082019050919050565b60006200026960228362000306565b91507f526f6c65733a206163636f756e7420697320746865207a65726f20616464726560008301527f73730000000000000000000000000000000000000000000000000000000000006020830152604082019050919050565b60006020820190508181036000830152620002dd8162000218565b9050919050565b60006020820190508181036000830152620002ff816200025a565b9050919050565b600082825260208201905092915050565b6126cf80620003276000396000f3fe608060405234801561001057600080fd5b50600436106100a95760003560e01c80637df73e27116100715780637df73e271461017b57806399ffe065146101ab578063e06174e4146101db578063e5c8b03d146101f9578063eb12d61e14610203578063fc9c8d391461021f576100a9565b8063158ef93e146100ae578063485cc955146100cc5780634ed0bd1f146100e857806365e8eb8e1461011857806368fcdeb81461014b575b600080fd5b6100b661023d565b6040516100c391906121a0565b60405180910390f35b6100e660048036036100e191908101906119f0565b610253565b005b61010260048036036100fd9190810190611ab7565b610360565b60405161010f919061243d565b60405180910390f35b610132600480360361012d9190810190611a7b565b610681565b60405161014294939291906124c6565b60405180910390f35b61016560048036036101609190810190611a7b565b6106be565b60405161017291906121a0565b60405180910390f35b610195600480360361019091908101906119c7565b6106ed565b6040516101a291906121a0565b60405180910390f35b6101c560048036036101c09190810190611a2c565b61070a565b6040516101d291906121a0565b60405180910390f35b6101e3610746565b6040516101f09190612200565b60405180910390f35b61020161076c565b005b61021d600480360361021891908101906119c7565b61077e565b005b6102276107d9565b6040516102349190612132565b60405180910390f35b60008060009054906101000a900460ff16905090565b6000809054906101000a900460ff16156102a2576040517f08c379a00000000000000000000000000000000000000000000000000000000081526004016102999061241d565b60405180910390fd5b600073ffffffffffffffffffffffffffffffffffffffff168273ffffffffffffffffffffffffffffffffffffffff161415610312576040517f08c379a00000000000000000000000000000000000000000000000000000000081526004016103099061223d565b60405180910390fd5b61031b816107ff565b81600660006101000a81548173ffffffffffffffffffffffffffffffffffffffff021916908373ffffffffffffffffffffffffffffffffffffffff1602179055505050565b60008060009054906101000a900460ff166103b0576040517f08c379a00000000000000000000000000000000000000000000000000000000081526004016103a79061233d565b60405180910390fd5b3373ffffffffffffffffffffffffffffffffffffffff16600660009054906101000a900473ffffffffffffffffffffffffffffffffffffffff1673ffffffffffffffffffffffffffffffffffffffff1614610440576040517f08c379a0000000000000000000000000000000000000000000000000000000008152600401610437906123fd565b60405180910390fd5b600260009054906101000a900473ffffffffffffffffffffffffffffffffffffffff1673ffffffffffffffffffffffffffffffffffffffff1663b9f9e3046040518163ffffffff1660e01b815260040160206040518083038186803b1580156104a857600080fd5b505afa1580156104bc573d6000803e3d6000fd5b505050506040513d601f19601f820116820180604052506104e09190810190611b61565b838390501015610525576040517f08c379a000000000000000000000000000000000000000000000000000000000815260040161051c906123bd565b60405180910390fd5b60006105408580360361053b9190810190611b0f565b6108f8565b905060008090505b8484905081101561059c5761058f868036036105679190810190611b0f565b86868481811061057357fe5b905060e002018036036105899190810190611b38565b84610962565b8080600101915050610548565b50600061060d600760008860000160206105b991908101906119c7565b73ffffffffffffffffffffffffffffffffffffffff1673ffffffffffffffffffffffffffffffffffffffff168152602001908152602001600020600088604001358152602001908152602001600020610a7d565b905085600001602061062291908101906119c7565b73ffffffffffffffffffffffffffffffffffffffff167fdd7b2ba0e06056c821cd1dd8902de23fcaaf6ab1f1eb11e44cf31f95799a4ed087604001358360405161066d929190612458565b60405180910390a280925050509392505050565b6007602052816000526040600020602052806000526040600020600091509150508060000154908060010154908060020154908060030154905084565b60056020528160005260406000206020528060005260406000206000915091509054906101000a900460ff1681565b6000610703826003610b8090919063ffffffff16565b9050919050565b6004602052826000526040600020602052816000526040600020602052806000526040600020600092509250509054906101000a900460ff1681565b600260009054906101000a900473ffffffffffffffffffffffffffffffffffffffff1681565b61077c610777610c48565b610c50565b565b61078e610789610c48565b6106ed565b6107cd576040517f08c379a00000000000000000000000000000000000000000000000000000000081526004016107c49061239d565b60405180910390fd5b6107d681610caa565b50565b600660009054906101000a900473ffffffffffffffffffffffffffffffffffffffff1681565b6000809054906101000a900460ff161561084e576040517f08c379a00000000000000000000000000000000000000000000000000000000081526004016108459061241d565b60405180910390fd5b6108ac6040518060400160405280601981526020017f53455454494e47535f4d5553545f42455f50524f5649444544000000000000008152508273ffffffffffffffffffffffffffffffffffffffff16610d0490919063ffffffff16565b6108b4610d54565b80600260006101000a81548173ffffffffffffffffffffffffffffffffffffffff021916908373ffffffffffffffffffffffffffffffffffffffff16021790555050565b6000600660009054906101000a900473ffffffffffffffffffffffffffffffffffffffff16826000015183602001518460400151856060015160405160200161094595949392919061214d565b604051602081830303815290604052805190602001209050919050565b600061096e8383610d70565b90506109928360000151856000015186604001518660200151858860600151610db7565b610a00836040015160076000876000015173ffffffffffffffffffffffffffffffffffffffff1673ffffffffffffffffffffffffffffffffffffffff1681526020019081526020016000206000876040015181526020019081526020016000206110eb90919063ffffffff16565b836000015173ffffffffffffffffffffffffffffffffffffffff16836000015173ffffffffffffffffffffffffffffffffffffffff167f7d6550a9878cfdfddce2de5f82f7d7854eafcde6282730dcea0a67618b29dffc86604001518660400151604051610a6f929190612458565b60405180910390a350505050565b6000610b31600260009054906101000a900473ffffffffffffffffffffffffffffffffffffffff1673ffffffffffffffffffffffffffffffffffffffff16637f4339436040518163ffffffff1660e01b815260040160206040518083038186803b158015610aea57600080fd5b505afa158015610afe573d6000803e3d6000fd5b505050506040513d601f19601f82011682018060405250610b229190810190611b61565b8361116990919063ffffffff16565b610b70576040517f08c379a0000000000000000000000000000000000000000000000000000000008152600401610b679061229d565b60405180910390fd5b610b7982611228565b9050919050565b60008073ffffffffffffffffffffffffffffffffffffffff168273ffffffffffffffffffffffffffffffffffffffff161415610bf1576040517f08c379a0000000000000000000000000000000000000000000000000000000008152600401610be89061235d565b60405180910390fd5b8260000160008373ffffffffffffffffffffffffffffffffffffffff1673ffffffffffffffffffffffffffffffffffffffff16815260200190815260200160002060009054906101000a900460ff16905092915050565b600033905090565b610c6481600361126590919063ffffffff16565b8073ffffffffffffffffffffffffffffffffffffffff167f3525e22824a8a7df2c9a6029941c824cf95b6447f1e13d5128fd3826d35afe8b60405160405180910390a250565b610cbe81600361130c90919063ffffffff16565b8073ffffffffffffffffffffffffffffffffffffffff167f47d1c22a25bb3a5d4e481b9b1e6944c2eade3181a0a20b495ed61d35b5323f2460405160405180910390a250565b610d0d826113b4565b8190610d4f576040517f08c379a0000000000000000000000000000000000000000000000000000000008152600401610d46919061221b565b60405180910390fd5b505050565b60016000806101000a81548160ff021916908315150217905550565b60008260200151836040015184606001516000015184604051602001610d999493929190612481565b60405160208183030381529060405280519060200120905092915050565b600460008773ffffffffffffffffffffffffffffffffffffffff1673ffffffffffffffffffffffffffffffffffffffff16815260200190815260200160002060008673ffffffffffffffffffffffffffffffffffffffff1673ffffffffffffffffffffffffffffffffffffffff168152602001908152602001600020600085815260200190815260200160002060009054906101000a900460ff1615610e92576040517f08c379a0000000000000000000000000000000000000000000000000000000008152600401610e899061227d565b60405180910390fd5b6001600460008873ffffffffffffffffffffffffffffffffffffffff1673ffffffffffffffffffffffffffffffffffffffff16815260200190815260200160002060008773ffffffffffffffffffffffffffffffffffffffff1673ffffffffffffffffffffffffffffffffffffffff168152602001908152602001600020600086815260200190815260200160002060006101000a81548160ff021916908315150217905550610fea600260009054906101000a900473ffffffffffffffffffffffffffffffffffffffff1673ffffffffffffffffffffffffffffffffffffffff1663a7fced686040518163ffffffff1660e01b815260040160206040518083038186803b158015610fa357600080fd5b505afa158015610fb7573d6000803e3d6000fd5b505050506040513d601f19601f82011682018060405250610fdb9190810190611b61565b426113ed90919063ffffffff16565b83101561102c576040517f08c379a00000000000000000000000000000000000000000000000000000000081526004016110239061237d565b60405180910390fd5b611037818388611437565b611076576040517f08c379a000000000000000000000000000000000000000000000000000000000815260040161106d906123dd565b60405180910390fd5b6001600560008873ffffffffffffffffffffffffffffffffffffffff1673ffffffffffffffffffffffffffffffffffffffff16815260200190815260200160002060008360000151815260200190815260200160002060006101000a81548160ff021916908315150217905550505050505050565b8082600101541015611101578082600101819055505b8082600201541180611117575060008260000154145b15611126578082600201819055505b61113d8183600301546115b090919063ffffffff16565b826003018190555061115d600183600001546115b090919063ffffffff16565b82600001819055505050565b600061117483611605565b156111825760009050611222565b600061118d84611228565b905060006111b86127106111aa868561161990919063ffffffff16565b61168990919063ffffffff16565b905060006111cf82846113ed90919063ffffffff16565b905080866002015410156111e95760009350505050611222565b60006111fe83856115b090919063ffffffff16565b90508087600101541115611219576000945050505050611222565b60019450505050505b92915050565b600061123382611605565b61125b57611256611243836116d3565b836003015461168990919063ffffffff16565b61125e565b60005b9050919050565b61126f8282610b80565b6112ae576040517f08c379a00000000000000000000000000000000000000000000000000000000081526004016112a5906122fd565b60405180910390fd5b60008260000160008373ffffffffffffffffffffffffffffffffffffffff1673ffffffffffffffffffffffffffffffffffffffff16815260200190815260200160002060006101000a81548160ff0219169083151502179055505050565b6113168282610b80565b15611356576040517f08c379a000000000000000000000000000000000000000000000000000000000815260040161134d9061225d565b60405180910390fd5b60018260000160008373ffffffffffffffffffffffffffffffffffffffff1673ffffffffffffffffffffffffffffffffffffffff16815260200190815260200160002060006101000a81548160ff0219169083151502179055505050565b60008073ffffffffffffffffffffffffffffffffffffffff168273ffffffffffffffffffffffffffffffffffffffff1614159050919050565b600061142f83836040518060400160405280601e81526020017f536166654d6174683a207375627472616374696f6e206f766572666c6f7700008152506116e1565b905092915050565b6000611442826106ed565b61144f57600090506115a9565b600560008373ffffffffffffffffffffffffffffffffffffffff1673ffffffffffffffffffffffffffffffffffffffff16815260200190815260200160002060008560000151815260200190815260200160002060009054906101000a900460ff16156114f1576040517f08c379a00000000000000000000000000000000000000000000000000000000081526004016114e8906122dd565b60405180910390fd5b6000600184604051602001611506919061210c565b604051602081830303815290604052805190602001208660200151876040015188606001516040516000815260200160405260405161154894939291906121bb565b6020604051602081039080840390855afa15801561156a573d6000803e3d6000fd5b5050506020604051035190508273ffffffffffffffffffffffffffffffffffffffff168173ffffffffffffffffffffffffffffffffffffffff16149150505b9392505050565b6000808284019050838110156115fb576040517f08c379a00000000000000000000000000000000000000000000000000000000081526004016115f2906122bd565b60405180910390fd5b8091505092915050565b600080611611836116d3565b149050919050565b60008083141561162c5760009050611683565b600082840290508284828161163d57fe5b041461167e576040517f08c379a00000000000000000000000000000000000000000000000000000000081526004016116759061231d565b60405180910390fd5b809150505b92915050565b60006116cb83836040518060400160405280601a81526020017f536166654d6174683a206469766973696f6e206279207a65726f00000000000081525061173c565b905092915050565b600081600001549050919050565b6000838311158290611729576040517f08c379a0000000000000000000000000000000000000000000000000000000008152600401611720919061221b565b60405180910390fd5b5060008385039050809150509392505050565b60008083118290611783576040517f08c379a000000000000000000000000000000000000000000000000000000000815260040161177a919061221b565b60405180910390fd5b50600083858161178f57fe5b049050809150509392505050565b6000813590506117ac81612630565b92915050565b60008083601f8401126117c457600080fd5b8235905067ffffffffffffffff8111156117dd57600080fd5b6020830191508360e08202830111156117f557600080fd5b9250929050565b60008135905061180b81612647565b92915050565b60006080828403121561182357600080fd5b81905092915050565b60006080828403121561183e57600080fd5b611848608061250b565b905060006118588482850161179d565b600083015250602061186c84828501611988565b602083015250604061188084828501611988565b604083015250606061189484828501611988565b60608301525092915050565b600060e082840312156118b257600080fd5b6118bc608061250b565b905060006118cc8482850161179d565b60008301525060206118e084828501611988565b60208301525060406118f484828501611988565b604083015250606061190884828501611914565b60608301525092915050565b60006080828403121561192657600080fd5b611930608061250b565b9050600061194084828501611988565b6000830152506020611954848285016119b2565b6020830152506040611968848285016117fc565b604083015250606061197c848285016117fc565b60608301525092915050565b6000813590506119978161265e565b92915050565b6000815190506119ac8161265e565b92915050565b6000813590506119c181612675565b92915050565b6000602082840312156119d957600080fd5b60006119e78482850161179d565b91505092915050565b60008060408385031215611a0357600080fd5b6000611a118582860161179d565b9250506020611a228582860161179d565b9150509250929050565b600080600060608486031215611a4157600080fd5b6000611a4f8682870161179d565b9350506020611a608682870161179d565b9250506040611a7186828701611988565b9150509250925092565b60008060408385031215611a8e57600080fd5b6000611a9c8582860161179d565b9250506020611aad85828601611988565b9150509250929050565b600080600060a08486031215611acc57600080fd5b6000611ada86828701611811565b935050608084013567ffffffffffffffff811115611af757600080fd5b611b03868287016117b2565b92509250509250925092565b600060808284031215611b2157600080fd5b6000611b2f8482850161182c565b91505092915050565b600060e08284031215611b4a57600080fd5b6000611b58848285016118a0565b91505092915050565b600060208284031215611b7357600080fd5b6000611b818482850161199d565b91505092915050565b611b938161255f565b82525050565b611ba281612571565b82525050565b611bb18161257d565b82525050565b611bc8611bc38261257d565b612615565b82525050565b611bd7816125be565b82525050565b6000611be882612538565b611bf28185612543565b9350611c028185602086016125e2565b611c0b8161261f565b840191505092915050565b6000611c23601883612543565b91507f4d5553545f50524f564944455f4c454e4445525f494e464f00000000000000006000830152602082019050919050565b6000611c63601f83612543565b91507f526f6c65733a206163636f756e7420616c72656164792068617320726f6c65006000830152602082019050919050565b6000611ca3601c83612554565b91507f19457468657265756d205369676e6564204d6573736167653a0a3332000000006000830152601c82019050919050565b6000611ce3601883612543565b91507f5349474e45525f414c52454144595f5355424d495454454400000000000000006000830152602082019050919050565b6000611d23601483612543565b91507f524553504f4e5345535f544f4f5f5641524945440000000000000000000000006000830152602082019050919050565b6000611d63601b83612543565b91507f536166654d6174683a206164646974696f6e206f766572666c6f7700000000006000830152602082019050919050565b6000611da3601283612543565b91507f5349474e45525f4e4f4e43455f54414b454e00000000000000000000000000006000830152602082019050919050565b6000611de3602183612543565b91507f526f6c65733a206163636f756e7420646f6573206e6f74206861766520726f6c60008301527f65000000000000000000000000000000000000000000000000000000000000006020830152604082019050919050565b6000611e49602183612543565b91507f536166654d6174683a206d756c7469706c69636174696f6e206f766572666c6f60008301527f77000000000000000000000000000000000000000000000000000000000000006020830152604082019050919050565b6000611eaf601683612543565b91507f4974206973206e6f7420696e697469616c697a65642e000000000000000000006000830152602082019050919050565b6000611eef602283612543565b91507f526f6c65733a206163636f756e7420697320746865207a65726f20616464726560008301527f73730000000000000000000000000000000000000000000000000000000000006020830152604082019050919050565b6000611f55601083612543565b91507f524553504f4e53455f45585049524544000000000000000000000000000000006000830152602082019050919050565b6000611f95603083612543565b91507f5369676e6572526f6c653a2063616c6c657220646f6573206e6f74206861766560008301527f20746865205369676e657220726f6c65000000000000000000000000000000006020830152604082019050919050565b6000611ffb601683612543565b91507f494e53554646494349454e545f524553504f4e534553000000000000000000006000830152602082019050919050565b600061203b601183612543565b91507f5349474e41545552455f494e56414c49440000000000000000000000000000006000830152602082019050919050565b600061207b601b83612543565b91507f4164647265737320686173206e6f207065726d697373696f6e732e00000000006000830152602082019050919050565b60006120bb601a83612543565b91507f497420697320616c726561647920696e697469616c697a65642e0000000000006000830152602082019050919050565b6120f7816125a7565b82525050565b612106816125b1565b82525050565b600061211782611c96565b91506121238284611bb7565b60208201915081905092915050565b60006020820190506121476000830184611b8a565b92915050565b600060a0820190506121626000830188611b8a565b61216f6020830187611b8a565b61217c60408301866120ee565b61218960608301856120ee565b61219660808301846120ee565b9695505050505050565b60006020820190506121b56000830184611b99565b92915050565b60006080820190506121d06000830187611ba8565b6121dd60208301866120fd565b6121ea6040830185611ba8565b6121f76060830184611ba8565b95945050505050565b60006020820190506122156000830184611bce565b92915050565b600060208201905081810360008301526122358184611bdd565b905092915050565b6000602082019050818103600083015261225681611c16565b9050919050565b6000602082019050818103600083015261227681611c56565b9050919050565b6000602082019050818103600083015261229681611cd6565b9050919050565b600060208201905081810360008301526122b681611d16565b9050919050565b600060208201905081810360008301526122d681611d56565b9050919050565b600060208201905081810360008301526122f681611d96565b9050919050565b6000602082019050818103600083015261231681611dd6565b9050919050565b6000602082019050818103600083015261233681611e3c565b9050919050565b6000602082019050818103600083015261235681611ea2565b9050919050565b6000602082019050818103600083015261237681611ee2565b9050919050565b6000602082019050818103600083015261239681611f48565b9050919050565b600060208201905081810360008301526123b681611f88565b9050919050565b600060208201905081810360008301526123d681611fee565b9050919050565b600060208201905081810360008301526123f68161202e565b9050919050565b600060208201905081810360008301526124168161206e565b9050919050565b60006020820190508181036000830152612436816120ae565b9050919050565b600060208201905061245260008301846120ee565b92915050565b600060408201905061246d60008301856120ee565b61247a60208301846120ee565b9392505050565b600060808201905061249660008301876120ee565b6124a360208301866120ee565b6124b060408301856120ee565b6124bd6060830184611ba8565b95945050505050565b60006080820190506124db60008301876120ee565b6124e860208301866120ee565b6124f560408301856120ee565b61250260608301846120ee565b95945050505050565b6000604051905081810181811067ffffffffffffffff8211171561252e57600080fd5b8060405250919050565b600081519050919050565b600082825260208201905092915050565b600081905092915050565b600061256a82612587565b9050919050565b60008115159050919050565b6000819050919050565b600073ffffffffffffffffffffffffffffffffffffffff82169050919050565b6000819050919050565b600060ff82169050919050565b60006125c9826125d0565b9050919050565b60006125db82612587565b9050919050565b60005b838110156126005780820151818401526020810190506125e5565b8381111561260f576000848401525b50505050565b6000819050919050565b6000601f19601f8301169050919050565b6126398161255f565b811461264457600080fd5b50565b6126508161257d565b811461265b57600080fd5b50565b612667816125a7565b811461267257600080fd5b50565b61267e816125b1565b811461268957600080fd5b5056fea365627a7a72315820e1422e111503b422fc8c0cc28daf363442c56272125f4d54086cab2453be01fb6c6578706572696d656e74616cf564736f6c63430005110040",
  "source": "/*\n    Copyright 2020 Fabrx Labs Inc.\n\n    Licensed under the Apache License, Version 2.0 (the \"License\");\n    you may not use this file except in compliance with the License.\n    You may obtain a copy of the License at\n\n    http://www.apache.org/licenses/LICENSE-2.0\n\n    Unless required by applicable law or agreed to in writing, software\n    distributed under the License is distributed on an \"AS IS\" BASIS,\n    WITHOUT WARRANTIES OR CONDITIONS OF ANY KIND, either express or implied.\n    See the License for the specific language governing permissions and\n    limitations under the License.\n*/\npragma solidity 0.5.17;\npragma experimental ABIEncoderV2;\n\n// Libraries\nimport \"../util/AddressLib.sol\";\n\n// Interfaces\nimport \"../interfaces/InterestConsensusInterface.sol\";\n\n// Contracts\nimport \"./Consensus.sol\";\n\n\ncontract InterestConsensus is Consensus, InterestConsensusInterface {\n    using AddressLib for address;\n\n    // mapping of (lender, endTime) to the aggregated node submissions for their request\n    mapping(address => mapping(uint256 => NumbersList.Values)) public interestSubmissions;\n\n    function processRequest(\n        ZeroCollateralCommon.InterestRequest calldata request,\n        ZeroCollateralCommon.InterestResponse[] calldata responses\n    ) external isInitialized() isCaller() returns (uint256) {\n        require(\n            responses.length >= settings.requiredSubmissions(),\n            \"INSUFFICIENT_RESPONSES\"\n        );\n\n        bytes32 requestHash = _hashRequest(request);\n\n        for (uint256 i = 0; i < responses.length; i++) {\n            _processReponse(request, responses[i], requestHash);\n        }\n\n        uint256 interestAccrued = _getConsensus(\n            interestSubmissions[request.lender][request.endTime]\n        );\n\n        emit InterestAccepted(request.lender, request.endTime, interestAccrued);\n\n        return interestAccrued;\n    }\n\n    function _processReponse(\n        ZeroCollateralCommon.InterestRequest memory request,\n        ZeroCollateralCommon.InterestResponse memory response,\n        bytes32 requestHash\n    ) internal {\n        bytes32 responseHash = _hashResponse(response, requestHash);\n\n        _validateResponse(\n            response.signer,\n            request.lender,\n            request.endTime,\n            response.responseTime,\n            responseHash,\n            response.signature\n        );\n\n        interestSubmissions[request.lender][request.endTime].addValue(response.interest);\n\n        emit InterestSubmitted(\n            response.signer,\n            request.lender,\n            request.endTime,\n            response.interest\n        );\n    }\n\n    function _hashResponse(\n        ZeroCollateralCommon.InterestResponse memory response,\n        bytes32 requestHash\n    ) internal pure returns (bytes32) {\n        return\n            keccak256(\n                abi.encode(\n                    response.responseTime,\n                    response.interest,\n                    response.signature.signerNonce,\n                    requestHash\n                )\n            );\n    }\n\n    function _hashRequest(ZeroCollateralCommon.InterestRequest memory request)\n        internal\n        view\n        returns (bytes32)\n    {\n        return\n            keccak256(\n                abi.encode(\n                    caller,\n                    request.lender,\n                    request.startTime,\n                    request.endTime,\n                    request.requestTime\n                )\n            );\n    }\n}\n",
  "sourcePath": "/Users/guillesalazar/Repos/ZeroCollateral/smart-contracts-v1/contracts/base/InterestConsensus.sol",
  "compiler": {
    "name": "solc",
    "version": "0.5.17+commit.d19bba13.Emscripten.clang"
  },
  "schemaVersion": "3.0.23",
  "updatedAt": "2020-05-19T14:55:31.477Z",
  "devdoc": {
    "methods": {}
  },
  "userdoc": {
    "methods": {
      "initialized()": {
        "notice": "External Functions "
      }
    }
  }
}