{
  "contractName": "InterestConsensus",
  "abi": [
    {
      "anonymous": false,
      "inputs": [
        {
          "indexed": true,
          "internalType": "address",
          "name": "lender",
          "type": "address"
        },
        {
          "indexed": false,
          "internalType": "uint256",
          "name": "requestNonce",
          "type": "uint256"
        },
        {
          "indexed": false,
          "internalType": "uint256",
          "name": "endTime",
          "type": "uint256"
        },
        {
          "indexed": false,
          "internalType": "uint256",
          "name": "interest",
          "type": "uint256"
        }
      ],
      "name": "InterestAccepted",
      "type": "event"
    },
    {
      "anonymous": false,
      "inputs": [
        {
          "indexed": true,
          "internalType": "address",
          "name": "signer",
          "type": "address"
        },
        {
          "indexed": true,
          "internalType": "address",
          "name": "lender",
          "type": "address"
        },
        {
          "indexed": false,
          "internalType": "uint256",
          "name": "requestNonce",
          "type": "uint256"
        },
        {
          "indexed": false,
          "internalType": "uint256",
          "name": "endTime",
          "type": "uint256"
        },
        {
          "indexed": false,
          "internalType": "uint256",
          "name": "interest",
          "type": "uint256"
        }
      ],
      "name": "InterestSubmitted",
      "type": "event"
    },
    {
      "anonymous": false,
      "inputs": [
        {
          "indexed": true,
          "internalType": "address",
          "name": "previousOwner",
          "type": "address"
        },
        {
          "indexed": true,
          "internalType": "address",
          "name": "newOwner",
          "type": "address"
        }
      ],
      "name": "OwnershipTransferred",
      "type": "event"
    },
    {
      "anonymous": false,
      "inputs": [
        {
          "indexed": true,
          "internalType": "address",
          "name": "account",
          "type": "address"
        }
      ],
      "name": "SignerAdded",
      "type": "event"
    },
    {
      "anonymous": false,
      "inputs": [
        {
          "indexed": true,
          "internalType": "address",
          "name": "account",
          "type": "address"
        }
      ],
      "name": "SignerRemoved",
      "type": "event"
    },
    {
      "constant": true,
      "inputs": [],
      "name": "LIQUIDATE_ETH_PRICE_SETTING",
      "outputs": [
        {
          "internalType": "bytes32",
          "name": "",
          "type": "bytes32"
        }
      ],
      "payable": false,
      "stateMutability": "view",
      "type": "function"
    },
    {
      "constant": true,
      "inputs": [],
      "name": "MAXIMUM_LOAN_DURATION_SETTING",
      "outputs": [
        {
          "internalType": "bytes32",
          "name": "",
          "type": "bytes32"
        }
      ],
      "payable": false,
      "stateMutability": "view",
      "type": "function"
    },
    {
      "constant": true,
      "inputs": [],
      "name": "MAXIMUM_TOLERANCE_SETTING",
      "outputs": [
        {
          "internalType": "bytes32",
          "name": "",
          "type": "bytes32"
        }
      ],
      "payable": false,
      "stateMutability": "view",
      "type": "function"
    },
    {
      "constant": true,
      "inputs": [],
      "name": "REQUEST_LOAN_TERMS_RATE_LIMIT_SETTING",
      "outputs": [
        {
          "internalType": "bytes32",
          "name": "",
          "type": "bytes32"
        }
      ],
      "payable": false,
      "stateMutability": "view",
      "type": "function"
    },
    {
      "constant": true,
      "inputs": [],
      "name": "REQUIRED_SUBMISSIONS_SETTING",
      "outputs": [
        {
          "internalType": "bytes32",
          "name": "",
          "type": "bytes32"
        }
      ],
      "payable": false,
      "stateMutability": "view",
      "type": "function"
    },
    {
      "constant": true,
      "inputs": [],
      "name": "RESPONSE_EXPIRY_LENGTH_SETTING",
      "outputs": [
        {
          "internalType": "bytes32",
          "name": "",
          "type": "bytes32"
        }
      ],
      "payable": false,
      "stateMutability": "view",
      "type": "function"
    },
    {
      "constant": true,
      "inputs": [],
      "name": "SAFETY_INTERVAL_SETTING",
      "outputs": [
        {
          "internalType": "bytes32",
          "name": "",
          "type": "bytes32"
        }
      ],
      "payable": false,
      "stateMutability": "view",
      "type": "function"
    },
    {
      "constant": true,
      "inputs": [],
      "name": "TERMS_EXPIRY_TIME_SETTING",
      "outputs": [
        {
          "internalType": "bytes32",
          "name": "",
          "type": "bytes32"
        }
      ],
      "payable": false,
      "stateMutability": "view",
      "type": "function"
    },
    {
      "constant": false,
      "inputs": [
        {
          "internalType": "address",
          "name": "account",
          "type": "address"
        }
      ],
      "name": "addSigner",
      "outputs": [],
      "payable": false,
      "stateMutability": "nonpayable",
      "type": "function"
    },
    {
      "constant": true,
      "inputs": [],
      "name": "callerAddress",
      "outputs": [
        {
          "internalType": "address",
          "name": "",
          "type": "address"
        }
      ],
      "payable": false,
      "stateMutability": "view",
      "type": "function"
    },
    {
      "constant": true,
      "inputs": [
        {
          "internalType": "address",
          "name": "",
          "type": "address"
        },
        {
          "internalType": "address",
          "name": "",
          "type": "address"
        },
        {
          "internalType": "uint256",
          "name": "",
          "type": "uint256"
        }
      ],
      "name": "hasSubmitted",
      "outputs": [
        {
          "internalType": "bool",
          "name": "",
          "type": "bool"
        }
      ],
      "payable": false,
      "stateMutability": "view",
      "type": "function"
    },
    {
      "constant": false,
      "inputs": [],
      "name": "initialize",
      "outputs": [],
      "payable": false,
      "stateMutability": "nonpayable",
      "type": "function"
    },
    {
      "constant": false,
      "inputs": [
        {
          "internalType": "address",
          "name": "aCallerAddress",
          "type": "address"
        },
        {
          "internalType": "address",
          "name": "aSettingAddress",
          "type": "address"
        },
        {
          "internalType": "address",
          "name": "aMarketsAddress",
          "type": "address"
        }
      ],
      "name": "initialize",
      "outputs": [],
      "payable": false,
      "stateMutability": "nonpayable",
      "type": "function"
    },
    {
      "constant": false,
      "inputs": [
        {
          "internalType": "address",
          "name": "sender",
          "type": "address"
        }
      ],
      "name": "initialize",
      "outputs": [],
      "payable": false,
      "stateMutability": "nonpayable",
      "type": "function"
    },
    {
      "constant": true,
      "inputs": [],
      "name": "initialized",
      "outputs": [
        {
          "internalType": "bool",
          "name": "",
          "type": "bool"
        }
      ],
      "payable": false,
      "stateMutability": "view",
      "type": "function"
    },
    {
      "constant": true,
      "inputs": [
        {
          "internalType": "address",
          "name": "",
          "type": "address"
        },
        {
          "internalType": "uint256",
          "name": "",
          "type": "uint256"
        }
      ],
      "name": "interestSubmissions",
      "outputs": [
        {
          "internalType": "uint256",
          "name": "count",
          "type": "uint256"
        },
        {
          "internalType": "uint256",
          "name": "max",
          "type": "uint256"
        },
        {
          "internalType": "uint256",
          "name": "min",
          "type": "uint256"
        },
        {
          "internalType": "uint256",
          "name": "sum",
          "type": "uint256"
        }
      ],
      "payable": false,
      "stateMutability": "view",
      "type": "function"
    },
    {
      "constant": true,
      "inputs": [],
      "name": "isOwner",
      "outputs": [
        {
          "internalType": "bool",
          "name": "",
          "type": "bool"
        }
      ],
      "payable": false,
      "stateMutability": "view",
      "type": "function"
    },
    {
      "constant": true,
      "inputs": [
        {
          "internalType": "address",
          "name": "account",
          "type": "address"
        }
      ],
      "name": "isSigner",
      "outputs": [
        {
          "internalType": "bool",
          "name": "",
          "type": "bool"
        }
      ],
      "payable": false,
      "stateMutability": "view",
      "type": "function"
    },
    {
      "constant": true,
      "inputs": [],
      "name": "markets",
      "outputs": [
        {
          "internalType": "contract MarketsStateInterface",
          "name": "",
          "type": "address"
        }
      ],
      "payable": false,
      "stateMutability": "view",
      "type": "function"
    },
    {
      "constant": true,
      "inputs": [],
      "name": "owner",
      "outputs": [
        {
          "internalType": "address",
          "name": "",
          "type": "address"
        }
      ],
      "payable": false,
      "stateMutability": "view",
      "type": "function"
    },
    {
      "constant": false,
      "inputs": [
        {
          "internalType": "address",
          "name": "account",
          "type": "address"
        }
      ],
      "name": "removeSigner",
      "outputs": [],
      "payable": false,
      "stateMutability": "nonpayable",
      "type": "function"
    },
    {
      "constant": false,
      "inputs": [],
      "name": "renounceOwnership",
      "outputs": [],
      "payable": false,
      "stateMutability": "nonpayable",
      "type": "function"
    },
    {
      "constant": true,
      "inputs": [
        {
          "internalType": "address",
          "name": "",
          "type": "address"
        },
        {
          "internalType": "uint256",
          "name": "",
          "type": "uint256"
        }
      ],
      "name": "requestNonceTaken",
      "outputs": [
        {
          "internalType": "bool",
          "name": "",
          "type": "bool"
        }
      ],
      "payable": false,
      "stateMutability": "view",
      "type": "function"
    },
    {
      "constant": true,
      "inputs": [],
      "name": "settings",
      "outputs": [
        {
          "internalType": "contract SettingsInterface",
          "name": "",
          "type": "address"
        }
      ],
      "payable": false,
      "stateMutability": "view",
      "type": "function"
    },
    {
      "constant": true,
      "inputs": [
        {
          "internalType": "address",
          "name": "",
          "type": "address"
        },
        {
          "internalType": "uint256",
          "name": "",
          "type": "uint256"
        }
      ],
      "name": "signerNonceTaken",
      "outputs": [
        {
          "internalType": "bool",
          "name": "",
          "type": "bool"
        }
      ],
      "payable": false,
      "stateMutability": "view",
      "type": "function"
    },
    {
      "constant": false,
      "inputs": [
        {
          "internalType": "address",
          "name": "newOwner",
          "type": "address"
        }
      ],
      "name": "transferOwnership",
      "outputs": [],
      "payable": false,
      "stateMutability": "nonpayable",
      "type": "function"
    },
    {
      "constant": false,
      "inputs": [
        {
          "components": [
            {
              "internalType": "address",
              "name": "lender",
              "type": "address"
            },
            {
              "internalType": "address",
              "name": "consensusAddress",
              "type": "address"
            },
            {
              "internalType": "uint256",
              "name": "requestNonce",
              "type": "uint256"
            },
            {
              "internalType": "uint256",
              "name": "startTime",
              "type": "uint256"
            },
            {
              "internalType": "uint256",
              "name": "endTime",
              "type": "uint256"
            },
            {
              "internalType": "uint256",
              "name": "requestTime",
              "type": "uint256"
            }
          ],
          "internalType": "struct TellerCommon.InterestRequest",
          "name": "request",
          "type": "tuple"
        },
        {
          "components": [
            {
              "internalType": "address",
              "name": "signer",
              "type": "address"
            },
            {
              "internalType": "address",
              "name": "consensusAddress",
              "type": "address"
            },
            {
              "internalType": "uint256",
              "name": "responseTime",
              "type": "uint256"
            },
            {
              "internalType": "uint256",
              "name": "interest",
              "type": "uint256"
            },
            {
              "components": [
                {
                  "internalType": "uint256",
                  "name": "signerNonce",
                  "type": "uint256"
                },
                {
                  "internalType": "uint8",
                  "name": "v",
                  "type": "uint8"
                },
                {
                  "internalType": "bytes32",
                  "name": "r",
                  "type": "bytes32"
                },
                {
                  "internalType": "bytes32",
                  "name": "s",
                  "type": "bytes32"
                }
              ],
              "internalType": "struct TellerCommon.Signature",
              "name": "signature",
              "type": "tuple"
            }
          ],
          "internalType": "struct TellerCommon.InterestResponse[]",
          "name": "responses",
          "type": "tuple[]"
        }
      ],
      "name": "processRequest",
      "outputs": [
        {
          "internalType": "uint256",
          "name": "",
          "type": "uint256"
        }
      ],
      "payable": false,
      "stateMutability": "nonpayable",
      "type": "function"
    }
  ],
  "bytecode": "0x6080604052612392806100136000396000f3fe608060405234801561001057600080fd5b50600436106101a95760003560e01c80638da5cb5b116100f9578063e00a461511610097578063eb12d61e11610071578063eb12d61e1461030d578063f2fde38b14610320578063faa8aab114610333578063fb98d9e21461033b576101a9565b8063e00a4615146102f5578063e06174e4146102fd578063e3f33d0014610305576101a9565b8063c0c53b8b116100d3578063c0c53b8b146102bf578063c41dd8ce146102d2578063c4d66de8146102da578063cc44cadb146102ed576101a9565b80638da5cb5b1461028f5780638f32d59b146102a457806399ffe065146102ac576101a9565b80633ff591d91161016657806368fcdeb81161014057806368fcdeb814610259578063715018a61461026c5780637df73e27146102745780638129fc1c14610287576101a9565b80633ff591d91461021b57806365e8eb8e1461022357806367136b3514610246576101a9565b80630e316ab7146101ae5780631139087a146101c357806311880cc8146101e1578063158ef93e146101e95780633ac2a032146101fe5780633b98dfdb14610213575b600080fd5b6101c16101bc3660046118b1565b61034e565b005b6101cb610387565b6040516101d89190612098565b60405180910390f35b6101cb61039f565b6101f16103b4565b6040516101d8919061208a565b6102066103bd565b6040516101d891906120e4565b6101cb6103cc565b6101cb6103f0565b61023661023136600461195f565b61040a565b6040516101d8949392919061226b565b6101cb610254366004611999565b61043c565b6101f161026736600461195f565b610702565b6101c1610722565b6101f16102823660046118b1565b610790565b6101c16107a9565b61029761083c565b6040516101d89190611fab565b6101f161084b565b6101f16102ba36600461191c565b610871565b6101c16102cd3660046118cf565b610897565b6101cb61093f565b6101c16102e83660046118b1565b610956565b6101cb610a35565b6101cb610a4f565b610206610a65565b6101cb610a74565b6101c161031b3660046118b1565b610a8f565b6101c161032e3660046118b1565b610abc565b610297610ae9565b6101f161034936600461195f565b610af8565b61035661084b565b61037b5760405162461bcd60e51b8152600401610372906121b3565b60405180910390fd5b61038481610b18565b50565b704c6971756964617465457468507269636560781b81565b6d14d859995d1e525b9d195c9d985b60921b81565b60005460ff1690565b6067546001600160a01b031681565b7f526571756573744c6f616e5465726d73526174654c696d69740000000000000081565b7252657175697265645375626d697373696f6e7360681b81565b60a060209081526000928352604080842090915290825290208054600182015460028301546003909301549192909184565b6000805460ff1661045f5760405162461bcd60e51b815260040161037290612213565b609e546001600160a01b031633146104895760405162461bcd60e51b815260040161037290612203565b606654604051630134809560e51b81526001600160a01b039091169063269012a0906104cf907252657175697265645375626d697373696f6e7360681b90600401612098565b60206040518083038186803b1580156104e757600080fd5b505afa1580156104fb573d6000803e3d6000fd5b505050506040513d601f19601f8201168201806040525061051f9190810190611a2c565b82101561053e5760405162461bcd60e51b815260040161037290612233565b609f600061054f60208701876118b1565b6001600160a01b031681526020808201929092526040908101600090812087830135825290925290205460ff16156105995760405162461bcd60e51b815260040161037290612193565b6001609f60006105ac60208801886118b1565b6001600160a01b03168152602080820192909252604090810160009081208883013582529092528120805460ff1916921515929092179091556105fc6105f7368790038701876119ef565b610b60565b905060005b8381101561064c5761064461061b368890038801886119ef565b86868481811061062757fe5b9050610100020180360361063e9190810190611a0d565b84610bcc565b600101610601565b50600061069c60a08261066260208a018a6118b1565b6001600160a01b03166001600160a01b03168152602001908152602001600020600088608001358152602001908152602001600020610ca1565b90506106ab60208701876118b1565b6001600160a01b03167f3ae9cc3885aef787ea70c8cdfc77b61a78c7b546f8d22ea80fa0aeb7b0894b1487604001358860800135846040516106ef93929190612243565b60405180910390a29150505b9392505050565b609d60209081526000928352604080842090915290825290205460ff1681565b61072a61084b565b6107465760405162461bcd60e51b8152600401610372906121b3565b6068546040516000916001600160a01b0316907f8be0079c531659141344cd1fd0a4f28419497f9722a3daafe3b4186f6b6457e0908390a3606880546001600160a01b0319169055565b60006107a3609b8363ffffffff610d6d16565b92915050565b60005462010000900460ff16806107c357506107c3610db5565b806107d65750600054610100900460ff16155b6107f25760405162461bcd60e51b8152600401610372906121d3565b60005462010000900460ff16158015610822576000805461ff001962ff0000199091166201000017166101001790555b60016033558015610384576000805462ff00001916905550565b6068546001600160a01b031690565b6068546000906001600160a01b0316610862610dbb565b6001600160a01b031614905090565b609c60209081526000938452604080852082529284528284209052825290205460ff1681565b60005460ff16156108ba5760405162461bcd60e51b815260040161037290612223565b60408051808201909152601881527f4d5553545f50524f564944455f4c454e4445525f494e464f00000000000000006020820152610908906001600160a01b0385169063ffffffff610dbf16565b61091133610956565b61091b8282610dec565b5050609e80546001600160a01b0319166001600160a01b0392909216919091179055565b6f4d6178696d756d546f6c6572616e636560801b81565b60005462010000900460ff16806109705750610970610db5565b806109835750600054610100900460ff16155b61099f5760405162461bcd60e51b8152600401610372906121d3565b60005462010000900460ff161580156109cf576000805461ff001962ff0000199091166201000017166101001790555b606880546001600160a01b0319166001600160a01b0384811691909117918290556040519116906000907f8be0079c531659141344cd1fd0a4f28419497f9722a3daafe3b4186f6b6457e0908290a38015610a31576000805462ff0000191690555b5050565b7226b0bc34b6bab6a637b0b7223ab930ba34b7b760691b81565b6e5465726d7345787069727954696d6560881b81565b6066546001600160a01b031681565b730a4cae6e0dedce6ca8af0e0d2e4f298cadccee8d60631b81565b610a9761084b565b610ab35760405162461bcd60e51b8152600401610372906121b3565b61038481610f3d565b610ac461084b565b610ae05760405162461bcd60e51b8152600401610372906121b3565b61038481610f85565b609e546001600160a01b031681565b609f60209081526000928352604080842090915290825290205460ff1681565b610b29609b8263ffffffff61100716565b6040516001600160a01b038216907f3525e22824a8a7df2c9a6029941c824cf95b6447f1e13d5128fd3826d35afe8b90600090a250565b609e548151602083015160408401516060850151608086015160a08701516000966001600160a01b0316959493929190610b9861104f565b604051602001610baf989796959493929190611fb9565b604051602081830303815290604052805190602001209050919050565b6000610bd88383611053565b9050610bfc83600001518560000151866080015186604001518588608001516110a9565b606083015184516001600160a01b0316600090815260a060209081526040808320608089015184529091529020610c389163ffffffff61125016565b83600001516001600160a01b031683600001516001600160a01b03167f6f00cb8f849a2a1b231819b8145a2da4a16ffffe806e5e39787bc79ca276097c866040015187608001518760600151604051610c9393929190612243565b60405180910390a350505050565b606654604051630134809560e51b8152600091610d48916001600160a01b039091169063269012a090610ceb906f4d6178696d756d546f6c6572616e636560801b90600401612098565b60206040518083038186803b158015610d0357600080fd5b505afa158015610d17573d6000803e3d6000fd5b505050506040513d601f19601f82011682018060405250610d3b9190810190611a2c565b839063ffffffff6112b516565b610d645760405162461bcd60e51b815260040161037290612133565b6107a382611366565b60006001600160a01b038216610d955760405162461bcd60e51b8152600401610372906121c3565b506001600160a01b03166000908152602091909152604090205460ff1690565b303b1590565b3390565b610dc88261139f565b8190610de75760405162461bcd60e51b815260040161037291906120f2565b505050565b60005460ff1615610e0f5760405162461bcd60e51b815260040161037290612223565b60408051808201909152601981527f53455454494e47535f4d5553545f42455f50524f5649444544000000000000006020820152610e5d906001600160a01b0384169063ffffffff610dbf16565b610e6f826001600160a01b03166113ad565b610e8b5760405162461bcd60e51b815260040161037290612163565b60408051808201909152601881527f4d41524b4554535f4d5553545f42455f50524f564944454400000000000000006020820152610ed9906001600160a01b0383169063ffffffff610dbf16565b610eeb816001600160a01b03166113ad565b610f075760405162461bcd60e51b815260040161037290612153565b610f0f6113e9565b606680546001600160a01b039384166001600160a01b03199182161790915560678054929093169116179055565b610f4e609b8263ffffffff6113f816565b6040516001600160a01b038216907f47d1c22a25bb3a5d4e481b9b1e6944c2eade3181a0a20b495ed61d35b5323f2490600090a250565b6001600160a01b038116610fab5760405162461bcd60e51b815260040161037290612123565b6068546040516001600160a01b038084169216907f8be0079c531659141344cd1fd0a4f28419497f9722a3daafe3b4186f6b6457e090600090a3606880546001600160a01b0319166001600160a01b0392909216919091179055565b6110118282610d6d565b61102d5760405162461bcd60e51b815260040161037290612183565b6001600160a01b0316600090815260209190915260409020805460ff19169055565b4690565b600082602001518360400151846060015185608001516000015161107561104f565b8660405160200161108b96959493929190612030565b60405160208183030381529060405280519060200120905092915050565b6001600160a01b038087166000908152609c6020908152604080832093891683529281528282208783529052205460ff16156110f75760405162461bcd60e51b815260040161037290612113565b6001600160a01b038087166000908152609c602090815260408083208985168452825280832088845290915290819020805460ff191660011790556066549051630134809560e51b81526111d292919091169063269012a09061117590730a4cae6e0dedce6ca8af0e0d2e4f298cadccee8d60631b90600401612098565b60206040518083038186803b15801561118d57600080fd5b505afa1580156111a1573d6000803e3d6000fd5b505050506040513d601f19601f820116820180604052506111c59190810190611a2c565b429063ffffffff61144416565b8310156111f15760405162461bcd60e51b8152600401610372906121e3565b6111fc818388611486565b6112185760405162461bcd60e51b8152600401610372906121f3565b6001600160a01b039095166000908152609d602090815260408083209751835296905294909420805460ff1916600117905550505050565b808260010154101561126457600182018190555b808260020154118061127557508154155b1561128257600282018190555b6003820154611297908263ffffffff61157f16565b600383015581546112af90600163ffffffff61157f16565b90915550565b60006112c0836115a4565b156112cd575060006107a3565b60006112d884611366565b905060006112fe6127106112f2848763ffffffff6115b616565b9063ffffffff6115f016565b90506000611312838363ffffffff61144416565b9050808660020154101561132c57600093505050506107a3565b600061133e848463ffffffff61157f16565b905080876001015411156113595760009450505050506107a3565b5060019695505050505050565b6000611371826115a4565b6113975761139261138183611632565b60038401549063ffffffff6115f016565b6107a3565b506000919050565b6001600160a01b0316151590565b6000813f7fc5d2460186f7233c927e7db2dcc703c0e500b653ca82273b7bfad8045d85a4708181148015906113e157508115155b949350505050565b6000805460ff19166001179055565b6114028282610d6d565b1561141f5760405162461bcd60e51b815260040161037290612103565b6001600160a01b0316600090815260209190915260409020805460ff19166001179055565b60006106fb83836040518060400160405280601e81526020017f536166654d6174683a207375627472616374696f6e206f766572666c6f770000815250611636565b600061149182610790565b61149d575060006106fb565b6001600160a01b0382166000908152609d602090815260408083208751845290915290205460ff16156114e25760405162461bcd60e51b815260040161037290612173565b60006001846040516020016114f79190611f8b565b604051602081830303815290604052805190602001208660200151876040015188606001516040516000815260200160405260405161153994939291906120a6565b6020604051602081039080840390855afa15801561155b573d6000803e3d6000fd5b5050604051601f1901516001600160a01b0390811690851614925050509392505050565b6000828201838110156106fb5760405162461bcd60e51b815260040161037290612143565b60006115af82611632565b1592915050565b6000826115c5575060006107a3565b828202828482816115d257fe5b04146106fb5760405162461bcd60e51b8152600401610372906121a3565b60006106fb83836040518060400160405280601a81526020017f536166654d6174683a206469766973696f6e206279207a65726f000000000000815250611662565b5490565b6000818484111561165a5760405162461bcd60e51b815260040161037291906120f2565b505050900390565b600081836116835760405162461bcd60e51b815260040161037291906120f2565b50600083858161168f57fe5b0495945050505050565b80356107a381612329565b60008083601f8401126116b657600080fd5b50813567ffffffffffffffff8111156116ce57600080fd5b602083019150836101008202830111156116e757600080fd5b9250929050565b80356107a38161233d565b600060c0828403121561170b57600080fd5b50919050565b600060c0828403121561172357600080fd5b61172d60c0612286565b9050600061173b8484611699565b825250602061174c84848301611699565b6020830152506040611760848285016116ee565b6040830152506060611774848285016116ee565b6060830152506080611788848285016116ee565b60808301525060a061179c848285016116ee565b60a08301525092915050565b600061010082840312156117bb57600080fd5b6117c560a0612286565b905060006117d38484611699565b82525060206117e484848301611699565b60208301525060406117f8848285016116ee565b604083015250606061180c848285016116ee565b60608301525060806118208482850161182c565b60808301525092915050565b60006080828403121561183e57600080fd5b6118486080612286565b9050600061185684846116ee565b8252506020611867848483016118a6565b602083015250604061187b848285016116ee565b604083015250606061188f848285016116ee565b60608301525092915050565b80516107a38161233d565b80356107a381612346565b6000602082840312156118c357600080fd5b60006113e18484611699565b6000806000606084860312156118e457600080fd5b60006118f08686611699565b935050602061190186828701611699565b925050604061191286828701611699565b9150509250925092565b60008060006060848603121561193157600080fd5b600061193d8686611699565b935050602061194e86828701611699565b9250506040611912868287016116ee565b6000806040838503121561197257600080fd5b600061197e8585611699565b925050602061198f858286016116ee565b9150509250929050565b600080600060e084860312156119ae57600080fd5b60006119ba86866116f9565b93505060c084013567ffffffffffffffff8111156119d757600080fd5b6119e3868287016116a4565b92509250509250925092565b600060c08284031215611a0157600080fd5b60006113e18484611711565b60006101008284031215611a2057600080fd5b60006113e184846117a8565b600060208284031215611a3e57600080fd5b60006113e1848461189b565b611a53816122bf565b82525050565b611a53816122ca565b611a53816122cf565b611a53611a77826122cf565b6122cf565b611a53816122e4565b6000611a90826122ad565b611a9a81856122b1565b9350611aaa8185602086016122ef565b611ab38161231f565b9093019392505050565b6000611aca601f836122b1565b7f526f6c65733a206163636f756e7420616c72656164792068617320726f6c6500815260200192915050565b6000611b03601c836122ba565b7f19457468657265756d205369676e6564204d6573736167653a0a3332000000008152601c0192915050565b6000611b3c6018836122b1565b7f5349474e45525f414c52454144595f5355424d49545445440000000000000000815260200192915050565b6000611b756026836122b1565b7f4f776e61626c653a206e6577206f776e657220697320746865207a65726f206181526564647265737360d01b602082015260400192915050565b6000611bbd6014836122b1565b73149154d413d394d154d7d513d3d7d5905492515160621b815260200192915050565b6000611bed601b836122b1565b7f536166654d6174683a206164646974696f6e206f766572666c6f770000000000815260200192915050565b6000611c26601a836122b1565b7f4d41524b4554535f4d5553545f42455f415f434f4e5452414354000000000000815260200192915050565b6000611c5f601b836122b1565b7f53455454494e47535f4d5553545f42455f415f434f4e54524143540000000000815260200192915050565b6000611c986012836122b1565b7129a4a3a722a92fa727a721a2afaa20a5a2a760711b815260200192915050565b6000611cc66021836122b1565b7f526f6c65733a206163636f756e7420646f6573206e6f74206861766520726f6c8152606560f81b602082015260400192915050565b6000611d09601c836122b1565b7f494e5445524553545f524551554553545f4e4f4e43455f54414b454e00000000815260200192915050565b6000611d426021836122b1565b7f536166654d6174683a206d756c7469706c69636174696f6e206f766572666c6f8152607760f81b602082015260400192915050565b6000611d856020836122b1565b7f4f776e61626c653a2063616c6c6572206973206e6f7420746865206f776e6572815260200192915050565b6000611dbe6022836122b1565b7f526f6c65733a206163636f756e7420697320746865207a65726f206164647265815261737360f01b602082015260400192915050565b6000611e02602e836122b1565b7f436f6e747261637420696e7374616e63652068617320616c726561647920626581526d195b881a5b9a5d1a585b1a5e995960921b602082015260400192915050565b6000611e526010836122b1565b6f149154d413d394d157d156141254915160821b815260200192915050565b6000611e7e6011836122b1565b7014d251d3905515549157d2539590531251607a1b815260200192915050565b6000611eab6018836122b1565b7f53454e4445525f4841534e545f5045524d495353494f4e530000000000000000815260200192915050565b6000611ee46018836122b1565b7f434f4e54524143545f4e4f545f494e495449414c495a45440000000000000000815260200192915050565b6000611f1d601c836122b1565b7f434f4e54524143545f414c52454144595f494e495449414c495a454400000000815260200192915050565b6000611f56601f836122b1565b7f494e5445524553545f494e53554646494349454e545f524553504f4e53455300815260200192915050565b611a53816122de565b6000611f9682611af6565b9150611fa28284611a6b565b50602001919050565b602081016107a38284611a4a565b6101008101611fc8828b611a4a565b611fd5602083018a611a4a565b611fe26040830189611a4a565b611fef6060830188611a62565b611ffc6080830187611a62565b61200960a0830186611a62565b61201660c0830185611a62565b61202360e0830184611a62565b9998505050505050505050565b60c0810161203e8289611a4a565b61204b6020830188611a62565b6120586040830187611a62565b6120656060830186611a62565b6120726080830185611a62565b61207f60a0830184611a62565b979650505050505050565b602081016107a38284611a59565b602081016107a38284611a62565b608081016120b48287611a62565b6120c16020830186611f82565b6120ce6040830185611a62565b6120db6060830184611a62565b95945050505050565b602081016107a38284611a7c565b602080825281016106fb8184611a85565b602080825281016107a381611abd565b602080825281016107a381611b2f565b602080825281016107a381611b68565b602080825281016107a381611bb0565b602080825281016107a381611be0565b602080825281016107a381611c19565b602080825281016107a381611c52565b602080825281016107a381611c8b565b602080825281016107a381611cb9565b602080825281016107a381611cfc565b602080825281016107a381611d35565b602080825281016107a381611d78565b602080825281016107a381611db1565b602080825281016107a381611df5565b602080825281016107a381611e45565b602080825281016107a381611e71565b602080825281016107a381611e9e565b602080825281016107a381611ed7565b602080825281016107a381611f10565b602080825281016107a381611f49565b606081016122518286611a62565b61225e6020830185611a62565b6113e16040830184611a62565b608081016122798287611a62565b6120c16020830186611a62565b60405181810167ffffffffffffffff811182821017156122a557600080fd5b604052919050565b5190565b90815260200190565b919050565b60006107a3826122d2565b151590565b90565b6001600160a01b031690565b60ff1690565b60006107a3826122bf565b60005b8381101561230a5781810151838201526020016122f2565b83811115612319576000848401525b50505050565b601f01601f191690565b612332816122bf565b811461038457600080fd5b612332816122cf565b612332816122de56fea365627a7a723158208c9649475209bc41441e6c3969bb00594e2e7c88ace10d3645d764a1a47e2b266c6578706572696d656e74616cf564736f6c63430005110040",
  "source": "pragma solidity 0.5.17;\npragma experimental ABIEncoderV2;\n\n// Libraries\nimport \"../util/AddressLib.sol\";\n\n// Interfaces\nimport \"../interfaces/InterestConsensusInterface.sol\";\n\n// Contracts\nimport \"./Consensus.sol\";\n\n\n/**\n    @notice This contract processes the node responses to get consensus in the lender interest.\n\n    @author develop@teller.finance\n */\ncontract InterestConsensus is Consensus, InterestConsensusInterface {\n    using AddressLib for address;\n\n    /* State Variables */\n\n    // mapping of (lender, endTime) to the aggregated node submissions for their request\n    mapping(address => mapping(uint256 => NumbersList.Values)) public interestSubmissions;\n\n    /** Modifiers */\n\n    /* Constructor */\n\n    /* External Functions */\n    /**\n        @notice It processes all the node responses for a request in order to get a consensus value.\n        @param request the interest request sent by the lender.\n        @param responses all node responses to process.\n        @return the consensus interest.\n     */\n    function processRequest(\n        TellerCommon.InterestRequest calldata request,\n        TellerCommon.InterestResponse[] calldata responses\n    ) external isInitialized() isCaller() returns (uint256) {\n        require(\n            responses.length >=\n                settings.getPlatformSettingValue(REQUIRED_SUBMISSIONS_SETTING),\n            \"INTEREST_INSUFFICIENT_RESPONSES\"\n        );\n        require(\n            !requestNonceTaken[request.lender][request.requestNonce],\n            \"INTEREST_REQUEST_NONCE_TAKEN\"\n        );\n        requestNonceTaken[request.lender][request.requestNonce] = true;\n\n        bytes32 requestHash = _hashRequest(request);\n\n        for (uint256 i = 0; i < responses.length; i++) {\n            _processResponse(request, responses[i], requestHash);\n        }\n\n        uint256 interestAccrued = _getConsensus(\n            interestSubmissions[request.lender][request.endTime]\n        );\n\n        emit InterestAccepted(\n            request.lender,\n            request.requestNonce,\n            request.endTime,\n            interestAccrued\n        );\n\n        return interestAccrued;\n    }\n\n    /** Internal Functions */\n\n    /**\n        @notice It processes a node response.\n        @param request the interest request sent by the lender.\n        @param response a node response.\n     */\n    function _processResponse(\n        TellerCommon.InterestRequest memory request,\n        TellerCommon.InterestResponse memory response,\n        bytes32 requestHash\n    ) internal {\n        bytes32 responseHash = _hashResponse(response, requestHash);\n\n        _validateResponse(\n            response.signer,\n            request.lender,\n            request.endTime,\n            response.responseTime,\n            responseHash,\n            response.signature\n        );\n\n        interestSubmissions[request.lender][request.endTime].addValue(response.interest);\n\n        emit InterestSubmitted(\n            response.signer,\n            request.lender,\n            request.requestNonce,\n            request.endTime,\n            response.interest\n        );\n    }\n\n    /**\n        @notice It creates a hash based on a node response and lender request.\n        @param response a node response.\n        @param requestHash a hash value that represents the lender request.\n        @return a hash value.\n     */\n    function _hashResponse(\n        TellerCommon.InterestResponse memory response,\n        bytes32 requestHash\n    ) internal view returns (bytes32) {\n        return\n            keccak256(\n                abi.encode(\n                    response.consensusAddress,\n                    response.responseTime,\n                    response.interest,\n                    response.signature.signerNonce,\n                    _getChainId(),\n                    requestHash\n                )\n            );\n    }\n\n    /**\n        @notice It creates a hash value based on the lender request.\n        @param request the interest request sent by the lender.\n        @return a hash value.\n     */\n    function _hashRequest(TellerCommon.InterestRequest memory request)\n        internal\n        view\n        returns (bytes32)\n    {\n        return\n            keccak256(\n                abi.encode(\n                    callerAddress,\n                    request.lender,\n                    request.consensusAddress,\n                    request.requestNonce,\n                    request.startTime,\n                    request.endTime,\n                    request.requestTime,\n                    _getChainId()\n                )\n            );\n    }\n}\n",
  "sourcePath": "/Users/guillesalazar/Repos/ZeroCollateral/smart-contracts-v1/contracts/base/InterestConsensus.sol",
  "compiler": {
    "name": "solc",
    "version": "0.5.17+commit.d19bba13.Emscripten.clang"
  },
  "schemaVersion": "3.2.0",
  "updatedAt": "2020-08-15T22:31:55.077Z",
  "devdoc": {
    "author": "develop@teller.finance",
    "methods": {
      "addSigner(address)": {
        "details": "The sender must be the owner.It throws a require error if the sender is not the owner.",
        "params": {
          "account": "address to add."
        }
      },
      "initialize(address)": {
        "details": "Initializes the contract setting the deployer as the initial owner."
      },
      "initialize(address,address,address)": {
        "params": {
          "aCallerAddress": "the contract that will call it.",
          "aMarketsAddress": "the markets state address.",
          "aSettingAddress": "the settings contract address."
        }
      },
      "initialized()": {
        "return": "true if contract is initialized. Otherwise it returns false."
      },
      "isOwner()": {
        "details": "Returns true if the caller is the current owner."
      },
      "isSigner(address)": {
        "params": {
          "account": "address to test."
        },
        "return": "true if account is a signer. Otherwise it returns false."
      },
      "owner()": {
        "details": "Returns the address of the current owner."
      },
      "processRequest((address,address,uint256,uint256,uint256,uint256),(address,address,uint256,uint256,(uint256,uint8,bytes32,bytes32))[])": {
        "params": {
          "request": "the interest request sent by the lender.",
          "responses": "all node responses to process."
        },
        "return": "the consensus interest."
      },
      "removeSigner(address)": {
        "details": "The sender must be the owner.It throws a require error if the sender is not the owner.",
        "params": {
          "account": "address to remove."
        }
      },
      "renounceOwnership()": {
        "details": "Leaves the contract without owner. It will not be possible to call `onlyOwner` functions anymore. Can only be called by the current owner.     * > Note: Renouncing ownership will leave the contract without an owner, thereby removing any functionality that is only available to the owner."
      },
      "transferOwnership(address)": {
        "details": "Transfers ownership of the contract to a new account (`newOwner`). Can only be called by the current owner."
      }
    }
  },
  "userdoc": {
    "methods": {
      "addSigner(address)": {
        "notice": "It adds a new account as a signer."
      },
      "initialize(address,address,address)": {
        "notice": "It initializes this contract setting the parameters."
      },
      "initialized()": {
        "notice": "Gets if the contract is initialized."
      },
      "isSigner(address)": {
        "notice": "Gets whether an account address is a signer or not."
      },
      "processRequest((address,address,uint256,uint256,uint256,uint256),(address,address,uint256,uint256,(uint256,uint8,bytes32,bytes32))[])": {
        "notice": "It processes all the node responses for a request in order to get a consensus value."
      },
      "removeSigner(address)": {
        "notice": "It removes an account as signer."
      }
    },
    "notice": "This contract processes the node responses to get consensus in the lender interest."
  }
}