{
  "contractName": "LoanTermsConsensus",
  "abi": [
    {
      "anonymous": false,
      "inputs": [
        {
          "indexed": true,
          "internalType": "address",
          "name": "previousOwner",
          "type": "address"
        },
        {
          "indexed": true,
          "internalType": "address",
          "name": "newOwner",
          "type": "address"
        }
      ],
      "name": "OwnershipTransferred",
      "type": "event"
    },
    {
      "anonymous": false,
      "inputs": [
        {
          "indexed": true,
          "internalType": "address",
          "name": "account",
          "type": "address"
        }
      ],
      "name": "SignerAdded",
      "type": "event"
    },
    {
      "anonymous": false,
      "inputs": [
        {
          "indexed": true,
          "internalType": "address",
          "name": "account",
          "type": "address"
        }
      ],
      "name": "SignerRemoved",
      "type": "event"
    },
    {
      "anonymous": false,
      "inputs": [
        {
          "indexed": true,
          "internalType": "address",
          "name": "borrower",
          "type": "address"
        },
        {
          "indexed": true,
          "internalType": "uint256",
          "name": "requestNonce",
          "type": "uint256"
        },
        {
          "indexed": false,
          "internalType": "uint256",
          "name": "interestRate",
          "type": "uint256"
        },
        {
          "indexed": false,
          "internalType": "uint256",
          "name": "collateralRatio",
          "type": "uint256"
        },
        {
          "indexed": false,
          "internalType": "uint256",
          "name": "maxLoanAmount",
          "type": "uint256"
        }
      ],
      "name": "TermsAccepted",
      "type": "event"
    },
    {
      "anonymous": false,
      "inputs": [
        {
          "indexed": true,
          "internalType": "address",
          "name": "signer",
          "type": "address"
        },
        {
          "indexed": true,
          "internalType": "address",
          "name": "borrower",
          "type": "address"
        },
        {
          "indexed": true,
          "internalType": "uint256",
          "name": "requestNonce",
          "type": "uint256"
        },
        {
          "indexed": false,
          "internalType": "uint256",
          "name": "signerNonce",
          "type": "uint256"
        },
        {
          "indexed": false,
          "internalType": "uint256",
          "name": "interestRate",
          "type": "uint256"
        },
        {
          "indexed": false,
          "internalType": "uint256",
          "name": "collateralRatio",
          "type": "uint256"
        },
        {
          "indexed": false,
          "internalType": "uint256",
          "name": "maxLoanAmount",
          "type": "uint256"
        }
      ],
      "name": "TermsSubmitted",
      "type": "event"
    },
    {
      "constant": true,
      "inputs": [],
      "name": "_signerCount",
      "outputs": [
        {
          "internalType": "uint256",
          "name": "",
          "type": "uint256"
        }
      ],
      "payable": false,
      "stateMutability": "view",
      "type": "function"
    },
    {
      "constant": false,
      "inputs": [
        {
          "internalType": "address",
          "name": "account",
          "type": "address"
        }
      ],
      "name": "addSigner",
      "outputs": [],
      "payable": false,
      "stateMutability": "nonpayable",
      "type": "function"
    },
    {
      "constant": false,
      "inputs": [
        {
          "internalType": "address[]",
          "name": "accounts",
          "type": "address[]"
        }
      ],
      "name": "addSigners",
      "outputs": [],
      "payable": false,
      "stateMutability": "nonpayable",
      "type": "function"
    },
    {
      "constant": true,
      "inputs": [
        {
          "internalType": "address",
          "name": "",
          "type": "address"
        }
      ],
      "name": "borrowerToLastLoanTermRequest",
      "outputs": [
        {
          "internalType": "uint256",
          "name": "",
          "type": "uint256"
        }
      ],
      "payable": false,
      "stateMutability": "view",
      "type": "function"
    },
    {
      "constant": true,
      "inputs": [],
      "name": "callerAddress",
      "outputs": [
        {
          "internalType": "address",
          "name": "",
          "type": "address"
        }
      ],
      "payable": false,
      "stateMutability": "view",
      "type": "function"
    },
    {
      "constant": true,
      "inputs": [
        {
          "internalType": "address",
          "name": "",
          "type": "address"
        },
        {
          "internalType": "address",
          "name": "",
          "type": "address"
        },
        {
          "internalType": "uint256",
          "name": "",
          "type": "uint256"
        }
      ],
      "name": "hasSubmitted",
      "outputs": [
        {
          "internalType": "bool",
          "name": "",
          "type": "bool"
        }
      ],
      "payable": false,
      "stateMutability": "view",
      "type": "function"
    },
    {
      "constant": false,
      "inputs": [],
      "name": "initialize",
      "outputs": [],
      "payable": false,
      "stateMutability": "nonpayable",
      "type": "function"
    },
    {
      "constant": false,
      "inputs": [
        {
          "internalType": "address",
          "name": "owner",
          "type": "address"
        },
        {
          "internalType": "address",
          "name": "aCallerAddress",
          "type": "address"
        },
        {
          "internalType": "address",
          "name": "aSettingAddress",
          "type": "address"
        }
      ],
      "name": "initialize",
      "outputs": [],
      "payable": false,
      "stateMutability": "nonpayable",
      "type": "function"
    },
    {
      "constant": false,
      "inputs": [
        {
          "internalType": "address",
          "name": "sender",
          "type": "address"
        }
      ],
      "name": "initialize",
      "outputs": [],
      "payable": false,
      "stateMutability": "nonpayable",
      "type": "function"
    },
    {
      "constant": true,
      "inputs": [],
      "name": "initialized",
      "outputs": [
        {
          "internalType": "bool",
          "name": "value",
          "type": "bool"
        }
      ],
      "payable": false,
      "stateMutability": "view",
      "type": "function"
    },
    {
      "constant": true,
      "inputs": [],
      "name": "isOwner",
      "outputs": [
        {
          "internalType": "bool",
          "name": "",
          "type": "bool"
        }
      ],
      "payable": false,
      "stateMutability": "view",
      "type": "function"
    },
    {
      "constant": true,
      "inputs": [
        {
          "internalType": "address",
          "name": "account",
          "type": "address"
        }
      ],
      "name": "isSigner",
      "outputs": [
        {
          "internalType": "bool",
          "name": "",
          "type": "bool"
        }
      ],
      "payable": false,
      "stateMutability": "view",
      "type": "function"
    },
    {
      "constant": true,
      "inputs": [],
      "name": "owner",
      "outputs": [
        {
          "internalType": "address",
          "name": "",
          "type": "address"
        }
      ],
      "payable": false,
      "stateMutability": "view",
      "type": "function"
    },
    {
      "constant": false,
      "inputs": [
        {
          "internalType": "address",
          "name": "account",
          "type": "address"
        }
      ],
      "name": "removeSigner",
      "outputs": [],
      "payable": false,
      "stateMutability": "nonpayable",
      "type": "function"
    },
    {
      "constant": false,
      "inputs": [],
      "name": "renounceOwnership",
      "outputs": [],
      "payable": false,
      "stateMutability": "nonpayable",
      "type": "function"
    },
    {
      "constant": true,
      "inputs": [
        {
          "internalType": "address",
          "name": "",
          "type": "address"
        },
        {
          "internalType": "uint256",
          "name": "",
          "type": "uint256"
        }
      ],
      "name": "requestNonceTaken",
      "outputs": [
        {
          "internalType": "bool",
          "name": "",
          "type": "bool"
        }
      ],
      "payable": false,
      "stateMutability": "view",
      "type": "function"
    },
    {
      "constant": true,
      "inputs": [],
      "name": "settings",
      "outputs": [
        {
          "internalType": "contract SettingsInterface",
          "name": "",
          "type": "address"
        }
      ],
      "payable": false,
      "stateMutability": "view",
      "type": "function"
    },
    {
      "constant": true,
      "inputs": [
        {
          "internalType": "address",
          "name": "",
          "type": "address"
        },
        {
          "internalType": "uint256",
          "name": "",
          "type": "uint256"
        }
      ],
      "name": "signerNonceTaken",
      "outputs": [
        {
          "internalType": "bool",
          "name": "",
          "type": "bool"
        }
      ],
      "payable": false,
      "stateMutability": "view",
      "type": "function"
    },
    {
      "constant": true,
      "inputs": [
        {
          "internalType": "address",
          "name": "",
          "type": "address"
        },
        {
          "internalType": "uint256",
          "name": "",
          "type": "uint256"
        }
      ],
      "name": "termSubmissions",
      "outputs": [
        {
          "components": [
            {
              "internalType": "uint256",
              "name": "count",
              "type": "uint256"
            },
            {
              "internalType": "uint256",
              "name": "max",
              "type": "uint256"
            },
            {
              "internalType": "uint256",
              "name": "min",
              "type": "uint256"
            },
            {
              "internalType": "uint256",
              "name": "sum",
              "type": "uint256"
            }
          ],
          "internalType": "struct NumbersList.Values",
          "name": "interestRate",
          "type": "tuple"
        },
        {
          "components": [
            {
              "internalType": "uint256",
              "name": "count",
              "type": "uint256"
            },
            {
              "internalType": "uint256",
              "name": "max",
              "type": "uint256"
            },
            {
              "internalType": "uint256",
              "name": "min",
              "type": "uint256"
            },
            {
              "internalType": "uint256",
              "name": "sum",
              "type": "uint256"
            }
          ],
          "internalType": "struct NumbersList.Values",
          "name": "collateralRatio",
          "type": "tuple"
        },
        {
          "components": [
            {
              "internalType": "uint256",
              "name": "count",
              "type": "uint256"
            },
            {
              "internalType": "uint256",
              "name": "max",
              "type": "uint256"
            },
            {
              "internalType": "uint256",
              "name": "min",
              "type": "uint256"
            },
            {
              "internalType": "uint256",
              "name": "sum",
              "type": "uint256"
            }
          ],
          "internalType": "struct NumbersList.Values",
          "name": "maxLoanAmount",
          "type": "tuple"
        }
      ],
      "payable": false,
      "stateMutability": "view",
      "type": "function"
    },
    {
      "constant": false,
      "inputs": [
        {
          "internalType": "address",
          "name": "newOwner",
          "type": "address"
        }
      ],
      "name": "transferOwnership",
      "outputs": [],
      "payable": false,
      "stateMutability": "nonpayable",
      "type": "function"
    },
    {
      "constant": false,
      "inputs": [
        {
          "components": [
            {
              "internalType": "address payable",
              "name": "borrower",
              "type": "address"
            },
            {
              "internalType": "address",
              "name": "recipient",
              "type": "address"
            },
            {
              "internalType": "address",
              "name": "consensusAddress",
              "type": "address"
            },
            {
              "internalType": "uint256",
              "name": "requestNonce",
              "type": "uint256"
            },
            {
              "internalType": "uint256",
              "name": "amount",
              "type": "uint256"
            },
            {
              "internalType": "uint256",
              "name": "duration",
              "type": "uint256"
            },
            {
              "internalType": "uint256",
              "name": "requestTime",
              "type": "uint256"
            }
          ],
          "internalType": "struct TellerCommon.LoanRequest",
          "name": "request",
          "type": "tuple"
        },
        {
          "components": [
            {
              "internalType": "address",
              "name": "signer",
              "type": "address"
            },
            {
              "internalType": "address",
              "name": "consensusAddress",
              "type": "address"
            },
            {
              "internalType": "uint256",
              "name": "responseTime",
              "type": "uint256"
            },
            {
              "internalType": "uint256",
              "name": "interestRate",
              "type": "uint256"
            },
            {
              "internalType": "uint256",
              "name": "collateralRatio",
              "type": "uint256"
            },
            {
              "internalType": "uint256",
              "name": "maxLoanAmount",
              "type": "uint256"
            },
            {
              "components": [
                {
                  "internalType": "uint256",
                  "name": "signerNonce",
                  "type": "uint256"
                },
                {
                  "internalType": "uint8",
                  "name": "v",
                  "type": "uint8"
                },
                {
                  "internalType": "bytes32",
                  "name": "r",
                  "type": "bytes32"
                },
                {
                  "internalType": "bytes32",
                  "name": "s",
                  "type": "bytes32"
                }
              ],
              "internalType": "struct TellerCommon.Signature",
              "name": "signature",
              "type": "tuple"
            }
          ],
          "internalType": "struct TellerCommon.LoanResponse[]",
          "name": "responses",
          "type": "tuple[]"
        }
      ],
      "name": "processRequest",
      "outputs": [
        {
          "internalType": "uint256",
          "name": "interestRate",
          "type": "uint256"
        },
        {
          "internalType": "uint256",
          "name": "collateralRatio",
          "type": "uint256"
        },
        {
          "internalType": "uint256",
          "name": "maxLoanAmount",
          "type": "uint256"
        }
      ],
      "payable": false,
      "stateMutability": "nonpayable",
      "type": "function"
    }
  ],
  "bytecode": "0x6080604052612e91806100136000396000f3fe608060405234801561001057600080fd5b50600436106101375760003560e01c80638f32d59b116100b8578063e06174e41161007c578063e06174e414610267578063e8906a2d1461027c578063eb12d61e1461028f578063f2fde38b146102a2578063faa8aab1146102b5578063fb98d9e2146102bd57610137565b80638f32d59b1461021357806399ffe0651461021b5780639f24a12d1461022e578063c0c53b8b14610241578063c4d66de81461025457610137565b806368fcdeb8116100ff57806368fcdeb8146101c8578063715018a6146101db5780637df73e27146101e35780638129fc1c146101f65780638da5cb5b146101fe57610137565b8063064e5d491461013c5780630e316ab714610167578063158ef93e1461017c5780632aac635e1461019157806350f1dedc146101b3575b600080fd5b61014f61014a3660046121ca565b6102d0565b60405161015e93929190612d13565b60405180910390f35b61017a610175366004612071565b610773565b005b6101846107a3565b60405161015e9190612ae9565b6101a461019f36600461211f565b6107c5565b60405161015e93929190612ce9565b6101bb61086e565b60405161015e9190612af7565b6101846101d636600461211f565b610874565b61017a610894565b6101846101f1366004612071565b610902565b61017a61091b565b6102066109a2565b60405161015e91906129de565b6101846109b1565b6101846102293660046120dc565b6109d7565b6101bb61023c366004612071565b6109fd565b61017a61024f36600461208f565b610a0f565b61017a610262366004612071565b610a98565b61026f610b6b565b60405161015e9190612b3a565b61017a61028a366004612159565b610b7a565b61017a61029d366004612071565b610c02565b61017a6102b0366004612071565b610c2f565b610206610c5c565b6101846102cb36600461211f565b610c6b565b60008060006102dd6107a3565b6103025760405162461bcd60e51b81526004016102f990612cc9565b60405180910390fd5b3361030c81610c8b565b6103285760405162461bcd60e51b81526004016102f990612cb9565b846000610333610c9f565b6001600160a01b0316631362fee7610349610c9f565b6001600160a01b031663d86d744e6040518163ffffffff1660e01b815260040160206040518083038186803b15801561038157600080fd5b505afa158015610395573d6000803e3d6000fd5b505050506040513d601f19601f820116820180604052506103b991908101906121ac565b6001600160a01b031663770f6c746040518163ffffffff1660e01b815260040160206040518083038186803b1580156103f157600080fd5b505afa158015610405573d6000803e3d6000fd5b505050506040513d601f19601f82011682018060405250610429919081019061218e565b6040518263ffffffff1660e01b81526004016104459190612af7565b60806040518083038186803b15801561045d57600080fd5b505afa158015610471573d6000803e3d6000fd5b505050506040513d601f19601f82011682018060405250610495919081019061225e565b51609a5490915081906104af90849063ffffffff610cc416565b10156104cd5760405162461bcd60e51b81526004016102f990612bf9565b6104e46104df368b90038b018b612221565b610cf5565b609e60006104f560208c018c612071565b6001600160a01b031681526020808201929092526040908101600090812060608d0135825290925290205460ff16156105405760405162461bcd60e51b81526004016102f990612b89565b6001609e600061055360208d018d612071565b6001600160a01b031681526020808201929092526040908101600090812060608e013582529092528120805460ff1916921515929092179091556105a461059f368c90038c018c612221565b610ed1565b905060005b888110156105f4576105ec6105c3368d90038d018d612221565b8b8b848181106105cf57fe5b905061014002018036036105e6919081019061223f565b84610f44565b6001016105a9565b50610638609f600061060960208e018e612071565b6001600160a01b031681526020808201929092526040908101600090812060608f0135825290925290206110ab565b965061068b609f600061064e60208e018e612071565b6001600160a01b03166001600160a01b0316815260200190815260200160002060008c6060013581526020019081526020016000206004016110ab565b95506106de609f60006106a160208e018e612071565b6001600160a01b03166001600160a01b0316815260200190815260200160002060008c6060013581526020019081526020016000206008016110ab565b94504260a060006106f260208e018e612071565b6001600160a01b031681526020808201929092526040016000209190915560608b013590610722908c018c612071565b6001600160a01b03167f658dfc9759b55173ea96c7bd8d4ad2c3e3804d28d83d2e1a25569a2fecb6720889898960405161075e93929190612d13565b60405180910390a35050505093509350939050565b61077b6109b1565b6107975760405162461bcd60e51b81526004016102f990612c69565b6107a08161124c565b50565b60008060016040516107b4906129a8565b604051908190039020035492915050565b609f60209081526000928352604080842082529183529181902081516080808201845282548252600183015482860152600283015482850152600383015460608084019190915284518083018652600485015481526005850154818801526006850154818701526007850154818301528551928301865260088501548352600985015496830196909652600a84015494820194909452600b909201549282019290925290919083565b609a5481565b609c60209081526000928352604080842090915290825290205460ff1681565b61089c6109b1565b6108b85760405162461bcd60e51b81526004016102f990612c69565b6066546040516000916001600160a01b0316907f8be0079c531659141344cd1fd0a4f28419497f9722a3daafe3b4186f6b6457e0908390a3606680546001600160a01b0319169055565b600061091560998363ffffffff61129e16565b92915050565b600054610100900460ff168061093457506109346112e6565b80610942575060005460ff16155b61095e5760405162461bcd60e51b81526004016102f990612c89565b600054610100900460ff16158015610989576000805460ff1961ff0019909116610100171660011790555b600160335580156107a0576000805461ff001916905550565b6066546001600160a01b031690565b6066546000906001600160a01b03166109c86112ec565b6001600160a01b031614905090565b609b60209081526000938452604080852082529284528284209052825290205460ff1681565b60a06020526000908152604090205481565b610a176107a3565b15610a345760405162461bcd60e51b81526004016102f990612cd9565b610a46826001600160a01b03166112f0565b610a625760405162461bcd60e51b81526004016102f990612c09565b610a6b83610a98565b610a748161132c565b50609d80546001600160a01b0319166001600160a01b039290921691909117905550565b600054610100900460ff1680610ab15750610ab16112e6565b80610abf575060005460ff16155b610adb5760405162461bcd60e51b81526004016102f990612c89565b600054610100900460ff16158015610b06576000805460ff1961ff0019909116610100171660011790555b606680546001600160a01b0319166001600160a01b0384811691909117918290556040519116906000907f8be0079c531659141344cd1fd0a4f28419497f9722a3daafe3b4186f6b6457e0908290a38015610b67576000805461ff00191690555b5050565b6000610b75610c9f565b905090565b610b826109b1565b610b9e5760405162461bcd60e51b81526004016102f990612c69565b6000815111610bbf5760405162461bcd60e51b81526004016102f990612b79565b60005b8151811015610b67576000828281518110610bd957fe5b60200260200101519050610bec81610902565b610bf957610bf9816113b0565b50600101610bc2565b610c0a6109b1565b610c265760405162461bcd60e51b81526004016102f990612c69565b6107a0816113b0565b610c376109b1565b610c535760405162461bcd60e51b81526004016102f990612c69565b6107a081611401565b609d546001600160a01b031681565b609e60209081526000928352604080842090915290825290205460ff1681565b609d546001600160a01b0391821691161490565b60008060006001604051610cb2906129d3565b60405190819003902003549250505090565b6000610cee82610ce2610cd5611483565b869063ffffffff61148916565b9063ffffffff6114c316565b9392505050565b80516001600160a01b0316600090815260a06020526040902054610d18576107a0565b6000610d22610c9f565b6001600160a01b031663269012a0610d38610c9f565b6001600160a01b031663d86d744e6040518163ffffffff1660e01b815260040160206040518083038186803b158015610d7057600080fd5b505afa158015610d84573d6000803e3d6000fd5b505050506040513d601f19601f82011682018060405250610da891908101906121ac565b6001600160a01b0316633b98dfdb6040518163ffffffff1660e01b815260040160206040518083038186803b158015610de057600080fd5b505afa158015610df4573d6000803e3d6000fd5b505050506040513d601f19601f82011682018060405250610e18919081019061218e565b6040518263ffffffff1660e01b8152600401610e349190612af7565b60206040518083038186803b158015610e4c57600080fd5b505afa158015610e60573d6000803e3d6000fd5b505050506040513d601f19601f82011682018060405250610e84919081019061218e565b82516001600160a01b0316600090815260a060205260409020549091504290610eb3908363ffffffff61150516565b1115610b675760405162461bcd60e51b81526004016102f990612c29565b609d548151602083015160408401516060850151608086015160a087015160c08801516000976001600160a01b031696959493929190610f0f61152a565b604051602001610f27999897969594939291906129ec565b604051602081830303815290604052805190602001209050919050565b6000610f50838361152e565b835185516060870151604087015160c0880151949550610f71948690611590565b60608084015185516001600160a01b03166000908152609f6020908152604080832094890151835293905291909120610faf9163ffffffff61180e16565b608083015184516001600160a01b03166000908152609f60209081526040808320606089015184529091529020610ff19160049091019063ffffffff61180e16565b60a083015184516001600160a01b03166000908152609f602090815260408083206060890151845290915290206110339160089091019063ffffffff61180e16565b836060015184600001516001600160a01b031684600001516001600160a01b03167fc218be06ad61544d4438d7c22df24c5fd2e6e70eff2b9bd06771b90432bb21258660c0015160000151876060015188608001518960a0015160405161109d9493929190612d3b565b60405180910390a450505050565b60006112276110b8610c9f565b6001600160a01b031663269012a06110ce610c9f565b6001600160a01b031663d86d744e6040518163ffffffff1660e01b815260040160206040518083038186803b15801561110657600080fd5b505afa15801561111a573d6000803e3d6000fd5b505050506040513d601f19601f8201168201806040525061113e91908101906121ac565b6001600160a01b031663c41dd8ce6040518163ffffffff1660e01b815260040160206040518083038186803b15801561117657600080fd5b505afa15801561118a573d6000803e3d6000fd5b505050506040513d601f19601f820116820180604052506111ae919081019061218e565b6040518263ffffffff1660e01b81526004016111ca9190612af7565b60206040518083038186803b1580156111e257600080fd5b505afa1580156111f6573d6000803e3d6000fd5b505050506040513d601f19601f8201168201806040525061121a919081019061218e565b839063ffffffff61187316565b6112435760405162461bcd60e51b81526004016102f990612bb9565b61091582611912565b61125d60998263ffffffff61194b16565b609a80546000190190556040516001600160a01b038216907f3525e22824a8a7df2c9a6029941c824cf95b6447f1e13d5128fd3826d35afe8b90600090a250565b60006001600160a01b0382166112c65760405162461bcd60e51b81526004016102f990612c79565b506001600160a01b03166000908152602091909152604090205460ff1690565b303b1590565b3390565b6000813f7fc5d2460186f7233c927e7db2dcc703c0e500b653ca82273b7bfad8045d85a47081811480159061132457508115155b949350505050565b6113346107a3565b156113515760405162461bcd60e51b81526004016102f990612cd9565b60408051808201909152601981527f53455454494e47535f4d5553545f42455f50524f564944454400000000000000602082015261139f906001600160a01b0383169063ffffffff61199316565b6113a76119c0565b6107a0816119e2565b6113c160998263ffffffff611a5416565b609a805460010190556040516001600160a01b038216907f47d1c22a25bb3a5d4e481b9b1e6944c2eade3181a0a20b495ed61d35b5323f2490600090a250565b6001600160a01b0381166114275760405162461bcd60e51b81526004016102f990612ba9565b6066546040516001600160a01b038084169216907f8be0079c531659141344cd1fd0a4f28419497f9722a3daafe3b4186f6b6457e090600090a3606680546001600160a01b0319166001600160a01b0392909216919091179055565b61271090565b60008261149857506000610915565b828202828482816114a557fe5b0414610cee5760405162461bcd60e51b81526004016102f990612c59565b6000610cee83836040518060400160405280601a81526020017f536166654d6174683a206469766973696f6e206279207a65726f000000000000815250611aa0565b600082820183811015610cee5760405162461bcd60e51b81526004016102f990612bc9565b4690565b600082602001518360400151846060015185608001518660a001518760c001516000015161155a61152a565b88604051602001611572989796959493929190612a72565b60405160208183030381529060405280519060200120905092915050565b6001600160a01b038087166000908152609b6020908152604080832093891683529281528282208783529052205460ff16156115de5760405162461bcd60e51b81526004016102f990612b99565b6001600160a01b038087166000908152609b602090815260408083209389168352928152828220878352905220805460ff19166001179055611790611621610c9f565b6001600160a01b031663269012a0611637610c9f565b6001600160a01b031663d86d744e6040518163ffffffff1660e01b815260040160206040518083038186803b15801561166f57600080fd5b505afa158015611683573d6000803e3d6000fd5b505050506040513d601f19601f820116820180604052506116a791908101906121ac565b6001600160a01b031663e3f33d006040518163ffffffff1660e01b815260040160206040518083038186803b1580156116df57600080fd5b505afa1580156116f3573d6000803e3d6000fd5b505050506040513d601f19601f82011682018060405250611717919081019061218e565b6040518263ffffffff1660e01b81526004016117339190612af7565b60206040518083038186803b15801561174b57600080fd5b505afa15801561175f573d6000803e3d6000fd5b505050506040513d601f19601f82011682018060405250611783919081019061218e565b429063ffffffff611ad716565b8310156117af5760405162461bcd60e51b81526004016102f990612c99565b6117ba818388611b19565b6117d65760405162461bcd60e51b81526004016102f990612ca9565b6001600160a01b039095166000908152609c602090815260408083209751835296905294909420805460ff1916600117905550505050565b808260010154101561182257600182018190555b808260020154118061183357508154155b1561184057600282018190555b6003820154611855908263ffffffff61150516565b6003830155815461186d90600163ffffffff61150516565b90915550565b600061187e83611bce565b1561188b57506000610915565b600061189684611912565b905060006118aa828563ffffffff611be016565b905060006118be838363ffffffff611ad716565b905080866002015410156118d85760009350505050610915565b60006118ea848463ffffffff61150516565b90508087600101541115611905576000945050505050610915565b5060019695505050505050565b600061191d82611bce565b6119435761193e61192d83611bfd565b60038401549063ffffffff6114c316565b610915565b506000919050565b611955828261129e565b6119715760405162461bcd60e51b81526004016102f990612c39565b6001600160a01b0316600090815260209190915260409020805460ff19169055565b61199c82611c01565b81906119bb5760405162461bcd60e51b81526004016102f99190612b48565b505050565b600060016040516119d0906129a8565b60405190819003902060019190035550565b6119fb6119ed610c9f565b6001600160a01b0316611c01565b15611a05576107a0565b611a17816001600160a01b03166112f0565b611a335760405162461bcd60e51b81526004016102f990612bd9565b60006001604051611a43906129d3565b604051908190039020038290555050565b611a5e828261129e565b15611a7b5760405162461bcd60e51b81526004016102f990612b69565b6001600160a01b0316600090815260209190915260409020805460ff19166001179055565b60008183611ac15760405162461bcd60e51b81526004016102f99190612b48565b506000838581611acd57fe5b0495945050505050565b6000610cee83836040518060400160405280601e81526020017f536166654d6174683a207375627472616374696f6e206f766572666c6f770000815250611c0f565b6000611b2482610902565b611b3057506000610cee565b6001600160a01b0382166000908152609c602090815260408083208751845290915290205460ff1615611b755760405162461bcd60e51b81526004016102f990612c19565b6000611bb584604051602001611b8b91906129b3565b60405160208183030381529060405280519060200120866020015187604001518860600151611c3b565b6001600160a01b03908116908416149150509392505050565b6000611bd982611bfd565b1592915050565b6000610cee611bed611483565b610ce2858563ffffffff61148916565b5490565b6001600160a01b0316151590565b60008184841115611c335760405162461bcd60e51b81526004016102f99190612b48565b505050900390565b60007f7fffffffffffffffffffffffffffffff5d576e7357a4501ddfe92f46681b20a0821115611c7d5760405162461bcd60e51b81526004016102f990612be9565b8360ff16601b1480611c9257508360ff16601c145b611cae5760405162461bcd60e51b81526004016102f990612c49565b600060018686868660405160008152602001604052604051611cd39493929190612b05565b6020604051602081039080840390855afa158015611cf5573d6000803e3d6000fd5b5050604051601f1901519150506001600160a01b038116611d285760405162461bcd60e51b81526004016102f990612b59565b95945050505050565b803561091581612e16565b600082601f830112611d4d57600080fd5b8135611d60611d5b82612d7d565b612d56565b91508181835260208401935060208101905083856020840282011115611d8557600080fd5b60005b83811015611db15781611d9b8882611d31565b8452506020928301929190910190600101611d88565b5050505092915050565b60008083601f840112611dcd57600080fd5b50813567ffffffffffffffff811115611de557600080fd5b60208301915083610140820283011115611dfe57600080fd5b9250929050565b805161091581612e2a565b803561091581612e33565b805161091581612e33565b805161091581612e3c565b600060e08284031215611e4357600080fd5b50919050565b600060e08284031215611e5b57600080fd5b611e6560e0612d56565b90506000611e738484611d31565b8252506020611e8484848301611d31565b6020830152506040611e9884828501611d31565b6040830152506060611eac84828501611e10565b6060830152506080611ec084828501611e10565b60808301525060a0611ed484828501611e10565b60a08301525060c0611ee884828501611e10565b60c08301525092915050565b60006101408284031215611f0757600080fd5b611f1160e0612d56565b90506000611f1f8484611d31565b8252506020611f3084848301611d31565b6020830152506040611f4484828501611e10565b6040830152506060611f5884828501611e10565b6060830152506080611f6c84828501611e10565b60808301525060a0611f8084828501611e10565b60a08301525060c0611ee884828501612003565b600060808284031215611fa657600080fd5b611fb06080612d56565b90506000611fbe8484611e1b565b8252506020611fcf84848301611e1b565b6020830152506040611fe384828501611e1b565b6040830152506060611ff784828501611e05565b60608301525092915050565b60006080828403121561201557600080fd5b61201f6080612d56565b9050600061202d8484611e10565b825250602061203e84848301612066565b602083015250604061205284828501611e10565b6040830152506060611ff784828501611e10565b803561091581612e45565b60006020828403121561208357600080fd5b60006113248484611d31565b6000806000606084860312156120a457600080fd5b60006120b08686611d31565b93505060206120c186828701611d31565b92505060406120d286828701611d31565b9150509250925092565b6000806000606084860312156120f157600080fd5b60006120fd8686611d31565b935050602061210e86828701611d31565b92505060406120d286828701611e10565b6000806040838503121561213257600080fd5b600061213e8585611d31565b925050602061214f85828601611e10565b9150509250929050565b60006020828403121561216b57600080fd5b813567ffffffffffffffff81111561218257600080fd5b61132484828501611d3c565b6000602082840312156121a057600080fd5b60006113248484611e1b565b6000602082840312156121be57600080fd5b60006113248484611e26565b600080600061010084860312156121e057600080fd5b60006121ec8686611e31565b93505060e084013567ffffffffffffffff81111561220957600080fd5b61221586828701611dbb565b92509250509250925092565b600060e0828403121561223357600080fd5b60006113248484611e49565b6000610140828403121561225257600080fd5b60006113248484611ef4565b60006080828403121561227057600080fd5b60006113248484611f94565b61228581612db0565b82525050565b61228581612dbb565b61228581612dc0565b6122856122a982612dc0565b612dc0565b61228581612dc3565b60006122c282612d9e565b6122cc8185612da2565b93506122dc818560208601612de0565b6122e581612e0c565b9093019392505050565b60006122fc601883612da2565b7f45434453413a20696e76616c6964207369676e61747572650000000000000000815260200192915050565b6000612335601c83612dab565b7f54496e697469616c697a61626c652e6973496e697469616c697a6564000000008152601c0192915050565b600061236e601f83612da2565b7f526f6c65733a206163636f756e7420616c72656164792068617320726f6c6500815260200192915050565b60006123a7601383612da2565b724143434f554e54535f4c4953545f454d50545960681b815260200192915050565b60006123d6601c83612dab565b7f19457468657265756d205369676e6564204d6573736167653a0a3332000000008152601c0192915050565b600061240f601e83612da2565b7f4c4f414e5f5445524d535f524551554553545f4e4f4e43455f54414b454e0000815260200192915050565b6000612448601883612da2565b7f5349474e45525f414c52454144595f5355424d49545445440000000000000000815260200192915050565b6000612481602683612da2565b7f4f776e61626c653a206e6577206f776e657220697320746865207a65726f206181526564647265737360d01b602082015260400192915050565b60006124c9601483612da2565b73149154d413d394d154d7d513d3d7d5905492515160621b815260200192915050565b60006124f9601b83612da2565b7f536166654d6174683a206164646974696f6e206f766572666c6f770000000000815260200192915050565b6000612532601b83612da2565b7f53455454494e47535f4d5553545f42455f415f434f4e54524143540000000000815260200192915050565b600061256b602283612da2565b7f45434453413a20696e76616c6964207369676e6174757265202773272076616c815261756560f01b602082015260400192915050565b60006125af602083612da2565b7f494e53554646494349454e545f4e554d4245525f4f465f524553504f4e534553815260200192915050565b60006125e8601783612da2565b7f43414c4c45525f4d5553545f42455f434f4e5452414354000000000000000000815260200192915050565b6000612621601283612da2565b7129a4a3a722a92fa727a721a2afaa20a5a2a760711b815260200192915050565b600061264f601f83612da2565b7f524551535f4c4f414e5f5445524d535f4c4d545f455843454544535f4d415800815260200192915050565b6000612688602183612da2565b7f526f6c65733a206163636f756e7420646f6573206e6f74206861766520726f6c8152606560f81b602082015260400192915050565b60006126cb602283612da2565b7f45434453413a20696e76616c6964207369676e6174757265202776272076616c815261756560f01b602082015260400192915050565b600061270f602183612da2565b7f536166654d6174683a206d756c7469706c69636174696f6e206f766572666c6f8152607760f81b602082015260400192915050565b6000612752602083612da2565b7f4f776e61626c653a2063616c6c6572206973206e6f7420746865206f776e6572815260200192915050565b600061278b602283612da2565b7f526f6c65733a206163636f756e7420697320746865207a65726f206164647265815261737360f01b602082015260400192915050565b60006127cf602e83612da2565b7f436f6e747261637420696e7374616e63652068617320616c726561647920626581526d195b881a5b9a5d1a585b1a5e995960921b602082015260400192915050565b600061281f601083612da2565b6f149154d413d394d157d156141254915160821b815260200192915050565b600061284b601183612da2565b7014d251d3905515549157d2539590531251607a1b815260200192915050565b6000612878601883612da2565b7f53454e4445525f4841534e545f5045524d495353494f4e530000000000000000815260200192915050565b60006128b1601883612dab565b7f426173655570677261646561626c652e73657474696e67730000000000000000815260180192915050565b60006128ea601883612da2565b7f434f4e54524143545f4e4f545f494e495449414c495a45440000000000000000815260200192915050565b6000612923601c83612da2565b7f434f4e54524143545f414c52454144595f494e495449414c495a454400000000815260200192915050565b805160808301906129608482612294565b5060208201516129736020850182612294565b5060408201516129866040850182612294565b5060608201516129996060850182612294565b50505050565b61228581612dda565b600061091582612328565b60006129be826123c9565b91506129ca828461229d565b50602001919050565b6000610915826128a4565b60208101610915828461227c565b61012081016129fb828c61227c565b612a08602083018b61227c565b612a15604083018a61227c565b612a22606083018961227c565b612a2f6080830188612294565b612a3c60a0830187612294565b612a4960c0830186612294565b612a5660e0830185612294565b612a64610100830184612294565b9a9950505050505050505050565b6101008101612a81828b61227c565b612a8e602083018a612294565b612a9b6040830189612294565b612aa86060830188612294565b612ab56080830187612294565b612ac260a0830186612294565b612acf60c0830185612294565b612adc60e0830184612294565b9998505050505050505050565b60208101610915828461228b565b602081016109158284612294565b60808101612b138287612294565b612b20602083018661299f565b612b2d6040830185612294565b611d286060830184612294565b6020810161091582846122ae565b60208082528101610cee81846122b7565b60208082528101610915816122ef565b6020808252810161091581612361565b602080825281016109158161239a565b6020808252810161091581612402565b602080825281016109158161243b565b6020808252810161091581612474565b60208082528101610915816124bc565b60208082528101610915816124ec565b6020808252810161091581612525565b602080825281016109158161255e565b60208082528101610915816125a2565b60208082528101610915816125db565b6020808252810161091581612614565b6020808252810161091581612642565b602080825281016109158161267b565b60208082528101610915816126be565b6020808252810161091581612702565b6020808252810161091581612745565b602080825281016109158161277e565b60208082528101610915816127c2565b6020808252810161091581612812565b602080825281016109158161283e565b602080825281016109158161286b565b60208082528101610915816128dd565b6020808252810161091581612916565b6101808101612cf8828661294f565b612d05608083018561294f565b61132461010083018461294f565b60608101612d218286612294565b612d2e6020830185612294565b6113246040830184612294565b60808101612d498287612294565b612b206020830186612294565b60405181810167ffffffffffffffff81118282101715612d7557600080fd5b604052919050565b600067ffffffffffffffff821115612d9457600080fd5b5060209081020190565b5190565b90815260200190565b919050565b600061091582612dce565b151590565b90565b600061091582612db0565b6001600160a01b031690565b60ff1690565b60005b83811015612dfb578181015183820152602001612de3565b838111156129995750506000910152565b601f01601f191690565b612e1f81612db0565b81146107a057600080fd5b612e1f81612dbb565b612e1f81612dc0565b612e1f81612dc3565b612e1f81612dda56fea365627a7a723158205e245a2b6a28a965951f7134ec8157fce381fe41051c39e0f96ada957d4468736c6578706572696d656e74616cf564736f6c63430005110040",
  "source": "pragma solidity 0.5.17;\npragma experimental ABIEncoderV2;\n\n// Contracts\nimport \"./Consensus.sol\";\n\n// Interfaces\nimport \"../interfaces/LoanTermsConsensusInterface.sol\";\n\n/*****************************************************************************************************/\n/**                                             WARNING                                             **/\n/**                                  THIS CONTRACT IS UPGRADEABLE!                                  **/\n/**  ---------------------------------------------------------------------------------------------  **/\n/**  Do NOT change the order of or PREPEND any storage variables to this or new versions of this    **/\n/**  contract as this will cause the the storage slots to be overwritten on the proxy contract!!    **/\n/**                                                                                                 **/\n/**  Visit https://docs.openzeppelin.com/upgrades/2.6/proxies#upgrading-via-the-proxy-pattern for   **/\n/**  more information.                                                                              **/\n/*****************************************************************************************************/\n/**\n    @notice This contract is used to process the loan requests through the Teller protocol\n\n    @author develop@teller.finance\n */\ncontract LoanTermsConsensus is LoanTermsConsensusInterface, Consensus {\n    /* Mappings */\n    /**\n        @notice It identifies the loan terms submissions for a given borrower address and a request nonce.\n\n        @dev Examples:\n            @address(0x123...567) => 1 => AccruedLoanTerms({...})\n            @address(0x123...567) => 2 => AccruedLoanTerms({...})\n            @address(0x234...678) => 1 => AccruedLoanTerms({...})\n     */\n    mapping(address => mapping(uint256 => TellerCommon.AccruedLoanTerms))\n        public termSubmissions;\n\n    /**\n        This mapping identify the last request timestamp for a given borrower address.\n\n            Example:    address(0x123...789) = timestamp(now)\n        \n        It is used as rate limit per borrower address.\n     */\n    mapping(address => uint256) public borrowerToLastLoanTermRequest;\n\n    /**\n        @notice Processes the loan request\n        @param request Struct of the protocol loan request\n        @param responses List of structs of the protocol loan responses\n        @return uint256 Interest rate\n        @return uint256 Collateral ratio\n        @return uint256 Maximum loan amount\n     */\n    function processRequest(\n        TellerCommon.LoanRequest calldata request,\n        TellerCommon.LoanResponse[] calldata responses\n    )\n        external\n        isInitialized()\n        isCaller(msg.sender)\n        onlyEnoughSubmissions(responses.length)\n        returns (\n            uint256 interestRate,\n            uint256 collateralRatio,\n            uint256 maxLoanAmount\n        )\n    {\n        _requireRequestLoanTermsRateLimit(request);\n        require(\n            !requestNonceTaken[request.borrower][request.requestNonce],\n            \"LOAN_TERMS_REQUEST_NONCE_TAKEN\"\n        );\n        requestNonceTaken[request.borrower][request.requestNonce] = true;\n\n        bytes32 requestHash = _hashRequest(request);\n\n        for (uint256 i = 0; i < responses.length; i++) {\n            _processResponse(request, responses[i], requestHash);\n        }\n\n        interestRate = _getConsensus(\n            termSubmissions[request.borrower][request.requestNonce].interestRate\n        );\n        collateralRatio = _getConsensus(\n            termSubmissions[request.borrower][request.requestNonce].collateralRatio\n        );\n        maxLoanAmount = _getConsensus(\n            termSubmissions[request.borrower][request.requestNonce].maxLoanAmount\n        );\n        borrowerToLastLoanTermRequest[request.borrower] = now;\n\n        // TODO: Remove redundant event\n        emit TermsAccepted(\n            request.borrower,\n            request.requestNonce,\n            interestRate,\n            collateralRatio,\n            maxLoanAmount\n        );\n    }\n\n    /**\n        @notice Processes the loan response\n        @param request Struct of the protocol loan request\n        @param response List of structs of the protocol loan responses\n        @param requestHash bytes32 Hash of the loan request\n     */\n    function _processResponse(\n        TellerCommon.LoanRequest memory request,\n        TellerCommon.LoanResponse memory response,\n        bytes32 requestHash\n    ) internal {\n        bytes32 responseHash = _hashResponse(response, requestHash);\n\n        _validateResponse(\n            response.signer,\n            request.borrower,\n            request.requestNonce,\n            response.responseTime,\n            responseHash,\n            response.signature\n        );\n\n        termSubmissions[request.borrower][request.requestNonce].interestRate.addValue(\n            response.interestRate\n        );\n        termSubmissions[request.borrower][request.requestNonce].collateralRatio.addValue(\n            response.collateralRatio\n        );\n        termSubmissions[request.borrower][request.requestNonce].maxLoanAmount.addValue(\n            response.maxLoanAmount\n        );\n\n        emit TermsSubmitted(\n            response.signer,\n            request.borrower,\n            request.requestNonce,\n            response.signature.signerNonce,\n            response.interestRate,\n            response.collateralRatio,\n            response.maxLoanAmount\n        );\n    }\n\n    /**\n        @notice Generates a hash for the loan response\n        @param response Structs of the protocol loan responses\n        @param requestHash Hash of the loan request\n        @return bytes32 Hash of the loan response\n     */\n    function _hashResponse(TellerCommon.LoanResponse memory response, bytes32 requestHash)\n        internal\n        view\n        returns (bytes32)\n    {\n        return\n            keccak256(\n                abi.encode(\n                    response.consensusAddress,\n                    response.responseTime,\n                    response.interestRate,\n                    response.collateralRatio,\n                    response.maxLoanAmount,\n                    response.signature.signerNonce,\n                    _getChainId(),\n                    requestHash\n                )\n            );\n    }\n\n    /**\n        @notice Generates a hash for the loan request\n        @param request Struct of the protocol loan request\n        @return bytes32 Hash of the loan request\n     */\n    function _hashRequest(TellerCommon.LoanRequest memory request)\n        internal\n        view\n        returns (bytes32)\n    {\n        return\n            keccak256(\n                abi.encode(\n                    callerAddress,\n                    request.borrower,\n                    request.recipient,\n                    request.consensusAddress,\n                    request.requestNonce,\n                    request.amount,\n                    request.duration,\n                    request.requestTime,\n                    _getChainId()\n                )\n            );\n    }\n\n    /**\n        @notice It validates whether the time window between the last loan terms request and current one exceeds the maximum rate limit.\n        @param request the new request.\n        @dev It throws a require error if the request rate limit exceeds the maximum.\n     */\n    function _requireRequestLoanTermsRateLimit(TellerCommon.LoanRequest memory request)\n        internal\n        view\n    {\n        // In case it is the first time that borrower requests loan terms, we don't validate the rate limit.\n        if (borrowerToLastLoanTermRequest[request.borrower] == 0) {\n            return;\n        }\n        uint256 requestLoanTermsRateLimit = _getSettings().getPlatformSettingValue(\n            _getSettings().consts().REQUEST_LOAN_TERMS_RATE_LIMIT_SETTING()\n        );\n        require(\n            borrowerToLastLoanTermRequest[request.borrower].add(\n                requestLoanTermsRateLimit\n            ) <= now,\n            \"REQS_LOAN_TERMS_LMT_EXCEEDS_MAX\"\n        );\n    }\n}\n",
  "sourcePath": "/Users/sy/Documents/GitHub/teller-protocol-v1/contracts/base/LoanTermsConsensus.sol",
  "compiler": {
    "name": "solc",
    "version": "0.5.17+commit.d19bba13.Emscripten.clang"
  },
  "schemaVersion": "3.2.3",
  "updatedAt": "2021-01-19T20:22:25.920Z",
  "networkType": "ethereum",
  "devdoc": {
    "author": "develop@teller.finance",
    "methods": {
      "addSigner(address)": {
        "details": "The sender must be the owner.It throws a require error if the sender is not the owner.",
        "params": {
          "account": "address to add."
        }
      },
      "addSigners(address[])": {
        "details": "The sender must be the owner.It throws a require error if the sender is not the owner.",
        "params": {
          "accounts": "addresses to add."
        }
      },
      "initialize(address)": {
        "details": "Initializes the contract setting the deployer as the initial owner."
      },
      "initialize(address,address,address)": {
        "details": "The caller address must be the loans contract for LoanTermsConsensus.",
        "params": {
          "aCallerAddress": "the contract that will call it.",
          "aSettingAddress": "the settings contract address.",
          "owner": "the owner address."
        }
      },
      "initialized()": {
        "return": "true if contract is initialized. Otherwise it returns false."
      },
      "isOwner()": {
        "details": "Returns true if the caller is the current owner."
      },
      "isSigner(address)": {
        "params": {
          "account": "address to test."
        },
        "return": "true if account is a signer. Otherwise it returns false."
      },
      "owner()": {
        "details": "Returns the address of the current owner."
      },
      "processRequest((address,address,address,uint256,uint256,uint256,uint256),(address,address,uint256,uint256,uint256,uint256,(uint256,uint8,bytes32,bytes32))[])": {
        "params": {
          "request": "Struct of the protocol loan request",
          "responses": "List of structs of the protocol loan responses"
        },
        "return": "uint256 Interest rateuint256 Collateral ratiouint256 Maximum loan amount"
      },
      "removeSigner(address)": {
        "details": "The sender must be the owner.It throws a require error if the sender is not the owner.",
        "params": {
          "account": "address to remove."
        }
      },
      "renounceOwnership()": {
        "details": "Leaves the contract without owner. It will not be possible to call `onlyOwner` functions anymore. Can only be called by the current owner.     * > Note: Renouncing ownership will leave the contract without an owner, thereby removing any functionality that is only available to the owner."
      },
      "settings()": {
        "details": "This address should NOT change over the time. See details in the _setSettings(...) function."
      },
      "transferOwnership(address)": {
        "details": "Transfers ownership of the contract to a new account (`newOwner`). Can only be called by the current owner."
      }
    }
  },
  "userdoc": {
    "methods": {
      "addSigner(address)": {
        "notice": "It adds a new account as a signer."
      },
      "addSigners(address[])": {
        "notice": "It adds a list of account as signers."
      },
      "initialize(address,address,address)": {
        "notice": "It initializes this consensus contract."
      },
      "initialized()": {
        "notice": "Gets if the contract is initialized."
      },
      "isSigner(address)": {
        "notice": "Gets whether an account address is a signer or not."
      },
      "processRequest((address,address,address,uint256,uint256,uint256,uint256),(address,address,uint256,uint256,uint256,uint256,(uint256,uint8,bytes32,bytes32))[])": {
        "notice": "Processes the loan request"
      },
      "removeSigner(address)": {
        "notice": "It removes an account as signer."
      },
      "settings()": {
        "notice": "The gets the settings contract address from the SETTINGS_SLOT."
      }
    },
    "notice": "This contract is used to process the loan requests through the Teller protocol"
  }
}