{
  "contractName": "LoanTermsConsensus",
  "abi": [
    {
      "anonymous": false,
      "inputs": [
        {
          "indexed": true,
          "internalType": "address",
          "name": "previousOwner",
          "type": "address"
        },
        {
          "indexed": true,
          "internalType": "address",
          "name": "newOwner",
          "type": "address"
        }
      ],
      "name": "OwnershipTransferred",
      "type": "event"
    },
    {
      "anonymous": false,
      "inputs": [
        {
          "indexed": true,
          "internalType": "address",
          "name": "account",
          "type": "address"
        }
      ],
      "name": "SignerAdded",
      "type": "event"
    },
    {
      "anonymous": false,
      "inputs": [
        {
          "indexed": true,
          "internalType": "address",
          "name": "account",
          "type": "address"
        }
      ],
      "name": "SignerRemoved",
      "type": "event"
    },
    {
      "anonymous": false,
      "inputs": [
        {
          "indexed": true,
          "internalType": "address",
          "name": "borrower",
          "type": "address"
        },
        {
          "indexed": true,
          "internalType": "uint256",
          "name": "requestNonce",
          "type": "uint256"
        },
        {
          "indexed": false,
          "internalType": "uint256",
          "name": "interestRate",
          "type": "uint256"
        },
        {
          "indexed": false,
          "internalType": "uint256",
          "name": "collateralRatio",
          "type": "uint256"
        },
        {
          "indexed": false,
          "internalType": "uint256",
          "name": "maxLoanAmount",
          "type": "uint256"
        }
      ],
      "name": "TermsAccepted",
      "type": "event"
    },
    {
      "anonymous": false,
      "inputs": [
        {
          "indexed": true,
          "internalType": "address",
          "name": "signer",
          "type": "address"
        },
        {
          "indexed": true,
          "internalType": "address",
          "name": "borrower",
          "type": "address"
        },
        {
          "indexed": true,
          "internalType": "uint256",
          "name": "requestNonce",
          "type": "uint256"
        },
        {
          "indexed": false,
          "internalType": "uint256",
          "name": "signerNonce",
          "type": "uint256"
        },
        {
          "indexed": false,
          "internalType": "uint256",
          "name": "interestRate",
          "type": "uint256"
        },
        {
          "indexed": false,
          "internalType": "uint256",
          "name": "collateralRatio",
          "type": "uint256"
        },
        {
          "indexed": false,
          "internalType": "uint256",
          "name": "maxLoanAmount",
          "type": "uint256"
        }
      ],
      "name": "TermsSubmitted",
      "type": "event"
    },
    {
      "constant": false,
      "inputs": [
        {
          "internalType": "address",
          "name": "account",
          "type": "address"
        }
      ],
      "name": "addSigner",
      "outputs": [],
      "payable": false,
      "stateMutability": "nonpayable",
      "type": "function"
    },
    {
      "constant": false,
      "inputs": [
        {
          "internalType": "address[]",
          "name": "accounts",
          "type": "address[]"
        }
      ],
      "name": "addSigners",
      "outputs": [],
      "payable": false,
      "stateMutability": "nonpayable",
      "type": "function"
    },
    {
      "constant": true,
      "inputs": [
        {
          "internalType": "address",
          "name": "",
          "type": "address"
        }
      ],
      "name": "borrowerToLastLoanTermRequest",
      "outputs": [
        {
          "internalType": "uint256",
          "name": "",
          "type": "uint256"
        }
      ],
      "payable": false,
      "stateMutability": "view",
      "type": "function"
    },
    {
      "constant": true,
      "inputs": [],
      "name": "callerAddress",
      "outputs": [
        {
          "internalType": "address",
          "name": "",
          "type": "address"
        }
      ],
      "payable": false,
      "stateMutability": "view",
      "type": "function"
    },
    {
      "constant": true,
      "inputs": [
        {
          "internalType": "address",
          "name": "",
          "type": "address"
        },
        {
          "internalType": "address",
          "name": "",
          "type": "address"
        },
        {
          "internalType": "uint256",
          "name": "",
          "type": "uint256"
        }
      ],
      "name": "hasSubmitted",
      "outputs": [
        {
          "internalType": "bool",
          "name": "",
          "type": "bool"
        }
      ],
      "payable": false,
      "stateMutability": "view",
      "type": "function"
    },
    {
      "constant": false,
      "inputs": [],
      "name": "initialize",
      "outputs": [],
      "payable": false,
      "stateMutability": "nonpayable",
      "type": "function"
    },
    {
      "constant": false,
      "inputs": [
        {
          "internalType": "address",
          "name": "owner",
          "type": "address"
        },
        {
          "internalType": "address",
          "name": "aCallerAddress",
          "type": "address"
        },
        {
          "internalType": "address",
          "name": "aSettingAddress",
          "type": "address"
        }
      ],
      "name": "initialize",
      "outputs": [],
      "payable": false,
      "stateMutability": "nonpayable",
      "type": "function"
    },
    {
      "constant": false,
      "inputs": [
        {
          "internalType": "address",
          "name": "sender",
          "type": "address"
        }
      ],
      "name": "initialize",
      "outputs": [],
      "payable": false,
      "stateMutability": "nonpayable",
      "type": "function"
    },
    {
      "constant": true,
      "inputs": [],
      "name": "initialized",
      "outputs": [
        {
          "internalType": "bool",
          "name": "value",
          "type": "bool"
        }
      ],
      "payable": false,
      "stateMutability": "view",
      "type": "function"
    },
    {
      "constant": true,
      "inputs": [],
      "name": "isOwner",
      "outputs": [
        {
          "internalType": "bool",
          "name": "",
          "type": "bool"
        }
      ],
      "payable": false,
      "stateMutability": "view",
      "type": "function"
    },
    {
      "constant": true,
      "inputs": [
        {
          "internalType": "address",
          "name": "account",
          "type": "address"
        }
      ],
      "name": "isSigner",
      "outputs": [
        {
          "internalType": "bool",
          "name": "",
          "type": "bool"
        }
      ],
      "payable": false,
      "stateMutability": "view",
      "type": "function"
    },
    {
      "constant": true,
      "inputs": [],
      "name": "owner",
      "outputs": [
        {
          "internalType": "address",
          "name": "",
          "type": "address"
        }
      ],
      "payable": false,
      "stateMutability": "view",
      "type": "function"
    },
    {
      "constant": false,
      "inputs": [
        {
          "internalType": "address",
          "name": "account",
          "type": "address"
        }
      ],
      "name": "removeSigner",
      "outputs": [],
      "payable": false,
      "stateMutability": "nonpayable",
      "type": "function"
    },
    {
      "constant": false,
      "inputs": [],
      "name": "renounceOwnership",
      "outputs": [],
      "payable": false,
      "stateMutability": "nonpayable",
      "type": "function"
    },
    {
      "constant": true,
      "inputs": [
        {
          "internalType": "address",
          "name": "",
          "type": "address"
        },
        {
          "internalType": "uint256",
          "name": "",
          "type": "uint256"
        }
      ],
      "name": "requestNonceTaken",
      "outputs": [
        {
          "internalType": "bool",
          "name": "",
          "type": "bool"
        }
      ],
      "payable": false,
      "stateMutability": "view",
      "type": "function"
    },
    {
      "constant": true,
      "inputs": [],
      "name": "settings",
      "outputs": [
        {
          "internalType": "contract SettingsInterface",
          "name": "",
          "type": "address"
        }
      ],
      "payable": false,
      "stateMutability": "view",
      "type": "function"
    },
    {
      "constant": true,
      "inputs": [
        {
          "internalType": "address",
          "name": "",
          "type": "address"
        },
        {
          "internalType": "uint256",
          "name": "",
          "type": "uint256"
        }
      ],
      "name": "signerNonceTaken",
      "outputs": [
        {
          "internalType": "bool",
          "name": "",
          "type": "bool"
        }
      ],
      "payable": false,
      "stateMutability": "view",
      "type": "function"
    },
    {
      "constant": true,
      "inputs": [
        {
          "internalType": "address",
          "name": "",
          "type": "address"
        },
        {
          "internalType": "uint256",
          "name": "",
          "type": "uint256"
        }
      ],
      "name": "termSubmissions",
      "outputs": [
        {
          "components": [
            {
              "internalType": "uint256",
              "name": "count",
              "type": "uint256"
            },
            {
              "internalType": "uint256",
              "name": "max",
              "type": "uint256"
            },
            {
              "internalType": "uint256",
              "name": "min",
              "type": "uint256"
            },
            {
              "internalType": "uint256",
              "name": "sum",
              "type": "uint256"
            }
          ],
          "internalType": "struct NumbersList.Values",
          "name": "interestRate",
          "type": "tuple"
        },
        {
          "components": [
            {
              "internalType": "uint256",
              "name": "count",
              "type": "uint256"
            },
            {
              "internalType": "uint256",
              "name": "max",
              "type": "uint256"
            },
            {
              "internalType": "uint256",
              "name": "min",
              "type": "uint256"
            },
            {
              "internalType": "uint256",
              "name": "sum",
              "type": "uint256"
            }
          ],
          "internalType": "struct NumbersList.Values",
          "name": "collateralRatio",
          "type": "tuple"
        },
        {
          "components": [
            {
              "internalType": "uint256",
              "name": "count",
              "type": "uint256"
            },
            {
              "internalType": "uint256",
              "name": "max",
              "type": "uint256"
            },
            {
              "internalType": "uint256",
              "name": "min",
              "type": "uint256"
            },
            {
              "internalType": "uint256",
              "name": "sum",
              "type": "uint256"
            }
          ],
          "internalType": "struct NumbersList.Values",
          "name": "maxLoanAmount",
          "type": "tuple"
        }
      ],
      "payable": false,
      "stateMutability": "view",
      "type": "function"
    },
    {
      "constant": false,
      "inputs": [
        {
          "internalType": "address",
          "name": "newOwner",
          "type": "address"
        }
      ],
      "name": "transferOwnership",
      "outputs": [],
      "payable": false,
      "stateMutability": "nonpayable",
      "type": "function"
    },
    {
      "constant": false,
      "inputs": [
        {
          "components": [
            {
              "internalType": "address payable",
              "name": "borrower",
              "type": "address"
            },
            {
              "internalType": "address",
              "name": "recipient",
              "type": "address"
            },
            {
              "internalType": "address",
              "name": "consensusAddress",
              "type": "address"
            },
            {
              "internalType": "uint256",
              "name": "requestNonce",
              "type": "uint256"
            },
            {
              "internalType": "uint256",
              "name": "amount",
              "type": "uint256"
            },
            {
              "internalType": "uint256",
              "name": "duration",
              "type": "uint256"
            },
            {
              "internalType": "uint256",
              "name": "requestTime",
              "type": "uint256"
            }
          ],
          "internalType": "struct TellerCommon.LoanRequest",
          "name": "request",
          "type": "tuple"
        },
        {
          "components": [
            {
              "internalType": "address",
              "name": "signer",
              "type": "address"
            },
            {
              "internalType": "address",
              "name": "consensusAddress",
              "type": "address"
            },
            {
              "internalType": "uint256",
              "name": "responseTime",
              "type": "uint256"
            },
            {
              "internalType": "uint256",
              "name": "interestRate",
              "type": "uint256"
            },
            {
              "internalType": "uint256",
              "name": "collateralRatio",
              "type": "uint256"
            },
            {
              "internalType": "uint256",
              "name": "maxLoanAmount",
              "type": "uint256"
            },
            {
              "components": [
                {
                  "internalType": "uint256",
                  "name": "signerNonce",
                  "type": "uint256"
                },
                {
                  "internalType": "uint8",
                  "name": "v",
                  "type": "uint8"
                },
                {
                  "internalType": "bytes32",
                  "name": "r",
                  "type": "bytes32"
                },
                {
                  "internalType": "bytes32",
                  "name": "s",
                  "type": "bytes32"
                }
              ],
              "internalType": "struct TellerCommon.Signature",
              "name": "signature",
              "type": "tuple"
            }
          ],
          "internalType": "struct TellerCommon.LoanResponse[]",
          "name": "responses",
          "type": "tuple[]"
        }
      ],
      "name": "processRequest",
      "outputs": [
        {
          "internalType": "uint256",
          "name": "interestRate",
          "type": "uint256"
        },
        {
          "internalType": "uint256",
          "name": "collateralRatio",
          "type": "uint256"
        },
        {
          "internalType": "uint256",
          "name": "maxLoanAmount",
          "type": "uint256"
        }
      ],
      "payable": false,
      "stateMutability": "nonpayable",
      "type": "function"
    }
  ],
  "bytecode": "0x6080604052612c22806100136000396000f3fe608060405234801561001057600080fd5b506004361061012c5760003560e01c806399ffe065116100ad578063e8906a2d11610071578063e8906a2d14610269578063eb12d61e1461027c578063f2fde38b1461028f578063faa8aab1146102a2578063fb98d9e2146102aa5761012c565b806399ffe065146101fb5780639f24a12d1461020e578063c0c53b8b1461022e578063c4d66de814610241578063e06174e4146102545761012c565b8063715018a6116100f4578063715018a6146101bb5780637df73e27146101c35780638129fc1c146101d65780638da5cb5b146101de5780638f32d59b146101f35761012c565b8063064e5d49146101315780630e316ab71461015c578063158ef93e146101715780632aac635e1461018657806368fcdeb8146101a8575b600080fd5b61014461013f36600461206a565b6102bd565b60405161015393929190612aad565b60405180910390f35b61016f61016a366004611f11565b610742565b005b610179610772565b60405161015391906128aa565b610199610194366004611fbf565b610794565b60405161015393929190612a83565b6101796101b6366004611fbf565b61083d565b61016f61085d565b6101796101d1366004611f11565b6108cb565b61016f6108e4565b6101e661096b565b604051610153919061279f565b61017961097a565b610179610209366004611f7c565b6109a0565b61022161021c366004611f11565b6109c6565b60405161015391906128b8565b61016f61023c366004611f2f565b6109d8565b61016f61024f366004611f11565b610a61565b61025c610b34565b6040516101539190612904565b61016f610277366004611ff9565b610b43565b61016f61028a366004611f11565b610bcb565b61016f61029d366004611f11565b610bf8565b6101e6610c25565b6101796102b8366004611fbf565b610c34565b60008060006102ca610772565b6102ef5760405162461bcd60e51b81526004016102e690612a63565b60405180910390fd5b336102f981610c54565b6103155760405162461bcd60e51b81526004016102e690612a53565b61031d610c68565b6001600160a01b031663269012a0610333610c68565b6001600160a01b031663d86d744e6040518163ffffffff1660e01b815260040160206040518083038186803b15801561036b57600080fd5b505afa15801561037f573d6000803e3d6000fd5b505050506040513d601f19601f820116820180604052506103a3919081019061204c565b6001600160a01b0316633ff591d96040518163ffffffff1660e01b815260040160206040518083038186803b1580156103db57600080fd5b505afa1580156103ef573d6000803e3d6000fd5b505050506040513d601f19601f82011682018060405250610413919081019061202e565b6040518263ffffffff1660e01b815260040161042f91906128b8565b60206040518083038186803b15801561044757600080fd5b505afa15801561045b573d6000803e3d6000fd5b505050506040513d601f19601f8201168201806040525061047f919081019061202e565b85101561049e5760405162461bcd60e51b81526004016102e690612a33565b6104b56104b0368990038901896120c1565b610c8d565b609d60006104c660208a018a611f11565b6001600160a01b031681526020808201929092526040908101600090812060608b0135825290925290205460ff16156105115760405162461bcd60e51b81526004016102e690612943565b6001609d600061052460208b018b611f11565b6001600160a01b031681526020808201929092526040908101600090812060608c013582529092528120805460ff191692151592909217909155610575610570368a90038a018a6120c1565b610e69565b905060005b868110156105c5576105bd610594368b90038b018b6120c1565b8989848181106105a057fe5b905061014002018036036105b791908101906120df565b84610edc565b60010161057a565b50610609609e60006105da60208c018c611f11565b6001600160a01b031681526020808201929092526040908101600090812060608d013582529092529020611043565b945061065c609e600061061f60208c018c611f11565b6001600160a01b03166001600160a01b0316815260200190815260200160002060008a606001358152602001908152602001600020600401611043565b93506106af609e600061067260208c018c611f11565b6001600160a01b03166001600160a01b0316815260200190815260200160002060008a606001358152602001908152602001600020600801611043565b925042609f60006106c360208c018c611f11565b6001600160a01b03168152602080820192909252604001600020919091556060890135906106f3908a018a611f11565b6001600160a01b03167f658dfc9759b55173ea96c7bd8d4ad2c3e3804d28d83d2e1a25569a2fecb6720887878760405161072f93929190612aad565b60405180910390a3505093509350939050565b61074a61097a565b6107665760405162461bcd60e51b81526004016102e6906129f3565b61076f816111e4565b50565b600080600160405161078390612769565b604051908190039020035492915050565b609e60209081526000928352604080842082529183529181902081516080808201845282548252600183015482860152600283015482850152600383015460608084019190915284518083018652600485015481526005850154818801526006850154818701526007850154818301528551928301865260088501548352600985015496830196909652600a84015494820194909452600b909201549282019290925290919083565b609b60209081526000928352604080842090915290825290205460ff1681565b61086561097a565b6108815760405162461bcd60e51b81526004016102e6906129f3565b6066546040516000916001600160a01b0316907f8be0079c531659141344cd1fd0a4f28419497f9722a3daafe3b4186f6b6457e0908390a3606680546001600160a01b0319169055565b60006108de60998363ffffffff61122c16565b92915050565b600054610100900460ff16806108fd57506108fd611274565b8061090b575060005460ff16155b6109275760405162461bcd60e51b81526004016102e690612a13565b600054610100900460ff16158015610952576000805460ff1961ff0019909116610100171660011790555b6001603355801561076f576000805461ff001916905550565b6066546001600160a01b031690565b6066546000906001600160a01b031661099161127a565b6001600160a01b031614905090565b609a60209081526000938452604080852082529284528284209052825290205460ff1681565b609f6020526000908152604090205481565b6109e0610772565b156109fd5760405162461bcd60e51b81526004016102e690612a73565b610a0f826001600160a01b031661127e565b610a2b5760405162461bcd60e51b81526004016102e6906129a3565b610a3483610a61565b610a3d816112ba565b50609c80546001600160a01b0319166001600160a01b039290921691909117905550565b600054610100900460ff1680610a7a5750610a7a611274565b80610a88575060005460ff16155b610aa45760405162461bcd60e51b81526004016102e690612a13565b600054610100900460ff16158015610acf576000805460ff1961ff0019909116610100171660011790555b606680546001600160a01b0319166001600160a01b0384811691909117918290556040519116906000907f8be0079c531659141344cd1fd0a4f28419497f9722a3daafe3b4186f6b6457e0908290a38015610b30576000805461ff00191690555b5050565b6000610b3e610c68565b905090565b610b4b61097a565b610b675760405162461bcd60e51b81526004016102e6906129f3565b6000815111610b885760405162461bcd60e51b81526004016102e690612933565b60005b8151811015610b30576000828281518110610ba257fe5b60200260200101519050610bb5816108cb565b610bc257610bc28161136c565b50600101610b8b565b610bd361097a565b610bef5760405162461bcd60e51b81526004016102e6906129f3565b61076f8161136c565b610c0061097a565b610c1c5760405162461bcd60e51b81526004016102e6906129f3565b61076f816113b4565b609c546001600160a01b031681565b609d60209081526000928352604080842090915290825290205460ff1681565b609c546001600160a01b0391821691161490565b60008060006001604051610c7b90612794565b60405190819003902003549250505090565b80516001600160a01b03166000908152609f6020526040902054610cb05761076f565b6000610cba610c68565b6001600160a01b031663269012a0610cd0610c68565b6001600160a01b031663d86d744e6040518163ffffffff1660e01b815260040160206040518083038186803b158015610d0857600080fd5b505afa158015610d1c573d6000803e3d6000fd5b505050506040513d601f19601f82011682018060405250610d40919081019061204c565b6001600160a01b0316633b98dfdb6040518163ffffffff1660e01b815260040160206040518083038186803b158015610d7857600080fd5b505afa158015610d8c573d6000803e3d6000fd5b505050506040513d601f19601f82011682018060405250610db0919081019061202e565b6040518263ffffffff1660e01b8152600401610dcc91906128b8565b60206040518083038186803b158015610de457600080fd5b505afa158015610df8573d6000803e3d6000fd5b505050506040513d601f19601f82011682018060405250610e1c919081019061202e565b82516001600160a01b03166000908152609f60205260409020549091504290610e4b908363ffffffff61143616565b1115610b305760405162461bcd60e51b81526004016102e6906129c3565b609c548151602083015160408401516060850151608086015160a087015160c08801516000976001600160a01b031696959493929190610ea7611462565b604051602001610ebf999897969594939291906127ad565b604051602081830303815290604052805190602001209050919050565b6000610ee88383611466565b835185516060870151604087015160c0880151949550610f099486906114c8565b60608084015185516001600160a01b03166000908152609e6020908152604080832094890151835293905291909120610f479163ffffffff61174616565b608083015184516001600160a01b03166000908152609e60209081526040808320606089015184529091529020610f899160049091019063ffffffff61174616565b60a083015184516001600160a01b03166000908152609e60209081526040808320606089015184529091529020610fcb9160089091019063ffffffff61174616565b836060015184600001516001600160a01b031684600001516001600160a01b03167fc218be06ad61544d4438d7c22df24c5fd2e6e70eff2b9bd06771b90432bb21258660c0015160000151876060015188608001518960a001516040516110359493929190612ad5565b60405180910390a450505050565b60006111bf611050610c68565b6001600160a01b031663269012a0611066610c68565b6001600160a01b031663d86d744e6040518163ffffffff1660e01b815260040160206040518083038186803b15801561109e57600080fd5b505afa1580156110b2573d6000803e3d6000fd5b505050506040513d601f19601f820116820180604052506110d6919081019061204c565b6001600160a01b031663c41dd8ce6040518163ffffffff1660e01b815260040160206040518083038186803b15801561110e57600080fd5b505afa158015611122573d6000803e3d6000fd5b505050506040513d601f19601f82011682018060405250611146919081019061202e565b6040518263ffffffff1660e01b815260040161116291906128b8565b60206040518083038186803b15801561117a57600080fd5b505afa15801561118e573d6000803e3d6000fd5b505050506040513d601f19601f820116820180604052506111b2919081019061202e565b839063ffffffff6117ab16565b6111db5760405162461bcd60e51b81526004016102e690612973565b6108de8261184a565b6111f560998263ffffffff61188316565b6040516001600160a01b038216907f3525e22824a8a7df2c9a6029941c824cf95b6447f1e13d5128fd3826d35afe8b90600090a250565b60006001600160a01b0382166112545760405162461bcd60e51b81526004016102e690612a03565b506001600160a01b03166000908152602091909152604090205460ff1690565b303b1590565b3390565b6000813f7fc5d2460186f7233c927e7db2dcc703c0e500b653ca82273b7bfad8045d85a4708181148015906112b257508115155b949350505050565b6112c2610772565b156112df5760405162461bcd60e51b81526004016102e690612a73565b60408051808201909152601981527f53455454494e47535f4d5553545f42455f50524f564944454400000000000000602082015261132d906001600160a01b0383169063ffffffff6118cb16565b61133f816001600160a01b031661127e565b61135b5760405162461bcd60e51b81526004016102e690612993565b6113636118f8565b61076f8161191a565b61137d60998263ffffffff61198c16565b6040516001600160a01b038216907f47d1c22a25bb3a5d4e481b9b1e6944c2eade3181a0a20b495ed61d35b5323f2490600090a250565b6001600160a01b0381166113da5760405162461bcd60e51b81526004016102e690612963565b6066546040516001600160a01b038084169216907f8be0079c531659141344cd1fd0a4f28419497f9722a3daafe3b4186f6b6457e090600090a3606680546001600160a01b0319166001600160a01b0392909216919091179055565b60008282018381101561145b5760405162461bcd60e51b81526004016102e690612983565b9392505050565b4690565b600082602001518360400151846060015185608001518660a001518760c0015160000151611492611462565b886040516020016114aa989796959493929190612833565b60405160208183030381529060405280519060200120905092915050565b6001600160a01b038087166000908152609a6020908152604080832093891683529281528282208783529052205460ff16156115165760405162461bcd60e51b81526004016102e690612953565b6001600160a01b038087166000908152609a602090815260408083209389168352928152828220878352905220805460ff191660011790556116c8611559610c68565b6001600160a01b031663269012a061156f610c68565b6001600160a01b031663d86d744e6040518163ffffffff1660e01b815260040160206040518083038186803b1580156115a757600080fd5b505afa1580156115bb573d6000803e3d6000fd5b505050506040513d601f19601f820116820180604052506115df919081019061204c565b6001600160a01b031663e3f33d006040518163ffffffff1660e01b815260040160206040518083038186803b15801561161757600080fd5b505afa15801561162b573d6000803e3d6000fd5b505050506040513d601f19601f8201168201806040525061164f919081019061202e565b6040518263ffffffff1660e01b815260040161166b91906128b8565b60206040518083038186803b15801561168357600080fd5b505afa158015611697573d6000803e3d6000fd5b505050506040513d601f19601f820116820180604052506116bb919081019061202e565b429063ffffffff6119d816565b8310156116e75760405162461bcd60e51b81526004016102e690612a23565b6116f2818388611a1a565b61170e5760405162461bcd60e51b81526004016102e690612a43565b6001600160a01b039095166000908152609b602090815260408083209751835296905294909420805460ff1916600117905550505050565b808260010154101561175a57600182018190555b808260020154118061176b57508154155b1561177857600282018190555b600382015461178d908263ffffffff61143616565b600383015581546117a590600163ffffffff61143616565b90915550565b60006117b683611b12565b156117c3575060006108de565b60006117ce8461184a565b905060006117e2828563ffffffff611b2416565b905060006117f6838363ffffffff6119d816565b9050808660020154101561181057600093505050506108de565b6000611822848463ffffffff61143616565b9050808760010154111561183d5760009450505050506108de565b5060019695505050505050565b600061185582611b12565b61187b5761187661186583611b4d565b60038401549063ffffffff611b5116565b6108de565b506000919050565b61188d828261122c565b6118a95760405162461bcd60e51b81526004016102e6906129d3565b6001600160a01b0316600090815260209190915260409020805460ff19169055565b6118d482611b93565b81906118f35760405162461bcd60e51b81526004016102e69190612912565b505050565b6000600160405161190890612769565b60405190819003902060019190035550565b611933611925610c68565b6001600160a01b0316611b93565b1561193d5761076f565b61194f816001600160a01b031661127e565b61196b5760405162461bcd60e51b81526004016102e690612993565b6000600160405161197b90612794565b604051908190039020038290555050565b611996828261122c565b156119b35760405162461bcd60e51b81526004016102e690612923565b6001600160a01b0316600090815260209190915260409020805460ff19166001179055565b600061145b83836040518060400160405280601e81526020017f536166654d6174683a207375627472616374696f6e206f766572666c6f770000815250611ba1565b6000611a25826108cb565b611a315750600061145b565b6001600160a01b0382166000908152609b602090815260408083208751845290915290205460ff1615611a765760405162461bcd60e51b81526004016102e6906129b3565b6000600184604051602001611a8b9190612774565b6040516020818303038152906040528051906020012086602001518760400151886060015160405160008152602001604052604051611acd94939291906128c6565b6020604051602081039080840390855afa158015611aef573d6000803e3d6000fd5b5050604051601f1901516001600160a01b03858116911614925050509392505050565b6000611b1d82611b4d565b1592915050565b600061145b611b31611bcd565b611b41858563ffffffff611bd316565b9063ffffffff611b5116565b5490565b600061145b83836040518060400160405280601a81526020017f536166654d6174683a206469766973696f6e206279207a65726f000000000000815250611c0d565b6001600160a01b0316151590565b60008184841115611bc55760405162461bcd60e51b81526004016102e69190612912565b505050900390565b61271090565b600082611be2575060006108de565b82820282848281611bef57fe5b041461145b5760405162461bcd60e51b81526004016102e6906129e3565b60008183611c2e5760405162461bcd60e51b81526004016102e69190612912565b506000838581611c3a57fe5b0495945050505050565b80356108de81612bb0565b600082601f830112611c6057600080fd5b8135611c73611c6e82612b17565b612af0565b91508181835260208401935060208101905083856020840282011115611c9857600080fd5b60005b83811015611cc45781611cae8882611c44565b8452506020928301929190910190600101611c9b565b5050505092915050565b60008083601f840112611ce057600080fd5b50813567ffffffffffffffff811115611cf857600080fd5b60208301915083610140820283011115611d1157600080fd5b9250929050565b80356108de81612bc4565b80516108de81612bc4565b80516108de81612bcd565b600060e08284031215611d4b57600080fd5b50919050565b600060e08284031215611d6357600080fd5b611d6d60e0612af0565b90506000611d7b8484611c44565b8252506020611d8c84848301611c44565b6020830152506040611da084828501611c44565b6040830152506060611db484828501611d18565b6060830152506080611dc884828501611d18565b60808301525060a0611ddc84828501611d18565b60a08301525060c0611df084828501611d18565b60c08301525092915050565b60006101408284031215611e0f57600080fd5b611e1960e0612af0565b90506000611e278484611c44565b8252506020611e3884848301611c44565b6020830152506040611e4c84828501611d18565b6040830152506060611e6084828501611d18565b6060830152506080611e7484828501611d18565b60808301525060a0611e8884828501611d18565b60a08301525060c0611df084828501600060808284031215611ea957600080fd5b611eb36080612af0565b90506000611ec18484611d18565b8252506020611ed284848301611f06565b6020830152506040611ee684828501611d18565b6040830152506060611efa84828501611d18565b60608301525092915050565b80356108de81612bd6565b600060208284031215611f2357600080fd5b60006112b28484611c44565b600080600060608486031215611f4457600080fd5b6000611f508686611c44565b9350506020611f6186828701611c44565b9250506040611f7286828701611c44565b9150509250925092565b600080600060608486031215611f9157600080fd5b6000611f9d8686611c44565b9350506020611fae86828701611c44565b9250506040611f7286828701611d18565b60008060408385031215611fd257600080fd5b6000611fde8585611c44565b9250506020611fef85828601611d18565b9150509250929050565b60006020828403121561200b57600080fd5b813567ffffffffffffffff81111561202257600080fd5b6112b284828501611c4f565b60006020828403121561204057600080fd5b60006112b28484611d23565b60006020828403121561205e57600080fd5b60006112b28484611d2e565b6000806000610100848603121561208057600080fd5b600061208c8686611d39565b93505060e084013567ffffffffffffffff8111156120a957600080fd5b6120b586828701611cce565b92509250509250925092565b600060e082840312156120d357600080fd5b60006112b28484611d51565b600061014082840312156120f257600080fd5b60006112b28484611dfc565b61210781612b4a565b82525050565b61210781612b55565b61210781612b5a565b61210761212b82612b5a565b612b5a565b61210781612b5d565b600061214482612b38565b61214e8185612b3c565b935061215e818560208601612b7a565b61216781612ba6565b9093019392505050565b600061217e601c83612b45565b7f54496e697469616c697a61626c652e6973496e697469616c697a6564000000008152601c0192915050565b60006121b7601f83612b3c565b7f526f6c65733a206163636f756e7420616c72656164792068617320726f6c6500815260200192915050565b60006121f0601383612b3c565b724143434f554e54535f4c4953545f454d50545960681b815260200192915050565b600061221f601c83612b45565b7f19457468657265756d205369676e6564204d6573736167653a0a3332000000008152601c0192915050565b6000612258601e83612b3c565b7f4c4f414e5f5445524d535f524551554553545f4e4f4e43455f54414b454e0000815260200192915050565b6000612291601883612b3c565b7f5349474e45525f414c52454144595f5355424d49545445440000000000000000815260200192915050565b60006122ca602683612b3c565b7f4f776e61626c653a206e6577206f776e657220697320746865207a65726f206181526564647265737360d01b602082015260400192915050565b6000612312601483612b3c565b73149154d413d394d154d7d513d3d7d5905492515160621b815260200192915050565b6000612342601b83612b3c565b7f536166654d6174683a206164646974696f6e206f766572666c6f770000000000815260200192915050565b600061237b601b83612b3c565b7f53455454494e47535f4d5553545f42455f415f434f4e54524143540000000000815260200192915050565b60006123b4601783612b3c565b7f43414c4c45525f4d5553545f42455f434f4e5452414354000000000000000000815260200192915050565b60006123ed601283612b3c565b7129a4a3a722a92fa727a721a2afaa20a5a2a760711b815260200192915050565b600061241b601f83612b3c565b7f524551535f4c4f414e5f5445524d535f4c4d545f455843454544535f4d415800815260200192915050565b6000612454602183612b3c565b7f526f6c65733a206163636f756e7420646f6573206e6f74206861766520726f6c8152606560f81b602082015260400192915050565b6000612497602183612b3c565b7f536166654d6174683a206d756c7469706c69636174696f6e206f766572666c6f8152607760f81b602082015260400192915050565b60006124da602083612b3c565b7f4f776e61626c653a2063616c6c6572206973206e6f7420746865206f776e6572815260200192915050565b6000612513602283612b3c565b7f526f6c65733a206163636f756e7420697320746865207a65726f206164647265815261737360f01b602082015260400192915050565b6000612557602e83612b3c565b7f436f6e747261637420696e7374616e63652068617320616c726561647920626581526d195b881a5b9a5d1a585b1a5e995960921b602082015260400192915050565b60006125a7601083612b3c565b6f149154d413d394d157d156141254915160821b815260200192915050565b60006125d3601f83612b3c565b7f4c4f414e5445524d5f494e53554646494349454e545f524553504f4e53455300815260200192915050565b600061260c601183612b3c565b7014d251d3905515549157d2539590531251607a1b815260200192915050565b6000612639601883612b3c565b7f53454e4445525f4841534e545f5045524d495353494f4e530000000000000000815260200192915050565b6000612672601883612b45565b7f426173655570677261646561626c652e73657474696e67730000000000000000815260180192915050565b60006126ab601883612b3c565b7f434f4e54524143545f4e4f545f494e495449414c495a45440000000000000000815260200192915050565b60006126e4601c83612b3c565b7f434f4e54524143545f414c52454144595f494e495449414c495a454400000000815260200192915050565b805160808301906127218482612116565b5060208201516127346020850182612116565b5060408201516127476040850182612116565b50606082015161275a6060850182612116565b50505050565b61210781612b74565b60006108de82612171565b600061277f82612212565b915061278b828461211f565b50602001919050565b60006108de82612665565b602081016108de82846120fe565b61012081016127bc828c6120fe565b6127c9602083018b6120fe565b6127d6604083018a6120fe565b6127e360608301896120fe565b6127f06080830188612116565b6127fd60a0830187612116565b61280a60c0830186612116565b61281760e0830185612116565b612825610100830184612116565b9a9950505050505050505050565b6101008101612842828b6120fe565b61284f602083018a612116565b61285c6040830189612116565b6128696060830188612116565b6128766080830187612116565b61288360a0830186612116565b61289060c0830185612116565b61289d60e0830184612116565b9998505050505050505050565b602081016108de828461210d565b602081016108de8284612116565b608081016128d48287612116565b6128e16020830186612760565b6128ee6040830185612116565b6128fb6060830184612116565b95945050505050565b602081016108de8284612130565b6020808252810161145b8184612139565b602080825281016108de816121aa565b602080825281016108de816121e3565b602080825281016108de8161224b565b602080825281016108de81612284565b602080825281016108de816122bd565b602080825281016108de81612305565b602080825281016108de81612335565b602080825281016108de8161236e565b602080825281016108de816123a7565b602080825281016108de816123e0565b602080825281016108de8161240e565b602080825281016108de81612447565b602080825281016108de8161248a565b602080825281016108de816124cd565b602080825281016108de81612506565b602080825281016108de8161254a565b602080825281016108de8161259a565b602080825281016108de816125c6565b602080825281016108de816125ff565b602080825281016108de8161262c565b602080825281016108de8161269e565b602080825281016108de816126d7565b6101808101612a928286612710565b612a9f6080830185612710565b6112b2610100830184612710565b60608101612abb8286612116565b612ac86020830185612116565b6112b26040830184612116565b60808101612ae38287612116565b6128e16020830186612116565b60405181810167ffffffffffffffff81118282101715612b0f57600080fd5b604052919050565b600067ffffffffffffffff821115612b2e57600080fd5b5060209081020190565b5190565b90815260200190565b919050565b60006108de82612b68565b151590565b90565b60006108de82612b4a565b6001600160a01b031690565b60ff1690565b60005b83811015612b95578181015183820152602001612b7d565b8381111561275a5750506000910152565b601f01601f191690565b612bb981612b4a565b811461076f57600080fd5b612bb981612b5a565b612bb981612b5d565b612bb981612b7456fea365627a7a7231582040d921943e8ea993590285817a03c8ec3a9b1cd2b6e539b28fa29f235e5fae936c6578706572696d656e74616cf564736f6c63430005110040",
  "source": "pragma solidity 0.5.17;\npragma experimental ABIEncoderV2;\n\n// Contracts\nimport \"./Consensus.sol\";\n\n// Interfaces\nimport \"../interfaces/LoanTermsConsensusInterface.sol\";\n\n/*****************************************************************************************************/\n/**                                             WARNING                                             **/\n/**                                  THIS CONTRACT IS UPGRADEABLE!                                  **/\n/**  ---------------------------------------------------------------------------------------------  **/\n/**  Do NOT change the order of or PREPEND any storage variables to this or new versions of this    **/\n/**  contract as this will cause the the storage slots to be overwritten on the proxy contract!!    **/\n/**                                                                                                 **/\n/**  Visit https://docs.openzeppelin.com/upgrades/2.6/proxies#upgrading-via-the-proxy-pattern for   **/\n/**  more information.                                                                              **/\n/*****************************************************************************************************/\n/**\n    @notice This contract is used to process the loan requests through the Teller protocol\n\n    @author develop@teller.finance\n */\ncontract LoanTermsConsensus is LoanTermsConsensusInterface, Consensus {\n    /* Mappings */\n    /**\n        @notice It identifies the loan terms submissions for a given borrower address and a request nonce.\n\n        @dev Examples:\n            @address(0x123...567) => 1 => AccruedLoanTerms({...})\n            @address(0x123...567) => 2 => AccruedLoanTerms({...})\n            @address(0x234...678) => 1 => AccruedLoanTerms({...})\n     */\n    mapping(address => mapping(uint256 => TellerCommon.AccruedLoanTerms))\n        public termSubmissions;\n\n    /**\n        This mapping identify the last request timestamp for a given borrower address.\n\n            Example:    address(0x123...789) = timestamp(now)\n        \n        It is used as rate limit per borrower address.\n     */\n    mapping(address => uint256) public borrowerToLastLoanTermRequest;\n\n    /**\n        @notice Processes the loan request\n        @param request Struct of the protocol loan request\n        @param responses List of structs of the protocol loan responses\n        @return uint256 Interest rate\n        @return uint256 Collateral ratio\n        @return uint256 Maximum loan amount\n     */\n    function processRequest(\n        TellerCommon.LoanRequest calldata request,\n        TellerCommon.LoanResponse[] calldata responses\n    )\n        external\n        isInitialized()\n        isCaller(msg.sender)\n        returns (\n            uint256 interestRate,\n            uint256 collateralRatio,\n            uint256 maxLoanAmount\n        )\n    {\n        require(\n            responses.length >=\n                _getSettings().getPlatformSettingValue(\n                    _getSettings().consts().REQUIRED_SUBMISSIONS_SETTING()\n                ),\n            \"LOANTERM_INSUFFICIENT_RESPONSES\"\n        );\n        _requireRequestLoanTermsRateLimit(request);\n        require(\n            !requestNonceTaken[request.borrower][request.requestNonce],\n            \"LOAN_TERMS_REQUEST_NONCE_TAKEN\"\n        );\n        requestNonceTaken[request.borrower][request.requestNonce] = true;\n\n        bytes32 requestHash = _hashRequest(request);\n\n        for (uint256 i = 0; i < responses.length; i++) {\n            _processResponse(request, responses[i], requestHash);\n        }\n\n        interestRate = _getConsensus(\n            termSubmissions[request.borrower][request.requestNonce].interestRate\n        );\n        collateralRatio = _getConsensus(\n            termSubmissions[request.borrower][request.requestNonce].collateralRatio\n        );\n        maxLoanAmount = _getConsensus(\n            termSubmissions[request.borrower][request.requestNonce].maxLoanAmount\n        );\n        borrowerToLastLoanTermRequest[request.borrower] = now;\n\n        // TODO: Remove redundant event\n        emit TermsAccepted(\n            request.borrower,\n            request.requestNonce,\n            interestRate,\n            collateralRatio,\n            maxLoanAmount\n        );\n    }\n\n    /**\n        @notice Processes the loan response\n        @param request Struct of the protocol loan request\n        @param response List of structs of the protocol loan responses\n        @param requestHash bytes32 Hash of the loan request\n     */\n    function _processResponse(\n        TellerCommon.LoanRequest memory request,\n        TellerCommon.LoanResponse memory response,\n        bytes32 requestHash\n    ) internal {\n        bytes32 responseHash = _hashResponse(response, requestHash);\n\n        _validateResponse(\n            response.signer,\n            request.borrower,\n            request.requestNonce,\n            response.responseTime,\n            responseHash,\n            response.signature\n        );\n\n        termSubmissions[request.borrower][request.requestNonce].interestRate.addValue(\n            response.interestRate\n        );\n        termSubmissions[request.borrower][request.requestNonce].collateralRatio.addValue(\n            response.collateralRatio\n        );\n        termSubmissions[request.borrower][request.requestNonce].maxLoanAmount.addValue(\n            response.maxLoanAmount\n        );\n\n        emit TermsSubmitted(\n            response.signer,\n            request.borrower,\n            request.requestNonce,\n            response.signature.signerNonce,\n            response.interestRate,\n            response.collateralRatio,\n            response.maxLoanAmount\n        );\n    }\n\n    /**\n        @notice Generates a hash for the loan response\n        @param response Structs of the protocol loan responses\n        @param requestHash Hash of the loan request\n        @return bytes32 Hash of the loan response\n     */\n    function _hashResponse(TellerCommon.LoanResponse memory response, bytes32 requestHash)\n        internal\n        view\n        returns (bytes32)\n    {\n        return\n            keccak256(\n                abi.encode(\n                    response.consensusAddress,\n                    response.responseTime,\n                    response.interestRate,\n                    response.collateralRatio,\n                    response.maxLoanAmount,\n                    response.signature.signerNonce,\n                    _getChainId(),\n                    requestHash\n                )\n            );\n    }\n\n    /**\n        @notice Generates a hash for the loan request\n        @param request Struct of the protocol loan request\n        @return bytes32 Hash of the loan request\n     */\n    function _hashRequest(TellerCommon.LoanRequest memory request)\n        internal\n        view\n        returns (bytes32)\n    {\n        return\n            keccak256(\n                abi.encode(\n                    callerAddress,\n                    request.borrower,\n                    request.recipient,\n                    request.consensusAddress,\n                    request.requestNonce,\n                    request.amount,\n                    request.duration,\n                    request.requestTime,\n                    _getChainId()\n                )\n            );\n    }\n\n    /**\n        @notice It validates whether the time window between the last loan terms request and current one exceeds the maximum rate limit.\n        @param request the new request.\n        @dev It throws a require error if the request rate limit exceeds the maximum.\n     */\n    function _requireRequestLoanTermsRateLimit(TellerCommon.LoanRequest memory request)\n        internal\n        view\n    {\n        // In case it is the first time that borrower requests loan terms, we don't validate the rate limit.\n        if (borrowerToLastLoanTermRequest[request.borrower] == 0) {\n            return;\n        }\n        uint256 requestLoanTermsRateLimit = _getSettings().getPlatformSettingValue(\n            _getSettings().consts().REQUEST_LOAN_TERMS_RATE_LIMIT_SETTING()\n        );\n        require(\n            borrowerToLastLoanTermRequest[request.borrower].add(\n                requestLoanTermsRateLimit\n            ) <= now,\n            \"REQS_LOAN_TERMS_LMT_EXCEEDS_MAX\"\n        );\n    }\n}\n",
  "sourcePath": "/Users/sy/Documents/GitHub/teller-protocol-v1/contracts/base/LoanTermsConsensus.sol",
  "compiler": {
    "name": "solc",
    "version": "0.5.17+commit.d19bba13.Emscripten.clang"
  },
  "schemaVersion": "3.2.3",
  "updatedAt": "2020-12-28T20:49:13.032Z",
  "networkType": "ethereum",
  "devdoc": {
    "author": "develop@teller.finance",
    "methods": {
      "addSigner(address)": {
        "details": "The sender must be the owner.It throws a require error if the sender is not the owner.",
        "params": {
          "account": "address to add."
        }
      },
      "addSigners(address[])": {
        "details": "The sender must be the owner.It throws a require error if the sender is not the owner.",
        "params": {
          "accounts": "addresses to add."
        }
      },
      "initialize(address)": {
        "details": "Initializes the contract setting the deployer as the initial owner."
      },
      "initialize(address,address,address)": {
        "details": "The caller address must be the loans contract for LoanTermsConsensus, and the lenders contract for InterestConsensus.",
        "params": {
          "aCallerAddress": "the contract that will call it.",
          "aSettingAddress": "the settings contract address.",
          "owner": "the owner address."
        }
      },
      "initialized()": {
        "return": "true if contract is initialized. Otherwise it returns false."
      },
      "isOwner()": {
        "details": "Returns true if the caller is the current owner."
      },
      "isSigner(address)": {
        "params": {
          "account": "address to test."
        },
        "return": "true if account is a signer. Otherwise it returns false."
      },
      "owner()": {
        "details": "Returns the address of the current owner."
      },
      "processRequest((address,address,address,uint256,uint256,uint256,uint256),(address,address,uint256,uint256,uint256,uint256,(uint256,uint8,bytes32,bytes32))[])": {
        "params": {
          "request": "Struct of the protocol loan request",
          "responses": "List of structs of the protocol loan responses"
        },
        "return": "uint256 Interest rateuint256 Collateral ratiouint256 Maximum loan amount"
      },
      "removeSigner(address)": {
        "details": "The sender must be the owner.It throws a require error if the sender is not the owner.",
        "params": {
          "account": "address to remove."
        }
      },
      "renounceOwnership()": {
        "details": "Leaves the contract without owner. It will not be possible to call `onlyOwner` functions anymore. Can only be called by the current owner.     * > Note: Renouncing ownership will leave the contract without an owner, thereby removing any functionality that is only available to the owner."
      },
      "settings()": {
        "details": "This address should NOT change over the time. See details in the _setSettings(...) function."
      },
      "transferOwnership(address)": {
        "details": "Transfers ownership of the contract to a new account (`newOwner`). Can only be called by the current owner."
      }
    }
  },
  "userdoc": {
    "methods": {
      "addSigner(address)": {
        "notice": "It adds a new account as a signer."
      },
      "addSigners(address[])": {
        "notice": "It adds a list of account as signers."
      },
      "initialize(address,address,address)": {
        "notice": "It initializes this consensus contract."
      },
      "initialized()": {
        "notice": "Gets if the contract is initialized."
      },
      "isSigner(address)": {
        "notice": "Gets whether an account address is a signer or not."
      },
      "processRequest((address,address,address,uint256,uint256,uint256,uint256),(address,address,uint256,uint256,uint256,uint256,(uint256,uint8,bytes32,bytes32))[])": {
        "notice": "Processes the loan request"
      },
      "removeSigner(address)": {
        "notice": "It removes an account as signer."
      },
      "settings()": {
        "notice": "The gets the settings contract address from the SETTINGS_SLOT."
      }
    },
    "notice": "This contract is used to process the loan requests through the Teller protocol"
  }
}