{
  "contractName": "LoanTermsConsensus",
  "abi": [
    {
      "anonymous": false,
      "inputs": [
        {
          "indexed": true,
          "internalType": "address",
          "name": "previousOwner",
          "type": "address"
        },
        {
          "indexed": true,
          "internalType": "address",
          "name": "newOwner",
          "type": "address"
        }
      ],
      "name": "OwnershipTransferred",
      "type": "event"
    },
    {
      "anonymous": false,
      "inputs": [
        {
          "indexed": true,
          "internalType": "address",
          "name": "account",
          "type": "address"
        }
      ],
      "name": "SignerAdded",
      "type": "event"
    },
    {
      "anonymous": false,
      "inputs": [
        {
          "indexed": true,
          "internalType": "address",
          "name": "account",
          "type": "address"
        }
      ],
      "name": "SignerRemoved",
      "type": "event"
    },
    {
      "anonymous": false,
      "inputs": [
        {
          "indexed": true,
          "internalType": "address",
          "name": "borrower",
          "type": "address"
        },
        {
          "indexed": true,
          "internalType": "uint256",
          "name": "requestNonce",
          "type": "uint256"
        },
        {
          "indexed": false,
          "internalType": "uint256",
          "name": "interestRate",
          "type": "uint256"
        },
        {
          "indexed": false,
          "internalType": "uint256",
          "name": "collateralRatio",
          "type": "uint256"
        },
        {
          "indexed": false,
          "internalType": "uint256",
          "name": "maxLoanAmount",
          "type": "uint256"
        }
      ],
      "name": "TermsAccepted",
      "type": "event"
    },
    {
      "anonymous": false,
      "inputs": [
        {
          "indexed": true,
          "internalType": "address",
          "name": "signer",
          "type": "address"
        },
        {
          "indexed": true,
          "internalType": "address",
          "name": "borrower",
          "type": "address"
        },
        {
          "indexed": true,
          "internalType": "uint256",
          "name": "requestNonce",
          "type": "uint256"
        },
        {
          "indexed": false,
          "internalType": "uint256",
          "name": "interestRate",
          "type": "uint256"
        },
        {
          "indexed": false,
          "internalType": "uint256",
          "name": "collateralRatio",
          "type": "uint256"
        },
        {
          "indexed": false,
          "internalType": "uint256",
          "name": "maxLoanAmount",
          "type": "uint256"
        }
      ],
      "name": "TermsSubmitted",
      "type": "event"
    },
    {
      "constant": true,
      "inputs": [],
      "name": "_signerCount",
      "outputs": [
        {
          "internalType": "uint256",
          "name": "",
          "type": "uint256"
        }
      ],
      "payable": false,
      "stateMutability": "view",
      "type": "function"
    },
    {
      "constant": false,
      "inputs": [
        {
          "internalType": "address",
          "name": "account",
          "type": "address"
        }
      ],
      "name": "addSigner",
      "outputs": [],
      "payable": false,
      "stateMutability": "nonpayable",
      "type": "function"
    },
    {
      "constant": false,
      "inputs": [
        {
          "internalType": "address[]",
          "name": "accounts",
          "type": "address[]"
        }
      ],
      "name": "addSigners",
      "outputs": [],
      "payable": false,
      "stateMutability": "nonpayable",
      "type": "function"
    },
    {
      "constant": true,
      "inputs": [
        {
          "internalType": "address",
          "name": "",
          "type": "address"
        }
      ],
      "name": "borrowerToLastLoanTermRequest",
      "outputs": [
        {
          "internalType": "uint256",
          "name": "",
          "type": "uint256"
        }
      ],
      "payable": false,
      "stateMutability": "view",
      "type": "function"
    },
    {
      "constant": true,
      "inputs": [],
      "name": "callerAddress",
      "outputs": [
        {
          "internalType": "address",
          "name": "",
          "type": "address"
        }
      ],
      "payable": false,
      "stateMutability": "view",
      "type": "function"
    },
    {
      "constant": true,
      "inputs": [
        {
          "internalType": "address",
          "name": "",
          "type": "address"
        },
        {
          "internalType": "address",
          "name": "",
          "type": "address"
        },
        {
          "internalType": "uint256",
          "name": "",
          "type": "uint256"
        }
      ],
      "name": "hasSubmitted",
      "outputs": [
        {
          "internalType": "bool",
          "name": "",
          "type": "bool"
        }
      ],
      "payable": false,
      "stateMutability": "view",
      "type": "function"
    },
    {
      "constant": false,
      "inputs": [],
      "name": "initialize",
      "outputs": [],
      "payable": false,
      "stateMutability": "nonpayable",
      "type": "function"
    },
    {
      "constant": false,
      "inputs": [
        {
          "internalType": "address",
          "name": "owner",
          "type": "address"
        },
        {
          "internalType": "address",
          "name": "aCallerAddress",
          "type": "address"
        },
        {
          "internalType": "address",
          "name": "aSettingAddress",
          "type": "address"
        }
      ],
      "name": "initialize",
      "outputs": [],
      "payable": false,
      "stateMutability": "nonpayable",
      "type": "function"
    },
    {
      "constant": false,
      "inputs": [
        {
          "internalType": "address",
          "name": "sender",
          "type": "address"
        }
      ],
      "name": "initialize",
      "outputs": [],
      "payable": false,
      "stateMutability": "nonpayable",
      "type": "function"
    },
    {
      "constant": true,
      "inputs": [],
      "name": "initialized",
      "outputs": [
        {
          "internalType": "bool",
          "name": "value",
          "type": "bool"
        }
      ],
      "payable": false,
      "stateMutability": "view",
      "type": "function"
    },
    {
      "constant": true,
      "inputs": [],
      "name": "isOwner",
      "outputs": [
        {
          "internalType": "bool",
          "name": "",
          "type": "bool"
        }
      ],
      "payable": false,
      "stateMutability": "view",
      "type": "function"
    },
    {
      "constant": true,
      "inputs": [
        {
          "internalType": "address",
          "name": "account",
          "type": "address"
        }
      ],
      "name": "isSigner",
      "outputs": [
        {
          "internalType": "bool",
          "name": "",
          "type": "bool"
        }
      ],
      "payable": false,
      "stateMutability": "view",
      "type": "function"
    },
    {
      "constant": true,
      "inputs": [],
      "name": "owner",
      "outputs": [
        {
          "internalType": "address",
          "name": "",
          "type": "address"
        }
      ],
      "payable": false,
      "stateMutability": "view",
      "type": "function"
    },
    {
      "constant": false,
      "inputs": [
        {
          "internalType": "address",
          "name": "account",
          "type": "address"
        }
      ],
      "name": "removeSigner",
      "outputs": [],
      "payable": false,
      "stateMutability": "nonpayable",
      "type": "function"
    },
    {
      "constant": false,
      "inputs": [],
      "name": "renounceOwnership",
      "outputs": [],
      "payable": false,
      "stateMutability": "nonpayable",
      "type": "function"
    },
    {
      "constant": true,
      "inputs": [
        {
          "internalType": "address",
          "name": "",
          "type": "address"
        },
        {
          "internalType": "uint256",
          "name": "",
          "type": "uint256"
        }
      ],
      "name": "requestNonceTaken",
      "outputs": [
        {
          "internalType": "bool",
          "name": "",
          "type": "bool"
        }
      ],
      "payable": false,
      "stateMutability": "view",
      "type": "function"
    },
    {
      "constant": true,
      "inputs": [],
      "name": "settings",
      "outputs": [
        {
          "internalType": "contract SettingsInterface",
          "name": "",
          "type": "address"
        }
      ],
      "payable": false,
      "stateMutability": "view",
      "type": "function"
    },
    {
      "constant": true,
      "inputs": [
        {
          "internalType": "address",
          "name": "",
          "type": "address"
        },
        {
          "internalType": "uint256",
          "name": "",
          "type": "uint256"
        }
      ],
      "name": "termSubmissions",
      "outputs": [
        {
          "components": [
            {
              "internalType": "uint256",
              "name": "count",
              "type": "uint256"
            },
            {
              "internalType": "uint256",
              "name": "max",
              "type": "uint256"
            },
            {
              "internalType": "uint256",
              "name": "min",
              "type": "uint256"
            },
            {
              "internalType": "uint256",
              "name": "sum",
              "type": "uint256"
            }
          ],
          "internalType": "struct NumbersList.Values",
          "name": "interestRate",
          "type": "tuple"
        },
        {
          "components": [
            {
              "internalType": "uint256",
              "name": "count",
              "type": "uint256"
            },
            {
              "internalType": "uint256",
              "name": "max",
              "type": "uint256"
            },
            {
              "internalType": "uint256",
              "name": "min",
              "type": "uint256"
            },
            {
              "internalType": "uint256",
              "name": "sum",
              "type": "uint256"
            }
          ],
          "internalType": "struct NumbersList.Values",
          "name": "collateralRatio",
          "type": "tuple"
        },
        {
          "components": [
            {
              "internalType": "uint256",
              "name": "count",
              "type": "uint256"
            },
            {
              "internalType": "uint256",
              "name": "max",
              "type": "uint256"
            },
            {
              "internalType": "uint256",
              "name": "min",
              "type": "uint256"
            },
            {
              "internalType": "uint256",
              "name": "sum",
              "type": "uint256"
            }
          ],
          "internalType": "struct NumbersList.Values",
          "name": "maxLoanAmount",
          "type": "tuple"
        }
      ],
      "payable": false,
      "stateMutability": "view",
      "type": "function"
    },
    {
      "constant": false,
      "inputs": [
        {
          "internalType": "address",
          "name": "newOwner",
          "type": "address"
        }
      ],
      "name": "transferOwnership",
      "outputs": [],
      "payable": false,
      "stateMutability": "nonpayable",
      "type": "function"
    },
    {
      "constant": false,
      "inputs": [
        {
          "components": [
            {
              "internalType": "address payable",
              "name": "borrower",
              "type": "address"
            },
            {
              "internalType": "address",
              "name": "recipient",
              "type": "address"
            },
            {
              "internalType": "address",
              "name": "consensusAddress",
              "type": "address"
            },
            {
              "internalType": "uint256",
              "name": "requestNonce",
              "type": "uint256"
            },
            {
              "internalType": "uint256",
              "name": "amount",
              "type": "uint256"
            },
            {
              "internalType": "uint256",
              "name": "duration",
              "type": "uint256"
            },
            {
              "internalType": "uint256",
              "name": "requestTime",
              "type": "uint256"
            },
            {
              "internalType": "bytes32",
              "name": "minaProofIdHash",
              "type": "bytes32"
            }
          ],
          "internalType": "struct TellerCommon.LoanRequest",
          "name": "request",
          "type": "tuple"
        },
        {
          "components": [
            {
              "internalType": "address",
              "name": "signer",
              "type": "address"
            },
            {
              "internalType": "address",
              "name": "consensusAddress",
              "type": "address"
            },
            {
              "internalType": "uint256",
              "name": "responseTime",
              "type": "uint256"
            },
            {
              "internalType": "uint256",
              "name": "interestRate",
              "type": "uint256"
            },
            {
              "internalType": "uint256",
              "name": "collateralRatio",
              "type": "uint256"
            },
            {
              "internalType": "uint256",
              "name": "maxLoanAmount",
              "type": "uint256"
            },
            {
              "components": [
                {
                  "internalType": "uint8",
                  "name": "v",
                  "type": "uint8"
                },
                {
                  "internalType": "bytes32",
                  "name": "r",
                  "type": "bytes32"
                },
                {
                  "internalType": "bytes32",
                  "name": "s",
                  "type": "bytes32"
                }
              ],
              "internalType": "struct TellerCommon.Signature",
              "name": "signature",
              "type": "tuple"
            }
          ],
          "internalType": "struct TellerCommon.LoanResponse[]",
          "name": "responses",
          "type": "tuple[]"
        }
      ],
      "name": "processRequest",
      "outputs": [
        {
          "internalType": "uint256",
          "name": "interestRate",
          "type": "uint256"
        },
        {
          "internalType": "uint256",
          "name": "collateralRatio",
          "type": "uint256"
        },
        {
          "internalType": "uint256",
          "name": "maxLoanAmount",
          "type": "uint256"
        }
      ],
      "payable": false,
      "stateMutability": "nonpayable",
      "type": "function"
    }
  ],
  "bytecode": "0x6080604052612d99806100136000396000f3fe608060405234801561001057600080fd5b506004361061012c5760003560e01c80639f24a12d116100ad578063e8906a2d11610071578063e8906a2d1461025e578063eb12d61e14610271578063f2fde38b14610284578063faa8aab114610297578063fb98d9e21461029f5761012c565b80639f24a12d146101ee578063abefdbd314610201578063c0c53b8b14610223578063c4d66de814610236578063e06174e4146102495761012c565b80637df73e27116100f45780637df73e27146101a35780638129fc1c146101b65780638da5cb5b146101be5780638f32d59b146101d357806399ffe065146101db5761012c565b80630e316ab714610131578063158ef93e146101465780632aac635e1461016457806350f1dedc14610186578063715018a61461019b575b600080fd5b61014461013f366004611fd0565b6102b2565b005b61014e6102eb565b60405161015b9190612a1c565b60405180910390f35b61017761017236600461207e565b61030d565b60405161015b93929190612c0c565b61018e6103b6565b60405161015b9190612a2a565b6101446103bc565b61014e6101b1366004611fd0565b61042a565b610144610443565b6101c66104ca565b60405161015b9190612911565b61014e6104d9565b61014e6101e936600461203b565b6104ff565b61018e6101fc366004611fd0565b610525565b61021461020f366004612129565b610537565b60405161015b93929190612c36565b610144610231366004611fee565b6109d1565b610144610244366004611fd0565b610a5a565b610251610b2d565b60405161015b9190612a6d565b61014461026c3660046120b8565b610b3c565b61014461027f366004611fd0565b610bc4565b610144610292366004611fd0565b610bf1565b6101c6610c1e565b61014e6102ad36600461207e565b610c2d565b6102ba6104d9565b6102df5760405162461bcd60e51b81526004016102d690612b8c565b60405180910390fd5b6102e881610c4d565b50565b60008060016040516102fc906128db565b604051908190039020035492915050565b609e60209081526000928352604080842082529183529181902081516080808201845282548252600183015482860152600283015482850152600383015460608084019190915284518083018652600485015481526005850154818801526006850154818701526007850154818301528551928301865260088501548352600985015496830196909652600a84015494820194909452600b909201549282019290925290919083565b609a5481565b6103c46104d9565b6103e05760405162461bcd60e51b81526004016102d690612b8c565b6066546040516000916001600160a01b0316907f8be0079c531659141344cd1fd0a4f28419497f9722a3daafe3b4186f6b6457e0908390a3606680546001600160a01b0319169055565b600061043d60998363ffffffff610c9f16565b92915050565b600054610100900460ff168061045c575061045c610ce7565b8061046a575060005460ff16155b6104865760405162461bcd60e51b81526004016102d690612bac565b600054610100900460ff161580156104b1576000805460ff1961ff0019909116610100171660011790555b600160335580156102e8576000805461ff001916905550565b6066546001600160a01b031690565b6066546000906001600160a01b03166104f0610ced565b6001600160a01b031614905090565b609b60209081526000938452604080852082529284528284209052825290205460ff1681565b609f6020526000908152604090205481565b60008060006105446102eb565b6105605760405162461bcd60e51b81526004016102d690612bec565b3361056a81610cf1565b6105865760405162461bcd60e51b81526004016102d690612bdc565b846000610591610d05565b6001600160a01b0316631362fee76105a7610d05565b6001600160a01b031663d86d744e6040518163ffffffff1660e01b815260040160206040518083038186803b1580156105df57600080fd5b505afa1580156105f3573d6000803e3d6000fd5b505050506040513d601f19601f82011682018060405250610617919081019061210b565b6001600160a01b031663770f6c746040518163ffffffff1660e01b815260040160206040518083038186803b15801561064f57600080fd5b505afa158015610663573d6000803e3d6000fd5b505050506040513d601f19601f8201168201806040525061068791908101906120ed565b6040518263ffffffff1660e01b81526004016106a39190612a2a565b60806040518083038186803b1580156106bb57600080fd5b505afa1580156106cf573d6000803e3d6000fd5b505050506040513d601f19601f820116820180604052506106f391908101906121bf565b51609a54909150819061070d90849063ffffffff610d2a16565b101561072b5760405162461bcd60e51b81526004016102d690612b2c565b61074261073d368b90038b018b612181565b610d5b565b609d600061075360208c018c611fd0565b6001600160a01b031681526020808201929092526040908101600090812060608d0135825290925290205460ff161561079e5760405162461bcd60e51b81526004016102d690612abc565b6001609d60006107b160208d018d611fd0565b6001600160a01b031681526020808201929092526040908101600090812060608e013582529092528120805460ff1916921515929092179091556108026107fd368c90038c018c612181565b610f37565b905060005b888110156108525761084a610821368d90038d018d612181565b8b8b8481811061082d57fe5b9050610120020180360361084491908101906121a0565b84610fb5565b600101610807565b50610896609e600061086760208e018e611fd0565b6001600160a01b031681526020808201929092526040908101600090812060608f013582529092529020611112565b96506108e9609e60006108ac60208e018e611fd0565b6001600160a01b03166001600160a01b0316815260200190815260200160002060008c606001358152602001908152602001600020600401611112565b955061093c609e60006108ff60208e018e611fd0565b6001600160a01b03166001600160a01b0316815260200190815260200160002060008c606001358152602001908152602001600020600801611112565b945042609f600061095060208e018e611fd0565b6001600160a01b031681526020808201929092526040016000209190915560608b013590610980908c018c611fd0565b6001600160a01b03167f658dfc9759b55173ea96c7bd8d4ad2c3e3804d28d83d2e1a25569a2fecb672088989896040516109bc93929190612c36565b60405180910390a35050505093509350939050565b6109d96102eb565b156109f65760405162461bcd60e51b81526004016102d690612bfc565b610a08826001600160a01b03166112b3565b610a245760405162461bcd60e51b81526004016102d690612b3c565b610a2d83610a5a565b610a36816112ef565b50609c80546001600160a01b0319166001600160a01b039290921691909117905550565b600054610100900460ff1680610a735750610a73610ce7565b80610a81575060005460ff16155b610a9d5760405162461bcd60e51b81526004016102d690612bac565b600054610100900460ff16158015610ac8576000805460ff1961ff0019909116610100171660011790555b606680546001600160a01b0319166001600160a01b0384811691909117918290556040519116906000907f8be0079c531659141344cd1fd0a4f28419497f9722a3daafe3b4186f6b6457e0908290a38015610b29576000805461ff00191690555b5050565b6000610b37610d05565b905090565b610b446104d9565b610b605760405162461bcd60e51b81526004016102d690612b8c565b6000815111610b815760405162461bcd60e51b81526004016102d690612aac565b60005b8151811015610b29576000828281518110610b9b57fe5b60200260200101519050610bae8161042a565b610bbb57610bbb81611373565b50600101610b84565b610bcc6104d9565b610be85760405162461bcd60e51b81526004016102d690612b8c565b6102e881611373565b610bf96104d9565b610c155760405162461bcd60e51b81526004016102d690612b8c565b6102e8816113c4565b609c546001600160a01b031681565b609d60209081526000928352604080842090915290825290205460ff1681565b610c5e60998263ffffffff61144616565b609a80546000190190556040516001600160a01b038216907f3525e22824a8a7df2c9a6029941c824cf95b6447f1e13d5128fd3826d35afe8b90600090a250565b60006001600160a01b038216610cc75760405162461bcd60e51b81526004016102d690612b9c565b506001600160a01b03166000908152602091909152604090205460ff1690565b303b1590565b3390565b609c546001600160a01b0391821691161490565b60008060006001604051610d1890612906565b60405190819003902003549250505090565b6000610d5482610d48610d3b61148e565b869063ffffffff61149416565b9063ffffffff6114ce16565b9392505050565b80516001600160a01b03166000908152609f6020526040902054610d7e576102e8565b6000610d88610d05565b6001600160a01b031663269012a0610d9e610d05565b6001600160a01b031663d86d744e6040518163ffffffff1660e01b815260040160206040518083038186803b158015610dd657600080fd5b505afa158015610dea573d6000803e3d6000fd5b505050506040513d601f19601f82011682018060405250610e0e919081019061210b565b6001600160a01b0316633b98dfdb6040518163ffffffff1660e01b815260040160206040518083038186803b158015610e4657600080fd5b505afa158015610e5a573d6000803e3d6000fd5b505050506040513d601f19601f82011682018060405250610e7e91908101906120ed565b6040518263ffffffff1660e01b8152600401610e9a9190612a2a565b60206040518083038186803b158015610eb257600080fd5b505afa158015610ec6573d6000803e3d6000fd5b505050506040513d601f19601f82011682018060405250610eea91908101906120ed565b82516001600160a01b03166000908152609f60205260409020549091504290610f19908363ffffffff61151016565b1115610b295760405162461bcd60e51b81526004016102d690612b4c565b6000609c60009054906101000a90046001600160a01b0316826000015183602001518460400151856060015186608001518760a001518860c001518960e00151610f7f611535565b604051602001610f989a9998979695949392919061291f565b604051602081830303815290604052805190602001209050919050565b6000610fc18383611539565b835185516060870151604087015160c0880151949550610fe2948690611591565b60608084015185516001600160a01b03166000908152609e60209081526040808320948901518352939052919091206110209163ffffffff6117df16565b608083015184516001600160a01b03166000908152609e602090815260408083206060890151845290915290206110629160049091019063ffffffff6117df16565b60a083015184516001600160a01b03166000908152609e602090815260408083206060890151845290915290206110a49160089091019063ffffffff6117df16565b836060015184600001516001600160a01b031684600001516001600160a01b03167f75ec6e4b3d626c9ecaff859275e3ee99bd0d25d81a798938dcc15b49baffc24d866060015187608001518860a0015160405161110493929190612c36565b60405180910390a450505050565b600061128e61111f610d05565b6001600160a01b031663269012a0611135610d05565b6001600160a01b031663d86d744e6040518163ffffffff1660e01b815260040160206040518083038186803b15801561116d57600080fd5b505afa158015611181573d6000803e3d6000fd5b505050506040513d601f19601f820116820180604052506111a5919081019061210b565b6001600160a01b031663c41dd8ce6040518163ffffffff1660e01b815260040160206040518083038186803b1580156111dd57600080fd5b505afa1580156111f1573d6000803e3d6000fd5b505050506040513d601f19601f8201168201806040525061121591908101906120ed565b6040518263ffffffff1660e01b81526004016112319190612a2a565b60206040518083038186803b15801561124957600080fd5b505afa15801561125d573d6000803e3d6000fd5b505050506040513d601f19601f8201168201806040525061128191908101906120ed565b839063ffffffff61184416565b6112aa5760405162461bcd60e51b81526004016102d690612aec565b61043d826118e3565b6000813f7fc5d2460186f7233c927e7db2dcc703c0e500b653ca82273b7bfad8045d85a4708181148015906112e757508115155b949350505050565b6112f76102eb565b156113145760405162461bcd60e51b81526004016102d690612bfc565b60408051808201909152601981527f53455454494e47535f4d5553545f42455f50524f5649444544000000000000006020820152611362906001600160a01b0383169063ffffffff61191c16565b61136a611949565b6102e88161196b565b61138460998263ffffffff6119dd16565b609a805460010190556040516001600160a01b038216907f47d1c22a25bb3a5d4e481b9b1e6944c2eade3181a0a20b495ed61d35b5323f2490600090a250565b6001600160a01b0381166113ea5760405162461bcd60e51b81526004016102d690612adc565b6066546040516001600160a01b038084169216907f8be0079c531659141344cd1fd0a4f28419497f9722a3daafe3b4186f6b6457e090600090a3606680546001600160a01b0319166001600160a01b0392909216919091179055565b6114508282610c9f565b61146c5760405162461bcd60e51b81526004016102d690612b5c565b6001600160a01b0316600090815260209190915260409020805460ff19169055565b61271090565b6000826114a35750600061043d565b828202828482816114b057fe5b0414610d545760405162461bcd60e51b81526004016102d690612b7c565b6000610d5483836040518060400160405280601a81526020017f536166654d6174683a206469766973696f6e206279207a65726f000000000000815250611a29565b600082820183811015610d545760405162461bcd60e51b81526004016102d690612afc565b4690565b600082602001518360400151846060015185608001518660a0015161155c611535565b8760405160200161157397969594939291906129b4565b60405160208183030381529060405280519060200120905092915050565b6001600160a01b038087166000908152609b6020908152604080832093891683529281528282208783529052205460ff16156115df5760405162461bcd60e51b81526004016102d690612acc565b6001600160a01b038087166000908152609b602090815260408083209389168352928152828220878352905220805460ff19166001179055611791611622610d05565b6001600160a01b031663269012a0611638610d05565b6001600160a01b031663d86d744e6040518163ffffffff1660e01b815260040160206040518083038186803b15801561167057600080fd5b505afa158015611684573d6000803e3d6000fd5b505050506040513d601f19601f820116820180604052506116a8919081019061210b565b6001600160a01b031663e3f33d006040518163ffffffff1660e01b815260040160206040518083038186803b1580156116e057600080fd5b505afa1580156116f4573d6000803e3d6000fd5b505050506040513d601f19601f8201168201806040525061171891908101906120ed565b6040518263ffffffff1660e01b81526004016117349190612a2a565b60206040518083038186803b15801561174c57600080fd5b505afa158015611760573d6000803e3d6000fd5b505050506040513d601f19601f8201168201806040525061178491908101906120ed565b429063ffffffff611a6016565b8310156117b05760405162461bcd60e51b81526004016102d690612bbc565b6117bb818388611aa2565b6117d75760405162461bcd60e51b81526004016102d690612bcc565b505050505050565b80826001015410156117f357600182018190555b808260020154118061180457508154155b1561181157600282018190555b6003820154611826908263ffffffff61151016565b6003830155815461183e90600163ffffffff61151016565b90915550565b600061184f83611b12565b1561185c5750600061043d565b6000611867846118e3565b9050600061187b828563ffffffff611b2416565b9050600061188f838363ffffffff611a6016565b905080866002015410156118a9576000935050505061043d565b60006118bb848463ffffffff61151016565b905080876001015411156118d657600094505050505061043d565b5060019695505050505050565b60006118ee82611b12565b6119145761190f6118fe83611b41565b60038401549063ffffffff6114ce16565b61043d565b506000919050565b61192582611b45565b81906119445760405162461bcd60e51b81526004016102d69190612a7b565b505050565b60006001604051611959906128db565b60405190819003902060019190035550565b611984611976610d05565b6001600160a01b0316611b45565b1561198e576102e8565b6119a0816001600160a01b03166112b3565b6119bc5760405162461bcd60e51b81526004016102d690612b0c565b600060016040516119cc90612906565b604051908190039020038290555050565b6119e78282610c9f565b15611a045760405162461bcd60e51b81526004016102d690612a9c565b6001600160a01b0316600090815260209190915260409020805460ff19166001179055565b60008183611a4a5760405162461bcd60e51b81526004016102d69190612a7b565b506000838581611a5657fe5b0495945050505050565b6000610d5483836040518060400160405280601e81526020017f536166654d6174683a207375627472616374696f6e206f766572666c6f770000815250611b53565b6000611aad8261042a565b611ab957506000610d54565b6000611af984604051602001611acf91906128e6565b60405160208183030381529060405280519060200120866000015187602001518860400151611b7f565b6001600160a01b03908116908416149150509392505050565b6000611b1d82611b41565b1592915050565b6000610d54611b3161148e565b610d48858563ffffffff61149416565b5490565b6001600160a01b0316151590565b60008184841115611b775760405162461bcd60e51b81526004016102d69190612a7b565b505050900390565b60007f7fffffffffffffffffffffffffffffff5d576e7357a4501ddfe92f46681b20a0821115611bc15760405162461bcd60e51b81526004016102d690612b1c565b8360ff16601b1480611bd657508360ff16601c145b611bf25760405162461bcd60e51b81526004016102d690612b6c565b600060018686868660405160008152602001604052604051611c179493929190612a38565b6020604051602081039080840390855afa158015611c39573d6000803e3d6000fd5b5050604051601f1901519150506001600160a01b038116611c6c5760405162461bcd60e51b81526004016102d690612a8c565b95945050505050565b803561043d81612d1e565b600082601f830112611c9157600080fd5b8135611ca4611c9f82612c85565b612c5e565b91508181835260208401935060208101905083856020840282011115611cc957600080fd5b60005b83811015611cf55781611cdf8882611c75565b8452506020928301929190910190600101611ccc565b5050505092915050565b60008083601f840112611d1157600080fd5b50813567ffffffffffffffff811115611d2957600080fd5b60208301915083610120820283011115611d4257600080fd5b9250929050565b805161043d81612d32565b803561043d81612d3b565b805161043d81612d3b565b805161043d81612d44565b60006101008284031215611d8857600080fd5b50919050565b60006101008284031215611da157600080fd5b611dac610100612c5e565b90506000611dba8484611c75565b8252506020611dcb84848301611c75565b6020830152506040611ddf84828501611c75565b6040830152506060611df384828501611d54565b6060830152506080611e0784828501611d54565b60808301525060a0611e1b84828501611d54565b60a08301525060c0611e2f84828501611d54565b60c08301525060e0611e4384828501611d54565b60e08301525092915050565b60006101208284031215611e6257600080fd5b611e6c60e0612c5e565b90506000611e7a8484611c75565b8252506020611e8b84848301611c75565b6020830152506040611e9f84828501611d54565b6040830152506060611eb384828501611d54565b6060830152506080611ec784828501611d54565b60808301525060a0611edb84828501611d54565b60a08301525060c0611eef84828501611f6a565b60c08301525092915050565b600060808284031215611f0d57600080fd5b611f176080612c5e565b90506000611f258484611d5f565b8252506020611f3684848301611d5f565b6020830152506040611f4a84828501611d5f565b6040830152506060611f5e84828501611d49565b60608301525092915050565b600060608284031215611f7c57600080fd5b611f866060612c5e565b90506000611f948484611fc5565b8252506020611fa584848301611d54565b6020830152506040611fb984828501611d54565b60408301525092915050565b803561043d81612d4d565b600060208284031215611fe257600080fd5b60006112e78484611c75565b60008060006060848603121561200357600080fd5b600061200f8686611c75565b935050602061202086828701611c75565b925050604061203186828701611c75565b9150509250925092565b60008060006060848603121561205057600080fd5b600061205c8686611c75565b935050602061206d86828701611c75565b925050604061203186828701611d54565b6000806040838503121561209157600080fd5b600061209d8585611c75565b92505060206120ae85828601611d54565b9150509250929050565b6000602082840312156120ca57600080fd5b813567ffffffffffffffff8111156120e157600080fd5b6112e784828501611c80565b6000602082840312156120ff57600080fd5b60006112e78484611d5f565b60006020828403121561211d57600080fd5b60006112e78484611d6a565b6000806000610120848603121561213f57600080fd5b600061214b8686611d75565b93505061010084013567ffffffffffffffff81111561216957600080fd5b61217586828701611cff565b92509250509250925092565b6000610100828403121561219457600080fd5b60006112e78484611d8e565b600061012082840312156121b357600080fd5b60006112e78484611e4f565b6000608082840312156121d157600080fd5b60006112e78484611efb565b6121e681612cb8565b82525050565b6121e681612cc3565b6121e681612cc8565b6121e661220a82612cc8565b612cc8565b6121e681612ccb565b600061222382612ca6565b61222d8185612caa565b935061223d818560208601612ce8565b61224681612d14565b9093019392505050565b600061225d601883612caa565b7f45434453413a20696e76616c6964207369676e61747572650000000000000000815260200192915050565b6000612296601c83612cb3565b7f54496e697469616c697a61626c652e6973496e697469616c697a6564000000008152601c0192915050565b60006122cf601f83612caa565b7f526f6c65733a206163636f756e7420616c72656164792068617320726f6c6500815260200192915050565b6000612308601383612caa565b724143434f554e54535f4c4953545f454d50545960681b815260200192915050565b6000612337601c83612cb3565b7f19457468657265756d205369676e6564204d6573736167653a0a3332000000008152601c0192915050565b6000612370601e83612caa565b7f4c4f414e5f5445524d535f524551554553545f4e4f4e43455f54414b454e0000815260200192915050565b60006123a9601883612caa565b7f5349474e45525f414c52454144595f5355424d49545445440000000000000000815260200192915050565b60006123e2602683612caa565b7f4f776e61626c653a206e6577206f776e657220697320746865207a65726f206181526564647265737360d01b602082015260400192915050565b600061242a601483612caa565b73149154d413d394d154d7d513d3d7d5905492515160621b815260200192915050565b600061245a601b83612caa565b7f536166654d6174683a206164646974696f6e206f766572666c6f770000000000815260200192915050565b6000612493601b83612caa565b7f53455454494e47535f4d5553545f42455f415f434f4e54524143540000000000815260200192915050565b60006124cc602283612caa565b7f45434453413a20696e76616c6964207369676e6174757265202773272076616c815261756560f01b602082015260400192915050565b6000612510602083612caa565b7f494e53554646494349454e545f4e554d4245525f4f465f524553504f4e534553815260200192915050565b6000612549601783612caa565b7f43414c4c45525f4d5553545f42455f434f4e5452414354000000000000000000815260200192915050565b6000612582601f83612caa565b7f524551535f4c4f414e5f5445524d535f4c4d545f455843454544535f4d415800815260200192915050565b60006125bb602183612caa565b7f526f6c65733a206163636f756e7420646f6573206e6f74206861766520726f6c8152606560f81b602082015260400192915050565b60006125fe602283612caa565b7f45434453413a20696e76616c6964207369676e6174757265202776272076616c815261756560f01b602082015260400192915050565b6000612642602183612caa565b7f536166654d6174683a206d756c7469706c69636174696f6e206f766572666c6f8152607760f81b602082015260400192915050565b6000612685602083612caa565b7f4f776e61626c653a2063616c6c6572206973206e6f7420746865206f776e6572815260200192915050565b60006126be602283612caa565b7f526f6c65733a206163636f756e7420697320746865207a65726f206164647265815261737360f01b602082015260400192915050565b6000612702602e83612caa565b7f436f6e747261637420696e7374616e63652068617320616c726561647920626581526d195b881a5b9a5d1a585b1a5e995960921b602082015260400192915050565b6000612752601083612caa565b6f149154d413d394d157d156141254915160821b815260200192915050565b600061277e601183612caa565b7014d251d3905515549157d2539590531251607a1b815260200192915050565b60006127ab601883612caa565b7f53454e4445525f4841534e545f5045524d495353494f4e530000000000000000815260200192915050565b60006127e4601883612cb3565b7f426173655570677261646561626c652e73657474696e67730000000000000000815260180192915050565b600061281d601883612caa565b7f434f4e54524143545f4e4f545f494e495449414c495a45440000000000000000815260200192915050565b6000612856601c83612caa565b7f434f4e54524143545f414c52454144595f494e495449414c495a454400000000815260200192915050565b8051608083019061289384826121f5565b5060208201516128a660208501826121f5565b5060408201516128b960408501826121f5565b5060608201516128cc60608501826121f5565b50505050565b6121e681612ce2565b600061043d82612289565b60006128f18261232a565b91506128fd82846121fe565b50602001919050565b600061043d826127d7565b6020810161043d82846121dd565b610140810161292e828d6121dd565b61293b602083018c6121dd565b612948604083018b6121dd565b612955606083018a6121dd565b61296260808301896121f5565b61296f60a08301886121f5565b61297c60c08301876121f5565b61298960e08301866121f5565b6129976101008301856121f5565b6129a56101208301846121f5565b9b9a5050505050505050505050565b60e081016129c2828a6121dd565b6129cf60208301896121f5565b6129dc60408301886121f5565b6129e960608301876121f5565b6129f660808301866121f5565b612a0360a08301856121f5565b612a1060c08301846121f5565b98975050505050505050565b6020810161043d82846121ec565b6020810161043d82846121f5565b60808101612a4682876121f5565b612a5360208301866128d2565b612a6060408301856121f5565b611c6c60608301846121f5565b6020810161043d828461220f565b60208082528101610d548184612218565b6020808252810161043d81612250565b6020808252810161043d816122c2565b6020808252810161043d816122fb565b6020808252810161043d81612363565b6020808252810161043d8161239c565b6020808252810161043d816123d5565b6020808252810161043d8161241d565b6020808252810161043d8161244d565b6020808252810161043d81612486565b6020808252810161043d816124bf565b6020808252810161043d81612503565b6020808252810161043d8161253c565b6020808252810161043d81612575565b6020808252810161043d816125ae565b6020808252810161043d816125f1565b6020808252810161043d81612635565b6020808252810161043d81612678565b6020808252810161043d816126b1565b6020808252810161043d816126f5565b6020808252810161043d81612745565b6020808252810161043d81612771565b6020808252810161043d8161279e565b6020808252810161043d81612810565b6020808252810161043d81612849565b6101808101612c1b8286612882565b612c286080830185612882565b6112e7610100830184612882565b60608101612c4482866121f5565b612c5160208301856121f5565b6112e760408301846121f5565b60405181810167ffffffffffffffff81118282101715612c7d57600080fd5b604052919050565b600067ffffffffffffffff821115612c9c57600080fd5b5060209081020190565b5190565b90815260200190565b919050565b600061043d82612cd6565b151590565b90565b600061043d82612cb8565b6001600160a01b031690565b60ff1690565b60005b83811015612d03578181015183820152602001612ceb565b838111156128cc5750506000910152565b601f01601f191690565b612d2781612cb8565b81146102e857600080fd5b612d2781612cc3565b612d2781612cc8565b612d2781612ccb565b612d2781612ce256fea365627a7a72315820d2ae642f4b82f70131f61a60422d2a47698943c810749605f38e852cd4d896ba6c6578706572696d656e74616cf564736f6c63430005110040",
  "source": "pragma solidity 0.5.17;\npragma experimental ABIEncoderV2;\n\n// Contracts\nimport \"./Consensus.sol\";\n\n// Interfaces\nimport \"../interfaces/LoanTermsConsensusInterface.sol\";\n\n/*****************************************************************************************************/\n/**                                             WARNING                                             **/\n/**                                  THIS CONTRACT IS UPGRADEABLE!                                  **/\n/**  ---------------------------------------------------------------------------------------------  **/\n/**  Do NOT change the order of or PREPEND any storage variables to this or new versions of this    **/\n/**  contract as this will cause the the storage slots to be overwritten on the proxy contract!!    **/\n/**                                                                                                 **/\n/**  Visit https://docs.openzeppelin.com/upgrades/2.6/proxies#upgrading-via-the-proxy-pattern for   **/\n/**  more information.                                                                              **/\n/*****************************************************************************************************/\n/**\n    @notice This contract is used to process the loan requests through the Teller protocol\n\n    @author develop@teller.finance\n */\ncontract LoanTermsConsensus is LoanTermsConsensusInterface, Consensus {\n    /* Mappings */\n    /**\n        @notice It identifies the loan terms submissions for a given borrower address and a request nonce.\n\n        @dev Examples:\n            @address(0x123...567) => 1 => AccruedLoanTerms({...})\n            @address(0x123...567) => 2 => AccruedLoanTerms({...})\n            @address(0x234...678) => 1 => AccruedLoanTerms({...})\n     */\n    mapping(address => mapping(uint256 => TellerCommon.AccruedLoanTerms))\n        public termSubmissions;\n\n    /**\n        This mapping identify the last request timestamp for a given borrower address.\n\n            Example:    address(0x123...789) = timestamp(now)\n        \n        It is used as rate limit per borrower address.\n     */\n    mapping(address => uint256) public borrowerToLastLoanTermRequest;\n\n    /**\n        @notice Processes the loan request\n        @param request Struct of the protocol loan request\n        @param responses List of structs of the protocol loan responses\n        @return uint256 Interest rate\n        @return uint256 Collateral ratio\n        @return uint256 Maximum loan amount\n     */\n    function processRequest(\n        TellerCommon.LoanRequest calldata request,\n        TellerCommon.LoanResponse[] calldata responses\n    )\n        external\n        isInitialized()\n        isCaller(msg.sender)\n        onlyEnoughSubmissions(responses.length)\n        returns (\n            uint256 interestRate,\n            uint256 collateralRatio,\n            uint256 maxLoanAmount\n        )\n    {\n        _requireRequestLoanTermsRateLimit(request);\n        require(\n            !requestNonceTaken[request.borrower][request.requestNonce],\n            \"LOAN_TERMS_REQUEST_NONCE_TAKEN\"\n        );\n        requestNonceTaken[request.borrower][request.requestNonce] = true;\n\n        bytes32 requestHash = _hashRequest(request);\n\n        for (uint256 i = 0; i < responses.length; i++) {\n            _processResponse(request, responses[i], requestHash);\n        }\n\n        interestRate = _getConsensus(\n            termSubmissions[request.borrower][request.requestNonce].interestRate\n        );\n        collateralRatio = _getConsensus(\n            termSubmissions[request.borrower][request.requestNonce].collateralRatio\n        );\n        maxLoanAmount = _getConsensus(\n            termSubmissions[request.borrower][request.requestNonce].maxLoanAmount\n        );\n        borrowerToLastLoanTermRequest[request.borrower] = now;\n\n        // TODO: Remove redundant event\n        emit TermsAccepted(\n            request.borrower,\n            request.requestNonce,\n            interestRate,\n            collateralRatio,\n            maxLoanAmount\n        );\n    }\n\n    /**\n        @notice Processes the loan response\n        @param request Struct of the protocol loan request\n        @param response List of structs of the protocol loan responses\n        @param requestHash bytes32 Hash of the loan request\n     */\n    function _processResponse(\n        TellerCommon.LoanRequest memory request,\n        TellerCommon.LoanResponse memory response,\n        bytes32 requestHash\n    ) internal {\n        bytes32 responseHash = _hashResponse(response, requestHash);\n\n        _validateResponse(\n            response.signer,\n            request.borrower,\n            request.requestNonce,\n            response.responseTime,\n            responseHash,\n            response.signature\n        );\n\n        termSubmissions[request.borrower][request.requestNonce].interestRate.addValue(\n            response.interestRate\n        );\n        termSubmissions[request.borrower][request.requestNonce].collateralRatio.addValue(\n            response.collateralRatio\n        );\n        termSubmissions[request.borrower][request.requestNonce].maxLoanAmount.addValue(\n            response.maxLoanAmount\n        );\n\n        emit TermsSubmitted(\n            response.signer,\n            request.borrower,\n            request.requestNonce,\n            response.interestRate,\n            response.collateralRatio,\n            response.maxLoanAmount\n        );\n    }\n\n    /**\n        @notice Generates a hash for the loan response\n        @param response Structs of the protocol loan responses\n        @param requestHash Hash of the loan request\n        @return bytes32 Hash of the loan response\n     */\n    function _hashResponse(TellerCommon.LoanResponse memory response, bytes32 requestHash)\n        internal\n        view\n        returns (bytes32)\n    {\n        return\n            keccak256(\n                abi.encode(\n                    response.consensusAddress,\n                    response.responseTime,\n                    response.interestRate,\n                    response.collateralRatio,\n                    response.maxLoanAmount,\n                    _getChainId(),\n                    requestHash\n                )\n            );\n    }\n\n    /**\n        @notice Generates a hash for the loan request\n        @param request Struct of the protocol loan request\n        @return bytes32 Hash of the loan request\n     */\n    function _hashRequest(TellerCommon.LoanRequest memory request)\n        internal\n        view\n        returns (bytes32)\n    {\n        return\n            keccak256(\n                abi.encode(\n                    callerAddress,\n                    request.borrower,\n                    request.recipient,\n                    request.consensusAddress,\n                    request.requestNonce,\n                    request.amount,\n                    request.duration,\n                    request.requestTime,\n                    request.minaProofIdHash,\n                    _getChainId()\n                )\n            );\n    }\n\n    /**\n        @notice It validates whether the time window between the last loan terms request and current one exceeds the maximum rate limit.\n        @param request the new request.\n        @dev It throws a require error if the request rate limit exceeds the maximum.\n     */\n    function _requireRequestLoanTermsRateLimit(TellerCommon.LoanRequest memory request)\n        internal\n        view\n    {\n        // In case it is the first time that borrower requests loan terms, we don't validate the rate limit.\n        if (borrowerToLastLoanTermRequest[request.borrower] == 0) {\n            return;\n        }\n        uint256 requestLoanTermsRateLimit = _getSettings().getPlatformSettingValue(\n            _getSettings().consts().REQUEST_LOAN_TERMS_RATE_LIMIT_SETTING()\n        );\n        require(\n            borrowerToLastLoanTermRequest[request.borrower].add(\n                requestLoanTermsRateLimit\n            ) <= now,\n            \"REQS_LOAN_TERMS_LMT_EXCEEDS_MAX\"\n        );\n    }\n}\n",
  "sourcePath": "/home/jeremig/Documents/Teller/dojo/teller-protocol-v1/contracts/base/LoanTermsConsensus.sol",
  "compiler": {
    "name": "solc",
    "version": "0.5.17+commit.d19bba13.Emscripten.clang"
  },
  "schemaVersion": "3.2.3",
  "updatedAt": "2021-04-09T18:15:57.138Z",
  "networkType": "ethereum",
  "devdoc": {
    "author": "develop@teller.finance",
    "methods": {
      "addSigner(address)": {
        "details": "The sender must be the owner.It throws a require error if the sender is not the owner.",
        "params": {
          "account": "address to add."
        }
      },
      "addSigners(address[])": {
        "details": "The sender must be the owner.It throws a require error if the sender is not the owner.",
        "params": {
          "accounts": "addresses to add."
        }
      },
      "initialize(address)": {
        "details": "Initializes the contract setting the deployer as the initial owner."
      },
      "initialize(address,address,address)": {
        "details": "The caller address must be the loans contract for LoanTermsConsensus.",
        "params": {
          "aCallerAddress": "the contract that will call it.",
          "aSettingAddress": "the settings contract address.",
          "owner": "the owner address."
        }
      },
      "initialized()": {
        "return": "true if contract is initialized. Otherwise it returns false."
      },
      "isOwner()": {
        "details": "Returns true if the caller is the current owner."
      },
      "isSigner(address)": {
        "params": {
          "account": "address to test."
        },
        "return": "true if account is a signer. Otherwise it returns false."
      },
      "owner()": {
        "details": "Returns the address of the current owner."
      },
      "processRequest((address,address,address,uint256,uint256,uint256,uint256,bytes32),(address,address,uint256,uint256,uint256,uint256,(uint8,bytes32,bytes32))[])": {
        "params": {
          "request": "Struct of the protocol loan request",
          "responses": "List of structs of the protocol loan responses"
        },
        "return": "uint256 Interest rateuint256 Collateral ratiouint256 Maximum loan amount"
      },
      "removeSigner(address)": {
        "details": "The sender must be the owner.It throws a require error if the sender is not the owner.",
        "params": {
          "account": "address to remove."
        }
      },
      "renounceOwnership()": {
        "details": "Leaves the contract without owner. It will not be possible to call `onlyOwner` functions anymore. Can only be called by the current owner.     * > Note: Renouncing ownership will leave the contract without an owner, thereby removing any functionality that is only available to the owner."
      },
      "settings()": {
        "details": "This address should NOT change over the time. See details in the _setSettings(...) function."
      },
      "transferOwnership(address)": {
        "details": "Transfers ownership of the contract to a new account (`newOwner`). Can only be called by the current owner."
      }
    }
  },
  "userdoc": {
    "methods": {
      "addSigner(address)": {
        "notice": "It adds a new account as a signer."
      },
      "addSigners(address[])": {
        "notice": "It adds a list of account as signers."
      },
      "initialize(address,address,address)": {
        "notice": "It initializes this consensus contract."
      },
      "initialized()": {
        "notice": "Gets if the contract is initialized."
      },
      "isSigner(address)": {
        "notice": "Gets whether an account address is a signer or not."
      },
      "processRequest((address,address,address,uint256,uint256,uint256,uint256,bytes32),(address,address,uint256,uint256,uint256,uint256,(uint8,bytes32,bytes32))[])": {
        "notice": "Processes the loan request"
      },
      "removeSigner(address)": {
        "notice": "It removes an account as signer."
      },
      "settings()": {
        "notice": "The gets the settings contract address from the SETTINGS_SLOT."
      }
    },
    "notice": "This contract is used to process the loan requests through the Teller protocol"
  }
}