{
  "contractName": "LoanTermsConsensus",
  "abi": [
    {
      "anonymous": false,
      "inputs": [
        {
          "indexed": true,
          "internalType": "address",
          "name": "previousOwner",
          "type": "address"
        },
        {
          "indexed": true,
          "internalType": "address",
          "name": "newOwner",
          "type": "address"
        }
      ],
      "name": "OwnershipTransferred",
      "type": "event"
    },
    {
      "anonymous": false,
      "inputs": [
        {
          "indexed": true,
          "internalType": "address",
          "name": "account",
          "type": "address"
        }
      ],
      "name": "SignerAdded",
      "type": "event"
    },
    {
      "anonymous": false,
      "inputs": [
        {
          "indexed": true,
          "internalType": "address",
          "name": "account",
          "type": "address"
        }
      ],
      "name": "SignerRemoved",
      "type": "event"
    },
    {
      "anonymous": false,
      "inputs": [
        {
          "indexed": true,
          "internalType": "address",
          "name": "borrower",
          "type": "address"
        },
        {
          "indexed": true,
          "internalType": "uint256",
          "name": "requestNonce",
          "type": "uint256"
        },
        {
          "indexed": false,
          "internalType": "uint256",
          "name": "interestRate",
          "type": "uint256"
        },
        {
          "indexed": false,
          "internalType": "uint256",
          "name": "collateralRatio",
          "type": "uint256"
        },
        {
          "indexed": false,
          "internalType": "uint256",
          "name": "maxLoanAmount",
          "type": "uint256"
        }
      ],
      "name": "TermsAccepted",
      "type": "event"
    },
    {
      "anonymous": false,
      "inputs": [
        {
          "indexed": true,
          "internalType": "address",
          "name": "signer",
          "type": "address"
        },
        {
          "indexed": true,
          "internalType": "address",
          "name": "borrower",
          "type": "address"
        },
        {
          "indexed": true,
          "internalType": "uint256",
          "name": "requestNonce",
          "type": "uint256"
        },
        {
          "indexed": false,
          "internalType": "uint256",
          "name": "interestRate",
          "type": "uint256"
        },
        {
          "indexed": false,
          "internalType": "uint256",
          "name": "collateralRatio",
          "type": "uint256"
        },
        {
          "indexed": false,
          "internalType": "uint256",
          "name": "maxLoanAmount",
          "type": "uint256"
        }
      ],
      "name": "TermsSubmitted",
      "type": "event"
    },
    {
      "constant": true,
      "inputs": [],
      "name": "_signerCount",
      "outputs": [
        {
          "internalType": "uint256",
          "name": "",
          "type": "uint256"
        }
      ],
      "payable": false,
      "stateMutability": "view",
      "type": "function"
    },
    {
      "constant": false,
      "inputs": [
        {
          "internalType": "address",
          "name": "account",
          "type": "address"
        }
      ],
      "name": "addSigner",
      "outputs": [],
      "payable": false,
      "stateMutability": "nonpayable",
      "type": "function"
    },
    {
      "constant": false,
      "inputs": [
        {
          "internalType": "address[]",
          "name": "accounts",
          "type": "address[]"
        }
      ],
      "name": "addSigners",
      "outputs": [],
      "payable": false,
      "stateMutability": "nonpayable",
      "type": "function"
    },
    {
      "constant": true,
      "inputs": [
        {
          "internalType": "address",
          "name": "",
          "type": "address"
        }
      ],
      "name": "borrowerToLastLoanTermRequest",
      "outputs": [
        {
          "internalType": "uint256",
          "name": "",
          "type": "uint256"
        }
      ],
      "payable": false,
      "stateMutability": "view",
      "type": "function"
    },
    {
      "constant": true,
      "inputs": [],
      "name": "callerAddress",
      "outputs": [
        {
          "internalType": "address",
          "name": "",
          "type": "address"
        }
      ],
      "payable": false,
      "stateMutability": "view",
      "type": "function"
    },
    {
      "constant": true,
      "inputs": [
        {
          "internalType": "address",
          "name": "",
          "type": "address"
        },
        {
          "internalType": "address",
          "name": "",
          "type": "address"
        },
        {
          "internalType": "uint256",
          "name": "",
          "type": "uint256"
        }
      ],
      "name": "hasSubmitted",
      "outputs": [
        {
          "internalType": "bool",
          "name": "",
          "type": "bool"
        }
      ],
      "payable": false,
      "stateMutability": "view",
      "type": "function"
    },
    {
      "constant": false,
      "inputs": [],
      "name": "initialize",
      "outputs": [],
      "payable": false,
      "stateMutability": "nonpayable",
      "type": "function"
    },
    {
      "constant": false,
      "inputs": [
        {
          "internalType": "address",
          "name": "owner",
          "type": "address"
        },
        {
          "internalType": "address",
          "name": "aCallerAddress",
          "type": "address"
        },
        {
          "internalType": "address",
          "name": "aSettingAddress",
          "type": "address"
        }
      ],
      "name": "initialize",
      "outputs": [],
      "payable": false,
      "stateMutability": "nonpayable",
      "type": "function"
    },
    {
      "constant": false,
      "inputs": [
        {
          "internalType": "address",
          "name": "sender",
          "type": "address"
        }
      ],
      "name": "initialize",
      "outputs": [],
      "payable": false,
      "stateMutability": "nonpayable",
      "type": "function"
    },
    {
      "constant": true,
      "inputs": [],
      "name": "initialized",
      "outputs": [
        {
          "internalType": "bool",
          "name": "value",
          "type": "bool"
        }
      ],
      "payable": false,
      "stateMutability": "view",
      "type": "function"
    },
    {
      "constant": true,
      "inputs": [],
      "name": "isOwner",
      "outputs": [
        {
          "internalType": "bool",
          "name": "",
          "type": "bool"
        }
      ],
      "payable": false,
      "stateMutability": "view",
      "type": "function"
    },
    {
      "constant": true,
      "inputs": [
        {
          "internalType": "address",
          "name": "account",
          "type": "address"
        }
      ],
      "name": "isSigner",
      "outputs": [
        {
          "internalType": "bool",
          "name": "",
          "type": "bool"
        }
      ],
      "payable": false,
      "stateMutability": "view",
      "type": "function"
    },
    {
      "constant": true,
      "inputs": [],
      "name": "owner",
      "outputs": [
        {
          "internalType": "address",
          "name": "",
          "type": "address"
        }
      ],
      "payable": false,
      "stateMutability": "view",
      "type": "function"
    },
    {
      "constant": false,
      "inputs": [
        {
          "internalType": "address",
          "name": "account",
          "type": "address"
        }
      ],
      "name": "removeSigner",
      "outputs": [],
      "payable": false,
      "stateMutability": "nonpayable",
      "type": "function"
    },
    {
      "constant": false,
      "inputs": [],
      "name": "renounceOwnership",
      "outputs": [],
      "payable": false,
      "stateMutability": "nonpayable",
      "type": "function"
    },
    {
      "constant": true,
      "inputs": [
        {
          "internalType": "address",
          "name": "",
          "type": "address"
        },
        {
          "internalType": "uint256",
          "name": "",
          "type": "uint256"
        }
      ],
      "name": "requestNonceTaken",
      "outputs": [
        {
          "internalType": "bool",
          "name": "",
          "type": "bool"
        }
      ],
      "payable": false,
      "stateMutability": "view",
      "type": "function"
    },
    {
      "constant": true,
      "inputs": [],
      "name": "settings",
      "outputs": [
        {
          "internalType": "contract SettingsInterface",
          "name": "",
          "type": "address"
        }
      ],
      "payable": false,
      "stateMutability": "view",
      "type": "function"
    },
    {
      "constant": true,
      "inputs": [
        {
          "internalType": "address",
          "name": "",
          "type": "address"
        },
        {
          "internalType": "uint256",
          "name": "",
          "type": "uint256"
        }
      ],
      "name": "termSubmissions",
      "outputs": [
        {
          "components": [
            {
              "internalType": "uint256",
              "name": "count",
              "type": "uint256"
            },
            {
              "internalType": "uint256",
              "name": "max",
              "type": "uint256"
            },
            {
              "internalType": "uint256",
              "name": "min",
              "type": "uint256"
            },
            {
              "internalType": "uint256",
              "name": "sum",
              "type": "uint256"
            }
          ],
          "internalType": "struct NumbersList.Values",
          "name": "interestRate",
          "type": "tuple"
        },
        {
          "components": [
            {
              "internalType": "uint256",
              "name": "count",
              "type": "uint256"
            },
            {
              "internalType": "uint256",
              "name": "max",
              "type": "uint256"
            },
            {
              "internalType": "uint256",
              "name": "min",
              "type": "uint256"
            },
            {
              "internalType": "uint256",
              "name": "sum",
              "type": "uint256"
            }
          ],
          "internalType": "struct NumbersList.Values",
          "name": "collateralRatio",
          "type": "tuple"
        },
        {
          "components": [
            {
              "internalType": "uint256",
              "name": "count",
              "type": "uint256"
            },
            {
              "internalType": "uint256",
              "name": "max",
              "type": "uint256"
            },
            {
              "internalType": "uint256",
              "name": "min",
              "type": "uint256"
            },
            {
              "internalType": "uint256",
              "name": "sum",
              "type": "uint256"
            }
          ],
          "internalType": "struct NumbersList.Values",
          "name": "maxLoanAmount",
          "type": "tuple"
        }
      ],
      "payable": false,
      "stateMutability": "view",
      "type": "function"
    },
    {
      "constant": false,
      "inputs": [
        {
          "internalType": "address",
          "name": "newOwner",
          "type": "address"
        }
      ],
      "name": "transferOwnership",
      "outputs": [],
      "payable": false,
      "stateMutability": "nonpayable",
      "type": "function"
    },
    {
      "constant": false,
      "inputs": [
        {
          "components": [
            {
              "internalType": "address payable",
              "name": "borrower",
              "type": "address"
            },
            {
              "internalType": "address",
              "name": "recipient",
              "type": "address"
            },
            {
              "internalType": "address",
              "name": "consensusAddress",
              "type": "address"
            },
            {
              "internalType": "uint256",
              "name": "requestNonce",
              "type": "uint256"
            },
            {
              "internalType": "uint256",
              "name": "amount",
              "type": "uint256"
            },
            {
              "internalType": "uint256",
              "name": "duration",
              "type": "uint256"
            },
            {
              "internalType": "uint256",
              "name": "requestTime",
              "type": "uint256"
            },
            {
              "internalType": "bytes32",
              "name": "minaProofIdHash",
              "type": "bytes32"
            }
          ],
          "internalType": "struct TellerCommon.LoanRequest",
          "name": "request",
          "type": "tuple"
        },
        {
          "components": [
            {
              "internalType": "address",
              "name": "signer",
              "type": "address"
            },
            {
              "internalType": "address",
              "name": "consensusAddress",
              "type": "address"
            },
            {
              "internalType": "uint256",
              "name": "responseTime",
              "type": "uint256"
            },
            {
              "internalType": "uint256",
              "name": "interestRate",
              "type": "uint256"
            },
            {
              "internalType": "uint256",
              "name": "collateralRatio",
              "type": "uint256"
            },
            {
              "internalType": "uint256",
              "name": "maxLoanAmount",
              "type": "uint256"
            },
            {
              "components": [
                {
                  "internalType": "uint8",
                  "name": "v",
                  "type": "uint8"
                },
                {
                  "internalType": "bytes32",
                  "name": "r",
                  "type": "bytes32"
                },
                {
                  "internalType": "bytes32",
                  "name": "s",
                  "type": "bytes32"
                }
              ],
              "internalType": "struct TellerCommon.Signature",
              "name": "signature",
              "type": "tuple"
            }
          ],
          "internalType": "struct TellerCommon.LoanResponse[]",
          "name": "responses",
          "type": "tuple[]"
        }
      ],
      "name": "processRequest",
      "outputs": [
        {
          "internalType": "uint256",
          "name": "interestRate",
          "type": "uint256"
        },
        {
          "internalType": "uint256",
          "name": "collateralRatio",
          "type": "uint256"
        },
        {
          "internalType": "uint256",
          "name": "maxLoanAmount",
          "type": "uint256"
        }
      ],
      "payable": false,
      "stateMutability": "nonpayable",
      "type": "function"
    }
  ],
  "bytecode": "0x6080604052612de4806100136000396000f3fe608060405234801561001057600080fd5b506004361061012c5760003560e01c80639f24a12d116100ad578063e8906a2d11610071578063e8906a2d1461025e578063eb12d61e14610271578063f2fde38b14610284578063faa8aab114610297578063fb98d9e21461029f5761012c565b80639f24a12d146101ee578063abefdbd314610201578063c0c53b8b14610223578063c4d66de814610236578063e06174e4146102495761012c565b80637df73e27116100f45780637df73e27146101a35780638129fc1c146101b65780638da5cb5b146101be5780638f32d59b146101d357806399ffe065146101db5761012c565b80630e316ab714610131578063158ef93e146101465780632aac635e1461016457806350f1dedc14610186578063715018a61461019b575b600080fd5b61014461013f36600461201b565b6102b2565b005b61014e6102eb565b60405161015b9190612a67565b60405180910390f35b6101776101723660046120c9565b61030d565b60405161015b93929190612c57565b61018e6103b6565b60405161015b9190612a75565b6101446103bc565b61014e6101b136600461201b565b61042a565b610144610443565b6101c66104ca565b60405161015b919061295c565b61014e6104d9565b61014e6101e9366004612086565b6104ff565b61018e6101fc36600461201b565b610525565b61021461020f366004612174565b610537565b60405161015b93929190612c81565b610144610231366004612039565b610a1c565b61014461024436600461201b565b610aa5565b610251610b78565b60405161015b9190612ab8565b61014461026c366004612103565b610b87565b61014461027f36600461201b565b610c0f565b61014461029236600461201b565b610c3c565b6101c6610c69565b61014e6102ad3660046120c9565b610c78565b6102ba6104d9565b6102df5760405162461bcd60e51b81526004016102d690612bd7565b60405180910390fd5b6102e881610c98565b50565b60008060016040516102fc90612926565b604051908190039020035492915050565b609e60209081526000928352604080842082529183529181902081516080808201845282548252600183015482860152600283015482850152600383015460608084019190915284518083018652600485015481526005850154818801526006850154818701526007850154818301528551928301865260088501548352600985015496830196909652600a84015494820194909452600b909201549282019290925290919083565b609a5481565b6103c46104d9565b6103e05760405162461bcd60e51b81526004016102d690612bd7565b6066546040516000916001600160a01b0316907f8be0079c531659141344cd1fd0a4f28419497f9722a3daafe3b4186f6b6457e0908390a3606680546001600160a01b0319169055565b600061043d60998363ffffffff610cea16565b92915050565b600054610100900460ff168061045c575061045c610d32565b8061046a575060005460ff16155b6104865760405162461bcd60e51b81526004016102d690612bf7565b600054610100900460ff161580156104b1576000805460ff1961ff0019909116610100171660011790555b600160335580156102e8576000805461ff001916905550565b6066546001600160a01b031690565b6066546000906001600160a01b03166104f0610d38565b6001600160a01b031614905090565b609b60209081526000938452604080852082529284528284209052825290205460ff1681565b609f6020526000908152604090205481565b60008060006105446102eb565b6105605760405162461bcd60e51b81526004016102d690612c37565b3361056a81610d3c565b6105865760405162461bcd60e51b81526004016102d690612c27565b846000610591610d50565b6001600160a01b0316631362fee76105a7610d50565b6001600160a01b031663d86d744e6040518163ffffffff1660e01b815260040160206040518083038186803b1580156105df57600080fd5b505afa1580156105f3573d6000803e3d6000fd5b505050506040513d601f19601f820116820180604052506106179190810190612156565b6001600160a01b031663770f6c746040518163ffffffff1660e01b815260040160206040518083038186803b15801561064f57600080fd5b505afa158015610663573d6000803e3d6000fd5b505050506040513d601f19601f820116820180604052506106879190810190612138565b6040518263ffffffff1660e01b81526004016106a39190612a75565b60806040518083038186803b1580156106bb57600080fd5b505afa1580156106cf573d6000803e3d6000fd5b505050506040513d601f19601f820116820180604052506106f3919081019061220a565b51609a54909150819061070d90849063ffffffff610d7516565b101561072b5760405162461bcd60e51b81526004016102d690612b77565b61074261073d368b90038b018b6121cc565b610da6565b609d600061075360208c018c61201b565b6001600160a01b031681526020808201929092526040908101600090812060608d0135825290925290205460ff161561079e5760405162461bcd60e51b81526004016102d690612b07565b6001609d60006107b160208d018d61201b565b6001600160a01b031681526020808201929092526040908101600090812060608e013582529092529020805460ff191691151591909117905560e0890135156108345760e0890135600090815260a0602052604090205460ff161561081557600080fd5b60e0890135600090815260a060205260409020805460ff191660011790555b600061084d610848368c90038c018c6121cc565b610f82565b905060005b8881101561089d5761089561086c368d90038d018d6121cc565b8b8b8481811061087857fe5b9050610120020180360361088f91908101906121eb565b84611000565b600101610852565b506108e1609e60006108b260208e018e61201b565b6001600160a01b031681526020808201929092526040908101600090812060608f01358252909252902061115d565b9650610934609e60006108f760208e018e61201b565b6001600160a01b03166001600160a01b0316815260200190815260200160002060008c60600135815260200190815260200160002060040161115d565b9550610987609e600061094a60208e018e61201b565b6001600160a01b03166001600160a01b0316815260200190815260200160002060008c60600135815260200190815260200160002060080161115d565b945042609f600061099b60208e018e61201b565b6001600160a01b031681526020808201929092526040016000209190915560608b0135906109cb908c018c61201b565b6001600160a01b03167f658dfc9759b55173ea96c7bd8d4ad2c3e3804d28d83d2e1a25569a2fecb67208898989604051610a0793929190612c81565b60405180910390a35050505093509350939050565b610a246102eb565b15610a415760405162461bcd60e51b81526004016102d690612c47565b610a53826001600160a01b03166112fe565b610a6f5760405162461bcd60e51b81526004016102d690612b87565b610a7883610aa5565b610a818161133a565b50609c80546001600160a01b0319166001600160a01b039290921691909117905550565b600054610100900460ff1680610abe5750610abe610d32565b80610acc575060005460ff16155b610ae85760405162461bcd60e51b81526004016102d690612bf7565b600054610100900460ff16158015610b13576000805460ff1961ff0019909116610100171660011790555b606680546001600160a01b0319166001600160a01b0384811691909117918290556040519116906000907f8be0079c531659141344cd1fd0a4f28419497f9722a3daafe3b4186f6b6457e0908290a38015610b74576000805461ff00191690555b5050565b6000610b82610d50565b905090565b610b8f6104d9565b610bab5760405162461bcd60e51b81526004016102d690612bd7565b6000815111610bcc5760405162461bcd60e51b81526004016102d690612af7565b60005b8151811015610b74576000828281518110610be657fe5b60200260200101519050610bf98161042a565b610c0657610c06816113be565b50600101610bcf565b610c176104d9565b610c335760405162461bcd60e51b81526004016102d690612bd7565b6102e8816113be565b610c446104d9565b610c605760405162461bcd60e51b81526004016102d690612bd7565b6102e88161140f565b609c546001600160a01b031681565b609d60209081526000928352604080842090915290825290205460ff1681565b610ca960998263ffffffff61149116565b609a80546000190190556040516001600160a01b038216907f3525e22824a8a7df2c9a6029941c824cf95b6447f1e13d5128fd3826d35afe8b90600090a250565b60006001600160a01b038216610d125760405162461bcd60e51b81526004016102d690612be7565b506001600160a01b03166000908152602091909152604090205460ff1690565b303b1590565b3390565b609c546001600160a01b0391821691161490565b60008060006001604051610d6390612951565b60405190819003902003549250505090565b6000610d9f82610d93610d866114d9565b869063ffffffff6114df16565b9063ffffffff61151916565b9392505050565b80516001600160a01b03166000908152609f6020526040902054610dc9576102e8565b6000610dd3610d50565b6001600160a01b031663269012a0610de9610d50565b6001600160a01b031663d86d744e6040518163ffffffff1660e01b815260040160206040518083038186803b158015610e2157600080fd5b505afa158015610e35573d6000803e3d6000fd5b505050506040513d601f19601f82011682018060405250610e599190810190612156565b6001600160a01b0316633b98dfdb6040518163ffffffff1660e01b815260040160206040518083038186803b158015610e9157600080fd5b505afa158015610ea5573d6000803e3d6000fd5b505050506040513d601f19601f82011682018060405250610ec99190810190612138565b6040518263ffffffff1660e01b8152600401610ee59190612a75565b60206040518083038186803b158015610efd57600080fd5b505afa158015610f11573d6000803e3d6000fd5b505050506040513d601f19601f82011682018060405250610f359190810190612138565b82516001600160a01b03166000908152609f60205260409020549091504290610f64908363ffffffff61155b16565b1115610b745760405162461bcd60e51b81526004016102d690612b97565b6000609c60009054906101000a90046001600160a01b0316826000015183602001518460400151856060015186608001518760a001518860c001518960e00151610fca611580565b604051602001610fe39a9998979695949392919061296a565b604051602081830303815290604052805190602001209050919050565b600061100c8383611584565b835185516060870151604087015160c088015194955061102d9486906115dc565b60608084015185516001600160a01b03166000908152609e602090815260408083209489015183529390529190912061106b9163ffffffff61182a16565b608083015184516001600160a01b03166000908152609e602090815260408083206060890151845290915290206110ad9160049091019063ffffffff61182a16565b60a083015184516001600160a01b03166000908152609e602090815260408083206060890151845290915290206110ef9160089091019063ffffffff61182a16565b836060015184600001516001600160a01b031684600001516001600160a01b03167f75ec6e4b3d626c9ecaff859275e3ee99bd0d25d81a798938dcc15b49baffc24d866060015187608001518860a0015160405161114f93929190612c81565b60405180910390a450505050565b60006112d961116a610d50565b6001600160a01b031663269012a0611180610d50565b6001600160a01b031663d86d744e6040518163ffffffff1660e01b815260040160206040518083038186803b1580156111b857600080fd5b505afa1580156111cc573d6000803e3d6000fd5b505050506040513d601f19601f820116820180604052506111f09190810190612156565b6001600160a01b031663c41dd8ce6040518163ffffffff1660e01b815260040160206040518083038186803b15801561122857600080fd5b505afa15801561123c573d6000803e3d6000fd5b505050506040513d601f19601f820116820180604052506112609190810190612138565b6040518263ffffffff1660e01b815260040161127c9190612a75565b60206040518083038186803b15801561129457600080fd5b505afa1580156112a8573d6000803e3d6000fd5b505050506040513d601f19601f820116820180604052506112cc9190810190612138565b839063ffffffff61188f16565b6112f55760405162461bcd60e51b81526004016102d690612b37565b61043d8261192e565b6000813f7fc5d2460186f7233c927e7db2dcc703c0e500b653ca82273b7bfad8045d85a47081811480159061133257508115155b949350505050565b6113426102eb565b1561135f5760405162461bcd60e51b81526004016102d690612c47565b60408051808201909152601981527f53455454494e47535f4d5553545f42455f50524f56494445440000000000000060208201526113ad906001600160a01b0383169063ffffffff61196716565b6113b5611994565b6102e8816119b6565b6113cf60998263ffffffff611a2816565b609a805460010190556040516001600160a01b038216907f47d1c22a25bb3a5d4e481b9b1e6944c2eade3181a0a20b495ed61d35b5323f2490600090a250565b6001600160a01b0381166114355760405162461bcd60e51b81526004016102d690612b27565b6066546040516001600160a01b038084169216907f8be0079c531659141344cd1fd0a4f28419497f9722a3daafe3b4186f6b6457e090600090a3606680546001600160a01b0319166001600160a01b0392909216919091179055565b61149b8282610cea565b6114b75760405162461bcd60e51b81526004016102d690612ba7565b6001600160a01b0316600090815260209190915260409020805460ff19169055565b61271090565b6000826114ee5750600061043d565b828202828482816114fb57fe5b0414610d9f5760405162461bcd60e51b81526004016102d690612bc7565b6000610d9f83836040518060400160405280601a81526020017f536166654d6174683a206469766973696f6e206279207a65726f000000000000815250611a74565b600082820183811015610d9f5760405162461bcd60e51b81526004016102d690612b47565b4690565b600082602001518360400151846060015185608001518660a001516115a7611580565b876040516020016115be97969594939291906129ff565b60405160208183030381529060405280519060200120905092915050565b6001600160a01b038087166000908152609b6020908152604080832093891683529281528282208783529052205460ff161561162a5760405162461bcd60e51b81526004016102d690612b17565b6001600160a01b038087166000908152609b602090815260408083209389168352928152828220878352905220805460ff191660011790556117dc61166d610d50565b6001600160a01b031663269012a0611683610d50565b6001600160a01b031663d86d744e6040518163ffffffff1660e01b815260040160206040518083038186803b1580156116bb57600080fd5b505afa1580156116cf573d6000803e3d6000fd5b505050506040513d601f19601f820116820180604052506116f39190810190612156565b6001600160a01b031663e3f33d006040518163ffffffff1660e01b815260040160206040518083038186803b15801561172b57600080fd5b505afa15801561173f573d6000803e3d6000fd5b505050506040513d601f19601f820116820180604052506117639190810190612138565b6040518263ffffffff1660e01b815260040161177f9190612a75565b60206040518083038186803b15801561179757600080fd5b505afa1580156117ab573d6000803e3d6000fd5b505050506040513d601f19601f820116820180604052506117cf9190810190612138565b429063ffffffff611aab16565b8310156117fb5760405162461bcd60e51b81526004016102d690612c07565b611806818388611aed565b6118225760405162461bcd60e51b81526004016102d690612c17565b505050505050565b808260010154101561183e57600182018190555b808260020154118061184f57508154155b1561185c57600282018190555b6003820154611871908263ffffffff61155b16565b6003830155815461188990600163ffffffff61155b16565b90915550565b600061189a83611b5d565b156118a75750600061043d565b60006118b28461192e565b905060006118c6828563ffffffff611b6f16565b905060006118da838363ffffffff611aab16565b905080866002015410156118f4576000935050505061043d565b6000611906848463ffffffff61155b16565b9050808760010154111561192157600094505050505061043d565b5060019695505050505050565b600061193982611b5d565b61195f5761195a61194983611b8c565b60038401549063ffffffff61151916565b61043d565b506000919050565b61197082611b90565b819061198f5760405162461bcd60e51b81526004016102d69190612ac6565b505050565b600060016040516119a490612926565b60405190819003902060019190035550565b6119cf6119c1610d50565b6001600160a01b0316611b90565b156119d9576102e8565b6119eb816001600160a01b03166112fe565b611a075760405162461bcd60e51b81526004016102d690612b57565b60006001604051611a1790612951565b604051908190039020038290555050565b611a328282610cea565b15611a4f5760405162461bcd60e51b81526004016102d690612ae7565b6001600160a01b0316600090815260209190915260409020805460ff19166001179055565b60008183611a955760405162461bcd60e51b81526004016102d69190612ac6565b506000838581611aa157fe5b0495945050505050565b6000610d9f83836040518060400160405280601e81526020017f536166654d6174683a207375627472616374696f6e206f766572666c6f770000815250611b9e565b6000611af88261042a565b611b0457506000610d9f565b6000611b4484604051602001611b1a9190612931565b60405160208183030381529060405280519060200120866000015187602001518860400151611bca565b6001600160a01b03908116908416149150509392505050565b6000611b6882611b8c565b1592915050565b6000610d9f611b7c6114d9565b610d93858563ffffffff6114df16565b5490565b6001600160a01b0316151590565b60008184841115611bc25760405162461bcd60e51b81526004016102d69190612ac6565b505050900390565b60007f7fffffffffffffffffffffffffffffff5d576e7357a4501ddfe92f46681b20a0821115611c0c5760405162461bcd60e51b81526004016102d690612b67565b8360ff16601b1480611c2157508360ff16601c145b611c3d5760405162461bcd60e51b81526004016102d690612bb7565b600060018686868660405160008152602001604052604051611c629493929190612a83565b6020604051602081039080840390855afa158015611c84573d6000803e3d6000fd5b5050604051601f1901519150506001600160a01b038116611cb75760405162461bcd60e51b81526004016102d690612ad7565b95945050505050565b803561043d81612d69565b600082601f830112611cdc57600080fd5b8135611cef611cea82612cd0565b612ca9565b91508181835260208401935060208101905083856020840282011115611d1457600080fd5b60005b83811015611d405781611d2a8882611cc0565b8452506020928301929190910190600101611d17565b5050505092915050565b60008083601f840112611d5c57600080fd5b50813567ffffffffffffffff811115611d7457600080fd5b60208301915083610120820283011115611d8d57600080fd5b9250929050565b805161043d81612d7d565b803561043d81612d86565b805161043d81612d86565b805161043d81612d8f565b60006101008284031215611dd357600080fd5b50919050565b60006101008284031215611dec57600080fd5b611df7610100612ca9565b90506000611e058484611cc0565b8252506020611e1684848301611cc0565b6020830152506040611e2a84828501611cc0565b6040830152506060611e3e84828501611d9f565b6060830152506080611e5284828501611d9f565b60808301525060a0611e6684828501611d9f565b60a08301525060c0611e7a84828501611d9f565b60c08301525060e0611e8e84828501611d9f565b60e08301525092915050565b60006101208284031215611ead57600080fd5b611eb760e0612ca9565b90506000611ec58484611cc0565b8252506020611ed684848301611cc0565b6020830152506040611eea84828501611d9f565b6040830152506060611efe84828501611d9f565b6060830152506080611f1284828501611d9f565b60808301525060a0611f2684828501611d9f565b60a08301525060c0611f3a84828501611fb5565b60c08301525092915050565b600060808284031215611f5857600080fd5b611f626080612ca9565b90506000611f708484611daa565b8252506020611f8184848301611daa565b6020830152506040611f9584828501611daa565b6040830152506060611fa984828501611d94565b60608301525092915050565b600060608284031215611fc757600080fd5b611fd16060612ca9565b90506000611fdf8484612010565b8252506020611ff084848301611d9f565b602083015250604061200484828501611d9f565b60408301525092915050565b803561043d81612d98565b60006020828403121561202d57600080fd5b60006113328484611cc0565b60008060006060848603121561204e57600080fd5b600061205a8686611cc0565b935050602061206b86828701611cc0565b925050604061207c86828701611cc0565b9150509250925092565b60008060006060848603121561209b57600080fd5b60006120a78686611cc0565b93505060206120b886828701611cc0565b925050604061207c86828701611d9f565b600080604083850312156120dc57600080fd5b60006120e88585611cc0565b92505060206120f985828601611d9f565b9150509250929050565b60006020828403121561211557600080fd5b813567ffffffffffffffff81111561212c57600080fd5b61133284828501611ccb565b60006020828403121561214a57600080fd5b60006113328484611daa565b60006020828403121561216857600080fd5b60006113328484611db5565b6000806000610120848603121561218a57600080fd5b60006121968686611dc0565b93505061010084013567ffffffffffffffff8111156121b457600080fd5b6121c086828701611d4a565b92509250509250925092565b600061010082840312156121df57600080fd5b60006113328484611dd9565b600061012082840312156121fe57600080fd5b60006113328484611e9a565b60006080828403121561221c57600080fd5b60006113328484611f46565b61223181612d03565b82525050565b61223181612d0e565b61223181612d13565b61223161225582612d13565b612d13565b61223181612d16565b600061226e82612cf1565b6122788185612cf5565b9350612288818560208601612d33565b61229181612d5f565b9093019392505050565b60006122a8601883612cf5565b7f45434453413a20696e76616c6964207369676e61747572650000000000000000815260200192915050565b60006122e1601c83612cfe565b7f54496e697469616c697a61626c652e6973496e697469616c697a6564000000008152601c0192915050565b600061231a601f83612cf5565b7f526f6c65733a206163636f756e7420616c72656164792068617320726f6c6500815260200192915050565b6000612353601383612cf5565b724143434f554e54535f4c4953545f454d50545960681b815260200192915050565b6000612382601c83612cfe565b7f19457468657265756d205369676e6564204d6573736167653a0a3332000000008152601c0192915050565b60006123bb601e83612cf5565b7f4c4f414e5f5445524d535f524551554553545f4e4f4e43455f54414b454e0000815260200192915050565b60006123f4601883612cf5565b7f5349474e45525f414c52454144595f5355424d49545445440000000000000000815260200192915050565b600061242d602683612cf5565b7f4f776e61626c653a206e6577206f776e657220697320746865207a65726f206181526564647265737360d01b602082015260400192915050565b6000612475601483612cf5565b73149154d413d394d154d7d513d3d7d5905492515160621b815260200192915050565b60006124a5601b83612cf5565b7f536166654d6174683a206164646974696f6e206f766572666c6f770000000000815260200192915050565b60006124de601b83612cf5565b7f53455454494e47535f4d5553545f42455f415f434f4e54524143540000000000815260200192915050565b6000612517602283612cf5565b7f45434453413a20696e76616c6964207369676e6174757265202773272076616c815261756560f01b602082015260400192915050565b600061255b602083612cf5565b7f494e53554646494349454e545f4e554d4245525f4f465f524553504f4e534553815260200192915050565b6000612594601783612cf5565b7f43414c4c45525f4d5553545f42455f434f4e5452414354000000000000000000815260200192915050565b60006125cd601f83612cf5565b7f524551535f4c4f414e5f5445524d535f4c4d545f455843454544535f4d415800815260200192915050565b6000612606602183612cf5565b7f526f6c65733a206163636f756e7420646f6573206e6f74206861766520726f6c8152606560f81b602082015260400192915050565b6000612649602283612cf5565b7f45434453413a20696e76616c6964207369676e6174757265202776272076616c815261756560f01b602082015260400192915050565b600061268d602183612cf5565b7f536166654d6174683a206d756c7469706c69636174696f6e206f766572666c6f8152607760f81b602082015260400192915050565b60006126d0602083612cf5565b7f4f776e61626c653a2063616c6c6572206973206e6f7420746865206f776e6572815260200192915050565b6000612709602283612cf5565b7f526f6c65733a206163636f756e7420697320746865207a65726f206164647265815261737360f01b602082015260400192915050565b600061274d602e83612cf5565b7f436f6e747261637420696e7374616e63652068617320616c726561647920626581526d195b881a5b9a5d1a585b1a5e995960921b602082015260400192915050565b600061279d601083612cf5565b6f149154d413d394d157d156141254915160821b815260200192915050565b60006127c9601183612cf5565b7014d251d3905515549157d2539590531251607a1b815260200192915050565b60006127f6601883612cf5565b7f53454e4445525f4841534e545f5045524d495353494f4e530000000000000000815260200192915050565b600061282f601883612cfe565b7f426173655570677261646561626c652e73657474696e67730000000000000000815260180192915050565b6000612868601883612cf5565b7f434f4e54524143545f4e4f545f494e495449414c495a45440000000000000000815260200192915050565b60006128a1601c83612cf5565b7f434f4e54524143545f414c52454144595f494e495449414c495a454400000000815260200192915050565b805160808301906128de8482612240565b5060208201516128f16020850182612240565b5060408201516129046040850182612240565b5060608201516129176060850182612240565b50505050565b61223181612d2d565b600061043d826122d4565b600061293c82612375565b91506129488284612249565b50602001919050565b600061043d82612822565b6020810161043d8284612228565b6101408101612979828d612228565b612986602083018c612228565b612993604083018b612228565b6129a0606083018a612228565b6129ad6080830189612240565b6129ba60a0830188612240565b6129c760c0830187612240565b6129d460e0830186612240565b6129e2610100830185612240565b6129f0610120830184612240565b9b9a5050505050505050505050565b60e08101612a0d828a612228565b612a1a6020830189612240565b612a276040830188612240565b612a346060830187612240565b612a416080830186612240565b612a4e60a0830185612240565b612a5b60c0830184612240565b98975050505050505050565b6020810161043d8284612237565b6020810161043d8284612240565b60808101612a918287612240565b612a9e602083018661291d565b612aab6040830185612240565b611cb76060830184612240565b6020810161043d828461225a565b60208082528101610d9f8184612263565b6020808252810161043d8161229b565b6020808252810161043d8161230d565b6020808252810161043d81612346565b6020808252810161043d816123ae565b6020808252810161043d816123e7565b6020808252810161043d81612420565b6020808252810161043d81612468565b6020808252810161043d81612498565b6020808252810161043d816124d1565b6020808252810161043d8161250a565b6020808252810161043d8161254e565b6020808252810161043d81612587565b6020808252810161043d816125c0565b6020808252810161043d816125f9565b6020808252810161043d8161263c565b6020808252810161043d81612680565b6020808252810161043d816126c3565b6020808252810161043d816126fc565b6020808252810161043d81612740565b6020808252810161043d81612790565b6020808252810161043d816127bc565b6020808252810161043d816127e9565b6020808252810161043d8161285b565b6020808252810161043d81612894565b6101808101612c6682866128cd565b612c7360808301856128cd565b6113326101008301846128cd565b60608101612c8f8286612240565b612c9c6020830185612240565b6113326040830184612240565b60405181810167ffffffffffffffff81118282101715612cc857600080fd5b604052919050565b600067ffffffffffffffff821115612ce757600080fd5b5060209081020190565b5190565b90815260200190565b919050565b600061043d82612d21565b151590565b90565b600061043d82612d03565b6001600160a01b031690565b60ff1690565b60005b83811015612d4e578181015183820152602001612d36565b838111156129175750506000910152565b601f01601f191690565b612d7281612d03565b81146102e857600080fd5b612d7281612d0e565b612d7281612d13565b612d7281612d16565b612d7281612d2d56fea365627a7a72315820140c9977c81631aada869ae72205459c15202c05cda92c98ee399fc2efaa6cfc6c6578706572696d656e74616cf564736f6c63430005110040",
  "source": "pragma solidity 0.5.17;\npragma experimental ABIEncoderV2;\n\n// Contracts\nimport \"./Consensus.sol\";\n\n// Interfaces\nimport \"../interfaces/LoanTermsConsensusInterface.sol\";\n\n/*****************************************************************************************************/\n/**                                             WARNING                                             **/\n/**                                  THIS CONTRACT IS UPGRADEABLE!                                  **/\n/**  ---------------------------------------------------------------------------------------------  **/\n/**  Do NOT change the order of or PREPEND any storage variables to this or new versions of this    **/\n/**  contract as this will cause the the storage slots to be overwritten on the proxy contract!!    **/\n/**                                                                                                 **/\n/**  Visit https://docs.openzeppelin.com/upgrades/2.6/proxies#upgrading-via-the-proxy-pattern for   **/\n/**  more information.                                                                              **/\n/*****************************************************************************************************/\n/**\n    @notice This contract is used to process the loan requests through the Teller protocol\n\n    @author develop@teller.finance\n */\ncontract LoanTermsConsensus is LoanTermsConsensusInterface, Consensus {\n    /* Mappings */\n    /**\n        @notice It identifies the loan terms submissions for a given borrower address and a request nonce.\n\n        @dev Examples:\n            @address(0x123...567) => 1 => AccruedLoanTerms({...})\n            @address(0x123...567) => 2 => AccruedLoanTerms({...})\n            @address(0x234...678) => 1 => AccruedLoanTerms({...})\n     */\n    mapping(address => mapping(uint256 => TellerCommon.AccruedLoanTerms))\n        public termSubmissions;\n\n    /**\n        This mapping identify the last request timestamp for a given borrower address.\n\n            Example:    address(0x123...789) = timestamp(now)\n        \n        It is used as rate limit per borrower address.\n     */\n    mapping(address => uint256) public borrowerToLastLoanTermRequest;\n\n    mapping(bytes32 => bool) internal submittedMinaProofs;\n\n    /**\n        @notice Processes the loan request\n        @param request Struct of the protocol loan request\n        @param responses List of structs of the protocol loan responses\n        @return uint256 Interest rate\n        @return uint256 Collateral ratio\n        @return uint256 Maximum loan amount\n     */\n    function processRequest(\n        TellerCommon.LoanRequest calldata request,\n        TellerCommon.LoanResponse[] calldata responses\n    )\n        external\n        isInitialized()\n        isCaller(msg.sender)\n        onlyEnoughSubmissions(responses.length)\n        returns (\n            uint256 interestRate,\n            uint256 collateralRatio,\n            uint256 maxLoanAmount\n        )\n    {\n        _requireRequestLoanTermsRateLimit(request);\n        require(\n            !requestNonceTaken[request.borrower][request.requestNonce],\n            \"LOAN_TERMS_REQUEST_NONCE_TAKEN\"\n        );\n        requestNonceTaken[request.borrower][request.requestNonce] = true;\n\n        if (request.minaProofIdHash != bytes32(0)) {\n            require(!submittedMinaProofs[request.minaProofIdHash]);\n            submittedMinaProofs[request.minaProofIdHash] = true;\n        }\n\n        bytes32 requestHash = _hashRequest(request);\n\n        for (uint256 i = 0; i < responses.length; i++) {\n            _processResponse(request, responses[i], requestHash);\n        }\n\n        interestRate = _getConsensus(\n            termSubmissions[request.borrower][request.requestNonce].interestRate\n        );\n        collateralRatio = _getConsensus(\n            termSubmissions[request.borrower][request.requestNonce].collateralRatio\n        );\n        maxLoanAmount = _getConsensus(\n            termSubmissions[request.borrower][request.requestNonce].maxLoanAmount\n        );\n        borrowerToLastLoanTermRequest[request.borrower] = now;\n\n        // TODO: Remove redundant event\n        emit TermsAccepted(\n            request.borrower,\n            request.requestNonce,\n            interestRate,\n            collateralRatio,\n            maxLoanAmount\n        );\n    }\n\n    /**\n        @notice Processes the loan response\n        @param request Struct of the protocol loan request\n        @param response List of structs of the protocol loan responses\n        @param requestHash bytes32 Hash of the loan request\n     */\n    function _processResponse(\n        TellerCommon.LoanRequest memory request,\n        TellerCommon.LoanResponse memory response,\n        bytes32 requestHash\n    ) internal {\n        bytes32 responseHash = _hashResponse(response, requestHash);\n\n        _validateResponse(\n            response.signer,\n            request.borrower,\n            request.requestNonce,\n            response.responseTime,\n            responseHash,\n            response.signature\n        );\n\n        termSubmissions[request.borrower][request.requestNonce].interestRate.addValue(\n            response.interestRate\n        );\n        termSubmissions[request.borrower][request.requestNonce].collateralRatio.addValue(\n            response.collateralRatio\n        );\n        termSubmissions[request.borrower][request.requestNonce].maxLoanAmount.addValue(\n            response.maxLoanAmount\n        );\n\n        emit TermsSubmitted(\n            response.signer,\n            request.borrower,\n            request.requestNonce,\n            response.interestRate,\n            response.collateralRatio,\n            response.maxLoanAmount\n        );\n    }\n\n    /**\n        @notice Generates a hash for the loan response\n        @param response Structs of the protocol loan responses\n        @param requestHash Hash of the loan request\n        @return bytes32 Hash of the loan response\n     */\n    function _hashResponse(TellerCommon.LoanResponse memory response, bytes32 requestHash)\n        internal\n        view\n        returns (bytes32)\n    {\n        return\n            keccak256(\n                abi.encode(\n                    response.consensusAddress,\n                    response.responseTime,\n                    response.interestRate,\n                    response.collateralRatio,\n                    response.maxLoanAmount,\n                    _getChainId(),\n                    requestHash\n                )\n            );\n    }\n\n    /**\n        @notice Generates a hash for the loan request\n        @param request Struct of the protocol loan request\n        @return bytes32 Hash of the loan request\n     */\n    function _hashRequest(TellerCommon.LoanRequest memory request)\n        internal\n        view\n        returns (bytes32)\n    {\n        return\n            keccak256(\n                abi.encode(\n                    callerAddress,\n                    request.borrower,\n                    request.recipient,\n                    request.consensusAddress,\n                    request.requestNonce,\n                    request.amount,\n                    request.duration,\n                    request.requestTime,\n                    request.minaProofIdHash,\n                    _getChainId()\n                )\n            );\n    }\n\n    /**\n        @notice It validates whether the time window between the last loan terms request and current one exceeds the maximum rate limit.\n        @param request the new request.\n        @dev It throws a require error if the request rate limit exceeds the maximum.\n     */\n    function _requireRequestLoanTermsRateLimit(TellerCommon.LoanRequest memory request)\n        internal\n        view\n    {\n        // In case it is the first time that borrower requests loan terms, we don't validate the rate limit.\n        if (borrowerToLastLoanTermRequest[request.borrower] == 0) {\n            return;\n        }\n        uint256 requestLoanTermsRateLimit = _getSettings().getPlatformSettingValue(\n            _getSettings().consts().REQUEST_LOAN_TERMS_RATE_LIMIT_SETTING()\n        );\n        require(\n            borrowerToLastLoanTermRequest[request.borrower].add(\n                requestLoanTermsRateLimit\n            ) <= now,\n            \"REQS_LOAN_TERMS_LMT_EXCEEDS_MAX\"\n        );\n    }\n}\n",
  "sourcePath": "/home/jeremig/Documents/Teller/dojo/teller-protocol-v1/contracts/base/LoanTermsConsensus.sol",
  "compiler": {
    "name": "solc",
    "version": "0.5.17+commit.d19bba13.Emscripten.clang"
  },
  "schemaVersion": "3.2.3",
  "updatedAt": "2021-04-10T13:18:39.684Z",
  "networkType": "ethereum",
  "devdoc": {
    "author": "develop@teller.finance",
    "methods": {
      "addSigner(address)": {
        "details": "The sender must be the owner.It throws a require error if the sender is not the owner.",
        "params": {
          "account": "address to add."
        }
      },
      "addSigners(address[])": {
        "details": "The sender must be the owner.It throws a require error if the sender is not the owner.",
        "params": {
          "accounts": "addresses to add."
        }
      },
      "initialize(address)": {
        "details": "Initializes the contract setting the deployer as the initial owner."
      },
      "initialize(address,address,address)": {
        "details": "The caller address must be the loans contract for LoanTermsConsensus.",
        "params": {
          "aCallerAddress": "the contract that will call it.",
          "aSettingAddress": "the settings contract address.",
          "owner": "the owner address."
        }
      },
      "initialized()": {
        "return": "true if contract is initialized. Otherwise it returns false."
      },
      "isOwner()": {
        "details": "Returns true if the caller is the current owner."
      },
      "isSigner(address)": {
        "params": {
          "account": "address to test."
        },
        "return": "true if account is a signer. Otherwise it returns false."
      },
      "owner()": {
        "details": "Returns the address of the current owner."
      },
      "processRequest((address,address,address,uint256,uint256,uint256,uint256,bytes32),(address,address,uint256,uint256,uint256,uint256,(uint8,bytes32,bytes32))[])": {
        "params": {
          "request": "Struct of the protocol loan request",
          "responses": "List of structs of the protocol loan responses"
        },
        "return": "uint256 Interest rateuint256 Collateral ratiouint256 Maximum loan amount"
      },
      "removeSigner(address)": {
        "details": "The sender must be the owner.It throws a require error if the sender is not the owner.",
        "params": {
          "account": "address to remove."
        }
      },
      "renounceOwnership()": {
        "details": "Leaves the contract without owner. It will not be possible to call `onlyOwner` functions anymore. Can only be called by the current owner.     * > Note: Renouncing ownership will leave the contract without an owner, thereby removing any functionality that is only available to the owner."
      },
      "settings()": {
        "details": "This address should NOT change over the time. See details in the _setSettings(...) function."
      },
      "transferOwnership(address)": {
        "details": "Transfers ownership of the contract to a new account (`newOwner`). Can only be called by the current owner."
      }
    }
  },
  "userdoc": {
    "methods": {
      "addSigner(address)": {
        "notice": "It adds a new account as a signer."
      },
      "addSigners(address[])": {
        "notice": "It adds a list of account as signers."
      },
      "initialize(address,address,address)": {
        "notice": "It initializes this consensus contract."
      },
      "initialized()": {
        "notice": "Gets if the contract is initialized."
      },
      "isSigner(address)": {
        "notice": "Gets whether an account address is a signer or not."
      },
      "processRequest((address,address,address,uint256,uint256,uint256,uint256,bytes32),(address,address,uint256,uint256,uint256,uint256,(uint8,bytes32,bytes32))[])": {
        "notice": "Processes the loan request"
      },
      "removeSigner(address)": {
        "notice": "It removes an account as signer."
      },
      "settings()": {
        "notice": "The gets the settings contract address from the SETTINGS_SLOT."
      }
    },
    "notice": "This contract is used to process the loan requests through the Teller protocol"
  }
}