{
  "contractName": "LoanTermsConsensus",
  "abi": [
    {
      "anonymous": false,
      "inputs": [
        {
          "indexed": true,
          "internalType": "address",
          "name": "account",
          "type": "address"
        }
      ],
      "name": "SignerAdded",
      "type": "event"
    },
    {
      "anonymous": false,
      "inputs": [
        {
          "indexed": true,
          "internalType": "address",
          "name": "account",
          "type": "address"
        }
      ],
      "name": "SignerRemoved",
      "type": "event"
    },
    {
      "anonymous": false,
      "inputs": [
        {
          "indexed": true,
          "internalType": "address",
          "name": "borrower",
          "type": "address"
        },
        {
          "indexed": true,
          "internalType": "uint256",
          "name": "requestNonce",
          "type": "uint256"
        },
        {
          "indexed": false,
          "internalType": "uint256",
          "name": "interestRate",
          "type": "uint256"
        },
        {
          "indexed": false,
          "internalType": "uint256",
          "name": "collateralRatio",
          "type": "uint256"
        },
        {
          "indexed": false,
          "internalType": "uint256",
          "name": "maxLoanAmount",
          "type": "uint256"
        }
      ],
      "name": "TermsAccepted",
      "type": "event"
    },
    {
      "anonymous": false,
      "inputs": [
        {
          "indexed": true,
          "internalType": "address",
          "name": "signer",
          "type": "address"
        },
        {
          "indexed": true,
          "internalType": "address",
          "name": "borrower",
          "type": "address"
        },
        {
          "indexed": true,
          "internalType": "uint256",
          "name": "requestNonce",
          "type": "uint256"
        },
        {
          "indexed": false,
          "internalType": "uint256",
          "name": "interestRate",
          "type": "uint256"
        },
        {
          "indexed": false,
          "internalType": "uint256",
          "name": "collateralRatio",
          "type": "uint256"
        },
        {
          "indexed": false,
          "internalType": "uint256",
          "name": "maxLoanAmount",
          "type": "uint256"
        }
      ],
      "name": "TermsSubmitted",
      "type": "event"
    },
    {
      "constant": false,
      "inputs": [
        {
          "internalType": "address",
          "name": "account",
          "type": "address"
        }
      ],
      "name": "addSigner",
      "outputs": [],
      "payable": false,
      "stateMutability": "nonpayable",
      "type": "function"
    },
    {
      "constant": true,
      "inputs": [],
      "name": "caller",
      "outputs": [
        {
          "internalType": "address",
          "name": "",
          "type": "address"
        }
      ],
      "payable": false,
      "stateMutability": "view",
      "type": "function"
    },
    {
      "constant": true,
      "inputs": [
        {
          "internalType": "address",
          "name": "",
          "type": "address"
        },
        {
          "internalType": "address",
          "name": "",
          "type": "address"
        },
        {
          "internalType": "uint256",
          "name": "",
          "type": "uint256"
        }
      ],
      "name": "hasSubmitted",
      "outputs": [
        {
          "internalType": "bool",
          "name": "",
          "type": "bool"
        }
      ],
      "payable": false,
      "stateMutability": "view",
      "type": "function"
    },
    {
      "constant": false,
      "inputs": [
        {
          "internalType": "address",
          "name": "callerAddress",
          "type": "address"
        },
        {
          "internalType": "address",
          "name": "settingAddress",
          "type": "address"
        }
      ],
      "name": "initialize",
      "outputs": [],
      "payable": false,
      "stateMutability": "nonpayable",
      "type": "function"
    },
    {
      "constant": true,
      "inputs": [],
      "name": "initialized",
      "outputs": [
        {
          "internalType": "bool",
          "name": "",
          "type": "bool"
        }
      ],
      "payable": false,
      "stateMutability": "view",
      "type": "function"
    },
    {
      "constant": true,
      "inputs": [
        {
          "internalType": "address",
          "name": "account",
          "type": "address"
        }
      ],
      "name": "isSigner",
      "outputs": [
        {
          "internalType": "bool",
          "name": "",
          "type": "bool"
        }
      ],
      "payable": false,
      "stateMutability": "view",
      "type": "function"
    },
    {
      "constant": false,
      "inputs": [],
      "name": "renounceSigner",
      "outputs": [],
      "payable": false,
      "stateMutability": "nonpayable",
      "type": "function"
    },
    {
      "constant": true,
      "inputs": [
        {
          "internalType": "address",
          "name": "",
          "type": "address"
        },
        {
          "internalType": "uint256",
          "name": "",
          "type": "uint256"
        }
      ],
      "name": "requestNonceTaken",
      "outputs": [
        {
          "internalType": "bool",
          "name": "",
          "type": "bool"
        }
      ],
      "payable": false,
      "stateMutability": "view",
      "type": "function"
    },
    {
      "constant": true,
      "inputs": [],
      "name": "settings",
      "outputs": [
        {
          "internalType": "contract SettingsInterface",
          "name": "",
          "type": "address"
        }
      ],
      "payable": false,
      "stateMutability": "view",
      "type": "function"
    },
    {
      "constant": true,
      "inputs": [
        {
          "internalType": "address",
          "name": "",
          "type": "address"
        },
        {
          "internalType": "uint256",
          "name": "",
          "type": "uint256"
        }
      ],
      "name": "signerNonceTaken",
      "outputs": [
        {
          "internalType": "bool",
          "name": "",
          "type": "bool"
        }
      ],
      "payable": false,
      "stateMutability": "view",
      "type": "function"
    },
    {
      "constant": true,
      "inputs": [
        {
          "internalType": "address",
          "name": "",
          "type": "address"
        },
        {
          "internalType": "uint256",
          "name": "",
          "type": "uint256"
        }
      ],
      "name": "termSubmissions",
      "outputs": [
        {
          "components": [
            {
              "internalType": "uint256",
              "name": "count",
              "type": "uint256"
            },
            {
              "internalType": "uint256",
              "name": "max",
              "type": "uint256"
            },
            {
              "internalType": "uint256",
              "name": "min",
              "type": "uint256"
            },
            {
              "internalType": "uint256",
              "name": "sum",
              "type": "uint256"
            }
          ],
          "internalType": "struct NumbersList.Values",
          "name": "interestRate",
          "type": "tuple"
        },
        {
          "components": [
            {
              "internalType": "uint256",
              "name": "count",
              "type": "uint256"
            },
            {
              "internalType": "uint256",
              "name": "max",
              "type": "uint256"
            },
            {
              "internalType": "uint256",
              "name": "min",
              "type": "uint256"
            },
            {
              "internalType": "uint256",
              "name": "sum",
              "type": "uint256"
            }
          ],
          "internalType": "struct NumbersList.Values",
          "name": "collateralRatio",
          "type": "tuple"
        },
        {
          "components": [
            {
              "internalType": "uint256",
              "name": "count",
              "type": "uint256"
            },
            {
              "internalType": "uint256",
              "name": "max",
              "type": "uint256"
            },
            {
              "internalType": "uint256",
              "name": "min",
              "type": "uint256"
            },
            {
              "internalType": "uint256",
              "name": "sum",
              "type": "uint256"
            }
          ],
          "internalType": "struct NumbersList.Values",
          "name": "maxLoanAmount",
          "type": "tuple"
        }
      ],
      "payable": false,
      "stateMutability": "view",
      "type": "function"
    },
    {
      "constant": false,
      "inputs": [
        {
          "components": [
            {
              "internalType": "address payable",
              "name": "borrower",
              "type": "address"
            },
            {
              "internalType": "address",
              "name": "recipient",
              "type": "address"
            },
            {
              "internalType": "uint256",
              "name": "requestNonce",
              "type": "uint256"
            },
            {
              "internalType": "uint256",
              "name": "amount",
              "type": "uint256"
            },
            {
              "internalType": "uint256",
              "name": "duration",
              "type": "uint256"
            },
            {
              "internalType": "uint256",
              "name": "requestTime",
              "type": "uint256"
            }
          ],
          "internalType": "struct ZeroCollateralCommon.LoanRequest",
          "name": "request",
          "type": "tuple"
        },
        {
          "components": [
            {
              "internalType": "address",
              "name": "signer",
              "type": "address"
            },
            {
              "internalType": "uint256",
              "name": "responseTime",
              "type": "uint256"
            },
            {
              "internalType": "uint256",
              "name": "interestRate",
              "type": "uint256"
            },
            {
              "internalType": "uint256",
              "name": "collateralRatio",
              "type": "uint256"
            },
            {
              "internalType": "uint256",
              "name": "maxLoanAmount",
              "type": "uint256"
            },
            {
              "components": [
                {
                  "internalType": "uint256",
                  "name": "signerNonce",
                  "type": "uint256"
                },
                {
                  "internalType": "uint8",
                  "name": "v",
                  "type": "uint8"
                },
                {
                  "internalType": "bytes32",
                  "name": "r",
                  "type": "bytes32"
                },
                {
                  "internalType": "bytes32",
                  "name": "s",
                  "type": "bytes32"
                }
              ],
              "internalType": "struct ZeroCollateralCommon.Signature",
              "name": "signature",
              "type": "tuple"
            }
          ],
          "internalType": "struct ZeroCollateralCommon.LoanResponse[]",
          "name": "responses",
          "type": "tuple[]"
        }
      ],
      "name": "processRequest",
      "outputs": [
        {
          "internalType": "uint256",
          "name": "interestRate",
          "type": "uint256"
        },
        {
          "internalType": "uint256",
          "name": "collateralRatio",
          "type": "uint256"
        },
        {
          "internalType": "uint256",
          "name": "maxLoanAmount",
          "type": "uint256"
        }
      ],
      "payable": false,
      "stateMutability": "nonpayable",
      "type": "function"
    }
  ],
  "bytecode": "0x6080604052600180819055506200002b6200001f6200003160201b60201c565b6200003960201b60201c565b62000317565b600033905090565b620000548160036200009a60201b6200172e1790919060201c565b8073ffffffffffffffffffffffffffffffffffffffff167f47d1c22a25bb3a5d4e481b9b1e6944c2eade3181a0a20b495ed61d35b5323f2460405160405180910390a250565b620000ac82826200014d60201b60201c565b15620000ef576040517f08c379a0000000000000000000000000000000000000000000000000000000008152600401620000e690620002c2565b60405180910390fd5b60018260000160008373ffffffffffffffffffffffffffffffffffffffff1673ffffffffffffffffffffffffffffffffffffffff16815260200190815260200160002060006101000a81548160ff0219169083151502179055505050565b60008073ffffffffffffffffffffffffffffffffffffffff168273ffffffffffffffffffffffffffffffffffffffff161415620001c1576040517f08c379a0000000000000000000000000000000000000000000000000000000008152600401620001b890620002e4565b60405180910390fd5b8260000160008373ffffffffffffffffffffffffffffffffffffffff1673ffffffffffffffffffffffffffffffffffffffff16815260200190815260200160002060009054906101000a900460ff16905092915050565b600062000227601f8362000306565b91507f526f6c65733a206163636f756e7420616c72656164792068617320726f6c65006000830152602082019050919050565b60006200026960228362000306565b91507f526f6c65733a206163636f756e7420697320746865207a65726f20616464726560008301527f73730000000000000000000000000000000000000000000000000000000000006020830152604082019050919050565b60006020820190508181036000830152620002dd8162000218565b9050919050565b60006020820190508181036000830152620002ff816200025a565b9050919050565b600082825260208201905092915050565b612c9d80620003276000396000f3fe608060405234801561001057600080fd5b50600436106100b45760003560e01c8063ded5159211610071578063ded51592146101b5578063e06174e4146101e7578063e5c8b03d14610205578063eb12d61e1461020f578063fb98d9e21461022b578063fc9c8d391461025b576100b4565b8063158ef93e146100b95780632aac635e146100d7578063485cc9551461010957806368fcdeb8146101255780637df73e271461015557806399ffe06514610185575b600080fd5b6100c1610279565b6040516100ce9190612722565b60405180910390f35b6100f160048036036100ec9190810190611f2d565b61028f565b604051610100939291906129df565b60405180910390f35b610123600480360361011e9190810190611ea2565b61035c565b005b61013f600480360361013a9190810190611f2d565b610469565b60405161014c9190612722565b60405180910390f35b61016f600480360361016a9190810190611e50565b610498565b60405161017c9190612722565b60405180910390f35b61019f600480360361019a9190810190611ede565b6104b5565b6040516101ac9190612722565b60405180910390f35b6101cf60048036036101ca9190810190611f69565b6104f1565b6040516101de93929190612a18565b60405180910390f35b6101ef610a31565b6040516101fc9190612782565b60405180910390f35b61020d610a57565b005b61022960048036036102249190810190611e50565b610a69565b005b61024560048036036102409190810190611f2d565b610ac4565b6040516102529190612722565b60405180910390f35b610263610af3565b6040516102709190612698565b60405180910390f35b60008060009054906101000a900460ff16905090565b6007602052816000526040600020602052806000526040600020600091509150508060000160405180608001604052908160008201548152602001600182015481526020016002820154815260200160038201548152505090806004016040518060800160405290816000820154815260200160018201548152602001600282015481526020016003820154815250509080600801604051806080016040529081600082015481526020016001820154815260200160028201548152602001600382015481525050905083565b6000809054906101000a900460ff16156103ab576040517f08c379a00000000000000000000000000000000000000000000000000000000081526004016103a2906129bf565b60405180910390fd5b600073ffffffffffffffffffffffffffffffffffffffff168273ffffffffffffffffffffffffffffffffffffffff16141561041b576040517f08c379a0000000000000000000000000000000000000000000000000000000008152600401610412906127bf565b60405180910390fd5b61042481610b19565b81600660006101000a81548173ffffffffffffffffffffffffffffffffffffffff021916908373ffffffffffffffffffffffffffffffffffffffff1602179055505050565b60056020528160005260406000206020528060005260406000206000915091509054906101000a900460ff1681565b60006104ae826003610c1290919063ffffffff16565b9050919050565b6004602052826000526040600020602052816000526040600020602052806000526040600020600092509250509054906101000a900460ff1681565b60008060008060009054906101000a900460ff16610544576040517f08c379a000000000000000000000000000000000000000000000000000000000815260040161053b906128df565b60405180910390fd5b3373ffffffffffffffffffffffffffffffffffffffff16600660009054906101000a900473ffffffffffffffffffffffffffffffffffffffff1673ffffffffffffffffffffffffffffffffffffffff16146105d4576040517f08c379a00000000000000000000000000000000000000000000000000000000081526004016105cb9061299f565b60405180910390fd5b600260009054906101000a900473ffffffffffffffffffffffffffffffffffffffff1673ffffffffffffffffffffffffffffffffffffffff1663b9f9e3046040518163ffffffff1660e01b815260040160206040518083038186803b15801561063c57600080fd5b505afa158015610650573d6000803e3d6000fd5b505050506040513d601f19601f820116820180604052506106749190810190612014565b8585905010156106b9576040517f08c379a00000000000000000000000000000000000000000000000000000000081526004016106b09061295f565b60405180910390fd5b600860008760000160206106d09190810190611e79565b73ffffffffffffffffffffffffffffffffffffffff1673ffffffffffffffffffffffffffffffffffffffff16815260200190815260200160002060008760400135815260200190815260200160002060009054906101000a900460ff161561076d576040517f08c379a00000000000000000000000000000000000000000000000000000000081526004016107649061285f565b60405180910390fd5b6001600860008860000160206107869190810190611e79565b73ffffffffffffffffffffffffffffffffffffffff1673ffffffffffffffffffffffffffffffffffffffff16815260200190815260200160002060008860400135815260200190815260200160002060006101000a81548160ff0219169083151502179055506000610807878036036108029190810190611fc1565b610cda565b905060008090505b86869050811015610864576108578880360361082e9190810190611fc1565b88888481811061083a57fe5b905061012002018036036108519190810190611fea565b84610d50565b808060010191505061080f565b506108d66007600089600001602061087f9190810190611e79565b73ffffffffffffffffffffffffffffffffffffffff1673ffffffffffffffffffffffffffffffffffffffff168152602001908152602001600020600089604001358152602001908152602001600020600001610f5b565b9350610949600760008960000160206108f29190810190611e79565b73ffffffffffffffffffffffffffffffffffffffff1673ffffffffffffffffffffffffffffffffffffffff168152602001908152602001600020600089604001358152602001908152602001600020600401610f5b565b92506109bc600760008960000160206109659190810190611e79565b73ffffffffffffffffffffffffffffffffffffffff1673ffffffffffffffffffffffffffffffffffffffff168152602001908152602001600020600089604001358152602001908152602001600020600801610f5b565b915086604001358760000160206109d69190810190611e79565b73ffffffffffffffffffffffffffffffffffffffff167f658dfc9759b55173ea96c7bd8d4ad2c3e3804d28d83d2e1a25569a2fecb67208868686604051610a1f93929190612a18565b60405180910390a35093509350939050565b600260009054906101000a900473ffffffffffffffffffffffffffffffffffffffff1681565b610a67610a6261105e565b611066565b565b610a79610a7461105e565b610498565b610ab8576040517f08c379a0000000000000000000000000000000000000000000000000000000008152600401610aaf9061293f565b60405180910390fd5b610ac1816110c0565b50565b60086020528160005260406000206020528060005260406000206000915091509054906101000a900460ff1681565b600660009054906101000a900473ffffffffffffffffffffffffffffffffffffffff1681565b6000809054906101000a900460ff1615610b68576040517f08c379a0000000000000000000000000000000000000000000000000000000008152600401610b5f906129bf565b60405180910390fd5b610bc66040518060400160405280601981526020017f53455454494e47535f4d5553545f42455f50524f5649444544000000000000008152508273ffffffffffffffffffffffffffffffffffffffff1661111a90919063ffffffff16565b610bce61116a565b80600260006101000a81548173ffffffffffffffffffffffffffffffffffffffff021916908373ffffffffffffffffffffffffffffffffffffffff16021790555050565b60008073ffffffffffffffffffffffffffffffffffffffff168273ffffffffffffffffffffffffffffffffffffffff161415610c83576040517f08c379a0000000000000000000000000000000000000000000000000000000008152600401610c7a906128ff565b60405180910390fd5b8260000160008373ffffffffffffffffffffffffffffffffffffffff1673ffffffffffffffffffffffffffffffffffffffff16815260200190815260200160002060009054906101000a900460ff16905092915050565b6000600660009054906101000a900473ffffffffffffffffffffffffffffffffffffffff16826000015183602001518460400151856060015186608001518760a00151604051602001610d3397969594939291906126b3565b604051602081830303815290604052805190602001209050919050565b6000610d5c8383611186565b9050610d808360000151856000015186604001518660200151858860a001516111d9565b610df1836040015160076000876000015173ffffffffffffffffffffffffffffffffffffffff1673ffffffffffffffffffffffffffffffffffffffff16815260200190815260200160002060008760400151815260200190815260200160002060000161150d90919063ffffffff16565b610e62836060015160076000876000015173ffffffffffffffffffffffffffffffffffffffff1673ffffffffffffffffffffffffffffffffffffffff16815260200190815260200160002060008760400151815260200190815260200160002060040161150d90919063ffffffff16565b610ed3836080015160076000876000015173ffffffffffffffffffffffffffffffffffffffff1673ffffffffffffffffffffffffffffffffffffffff16815260200190815260200160002060008760400151815260200190815260200160002060080161150d90919063ffffffff16565b8360400151846000015173ffffffffffffffffffffffffffffffffffffffff16846000015173ffffffffffffffffffffffffffffffffffffffff167f75ec6e4b3d626c9ecaff859275e3ee99bd0d25d81a798938dcc15b49baffc24d866040015187606001518860800151604051610f4d93929190612a18565b60405180910390a450505050565b600061100f600260009054906101000a900473ffffffffffffffffffffffffffffffffffffffff1673ffffffffffffffffffffffffffffffffffffffff16637f4339436040518163ffffffff1660e01b815260040160206040518083038186803b158015610fc857600080fd5b505afa158015610fdc573d6000803e3d6000fd5b505050506040513d601f19601f820116820180604052506110009190810190612014565b8361158b90919063ffffffff16565b61104e576040517f08c379a00000000000000000000000000000000000000000000000000000000081526004016110459061281f565b60405180910390fd5b6110578261164a565b9050919050565b600033905090565b61107a81600361168790919063ffffffff16565b8073ffffffffffffffffffffffffffffffffffffffff167f3525e22824a8a7df2c9a6029941c824cf95b6447f1e13d5128fd3826d35afe8b60405160405180910390a250565b6110d481600361172e90919063ffffffff16565b8073ffffffffffffffffffffffffffffffffffffffff167f47d1c22a25bb3a5d4e481b9b1e6944c2eade3181a0a20b495ed61d35b5323f2460405160405180910390a250565b611123826117d6565b8190611165576040517f08c379a000000000000000000000000000000000000000000000000000000000815260040161115c919061279d565b60405180910390fd5b505050565b60016000806101000a81548160ff021916908315150217905550565b600082602001518360400151846060015185608001518660a0015160000151866040516020016111bb96959493929190612a4f565b60405160208183030381529060405280519060200120905092915050565b600460008773ffffffffffffffffffffffffffffffffffffffff1673ffffffffffffffffffffffffffffffffffffffff16815260200190815260200160002060008673ffffffffffffffffffffffffffffffffffffffff1673ffffffffffffffffffffffffffffffffffffffff168152602001908152602001600020600085815260200190815260200160002060009054906101000a900460ff16156112b4576040517f08c379a00000000000000000000000000000000000000000000000000000000081526004016112ab906127ff565b60405180910390fd5b6001600460008873ffffffffffffffffffffffffffffffffffffffff1673ffffffffffffffffffffffffffffffffffffffff16815260200190815260200160002060008773ffffffffffffffffffffffffffffffffffffffff1673ffffffffffffffffffffffffffffffffffffffff168152602001908152602001600020600086815260200190815260200160002060006101000a81548160ff02191690831515021790555061140c600260009054906101000a900473ffffffffffffffffffffffffffffffffffffffff1673ffffffffffffffffffffffffffffffffffffffff1663a7fced686040518163ffffffff1660e01b815260040160206040518083038186803b1580156113c557600080fd5b505afa1580156113d9573d6000803e3d6000fd5b505050506040513d601f19601f820116820180604052506113fd9190810190612014565b4261180f90919063ffffffff16565b83101561144e576040517f08c379a00000000000000000000000000000000000000000000000000000000081526004016114459061291f565b60405180910390fd5b611459818388611859565b611498576040517f08c379a000000000000000000000000000000000000000000000000000000000815260040161148f9061297f565b60405180910390fd5b6001600560008873ffffffffffffffffffffffffffffffffffffffff1673ffffffffffffffffffffffffffffffffffffffff16815260200190815260200160002060008360000151815260200190815260200160002060006101000a81548160ff021916908315150217905550505050505050565b8082600101541015611523578082600101819055505b8082600201541180611539575060008260000154145b15611548578082600201819055505b61155f8183600301546119d290919063ffffffff16565b826003018190555061157f600183600001546119d290919063ffffffff16565b82600001819055505050565b600061159683611a27565b156115a45760009050611644565b60006115af8461164a565b905060006115da6127106115cc8685611a3b90919063ffffffff16565b611aab90919063ffffffff16565b905060006115f1828461180f90919063ffffffff16565b9050808660020154101561160b5760009350505050611644565b600061162083856119d290919063ffffffff16565b9050808760010154111561163b576000945050505050611644565b60019450505050505b92915050565b600061165582611a27565b61167d5761167861166583611af5565b8360030154611aab90919063ffffffff16565b611680565b60005b9050919050565b6116918282610c12565b6116d0576040517f08c379a00000000000000000000000000000000000000000000000000000000081526004016116c79061289f565b60405180910390fd5b60008260000160008373ffffffffffffffffffffffffffffffffffffffff1673ffffffffffffffffffffffffffffffffffffffff16815260200190815260200160002060006101000a81548160ff0219169083151502179055505050565b6117388282610c12565b15611778576040517f08c379a000000000000000000000000000000000000000000000000000000000815260040161176f906127df565b60405180910390fd5b60018260000160008373ffffffffffffffffffffffffffffffffffffffff1673ffffffffffffffffffffffffffffffffffffffff16815260200190815260200160002060006101000a81548160ff0219169083151502179055505050565b60008073ffffffffffffffffffffffffffffffffffffffff168273ffffffffffffffffffffffffffffffffffffffff1614159050919050565b600061185183836040518060400160405280601e81526020017f536166654d6174683a207375627472616374696f6e206f766572666c6f770000815250611b03565b905092915050565b600061186482610498565b61187157600090506119cb565b600560008373ffffffffffffffffffffffffffffffffffffffff1673ffffffffffffffffffffffffffffffffffffffff16815260200190815260200160002060008560000151815260200190815260200160002060009054906101000a900460ff1615611913576040517f08c379a000000000000000000000000000000000000000000000000000000000815260040161190a9061287f565b60405180910390fd5b60006001846040516020016119289190612672565b604051602081830303815290604052805190602001208660200151876040015188606001516040516000815260200160405260405161196a949392919061273d565b6020604051602081039080840390855afa15801561198c573d6000803e3d6000fd5b5050506020604051035190508273ffffffffffffffffffffffffffffffffffffffff168173ffffffffffffffffffffffffffffffffffffffff16149150505b9392505050565b600080828401905083811015611a1d576040517f08c379a0000000000000000000000000000000000000000000000000000000008152600401611a149061283f565b60405180910390fd5b8091505092915050565b600080611a3383611af5565b149050919050565b600080831415611a4e5760009050611aa5565b6000828402905082848281611a5f57fe5b0414611aa0576040517f08c379a0000000000000000000000000000000000000000000000000000000008152600401611a97906128bf565b60405180910390fd5b809150505b92915050565b6000611aed83836040518060400160405280601a81526020017f536166654d6174683a206469766973696f6e206279207a65726f000000000000815250611b5e565b905092915050565b600081600001549050919050565b6000838311158290611b4b576040517f08c379a0000000000000000000000000000000000000000000000000000000008152600401611b42919061279d565b60405180910390fd5b5060008385039050809150509392505050565b60008083118290611ba5576040517f08c379a0000000000000000000000000000000000000000000000000000000008152600401611b9c919061279d565b60405180910390fd5b506000838581611bb157fe5b049050809150509392505050565b600081359050611bce81612be7565b92915050565b600081359050611be381612bfe565b92915050565b60008083601f840112611bfb57600080fd5b8235905067ffffffffffffffff811115611c1457600080fd5b60208301915083610120820283011115611c2d57600080fd5b9250929050565b600081359050611c4381612c15565b92915050565b600060c08284031215611c5b57600080fd5b81905092915050565b600060c08284031215611c7657600080fd5b611c8060c0612ab0565b90506000611c9084828501611bd4565b6000830152506020611ca484828501611bbf565b6020830152506040611cb884828501611e11565b6040830152506060611ccc84828501611e11565b6060830152506080611ce084828501611e11565b60808301525060a0611cf484828501611e11565b60a08301525092915050565b60006101208284031215611d1357600080fd5b611d1d60c0612ab0565b90506000611d2d84828501611bbf565b6000830152506020611d4184828501611e11565b6020830152506040611d5584828501611e11565b6040830152506060611d6984828501611e11565b6060830152506080611d7d84828501611e11565b60808301525060a0611d9184828501611d9d565b60a08301525092915050565b600060808284031215611daf57600080fd5b611db96080612ab0565b90506000611dc984828501611e11565b6000830152506020611ddd84828501611e3b565b6020830152506040611df184828501611c34565b6040830152506060611e0584828501611c34565b60608301525092915050565b600081359050611e2081612c2c565b92915050565b600081519050611e3581612c2c565b92915050565b600081359050611e4a81612c43565b92915050565b600060208284031215611e6257600080fd5b6000611e7084828501611bbf565b91505092915050565b600060208284031215611e8b57600080fd5b6000611e9984828501611bd4565b91505092915050565b60008060408385031215611eb557600080fd5b6000611ec385828601611bbf565b9250506020611ed485828601611bbf565b9150509250929050565b600080600060608486031215611ef357600080fd5b6000611f0186828701611bbf565b9350506020611f1286828701611bbf565b9250506040611f2386828701611e11565b9150509250925092565b60008060408385031215611f4057600080fd5b6000611f4e85828601611bbf565b9250506020611f5f85828601611e11565b9150509250929050565b600080600060e08486031215611f7e57600080fd5b6000611f8c86828701611c49565b93505060c084013567ffffffffffffffff811115611fa957600080fd5b611fb586828701611be9565b92509250509250925092565b600060c08284031215611fd357600080fd5b6000611fe184828501611c64565b91505092915050565b60006101208284031215611ffd57600080fd5b600061200b84828501611d00565b91505092915050565b60006020828403121561202657600080fd5b600061203484828501611e26565b91505092915050565b61204681612b16565b82525050565b61205581612b04565b82525050565b61206481612b28565b82525050565b61207381612b34565b82525050565b61208a61208582612b34565b612bcc565b82525050565b61209981612b75565b82525050565b60006120aa82612add565b6120b48185612ae8565b93506120c4818560208601612b99565b6120cd81612bd6565b840191505092915050565b60006120e5601883612ae8565b91507f4d5553545f50524f564944455f4c454e4445525f494e464f00000000000000006000830152602082019050919050565b6000612125601f83612ae8565b91507f526f6c65733a206163636f756e7420616c72656164792068617320726f6c65006000830152602082019050919050565b6000612165601c83612af9565b91507f19457468657265756d205369676e6564204d6573736167653a0a3332000000006000830152601c82019050919050565b60006121a5601883612ae8565b91507f5349474e45525f414c52454144595f5355424d495454454400000000000000006000830152602082019050919050565b60006121e5601483612ae8565b91507f524553504f4e5345535f544f4f5f5641524945440000000000000000000000006000830152602082019050919050565b6000612225601b83612ae8565b91507f536166654d6174683a206164646974696f6e206f766572666c6f7700000000006000830152602082019050919050565b6000612265601383612ae8565b91507f524551554553545f4e4f4e43455f54414b454e000000000000000000000000006000830152602082019050919050565b60006122a5601283612ae8565b91507f5349474e45525f4e4f4e43455f54414b454e00000000000000000000000000006000830152602082019050919050565b60006122e5602183612ae8565b91507f526f6c65733a206163636f756e7420646f6573206e6f74206861766520726f6c60008301527f65000000000000000000000000000000000000000000000000000000000000006020830152604082019050919050565b600061234b602183612ae8565b91507f536166654d6174683a206d756c7469706c69636174696f6e206f766572666c6f60008301527f77000000000000000000000000000000000000000000000000000000000000006020830152604082019050919050565b60006123b1601683612ae8565b91507f4974206973206e6f7420696e697469616c697a65642e000000000000000000006000830152602082019050919050565b60006123f1602283612ae8565b91507f526f6c65733a206163636f756e7420697320746865207a65726f20616464726560008301527f73730000000000000000000000000000000000000000000000000000000000006020830152604082019050919050565b6000612457601083612ae8565b91507f524553504f4e53455f45585049524544000000000000000000000000000000006000830152602082019050919050565b6000612497603083612ae8565b91507f5369676e6572526f6c653a2063616c6c657220646f6573206e6f74206861766560008301527f20746865205369676e657220726f6c65000000000000000000000000000000006020830152604082019050919050565b60006124fd601683612ae8565b91507f494e53554646494349454e545f524553504f4e534553000000000000000000006000830152602082019050919050565b600061253d601183612ae8565b91507f5349474e41545552455f494e56414c49440000000000000000000000000000006000830152602082019050919050565b600061257d601b83612ae8565b91507f4164647265737320686173206e6f207065726d697373696f6e732e00000000006000830152602082019050919050565b60006125bd601a83612ae8565b91507f497420697320616c726561647920696e697469616c697a65642e0000000000006000830152602082019050919050565b6080820160008201516126066000850182612645565b5060208201516126196020850182612645565b50604082015161262c6040850182612645565b50606082015161263f6060850182612645565b50505050565b61264e81612b5e565b82525050565b61265d81612b5e565b82525050565b61266c81612b68565b82525050565b600061267d82612158565b91506126898284612079565b60208201915081905092915050565b60006020820190506126ad600083018461204c565b92915050565b600060e0820190506126c8600083018a61204c565b6126d5602083018961203d565b6126e2604083018861204c565b6126ef6060830187612654565b6126fc6080830186612654565b61270960a0830185612654565b61271660c0830184612654565b98975050505050505050565b6000602082019050612737600083018461205b565b92915050565b6000608082019050612752600083018761206a565b61275f6020830186612663565b61276c604083018561206a565b612779606083018461206a565b95945050505050565b60006020820190506127976000830184612090565b92915050565b600060208201905081810360008301526127b7818461209f565b905092915050565b600060208201905081810360008301526127d8816120d8565b9050919050565b600060208201905081810360008301526127f881612118565b9050919050565b6000602082019050818103600083015261281881612198565b9050919050565b60006020820190508181036000830152612838816121d8565b9050919050565b6000602082019050818103600083015261285881612218565b9050919050565b6000602082019050818103600083015261287881612258565b9050919050565b6000602082019050818103600083015261289881612298565b9050919050565b600060208201905081810360008301526128b8816122d8565b9050919050565b600060208201905081810360008301526128d88161233e565b9050919050565b600060208201905081810360008301526128f8816123a4565b9050919050565b60006020820190508181036000830152612918816123e4565b9050919050565b600060208201905081810360008301526129388161244a565b9050919050565b600060208201905081810360008301526129588161248a565b9050919050565b60006020820190508181036000830152612978816124f0565b9050919050565b6000602082019050818103600083015261299881612530565b9050919050565b600060208201905081810360008301526129b881612570565b9050919050565b600060208201905081810360008301526129d8816125b0565b9050919050565b6000610180820190506129f560008301866125f0565b612a0260808301856125f0565b612a106101008301846125f0565b949350505050565b6000606082019050612a2d6000830186612654565b612a3a6020830185612654565b612a476040830184612654565b949350505050565b600060c082019050612a646000830189612654565b612a716020830188612654565b612a7e6040830187612654565b612a8b6060830186612654565b612a986080830185612654565b612aa560a083018461206a565b979650505050505050565b6000604051905081810181811067ffffffffffffffff82111715612ad357600080fd5b8060405250919050565b600081519050919050565b600082825260208201905092915050565b600081905092915050565b6000612b0f82612b3e565b9050919050565b6000612b2182612b3e565b9050919050565b60008115159050919050565b6000819050919050565b600073ffffffffffffffffffffffffffffffffffffffff82169050919050565b6000819050919050565b600060ff82169050919050565b6000612b8082612b87565b9050919050565b6000612b9282612b3e565b9050919050565b60005b83811015612bb7578082015181840152602081019050612b9c565b83811115612bc6576000848401525b50505050565b6000819050919050565b6000601f19601f8301169050919050565b612bf081612b04565b8114612bfb57600080fd5b50565b612c0781612b16565b8114612c1257600080fd5b50565b612c1e81612b34565b8114612c2957600080fd5b50565b612c3581612b5e565b8114612c4057600080fd5b50565b612c4c81612b68565b8114612c5757600080fd5b5056fea365627a7a7231582004a98eaae57b393e1ca8c3017f620c140fca7d2647fe4ca8f8b98e5b52b7bd9d6c6578706572696d656e74616cf564736f6c63430005110040",
  "source": "/*\n    Copyright 2020 Fabrx Labs Inc.\n\n    Licensed under the Apache License, Version 2.0 (the \"License\");\n    you may not use this file except in compliance with the License.\n    You may obtain a copy of the License at\n\n    http://www.apache.org/licenses/LICENSE-2.0\n\n    Unless required by applicable law or agreed to in writing, software\n    distributed under the License is distributed on an \"AS IS\" BASIS,\n    WITHOUT WARRANTIES OR CONDITIONS OF ANY KIND, either express or implied.\n    See the License for the specific language governing permissions and\n    limitations under the License.\n*/\npragma solidity 0.5.17;\npragma experimental ABIEncoderV2;\n\n// Contracts\nimport \"./Consensus.sol\";\n\n// Interfaces\nimport \"../interfaces/LoanTermsConsensusInterface.sol\";\n\n\ncontract LoanTermsConsensus is Consensus, LoanTermsConsensusInterface {\n    mapping(address => mapping(uint256 => ZeroCollateralCommon.AccruedLoanTerms)) public termSubmissions;\n    mapping(address => mapping(uint256 => bool)) public requestNonceTaken;\n\n    function processRequest(\n        ZeroCollateralCommon.LoanRequest calldata request,\n        ZeroCollateralCommon.LoanResponse[] calldata responses\n    )\n        external\n        isInitialized()\n        isCaller()\n        returns (uint256 interestRate, uint256 collateralRatio, uint256 maxLoanAmount)\n    {\n        require(\n            responses.length >= settings.requiredSubmissions(),\n            \"INSUFFICIENT_RESPONSES\"\n        );\n        require(\n            !requestNonceTaken[request.borrower][request.requestNonce],\n            \"REQUEST_NONCE_TAKEN\"\n        );\n        requestNonceTaken[request.borrower][request.requestNonce] = true;\n\n        bytes32 requestHash = _hashRequest(request);\n\n        for (uint256 i = 0; i < responses.length; i++) {\n            _processReponse(request, responses[i], requestHash);\n        }\n\n        interestRate = _getConsensus(\n            termSubmissions[request.borrower][request.requestNonce].interestRate\n        );\n        collateralRatio = _getConsensus(\n            termSubmissions[request.borrower][request.requestNonce].collateralRatio\n        );\n        maxLoanAmount = _getConsensus(\n            termSubmissions[request.borrower][request.requestNonce].maxLoanAmount\n        );\n\n        emit TermsAccepted(\n            request.borrower,\n            request.requestNonce,\n            interestRate,\n            collateralRatio,\n            maxLoanAmount\n        );\n    }\n\n    function _processReponse(\n        ZeroCollateralCommon.LoanRequest memory request,\n        ZeroCollateralCommon.LoanResponse memory response,\n        bytes32 requestHash\n    ) internal {\n        bytes32 responseHash = _hashResponse(response, requestHash);\n\n        _validateResponse(\n            response.signer,\n            request.borrower,\n            request.requestNonce,\n            response.responseTime,\n            responseHash,\n            response.signature\n        );\n\n        termSubmissions[request.borrower][request.requestNonce].interestRate.addValue(\n            response.interestRate\n        );\n        termSubmissions[request.borrower][request.requestNonce].collateralRatio.addValue(\n            response.collateralRatio\n        );\n        termSubmissions[request.borrower][request.requestNonce].maxLoanAmount.addValue(\n            response.maxLoanAmount\n        );\n\n        emit TermsSubmitted(\n            response.signer,\n            request.borrower,\n            request.requestNonce,\n            response.interestRate,\n            response.collateralRatio,\n            response.maxLoanAmount\n        );\n    }\n\n    function _hashResponse(\n        ZeroCollateralCommon.LoanResponse memory response,\n        bytes32 requestHash\n    ) internal pure returns (bytes32) {\n        return\n            keccak256(\n                abi.encode(\n                    response.responseTime,\n                    response.interestRate,\n                    response.collateralRatio,\n                    response.maxLoanAmount,\n                    response.signature.signerNonce,\n                    requestHash\n                )\n            );\n    }\n\n    function _hashRequest(ZeroCollateralCommon.LoanRequest memory request)\n        internal\n        view\n        returns (bytes32)\n    {\n        return\n            keccak256(\n                abi.encode(\n                    caller,\n                    request.borrower,\n                    request.recipient,\n                    request.requestNonce,\n                    request.amount,\n                    request.duration,\n                    request.requestTime\n                )\n            );\n    }\n}\n",
  "sourcePath": "/Users/guillesalazar/Repos/ZeroCollateral/smart-contracts-v1/contracts/base/LoanTermsConsensus.sol",
  "compiler": {
    "name": "solc",
    "version": "0.5.17+commit.d19bba13.Emscripten.clang"
  },
  "schemaVersion": "3.0.23",
  "updatedAt": "2020-05-19T14:55:31.484Z",
  "devdoc": {
    "methods": {}
  },
  "userdoc": {
    "methods": {
      "initialized()": {
        "notice": "External Functions "
      }
    }
  }
}