{
  "contractName": "LoanTermsConsensus",
  "abi": [
    {
      "anonymous": false,
      "inputs": [
        {
          "indexed": true,
          "internalType": "address",
          "name": "previousOwner",
          "type": "address"
        },
        {
          "indexed": true,
          "internalType": "address",
          "name": "newOwner",
          "type": "address"
        }
      ],
      "name": "OwnershipTransferred",
      "type": "event"
    },
    {
      "anonymous": false,
      "inputs": [
        {
          "indexed": true,
          "internalType": "address",
          "name": "account",
          "type": "address"
        }
      ],
      "name": "SignerAdded",
      "type": "event"
    },
    {
      "anonymous": false,
      "inputs": [
        {
          "indexed": true,
          "internalType": "address",
          "name": "account",
          "type": "address"
        }
      ],
      "name": "SignerRemoved",
      "type": "event"
    },
    {
      "anonymous": false,
      "inputs": [
        {
          "indexed": true,
          "internalType": "address",
          "name": "borrower",
          "type": "address"
        },
        {
          "indexed": true,
          "internalType": "uint256",
          "name": "requestNonce",
          "type": "uint256"
        },
        {
          "indexed": false,
          "internalType": "uint256",
          "name": "interestRate",
          "type": "uint256"
        },
        {
          "indexed": false,
          "internalType": "uint256",
          "name": "collateralRatio",
          "type": "uint256"
        },
        {
          "indexed": false,
          "internalType": "uint256",
          "name": "maxLoanAmount",
          "type": "uint256"
        }
      ],
      "name": "TermsAccepted",
      "type": "event"
    },
    {
      "anonymous": false,
      "inputs": [
        {
          "indexed": true,
          "internalType": "address",
          "name": "signer",
          "type": "address"
        },
        {
          "indexed": true,
          "internalType": "address",
          "name": "borrower",
          "type": "address"
        },
        {
          "indexed": true,
          "internalType": "uint256",
          "name": "requestNonce",
          "type": "uint256"
        },
        {
          "indexed": false,
          "internalType": "uint256",
          "name": "interestRate",
          "type": "uint256"
        },
        {
          "indexed": false,
          "internalType": "uint256",
          "name": "collateralRatio",
          "type": "uint256"
        },
        {
          "indexed": false,
          "internalType": "uint256",
          "name": "maxLoanAmount",
          "type": "uint256"
        }
      ],
      "name": "TermsSubmitted",
      "type": "event"
    },
    {
      "constant": true,
      "inputs": [],
      "name": "LIQUIDATE_ETH_PRICE_SETTING",
      "outputs": [
        {
          "internalType": "bytes32",
          "name": "",
          "type": "bytes32"
        }
      ],
      "payable": false,
      "stateMutability": "view",
      "type": "function"
    },
    {
      "constant": true,
      "inputs": [],
      "name": "MAXIMUM_LOAN_DURATION_SETTING",
      "outputs": [
        {
          "internalType": "bytes32",
          "name": "",
          "type": "bytes32"
        }
      ],
      "payable": false,
      "stateMutability": "view",
      "type": "function"
    },
    {
      "constant": true,
      "inputs": [],
      "name": "MAXIMUM_TOLERANCE_SETTING",
      "outputs": [
        {
          "internalType": "bytes32",
          "name": "",
          "type": "bytes32"
        }
      ],
      "payable": false,
      "stateMutability": "view",
      "type": "function"
    },
    {
      "constant": true,
      "inputs": [],
      "name": "REQUIRED_SUBMISSIONS_SETTING",
      "outputs": [
        {
          "internalType": "bytes32",
          "name": "",
          "type": "bytes32"
        }
      ],
      "payable": false,
      "stateMutability": "view",
      "type": "function"
    },
    {
      "constant": true,
      "inputs": [],
      "name": "RESPONSE_EXPIRY_LENGTH_SETTING",
      "outputs": [
        {
          "internalType": "bytes32",
          "name": "",
          "type": "bytes32"
        }
      ],
      "payable": false,
      "stateMutability": "view",
      "type": "function"
    },
    {
      "constant": true,
      "inputs": [],
      "name": "SAFETY_INTERVAL_SETTING",
      "outputs": [
        {
          "internalType": "bytes32",
          "name": "",
          "type": "bytes32"
        }
      ],
      "payable": false,
      "stateMutability": "view",
      "type": "function"
    },
    {
      "constant": true,
      "inputs": [],
      "name": "TERMS_EXPIRY_TIME_SETTING",
      "outputs": [
        {
          "internalType": "bytes32",
          "name": "",
          "type": "bytes32"
        }
      ],
      "payable": false,
      "stateMutability": "view",
      "type": "function"
    },
    {
      "constant": false,
      "inputs": [
        {
          "internalType": "address",
          "name": "account",
          "type": "address"
        }
      ],
      "name": "addSigner",
      "outputs": [],
      "payable": false,
      "stateMutability": "nonpayable",
      "type": "function"
    },
    {
      "constant": true,
      "inputs": [],
      "name": "callerAddress",
      "outputs": [
        {
          "internalType": "address",
          "name": "",
          "type": "address"
        }
      ],
      "payable": false,
      "stateMutability": "view",
      "type": "function"
    },
    {
      "constant": true,
      "inputs": [
        {
          "internalType": "address",
          "name": "",
          "type": "address"
        },
        {
          "internalType": "address",
          "name": "",
          "type": "address"
        },
        {
          "internalType": "uint256",
          "name": "",
          "type": "uint256"
        }
      ],
      "name": "hasSubmitted",
      "outputs": [
        {
          "internalType": "bool",
          "name": "",
          "type": "bool"
        }
      ],
      "payable": false,
      "stateMutability": "view",
      "type": "function"
    },
    {
      "constant": false,
      "inputs": [
        {
          "internalType": "address",
          "name": "aCallerAddress",
          "type": "address"
        },
        {
          "internalType": "address",
          "name": "aSettingAddress",
          "type": "address"
        },
        {
          "internalType": "address",
          "name": "aMarketsAddress",
          "type": "address"
        }
      ],
      "name": "initialize",
      "outputs": [],
      "payable": false,
      "stateMutability": "nonpayable",
      "type": "function"
    },
    {
      "constant": true,
      "inputs": [],
      "name": "initialized",
      "outputs": [
        {
          "internalType": "bool",
          "name": "",
          "type": "bool"
        }
      ],
      "payable": false,
      "stateMutability": "view",
      "type": "function"
    },
    {
      "constant": true,
      "inputs": [],
      "name": "isOwner",
      "outputs": [
        {
          "internalType": "bool",
          "name": "",
          "type": "bool"
        }
      ],
      "payable": false,
      "stateMutability": "view",
      "type": "function"
    },
    {
      "constant": true,
      "inputs": [
        {
          "internalType": "address",
          "name": "account",
          "type": "address"
        }
      ],
      "name": "isSigner",
      "outputs": [
        {
          "internalType": "bool",
          "name": "",
          "type": "bool"
        }
      ],
      "payable": false,
      "stateMutability": "view",
      "type": "function"
    },
    {
      "constant": true,
      "inputs": [],
      "name": "markets",
      "outputs": [
        {
          "internalType": "contract MarketsStateInterface",
          "name": "",
          "type": "address"
        }
      ],
      "payable": false,
      "stateMutability": "view",
      "type": "function"
    },
    {
      "constant": true,
      "inputs": [],
      "name": "owner",
      "outputs": [
        {
          "internalType": "address",
          "name": "",
          "type": "address"
        }
      ],
      "payable": false,
      "stateMutability": "view",
      "type": "function"
    },
    {
      "constant": false,
      "inputs": [
        {
          "internalType": "address",
          "name": "account",
          "type": "address"
        }
      ],
      "name": "removeSigner",
      "outputs": [],
      "payable": false,
      "stateMutability": "nonpayable",
      "type": "function"
    },
    {
      "constant": false,
      "inputs": [],
      "name": "renounceOwnership",
      "outputs": [],
      "payable": false,
      "stateMutability": "nonpayable",
      "type": "function"
    },
    {
      "constant": true,
      "inputs": [
        {
          "internalType": "address",
          "name": "",
          "type": "address"
        },
        {
          "internalType": "uint256",
          "name": "",
          "type": "uint256"
        }
      ],
      "name": "requestNonceTaken",
      "outputs": [
        {
          "internalType": "bool",
          "name": "",
          "type": "bool"
        }
      ],
      "payable": false,
      "stateMutability": "view",
      "type": "function"
    },
    {
      "constant": true,
      "inputs": [],
      "name": "settings",
      "outputs": [
        {
          "internalType": "contract SettingsInterface",
          "name": "",
          "type": "address"
        }
      ],
      "payable": false,
      "stateMutability": "view",
      "type": "function"
    },
    {
      "constant": true,
      "inputs": [
        {
          "internalType": "address",
          "name": "",
          "type": "address"
        },
        {
          "internalType": "uint256",
          "name": "",
          "type": "uint256"
        }
      ],
      "name": "signerNonceTaken",
      "outputs": [
        {
          "internalType": "bool",
          "name": "",
          "type": "bool"
        }
      ],
      "payable": false,
      "stateMutability": "view",
      "type": "function"
    },
    {
      "constant": true,
      "inputs": [
        {
          "internalType": "address",
          "name": "",
          "type": "address"
        },
        {
          "internalType": "uint256",
          "name": "",
          "type": "uint256"
        }
      ],
      "name": "termSubmissions",
      "outputs": [
        {
          "components": [
            {
              "internalType": "uint256",
              "name": "count",
              "type": "uint256"
            },
            {
              "internalType": "uint256",
              "name": "max",
              "type": "uint256"
            },
            {
              "internalType": "uint256",
              "name": "min",
              "type": "uint256"
            },
            {
              "internalType": "uint256",
              "name": "sum",
              "type": "uint256"
            }
          ],
          "internalType": "struct NumbersList.Values",
          "name": "interestRate",
          "type": "tuple"
        },
        {
          "components": [
            {
              "internalType": "uint256",
              "name": "count",
              "type": "uint256"
            },
            {
              "internalType": "uint256",
              "name": "max",
              "type": "uint256"
            },
            {
              "internalType": "uint256",
              "name": "min",
              "type": "uint256"
            },
            {
              "internalType": "uint256",
              "name": "sum",
              "type": "uint256"
            }
          ],
          "internalType": "struct NumbersList.Values",
          "name": "collateralRatio",
          "type": "tuple"
        },
        {
          "components": [
            {
              "internalType": "uint256",
              "name": "count",
              "type": "uint256"
            },
            {
              "internalType": "uint256",
              "name": "max",
              "type": "uint256"
            },
            {
              "internalType": "uint256",
              "name": "min",
              "type": "uint256"
            },
            {
              "internalType": "uint256",
              "name": "sum",
              "type": "uint256"
            }
          ],
          "internalType": "struct NumbersList.Values",
          "name": "maxLoanAmount",
          "type": "tuple"
        }
      ],
      "payable": false,
      "stateMutability": "view",
      "type": "function"
    },
    {
      "constant": false,
      "inputs": [
        {
          "internalType": "address",
          "name": "newOwner",
          "type": "address"
        }
      ],
      "name": "transferOwnership",
      "outputs": [],
      "payable": false,
      "stateMutability": "nonpayable",
      "type": "function"
    },
    {
      "constant": false,
      "inputs": [
        {
          "components": [
            {
              "internalType": "address payable",
              "name": "borrower",
              "type": "address"
            },
            {
              "internalType": "address",
              "name": "recipient",
              "type": "address"
            },
            {
              "internalType": "address",
              "name": "consensusAddress",
              "type": "address"
            },
            {
              "internalType": "uint256",
              "name": "requestNonce",
              "type": "uint256"
            },
            {
              "internalType": "uint256",
              "name": "amount",
              "type": "uint256"
            },
            {
              "internalType": "uint256",
              "name": "duration",
              "type": "uint256"
            },
            {
              "internalType": "uint256",
              "name": "requestTime",
              "type": "uint256"
            }
          ],
          "internalType": "struct TellerCommon.LoanRequest",
          "name": "request",
          "type": "tuple"
        },
        {
          "components": [
            {
              "internalType": "address",
              "name": "signer",
              "type": "address"
            },
            {
              "internalType": "address",
              "name": "consensusAddress",
              "type": "address"
            },
            {
              "internalType": "uint256",
              "name": "responseTime",
              "type": "uint256"
            },
            {
              "internalType": "uint256",
              "name": "interestRate",
              "type": "uint256"
            },
            {
              "internalType": "uint256",
              "name": "collateralRatio",
              "type": "uint256"
            },
            {
              "internalType": "uint256",
              "name": "maxLoanAmount",
              "type": "uint256"
            },
            {
              "components": [
                {
                  "internalType": "uint256",
                  "name": "signerNonce",
                  "type": "uint256"
                },
                {
                  "internalType": "uint8",
                  "name": "v",
                  "type": "uint8"
                },
                {
                  "internalType": "bytes32",
                  "name": "r",
                  "type": "bytes32"
                },
                {
                  "internalType": "bytes32",
                  "name": "s",
                  "type": "bytes32"
                }
              ],
              "internalType": "struct TellerCommon.Signature",
              "name": "signature",
              "type": "tuple"
            }
          ],
          "internalType": "struct TellerCommon.LoanResponse[]",
          "name": "responses",
          "type": "tuple[]"
        }
      ],
      "name": "processRequest",
      "outputs": [
        {
          "internalType": "uint256",
          "name": "interestRate",
          "type": "uint256"
        },
        {
          "internalType": "uint256",
          "name": "collateralRatio",
          "type": "uint256"
        },
        {
          "internalType": "uint256",
          "name": "maxLoanAmount",
          "type": "uint256"
        }
      ],
      "payable": false,
      "stateMutability": "nonpayable",
      "type": "function"
    }
  ],
  "bytecode": "0x60806040526000805461ff0019166101001781556100246001600160e01b0361007716565b600280546001600160a01b0319166001600160a01b038316908117909155604051919250906000907f8be0079c531659141344cd1fd0a4f28419497f9722a3daafe3b4186f6b6457e0908290a35061007b565b3390565b6123a48061008a6000396000f3fe608060405234801561001057600080fd5b50600436106101585760003560e01c80638f32d59b116100c3578063e06174e41161007c578063e06174e414610297578063e3f33d001461029f578063eb12d61e146102a7578063f2fde38b146102ba578063faa8aab1146102cd578063fb98d9e2146102d557610158565b80638f32d59b1461025157806399ffe06514610259578063c0c53b8b1461026c578063c41dd8ce1461027f578063cc44cadb14610287578063e00a46151461028f57610158565b80633ac2a032116101155780633ac2a032146101f15780633ff591d91461020657806368fcdeb81461020e578063715018a6146102215780637df73e27146102295780638da5cb5b1461023c57610158565b8063064e5d491461015d5780630e316ab7146101885780631139087a1461019d57806311880cc8146101b2578063158ef93e146101ba5780632aac635e146101cf575b600080fd5b61017061016b366004611983565b6102e8565b60405161017f93929190612274565b60405180910390f35b61019b61019636600461189b565b610658565b005b6101a5610688565b60405161017f91906120af565b6101a56106a0565b6101c26106b5565b60405161017f91906120a1565b6101e26101dd366004611949565b6106be565b60405161017f9392919061224a565b6101f9610764565b60405161017f91906120fb565b6101a5610773565b6101c261021c366004611949565b61078d565b61019b6107ad565b6101c261023736600461189b565b61081b565b610244610834565b60405161017f9190611f96565b6101c2610843565b6101c2610267366004611906565b610869565b61019b61027a3660046118b9565b61088f565b6101a561092e565b6101a5610945565b6101a561095f565b6101f9610975565b6101a561098a565b61019b6102b536600461189b565b6109a5565b61019b6102c836600461189b565b6109d2565b6102446109ff565b6101c26102e3366004611949565b610a0e565b600080548190819060ff166103185760405162461bcd60e51b815260040161030f9061222a565b60405180910390fd5b6006546001600160a01b031633146103425760405162461bcd60e51b815260040161030f9061221a565b600054604051630134809560e51b8152620100009091046001600160a01b03169063269012a09061038d907252657175697265645375626d697373696f6e7360681b906004016120af565b60206040518083038186803b1580156103a557600080fd5b505afa1580156103b9573d6000803e3d6000fd5b505050506040513d601f19601f820116820180604052506103dd9190810190611a17565b8410156103fc5760405162461bcd60e51b815260040161030f906121fa565b6007600061040d602089018961189b565b6001600160a01b031681526020808201929092526040908101600090812060608a0135825290925290205460ff16156104585760405162461bcd60e51b815260040161030f9061212a565b60016007600061046b60208a018a61189b565b6001600160a01b031681526020808201929092526040908101600090812060608b013582529092528120805460ff1916921515929092179091556104bc6104b7368990038901896119da565b610a2e565b905060005b8581101561050c576105046104db368a90038a018a6119da565b8888848181106104e757fe5b905061014002018036036104fe91908101906119f8565b84610aa1565b6001016104c1565b506105506008600061052160208b018b61189b565b6001600160a01b031681526020808201929092526040908101600090812060608c013582529092529020610bfc565b93506105a36008600061056660208b018b61189b565b6001600160a01b03166001600160a01b03168152602001908152602001600020600089606001358152602001908152602001600020600401610bfc565b92506105f6600860006105b960208b018b61189b565b6001600160a01b03166001600160a01b03168152602001908152602001600020600089606001358152602001908152602001600020600801610bfc565b9150606087013561060a602089018961189b565b6001600160a01b03167f658dfc9759b55173ea96c7bd8d4ad2c3e3804d28d83d2e1a25569a2fecb6720886868660405161064693929190612274565b60405180910390a35093509350939050565b610660610843565b61067c5760405162461bcd60e51b815260040161030f906121ca565b61068581610cca565b50565b704c6971756964617465457468507269636560781b81565b6d14d859995d1e525b9d195c9d985b60921b81565b60005460ff1690565b6008602081815260009384526040808520825292845292829020825160808082018552825482526001830154828701526002830154828601526003830154606080840191909152855180830187526004850154815260058501548189015260068501548188015260078501548183015286519283018752948401548252600984015496820196909652600a83015494810194909452600b90910154938301939093529083565b6001546001600160a01b031681565b7252657175697265645375626d697373696f6e7360681b81565b600560209081526000928352604080842090915290825290205460ff1681565b6107b5610843565b6107d15760405162461bcd60e51b815260040161030f906121ca565b6002546040516000916001600160a01b0316907f8be0079c531659141344cd1fd0a4f28419497f9722a3daafe3b4186f6b6457e0908390a3600280546001600160a01b0319169055565b600061082e60038363ffffffff610d1216565b92915050565b6002546001600160a01b031690565b6002546000906001600160a01b031661085a610d5a565b6001600160a01b031614905090565b600460209081526000938452604080852082529284528284209052825290205460ff1681565b60005460ff16156108b25760405162461bcd60e51b815260040161030f9061223a565b60408051808201909152601881527f4d5553545f50524f564944455f4c454e4445525f494e464f00000000000000006020820152610900906001600160a01b0385169063ffffffff610d5e16565b61090a8282610d8b565b5050600680546001600160a01b0319166001600160a01b0392909216919091179055565b6f4d6178696d756d546f6c6572616e636560801b81565b7226b0bc34b6bab6a637b0b7223ab930ba34b7b760691b81565b6e5465726d7345787069727954696d6560881b81565b6000546201000090046001600160a01b031681565b730a4cae6e0dedce6ca8af0e0d2e4f298cadccee8d60631b81565b6109ad610843565b6109c95760405162461bcd60e51b815260040161030f906121ca565b61068581610ee8565b6109da610843565b6109f65760405162461bcd60e51b815260040161030f906121ca565b61068581610f30565b6006546001600160a01b031681565b600760209081526000928352604080842090915290825290205460ff1681565b6006548151602083015160408401516060850151608086015160a087015160c08801516000976001600160a01b031696959493929190610a6c610fb2565b604051602001610a8499989796959493929190611fa4565b604051602081830303815290604052805190602001209050919050565b6000610aad8383610fb6565b835185516060870151604087015160c0880151949550610ace948690611018565b60608084015185516001600160a01b0316600090815260086020908152604080832094890151835293905291909120610b0c9163ffffffff6111c116565b608083015184516001600160a01b03166000908152600860209081526040808320606089015184529091529020610b4e9160049091019063ffffffff6111c116565b60a083015184516001600160a01b0316600090815260086020818152604080842060608a01518552909152909120610b8e9291019063ffffffff6111c116565b836060015184600001516001600160a01b031684600001516001600160a01b03167f75ec6e4b3d626c9ecaff859275e3ee99bd0d25d81a798938dcc15b49baffc24d866060015187608001518860a00151604051610bee93929190612274565b60405180910390a450505050565b60008054604051630134809560e51b8152610ca5916201000090046001600160a01b03169063269012a090610c48906f4d6178696d756d546f6c6572616e636560801b906004016120af565b60206040518083038186803b158015610c6057600080fd5b505afa158015610c74573d6000803e3d6000fd5b505050506040513d601f19601f82011682018060405250610c989190810190611a17565b839063ffffffff61122616565b610cc15760405162461bcd60e51b815260040161030f9061215a565b61082e826112d7565b610cdb60038263ffffffff61131016565b6040516001600160a01b038216907f3525e22824a8a7df2c9a6029941c824cf95b6447f1e13d5128fd3826d35afe8b90600090a250565b60006001600160a01b038216610d3a5760405162461bcd60e51b815260040161030f906121da565b506001600160a01b03166000908152602091909152604090205460ff1690565b3390565b610d6782611358565b8190610d865760405162461bcd60e51b815260040161030f9190612109565b505050565b60005460ff1615610dae5760405162461bcd60e51b815260040161030f9061223a565b60408051808201909152601981527f53455454494e47535f4d5553545f42455f50524f5649444544000000000000006020820152610dfc906001600160a01b0384169063ffffffff610d5e16565b610e0e826001600160a01b0316611366565b610e2a5760405162461bcd60e51b815260040161030f9061218a565b60408051808201909152601881527f4d41524b4554535f4d5553545f42455f50524f564944454400000000000000006020820152610e78906001600160a01b0383169063ffffffff610d5e16565b610e8a816001600160a01b0316611366565b610ea65760405162461bcd60e51b815260040161030f9061217a565b610eae6113a2565b6000805462010000600160b01b031916620100006001600160a01b0394851602179055600180546001600160a01b03191691909216179055565b610ef960038263ffffffff6113b116565b6040516001600160a01b038216907f47d1c22a25bb3a5d4e481b9b1e6944c2eade3181a0a20b495ed61d35b5323f2490600090a250565b6001600160a01b038116610f565760405162461bcd60e51b815260040161030f9061214a565b6002546040516001600160a01b038084169216907f8be0079c531659141344cd1fd0a4f28419497f9722a3daafe3b4186f6b6457e090600090a3600280546001600160a01b0319166001600160a01b0392909216919091179055565b4690565b600082602001518360400151846060015185608001518660a001518760c0015160000151610fe2610fb2565b88604051602001610ffa98979695949392919061202a565b60405160208183030381529060405280519060200120905092915050565b6001600160a01b03808716600090815260046020908152604080832093891683529281528282208783529052205460ff16156110665760405162461bcd60e51b815260040161030f9061213a565b6001600160a01b0380871660009081526004602081815260408084208a861685528252808420898552909152808320805460ff1916600117905591549151630134809560e51b815261114393620100009093049092169163269012a0916110e691730a4cae6e0dedce6ca8af0e0d2e4f298cadccee8d60631b91016120af565b60206040518083038186803b1580156110fe57600080fd5b505afa158015611112573d6000803e3d6000fd5b505050506040513d601f19601f820116820180604052506111369190810190611a17565b429063ffffffff6113fd16565b8310156111625760405162461bcd60e51b815260040161030f906121ea565b61116d818388611446565b6111895760405162461bcd60e51b815260040161030f9061220a565b6001600160a01b0390951660009081526005602090815260408083209751835296905294909420805460ff1916600117905550505050565b80826001015410156111d557600182018190555b80826002015411806111e657508154155b156111f357600282018190555b6003820154611208908263ffffffff61153e16565b6003830155815461122090600163ffffffff61153e16565b90915550565b600061123183611563565b1561123e5750600061082e565b6000611249846112d7565b9050600061126f612710611263848763ffffffff61157516565b9063ffffffff6115af16565b90506000611283838363ffffffff6113fd16565b9050808660020154101561129d576000935050505061082e565b60006112af848463ffffffff61153e16565b905080876001015411156112ca57600094505050505061082e565b5060019695505050505050565b60006112e282611563565b611308576113036112f2836115f1565b60038401549063ffffffff6115af16565b61082e565b506000919050565b61131a8282610d12565b6113365760405162461bcd60e51b815260040161030f906121aa565b6001600160a01b0316600090815260209190915260409020805460ff19169055565b6001600160a01b0316151590565b6000813f7fc5d2460186f7233c927e7db2dcc703c0e500b653ca82273b7bfad8045d85a47081811480159061139a57508115155b949350505050565b6000805460ff19166001179055565b6113bb8282610d12565b156113d85760405162461bcd60e51b815260040161030f9061211a565b6001600160a01b0316600090815260209190915260409020805460ff19166001179055565b600061143f83836040518060400160405280601e81526020017f536166654d6174683a207375627472616374696f6e206f766572666c6f7700008152506115f5565b9392505050565b60006114518261081b565b61145d5750600061143f565b6001600160a01b03821660009081526005602090815260408083208751845290915290205460ff16156114a25760405162461bcd60e51b815260040161030f9061219a565b60006001846040516020016114b79190611f76565b60405160208183030381529060405280519060200120866020015187604001518860600151604051600081526020016040526040516114f994939291906120bd565b6020604051602081039080840390855afa15801561151b573d6000803e3d6000fd5b5050604051601f1901516001600160a01b03858116911614925050509392505050565b60008282018381101561143f5760405162461bcd60e51b815260040161030f9061216a565b600061156e826115f1565b1592915050565b6000826115845750600061082e565b8282028284828161159157fe5b041461143f5760405162461bcd60e51b815260040161030f906121ba565b600061143f83836040518060400160405280601a81526020017f536166654d6174683a206469766973696f6e206279207a65726f000000000000815250611621565b5490565b600081848411156116195760405162461bcd60e51b815260040161030f9190612109565b505050900390565b600081836116425760405162461bcd60e51b815260040161030f9190612109565b50600083858161164e57fe5b0495945050505050565b803561082e8161233b565b60008083601f84011261167557600080fd5b50813567ffffffffffffffff81111561168d57600080fd5b602083019150836101408202830111156116a657600080fd5b9250929050565b803561082e8161234f565b600060e082840312156116ca57600080fd5b50919050565b600060e082840312156116e257600080fd5b6116ec60e061229c565b905060006116fa8484611658565b825250602061170b84848301611658565b602083015250604061171f84828501611658565b6040830152506060611733848285016116ad565b6060830152506080611747848285016116ad565b60808301525060a061175b848285016116ad565b60a08301525060c061176f848285016116ad565b60c08301525092915050565b6000610140828403121561178e57600080fd5b61179860e061229c565b905060006117a68484611658565b82525060206117b784848301611658565b60208301525060406117cb848285016116ad565b60408301525060606117df848285016116ad565b60608301525060806117f3848285016116ad565b60808301525060a0611807848285016116ad565b60a08301525060c061176f8482850160006080828403121561182857600080fd5b611832608061229c565b9050600061184084846116ad565b825250602061185184848301611890565b6020830152506040611865848285016116ad565b6040830152506060611879848285016116ad565b60608301525092915050565b805161082e8161234f565b803561082e81612358565b6000602082840312156118ad57600080fd5b600061139a8484611658565b6000806000606084860312156118ce57600080fd5b60006118da8686611658565b93505060206118eb86828701611658565b92505060406118fc86828701611658565b9150509250925092565b60008060006060848603121561191b57600080fd5b60006119278686611658565b935050602061193886828701611658565b92505060406118fc868287016116ad565b6000806040838503121561195c57600080fd5b60006119688585611658565b9250506020611979858286016116ad565b9150509250929050565b6000806000610100848603121561199957600080fd5b60006119a586866116b8565b93505060e084013567ffffffffffffffff8111156119c257600080fd5b6119ce86828701611663565b92509250509250925092565b600060e082840312156119ec57600080fd5b600061139a84846116d0565b60006101408284031215611a0b57600080fd5b600061139a848461177b565b600060208284031215611a2957600080fd5b600061139a8484611885565b611a3e816122d5565b82525050565b611a3e816122e0565b611a3e816122e5565b611a3e611a62826122e5565b6122e5565b611a3e816122fa565b6000611a7b826122c3565b611a8581856122c7565b9350611a95818560208601612305565b611a9e81612331565b9093019392505050565b6000611ab5601f836122c7565b7f526f6c65733a206163636f756e7420616c72656164792068617320726f6c6500815260200192915050565b6000611aee601c836122d0565b7f19457468657265756d205369676e6564204d6573736167653a0a3332000000008152601c0192915050565b6000611b27601e836122c7565b7f4c4f414e5f5445524d535f524551554553545f4e4f4e43455f54414b454e0000815260200192915050565b6000611b606018836122c7565b7f5349474e45525f414c52454144595f5355424d49545445440000000000000000815260200192915050565b6000611b996026836122c7565b7f4f776e61626c653a206e6577206f776e657220697320746865207a65726f206181526564647265737360d01b602082015260400192915050565b6000611be16014836122c7565b73149154d413d394d154d7d513d3d7d5905492515160621b815260200192915050565b6000611c11601b836122c7565b7f536166654d6174683a206164646974696f6e206f766572666c6f770000000000815260200192915050565b6000611c4a601a836122c7565b7f4d41524b4554535f4d5553545f42455f415f434f4e5452414354000000000000815260200192915050565b6000611c83601b836122c7565b7f53455454494e47535f4d5553545f42455f415f434f4e54524143540000000000815260200192915050565b6000611cbc6012836122c7565b7129a4a3a722a92fa727a721a2afaa20a5a2a760711b815260200192915050565b6000611cea6021836122c7565b7f526f6c65733a206163636f756e7420646f6573206e6f74206861766520726f6c8152606560f81b602082015260400192915050565b6000611d2d6021836122c7565b7f536166654d6174683a206d756c7469706c69636174696f6e206f766572666c6f8152607760f81b602082015260400192915050565b6000611d706020836122c7565b7f4f776e61626c653a2063616c6c6572206973206e6f7420746865206f776e6572815260200192915050565b6000611da96022836122c7565b7f526f6c65733a206163636f756e7420697320746865207a65726f206164647265815261737360f01b602082015260400192915050565b6000611ded6010836122c7565b6f149154d413d394d157d156141254915160821b815260200192915050565b6000611e19601f836122c7565b7f4c4f414e5445524d5f494e53554646494349454e545f524553504f4e53455300815260200192915050565b6000611e526011836122c7565b7014d251d3905515549157d2539590531251607a1b815260200192915050565b6000611e7f6018836122c7565b7f53454e4445525f4841534e545f5045524d495353494f4e530000000000000000815260200192915050565b6000611eb86018836122c7565b7f434f4e54524143545f4e4f545f494e495449414c495a45440000000000000000815260200192915050565b6000611ef1601c836122c7565b7f434f4e54524143545f414c52454144595f494e495449414c495a454400000000815260200192915050565b80516080830190611f2e8482611a4d565b506020820151611f416020850182611a4d565b506040820151611f546040850182611a4d565b506060820151611f676060850182611a4d565b50505050565b611a3e816122f4565b6000611f8182611ae1565b9150611f8d8284611a56565b50602001919050565b6020810161082e8284611a35565b6101208101611fb3828c611a35565b611fc0602083018b611a35565b611fcd604083018a611a35565b611fda6060830189611a35565b611fe76080830188611a4d565b611ff460a0830187611a4d565b61200160c0830186611a4d565b61200e60e0830185611a4d565b61201c610100830184611a4d565b9a9950505050505050505050565b6101008101612039828b611a35565b612046602083018a611a4d565b6120536040830189611a4d565b6120606060830188611a4d565b61206d6080830187611a4d565b61207a60a0830186611a4d565b61208760c0830185611a4d565b61209460e0830184611a4d565b9998505050505050505050565b6020810161082e8284611a44565b6020810161082e8284611a4d565b608081016120cb8287611a4d565b6120d86020830186611f6d565b6120e56040830185611a4d565b6120f26060830184611a4d565b95945050505050565b6020810161082e8284611a67565b6020808252810161143f8184611a70565b6020808252810161082e81611aa8565b6020808252810161082e81611b1a565b6020808252810161082e81611b53565b6020808252810161082e81611b8c565b6020808252810161082e81611bd4565b6020808252810161082e81611c04565b6020808252810161082e81611c3d565b6020808252810161082e81611c76565b6020808252810161082e81611caf565b6020808252810161082e81611cdd565b6020808252810161082e81611d20565b6020808252810161082e81611d63565b6020808252810161082e81611d9c565b6020808252810161082e81611de0565b6020808252810161082e81611e0c565b6020808252810161082e81611e45565b6020808252810161082e81611e72565b6020808252810161082e81611eab565b6020808252810161082e81611ee4565b61018081016122598286611f1d565b6122666080830185611f1d565b61139a610100830184611f1d565b606081016122828286611a4d565b61228f6020830185611a4d565b61139a6040830184611a4d565b60405181810167ffffffffffffffff811182821017156122bb57600080fd5b604052919050565b5190565b90815260200190565b919050565b600061082e826122e8565b151590565b90565b6001600160a01b031690565b60ff1690565b600061082e826122d5565b60005b83811015612320578181015183820152602001612308565b83811115611f675750506000910152565b601f01601f191690565b612344816122d5565b811461068557600080fd5b612344816122e5565b612344816122f456fea365627a7a72315820ed93aae3450f6f08ac077b8b3528fe42267bbacb8901d1cf2b20888c23f9b9ea6c6578706572696d656e74616cf564736f6c63430005110040",
  "source": "pragma solidity 0.5.17;\npragma experimental ABIEncoderV2;\n\n// Contracts\nimport \"./Consensus.sol\";\n\n// Interfaces\nimport \"../interfaces/LoanTermsConsensusInterface.sol\";\n\n\n/**\n    @notice This contract is used to process the loan requests through the Teller protocol\n\n    @author develop@teller.finance\n */\ncontract LoanTermsConsensus is Consensus, LoanTermsConsensusInterface {\n    /* Mappings */\n    mapping(address => mapping(uint256 => TellerCommon.AccruedLoanTerms)) public termSubmissions;\n\n    /**\n        @notice Processes the loan request\n        @param request Struct of the protocol loan request\n        @param responses List of structs of the protocol loan responses\n        @return uint256 Interest rate\n        @return uint256 Collateral ratio\n        @return uint256 Maximum loan amount\n     */\n    function processRequest(\n        TellerCommon.LoanRequest calldata request,\n        TellerCommon.LoanResponse[] calldata responses\n    )\n        external\n        isInitialized()\n        isCaller()\n        returns (uint256 interestRate, uint256 collateralRatio, uint256 maxLoanAmount)\n    {\n        require(\n            responses.length >=\n                settings.getPlatformSettingValue(REQUIRED_SUBMISSIONS_SETTING),\n            \"LOANTERM_INSUFFICIENT_RESPONSES\"\n        );\n        require(\n            !requestNonceTaken[request.borrower][request.requestNonce],\n            \"LOAN_TERMS_REQUEST_NONCE_TAKEN\"\n        );\n        requestNonceTaken[request.borrower][request.requestNonce] = true;\n\n        bytes32 requestHash = _hashRequest(request);\n\n        for (uint256 i = 0; i < responses.length; i++) {\n            _processResponse(request, responses[i], requestHash);\n        }\n\n        interestRate = _getConsensus(\n            termSubmissions[request.borrower][request.requestNonce].interestRate\n        );\n        collateralRatio = _getConsensus(\n            termSubmissions[request.borrower][request.requestNonce].collateralRatio\n        );\n        maxLoanAmount = _getConsensus(\n            termSubmissions[request.borrower][request.requestNonce].maxLoanAmount\n        );\n\n        emit TermsAccepted(\n            request.borrower,\n            request.requestNonce,\n            interestRate,\n            collateralRatio,\n            maxLoanAmount\n        );\n    }\n\n    /**\n        @notice Processes the loan response\n        @param request Struct of the protocol loan request\n        @param response List of structs of the protocol loan responses\n        @param requestHash bytes32 Hash of the loan request\n     */\n    function _processResponse(\n        TellerCommon.LoanRequest memory request,\n        TellerCommon.LoanResponse memory response,\n        bytes32 requestHash\n    ) internal {\n        bytes32 responseHash = _hashResponse(response, requestHash);\n\n        _validateResponse(\n            response.signer,\n            request.borrower,\n            request.requestNonce,\n            response.responseTime,\n            responseHash,\n            response.signature\n        );\n\n        termSubmissions[request.borrower][request.requestNonce].interestRate.addValue(\n            response.interestRate\n        );\n        termSubmissions[request.borrower][request.requestNonce].collateralRatio.addValue(\n            response.collateralRatio\n        );\n        termSubmissions[request.borrower][request.requestNonce].maxLoanAmount.addValue(\n            response.maxLoanAmount\n        );\n\n        emit TermsSubmitted(\n            response.signer,\n            request.borrower,\n            request.requestNonce,\n            response.interestRate,\n            response.collateralRatio,\n            response.maxLoanAmount\n        );\n    }\n\n    /**\n        @notice Generates a hash for the loan response\n        @param response Structs of the protocol loan responses\n        @param requestHash Hash of the loan request\n        @return bytes32 Hash of the loan response\n     */\n    function _hashResponse(\n        TellerCommon.LoanResponse memory response,\n        bytes32 requestHash\n    ) internal view returns (bytes32) {\n        return\n            keccak256(\n                abi.encode(\n                    response.consensusAddress,\n                    response.responseTime,\n                    response.interestRate,\n                    response.collateralRatio,\n                    response.maxLoanAmount,\n                    response.signature.signerNonce,\n                    _getChainId(),\n                    requestHash\n                )\n            );\n    }\n\n    /**\n        @notice Generates a hash for the loan request\n        @param request Struct of the protocol loan request\n        @return bytes32 Hash of the loan request\n     */\n    function _hashRequest(TellerCommon.LoanRequest memory request)\n        internal\n        view\n        returns (bytes32)\n    {\n        return\n            keccak256(\n                abi.encode(\n                    callerAddress,\n                    request.borrower,\n                    request.recipient,\n                    request.consensusAddress,\n                    request.requestNonce,\n                    request.amount,\n                    request.duration,\n                    request.requestTime,\n                    _getChainId()\n                )\n            );\n    }\n}\n",
  "sourcePath": "/Users/guillesalazar/Repos/ZeroCollateral/smart-contracts-v1/contracts/base/LoanTermsConsensus.sol",
  "compiler": {
    "name": "solc",
    "version": "0.5.17+commit.d19bba13.Emscripten.clang"
  },
  "schemaVersion": "3.0.23",
  "updatedAt": "2020-08-12T16:48:45.190Z",
  "devdoc": {
    "author": "develop@teller.finance",
    "methods": {
      "addSigner(address)": {
        "details": "The sender must be the owner.It throws a require error if the sender is not the owner.",
        "params": {
          "account": "address to add."
        }
      },
      "initialize(address,address,address)": {
        "params": {
          "aCallerAddress": "the contract that will call it.",
          "aMarketsAddress": "the markets state address.",
          "aSettingAddress": "the settings contract address."
        }
      },
      "initialized()": {
        "return": "true if contract is initialized. Otherwise it returns false."
      },
      "isOwner()": {
        "details": "Returns true if the caller is the current owner."
      },
      "isSigner(address)": {
        "params": {
          "account": "address to test."
        },
        "return": "true if account is a signer. Otherwise it returns false."
      },
      "owner()": {
        "details": "Returns the address of the current owner."
      },
      "processRequest((address,address,address,uint256,uint256,uint256,uint256),(address,address,uint256,uint256,uint256,uint256,(uint256,uint8,bytes32,bytes32))[])": {
        "params": {
          "request": "Struct of the protocol loan request",
          "responses": "List of structs of the protocol loan responses"
        },
        "return": "uint256 Interest rateuint256 Collateral ratiouint256 Maximum loan amount"
      },
      "removeSigner(address)": {
        "details": "The sender must be the owner.It throws a require error if the sender is not the owner.",
        "params": {
          "account": "address to remove."
        }
      },
      "renounceOwnership()": {
        "details": "Leaves the contract without owner. It will not be possible to call `onlyOwner` functions anymore. Can only be called by the current owner.     * NOTE: Renouncing ownership will leave the contract without an owner, thereby removing any functionality that is only available to the owner."
      },
      "transferOwnership(address)": {
        "details": "Transfers ownership of the contract to a new account (`newOwner`). Can only be called by the current owner."
      }
    }
  },
  "userdoc": {
    "methods": {
      "addSigner(address)": {
        "notice": "It adds a new account as a signer."
      },
      "initialize(address,address,address)": {
        "notice": "It initializes this contract setting the parameters."
      },
      "initialized()": {
        "notice": "Gets if the contract is initialized."
      },
      "isSigner(address)": {
        "notice": "Gets whether an account address is a signer or not."
      },
      "processRequest((address,address,address,uint256,uint256,uint256,uint256),(address,address,uint256,uint256,uint256,uint256,(uint256,uint8,bytes32,bytes32))[])": {
        "notice": "Processes the loan request"
      },
      "removeSigner(address)": {
        "notice": "It removes an account as signer."
      }
    },
    "notice": "This contract is used to process the loan requests through the Teller protocol"
  }
}