{
  "contractName": "LoanTermsConsensus",
  "abi": [
    {
      "anonymous": false,
      "inputs": [
        {
          "indexed": true,
          "internalType": "address",
          "name": "previousOwner",
          "type": "address"
        },
        {
          "indexed": true,
          "internalType": "address",
          "name": "newOwner",
          "type": "address"
        }
      ],
      "name": "OwnershipTransferred",
      "type": "event"
    },
    {
      "anonymous": false,
      "inputs": [
        {
          "indexed": true,
          "internalType": "address",
          "name": "account",
          "type": "address"
        }
      ],
      "name": "SignerAdded",
      "type": "event"
    },
    {
      "anonymous": false,
      "inputs": [
        {
          "indexed": true,
          "internalType": "address",
          "name": "account",
          "type": "address"
        }
      ],
      "name": "SignerRemoved",
      "type": "event"
    },
    {
      "anonymous": false,
      "inputs": [
        {
          "indexed": true,
          "internalType": "address",
          "name": "borrower",
          "type": "address"
        },
        {
          "indexed": true,
          "internalType": "uint256",
          "name": "requestNonce",
          "type": "uint256"
        },
        {
          "indexed": false,
          "internalType": "uint256",
          "name": "interestRate",
          "type": "uint256"
        },
        {
          "indexed": false,
          "internalType": "uint256",
          "name": "collateralRatio",
          "type": "uint256"
        },
        {
          "indexed": false,
          "internalType": "uint256",
          "name": "maxLoanAmount",
          "type": "uint256"
        }
      ],
      "name": "TermsAccepted",
      "type": "event"
    },
    {
      "anonymous": false,
      "inputs": [
        {
          "indexed": true,
          "internalType": "address",
          "name": "signer",
          "type": "address"
        },
        {
          "indexed": true,
          "internalType": "address",
          "name": "borrower",
          "type": "address"
        },
        {
          "indexed": true,
          "internalType": "uint256",
          "name": "requestNonce",
          "type": "uint256"
        },
        {
          "indexed": false,
          "internalType": "uint256",
          "name": "interestRate",
          "type": "uint256"
        },
        {
          "indexed": false,
          "internalType": "uint256",
          "name": "collateralRatio",
          "type": "uint256"
        },
        {
          "indexed": false,
          "internalType": "uint256",
          "name": "maxLoanAmount",
          "type": "uint256"
        }
      ],
      "name": "TermsSubmitted",
      "type": "event"
    },
    {
      "constant": false,
      "inputs": [
        {
          "internalType": "address",
          "name": "account",
          "type": "address"
        }
      ],
      "name": "addSigner",
      "outputs": [],
      "payable": false,
      "stateMutability": "nonpayable",
      "type": "function"
    },
    {
      "constant": true,
      "inputs": [],
      "name": "callerAddress",
      "outputs": [
        {
          "internalType": "address",
          "name": "",
          "type": "address"
        }
      ],
      "payable": false,
      "stateMutability": "view",
      "type": "function"
    },
    {
      "constant": true,
      "inputs": [
        {
          "internalType": "address",
          "name": "",
          "type": "address"
        },
        {
          "internalType": "address",
          "name": "",
          "type": "address"
        },
        {
          "internalType": "uint256",
          "name": "",
          "type": "uint256"
        }
      ],
      "name": "hasSubmitted",
      "outputs": [
        {
          "internalType": "bool",
          "name": "",
          "type": "bool"
        }
      ],
      "payable": false,
      "stateMutability": "view",
      "type": "function"
    },
    {
      "constant": false,
      "inputs": [
        {
          "internalType": "address",
          "name": "aCallerAddress",
          "type": "address"
        },
        {
          "internalType": "address",
          "name": "aSettingAddress",
          "type": "address"
        }
      ],
      "name": "initialize",
      "outputs": [],
      "payable": false,
      "stateMutability": "nonpayable",
      "type": "function"
    },
    {
      "constant": true,
      "inputs": [],
      "name": "initialized",
      "outputs": [
        {
          "internalType": "bool",
          "name": "",
          "type": "bool"
        }
      ],
      "payable": false,
      "stateMutability": "view",
      "type": "function"
    },
    {
      "constant": true,
      "inputs": [],
      "name": "isOwner",
      "outputs": [
        {
          "internalType": "bool",
          "name": "",
          "type": "bool"
        }
      ],
      "payable": false,
      "stateMutability": "view",
      "type": "function"
    },
    {
      "constant": true,
      "inputs": [
        {
          "internalType": "address",
          "name": "account",
          "type": "address"
        }
      ],
      "name": "isSigner",
      "outputs": [
        {
          "internalType": "bool",
          "name": "",
          "type": "bool"
        }
      ],
      "payable": false,
      "stateMutability": "view",
      "type": "function"
    },
    {
      "constant": true,
      "inputs": [],
      "name": "owner",
      "outputs": [
        {
          "internalType": "address",
          "name": "",
          "type": "address"
        }
      ],
      "payable": false,
      "stateMutability": "view",
      "type": "function"
    },
    {
      "constant": false,
      "inputs": [
        {
          "internalType": "address",
          "name": "account",
          "type": "address"
        }
      ],
      "name": "removeSigner",
      "outputs": [],
      "payable": false,
      "stateMutability": "nonpayable",
      "type": "function"
    },
    {
      "constant": false,
      "inputs": [],
      "name": "renounceOwnership",
      "outputs": [],
      "payable": false,
      "stateMutability": "nonpayable",
      "type": "function"
    },
    {
      "constant": true,
      "inputs": [
        {
          "internalType": "address",
          "name": "",
          "type": "address"
        },
        {
          "internalType": "uint256",
          "name": "",
          "type": "uint256"
        }
      ],
      "name": "requestNonceTaken",
      "outputs": [
        {
          "internalType": "bool",
          "name": "",
          "type": "bool"
        }
      ],
      "payable": false,
      "stateMutability": "view",
      "type": "function"
    },
    {
      "constant": true,
      "inputs": [],
      "name": "settings",
      "outputs": [
        {
          "internalType": "contract SettingsInterface",
          "name": "",
          "type": "address"
        }
      ],
      "payable": false,
      "stateMutability": "view",
      "type": "function"
    },
    {
      "constant": true,
      "inputs": [
        {
          "internalType": "address",
          "name": "",
          "type": "address"
        },
        {
          "internalType": "uint256",
          "name": "",
          "type": "uint256"
        }
      ],
      "name": "signerNonceTaken",
      "outputs": [
        {
          "internalType": "bool",
          "name": "",
          "type": "bool"
        }
      ],
      "payable": false,
      "stateMutability": "view",
      "type": "function"
    },
    {
      "constant": true,
      "inputs": [
        {
          "internalType": "address",
          "name": "",
          "type": "address"
        },
        {
          "internalType": "uint256",
          "name": "",
          "type": "uint256"
        }
      ],
      "name": "termSubmissions",
      "outputs": [
        {
          "components": [
            {
              "internalType": "uint256",
              "name": "count",
              "type": "uint256"
            },
            {
              "internalType": "uint256",
              "name": "max",
              "type": "uint256"
            },
            {
              "internalType": "uint256",
              "name": "min",
              "type": "uint256"
            },
            {
              "internalType": "uint256",
              "name": "sum",
              "type": "uint256"
            }
          ],
          "internalType": "struct NumbersList.Values",
          "name": "interestRate",
          "type": "tuple"
        },
        {
          "components": [
            {
              "internalType": "uint256",
              "name": "count",
              "type": "uint256"
            },
            {
              "internalType": "uint256",
              "name": "max",
              "type": "uint256"
            },
            {
              "internalType": "uint256",
              "name": "min",
              "type": "uint256"
            },
            {
              "internalType": "uint256",
              "name": "sum",
              "type": "uint256"
            }
          ],
          "internalType": "struct NumbersList.Values",
          "name": "collateralRatio",
          "type": "tuple"
        },
        {
          "components": [
            {
              "internalType": "uint256",
              "name": "count",
              "type": "uint256"
            },
            {
              "internalType": "uint256",
              "name": "max",
              "type": "uint256"
            },
            {
              "internalType": "uint256",
              "name": "min",
              "type": "uint256"
            },
            {
              "internalType": "uint256",
              "name": "sum",
              "type": "uint256"
            }
          ],
          "internalType": "struct NumbersList.Values",
          "name": "maxLoanAmount",
          "type": "tuple"
        }
      ],
      "payable": false,
      "stateMutability": "view",
      "type": "function"
    },
    {
      "constant": false,
      "inputs": [
        {
          "internalType": "address",
          "name": "newOwner",
          "type": "address"
        }
      ],
      "name": "transferOwnership",
      "outputs": [],
      "payable": false,
      "stateMutability": "nonpayable",
      "type": "function"
    },
    {
      "constant": false,
      "inputs": [
        {
          "components": [
            {
              "internalType": "address payable",
              "name": "borrower",
              "type": "address"
            },
            {
              "internalType": "address",
              "name": "recipient",
              "type": "address"
            },
            {
              "internalType": "address",
              "name": "consensusAddress",
              "type": "address"
            },
            {
              "internalType": "uint256",
              "name": "requestNonce",
              "type": "uint256"
            },
            {
              "internalType": "uint256",
              "name": "amount",
              "type": "uint256"
            },
            {
              "internalType": "uint256",
              "name": "duration",
              "type": "uint256"
            },
            {
              "internalType": "uint256",
              "name": "requestTime",
              "type": "uint256"
            }
          ],
          "internalType": "struct ZeroCollateralCommon.LoanRequest",
          "name": "request",
          "type": "tuple"
        },
        {
          "components": [
            {
              "internalType": "address",
              "name": "signer",
              "type": "address"
            },
            {
              "internalType": "address",
              "name": "consensusAddress",
              "type": "address"
            },
            {
              "internalType": "uint256",
              "name": "responseTime",
              "type": "uint256"
            },
            {
              "internalType": "uint256",
              "name": "interestRate",
              "type": "uint256"
            },
            {
              "internalType": "uint256",
              "name": "collateralRatio",
              "type": "uint256"
            },
            {
              "internalType": "uint256",
              "name": "maxLoanAmount",
              "type": "uint256"
            },
            {
              "components": [
                {
                  "internalType": "uint256",
                  "name": "signerNonce",
                  "type": "uint256"
                },
                {
                  "internalType": "uint8",
                  "name": "v",
                  "type": "uint8"
                },
                {
                  "internalType": "bytes32",
                  "name": "r",
                  "type": "bytes32"
                },
                {
                  "internalType": "bytes32",
                  "name": "s",
                  "type": "bytes32"
                }
              ],
              "internalType": "struct ZeroCollateralCommon.Signature",
              "name": "signature",
              "type": "tuple"
            }
          ],
          "internalType": "struct ZeroCollateralCommon.LoanResponse[]",
          "name": "responses",
          "type": "tuple[]"
        }
      ],
      "name": "processRequest",
      "outputs": [
        {
          "internalType": "uint256",
          "name": "interestRate",
          "type": "uint256"
        },
        {
          "internalType": "uint256",
          "name": "collateralRatio",
          "type": "uint256"
        },
        {
          "internalType": "uint256",
          "name": "maxLoanAmount",
          "type": "uint256"
        }
      ],
      "payable": false,
      "stateMutability": "nonpayable",
      "type": "function"
    }
  ],
  "bytecode": "0x60806040526000805461ff0019166101001781556100246001600160e01b0361007716565b600180546001600160a01b0319166001600160a01b038316908117909155604051919250906000907f8be0079c531659141344cd1fd0a4f28419497f9722a3daafe3b4186f6b6457e0908290a35061007b565b3390565b61210d8061008a6000396000f3fe608060405234801561001057600080fd5b50600436106101005760003560e01c80638da5cb5b11610097578063eb12d61e11610066578063eb12d61e14610202578063f2fde38b14610215578063faa8aab114610228578063fb98d9e21461023057610100565b80638da5cb5b146101bd5780638f32d59b146101d257806399ffe065146101da578063e06174e4146101ed57610100565b8063485cc955116100d3578063485cc9551461017c57806368fcdeb81461018f578063715018a6146101a25780637df73e27146101aa57610100565b8063064e5d49146101055780630e316ab714610130578063158ef93e146101455780632aac635e1461015a575b600080fd5b610118610113366004611743565b610243565b60405161012793929190611fdd565b60405180910390f35b61014361013e36600461166e565b61059e565b005b61014d6105ce565b6040516101279190611e28565b61016d610168366004611713565b6105d7565b60405161012793929190611fb3565b61014361018a36600461168c565b61067d565b61014d61019d366004611713565b61071a565b61014361073a565b61014d6101b836600461166e565b6107a8565b6101c56107c1565b6040516101279190611d1d565b61014d6107d0565b61014d6101e83660046116c6565b6107f6565b6101f561081c565b6040516101279190611e74565b61014361021036600461166e565b610831565b61014361022336600461166e565b61085e565b6101c561088b565b61014d61023e366004611713565b61089a565b600080548190819060ff166102735760405162461bcd60e51b815260040161026a90611f93565b60405180910390fd5b6005546001600160a01b0316331461029d5760405162461bcd60e51b815260040161026a90611f83565b600060029054906101000a90046001600160a01b03166001600160a01b031663b9f9e3046040518163ffffffff1660e01b815260040160206040518083038186803b1580156102eb57600080fd5b505afa1580156102ff573d6000803e3d6000fd5b505050506040513d601f19601f8201168201806040525061032391908101906117d7565b8410156103425760405162461bcd60e51b815260040161026a90611f63565b60066000610353602089018961166e565b6001600160a01b031681526020808201929092526040908101600090812060608a0135825290925290205460ff161561039e5760405162461bcd60e51b815260040161026a90611ea3565b6001600660006103b160208a018a61166e565b6001600160a01b031681526020808201929092526040908101600090812060608b013582529092528120805460ff1916921515929092179091556104026103fd3689900389018961179a565b6108ba565b905060005b858110156104525761044a610421368a90038a018a61179a565b88888481811061042d57fe5b9050610140020180360361044491908101906117b8565b8461092d565b600101610407565b506104966007600061046760208b018b61166e565b6001600160a01b031681526020808201929092526040908101600090812060608c013582529092529020610a8a565b93506104e9600760006104ac60208b018b61166e565b6001600160a01b03166001600160a01b03168152602001908152602001600020600089606001358152602001908152602001600020600401610a8a565b925061053c600760006104ff60208b018b61166e565b6001600160a01b03166001600160a01b03168152602001908152602001600020600089606001358152602001908152602001600020600801610a8a565b91506060870135610550602089018961166e565b6001600160a01b03167f658dfc9759b55173ea96c7bd8d4ad2c3e3804d28d83d2e1a25569a2fecb6720886868660405161058c93929190611fdd565b60405180910390a35093509350939050565b6105a66107d0565b6105c25760405162461bcd60e51b815260040161026a90611f33565b6105cb81610b47565b50565b60005460ff1690565b6007602081815260009384526040808520825292845292829020825160808082018552825482526001830154828701526002830154828601526003830154606080840191909152855180830187526004850154815260058501548189015260068501548188015294840154858201528551918201865260088401548252600984015496820196909652600a83015494810194909452600b90910154938301939093529083565b60005460ff16156106a05760405162461bcd60e51b815260040161026a90611fa3565b60408051808201909152601881527f4d5553545f50524f564944455f4c454e4445525f494e464f000000000000000060208201526106ee906001600160a01b0384169063ffffffff610b8f16565b6106f781610bbc565b50600580546001600160a01b0319166001600160a01b0392909216919091179055565b600460209081526000928352604080842090915290825290205460ff1681565b6107426107d0565b61075e5760405162461bcd60e51b815260040161026a90611f33565b6001546040516000916001600160a01b0316907f8be0079c531659141344cd1fd0a4f28419497f9722a3daafe3b4186f6b6457e0908390a3600180546001600160a01b0319169055565b60006107bb60028363ffffffff610c8d16565b92915050565b6001546001600160a01b031690565b6001546000906001600160a01b03166107e7610cd5565b6001600160a01b031614905090565b600360209081526000938452604080852082529284528284209052825290205460ff1681565b6000546201000090046001600160a01b031681565b6108396107d0565b6108555760405162461bcd60e51b815260040161026a90611f33565b6105cb81610cd9565b6108666107d0565b6108825760405162461bcd60e51b815260040161026a90611f33565b6105cb81610d21565b6005546001600160a01b031681565b600660209081526000928352604080842090915290825290205460ff1681565b6005548151602083015160408401516060850151608086015160a087015160c08801516000976001600160a01b0316969594939291906108f8610da3565b60405160200161091099989796959493929190611d2b565b604051602081830303815290604052805190602001209050919050565b60006109398383610da7565b835185516060870151604087015160c088015194955061095a948690610e09565b60608084015185516001600160a01b03166000908152600760209081526040808320948901518352939052919091206109989163ffffffff610f9416565b608083015184516001600160a01b031660009081526007602090815260408083206060890151845290915290206109da9160049091019063ffffffff610f9416565b60a083015184516001600160a01b03166000908152600760209081526040808320606089015184529091529020610a1c9160089091019063ffffffff610f9416565b836060015184600001516001600160a01b031684600001516001600160a01b03167f75ec6e4b3d626c9ecaff859275e3ee99bd0d25d81a798938dcc15b49baffc24d866060015187608001518860a00151604051610a7c93929190611fdd565b60405180910390a450505050565b6000610b22600060029054906101000a90046001600160a01b03166001600160a01b0316637f4339436040518163ffffffff1660e01b815260040160206040518083038186803b158015610add57600080fd5b505afa158015610af1573d6000803e3d6000fd5b505050506040513d601f19601f82011682018060405250610b1591908101906117d7565b839063ffffffff610ff916565b610b3e5760405162461bcd60e51b815260040161026a90611ed3565b6107bb826110aa565b610b5860028263ffffffff6110e316565b6040516001600160a01b038216907f3525e22824a8a7df2c9a6029941c824cf95b6447f1e13d5128fd3826d35afe8b90600090a250565b610b988261112b565b8190610bb75760405162461bcd60e51b815260040161026a9190611e82565b505050565b60005460ff1615610bdf5760405162461bcd60e51b815260040161026a90611fa3565b60408051808201909152601981527f53455454494e47535f4d5553545f42455f50524f5649444544000000000000006020820152610c2d906001600160a01b0383169063ffffffff610b8f16565b610c3f816001600160a01b0316611139565b610c5b5760405162461bcd60e51b815260040161026a90611ef3565b610c63611175565b600080546001600160a01b03909216620100000262010000600160b01b0319909216919091179055565b60006001600160a01b038216610cb55760405162461bcd60e51b815260040161026a90611f43565b506001600160a01b03166000908152602091909152604090205460ff1690565b3390565b610cea60028263ffffffff61118416565b6040516001600160a01b038216907f47d1c22a25bb3a5d4e481b9b1e6944c2eade3181a0a20b495ed61d35b5323f2490600090a250565b6001600160a01b038116610d475760405162461bcd60e51b815260040161026a90611ec3565b6001546040516001600160a01b038084169216907f8be0079c531659141344cd1fd0a4f28419497f9722a3daafe3b4186f6b6457e090600090a3600180546001600160a01b0319166001600160a01b0392909216919091179055565b4690565b600082602001518360400151846060015185608001518660a001518760c0015160000151610dd3610da3565b88604051602001610deb989796959493929190611db1565b60405160208183030381529060405280519060200120905092915050565b6001600160a01b03808716600090815260036020908152604080832093891683529281528282208783529052205460ff1615610e575760405162461bcd60e51b815260040161026a90611eb3565b6001600160a01b038087166000908152600360209081526040808320898516845282528083208884528252808320805460ff19166001179055915482516314ff9dad60e31b81529251610f1694620100009092049091169263a7fced68926004808301939192829003018186803b158015610ed157600080fd5b505afa158015610ee5573d6000803e3d6000fd5b505050506040513d601f19601f82011682018060405250610f0991908101906117d7565b429063ffffffff6111d016565b831015610f355760405162461bcd60e51b815260040161026a90611f53565b610f40818388611219565b610f5c5760405162461bcd60e51b815260040161026a90611f73565b6001600160a01b0390951660009081526004602090815260408083209751835296905294909420805460ff1916600117905550505050565b8082600101541015610fa857600182018190555b8082600201541180610fb957508154155b15610fc657600282018190555b6003820154610fdb908263ffffffff61131116565b60038301558154610ff390600163ffffffff61131116565b90915550565b600061100483611336565b15611011575060006107bb565b600061101c846110aa565b90506000611042612710611036848763ffffffff61134816565b9063ffffffff61138216565b90506000611056838363ffffffff6111d016565b9050808660020154101561107057600093505050506107bb565b6000611082848463ffffffff61131116565b9050808760010154111561109d5760009450505050506107bb565b5060019695505050505050565b60006110b582611336565b6110db576110d66110c5836113c4565b60038401549063ffffffff61138216565b6107bb565b506000919050565b6110ed8282610c8d565b6111095760405162461bcd60e51b815260040161026a90611f13565b6001600160a01b0316600090815260209190915260409020805460ff19169055565b6001600160a01b0316151590565b6000813f7fc5d2460186f7233c927e7db2dcc703c0e500b653ca82273b7bfad8045d85a47081811480159061116d57508115155b949350505050565b6000805460ff19166001179055565b61118e8282610c8d565b156111ab5760405162461bcd60e51b815260040161026a90611e93565b6001600160a01b0316600090815260209190915260409020805460ff19166001179055565b600061121283836040518060400160405280601e81526020017f536166654d6174683a207375627472616374696f6e206f766572666c6f7700008152506113c8565b9392505050565b6000611224826107a8565b61123057506000611212565b6001600160a01b03821660009081526004602090815260408083208751845290915290205460ff16156112755760405162461bcd60e51b815260040161026a90611f03565b600060018460405160200161128a9190611cfd565b60405160208183030381529060405280519060200120866020015187604001518860600151604051600081526020016040526040516112cc9493929190611e36565b6020604051602081039080840390855afa1580156112ee573d6000803e3d6000fd5b5050604051601f1901516001600160a01b03858116911614925050509392505050565b6000828201838110156112125760405162461bcd60e51b815260040161026a90611ee3565b6000611341826113c4565b1592915050565b600082611357575060006107bb565b8282028284828161136457fe5b04146112125760405162461bcd60e51b815260040161026a90611f23565b600061121283836040518060400160405280601a81526020017f536166654d6174683a206469766973696f6e206279207a65726f0000000000008152506113f4565b5490565b600081848411156113ec5760405162461bcd60e51b815260040161026a9190611e82565b505050900390565b600081836114155760405162461bcd60e51b815260040161026a9190611e82565b50600083858161142157fe5b0495945050505050565b80356107bb816120a4565b60008083601f84011261144857600080fd5b50813567ffffffffffffffff81111561146057600080fd5b6020830191508361014082028301111561147957600080fd5b9250929050565b80356107bb816120b8565b600060e0828403121561149d57600080fd5b50919050565b600060e082840312156114b557600080fd5b6114bf60e0612005565b905060006114cd848461142b565b82525060206114de8484830161142b565b60208301525060406114f28482850161142b565b604083015250606061150684828501611480565b606083015250608061151a84828501611480565b60808301525060a061152e84828501611480565b60a08301525060c061154284828501611480565b60c08301525092915050565b6000610140828403121561156157600080fd5b61156b60e0612005565b90506000611579848461142b565b825250602061158a8484830161142b565b602083015250604061159e84828501611480565b60408301525060606115b284828501611480565b60608301525060806115c684828501611480565b60808301525060a06115da84828501611480565b60a08301525060c0611542848285016000608082840312156115fb57600080fd5b6116056080612005565b905060006116138484611480565b825250602061162484848301611663565b602083015250604061163884828501611480565b604083015250606061164c84828501611480565b60608301525092915050565b80516107bb816120b8565b80356107bb816120c1565b60006020828403121561168057600080fd5b600061116d848461142b565b6000806040838503121561169f57600080fd5b60006116ab858561142b565b92505060206116bc8582860161142b565b9150509250929050565b6000806000606084860312156116db57600080fd5b60006116e7868661142b565b93505060206116f88682870161142b565b925050604061170986828701611480565b9150509250925092565b6000806040838503121561172657600080fd5b6000611732858561142b565b92505060206116bc85828601611480565b6000806000610100848603121561175957600080fd5b6000611765868661148b565b93505060e084013567ffffffffffffffff81111561178257600080fd5b61178e86828701611436565b92509250509250925092565b600060e082840312156117ac57600080fd5b600061116d84846114a3565b600061014082840312156117cb57600080fd5b600061116d848461154e565b6000602082840312156117e957600080fd5b600061116d8484611658565b6117fe8161203e565b82525050565b6117fe81612049565b6117fe8161204e565b6117fe6118228261204e565b61204e565b6117fe81612063565b600061183b8261202c565b6118458185612030565b935061185581856020860161206e565b61185e8161209a565b9093019392505050565b6000611875601f83612030565b7f526f6c65733a206163636f756e7420616c72656164792068617320726f6c6500815260200192915050565b60006118ae601c83612039565b7f19457468657265756d205369676e6564204d6573736167653a0a3332000000008152601c0192915050565b60006118e7601e83612030565b7f4c4f414e5f5445524d535f524551554553545f4e4f4e43455f54414b454e0000815260200192915050565b6000611920601883612030565b7f5349474e45525f414c52454144595f5355424d49545445440000000000000000815260200192915050565b6000611959602683612030565b7f4f776e61626c653a206e6577206f776e657220697320746865207a65726f206181526564647265737360d01b602082015260400192915050565b60006119a1601483612030565b73149154d413d394d154d7d513d3d7d5905492515160621b815260200192915050565b60006119d1601b83612030565b7f536166654d6174683a206164646974696f6e206f766572666c6f770000000000815260200192915050565b6000611a0a601b83612030565b7f53455454494e47535f4d5553545f42455f415f434f4e54524143540000000000815260200192915050565b6000611a43601283612030565b7129a4a3a722a92fa727a721a2afaa20a5a2a760711b815260200192915050565b6000611a71602183612030565b7f526f6c65733a206163636f756e7420646f6573206e6f74206861766520726f6c8152606560f81b602082015260400192915050565b6000611ab4602183612030565b7f536166654d6174683a206d756c7469706c69636174696f6e206f766572666c6f8152607760f81b602082015260400192915050565b6000611af7602083612030565b7f4f776e61626c653a2063616c6c6572206973206e6f7420746865206f776e6572815260200192915050565b6000611b30602283612030565b7f526f6c65733a206163636f756e7420697320746865207a65726f206164647265815261737360f01b602082015260400192915050565b6000611b74601083612030565b6f149154d413d394d157d156141254915160821b815260200192915050565b6000611ba0601f83612030565b7f4c4f414e5445524d5f494e53554646494349454e545f524553504f4e53455300815260200192915050565b6000611bd9601183612030565b7014d251d3905515549157d2539590531251607a1b815260200192915050565b6000611c06601883612030565b7f53454e4445525f4841534e545f5045524d495353494f4e530000000000000000815260200192915050565b6000611c3f601883612030565b7f434f4e54524143545f4e4f545f494e495449414c495a45440000000000000000815260200192915050565b6000611c78601c83612030565b7f434f4e54524143545f414c52454144595f494e495449414c495a454400000000815260200192915050565b80516080830190611cb5848261180d565b506020820151611cc8602085018261180d565b506040820151611cdb604085018261180d565b506060820151611cee606085018261180d565b50505050565b6117fe8161205d565b6000611d08826118a1565b9150611d148284611816565b50602001919050565b602081016107bb82846117f5565b6101208101611d3a828c6117f5565b611d47602083018b6117f5565b611d54604083018a6117f5565b611d6160608301896117f5565b611d6e608083018861180d565b611d7b60a083018761180d565b611d8860c083018661180d565b611d9560e083018561180d565b611da361010083018461180d565b9a9950505050505050505050565b6101008101611dc0828b6117f5565b611dcd602083018a61180d565b611dda604083018961180d565b611de7606083018861180d565b611df4608083018761180d565b611e0160a083018661180d565b611e0e60c083018561180d565b611e1b60e083018461180d565b9998505050505050505050565b602081016107bb8284611804565b60808101611e44828761180d565b611e516020830186611cf4565b611e5e604083018561180d565b611e6b606083018461180d565b95945050505050565b602081016107bb8284611827565b602080825281016112128184611830565b602080825281016107bb81611868565b602080825281016107bb816118da565b602080825281016107bb81611913565b602080825281016107bb8161194c565b602080825281016107bb81611994565b602080825281016107bb816119c4565b602080825281016107bb816119fd565b602080825281016107bb81611a36565b602080825281016107bb81611a64565b602080825281016107bb81611aa7565b602080825281016107bb81611aea565b602080825281016107bb81611b23565b602080825281016107bb81611b67565b602080825281016107bb81611b93565b602080825281016107bb81611bcc565b602080825281016107bb81611bf9565b602080825281016107bb81611c32565b602080825281016107bb81611c6b565b6101808101611fc28286611ca4565b611fcf6080830185611ca4565b61116d610100830184611ca4565b60608101611feb828661180d565b611ff8602083018561180d565b61116d604083018461180d565b60405181810167ffffffffffffffff8111828210171561202457600080fd5b604052919050565b5190565b90815260200190565b919050565b60006107bb82612051565b151590565b90565b6001600160a01b031690565b60ff1690565b60006107bb8261203e565b60005b83811015612089578181015183820152602001612071565b83811115611cee5750506000910152565b601f01601f191690565b6120ad8161203e565b81146105cb57600080fd5b6120ad8161204e565b6120ad8161205d56fea365627a7a723158208f51c3cec41bb27a716edf2fc197890ff395c8d26fe6fbcdddcee825927eeec36c6578706572696d656e74616cf564736f6c63430005110040",
  "source": "pragma solidity 0.5.17;\npragma experimental ABIEncoderV2;\n\n// Contracts\nimport \"./Consensus.sol\";\n\n// Interfaces\nimport \"../interfaces/LoanTermsConsensusInterface.sol\";\n\n\n/**\n    @notice This contract is used to process the loan requests through the Teller protocol\n\n    @author develop@teller.finance\n */\ncontract LoanTermsConsensus is Consensus, LoanTermsConsensusInterface {\n    /* Mappings */\n    mapping(address => mapping(uint256 => ZeroCollateralCommon.AccruedLoanTerms)) public termSubmissions;\n\n    /**\n        @notice Processes the loan request\n        @param request Struct of the protocol loan request\n        @param responses List of structs of the protocol loan responses\n        @return uint256 Interest rate\n        @return uint256 Collateral ratio\n        @return uint256 Maximum loan amount\n     */\n    function processRequest(\n        ZeroCollateralCommon.LoanRequest calldata request,\n        ZeroCollateralCommon.LoanResponse[] calldata responses\n    )\n        external\n        isInitialized()\n        isCaller()\n        returns (uint256 interestRate, uint256 collateralRatio, uint256 maxLoanAmount)\n    {\n        require(\n            responses.length >= settings.requiredSubmissions(),\n            \"LOANTERM_INSUFFICIENT_RESPONSES\"\n        );\n        require(\n            !requestNonceTaken[request.borrower][request.requestNonce],\n            \"LOAN_TERMS_REQUEST_NONCE_TAKEN\"\n        );\n        requestNonceTaken[request.borrower][request.requestNonce] = true;\n\n        bytes32 requestHash = _hashRequest(request);\n\n        for (uint256 i = 0; i < responses.length; i++) {\n            _processResponse(request, responses[i], requestHash);\n        }\n\n        interestRate = _getConsensus(\n            termSubmissions[request.borrower][request.requestNonce].interestRate\n        );\n        collateralRatio = _getConsensus(\n            termSubmissions[request.borrower][request.requestNonce].collateralRatio\n        );\n        maxLoanAmount = _getConsensus(\n            termSubmissions[request.borrower][request.requestNonce].maxLoanAmount\n        );\n\n        emit TermsAccepted(\n            request.borrower,\n            request.requestNonce,\n            interestRate,\n            collateralRatio,\n            maxLoanAmount\n        );\n    }\n\n    /**\n        @notice Processes the loan response\n        @param request Struct of the protocol loan request\n        @param response List of structs of the protocol loan responses\n        @param requestHash bytes32 Hash of the loan request\n     */\n    function _processResponse(\n        ZeroCollateralCommon.LoanRequest memory request,\n        ZeroCollateralCommon.LoanResponse memory response,\n        bytes32 requestHash\n    ) internal {\n        bytes32 responseHash = _hashResponse(response, requestHash);\n\n        _validateResponse(\n            response.signer,\n            request.borrower,\n            request.requestNonce,\n            response.responseTime,\n            responseHash,\n            response.signature\n        );\n\n        termSubmissions[request.borrower][request.requestNonce].interestRate.addValue(\n            response.interestRate\n        );\n        termSubmissions[request.borrower][request.requestNonce].collateralRatio.addValue(\n            response.collateralRatio\n        );\n        termSubmissions[request.borrower][request.requestNonce].maxLoanAmount.addValue(\n            response.maxLoanAmount\n        );\n\n        emit TermsSubmitted(\n            response.signer,\n            request.borrower,\n            request.requestNonce,\n            response.interestRate,\n            response.collateralRatio,\n            response.maxLoanAmount\n        );\n    }\n\n    /**\n        @notice Generates a hash for the loan response\n        @param response Structs of the protocol loan responses\n        @param requestHash Hash of the loan request\n        @return bytes32 Hash of the loan response\n     */\n    function _hashResponse(\n        ZeroCollateralCommon.LoanResponse memory response,\n        bytes32 requestHash\n    ) internal view returns (bytes32) {\n        return\n            keccak256(\n                abi.encode(\n                    response.consensusAddress,\n                    response.responseTime,\n                    response.interestRate,\n                    response.collateralRatio,\n                    response.maxLoanAmount,\n                    response.signature.signerNonce,\n                    _getChainId(),\n                    requestHash\n                )\n            );\n    }\n\n    /**\n        @notice Generates a hash for the loan request\n        @param request Struct of the protocol loan request\n        @return bytes32 Hash of the loan request\n     */\n    function _hashRequest(ZeroCollateralCommon.LoanRequest memory request)\n        internal\n        view\n        returns (bytes32)\n    {\n        return\n            keccak256(\n                abi.encode(\n                    callerAddress,\n                    request.borrower,\n                    request.recipient,\n                    request.consensusAddress,\n                    request.requestNonce,\n                    request.amount,\n                    request.duration,\n                    request.requestTime,\n                    _getChainId()\n                )\n            );\n    }\n}\n",
  "sourcePath": "/Users/guillesalazar/Repos/ZeroCollateral/smart-contracts-v1/contracts/base/LoanTermsConsensus.sol",
  "compiler": {
    "name": "solc",
    "version": "0.5.17+commit.d19bba13.Emscripten.clang"
  },
  "schemaVersion": "3.0.23",
  "updatedAt": "2020-08-05T11:54:12.569Z",
  "devdoc": {
    "author": "develop@teller.finance",
    "methods": {
      "addSigner(address)": {
        "details": "The sender must be the owner.It throws a require error if the sender is not the owner.",
        "params": {
          "account": "address to add."
        }
      },
      "initialize(address,address)": {
        "params": {
          "aCallerAddress": "the contract that will call it.",
          "aSettingAddress": "the settings contract address."
        }
      },
      "initialized()": {
        "return": "true if contract is initialized. Otherwise it returns false."
      },
      "isOwner()": {
        "details": "Returns true if the caller is the current owner."
      },
      "isSigner(address)": {
        "params": {
          "account": "address to test."
        },
        "return": "true if account is a signer. Otherwise it returns false."
      },
      "owner()": {
        "details": "Returns the address of the current owner."
      },
      "processRequest((address,address,address,uint256,uint256,uint256,uint256),(address,address,uint256,uint256,uint256,uint256,(uint256,uint8,bytes32,bytes32))[])": {
        "params": {
          "request": "Struct of the protocol loan request",
          "responses": "List of structs of the protocol loan responses"
        },
        "return": "uint256 Interest rateuint256 Collateral ratiouint256 Maximum loan amount"
      },
      "removeSigner(address)": {
        "details": "The sender must be the owner.It throws a require error if the sender is not the owner.",
        "params": {
          "account": "address to remove."
        }
      },
      "renounceOwnership()": {
        "details": "Leaves the contract without owner. It will not be possible to call `onlyOwner` functions anymore. Can only be called by the current owner.     * NOTE: Renouncing ownership will leave the contract without an owner, thereby removing any functionality that is only available to the owner."
      },
      "transferOwnership(address)": {
        "details": "Transfers ownership of the contract to a new account (`newOwner`). Can only be called by the current owner."
      }
    }
  },
  "userdoc": {
    "methods": {
      "addSigner(address)": {
        "notice": "It adds a new account as a signer."
      },
      "initialize(address,address)": {
        "notice": "It initializes this contract setting the parameters."
      },
      "initialized()": {
        "notice": "Gets if the contract is initialized."
      },
      "isSigner(address)": {
        "notice": "Gets whether an account address is a signer or not."
      },
      "processRequest((address,address,address,uint256,uint256,uint256,uint256),(address,address,uint256,uint256,uint256,uint256,(uint256,uint8,bytes32,bytes32))[])": {
        "notice": "Processes the loan request"
      },
      "removeSigner(address)": {
        "notice": "It removes an account as signer."
      }
    },
    "notice": "This contract is used to process the loan requests through the Teller protocol"
  }
}