{
  "contractName": "Loans",
  "abi": [
    {
      "inputs": [
        {
          "internalType": "address",
          "name": "priceOracleAddress",
          "type": "address"
        },
        {
          "internalType": "address",
          "name": "daiPoolAddress",
          "type": "address"
        }
      ],
      "payable": false,
      "stateMutability": "nonpayable",
      "type": "constructor"
    },
    {
      "anonymous": false,
      "inputs": [
        {
          "indexed": true,
          "internalType": "uint256",
          "name": "loanID",
          "type": "uint256"
        },
        {
          "indexed": true,
          "internalType": "address",
          "name": "borrower",
          "type": "address"
        },
        {
          "indexed": false,
          "internalType": "uint256",
          "name": "depositAmount",
          "type": "uint256"
        }
      ],
      "name": "CollateralDeposited",
      "type": "event"
    },
    {
      "anonymous": false,
      "inputs": [
        {
          "indexed": true,
          "internalType": "uint256",
          "name": "loanID",
          "type": "uint256"
        },
        {
          "indexed": true,
          "internalType": "address",
          "name": "borrower",
          "type": "address"
        },
        {
          "indexed": false,
          "internalType": "uint256",
          "name": "depositAmount",
          "type": "uint256"
        }
      ],
      "name": "CollateralWithdrawn",
      "type": "event"
    },
    {
      "anonymous": false,
      "inputs": [
        {
          "indexed": true,
          "internalType": "uint256",
          "name": "loanID",
          "type": "uint256"
        },
        {
          "indexed": true,
          "internalType": "address",
          "name": "borrower",
          "type": "address"
        },
        {
          "indexed": false,
          "internalType": "uint256",
          "name": "interestRate",
          "type": "uint256"
        },
        {
          "indexed": false,
          "internalType": "uint256",
          "name": "collateralRatio",
          "type": "uint256"
        },
        {
          "indexed": false,
          "internalType": "uint256",
          "name": "maxLoanAmount",
          "type": "uint256"
        },
        {
          "indexed": false,
          "internalType": "uint256",
          "name": "numberDays",
          "type": "uint256"
        }
      ],
      "name": "LoanCreated",
      "type": "event"
    },
    {
      "anonymous": false,
      "inputs": [
        {
          "indexed": true,
          "internalType": "address",
          "name": "account",
          "type": "address"
        }
      ],
      "name": "SignerAdded",
      "type": "event"
    },
    {
      "anonymous": false,
      "inputs": [
        {
          "indexed": true,
          "internalType": "address",
          "name": "account",
          "type": "address"
        }
      ],
      "name": "SignerRemoved",
      "type": "event"
    },
    {
      "constant": false,
      "inputs": [
        {
          "internalType": "address",
          "name": "account",
          "type": "address"
        }
      ],
      "name": "addSigner",
      "outputs": [],
      "payable": false,
      "stateMutability": "nonpayable",
      "type": "function"
    },
    {
      "constant": true,
      "inputs": [],
      "name": "daiPool",
      "outputs": [
        {
          "internalType": "contract DAIPoolInterface",
          "name": "",
          "type": "address"
        }
      ],
      "payable": false,
      "stateMutability": "view",
      "type": "function"
    },
    {
      "constant": true,
      "inputs": [
        {
          "internalType": "address",
          "name": "account",
          "type": "address"
        }
      ],
      "name": "isSigner",
      "outputs": [
        {
          "internalType": "bool",
          "name": "",
          "type": "bool"
        }
      ],
      "payable": false,
      "stateMutability": "view",
      "type": "function"
    },
    {
      "constant": true,
      "inputs": [],
      "name": "loanIDCounter",
      "outputs": [
        {
          "internalType": "uint256",
          "name": "",
          "type": "uint256"
        }
      ],
      "payable": false,
      "stateMutability": "view",
      "type": "function"
    },
    {
      "constant": true,
      "inputs": [
        {
          "internalType": "uint256",
          "name": "",
          "type": "uint256"
        }
      ],
      "name": "loans",
      "outputs": [
        {
          "internalType": "uint256",
          "name": "id",
          "type": "uint256"
        },
        {
          "internalType": "uint256",
          "name": "collateral",
          "type": "uint256"
        },
        {
          "internalType": "uint256",
          "name": "maxLoanAmount",
          "type": "uint256"
        },
        {
          "internalType": "uint256",
          "name": "totalOwed",
          "type": "uint256"
        },
        {
          "internalType": "uint256",
          "name": "timeStart",
          "type": "uint256"
        },
        {
          "internalType": "uint256",
          "name": "timeEnd",
          "type": "uint256"
        },
        {
          "internalType": "uint256",
          "name": "interestRate",
          "type": "uint256"
        },
        {
          "internalType": "uint256",
          "name": "collateralRatio",
          "type": "uint256"
        },
        {
          "internalType": "address payable",
          "name": "borrower",
          "type": "address"
        },
        {
          "internalType": "bool",
          "name": "active",
          "type": "bool"
        },
        {
          "internalType": "bool",
          "name": "liquidated",
          "type": "bool"
        }
      ],
      "payable": false,
      "stateMutability": "view",
      "type": "function"
    },
    {
      "constant": true,
      "inputs": [],
      "name": "priceOracle",
      "outputs": [
        {
          "internalType": "contract PairAggregatorInterface",
          "name": "",
          "type": "address"
        }
      ],
      "payable": false,
      "stateMutability": "view",
      "type": "function"
    },
    {
      "constant": false,
      "inputs": [],
      "name": "renounceSigner",
      "outputs": [],
      "payable": false,
      "stateMutability": "nonpayable",
      "type": "function"
    },
    {
      "constant": true,
      "inputs": [
        {
          "internalType": "address",
          "name": "",
          "type": "address"
        },
        {
          "internalType": "uint256",
          "name": "",
          "type": "uint256"
        }
      ],
      "name": "signerNonceTaken",
      "outputs": [
        {
          "internalType": "bool",
          "name": "",
          "type": "bool"
        }
      ],
      "payable": false,
      "stateMutability": "view",
      "type": "function"
    },
    {
      "constant": true,
      "inputs": [],
      "name": "totalCollateral",
      "outputs": [
        {
          "internalType": "uint256",
          "name": "",
          "type": "uint256"
        }
      ],
      "payable": false,
      "stateMutability": "view",
      "type": "function"
    },
    {
      "constant": false,
      "inputs": [
        {
          "internalType": "address",
          "name": "borrower",
          "type": "address"
        },
        {
          "internalType": "uint256",
          "name": "loanID",
          "type": "uint256"
        }
      ],
      "name": "depositCollateral",
      "outputs": [],
      "payable": true,
      "stateMutability": "payable",
      "type": "function"
    },
    {
      "constant": false,
      "inputs": [
        {
          "internalType": "uint256",
          "name": "amount",
          "type": "uint256"
        },
        {
          "internalType": "uint256",
          "name": "loanID",
          "type": "uint256"
        }
      ],
      "name": "withdrawCollateral",
      "outputs": [],
      "payable": false,
      "stateMutability": "nonpayable",
      "type": "function"
    },
    {
      "constant": false,
      "inputs": [
        {
          "internalType": "uint256",
          "name": "interestRate",
          "type": "uint256"
        },
        {
          "internalType": "uint256",
          "name": "collateralRatio",
          "type": "uint256"
        },
        {
          "internalType": "uint256",
          "name": "maxLoanAmount",
          "type": "uint256"
        },
        {
          "internalType": "uint256",
          "name": "numberDays",
          "type": "uint256"
        },
        {
          "internalType": "uint256",
          "name": "amountBorrow",
          "type": "uint256"
        },
        {
          "components": [
            {
              "internalType": "uint256",
              "name": "signerNonce",
              "type": "uint256"
            },
            {
              "internalType": "uint8",
              "name": "v",
              "type": "uint8"
            },
            {
              "internalType": "bytes32",
              "name": "r",
              "type": "bytes32"
            },
            {
              "internalType": "bytes32",
              "name": "s",
              "type": "bytes32"
            }
          ],
          "internalType": "struct ZeroCollateralCommon.Signature",
          "name": "signature",
          "type": "tuple"
        }
      ],
      "name": "takeOutLoan",
      "outputs": [
        {
          "internalType": "uint256",
          "name": "loanID",
          "type": "uint256"
        }
      ],
      "payable": true,
      "stateMutability": "payable",
      "type": "function"
    },
    {
      "constant": false,
      "inputs": [
        {
          "internalType": "uint256",
          "name": "amount",
          "type": "uint256"
        },
        {
          "internalType": "uint256",
          "name": "loanID",
          "type": "uint256"
        }
      ],
      "name": "repayDai",
      "outputs": [],
      "payable": false,
      "stateMutability": "nonpayable",
      "type": "function"
    },
    {
      "constant": false,
      "inputs": [
        {
          "internalType": "uint256",
          "name": "loanID",
          "type": "uint256"
        }
      ],
      "name": "liquidateLoan",
      "outputs": [],
      "payable": false,
      "stateMutability": "nonpayable",
      "type": "function"
    },
    {
      "constant": true,
      "inputs": [
        {
          "internalType": "address",
          "name": "borrower",
          "type": "address"
        }
      ],
      "name": "getBorrowerLoans",
      "outputs": [
        {
          "internalType": "uint256[]",
          "name": "",
          "type": "uint256[]"
        }
      ],
      "payable": false,
      "stateMutability": "view",
      "type": "function"
    }
  ],
  "bytecode": "0x60806040523480156200001157600080fd5b506040516200352e3803806200352e8339818101604052620000379190810190620003c5565b620000576200004b620001c760201b60201c565b620001cf60201b60201c565b600073ffffffffffffffffffffffffffffffffffffffff168273ffffffffffffffffffffffffffffffffffffffff161415620000ca576040517f08c379a0000000000000000000000000000000000000000000000000000000008152600401620000c19062000578565b60405180910390fd5b600073ffffffffffffffffffffffffffffffffffffffff168173ffffffffffffffffffffffffffffffffffffffff1614156200013d576040517f08c379a0000000000000000000000000000000000000000000000000000000008152600401620001349062000556565b60405180910390fd5b81600360006101000a81548173ffffffffffffffffffffffffffffffffffffffff021916908373ffffffffffffffffffffffffffffffffffffffff16021790555080600460006101000a81548173ffffffffffffffffffffffffffffffffffffffff021916908373ffffffffffffffffffffffffffffffffffffffff16021790555050506200061b565b600033905090565b620001ea8160006200023060201b62001ef91790919060201c565b8073ffffffffffffffffffffffffffffffffffffffff167f47d1c22a25bb3a5d4e481b9b1e6944c2eade3181a0a20b495ed61d35b5323f2460405160405180910390a250565b620002428282620002e360201b60201c565b1562000285576040517f08c379a00000000000000000000000000000000000000000000000000000000081526004016200027c9062000534565b60405180910390fd5b60018260000160008373ffffffffffffffffffffffffffffffffffffffff1673ffffffffffffffffffffffffffffffffffffffff16815260200190815260200160002060006101000a81548160ff0219169083151502179055505050565b60008073ffffffffffffffffffffffffffffffffffffffff168273ffffffffffffffffffffffffffffffffffffffff16141562000357576040517f08c379a00000000000000000000000000000000000000000000000000000000081526004016200034e906200059a565b60405180910390fd5b8260000160008373ffffffffffffffffffffffffffffffffffffffff1673ffffffffffffffffffffffffffffffffffffffff16815260200190815260200160002060009054906101000a900460ff16905092915050565b600081519050620003bf8162000601565b92915050565b60008060408385031215620003d957600080fd5b6000620003e985828601620003ae565b9250506020620003fc85828601620003ae565b9150509250929050565b600062000415601f83620005bc565b91507f526f6c65733a206163636f756e7420616c72656164792068617320726f6c65006000830152602082019050919050565b600062000457601783620005bc565b91507f50524f564944455f444149504f4f4c5f414444524553530000000000000000006000830152602082019050919050565b600062000499601683620005bc565b91507f50524f564944455f4f5241434c455f41444452455353000000000000000000006000830152602082019050919050565b6000620004db602283620005bc565b91507f526f6c65733a206163636f756e7420697320746865207a65726f20616464726560008301527f73730000000000000000000000000000000000000000000000000000000000006020830152604082019050919050565b600060208201905081810360008301526200054f8162000406565b9050919050565b60006020820190508181036000830152620005718162000448565b9050919050565b6000602082019050818103600083015262000593816200048a565b9050919050565b60006020820190508181036000830152620005b581620004cc565b9050919050565b600082825260208201905092915050565b6000620005da82620005e1565b9050919050565b600073ffffffffffffffffffffffffffffffffffffffff82169050919050565b6200060c81620005cd565b81146200061857600080fd5b50565b612f03806200062b6000396000f3fe6080604052600436106100e85760003560e01c80637e5258ad1161008a578063e1ec3c6811610059578063e1ec3c68146102da578063e5c8b03d14610321578063eb12d61e14610338578063eee8b7ff14610361576100e8565b80637e5258ad14610241578063a5d5db0c1461026c578063be08f66414610288578063ccdd9f5d146102b1576100e8565b806351348454116100c6578063513484541461017357806368fcdeb81461019e578063767a7b05146101db5780637df73e2714610204576100e8565b806309b6a009146100ed5780632630c12f1461011d5780634ac8eb5f14610148575b600080fd5b61010760048036036101029190810190612141565b61039e565b6040516101149190612b28565b60405180910390f35b34801561012957600080fd5b5061013261098f565b60405161013f91906128eb565b60405180910390f35b34801561015457600080fd5b5061015d6109b5565b60405161016a9190612b28565b60405180910390f35b34801561017f57600080fd5b506101886109bb565b6040516101959190612b28565b60405180910390f35b3480156101aa57600080fd5b506101c560048036036101c0919081019061204e565b6109c1565b6040516101d29190612870565b60405180910390f35b3480156101e757600080fd5b5061020260048036036101fd9190810190612105565b6109f0565b005b34801561021057600080fd5b5061022b60048036036102269190810190612025565b610d3d565b6040516102389190612870565b60405180910390f35b34801561024d57600080fd5b50610256610d5a565b60405161026391906128d0565b60405180910390f35b6102866004803603610281919081019061204e565b610d80565b005b34801561029457600080fd5b506102af60048036036102aa9190810190612105565b610f30565b005b3480156102bd57600080fd5b506102d860048036036102d391908101906120b3565b61119d565b005b3480156102e657600080fd5b5061030160048036036102fc91908101906120b3565b611587565b6040516103189b9a99989796959493929190612c12565b60405180910390f35b34801561032d57600080fd5b5061033661161b565b005b34801561034457600080fd5b5061035f600480360361035a9190810190612025565b61162d565b005b34801561036d57600080fd5b5061038860048036036103839190810190612025565b611688565b604051610395919061284e565b60405180910390f35b6000848311156103e3576040517f08c379a00000000000000000000000000000000000000000000000000000000081526004016103da90612a08565b60405180910390fd5b600060016103f98989338a8a896000013561171f565b6040516020016104099190612828565b6040516020818303038152906040528051906020012084602001602061043291908101906121cb565b8560400135866060013560405160008152602001604052604051610459949392919061288b565b6020604051602081039080840390855afa15801561047b573d6000803e3d6000fd5b50505060206040510351905061049081610d3d565b6104cf576040517f08c379a00000000000000000000000000000000000000000000000000000000081526004016104c690612948565b60405180910390fd5b600760008273ffffffffffffffffffffffffffffffffffffffff1673ffffffffffffffffffffffffffffffffffffffff16815260200190815260200160002060008460000135815260200190815260200160002060009054906101000a900460ff1615610571576040517f08c379a000000000000000000000000000000000000000000000000000000000815260040161056890612a28565b60405180910390fd5b6001600760008373ffffffffffffffffffffffffffffffffffffffff1673ffffffffffffffffffffffffffffffffffffffff16815260200190815260200160002060008560000135815260200190815260200160002060006101000a81548160ff0219169083151502179055506105f3610e104261175e90919063ffffffff16565b600360009054906101000a900473ffffffffffffffffffffffffffffffffffffffff1673ffffffffffffffffffffffffffffffffffffffff1663f43b52cb6040518163ffffffff1660e01b815260040160206040518083038186803b15801561065b57600080fd5b505afa15801561066f573d6000803e3d6000fd5b505050506040513d601f19601f8201168201806040525061069391908101906120dc565b10156106d4576040517f08c379a00000000000000000000000000000000000000000000000000000000081526004016106cb906129e8565b60405180910390fd5b6000600360009054906101000a900473ffffffffffffffffffffffffffffffffffffffff1673ffffffffffffffffffffffffffffffffffffffff166396237c026040518163ffffffff1660e01b815260040160206040518083038186803b15801561073e57600080fd5b505afa158015610752573d6000803e3d6000fd5b505050506040513d601f19601f82011682018060405250610776919081019061208a565b905061079f6127106107918a886117a890919063ffffffff16565b61181890919063ffffffff16565b6107b282346117a890919063ffffffff16565b10156107f3576040517f08c379a00000000000000000000000000000000000000000000000000000000081526004016107ea90612a88565b60405180910390fd5b6108008989898989611862565b600560003373ffffffffffffffffffffffffffffffffffffffff1673ffffffffffffffffffffffffffffffffffffffff16815260200190815260200160002060025490806001815401808255809150509060018203906000526020600020016000909192909190915055506001600260008282540192505081905550600460009054906101000a900473ffffffffffffffffffffffffffffffffffffffff1673ffffffffffffffffffffffffffffffffffffffff1663272e848e86336040518363ffffffff1660e01b81526004016108d9929190612b43565b600060405180830381600087803b1580156108f357600080fd5b505af1158015610907573d6000803e3d6000fd5b5050505061092034600154611a4a90919063ffffffff16565b6001819055503373ffffffffffffffffffffffffffffffffffffffff16837f2b6e7be0390a80ec9c24c00d1dbf95d0cc27e42970c49fdd9d2d9f8b7a8764668b8b8b8b6040516109739493929190612bcd565b60405180910390a3600160025403925050509695505050505050565b600360009054906101000a900473ffffffffffffffffffffffffffffffffffffffff1681565b60015481565b60025481565b60076020528160005260406000206020528060005260406000206000915091509054906101000a900460ff1681565b806002548110610a35576040517f08c379a0000000000000000000000000000000000000000000000000000000008152600401610a2c90612a48565b60405180910390fd5b6006600083815260200190815260200160002060080160009054906101000a900473ffffffffffffffffffffffffffffffffffffffff1673ffffffffffffffffffffffffffffffffffffffff163373ffffffffffffffffffffffffffffffffffffffff1614610ad9576040517f08c379a0000000000000000000000000000000000000000000000000000000008152600401610ad090612b08565b60405180910390fd5b6000610ae483611a9f565b9050610afb610e104261175e90919063ffffffff16565b600360009054906101000a900473ffffffffffffffffffffffffffffffffffffffff1673ffffffffffffffffffffffffffffffffffffffff1663f43b52cb6040518163ffffffff1660e01b815260040160206040518083038186803b158015610b6357600080fd5b505afa158015610b77573d6000803e3d6000fd5b505050506040513d601f19601f82011682018060405250610b9b91908101906120dc565b1015610bdc576040517f08c379a0000000000000000000000000000000000000000000000000000000008152600401610bd3906129e8565b60405180910390fd5b6000600360009054906101000a900473ffffffffffffffffffffffffffffffffffffffff1673ffffffffffffffffffffffffffffffffffffffff166396237c026040518163ffffffff1660e01b815260040160206040518083038186803b158015610c4657600080fd5b505afa158015610c5a573d6000803e3d6000fd5b505050506040513d601f19601f82011682018060405250610c7e919081019061208a565b90506000610c95828461181890919063ffffffff16565b90506000610cc282600660008981526020019081526020016000206001015461175e90919063ffffffff16565b905086811115610cd0578690505b6000811115610ce557610ce4868233611b06565b5b3373ffffffffffffffffffffffffffffffffffffffff16867f7c5e5cb62e5ed3caf3764e4b0afedfedef533e27809d43367799787ad2abcd4183604051610d2c9190612b28565b60405180910390a350505050505050565b6000610d53826000611bb090919063ffffffff16565b9050919050565b600460009054906101000a900473ffffffffffffffffffffffffffffffffffffffff1681565b806002548110610dc5576040517f08c379a0000000000000000000000000000000000000000000000000000000008152600401610dbc90612a48565b60405180910390fd5b8273ffffffffffffffffffffffffffffffffffffffff166006600084815260200190815260200160002060080160009054906101000a900473ffffffffffffffffffffffffffffffffffffffff1673ffffffffffffffffffffffffffffffffffffffff1614610e69576040517f08c379a0000000000000000000000000000000000000000000000000000000008152600401610e6090612988565b60405180910390fd5b6006600083815260200190815260200160002060080160149054906101000a900460ff16610ecc576040517f08c379a0000000000000000000000000000000000000000000000000000000008152600401610ec3906129c8565b60405180910390fd5b6000349050610edb8382611c78565b8373ffffffffffffffffffffffffffffffffffffffff16837feec2f3feb835e2f2fd44281034b04700a1ddda63dd402949d470a25a7c40b36c83604051610f229190612b28565b60405180910390a350505050565b806002548110610f75576040517f08c379a0000000000000000000000000000000000000000000000000000000008152600401610f6c90612a48565b60405180910390fd5b6006600083815260200190815260200160002060080160149054906101000a900460ff16610fd8576040517f08c379a0000000000000000000000000000000000000000000000000000000008152600401610fcf906129c8565b60405180910390fd5b6000839050806006600085815260200190815260200160002060030154101561101557600660008481526020019081526020016000206003015490505b60008111156111975761104781600660008681526020019081526020016000206003015461175e90919063ffffffff16565b60066000858152602001908152602001600020600301819055506000600660008581526020019081526020016000206003015414156111075760006006600085815260200190815260200160002060080160146101000a81548160ff0219169083151502179055506111068360066000868152602001908152602001600020600101546006600087815260200190815260200160002060080160009054906101000a900473ffffffffffffffffffffffffffffffffffffffff16611b06565b5b600460009054906101000a900473ffffffffffffffffffffffffffffffffffffffff1673ffffffffffffffffffffffffffffffffffffffff16638b82b03b82336040518363ffffffff1660e01b8152600401611164929190612b43565b600060405180830381600087803b15801561117e57600080fd5b505af1158015611192573d6000803e3d6000fd5b505050505b50505050565b8060025481106111e2576040517f08c379a00000000000000000000000000000000000000000000000000000000081526004016111d990612a48565b60405180910390fd5b6006600083815260200190815260200160002060080160149054906101000a900460ff16611245576040517f08c379a000000000000000000000000000000000000000000000000000000000815260040161123c906129c8565b60405180910390fd5b61125a610e104261175e90919063ffffffff16565b600360009054906101000a900473ffffffffffffffffffffffffffffffffffffffff1673ffffffffffffffffffffffffffffffffffffffff1663f43b52cb6040518163ffffffff1660e01b815260040160206040518083038186803b1580156112c257600080fd5b505afa1580156112d6573d6000803e3d6000fd5b505050506040513d601f19601f820116820180604052506112fa91908101906120dc565b101561133b576040517f08c379a0000000000000000000000000000000000000000000000000000000008152600401611332906129e8565b60405180910390fd5b6000600360009054906101000a900473ffffffffffffffffffffffffffffffffffffffff1673ffffffffffffffffffffffffffffffffffffffff166396237c026040518163ffffffff1660e01b815260040160206040518083038186803b1580156113a557600080fd5b505afa1580156113b9573d6000803e3d6000fd5b505050506040513d601f19601f820116820180604052506113dd919081019061208a565b9050600061140a8260066000878152602001908152602001600020600101546117a890919063ffffffff16565b9050600061141785611a9f565b90508181118061143c5750426006600087815260200190815260200160002060050154105b61147b576040517f08c379a0000000000000000000000000000000000000000000000000000000008152600401611472906129a8565b60405180910390fd5b60006006600087815260200190815260200160002060080160146101000a81548160ff021916908315150217905550600460009054906101000a900473ffffffffffffffffffffffffffffffffffffffff1673ffffffffffffffffffffffffffffffffffffffff166382f7b02761150f6064611501605f876117a890919063ffffffff16565b61181890919063ffffffff16565b336040518363ffffffff1660e01b815260040161152d929190612b43565b600060405180830381600087803b15801561154757600080fd5b505af115801561155b573d6000803e3d6000fd5b5050505061158085600660008881526020019081526020016000206001015433611b06565b5050505050565b60066020528060005260406000206000915090508060000154908060010154908060020154908060030154908060040154908060050154908060060154908060070154908060080160009054906101000a900473ffffffffffffffffffffffffffffffffffffffff16908060080160149054906101000a900460ff16908060080160159054906101000a900460ff1690508b565b61162b611626611cda565b611ce2565b565b61163d611638611cda565b610d3d565b61167c576040517f08c379a000000000000000000000000000000000000000000000000000000000815260040161167390612ae8565b60405180910390fd5b61168581611d3c565b50565b6060600560008373ffffffffffffffffffffffffffffffffffffffff1673ffffffffffffffffffffffffffffffffffffffff16815260200190815260200160002080548060200260200160405190810160405280929190818152602001828054801561171357602002820191906000526020600020905b8154815260200190600101908083116116ff575b50505050509050919050565b600086868686868660405160200161173c96959493929190612b6c565b6040516020818303038152906040528051906020012090509695505050505050565b60006117a083836040518060400160405280601e81526020017f536166654d6174683a207375627472616374696f6e206f766572666c6f770000815250611d96565b905092915050565b6000808314156117bb5760009050611812565b60008284029050828482816117cc57fe5b041461180d576040517f08c379a000000000000000000000000000000000000000000000000000000000815260040161180490612aa8565b60405180910390fd5b809150505b92915050565b600061185a83836040518060400160405280601a81526020017f536166654d6174683a206469766973696f6e206279207a65726f000000000000815250611df1565b905092915050565b60405180610160016040528060025481526020013481526020018481526020016118e16118d261016d6118c46127106118b6896118a88e8b6117a890919063ffffffff16565b6117a890919063ffffffff16565b61181890919063ffffffff16565b61181890919063ffffffff16565b84611a4a90919063ffffffff16565b815260200142815260200161191461190562015180866117a890919063ffffffff16565b42611a4a90919063ffffffff16565b81526020018681526020018581526020013373ffffffffffffffffffffffffffffffffffffffff16815260200160011515815260200160001515815250600660006002548152602001908152602001600020600082015181600001556020820151816001015560408201518160020155606082015181600301556080820151816004015560a0820151816005015560c0820151816006015560e082015181600701556101008201518160080160006101000a81548173ffffffffffffffffffffffffffffffffffffffff021916908373ffffffffffffffffffffffffffffffffffffffff1602179055506101208201518160080160146101000a81548160ff0219169083151502179055506101408201518160080160156101000a81548160ff0219169083151502179055509050505050505050565b600080828401905083811015611a95576040517f08c379a0000000000000000000000000000000000000000000000000000000008152600401611a8c90612968565b60405180910390fd5b8091505092915050565b60008060066000848152602001908152602001600020600301549050600060066000858152602001908152602001600020600701549050611afd612710611aef83856117a890919063ffffffff16565b61181890919063ffffffff16565b92505050919050565b611b1b8260015461175e90919063ffffffff16565b600181905550611b4a82600660008681526020019081526020016000206001015461175e90919063ffffffff16565b60066000858152602001908152602001600020600101819055508073ffffffffffffffffffffffffffffffffffffffff166108fc839081150290604051600060405180830381858888f19350505050158015611baa573d6000803e3d6000fd5b50505050565b60008073ffffffffffffffffffffffffffffffffffffffff168273ffffffffffffffffffffffffffffffffffffffff161415611c21576040517f08c379a0000000000000000000000000000000000000000000000000000000008152600401611c1890612ac8565b60405180910390fd5b8260000160008373ffffffffffffffffffffffffffffffffffffffff1673ffffffffffffffffffffffffffffffffffffffff16815260200190815260200160002060009054906101000a900460ff16905092915050565b611c8d81600154611a4a90919063ffffffff16565b600181905550611cbc816006600085815260200190815260200160002060010154611a4a90919063ffffffff16565b60066000848152602001908152602001600020600101819055505050565b600033905090565b611cf6816000611e5290919063ffffffff16565b8073ffffffffffffffffffffffffffffffffffffffff167f3525e22824a8a7df2c9a6029941c824cf95b6447f1e13d5128fd3826d35afe8b60405160405180910390a250565b611d50816000611ef990919063ffffffff16565b8073ffffffffffffffffffffffffffffffffffffffff167f47d1c22a25bb3a5d4e481b9b1e6944c2eade3181a0a20b495ed61d35b5323f2460405160405180910390a250565b6000838311158290611dde576040517f08c379a0000000000000000000000000000000000000000000000000000000008152600401611dd59190612906565b60405180910390fd5b5060008385039050809150509392505050565b60008083118290611e38576040517f08c379a0000000000000000000000000000000000000000000000000000000008152600401611e2f9190612906565b60405180910390fd5b506000838581611e4457fe5b049050809150509392505050565b611e5c8282611bb0565b611e9b576040517f08c379a0000000000000000000000000000000000000000000000000000000008152600401611e9290612a68565b60405180910390fd5b60008260000160008373ffffffffffffffffffffffffffffffffffffffff1673ffffffffffffffffffffffffffffffffffffffff16815260200190815260200160002060006101000a81548160ff0219169083151502179055505050565b611f038282611bb0565b15611f43576040517f08c379a0000000000000000000000000000000000000000000000000000000008152600401611f3a90612928565b60405180910390fd5b60018260000160008373ffffffffffffffffffffffffffffffffffffffff1673ffffffffffffffffffffffffffffffffffffffff16815260200190815260200160002060006101000a81548160ff0219169083151502179055505050565b600081359050611fb081612e64565b92915050565b600081519050611fc581612e7b565b92915050565b600060808284031215611fdd57600080fd5b81905092915050565b600081359050611ff581612e92565b92915050565b60008151905061200a81612e92565b92915050565b60008135905061201f81612ea9565b92915050565b60006020828403121561203757600080fd5b600061204584828501611fa1565b91505092915050565b6000806040838503121561206157600080fd5b600061206f85828601611fa1565b925050602061208085828601611fe6565b9150509250929050565b60006020828403121561209c57600080fd5b60006120aa84828501611fb6565b91505092915050565b6000602082840312156120c557600080fd5b60006120d384828501611fe6565b91505092915050565b6000602082840312156120ee57600080fd5b60006120fc84828501611ffb565b91505092915050565b6000806040838503121561211857600080fd5b600061212685828601611fe6565b925050602061213785828601611fe6565b9150509250929050565b600080600080600080610120878903121561215b57600080fd5b600061216989828a01611fe6565b965050602061217a89828a01611fe6565b955050604061218b89828a01611fe6565b945050606061219c89828a01611fe6565b93505060806121ad89828a01611fe6565b92505060a06121be89828a01611fcb565b9150509295509295509295565b6000602082840312156121dd57600080fd5b60006121eb84828501612010565b91505092915050565b600061220083836127fb565b60208301905092915050565b61221581612d98565b82525050565b61222481612d2f565b82525050565b61223381612d1d565b82525050565b600061224482612ccd565b61224e8185612cf0565b935061225983612cbd565b8060005b8381101561228a57815161227188826121f4565b975061227c83612ce3565b92505060018101905061225d565b5085935050505092915050565b6122a081612d41565b82525050565b6122af81612d4d565b82525050565b6122c66122c182612d4d565b612e49565b82525050565b6122d581612daa565b82525050565b6122e481612dce565b82525050565b60006122f582612cd8565b6122ff8185612d01565b935061230f818560208601612e16565b61231881612e53565b840191505092915050565b6000612330601f83612d01565b91507f526f6c65733a206163636f756e7420616c72656164792068617320726f6c65006000830152602082019050919050565b6000612370601c83612d12565b91507f19457468657265756d205369676e6564204d6573736167653a0a3332000000006000830152601c82019050919050565b60006123b0601583612d01565b91507f5349474e45525f4e4f545f415554484f52495a454400000000000000000000006000830152602082019050919050565b60006123f0601b83612d01565b91507f536166654d6174683a206164646974696f6e206f766572666c6f7700000000006000830152602082019050919050565b6000612430601983612d01565b91507f424f52524f5745525f4c4f414e5f49445f4d49534d41544348000000000000006000830152602082019050919050565b6000612470601783612d01565b91507f444f45534e545f4e4545445f4c49515549444154494f4e0000000000000000006000830152602082019050919050565b60006124b0600f83612d01565b91507f4c4f414e5f4e4f545f41435449564500000000000000000000000000000000006000830152602082019050919050565b60006124f0601083612d01565b91507f4f5241434c455f50524943455f4f4c44000000000000000000000000000000006000830152602082019050919050565b6000612530601c83612d01565b91507f424f52524f575f414d4f554e545f4e4f545f415554484f52495a4544000000006000830152602082019050919050565b6000612570601283612d01565b91507f5349474e45525f4e4f4e43455f54414b454e00000000000000000000000000006000830152602082019050919050565b60006125b0600f83612d01565b91507f4c4f414e5f49445f494e56414c494400000000000000000000000000000000006000830152602082019050919050565b60006125f0602183612d01565b91507f526f6c65733a206163636f756e7420646f6573206e6f74206861766520726f6c60008301527f65000000000000000000000000000000000000000000000000000000000000006020830152604082019050919050565b6000612656601883612d01565b91507f4d4f52455f434f4c4c41544552414c5f524551554952454400000000000000006000830152602082019050919050565b6000612696602183612d01565b91507f536166654d6174683a206d756c7469706c69636174696f6e206f766572666c6f60008301527f77000000000000000000000000000000000000000000000000000000000000006020830152604082019050919050565b60006126fc602283612d01565b91507f526f6c65733a206163636f756e7420697320746865207a65726f20616464726560008301527f73730000000000000000000000000000000000000000000000000000000000006020830152604082019050919050565b6000612762603083612d01565b91507f5369676e6572526f6c653a2063616c6c657220646f6573206e6f74206861766560008301527f20746865205369676e657220726f6c65000000000000000000000000000000006020830152604082019050919050565b60006127c8601683612d01565b91507f43414c4c45525f444f45534e545f4f574e5f4c4f414e000000000000000000006000830152602082019050919050565b61280481612d81565b82525050565b61281381612d81565b82525050565b61282281612d8b565b82525050565b600061283382612363565b915061283f82846122b5565b60208201915081905092915050565b600060208201905081810360008301526128688184612239565b905092915050565b60006020820190506128856000830184612297565b92915050565b60006080820190506128a060008301876122a6565b6128ad6020830186612819565b6128ba60408301856122a6565b6128c760608301846122a6565b95945050505050565b60006020820190506128e560008301846122cc565b92915050565b600060208201905061290060008301846122db565b92915050565b6000602082019050818103600083015261292081846122ea565b905092915050565b6000602082019050818103600083015261294181612323565b9050919050565b60006020820190508181036000830152612961816123a3565b9050919050565b60006020820190508181036000830152612981816123e3565b9050919050565b600060208201905081810360008301526129a181612423565b9050919050565b600060208201905081810360008301526129c181612463565b9050919050565b600060208201905081810360008301526129e1816124a3565b9050919050565b60006020820190508181036000830152612a01816124e3565b9050919050565b60006020820190508181036000830152612a2181612523565b9050919050565b60006020820190508181036000830152612a4181612563565b9050919050565b60006020820190508181036000830152612a61816125a3565b9050919050565b60006020820190508181036000830152612a81816125e3565b9050919050565b60006020820190508181036000830152612aa181612649565b9050919050565b60006020820190508181036000830152612ac181612689565b9050919050565b60006020820190508181036000830152612ae1816126ef565b9050919050565b60006020820190508181036000830152612b0181612755565b9050919050565b60006020820190508181036000830152612b21816127bb565b9050919050565b6000602082019050612b3d600083018461280a565b92915050565b6000604082019050612b58600083018561280a565b612b65602083018461220c565b9392505050565b600060c082019050612b81600083018961280a565b612b8e602083018861280a565b612b9b604083018761222a565b612ba8606083018661280a565b612bb5608083018561280a565b612bc260a083018461280a565b979650505050505050565b6000608082019050612be2600083018761280a565b612bef602083018661280a565b612bfc604083018561280a565b612c09606083018461280a565b95945050505050565b600061016082019050612c28600083018e61280a565b612c35602083018d61280a565b612c42604083018c61280a565b612c4f606083018b61280a565b612c5c608083018a61280a565b612c6960a083018961280a565b612c7660c083018861280a565b612c8360e083018761280a565b612c9161010083018661221b565b612c9f610120830185612297565b612cad610140830184612297565b9c9b505050505050505050505050565b6000819050602082019050919050565b600081519050919050565b600081519050919050565b6000602082019050919050565b600082825260208201905092915050565b600082825260208201905092915050565b600081905092915050565b6000612d2882612d61565b9050919050565b6000612d3a82612d61565b9050919050565b60008115159050919050565b6000819050919050565b6000819050919050565b600073ffffffffffffffffffffffffffffffffffffffff82169050919050565b6000819050919050565b600060ff82169050919050565b6000612da382612df2565b9050919050565b6000612db582612dbc565b9050919050565b6000612dc782612d61565b9050919050565b6000612dd982612de0565b9050919050565b6000612deb82612d61565b9050919050565b6000612dfd82612e04565b9050919050565b6000612e0f82612d61565b9050919050565b60005b83811015612e34578082015181840152602081019050612e19565b83811115612e43576000848401525b50505050565b6000819050919050565b6000601f19601f8301169050919050565b612e6d81612d1d565b8114612e7857600080fd5b50565b612e8481612d57565b8114612e8f57600080fd5b50565b612e9b81612d81565b8114612ea657600080fd5b50565b612eb281612d8b565b8114612ebd57600080fd5b5056fea365627a7a723158205e3df4f8dac6a3551c58475b0bfb83e34d309470f48d453807f2b97ddf0909996c6578706572696d656e74616cf564736f6c63430005110040",
  "source": "/*\n    Copyright 2020 Fabrx Labs Inc.\n\n    Licensed under the Apache License, Version 2.0 (the \"License\");\n    you may not use this file except in compliance with the License.\n    You may obtain a copy of the License at\n\n    http://www.apache.org/licenses/LICENSE-2.0\n\n    Unless required by applicable law or agreed to in writing, software\n    distributed under the License is distributed on an \"AS IS\" BASIS,\n    WITHOUT WARRANTIES OR CONDITIONS OF ANY KIND, either express or implied.\n    See the License for the specific language governing permissions and\n    limitations under the License.\n*/\n\npragma solidity 0.5.17;\npragma experimental ABIEncoderV2;\n\nimport \"../interfaces/LoansInterface.sol\";\nimport \"../interfaces/PairAggregatorInterface.sol\";\nimport \"../interfaces/DAIPoolInterface.sol\";\nimport \"../util/ZeroCollateralCommon.sol\";\nimport \"openzeppelin-solidity/contracts/math/SafeMath.sol\";\nimport \"openzeppelin-solidity/contracts/access/roles/SignerRole.sol\";\n\n\ncontract Loans is LoansInterface, SignerRole {\n    using SafeMath for uint256;\n\n    uint256 private constant ONE_HOUR = 3600;\n    uint256 private constant ONE_DAY = 3600 * 24;\n    uint256 private constant LIQUIDATE_ETH_PRICE = 95; // Eth is bought at 95% of the going rate\n    uint256 private constant ONE_HUNDRED = 100; // Used when finding a percentage of a number - divide by 100\n    uint256 private constant DAYS_PER_YEAR = 365;\n    uint256 private constant TEN_THOUSAND = 10000; // For interest and collateral, 7% is represented as 700.\n    // to find the value of something we must divide 700 by 100 to remove decimal places, and another 100 for percentage\n\n    uint256 public totalCollateral;\n\n    // At any time, this variable stores the next available loan ID\n    uint256 public loanIDCounter;\n\n    PairAggregatorInterface public priceOracle;\n    DAIPoolInterface public daiPool;\n\n    mapping(address => uint256[]) private borrowerLoans;\n\n    mapping(uint256 => ZeroCollateralCommon.Loan) public loans;\n\n    mapping(address => mapping(uint256 => bool)) public signerNonceTaken;\n\n    modifier loanIDValid(uint256 loanID) {\n        require(loanID < loanIDCounter, \"LOAN_ID_INVALID\");\n        _;\n    }\n\n    constructor(address priceOracleAddress, address daiPoolAddress) public {\n        require(priceOracleAddress != address(0), \"PROVIDE_ORACLE_ADDRESS\");\n        require(daiPoolAddress != address(0), \"PROVIDE_DAIPOOL_ADDRESS\");\n\n        priceOracle = PairAggregatorInterface(priceOracleAddress);\n        daiPool = DAIPoolInterface(daiPoolAddress);\n    }\n\n    /**\n     * @notice Deposit collateral into a loan\n     * @param borrower address The address of the loan borrower.\n     * @param loanID uint256 The ID of the loan the collateral is for\n     */\n    function depositCollateral(address borrower, uint256 loanID)\n        external\n        payable\n        loanIDValid(loanID)\n    {\n        require(loans[loanID].borrower == borrower, \"BORROWER_LOAN_ID_MISMATCH\");\n        require(loans[loanID].active, \"LOAN_NOT_ACTIVE\");\n\n        uint256 depositAmount = msg.value;\n\n        // update the contract total and the loan collateral total\n        payInCollateral(loanID, depositAmount);\n\n        emit CollateralDeposited(loanID, borrower, depositAmount);\n    }\n\n    /**\n     * @notice Withdraw collateral from a loan, unless this isn't allowed\n     * @param amount uint256 The amount of ETH the caller is hoping to withdraw\n     * @param loanID uint256 The ID of the loan the collateral is for\n     */\n    function withdrawCollateral(uint256 amount, uint256 loanID)\n        external\n        loanIDValid(loanID)\n    {\n        require(msg.sender == loans[loanID].borrower, \"CALLER_DOESNT_OWN_LOAN\");\n\n        // Find the minimum collateral amount this loan is allowed in DAI\n        uint256 minimumCollateralDAI = getMinimumAllowedCollateralDAI(loanID);\n\n        require(\n            priceOracle.getLatestTimestamp() >= now.sub(ONE_HOUR),\n            \"ORACLE_PRICE_OLD\"\n        );\n\n        uint256 ethPrice = uint256(priceOracle.getLatestAnswer());\n        uint256 minimumCollateralETH = minimumCollateralDAI.div(ethPrice);\n\n        // Withdrawal amount holds the amoutn of excess collateral in the loan\n        uint256 withdrawalAmount = loans[loanID].collateral.sub(minimumCollateralETH);\n        if (withdrawalAmount > amount) {\n            withdrawalAmount = amount;\n        }\n\n        if (withdrawalAmount > 0) {\n            // Update the contract total and the loan collateral total\n            payOutCollateral(loanID, withdrawalAmount, msg.sender);\n        }\n\n        emit CollateralWithdrawn(loanID, msg.sender, withdrawalAmount);\n    }\n\n    /**\n     * @notice Take out a loan\n     * @param interestRate uint256 The interest rate of the loan\n     * @param collateralRatio uint256 The ratio of colalteral to principal required\n     * @param maxLoanAmount uint256 The maximum amount of DAI allowed\n     * @param numberDays uint256 The length of the loan\n     * @param amountBorrow uint256 The initial amount to draw out for the loan\n     * @param signature ZeroCollateralCommon.Signature A signature from an authorized signer\n     *\n     * @dev collateral ratio is a percentage of the loan amount that's required in collateral\n     * @dev the percentage will be *(10**2). I.e. collateralRatio of 5244 means 52.44% collateral\n     * @dev is required in the loan. Interest rate is also a percentage with 2 decimal points.\n     */\n    function takeOutLoan(\n        uint256 interestRate,\n        uint256 collateralRatio,\n        uint256 maxLoanAmount,\n        uint256 numberDays,\n        uint256 amountBorrow,\n        ZeroCollateralCommon.Signature calldata signature\n    ) external payable returns (uint256 loanID) {\n        require(amountBorrow <= maxLoanAmount, \"BORROW_AMOUNT_NOT_AUTHORIZED\");\n\n        address signer = ecrecover(\n            keccak256(\n                abi.encodePacked(\n                    \"\\x19Ethereum Signed Message:\\n32\",\n                    hashLoan(\n                        interestRate,\n                        collateralRatio,\n                        msg.sender,\n                        maxLoanAmount,\n                        numberDays,\n                        signature.signerNonce\n                    )\n                )\n            ),\n            signature.v,\n            signature.r,\n            signature.s\n        );\n\n        // check that the signer and signature are valid and that the signature not double spent\n        require(isSigner(signer), \"SIGNER_NOT_AUTHORIZED\");\n        require(!signerNonceTaken[signer][signature.signerNonce], \"SIGNER_NONCE_TAKEN\");\n\n        signerNonceTaken[signer][signature.signerNonce] = true;\n\n        // check that enough collateral has been provided for this loan\n        require(\n            priceOracle.getLatestTimestamp() >= now.sub(ONE_HOUR),\n            \"ORACLE_PRICE_OLD\"\n        );\n\n        uint256 ethPrice = uint256(priceOracle.getLatestAnswer());\n\n        // TODO - CHECK DECIMALS ON ETH PRICE\n        require(\n            msg.value.mul(ethPrice) >=\n                amountBorrow.mul(collateralRatio).div(TEN_THOUSAND),\n            \"MORE_COLLATERAL_REQUIRED\"\n        );\n\n        // Create the loan\n        createNewLoan(\n            interestRate,\n            collateralRatio,\n            maxLoanAmount,\n            numberDays,\n            amountBorrow\n        );\n\n        // add loanID to the borrower's list of loans\n        borrowerLoans[msg.sender].push(loanIDCounter);\n        loanIDCounter += 1;\n\n        // give the borrower their requested amount of DAI\n        daiPool.createLoan(amountBorrow, msg.sender);\n\n        totalCollateral = totalCollateral.add(msg.value);\n\n        emit LoanCreated(\n            loanID,\n            msg.sender,\n            interestRate,\n            collateralRatio,\n            maxLoanAmount,\n            numberDays\n        );\n\n        return loanIDCounter - 1;\n    }\n\n    /**\n     * @notice Make a payment to a loan\n     * @param amount uint256 The amount of DAI to pay back to the loan\n     * @param loanID uint256 The ID of the loan the payment is for\n     */\n    function repayDai(uint256 amount, uint256 loanID) external loanIDValid(loanID) {\n        require(loans[loanID].active, \"LOAN_NOT_ACTIVE\");\n\n        // calculate the actual amount to repay\n        uint256 toPay = amount;\n        if (loans[loanID].totalOwed < toPay) {\n            toPay = loans[loanID].totalOwed;\n        }\n\n        if (toPay > 0) {\n            // update the loan\n            loans[loanID].totalOwed = loans[loanID].totalOwed.sub(toPay);\n            if (loans[loanID].totalOwed == 0) {\n                loans[loanID].active = false;\n\n                payOutCollateral(\n                    loanID,\n                    loans[loanID].collateral,\n                    loans[loanID].borrower\n                );\n            }\n\n            daiPool.repayDai(toPay, msg.sender);\n        }\n    }\n\n    /**\n     * @notice Liquidate a loan if it is expired or undercollateralised\n     * @param loanID uint256 The ID of the loan to be liquidated\n     */\n    function liquidateLoan(uint256 loanID) external loanIDValid(loanID) {\n        require(loans[loanID].active, \"LOAN_NOT_ACTIVE\");\n\n        // check that enough collateral has been provided for this loan\n        require(\n            priceOracle.getLatestTimestamp() >= now.sub(ONE_HOUR),\n            \"ORACLE_PRICE_OLD\"\n        );\n\n        uint256 ethPrice = uint256(priceOracle.getLatestAnswer());\n        uint256 collateralInDAI = loans[loanID].collateral.mul(ethPrice);\n        uint256 minCollateralDAI = getMinimumAllowedCollateralDAI(loanID);\n        // TODO - CHECK DECIMALS ON ETH PRICE\n\n        // must be under collateralised or expired\n        require(\n            minCollateralDAI > collateralInDAI || loans[loanID].timeEnd < now,\n            \"DOESNT_NEED_LIQUIDATION\"\n        );\n\n        loans[loanID].active = false;\n\n        // the msg.sender pays DAI at 95% of collateral price\n        daiPool.liquidationPayment(\n            collateralInDAI.mul(LIQUIDATE_ETH_PRICE).div(ONE_HUNDRED),\n            msg.sender\n        );\n\n        // and gets sent the ETH collateral in return\n        payOutCollateral(loanID, loans[loanID].collateral, msg.sender);\n    }\n\n    /**\n     * @notice Get a list of all loans for a borrower\n     * @param borrower address The borrower's address\n     */\n    function getBorrowerLoans(address borrower) external view returns (uint256[] memory) {\n        return borrowerLoans[borrower];\n    }\n\n    function getMinimumAllowedCollateralDAI(uint256 loanID)\n        internal\n        view\n        returns (uint256)\n    {\n        uint256 loanAmount = loans[loanID].totalOwed;\n        uint256 collateralRatio = loans[loanID].collateralRatio;\n\n        return loanAmount.mul(collateralRatio).div(TEN_THOUSAND);\n    }\n\n    function hashLoan(\n        uint256 interestRate,\n        uint256 collateralRatio,\n        address borrower,\n        uint256 maxLoanAmount,\n        uint256 numberDays,\n        uint256 signerNonce\n    ) internal pure returns (bytes32) {\n        return\n            keccak256(\n                abi.encode(\n                    interestRate,\n                    collateralRatio,\n                    borrower,\n                    maxLoanAmount,\n                    numberDays,\n                    signerNonce\n                )\n            );\n    }\n\n    function payOutCollateral(uint256 loanID, uint256 amount, address payable recipient)\n        internal\n    {\n        totalCollateral = totalCollateral.sub(amount);\n        loans[loanID].collateral = loans[loanID].collateral.sub(amount);\n        recipient.transfer(amount);\n    }\n\n    function payInCollateral(uint256 loanID, uint256 amount) internal {\n        totalCollateral = totalCollateral.add(amount);\n        loans[loanID].collateral = loans[loanID].collateral.add(amount);\n    }\n\n    // This function must be separated out to avoid a stack overflow\n    function createNewLoan(\n        uint256 interestRate,\n        uint256 collateralRatio,\n        uint256 maxLoanAmount,\n        uint256 numberDays,\n        uint256 amountBorrow\n    ) internal {\n        loans[loanIDCounter] = ZeroCollateralCommon.Loan({\n            id: loanIDCounter,\n            collateral: msg.value,\n            interestRate: interestRate,\n            collateralRatio: collateralRatio,\n            maxLoanAmount: maxLoanAmount,\n            totalOwed: amountBorrow.add(\n                amountBorrow.mul(interestRate).mul(numberDays).div(TEN_THOUSAND).div(\n                    DAYS_PER_YEAR\n                )\n            ),\n            timeStart: now,\n            timeEnd: now.add(numberDays.mul(ONE_DAY)),\n            borrower: msg.sender,\n            active: true,\n            liquidated: false\n        });\n    }\n}\n",
  "sourcePath": "/Users/guillesalazar/Repos/ZeroCollateral/smart-contracts-v1/contracts/base/Loans.sol",
  "compiler": {
    "name": "solc",
    "version": "0.5.17+commit.d19bba13.Emscripten.clang"
  },
  "schemaVersion": "3.0.23",
  "updatedAt": "2020-04-09T13:06:53.716Z",
  "devdoc": {
    "methods": {
      "depositCollateral(address,uint256)": {
        "params": {
          "borrower": "address The address of the loan borrower.",
          "loanID": "uint256 The ID of the loan the collateral is for"
        }
      },
      "getBorrowerLoans(address)": {
        "params": {
          "borrower": "address The borrower's address"
        }
      },
      "liquidateLoan(uint256)": {
        "params": {
          "loanID": "uint256 The ID of the loan to be liquidated"
        }
      },
      "repayDai(uint256,uint256)": {
        "params": {
          "amount": "uint256 The amount of DAI to pay back to the loan",
          "loanID": "uint256 The ID of the loan the payment is for"
        }
      },
      "takeOutLoan(uint256,uint256,uint256,uint256,uint256,(uint256,uint8,bytes32,bytes32))": {
        "details": "collateral ratio is a percentage of the loan amount that's required in collateralthe percentage will be *(10**2). I.e. collateralRatio of 5244 means 52.44% collateralis required in the loan. Interest rate is also a percentage with 2 decimal points.",
        "params": {
          "amountBorrow": "uint256 The initial amount to draw out for the loan",
          "collateralRatio": "uint256 The ratio of colalteral to principal required",
          "interestRate": "uint256 The interest rate of the loan",
          "maxLoanAmount": "uint256 The maximum amount of DAI allowed",
          "numberDays": "uint256 The length of the loan",
          "signature": "ZeroCollateralCommon.Signature A signature from an authorized signer"
        }
      },
      "withdrawCollateral(uint256,uint256)": {
        "params": {
          "amount": "uint256 The amount of ETH the caller is hoping to withdraw",
          "loanID": "uint256 The ID of the loan the collateral is for"
        }
      }
    }
  },
  "userdoc": {
    "methods": {
      "depositCollateral(address,uint256)": {
        "notice": "Deposit collateral into a loan"
      },
      "getBorrowerLoans(address)": {
        "notice": "Get a list of all loans for a borrower"
      },
      "liquidateLoan(uint256)": {
        "notice": "Liquidate a loan if it is expired or undercollateralised"
      },
      "repayDai(uint256,uint256)": {
        "notice": "Make a payment to a loan"
      },
      "takeOutLoan(uint256,uint256,uint256,uint256,uint256,(uint256,uint8,bytes32,bytes32))": {
        "notice": "Take out a loan"
      },
      "withdrawCollateral(uint256,uint256)": {
        "notice": "Withdraw collateral from a loan, unless this isn't allowed"
      }
    }
  }
}