{
  "contractName": "LoanTermsConsensus",
  "abi": [
    {
      "anonymous": false,
      "inputs": [
        {
          "indexed": true,
          "internalType": "address",
          "name": "previousOwner",
          "type": "address"
        },
        {
          "indexed": true,
          "internalType": "address",
          "name": "newOwner",
          "type": "address"
        }
      ],
      "name": "OwnershipTransferred",
      "type": "event"
    },
    {
      "anonymous": false,
      "inputs": [
        {
          "indexed": true,
          "internalType": "address",
          "name": "account",
          "type": "address"
        }
      ],
      "name": "SignerAdded",
      "type": "event"
    },
    {
      "anonymous": false,
      "inputs": [
        {
          "indexed": true,
          "internalType": "address",
          "name": "account",
          "type": "address"
        }
      ],
      "name": "SignerRemoved",
      "type": "event"
    },
    {
      "anonymous": false,
      "inputs": [
        {
          "indexed": true,
          "internalType": "address",
          "name": "borrower",
          "type": "address"
        },
        {
          "indexed": true,
          "internalType": "uint256",
          "name": "requestNonce",
          "type": "uint256"
        },
        {
          "indexed": false,
          "internalType": "uint256",
          "name": "interestRate",
          "type": "uint256"
        },
        {
          "indexed": false,
          "internalType": "uint256",
          "name": "collateralRatio",
          "type": "uint256"
        },
        {
          "indexed": false,
          "internalType": "uint256",
          "name": "maxLoanAmount",
          "type": "uint256"
        }
      ],
      "name": "TermsAccepted",
      "type": "event"
    },
    {
      "anonymous": false,
      "inputs": [
        {
          "indexed": true,
          "internalType": "address",
          "name": "signer",
          "type": "address"
        },
        {
          "indexed": true,
          "internalType": "address",
          "name": "borrower",
          "type": "address"
        },
        {
          "indexed": true,
          "internalType": "uint256",
          "name": "requestNonce",
          "type": "uint256"
        },
        {
          "indexed": false,
          "internalType": "uint256",
          "name": "interestRate",
          "type": "uint256"
        },
        {
          "indexed": false,
          "internalType": "uint256",
          "name": "collateralRatio",
          "type": "uint256"
        },
        {
          "indexed": false,
          "internalType": "uint256",
          "name": "maxLoanAmount",
          "type": "uint256"
        }
      ],
      "name": "TermsSubmitted",
      "type": "event"
    },
    {
      "constant": true,
      "inputs": [],
      "name": "LIQUIDATE_ETH_PRICE_SETTING",
      "outputs": [
        {
          "internalType": "bytes32",
          "name": "",
          "type": "bytes32"
        }
      ],
      "payable": false,
      "stateMutability": "view",
      "type": "function"
    },
    {
      "constant": true,
      "inputs": [],
      "name": "MAXIMUM_LOAN_DURATION_SETTING",
      "outputs": [
        {
          "internalType": "bytes32",
          "name": "",
          "type": "bytes32"
        }
      ],
      "payable": false,
      "stateMutability": "view",
      "type": "function"
    },
    {
      "constant": true,
      "inputs": [],
      "name": "MAXIMUM_TOLERANCE_SETTING",
      "outputs": [
        {
          "internalType": "bytes32",
          "name": "",
          "type": "bytes32"
        }
      ],
      "payable": false,
      "stateMutability": "view",
      "type": "function"
    },
    {
      "constant": true,
      "inputs": [],
      "name": "REQUEST_LOAN_TERMS_RATE_LIMIT_SETTING",
      "outputs": [
        {
          "internalType": "bytes32",
          "name": "",
          "type": "bytes32"
        }
      ],
      "payable": false,
      "stateMutability": "view",
      "type": "function"
    },
    {
      "constant": true,
      "inputs": [],
      "name": "REQUIRED_SUBMISSIONS_SETTING",
      "outputs": [
        {
          "internalType": "bytes32",
          "name": "",
          "type": "bytes32"
        }
      ],
      "payable": false,
      "stateMutability": "view",
      "type": "function"
    },
    {
      "constant": true,
      "inputs": [],
      "name": "RESPONSE_EXPIRY_LENGTH_SETTING",
      "outputs": [
        {
          "internalType": "bytes32",
          "name": "",
          "type": "bytes32"
        }
      ],
      "payable": false,
      "stateMutability": "view",
      "type": "function"
    },
    {
      "constant": true,
      "inputs": [],
      "name": "SAFETY_INTERVAL_SETTING",
      "outputs": [
        {
          "internalType": "bytes32",
          "name": "",
          "type": "bytes32"
        }
      ],
      "payable": false,
      "stateMutability": "view",
      "type": "function"
    },
    {
      "constant": true,
      "inputs": [],
      "name": "TERMS_EXPIRY_TIME_SETTING",
      "outputs": [
        {
          "internalType": "bytes32",
          "name": "",
          "type": "bytes32"
        }
      ],
      "payable": false,
      "stateMutability": "view",
      "type": "function"
    },
    {
      "constant": false,
      "inputs": [
        {
          "internalType": "address",
          "name": "account",
          "type": "address"
        }
      ],
      "name": "addSigner",
      "outputs": [],
      "payable": false,
      "stateMutability": "nonpayable",
      "type": "function"
    },
    {
      "constant": true,
      "inputs": [
        {
          "internalType": "address",
          "name": "",
          "type": "address"
        }
      ],
      "name": "borrowerToLastLoanTermRequest",
      "outputs": [
        {
          "internalType": "uint256",
          "name": "",
          "type": "uint256"
        }
      ],
      "payable": false,
      "stateMutability": "view",
      "type": "function"
    },
    {
      "constant": true,
      "inputs": [],
      "name": "callerAddress",
      "outputs": [
        {
          "internalType": "address",
          "name": "",
          "type": "address"
        }
      ],
      "payable": false,
      "stateMutability": "view",
      "type": "function"
    },
    {
      "constant": true,
      "inputs": [
        {
          "internalType": "address",
          "name": "",
          "type": "address"
        },
        {
          "internalType": "address",
          "name": "",
          "type": "address"
        },
        {
          "internalType": "uint256",
          "name": "",
          "type": "uint256"
        }
      ],
      "name": "hasSubmitted",
      "outputs": [
        {
          "internalType": "bool",
          "name": "",
          "type": "bool"
        }
      ],
      "payable": false,
      "stateMutability": "view",
      "type": "function"
    },
    {
      "constant": false,
      "inputs": [],
      "name": "initialize",
      "outputs": [],
      "payable": false,
      "stateMutability": "nonpayable",
      "type": "function"
    },
    {
      "constant": false,
      "inputs": [
        {
          "internalType": "address",
          "name": "aCallerAddress",
          "type": "address"
        },
        {
          "internalType": "address",
          "name": "aSettingAddress",
          "type": "address"
        },
        {
          "internalType": "address",
          "name": "aMarketsAddress",
          "type": "address"
        }
      ],
      "name": "initialize",
      "outputs": [],
      "payable": false,
      "stateMutability": "nonpayable",
      "type": "function"
    },
    {
      "constant": false,
      "inputs": [
        {
          "internalType": "address",
          "name": "sender",
          "type": "address"
        }
      ],
      "name": "initialize",
      "outputs": [],
      "payable": false,
      "stateMutability": "nonpayable",
      "type": "function"
    },
    {
      "constant": true,
      "inputs": [],
      "name": "initialized",
      "outputs": [
        {
          "internalType": "bool",
          "name": "",
          "type": "bool"
        }
      ],
      "payable": false,
      "stateMutability": "view",
      "type": "function"
    },
    {
      "constant": true,
      "inputs": [],
      "name": "isOwner",
      "outputs": [
        {
          "internalType": "bool",
          "name": "",
          "type": "bool"
        }
      ],
      "payable": false,
      "stateMutability": "view",
      "type": "function"
    },
    {
      "constant": true,
      "inputs": [
        {
          "internalType": "address",
          "name": "account",
          "type": "address"
        }
      ],
      "name": "isSigner",
      "outputs": [
        {
          "internalType": "bool",
          "name": "",
          "type": "bool"
        }
      ],
      "payable": false,
      "stateMutability": "view",
      "type": "function"
    },
    {
      "constant": true,
      "inputs": [],
      "name": "markets",
      "outputs": [
        {
          "internalType": "contract MarketsStateInterface",
          "name": "",
          "type": "address"
        }
      ],
      "payable": false,
      "stateMutability": "view",
      "type": "function"
    },
    {
      "constant": true,
      "inputs": [],
      "name": "owner",
      "outputs": [
        {
          "internalType": "address",
          "name": "",
          "type": "address"
        }
      ],
      "payable": false,
      "stateMutability": "view",
      "type": "function"
    },
    {
      "constant": false,
      "inputs": [
        {
          "internalType": "address",
          "name": "account",
          "type": "address"
        }
      ],
      "name": "removeSigner",
      "outputs": [],
      "payable": false,
      "stateMutability": "nonpayable",
      "type": "function"
    },
    {
      "constant": false,
      "inputs": [],
      "name": "renounceOwnership",
      "outputs": [],
      "payable": false,
      "stateMutability": "nonpayable",
      "type": "function"
    },
    {
      "constant": true,
      "inputs": [
        {
          "internalType": "address",
          "name": "",
          "type": "address"
        },
        {
          "internalType": "uint256",
          "name": "",
          "type": "uint256"
        }
      ],
      "name": "requestNonceTaken",
      "outputs": [
        {
          "internalType": "bool",
          "name": "",
          "type": "bool"
        }
      ],
      "payable": false,
      "stateMutability": "view",
      "type": "function"
    },
    {
      "constant": true,
      "inputs": [],
      "name": "settings",
      "outputs": [
        {
          "internalType": "contract SettingsInterface",
          "name": "",
          "type": "address"
        }
      ],
      "payable": false,
      "stateMutability": "view",
      "type": "function"
    },
    {
      "constant": true,
      "inputs": [
        {
          "internalType": "address",
          "name": "",
          "type": "address"
        },
        {
          "internalType": "uint256",
          "name": "",
          "type": "uint256"
        }
      ],
      "name": "signerNonceTaken",
      "outputs": [
        {
          "internalType": "bool",
          "name": "",
          "type": "bool"
        }
      ],
      "payable": false,
      "stateMutability": "view",
      "type": "function"
    },
    {
      "constant": true,
      "inputs": [
        {
          "internalType": "address",
          "name": "",
          "type": "address"
        },
        {
          "internalType": "uint256",
          "name": "",
          "type": "uint256"
        }
      ],
      "name": "termSubmissions",
      "outputs": [
        {
          "components": [
            {
              "internalType": "uint256",
              "name": "count",
              "type": "uint256"
            },
            {
              "internalType": "uint256",
              "name": "max",
              "type": "uint256"
            },
            {
              "internalType": "uint256",
              "name": "min",
              "type": "uint256"
            },
            {
              "internalType": "uint256",
              "name": "sum",
              "type": "uint256"
            }
          ],
          "internalType": "struct NumbersList.Values",
          "name": "interestRate",
          "type": "tuple"
        },
        {
          "components": [
            {
              "internalType": "uint256",
              "name": "count",
              "type": "uint256"
            },
            {
              "internalType": "uint256",
              "name": "max",
              "type": "uint256"
            },
            {
              "internalType": "uint256",
              "name": "min",
              "type": "uint256"
            },
            {
              "internalType": "uint256",
              "name": "sum",
              "type": "uint256"
            }
          ],
          "internalType": "struct NumbersList.Values",
          "name": "collateralRatio",
          "type": "tuple"
        },
        {
          "components": [
            {
              "internalType": "uint256",
              "name": "count",
              "type": "uint256"
            },
            {
              "internalType": "uint256",
              "name": "max",
              "type": "uint256"
            },
            {
              "internalType": "uint256",
              "name": "min",
              "type": "uint256"
            },
            {
              "internalType": "uint256",
              "name": "sum",
              "type": "uint256"
            }
          ],
          "internalType": "struct NumbersList.Values",
          "name": "maxLoanAmount",
          "type": "tuple"
        }
      ],
      "payable": false,
      "stateMutability": "view",
      "type": "function"
    },
    {
      "constant": false,
      "inputs": [
        {
          "internalType": "address",
          "name": "newOwner",
          "type": "address"
        }
      ],
      "name": "transferOwnership",
      "outputs": [],
      "payable": false,
      "stateMutability": "nonpayable",
      "type": "function"
    },
    {
      "constant": false,
      "inputs": [
        {
          "components": [
            {
              "internalType": "address payable",
              "name": "borrower",
              "type": "address"
            },
            {
              "internalType": "address",
              "name": "recipient",
              "type": "address"
            },
            {
              "internalType": "address",
              "name": "consensusAddress",
              "type": "address"
            },
            {
              "internalType": "uint256",
              "name": "requestNonce",
              "type": "uint256"
            },
            {
              "internalType": "uint256",
              "name": "amount",
              "type": "uint256"
            },
            {
              "internalType": "uint256",
              "name": "duration",
              "type": "uint256"
            },
            {
              "internalType": "uint256",
              "name": "requestTime",
              "type": "uint256"
            }
          ],
          "internalType": "struct TellerCommon.LoanRequest",
          "name": "request",
          "type": "tuple"
        },
        {
          "components": [
            {
              "internalType": "address",
              "name": "signer",
              "type": "address"
            },
            {
              "internalType": "address",
              "name": "consensusAddress",
              "type": "address"
            },
            {
              "internalType": "uint256",
              "name": "responseTime",
              "type": "uint256"
            },
            {
              "internalType": "uint256",
              "name": "interestRate",
              "type": "uint256"
            },
            {
              "internalType": "uint256",
              "name": "collateralRatio",
              "type": "uint256"
            },
            {
              "internalType": "uint256",
              "name": "maxLoanAmount",
              "type": "uint256"
            },
            {
              "components": [
                {
                  "internalType": "uint256",
                  "name": "signerNonce",
                  "type": "uint256"
                },
                {
                  "internalType": "uint8",
                  "name": "v",
                  "type": "uint8"
                },
                {
                  "internalType": "bytes32",
                  "name": "r",
                  "type": "bytes32"
                },
                {
                  "internalType": "bytes32",
                  "name": "s",
                  "type": "bytes32"
                }
              ],
              "internalType": "struct TellerCommon.Signature",
              "name": "signature",
              "type": "tuple"
            }
          ],
          "internalType": "struct TellerCommon.LoanResponse[]",
          "name": "responses",
          "type": "tuple[]"
        }
      ],
      "name": "processRequest",
      "outputs": [
        {
          "internalType": "uint256",
          "name": "interestRate",
          "type": "uint256"
        },
        {
          "internalType": "uint256",
          "name": "collateralRatio",
          "type": "uint256"
        },
        {
          "internalType": "uint256",
          "name": "maxLoanAmount",
          "type": "uint256"
        }
      ],
      "payable": false,
      "stateMutability": "nonpayable",
      "type": "function"
    }
  ],
  "bytecode": "0x60806040526127e1806100136000396000f3fe608060405234801561001057600080fd5b50600436106101c45760003560e01c80638f32d59b116100f9578063e00a461511610097578063eb12d61e11610071578063eb12d61e14610349578063f2fde38b1461035c578063faa8aab11461036f578063fb98d9e214610377576101c4565b8063e00a461514610331578063e06174e414610339578063e3f33d0014610341576101c4565b8063c0c53b8b116100d3578063c0c53b8b146102fb578063c41dd8ce1461030e578063c4d66de814610316578063cc44cadb14610329576101c4565b80638f32d59b146102cd57806399ffe065146102d55780639f24a12d146102e8576101c4565b80633b98dfdb11610166578063715018a611610140578063715018a6146102955780637df73e271461029d5780638129fc1c146102b05780638da5cb5b146102b8576101c4565b80633b98dfdb146102725780633ff591d91461027a57806368fcdeb814610282576101c4565b806311880cc8116101a257806311880cc81461021e578063158ef93e146102265780632aac635e1461023b5780633ac2a0321461025d576101c4565b8063064e5d49146101c95780630e316ab7146101f45780631139087a14610209575b600080fd5b6101dc6101d7366004611d17565b61038a565b6040516101eb939291906126b1565b60405180910390f35b610207610202366004611c2f565b61073c565b005b61021161076c565b6040516101eb91906124cc565b610211610784565b61022e610799565b6040516101eb91906124be565b61024e610249366004611cdd565b6107a2565b6040516101eb93929190612687565b61026561084b565b6040516101eb9190612518565b61021161085a565b61021161087a565b61022e610290366004611cdd565b610894565b6102076108b4565b61022e6102ab366004611c2f565b610922565b61020761093b565b6102c06109ce565b6040516101eb91906123b3565b61022e6109dd565b61022e6102e3366004611c9a565b610a03565b6102116102f6366004611c2f565b610a29565b610207610309366004611c4d565b610a3b565b610211610ae3565b610207610324366004611c2f565b610afa565b610211610bd9565b610211610bf3565b610265610c09565b610211610c18565b610207610357366004611c2f565b610c33565b61020761036a366004611c2f565b610c60565b6102c0610c8d565b61022e610385366004611cdd565b610c9c565b600080548190819060ff166103ba5760405162461bcd60e51b81526004016103b190612667565b60405180910390fd5b609e546001600160a01b031633146103e45760405162461bcd60e51b81526004016103b190612657565b606654604051630134809560e51b81526001600160a01b039091169063269012a09061042a907252657175697265645375626d697373696f6e7360681b906004016124cc565b60206040518083038186803b15801561044257600080fd5b505afa158015610456573d6000803e3d6000fd5b505050506040513d601f19601f8201168201806040525061047a9190810190611dab565b8410156104995760405162461bcd60e51b81526004016103b190612637565b6104b06104ab36889003880188611d6e565b610cbc565b609f60006104c16020890189611c2f565b6001600160a01b031681526020808201929092526040908101600090812060608a0135825290925290205460ff161561050c5760405162461bcd60e51b81526004016103b190612547565b6001609f600061051f60208a018a611c2f565b6001600160a01b031681526020808201929092526040908101600090812060608b013582529092528120805460ff19169215159290921790915561057061056b36899003890189611d6e565b610dc9565b905060005b858110156105c0576105b861058f368a90038a018a611d6e565b88888481811061059b57fe5b905061014002018036036105b29190810190611d8c565b84610e3c565b600101610575565b5061060460a060006105d560208b018b611c2f565b6001600160a01b031681526020808201929092526040908101600090812060608c013582529092529020610f9a565b935061065760a0600061061a60208b018b611c2f565b6001600160a01b03166001600160a01b03168152602001908152602001600020600089606001358152602001908152602001600020600401610f9a565b92506106aa60a0600061066d60208b018b611c2f565b6001600160a01b03166001600160a01b03168152602001908152602001600020600089606001358152602001908152602001600020600801610f9a565b91504260a160006106be60208b018b611c2f565b6001600160a01b03168152602080820192909252604001600020919091556060880135906106ee90890189611c2f565b6001600160a01b03167f658dfc9759b55173ea96c7bd8d4ad2c3e3804d28d83d2e1a25569a2fecb6720886868660405161072a939291906126b1565b60405180910390a35093509350939050565b6107446109dd565b6107605760405162461bcd60e51b81526004016103b1906125f7565b61076981611066565b50565b704c6971756964617465457468507269636560781b81565b6d14d859995d1e525b9d195c9d985b60921b81565b60005460ff1690565b60a060209081526000928352604080842082529183529181902081516080808201845282548252600183015482860152600283015482850152600383015460608084019190915284518083018652600485015481526005850154818801526006850154818701526007850154818301528551928301865260088501548352600985015496830196909652600a84015494820194909452600b909201549282019290925290919083565b6067546001600160a01b031681565b7814995c5d595cdd131bd85b95195c9b5cd4985d19531a5b5a5d603a1b81565b7252657175697265645375626d697373696f6e7360681b81565b609d60209081526000928352604080842090915290825290205460ff1681565b6108bc6109dd565b6108d85760405162461bcd60e51b81526004016103b1906125f7565b6068546040516000916001600160a01b0316907f8be0079c531659141344cd1fd0a4f28419497f9722a3daafe3b4186f6b6457e0908390a3606880546001600160a01b0319169055565b6000610935609b8363ffffffff6110ae16565b92915050565b60005462010000900460ff168061095557506109556110f6565b806109685750600054610100900460ff16155b6109845760405162461bcd60e51b81526004016103b190612617565b60005462010000900460ff161580156109b4576000805461ff001962ff0000199091166201000017166101001790555b60016033558015610769576000805462ff00001916905550565b6068546001600160a01b031690565b6068546000906001600160a01b03166109f46110fc565b6001600160a01b031614905090565b609c60209081526000938452604080852082529284528284209052825290205460ff1681565b60a16020526000908152604090205481565b60005460ff1615610a5e5760405162461bcd60e51b81526004016103b190612677565b60408051808201909152601881527f4d5553545f50524f564944455f4c454e4445525f494e464f00000000000000006020820152610aac906001600160a01b0385169063ffffffff61110016565b610ab533610afa565b610abf828261112d565b5050609e80546001600160a01b0319166001600160a01b0392909216919091179055565b6f4d6178696d756d546f6c6572616e636560801b81565b60005462010000900460ff1680610b145750610b146110f6565b80610b275750600054610100900460ff16155b610b435760405162461bcd60e51b81526004016103b190612617565b60005462010000900460ff16158015610b73576000805461ff001962ff0000199091166201000017166101001790555b606880546001600160a01b0319166001600160a01b0384811691909117918290556040519116906000907f8be0079c531659141344cd1fd0a4f28419497f9722a3daafe3b4186f6b6457e0908290a38015610bd5576000805462ff0000191690555b5050565b7226b0bc34b6bab6a637b0b7223ab930ba34b7b760691b81565b6e5465726d7345787069727954696d6560881b81565b6066546001600160a01b031681565b730a4cae6e0dedce6ca8af0e0d2e4f298cadccee8d60631b81565b610c3b6109dd565b610c575760405162461bcd60e51b81526004016103b1906125f7565b6107698161127e565b610c686109dd565b610c845760405162461bcd60e51b81526004016103b1906125f7565b610769816112c6565b609e546001600160a01b031681565b609f60209081526000928352604080842090915290825290205460ff1681565b80516001600160a01b0316600090815260a16020526040902054610cdf57610769565b606654604051630134809560e51b81526000916001600160a01b03169063269012a090610d2c907814995c5d595cdd131bd85b95195c9b5cd4985d19531a5b5a5d603a1b906004016124cc565b60206040518083038186803b158015610d4457600080fd5b505afa158015610d58573d6000803e3d6000fd5b505050506040513d601f19601f82011682018060405250610d7c9190810190611dab565b82516001600160a01b0316600090815260a160205260409020549091504290610dab908363ffffffff61134816565b1115610bd55760405162461bcd60e51b81526004016103b1906125c7565b609e548151602083015160408401516060850151608086015160a087015160c08801516000976001600160a01b031696959493929190610e07611374565b604051602001610e1f999897969594939291906123c1565b604051602081830303815290604052805190602001209050919050565b6000610e488383611378565b835185516060870151604087015160c0880151949550610e699486906113da565b60608084015185516001600160a01b0316600090815260a06020908152604080832094890151835293905291909120610ea79163ffffffff61158116565b608083015184516001600160a01b0316600090815260a060209081526040808320606089015184529091529020610ee99160049091019063ffffffff61158116565b60a08084015185516001600160a01b03166000908152602092835260408082206060890151835290935291909120610f2c9160089091019063ffffffff61158116565b836060015184600001516001600160a01b031684600001516001600160a01b03167f75ec6e4b3d626c9ecaff859275e3ee99bd0d25d81a798938dcc15b49baffc24d866060015187608001518860a00151604051610f8c939291906126b1565b60405180910390a450505050565b606654604051630134809560e51b8152600091611041916001600160a01b039091169063269012a090610fe4906f4d6178696d756d546f6c6572616e636560801b906004016124cc565b60206040518083038186803b158015610ffc57600080fd5b505afa158015611010573d6000803e3d6000fd5b505050506040513d601f19601f820116820180604052506110349190810190611dab565b839063ffffffff6115e616565b61105d5760405162461bcd60e51b81526004016103b190612577565b61093582611697565b611077609b8263ffffffff6116d016565b6040516001600160a01b038216907f3525e22824a8a7df2c9a6029941c824cf95b6447f1e13d5128fd3826d35afe8b90600090a250565b60006001600160a01b0382166110d65760405162461bcd60e51b81526004016103b190612607565b506001600160a01b03166000908152602091909152604090205460ff1690565b303b1590565b3390565b61110982611718565b81906111285760405162461bcd60e51b81526004016103b19190612526565b505050565b60005460ff16156111505760405162461bcd60e51b81526004016103b190612677565b60408051808201909152601981527f53455454494e47535f4d5553545f42455f50524f564944454400000000000000602082015261119e906001600160a01b0384169063ffffffff61110016565b6111b0826001600160a01b0316611726565b6111cc5760405162461bcd60e51b81526004016103b1906125a7565b60408051808201909152601881527f4d41524b4554535f4d5553545f42455f50524f56494445440000000000000000602082015261121a906001600160a01b0383169063ffffffff61110016565b61122c816001600160a01b0316611726565b6112485760405162461bcd60e51b81526004016103b190612597565b611250611762565b606680546001600160a01b039384166001600160a01b03199182161790915560678054929093169116179055565b61128f609b8263ffffffff61177116565b6040516001600160a01b038216907f47d1c22a25bb3a5d4e481b9b1e6944c2eade3181a0a20b495ed61d35b5323f2490600090a250565b6001600160a01b0381166112ec5760405162461bcd60e51b81526004016103b190612567565b6068546040516001600160a01b038084169216907f8be0079c531659141344cd1fd0a4f28419497f9722a3daafe3b4186f6b6457e090600090a3606880546001600160a01b0319166001600160a01b0392909216919091179055565b60008282018381101561136d5760405162461bcd60e51b81526004016103b190612587565b9392505050565b4690565b600082602001518360400151846060015185608001518660a001518760c00151600001516113a4611374565b886040516020016113bc989796959493929190612447565b60405160208183030381529060405280519060200120905092915050565b6001600160a01b038087166000908152609c6020908152604080832093891683529281528282208783529052205460ff16156114285760405162461bcd60e51b81526004016103b190612557565b6001600160a01b038087166000908152609c602090815260408083208985168452825280832088845290915290819020805460ff191660011790556066549051630134809560e51b815261150392919091169063269012a0906114a690730a4cae6e0dedce6ca8af0e0d2e4f298cadccee8d60631b906004016124cc565b60206040518083038186803b1580156114be57600080fd5b505afa1580156114d2573d6000803e3d6000fd5b505050506040513d601f19601f820116820180604052506114f69190810190611dab565b429063ffffffff6117bd16565b8310156115225760405162461bcd60e51b81526004016103b190612627565b61152d8183886117ff565b6115495760405162461bcd60e51b81526004016103b190612647565b6001600160a01b039095166000908152609d602090815260408083209751835296905294909420805460ff1916600117905550505050565b808260010154101561159557600182018190555b80826002015411806115a657508154155b156115b357600282018190555b60038201546115c8908263ffffffff61134816565b600383015581546115e090600163ffffffff61134816565b90915550565b60006115f1836118f7565b156115fe57506000610935565b600061160984611697565b9050600061162f612710611623848763ffffffff61190916565b9063ffffffff61194316565b90506000611643838363ffffffff6117bd16565b9050808660020154101561165d5760009350505050610935565b600061166f848463ffffffff61134816565b9050808760010154111561168a576000945050505050610935565b5060019695505050505050565b60006116a2826118f7565b6116c8576116c36116b283611985565b60038401549063ffffffff61194316565b610935565b506000919050565b6116da82826110ae565b6116f65760405162461bcd60e51b81526004016103b1906125d7565b6001600160a01b0316600090815260209190915260409020805460ff19169055565b6001600160a01b0316151590565b6000813f7fc5d2460186f7233c927e7db2dcc703c0e500b653ca82273b7bfad8045d85a47081811480159061175a57508115155b949350505050565b6000805460ff19166001179055565b61177b82826110ae565b156117985760405162461bcd60e51b81526004016103b190612537565b6001600160a01b0316600090815260209190915260409020805460ff19166001179055565b600061136d83836040518060400160405280601e81526020017f536166654d6174683a207375627472616374696f6e206f766572666c6f770000815250611989565b600061180a82610922565b6118165750600061136d565b6001600160a01b0382166000908152609d602090815260408083208751845290915290205460ff161561185b5760405162461bcd60e51b81526004016103b1906125b7565b60006001846040516020016118709190612393565b60405160208183030381529060405280519060200120866020015187604001518860600151604051600081526020016040526040516118b294939291906124da565b6020604051602081039080840390855afa1580156118d4573d6000803e3d6000fd5b5050604051601f1901516001600160a01b03858116911614925050509392505050565b600061190282611985565b1592915050565b60008261191857506000610935565b8282028284828161192557fe5b041461136d5760405162461bcd60e51b81526004016103b1906125e7565b600061136d83836040518060400160405280601a81526020017f536166654d6174683a206469766973696f6e206279207a65726f0000000000008152506119b5565b5490565b600081848411156119ad5760405162461bcd60e51b81526004016103b19190612526565b505050900390565b600081836119d65760405162461bcd60e51b81526004016103b19190612526565b5060008385816119e257fe5b0495945050505050565b803561093581612778565b60008083601f840112611a0957600080fd5b50813567ffffffffffffffff811115611a2157600080fd5b60208301915083610140820283011115611a3a57600080fd5b9250929050565b80356109358161278c565b600060e08284031215611a5e57600080fd5b50919050565b600060e08284031215611a7657600080fd5b611a8060e06126d9565b90506000611a8e84846119ec565b8252506020611a9f848483016119ec565b6020830152506040611ab3848285016119ec565b6040830152506060611ac784828501611a41565b6060830152506080611adb84828501611a41565b60808301525060a0611aef84828501611a41565b60a08301525060c0611b0384828501611a41565b60c08301525092915050565b60006101408284031215611b2257600080fd5b611b2c60e06126d9565b90506000611b3a84846119ec565b8252506020611b4b848483016119ec565b6020830152506040611b5f84828501611a41565b6040830152506060611b7384828501611a41565b6060830152506080611b8784828501611a41565b60808301525060a0611b9b84828501611a41565b60a08301525060c0611b0384828501600060808284031215611bbc57600080fd5b611bc660806126d9565b90506000611bd48484611a41565b8252506020611be584848301611c24565b6020830152506040611bf984828501611a41565b6040830152506060611c0d84828501611a41565b60608301525092915050565b80516109358161278c565b803561093581612795565b600060208284031215611c4157600080fd5b600061175a84846119ec565b600080600060608486031215611c6257600080fd5b6000611c6e86866119ec565b9350506020611c7f868287016119ec565b9250506040611c90868287016119ec565b9150509250925092565b600080600060608486031215611caf57600080fd5b6000611cbb86866119ec565b9350506020611ccc868287016119ec565b9250506040611c9086828701611a41565b60008060408385031215611cf057600080fd5b6000611cfc85856119ec565b9250506020611d0d85828601611a41565b9150509250929050565b60008060006101008486031215611d2d57600080fd5b6000611d398686611a4c565b93505060e084013567ffffffffffffffff811115611d5657600080fd5b611d62868287016119f7565b92509250509250925092565b600060e08284031215611d8057600080fd5b600061175a8484611a64565b60006101408284031215611d9f57600080fd5b600061175a8484611b0f565b600060208284031215611dbd57600080fd5b600061175a8484611c19565b611dd281612712565b82525050565b611dd28161271d565b611dd281612722565b611dd2611df682612722565b612722565b611dd281612737565b6000611e0f82612700565b611e198185612704565b9350611e29818560208601612742565b611e328161276e565b9093019392505050565b6000611e49601f83612704565b7f526f6c65733a206163636f756e7420616c72656164792068617320726f6c6500815260200192915050565b6000611e82601c8361270d565b7f19457468657265756d205369676e6564204d6573736167653a0a3332000000008152601c0192915050565b6000611ebb601e83612704565b7f4c4f414e5f5445524d535f524551554553545f4e4f4e43455f54414b454e0000815260200192915050565b6000611ef4601883612704565b7f5349474e45525f414c52454144595f5355424d49545445440000000000000000815260200192915050565b6000611f2d602683612704565b7f4f776e61626c653a206e6577206f776e657220697320746865207a65726f206181526564647265737360d01b602082015260400192915050565b6000611f75601483612704565b73149154d413d394d154d7d513d3d7d5905492515160621b815260200192915050565b6000611fa5601b83612704565b7f536166654d6174683a206164646974696f6e206f766572666c6f770000000000815260200192915050565b6000611fde601a83612704565b7f4d41524b4554535f4d5553545f42455f415f434f4e5452414354000000000000815260200192915050565b6000612017601b83612704565b7f53455454494e47535f4d5553545f42455f415f434f4e54524143540000000000815260200192915050565b6000612050601283612704565b7129a4a3a722a92fa727a721a2afaa20a5a2a760711b815260200192915050565b600061207e601f83612704565b7f524551535f4c4f414e5f5445524d535f4c4d545f455843454544535f4d415800815260200192915050565b60006120b7602183612704565b7f526f6c65733a206163636f756e7420646f6573206e6f74206861766520726f6c8152606560f81b602082015260400192915050565b60006120fa602183612704565b7f536166654d6174683a206d756c7469706c69636174696f6e206f766572666c6f8152607760f81b602082015260400192915050565b600061213d602083612704565b7f4f776e61626c653a2063616c6c6572206973206e6f7420746865206f776e6572815260200192915050565b6000612176602283612704565b7f526f6c65733a206163636f756e7420697320746865207a65726f206164647265815261737360f01b602082015260400192915050565b60006121ba602e83612704565b7f436f6e747261637420696e7374616e63652068617320616c726561647920626581526d195b881a5b9a5d1a585b1a5e995960921b602082015260400192915050565b600061220a601083612704565b6f149154d413d394d157d156141254915160821b815260200192915050565b6000612236601f83612704565b7f4c4f414e5445524d5f494e53554646494349454e545f524553504f4e53455300815260200192915050565b600061226f601183612704565b7014d251d3905515549157d2539590531251607a1b815260200192915050565b600061229c601883612704565b7f53454e4445525f4841534e545f5045524d495353494f4e530000000000000000815260200192915050565b60006122d5601883612704565b7f434f4e54524143545f4e4f545f494e495449414c495a45440000000000000000815260200192915050565b600061230e601c83612704565b7f434f4e54524143545f414c52454144595f494e495449414c495a454400000000815260200192915050565b8051608083019061234b8482611de1565b50602082015161235e6020850182611de1565b5060408201516123716040850182611de1565b5060608201516123846060850182611de1565b50505050565b611dd281612731565b600061239e82611e75565b91506123aa8284611dea565b50602001919050565b602081016109358284611dc9565b61012081016123d0828c611dc9565b6123dd602083018b611dc9565b6123ea604083018a611dc9565b6123f76060830189611dc9565b6124046080830188611de1565b61241160a0830187611de1565b61241e60c0830186611de1565b61242b60e0830185611de1565b612439610100830184611de1565b9a9950505050505050505050565b6101008101612456828b611dc9565b612463602083018a611de1565b6124706040830189611de1565b61247d6060830188611de1565b61248a6080830187611de1565b61249760a0830186611de1565b6124a460c0830185611de1565b6124b160e0830184611de1565b9998505050505050505050565b602081016109358284611dd8565b602081016109358284611de1565b608081016124e88287611de1565b6124f5602083018661238a565b6125026040830185611de1565b61250f6060830184611de1565b95945050505050565b602081016109358284611dfb565b6020808252810161136d8184611e04565b6020808252810161093581611e3c565b6020808252810161093581611eae565b6020808252810161093581611ee7565b6020808252810161093581611f20565b6020808252810161093581611f68565b6020808252810161093581611f98565b6020808252810161093581611fd1565b602080825281016109358161200a565b6020808252810161093581612043565b6020808252810161093581612071565b60208082528101610935816120aa565b60208082528101610935816120ed565b6020808252810161093581612130565b6020808252810161093581612169565b60208082528101610935816121ad565b60208082528101610935816121fd565b6020808252810161093581612229565b6020808252810161093581612262565b602080825281016109358161228f565b60208082528101610935816122c8565b6020808252810161093581612301565b6101808101612696828661233a565b6126a3608083018561233a565b61175a61010083018461233a565b606081016126bf8286611de1565b6126cc6020830185611de1565b61175a6040830184611de1565b60405181810167ffffffffffffffff811182821017156126f857600080fd5b604052919050565b5190565b90815260200190565b919050565b600061093582612725565b151590565b90565b6001600160a01b031690565b60ff1690565b600061093582612712565b60005b8381101561275d578181015183820152602001612745565b838111156123845750506000910152565b601f01601f191690565b61278181612712565b811461076957600080fd5b61278181612722565b6127818161273156fea365627a7a7231582098b84e28ad6772a237cd2d7aafc018557e386e57a0091bf23b2cd1b224f864786c6578706572696d656e74616cf564736f6c63430005110040",
  "source": "pragma solidity 0.5.17;\npragma experimental ABIEncoderV2;\n\n// Contracts\nimport \"./Consensus.sol\";\n\n// Interfaces\nimport \"../interfaces/LoanTermsConsensusInterface.sol\";\n\n\n/**\n    @notice This contract is used to process the loan requests through the Teller protocol\n\n    @author develop@teller.finance\n */\ncontract LoanTermsConsensus is Consensus, LoanTermsConsensusInterface {\n    /* Mappings */\n    mapping(address => mapping(uint256 => TellerCommon.AccruedLoanTerms)) public termSubmissions;\n\n    /**\n        This mapping identify the last request timestamp for a given borrower address.\n\n            Example:    address(0x123...789) = timestamp(now)\n        \n        It is used as rate limit per borrower address.\n     */\n    mapping(address => uint256) public borrowerToLastLoanTermRequest;\n\n    /**\n        @notice Processes the loan request\n        @param request Struct of the protocol loan request\n        @param responses List of structs of the protocol loan responses\n        @return uint256 Interest rate\n        @return uint256 Collateral ratio\n        @return uint256 Maximum loan amount\n     */\n    function processRequest(\n        TellerCommon.LoanRequest calldata request,\n        TellerCommon.LoanResponse[] calldata responses\n    )\n        external\n        isInitialized()\n        isCaller()\n        returns (uint256 interestRate, uint256 collateralRatio, uint256 maxLoanAmount)\n    {\n        require(\n            responses.length >=\n                settings.getPlatformSettingValue(REQUIRED_SUBMISSIONS_SETTING),\n            \"LOANTERM_INSUFFICIENT_RESPONSES\"\n        );\n        _requireRequestLoanTermsRateLimit(request);\n        require(\n            !requestNonceTaken[request.borrower][request.requestNonce],\n            \"LOAN_TERMS_REQUEST_NONCE_TAKEN\"\n        );\n        requestNonceTaken[request.borrower][request.requestNonce] = true;\n\n        bytes32 requestHash = _hashRequest(request);\n\n        for (uint256 i = 0; i < responses.length; i++) {\n            _processResponse(request, responses[i], requestHash);\n        }\n\n        interestRate = _getConsensus(\n            termSubmissions[request.borrower][request.requestNonce].interestRate\n        );\n        collateralRatio = _getConsensus(\n            termSubmissions[request.borrower][request.requestNonce].collateralRatio\n        );\n        maxLoanAmount = _getConsensus(\n            termSubmissions[request.borrower][request.requestNonce].maxLoanAmount\n        );\n        borrowerToLastLoanTermRequest[request.borrower] = now;\n\n        emit TermsAccepted(\n            request.borrower,\n            request.requestNonce,\n            interestRate,\n            collateralRatio,\n            maxLoanAmount\n        );\n    }\n\n    /**\n        @notice Processes the loan response\n        @param request Struct of the protocol loan request\n        @param response List of structs of the protocol loan responses\n        @param requestHash bytes32 Hash of the loan request\n     */\n    function _processResponse(\n        TellerCommon.LoanRequest memory request,\n        TellerCommon.LoanResponse memory response,\n        bytes32 requestHash\n    ) internal {\n        bytes32 responseHash = _hashResponse(response, requestHash);\n\n        _validateResponse(\n            response.signer,\n            request.borrower,\n            request.requestNonce,\n            response.responseTime,\n            responseHash,\n            response.signature\n        );\n\n        termSubmissions[request.borrower][request.requestNonce].interestRate.addValue(\n            response.interestRate\n        );\n        termSubmissions[request.borrower][request.requestNonce].collateralRatio.addValue(\n            response.collateralRatio\n        );\n        termSubmissions[request.borrower][request.requestNonce].maxLoanAmount.addValue(\n            response.maxLoanAmount\n        );\n\n        emit TermsSubmitted(\n            response.signer,\n            request.borrower,\n            request.requestNonce,\n            response.interestRate,\n            response.collateralRatio,\n            response.maxLoanAmount\n        );\n    }\n\n    /**\n        @notice Generates a hash for the loan response\n        @param response Structs of the protocol loan responses\n        @param requestHash Hash of the loan request\n        @return bytes32 Hash of the loan response\n     */\n    function _hashResponse(TellerCommon.LoanResponse memory response, bytes32 requestHash)\n        internal\n        view\n        returns (bytes32)\n    {\n        return\n            keccak256(\n                abi.encode(\n                    response.consensusAddress,\n                    response.responseTime,\n                    response.interestRate,\n                    response.collateralRatio,\n                    response.maxLoanAmount,\n                    response.signature.signerNonce,\n                    _getChainId(),\n                    requestHash\n                )\n            );\n    }\n\n    /**\n        @notice Generates a hash for the loan request\n        @param request Struct of the protocol loan request\n        @return bytes32 Hash of the loan request\n     */\n    function _hashRequest(TellerCommon.LoanRequest memory request)\n        internal\n        view\n        returns (bytes32)\n    {\n        return\n            keccak256(\n                abi.encode(\n                    callerAddress,\n                    request.borrower,\n                    request.recipient,\n                    request.consensusAddress,\n                    request.requestNonce,\n                    request.amount,\n                    request.duration,\n                    request.requestTime,\n                    _getChainId()\n                )\n            );\n    }\n\n    /**\n        @notice It validates whether the time window between the last loan terms request and current one exceeds the maximum rate limit.\n        @param request the new request.\n        @dev It throws a require error if the request rate limit exceeds the maximum.\n     */\n    function _requireRequestLoanTermsRateLimit(TellerCommon.LoanRequest memory request)\n        internal\n        view\n    {\n        // In case it is the first time that borrower requests loan terms, we don't validate the rate limit.\n        if (borrowerToLastLoanTermRequest[request.borrower] == 0) {\n            return;\n        }\n        uint256 requestLoanTermsRateLimit = settings.getPlatformSettingValue(\n            REQUEST_LOAN_TERMS_RATE_LIMIT_SETTING\n        );\n        require(\n            borrowerToLastLoanTermRequest[request.borrower].add(\n                requestLoanTermsRateLimit\n            ) <= now,\n            \"REQS_LOAN_TERMS_LMT_EXCEEDS_MAX\"\n        );\n    }\n}\n",
  "sourcePath": "/Users/guillesalazar/Repos/ZeroCollateral/smart-contracts-v1/contracts/base/LoanTermsConsensus.sol",
  "compiler": {
    "name": "solc",
    "version": "0.5.17+commit.d19bba13.Emscripten.clang"
  },
  "schemaVersion": "3.2.0",
  "updatedAt": "2020-08-15T22:31:55.095Z",
  "devdoc": {
    "author": "develop@teller.finance",
    "methods": {
      "addSigner(address)": {
        "details": "The sender must be the owner.It throws a require error if the sender is not the owner.",
        "params": {
          "account": "address to add."
        }
      },
      "initialize(address)": {
        "details": "Initializes the contract setting the deployer as the initial owner."
      },
      "initialize(address,address,address)": {
        "params": {
          "aCallerAddress": "the contract that will call it.",
          "aMarketsAddress": "the markets state address.",
          "aSettingAddress": "the settings contract address."
        }
      },
      "initialized()": {
        "return": "true if contract is initialized. Otherwise it returns false."
      },
      "isOwner()": {
        "details": "Returns true if the caller is the current owner."
      },
      "isSigner(address)": {
        "params": {
          "account": "address to test."
        },
        "return": "true if account is a signer. Otherwise it returns false."
      },
      "owner()": {
        "details": "Returns the address of the current owner."
      },
      "processRequest((address,address,address,uint256,uint256,uint256,uint256),(address,address,uint256,uint256,uint256,uint256,(uint256,uint8,bytes32,bytes32))[])": {
        "params": {
          "request": "Struct of the protocol loan request",
          "responses": "List of structs of the protocol loan responses"
        },
        "return": "uint256 Interest rateuint256 Collateral ratiouint256 Maximum loan amount"
      },
      "removeSigner(address)": {
        "details": "The sender must be the owner.It throws a require error if the sender is not the owner.",
        "params": {
          "account": "address to remove."
        }
      },
      "renounceOwnership()": {
        "details": "Leaves the contract without owner. It will not be possible to call `onlyOwner` functions anymore. Can only be called by the current owner.     * > Note: Renouncing ownership will leave the contract without an owner, thereby removing any functionality that is only available to the owner."
      },
      "transferOwnership(address)": {
        "details": "Transfers ownership of the contract to a new account (`newOwner`). Can only be called by the current owner."
      }
    }
  },
  "userdoc": {
    "methods": {
      "addSigner(address)": {
        "notice": "It adds a new account as a signer."
      },
      "initialize(address,address,address)": {
        "notice": "It initializes this contract setting the parameters."
      },
      "initialized()": {
        "notice": "Gets if the contract is initialized."
      },
      "isSigner(address)": {
        "notice": "Gets whether an account address is a signer or not."
      },
      "processRequest((address,address,address,uint256,uint256,uint256,uint256),(address,address,uint256,uint256,uint256,uint256,(uint256,uint8,bytes32,bytes32))[])": {
        "notice": "Processes the loan request"
      },
      "removeSigner(address)": {
        "notice": "It removes an account as signer."
      }
    },
    "notice": "This contract is used to process the loan requests through the Teller protocol"
  }
}