{
  "contractName": "Settings",
  "abi": [
    {
      "anonymous": false,
      "inputs": [
        {
          "indexed": true,
          "internalType": "bytes32",
          "name": "assetSettingName",
          "type": "bytes32"
        },
        {
          "indexed": true,
          "internalType": "address",
          "name": "sender",
          "type": "address"
        },
        {
          "indexed": true,
          "internalType": "address",
          "name": "assetAddress",
          "type": "address"
        },
        {
          "indexed": false,
          "internalType": "address",
          "name": "oldValue",
          "type": "address"
        },
        {
          "indexed": false,
          "internalType": "address",
          "name": "newValue",
          "type": "address"
        }
      ],
      "name": "AssetSettingsAddressUpdated",
      "type": "event"
    },
    {
      "anonymous": false,
      "inputs": [
        {
          "indexed": true,
          "internalType": "address",
          "name": "sender",
          "type": "address"
        },
        {
          "indexed": true,
          "internalType": "address",
          "name": "assetAddress",
          "type": "address"
        },
        {
          "indexed": false,
          "internalType": "address",
          "name": "cTokenAddress",
          "type": "address"
        },
        {
          "indexed": false,
          "internalType": "uint256",
          "name": "maxLoanAmount",
          "type": "uint256"
        }
      ],
      "name": "AssetSettingsCreated",
      "type": "event"
    },
    {
      "anonymous": false,
      "inputs": [
        {
          "indexed": true,
          "internalType": "address",
          "name": "sender",
          "type": "address"
        },
        {
          "indexed": true,
          "internalType": "address",
          "name": "assetAddress",
          "type": "address"
        }
      ],
      "name": "AssetSettingsRemoved",
      "type": "event"
    },
    {
      "anonymous": false,
      "inputs": [
        {
          "indexed": true,
          "internalType": "bytes32",
          "name": "assetSettingName",
          "type": "bytes32"
        },
        {
          "indexed": true,
          "internalType": "address",
          "name": "sender",
          "type": "address"
        },
        {
          "indexed": true,
          "internalType": "address",
          "name": "assetAddress",
          "type": "address"
        },
        {
          "indexed": false,
          "internalType": "uint256",
          "name": "oldValue",
          "type": "uint256"
        },
        {
          "indexed": false,
          "internalType": "uint256",
          "name": "newValue",
          "type": "uint256"
        }
      ],
      "name": "AssetSettingsUintUpdated",
      "type": "event"
    },
    {
      "anonymous": false,
      "inputs": [
        {
          "indexed": true,
          "internalType": "address",
          "name": "account",
          "type": "address"
        },
        {
          "indexed": true,
          "internalType": "address",
          "name": "lendingPoolAddress",
          "type": "address"
        }
      ],
      "name": "LendingPoolPaused",
      "type": "event"
    },
    {
      "anonymous": false,
      "inputs": [
        {
          "indexed": true,
          "internalType": "address",
          "name": "account",
          "type": "address"
        },
        {
          "indexed": true,
          "internalType": "address",
          "name": "lendingPoolAddress",
          "type": "address"
        }
      ],
      "name": "LendingPoolUnpaused",
      "type": "event"
    },
    {
      "anonymous": false,
      "inputs": [
        {
          "indexed": false,
          "internalType": "address",
          "name": "account",
          "type": "address"
        }
      ],
      "name": "Paused",
      "type": "event"
    },
    {
      "anonymous": false,
      "inputs": [
        {
          "indexed": true,
          "internalType": "address",
          "name": "account",
          "type": "address"
        }
      ],
      "name": "PauserAdded",
      "type": "event"
    },
    {
      "anonymous": false,
      "inputs": [
        {
          "indexed": true,
          "internalType": "address",
          "name": "account",
          "type": "address"
        }
      ],
      "name": "PauserRemoved",
      "type": "event"
    },
    {
      "anonymous": false,
      "inputs": [
        {
          "indexed": true,
          "internalType": "bytes32",
          "name": "settingName",
          "type": "bytes32"
        },
        {
          "indexed": true,
          "internalType": "address",
          "name": "sender",
          "type": "address"
        },
        {
          "indexed": false,
          "internalType": "uint256",
          "name": "value",
          "type": "uint256"
        },
        {
          "indexed": false,
          "internalType": "uint256",
          "name": "minValue",
          "type": "uint256"
        },
        {
          "indexed": false,
          "internalType": "uint256",
          "name": "maxValue",
          "type": "uint256"
        }
      ],
      "name": "PlatformSettingCreated",
      "type": "event"
    },
    {
      "anonymous": false,
      "inputs": [
        {
          "indexed": true,
          "internalType": "bytes32",
          "name": "settingName",
          "type": "bytes32"
        },
        {
          "indexed": false,
          "internalType": "uint256",
          "name": "lastValue",
          "type": "uint256"
        },
        {
          "indexed": true,
          "internalType": "address",
          "name": "sender",
          "type": "address"
        }
      ],
      "name": "PlatformSettingRemoved",
      "type": "event"
    },
    {
      "anonymous": false,
      "inputs": [
        {
          "indexed": true,
          "internalType": "bytes32",
          "name": "settingName",
          "type": "bytes32"
        },
        {
          "indexed": true,
          "internalType": "address",
          "name": "sender",
          "type": "address"
        },
        {
          "indexed": false,
          "internalType": "uint256",
          "name": "oldValue",
          "type": "uint256"
        },
        {
          "indexed": false,
          "internalType": "uint256",
          "name": "newValue",
          "type": "uint256"
        }
      ],
      "name": "PlatformSettingUpdated",
      "type": "event"
    },
    {
      "anonymous": false,
      "inputs": [
        {
          "indexed": false,
          "internalType": "address",
          "name": "account",
          "type": "address"
        }
      ],
      "name": "Unpaused",
      "type": "event"
    },
    {
      "constant": true,
      "inputs": [],
      "name": "CTOKEN_ADDRESS_ASSET_SETTING",
      "outputs": [
        {
          "internalType": "bytes32",
          "name": "",
          "type": "bytes32"
        }
      ],
      "payable": false,
      "stateMutability": "view",
      "type": "function"
    },
    {
      "constant": true,
      "inputs": [],
      "name": "ETH_ADDRESS",
      "outputs": [
        {
          "internalType": "address",
          "name": "",
          "type": "address"
        }
      ],
      "payable": false,
      "stateMutability": "view",
      "type": "function"
    },
    {
      "constant": true,
      "inputs": [],
      "name": "MAX_LOAN_AMOUNT_ASSET_SETTING",
      "outputs": [
        {
          "internalType": "bytes32",
          "name": "",
          "type": "bytes32"
        }
      ],
      "payable": false,
      "stateMutability": "view",
      "type": "function"
    },
    {
      "constant": false,
      "inputs": [
        {
          "internalType": "address",
          "name": "account",
          "type": "address"
        }
      ],
      "name": "addPauser",
      "outputs": [],
      "payable": false,
      "stateMutability": "nonpayable",
      "type": "function"
    },
    {
      "constant": true,
      "inputs": [
        {
          "internalType": "address",
          "name": "",
          "type": "address"
        }
      ],
      "name": "assetSettings",
      "outputs": [
        {
          "internalType": "address",
          "name": "cTokenAddress",
          "type": "address"
        },
        {
          "internalType": "uint256",
          "name": "maxLoanAmount",
          "type": "uint256"
        }
      ],
      "payable": false,
      "stateMutability": "view",
      "type": "function"
    },
    {
      "constant": true,
      "inputs": [
        {
          "internalType": "uint256",
          "name": "",
          "type": "uint256"
        }
      ],
      "name": "assets",
      "outputs": [
        {
          "internalType": "address",
          "name": "",
          "type": "address"
        }
      ],
      "payable": false,
      "stateMutability": "view",
      "type": "function"
    },
    {
      "constant": true,
      "inputs": [],
      "name": "atmSettings",
      "outputs": [
        {
          "internalType": "contract IATMSettings",
          "name": "",
          "type": "address"
        }
      ],
      "payable": false,
      "stateMutability": "view",
      "type": "function"
    },
    {
      "constant": true,
      "inputs": [],
      "name": "escrowFactory",
      "outputs": [
        {
          "internalType": "contract EscrowFactoryInterface",
          "name": "",
          "type": "address"
        }
      ],
      "payable": false,
      "stateMutability": "view",
      "type": "function"
    },
    {
      "constant": true,
      "inputs": [],
      "name": "initialized",
      "outputs": [
        {
          "internalType": "bool",
          "name": "value",
          "type": "bool"
        }
      ],
      "payable": false,
      "stateMutability": "view",
      "type": "function"
    },
    {
      "constant": true,
      "inputs": [],
      "name": "interestValidator",
      "outputs": [
        {
          "internalType": "contract InterestValidatorInterface",
          "name": "",
          "type": "address"
        }
      ],
      "payable": false,
      "stateMutability": "view",
      "type": "function"
    },
    {
      "constant": true,
      "inputs": [
        {
          "internalType": "address",
          "name": "account",
          "type": "address"
        }
      ],
      "name": "isPauser",
      "outputs": [
        {
          "internalType": "bool",
          "name": "",
          "type": "bool"
        }
      ],
      "payable": false,
      "stateMutability": "view",
      "type": "function"
    },
    {
      "constant": true,
      "inputs": [
        {
          "internalType": "address",
          "name": "",
          "type": "address"
        }
      ],
      "name": "lendingPoolPaused",
      "outputs": [
        {
          "internalType": "bool",
          "name": "",
          "type": "bool"
        }
      ],
      "payable": false,
      "stateMutability": "view",
      "type": "function"
    },
    {
      "constant": true,
      "inputs": [],
      "name": "marketsState",
      "outputs": [
        {
          "internalType": "contract MarketsStateInterface",
          "name": "",
          "type": "address"
        }
      ],
      "payable": false,
      "stateMutability": "view",
      "type": "function"
    },
    {
      "constant": true,
      "inputs": [],
      "name": "pairAggregatorRegistry",
      "outputs": [
        {
          "internalType": "contract IChainlinkPairAggregatorRegistry",
          "name": "",
          "type": "address"
        }
      ],
      "payable": false,
      "stateMutability": "view",
      "type": "function"
    },
    {
      "constant": false,
      "inputs": [],
      "name": "pause",
      "outputs": [],
      "payable": false,
      "stateMutability": "nonpayable",
      "type": "function"
    },
    {
      "constant": true,
      "inputs": [],
      "name": "paused",
      "outputs": [
        {
          "internalType": "bool",
          "name": "",
          "type": "bool"
        }
      ],
      "payable": false,
      "stateMutability": "view",
      "type": "function"
    },
    {
      "constant": true,
      "inputs": [
        {
          "internalType": "bytes32",
          "name": "",
          "type": "bytes32"
        }
      ],
      "name": "platformSettings",
      "outputs": [
        {
          "internalType": "uint256",
          "name": "value",
          "type": "uint256"
        },
        {
          "internalType": "uint256",
          "name": "min",
          "type": "uint256"
        },
        {
          "internalType": "uint256",
          "name": "max",
          "type": "uint256"
        },
        {
          "internalType": "bool",
          "name": "exists",
          "type": "bool"
        }
      ],
      "payable": false,
      "stateMutability": "view",
      "type": "function"
    },
    {
      "constant": false,
      "inputs": [],
      "name": "renouncePauser",
      "outputs": [],
      "payable": false,
      "stateMutability": "nonpayable",
      "type": "function"
    },
    {
      "constant": true,
      "inputs": [],
      "name": "settings",
      "outputs": [
        {
          "internalType": "contract SettingsInterface",
          "name": "",
          "type": "address"
        }
      ],
      "payable": false,
      "stateMutability": "view",
      "type": "function"
    },
    {
      "constant": false,
      "inputs": [],
      "name": "unpause",
      "outputs": [],
      "payable": false,
      "stateMutability": "nonpayable",
      "type": "function"
    },
    {
      "constant": true,
      "inputs": [],
      "name": "versionsRegistry",
      "outputs": [
        {
          "internalType": "contract LogicVersionsRegistryInterface",
          "name": "",
          "type": "address"
        }
      ],
      "payable": false,
      "stateMutability": "view",
      "type": "function"
    },
    {
      "constant": false,
      "inputs": [
        {
          "internalType": "bytes32",
          "name": "settingName",
          "type": "bytes32"
        },
        {
          "internalType": "uint256",
          "name": "value",
          "type": "uint256"
        },
        {
          "internalType": "uint256",
          "name": "minValue",
          "type": "uint256"
        },
        {
          "internalType": "uint256",
          "name": "maxValue",
          "type": "uint256"
        }
      ],
      "name": "createPlatformSetting",
      "outputs": [],
      "payable": false,
      "stateMutability": "nonpayable",
      "type": "function"
    },
    {
      "constant": false,
      "inputs": [
        {
          "internalType": "bytes32",
          "name": "settingName",
          "type": "bytes32"
        },
        {
          "internalType": "uint256",
          "name": "newValue",
          "type": "uint256"
        }
      ],
      "name": "updatePlatformSetting",
      "outputs": [],
      "payable": false,
      "stateMutability": "nonpayable",
      "type": "function"
    },
    {
      "constant": false,
      "inputs": [
        {
          "internalType": "bytes32",
          "name": "settingName",
          "type": "bytes32"
        }
      ],
      "name": "removePlatformSetting",
      "outputs": [],
      "payable": false,
      "stateMutability": "nonpayable",
      "type": "function"
    },
    {
      "constant": true,
      "inputs": [
        {
          "internalType": "bytes32",
          "name": "settingName",
          "type": "bytes32"
        }
      ],
      "name": "getPlatformSetting",
      "outputs": [
        {
          "components": [
            {
              "internalType": "uint256",
              "name": "value",
              "type": "uint256"
            },
            {
              "internalType": "uint256",
              "name": "min",
              "type": "uint256"
            },
            {
              "internalType": "uint256",
              "name": "max",
              "type": "uint256"
            },
            {
              "internalType": "bool",
              "name": "exists",
              "type": "bool"
            }
          ],
          "internalType": "struct PlatformSettingsLib.PlatformSetting",
          "name": "",
          "type": "tuple"
        }
      ],
      "payable": false,
      "stateMutability": "view",
      "type": "function"
    },
    {
      "constant": true,
      "inputs": [
        {
          "internalType": "bytes32",
          "name": "settingName",
          "type": "bytes32"
        }
      ],
      "name": "getPlatformSettingValue",
      "outputs": [
        {
          "internalType": "uint256",
          "name": "",
          "type": "uint256"
        }
      ],
      "payable": false,
      "stateMutability": "view",
      "type": "function"
    },
    {
      "constant": true,
      "inputs": [
        {
          "internalType": "bytes32",
          "name": "settingName",
          "type": "bytes32"
        }
      ],
      "name": "hasPlatformSetting",
      "outputs": [
        {
          "internalType": "bool",
          "name": "",
          "type": "bool"
        }
      ],
      "payable": false,
      "stateMutability": "view",
      "type": "function"
    },
    {
      "constant": false,
      "inputs": [
        {
          "internalType": "address",
          "name": "lendingPoolAddress",
          "type": "address"
        }
      ],
      "name": "pauseLendingPool",
      "outputs": [],
      "payable": false,
      "stateMutability": "nonpayable",
      "type": "function"
    },
    {
      "constant": false,
      "inputs": [
        {
          "internalType": "address",
          "name": "lendingPoolAddress",
          "type": "address"
        }
      ],
      "name": "unpauseLendingPool",
      "outputs": [],
      "payable": false,
      "stateMutability": "nonpayable",
      "type": "function"
    },
    {
      "constant": true,
      "inputs": [],
      "name": "isPaused",
      "outputs": [
        {
          "internalType": "bool",
          "name": "",
          "type": "bool"
        }
      ],
      "payable": false,
      "stateMutability": "view",
      "type": "function"
    },
    {
      "constant": false,
      "inputs": [
        {
          "internalType": "address",
          "name": "assetAddress",
          "type": "address"
        },
        {
          "internalType": "address",
          "name": "cTokenAddress",
          "type": "address"
        },
        {
          "internalType": "uint256",
          "name": "maxLoanAmount",
          "type": "uint256"
        }
      ],
      "name": "createAssetSettings",
      "outputs": [],
      "payable": false,
      "stateMutability": "nonpayable",
      "type": "function"
    },
    {
      "constant": false,
      "inputs": [
        {
          "internalType": "address",
          "name": "assetAddress",
          "type": "address"
        }
      ],
      "name": "removeAssetSettings",
      "outputs": [],
      "payable": false,
      "stateMutability": "nonpayable",
      "type": "function"
    },
    {
      "constant": false,
      "inputs": [
        {
          "internalType": "address",
          "name": "assetAddress",
          "type": "address"
        },
        {
          "internalType": "uint256",
          "name": "newMaxLoanAmount",
          "type": "uint256"
        }
      ],
      "name": "updateMaxLoanAmount",
      "outputs": [],
      "payable": false,
      "stateMutability": "nonpayable",
      "type": "function"
    },
    {
      "constant": false,
      "inputs": [
        {
          "internalType": "address",
          "name": "assetAddress",
          "type": "address"
        },
        {
          "internalType": "address",
          "name": "newCTokenAddress",
          "type": "address"
        }
      ],
      "name": "updateCTokenAddress",
      "outputs": [],
      "payable": false,
      "stateMutability": "nonpayable",
      "type": "function"
    },
    {
      "constant": true,
      "inputs": [
        {
          "internalType": "address",
          "name": "assetAddress",
          "type": "address"
        },
        {
          "internalType": "uint256",
          "name": "amount",
          "type": "uint256"
        }
      ],
      "name": "exceedsMaxLoanAmount",
      "outputs": [
        {
          "internalType": "bool",
          "name": "",
          "type": "bool"
        }
      ],
      "payable": false,
      "stateMutability": "view",
      "type": "function"
    },
    {
      "constant": true,
      "inputs": [],
      "name": "getAssets",
      "outputs": [
        {
          "internalType": "address[]",
          "name": "",
          "type": "address[]"
        }
      ],
      "payable": false,
      "stateMutability": "view",
      "type": "function"
    },
    {
      "constant": true,
      "inputs": [
        {
          "internalType": "address",
          "name": "assetAddress",
          "type": "address"
        }
      ],
      "name": "getAssetSettings",
      "outputs": [
        {
          "components": [
            {
              "internalType": "address",
              "name": "cTokenAddress",
              "type": "address"
            },
            {
              "internalType": "uint256",
              "name": "maxLoanAmount",
              "type": "uint256"
            }
          ],
          "internalType": "struct AssetSettingsLib.AssetSettings",
          "name": "",
          "type": "tuple"
        }
      ],
      "payable": false,
      "stateMutability": "view",
      "type": "function"
    },
    {
      "constant": true,
      "inputs": [
        {
          "internalType": "address",
          "name": "account",
          "type": "address"
        }
      ],
      "name": "hasPauserRole",
      "outputs": [
        {
          "internalType": "bool",
          "name": "",
          "type": "bool"
        }
      ],
      "payable": false,
      "stateMutability": "view",
      "type": "function"
    },
    {
      "constant": true,
      "inputs": [
        {
          "internalType": "address",
          "name": "account",
          "type": "address"
        }
      ],
      "name": "requirePauserRole",
      "outputs": [],
      "payable": false,
      "stateMutability": "view",
      "type": "function"
    },
    {
      "constant": false,
      "inputs": [
        {
          "internalType": "address",
          "name": "sender",
          "type": "address"
        }
      ],
      "name": "initialize",
      "outputs": [],
      "payable": false,
      "stateMutability": "nonpayable",
      "type": "function"
    },
    {
      "constant": false,
      "inputs": [
        {
          "internalType": "address",
          "name": "escrowFactoryAddress",
          "type": "address"
        },
        {
          "internalType": "address",
          "name": "versionsRegistryAddress",
          "type": "address"
        },
        {
          "internalType": "address",
          "name": "pairAggregatorRegistryAddress",
          "type": "address"
        },
        {
          "internalType": "address",
          "name": "marketsStateAddress",
          "type": "address"
        },
        {
          "internalType": "address",
          "name": "interestValidatorAddress",
          "type": "address"
        },
        {
          "internalType": "address",
          "name": "atmSettingsAddress",
          "type": "address"
        }
      ],
      "name": "initialize",
      "outputs": [],
      "payable": false,
      "stateMutability": "nonpayable",
      "type": "function"
    }
  ],
  "bytecode": "0x6080604052613203806100136000396000f3fe608060405234801561001057600080fd5b50600436106102535760003560e01c806374b7b6a611610146578063c4d66de8116100c3578063dc21a6a011610087578063dc21a6a0146104e6578063e06174e4146104ee578063ea23cb7c146104f6578063ee2e0fdc146104fe578063fa4c4c0314610511578063fbedbe5c1461051957610253565b8063c4d66de81461047a578063cc2a9a5b1461048d578063ce199129146104a0578063cf35bdd0146104c0578063d10a0aec146104d357610253565b8063a734f06e1161010a578063a734f06e1461043a578063b187bd261461044f578063b8aa619414610457578063bdd1daaa1461045f578063c095ea271461046757610253565b806374b7b6a6146103e657806382dc1ec4146103f95780638456cb591461040c5780639dec88b914610414578063a239c58b1461042757610253565b80633f4ba83a116101d457806362f9ed771161019857806362f9ed771461038257806367e4ac2c1461039557806369ff7744146103aa5780636b3b8ec1146103bd5780636ef8d66d146103de57610253565b80633f4ba83a1461032c57806346fbf68e146103345780634c7b0972146103475780635c975abb146103675780635f72868f1461036f57610253565b80631f338eb51161021b5780631f338eb5146102cb578063269012a0146102de5780632fa8a7ee146102fe57806332c1ff91146103065780633b6683211461031957610253565b806302d58da7146102585780631362fee7146102765780631390f8d714610299578063158ef93e146102a15780631be0ed37146102b6575b600080fd5b61026061052c565b60405161026d9190612e51565b60405180910390f35b61028961028436600461239d565b61053b565b60405161026d94939291906130f2565b610260610565565b6102a9610574565b60405161026d9190612e35565b6102c96102c4366004612241565b610593565b005b6102c96102d936600461236d565b610717565b6102f16102ec36600461239d565b61082f565b60405161026d9190612e43565b610260610841565b6102c961031436600461225f565b610850565b6102a9610327366004612241565b61095c565b6102c9610971565b6102a9610342366004612241565b610a42565b61035a610355366004612241565b610a5b565b60405161026d91906130a0565b6102a9610aa0565b6102c961037d366004612320565b610aaa565b6102c961039036600461239d565b610c0d565b61039d610cf4565b60405161026d9190612e24565b6102a96103b836600461236d565b610d56565b6103d06103cb366004612241565b610d85565b60405161026d929190612e09565b6102c9610daa565b6102a96103f436600461239d565b610dbc565b6102c9610407366004612241565b610dd1565b6102c9610e40565b6102c96104223660046123da565b610efe565b6102c9610435366004612241565b61100e565b610442611179565b60405161026d9190612dd2565b6102a9611191565b6102f16111a0565b6102606111b4565b6102c9610475366004612241565b6111c3565b6102c9610488366004612241565b6111e8565b6102c961049b366004612299565b61127f565b6104b36104ae36600461239d565b611454565b60405161026d91906130ae565b6104426104ce36600461239d565b611465565b6102c96104e13660046123bb565b61148c565b61026061156f565b61026061157e565b6102606115a0565b6102a961050c366004612241565b6115af565b6102f16115ba565b6102c9610527366004612241565b6115ce565b609f546001600160a01b031681565b609c6020526000908152604090208054600182015460028301546003909301549192909160ff1684565b60a0546001600160a01b031681565b60008060405161058390612dbc565b6040519081900390205492915050565b61059b61157e565b6001600160a01b031663c095ea27336040518263ffffffff1660e01b81526004016105c69190612de0565b60006040518083038186803b1580156105de57600080fd5b505afa1580156105f2573d6000803e3d6000fd5b505060665460ff1615915061062490505760405162461bcd60e51b815260040161061b90612f30565b60405180910390fd5b61062c610574565b6106485760405162461bcd60e51b815260040161061b90613060565b60408051808201909152601881527713115391125391d7d413d3d317d254d7d49154555254915160421b6020820152610691906001600160a01b0383169063ffffffff61174516565b6001600160a01b03811660009081526099602052604090205460ff16156106ca5760405162461bcd60e51b815260040161061b90612e70565b6001600160a01b038116600081815260996020526040808220805460ff191660011790555133917fff7b62e2b5984471f0fb76a23e84a0d6f2e5c3e8818a929948190ce967a2fc2e91a350565b61071f61157e565b6001600160a01b031663c095ea27336040518263ffffffff1660e01b815260040161074a9190612de0565b60006040518083038186803b15801561076257600080fd5b505afa158015610776573d6000803e3d6000fd5b50505050610782610574565b61079e5760405162461bcd60e51b815260040161061b90613060565b6001600160a01b0382166000908152609a602052604090206001810154906107cc908363ffffffff61177216565b826001600160a01b0316336001600160a01b03166c13585e131bd85b905b5bdd5b9d609a1b7fc34434be61dd5409142baf6b4b56c888a407184091916f210f1229981176729e84866040516108229291906130bc565b60405180910390a4505050565b600061083a826117c7565b5192915050565b60a1546001600160a01b031681565b61085861157e565b6001600160a01b031663c095ea27336040518263ffffffff1660e01b81526004016108839190612de0565b60006040518083038186803b15801561089b57600080fd5b505afa1580156108af573d6000803e3d6000fd5b505050506108bb610574565b6108d75760405162461bcd60e51b815260040161061b90613060565b6001600160a01b038083166000908152609a60205260409020805490911690610906908363ffffffff61181916565b826001600160a01b0316336001600160a01b03166c43546f6b656e4164647265737360981b7f929f6b235ccfb7d9550dd06e5cde398e177120a98377d5f152b6c76e030f45fa8486604051610822929190612dee565b60996020526000908152604090205460ff1681565b61097961157e565b6001600160a01b031663c095ea27336040518263ffffffff1660e01b81526004016109a49190612de0565b60006040518083038186803b1580156109bc57600080fd5b505afa1580156109d0573d6000803e3d6000fd5b505060665460ff1691506109f890505760405162461bcd60e51b815260040161061b90612e80565b6066805460ff191690557f5db9ee0a495bf2e6ff9c91a7834c1ba4fdd244a5e8aa4e537bd38aeae4b073aa610a2b61186c565b604051610a389190612de0565b60405180910390a1565b6000610a5560338363ffffffff61187016565b92915050565b610a636121ad565b506001600160a01b039081166000908152609a60209081526040918290208251808401909352805490931682526001909201549181019190915290565b60665460ff165b90565b610ab261157e565b6001600160a01b031663c095ea27336040518263ffffffff1660e01b8152600401610add9190612de0565b60006040518083038186803b158015610af557600080fd5b505afa158015610b09573d6000803e3d6000fd5b50505050610b15610574565b610b315760405162461bcd60e51b815260040161061b90613060565b610b43836001600160a01b03166118b8565b610b5f5760405162461bcd60e51b815260040161061b90612fe0565b6001600160a01b0383166000908152609a60205260409020610b80906118f4565b6001600160a01b0383166000908152609a60205260409020610ba990838363ffffffff61191a16565b610bba609b8463ffffffff6119a616565b50826001600160a01b0316336001600160a01b03167fe37faf4827cb3cd6cbaf895d9ca6b0f7ea5113da8a6ca24b281270c760f03bc08484604051610c00929190612e09565b60405180910390a3505050565b610c1561157e565b6001600160a01b031663c095ea27336040518263ffffffff1660e01b8152600401610c409190612de0565b60006040518083038186803b158015610c5857600080fd5b505afa158015610c6c573d6000803e3d6000fd5b50505050610c78610574565b610c945760405162461bcd60e51b815260040161061b90613060565b6000818152609c60205260409020805490610cae90611a5a565b336001600160a01b0316827f441e6d4e0fa187867205bff50ab3fdf95c4612c241878b3f50d93a1256669dc983604051610ce89190612e43565b60405180910390a35050565b6060609b805480602002602001604051908101604052809291908181526020018280548015610d4c57602002820191906000526020600020905b81546001600160a01b03168152600190910190602001808311610d2e575b5050505050905090565b6001600160a01b0382166000908152609a60205260408120610d7e908363ffffffff611a8116565b9392505050565b609a60205260009081526040902080546001909101546001600160a01b039091169082565b610dba610db561186c565b611a8c565b565b6000610dc7826117c7565b6060015192915050565b610dd961157e565b6001600160a01b031663c095ea27336040518263ffffffff1660e01b8152600401610e049190612de0565b60006040518083038186803b158015610e1c57600080fd5b505afa158015610e30573d6000803e3d6000fd5b50505050610e3d81611ad4565b50565b610e4861157e565b6001600160a01b031663c095ea27336040518263ffffffff1660e01b8152600401610e739190612de0565b60006040518083038186803b158015610e8b57600080fd5b505afa158015610e9f573d6000803e3d6000fd5b505060665460ff16159150610ec890505760405162461bcd60e51b815260040161061b90612f30565b6066805460ff191660011790557f62e78cea01bee320cd4e420270b5ea74000d11b0c9f74754ebdbfc544b05a258610a2b61186c565b610f0661157e565b6001600160a01b031663c095ea27336040518263ffffffff1660e01b8152600401610f319190612de0565b60006040518083038186803b158015610f4957600080fd5b505afa158015610f5d573d6000803e3d6000fd5b50505050610f69610574565b610f855760405162461bcd60e51b815260040161061b90613060565b83610fa25760405162461bcd60e51b815260040161061b90613090565b6000848152609c60205260409020610fc29084848463ffffffff611b1c16565b336001600160a01b0316847f88608f5277d08a47d0b5c4911811b474510dfcb1e303b13120b4fdd013ee4feb858585604051611000939291906130ca565b60405180910390a350505050565b61101661157e565b6001600160a01b031663c095ea27336040518263ffffffff1660e01b81526004016110419190612de0565b60006040518083038186803b15801561105957600080fd5b505afa15801561106d573d6000803e3d6000fd5b50505050611079610574565b6110955760405162461bcd60e51b815260040161061b90613060565b60408051808201909152601981527f41535345545f414444524553535f49535f52455155495245440000000000000060208201526110e3906001600160a01b0383169063ffffffff61174516565b6001600160a01b0381166000908152609a6020526040902061110490611b8b565b6001600160a01b0381166000908152609a6020526040812080546001600160a01b03191681556001015561113f609b8263ffffffff611bb516565b506040516001600160a01b0382169033907fff739057fdc41db152d18e4a53b9ed8db9afe0b5b7bc4c9e7e60168cb6a0d7e790600090a350565b73eeeeeeeeeeeeeeeeeeeeeeeeeeeeeeeeeeeeeeee81565b600061119b610aa0565b905090565b6c13585e131bd85b905b5bdd5b9d609a1b81565b609d546001600160a01b031681565b6111cc816115af565b610e3d5760405162461bcd60e51b815260040161061b90612ef0565b600054610100900460ff16806112015750611201611c3f565b8061120f575060005460ff16155b61122b5760405162461bcd60e51b815260040161061b90612ff0565b600054610100900460ff16158015611256576000805460ff1961ff0019909116610100171660011790555b61125f82611c45565b6066805460ff19169055801561127b576000805461ff00191690555b5050565b611287610574565b156112a45760405162461bcd60e51b815260040161061b90613070565b6112b6866001600160a01b03166118b8565b6112d25760405162461bcd60e51b815260040161061b90612fb0565b6112e4856001600160a01b03166118b8565b6113005760405162461bcd60e51b815260040161061b90612fa0565b611312846001600160a01b03166118b8565b61132e5760405162461bcd60e51b815260040161061b90612f80565b611340836001600160a01b03166118b8565b61135c5760405162461bcd60e51b815260040161061b90613000565b61136e826001600160a01b0316611cde565b806113865750611386826001600160a01b03166118b8565b6113a25760405162461bcd60e51b815260040161061b90612f10565b6113b4816001600160a01b03166118b8565b6113d05760405162461bcd60e51b815260040161061b90612ed0565b6113d9336111e8565b6113e1611ceb565b609d80546001600160a01b03199081166001600160a01b0389811691909117909255609e80548216888416179055609f8054821687841617905560a08054821686841617905560a18054821685841617905560a2805490911691831691909117905561144c30611d09565b505050505050565b61145c6121c4565b610a55826117c7565b609b818154811061147257fe5b6000918252602090912001546001600160a01b0316905081565b61149461157e565b6001600160a01b031663c095ea27336040518263ffffffff1660e01b81526004016114bf9190612de0565b60006040518083038186803b1580156114d757600080fd5b505afa1580156114eb573d6000803e3d6000fd5b505050506114f7610574565b6115135760405162461bcd60e51b815260040161061b90613060565b6000828152609c60205260408120611531908363ffffffff611d7216565b9050336001600160a01b0316837ff5d6988acb4a237a95feb459c3b5d7f95ad15acfe26d31cd4bf88b8b1ec792de8385604051610c009291906130bc565b60a2546001600160a01b031681565b600080600060405161158f90612dc7565b604051908190039020549250505090565b609e546001600160a01b031681565b6000610a5582610a42565b6c43546f6b656e4164647265737360981b81565b6115d661157e565b6001600160a01b031663c095ea27336040518263ffffffff1660e01b81526004016116019190612de0565b60006040518083038186803b15801561161957600080fd5b505afa15801561162d573d6000803e3d6000fd5b505060665460ff1615915061165690505760405162461bcd60e51b815260040161061b90612f30565b61165e610574565b61167a5760405162461bcd60e51b815260040161061b90613060565b60408051808201909152601881527713115391125391d7d413d3d317d254d7d49154555254915160421b60208201526116c3906001600160a01b0383169063ffffffff61174516565b6001600160a01b03811660009081526099602052604090205460ff166116fb5760405162461bcd60e51b815260040161061b90613030565b6001600160a01b038116600081815260996020526040808220805460ff191690555133917fc55a972437581d7d7bfd8729cdde06ee7e788e1a407b4cfdc6a0330d04b391f191a350565b61174e82611dee565b819061176d5760405162461bcd60e51b815260040161061b9190612e5f565b505050565b61177b82611b8b565b808260010154141561179f5760405162461bcd60e51b815260040161061b90612f70565b600081116117bf5760405162461bcd60e51b815260040161061b90613010565b600190910155565b6117cf6121c4565b506000908152609c602090815260409182902082516080810184528154815260018201549281019290925260028101549282019290925260039091015460ff161515606082015290565b61182282611b8b565b81546001600160a01b038281169116141561184f5760405162461bcd60e51b815260040161061b90612f50565b81546001600160a01b0319166001600160a01b0391909116179055565b3390565b60006001600160a01b0382166118985760405162461bcd60e51b815260040161061b90612fd0565b506001600160a01b03166000908152602091909152604090205460ff1690565b6000813f7fc5d2460186f7233c927e7db2dcc703c0e500b653ca82273b7bfad8045d85a4708181148015906118ec57508115155b949350505050565b6118fd81611dfc565b15610e3d5760405162461bcd60e51b815260040161061b90613080565b6000811161193a5760405162461bcd60e51b815260040161061b90612f40565b61194c826001600160a01b0316611cde565b806119645750611964826001600160a01b03166118b8565b6119805760405162461bcd60e51b815260040161061b90612ec0565b82546001600160a01b0319166001600160a01b0392909216919091178255600190910155565b60606001600160a01b0382166119ce5760405162461bcd60e51b815260040161061b90612f20565b8254600181018455600084815260209081902090910180546001600160a01b0319166001600160a01b0385161790558354604080518284028101840190915281815291859190830182828015611a4d57602002820191906000526020600020905b81546001600160a01b03168152600190910190602001808311611a2f575b5050505050905092915050565b611a6381611e05565b6000808255600182018190556002820155600301805460ff19169055565b600191909101541090565b611a9d60338263ffffffff611e2e16565b6040516001600160a01b038216907fcd265ebaf09df2871cc7bd4133404a235ba12eff2041bb89d9c714a2621c7c7e90600090a250565b611ae560338263ffffffff611e7616565b6040516001600160a01b038216907f6719d08c1888103bea251a4ed56406bd0c3e69723c8a1686e017e7bbe159b6f890600090a250565b611b2584611ec2565b81831015611b455760405162461bcd60e51b815260040161061b90613020565b80831115611b655760405162461bcd60e51b815260040161061b90612fc0565b91835560018084019190915560028301919091556003909101805460ff19169091179055565b611b9481611dfc565b1515600114610e3d5760405162461bcd60e51b815260040161061b90612f90565b6060600080611bc48585611ee7565b9150915081611c2c57845460408051602080840282018101909252828152918791830182828015611c1e57602002820191906000526020600020905b81546001600160a01b03168152600190910190602001808311611c00575b505050505092505050610a55565b611c368582611f3c565b95945050505050565b303b1590565b600054610100900460ff1680611c5e5750611c5e611c3f565b80611c6c575060005460ff16155b611c885760405162461bcd60e51b815260040161061b90612ff0565b600054610100900460ff16158015611cb3576000805460ff1961ff0019909116610100171660011790555b611cbc82610a42565b611cc957611cc982611ad4565b801561127b576000805461ff00191690555050565b6001600160a01b03161590565b6000604051611cf990612dbc565b6040519081900390206001905550565b6000611d1361157e565b6001600160a01b031614611d5457611d33816001600160a01b03166118b8565b611d4f5760405162461bcd60e51b815260040161061b90612f00565b610e3d565b6000604051611d6290612dc7565b6040519081900390208290555050565b6000611d7d83611e05565b8254821415611d9e5760405162461bcd60e51b815260040161061b90612ee0565b8260010154821015611dc25760405162461bcd60e51b815260040161061b90612eb0565b8260020154821115611de65760405162461bcd60e51b815260040161061b90613050565b508154915590565b6001600160a01b0316151590565b60010154151590565b600381015460ff161515600114610e3d5760405162461bcd60e51b815260040161061b90613040565b611e388282611870565b611e545760405162461bcd60e51b815260040161061b90612f60565b6001600160a01b0316600090815260209190915260409020805460ff19169055565b611e808282611870565b15611e9d5760405162461bcd60e51b815260040161061b90612e90565b6001600160a01b0316600090815260209190915260409020805460ff19166001179055565b600381015460ff1615610e3d5760405162461bcd60e51b815260040161061b90612ea0565b6000805b8354811015611f3557826001600160a01b0316848281548110611f0a57fe5b6000918252602090912001546001600160a01b03161491508115611f2d57611f35565b600101611eeb565b9250929050565b81546060908210611fa457825460408051602080840282018101909252828152918591830182828015611f9857602002820191906000526020600020905b81546001600160a01b03168152600190910190602001808311611f7a575b50505050509050610a55565b82546000190182141561204857825483906000198101908110611fc357fe5b600091825260209091200180546001600160a01b03191690558254611fec8460001983016121ee565b50825460408051602080840282018101909252828152918591830182828015611f98576020028201919060005260206000209081546001600160a01b03168152600190910190602001808311611f7a5750505050509050610a55565b82546000908490600019810190811061205d57fe5b60009182526020909120015484546001600160a01b03909116915084908490811061208457fe5b60009182526020909120015484546001600160a01b0390911690859060001981019081106120ae57fe5b9060005260206000200160006101000a8154816001600160a01b0302191690836001600160a01b03160217905550808484815481106120e957fe5b600091825260209091200180546001600160a01b0319166001600160a01b039290921691909117905583548490600019810190811061212457fe5b600091825260209091200180546001600160a01b0319169055835461214d8560001983016121ee565b5083546040805160208084028201810190925282815291869183018282801561219f57602002820191906000526020600020905b81546001600160a01b03168152600190910190602001808311612181575b505050505091505092915050565b604080518082019091526000808252602082015290565b60405180608001604052806000815260200160008152602001600081526020016000151581525090565b81548183558181111561176d5760008381526020902061176d918101908301610aa791905b808211156122275760008155600101612213565b5090565b8035610a55816131a3565b8035610a55816131b7565b60006020828403121561225357600080fd5b60006118ec848461222b565b6000806040838503121561227257600080fd5b600061227e858561222b565b925050602061228f8582860161222b565b9150509250929050565b60008060008060008060c087890312156122b257600080fd5b60006122be898961222b565b96505060206122cf89828a0161222b565b95505060406122e089828a0161222b565b94505060606122f189828a0161222b565b935050608061230289828a0161222b565b92505060a061231389828a0161222b565b9150509295509295509295565b60008060006060848603121561233557600080fd5b6000612341868661222b565b93505060206123528682870161222b565b925050604061236386828701612236565b9150509250925092565b6000806040838503121561238057600080fd5b600061238c858561222b565b925050602061228f85828601612236565b6000602082840312156123af57600080fd5b60006118ec8484612236565b600080604083850312156123ce57600080fd5b600061238c8585612236565b600080600080608085870312156123f057600080fd5b60006123fc8787612236565b945050602061240d87828801612236565b935050604061241e87828801612236565b925050606061242f87828801612236565b91505092959194509250565b6000612447838361245e565b505060200190565b6124588161315b565b82525050565b6124588161313f565b60006124728261312d565b61247c8185613131565b935061248783613127565b8060005b838110156124b557815161249f888261243b565b97506124aa83613127565b92505060010161248b565b509495945050505050565b6124588161314a565b61245881610aa7565b61245881613162565b60006124e68261312d565b6124f08185613131565b935061250081856020860161316d565b61250981613199565b9093019392505050565b6000612520601c8361313a565b7f54496e697469616c697a61626c652e6973496e697469616c697a6564000000008152601c0192915050565b6000612559601b83613131565b7f4c454e44494e475f504f4f4c5f414c52454144595f5041555345440000000000815260200192915050565b6000612592601483613131565b7314185d5cd8589b194e881b9bdd081c185d5cd95960621b815260200192915050565b60006125c2601f83613131565b7f526f6c65733a206163636f756e7420616c72656164792068617320726f6c6500815260200192915050565b60006125fb601f83613131565b7f504c4154464f524d5f53455454494e475f414c52454144595f45584953545300815260200192915050565b6000612634601e83613131565b7f4e45575f56414c55455f4d5553545f42455f47545f4d494e5f56414c55450000815260200192915050565b600061266d602083613131565b7f43544f4b454e5f4d5553545f42455f434f4e54524143545f4f525f454d505459815260200192915050565b60006126a6601d83613131565b7f41544d5f53455454494e47535f4d5553545f42455f434f4e5452414354000000815260200192915050565b60006126df601283613131565b71139155d7d59053155157d49154555254915160721b815260200192915050565b600061270d600a83613131565b692727aa2fa820aaa9a2a960b11b815260200192915050565b6000612733601b83613131565b7f53455454494e47535f4d5553545f42455f415f434f4e54524143540000000000815260200192915050565b600061276c601d83613131565b7f494e5445524553545f56414c5f4d5553545f42455f434f4e5452414354000000815260200192915050565b60006127a5601983613131565b7f454d5054595f414444524553535f4e4f545f414c4c4f57454400000000000000815260200192915050565b60006127de601083613131565b6f14185d5cd8589b194e881c185d5cd95960821b815260200192915050565b600061280a601883613131565b7f494e49545f4d41585f414d4f554e545f52455155495245440000000000000000815260200192915050565b6000612843601b83613131565b7f4e45575f43544f4b454e5f414444524553535f52455155495245440000000000815260200192915050565b600061287c602183613131565b7f526f6c65733a206163636f756e7420646f6573206e6f74206861766520726f6c8152606560f81b602082015260400192915050565b60006128bf601c83613131565b7f4e45575f4d41585f4c4f414e5f414d4f554e545f524551554952454400000000815260200192915050565b60006128f8601e83613131565b7f414747525f52454749535452595f4d5553545f42455f434f4e54524143540000815260200192915050565b6000612931601983613131565b7f41535345545f53455454494e47535f4e4f545f45584953545300000000000000815260200192915050565b600061296a601e83613131565b7f564552535f52454749535452595f4d5553545f42455f434f4e54524143540000815260200192915050565b60006129a3601f83613131565b7f455343524f575f464143544f52595f4d5553545f42455f434f4e545241435400815260200192915050565b60006129dc601a83613131565b7f56414c55455f4d5553545f42455f4c545f4d41585f56414c5545000000000000815260200192915050565b6000612a15602283613131565b7f526f6c65733a206163636f756e7420697320746865207a65726f206164647265815261737360f01b602082015260400192915050565b6000612a59601e83613131565b7f41535345545f414444524553535f4d5553545f42455f434f4e54524143540000815260200192915050565b6000612a92602e83613131565b7f436f6e747261637420696e7374616e63652068617320616c726561647920626581526d195b881a5b9a5d1a585b1a5e995960921b602082015260400192915050565b6000612ae2601e83613131565b7f4d41524b4554535f53544154455f4d5553545f42455f434f4e54524143540000815260200192915050565b6000612b1b601883613131565b7f4d41585f4c4f414e5f414d4f554e545f4e4f545f5a45524f0000000000000000815260200192915050565b6000612b54601a83613131565b7f56414c55455f4d5553545f42455f47545f4d494e5f56414c5545000000000000815260200192915050565b6000612b8d601a83613131565b7f4c454e44494e475f504f4f4c5f49535f4e4f545f504155534544000000000000815260200192915050565b6000612bc6601b83613131565b7f504c4154464f524d5f53455454494e475f4e4f545f4558495354530000000000815260200192915050565b6000612bff60188361313a565b7f426173655570677261646561626c652e73657474696e67730000000000000000815260180192915050565b6000612c38601e83613131565b7f4e45575f56414c55455f4d5553545f42455f4c545f4d41585f56414c55450000815260200192915050565b6000612c71601883613131565b7f434f4e54524143545f4e4f545f494e495449414c495a45440000000000000000815260200192915050565b6000612caa601c83613131565b7f434f4e54524143545f414c52454144595f494e495449414c495a454400000000815260200192915050565b6000612ce3601d83613131565b7f41535345545f53455454494e47535f414c52454144595f455849535453000000815260200192915050565b6000612d1c601d83613131565b7f53455454494e475f4e414d455f4d5553545f42455f50524f5649444544000000815260200192915050565b80516040830190612d59848261245e565b506020820151612d6c60208501826124c9565b50505050565b80516080830190612d8384826124c9565b506020820151612d9660208501826124c9565b506040820151612da960408501826124c9565b506060820151612d6c60608501826124c0565b6000610a5582612513565b6000610a5582612bf2565b60208101610a55828461245e565b60208101610a55828461244f565b60408101612dfc828561245e565b610d7e602083018461245e565b60408101612e17828561245e565b610d7e60208301846124c9565b60208082528101610d7e8184612467565b60208101610a5582846124c0565b60208101610a5582846124c9565b60208101610a5582846124d2565b60208082528101610d7e81846124db565b60208082528101610a558161254c565b60208082528101610a5581612585565b60208082528101610a55816125b5565b60208082528101610a55816125ee565b60208082528101610a5581612627565b60208082528101610a5581612660565b60208082528101610a5581612699565b60208082528101610a55816126d2565b60208082528101610a5581612700565b60208082528101610a5581612726565b60208082528101610a558161275f565b60208082528101610a5581612798565b60208082528101610a55816127d1565b60208082528101610a55816127fd565b60208082528101610a5581612836565b60208082528101610a558161286f565b60208082528101610a55816128b2565b60208082528101610a55816128eb565b60208082528101610a5581612924565b60208082528101610a558161295d565b60208082528101610a5581612996565b60208082528101610a55816129cf565b60208082528101610a5581612a08565b60208082528101610a5581612a4c565b60208082528101610a5581612a85565b60208082528101610a5581612ad5565b60208082528101610a5581612b0e565b60208082528101610a5581612b47565b60208082528101610a5581612b80565b60208082528101610a5581612bb9565b60208082528101610a5581612c2b565b60208082528101610a5581612c64565b60208082528101610a5581612c9d565b60208082528101610a5581612cd6565b60208082528101610a5581612d0f565b60408101610a558284612d48565b60808101610a558284612d72565b60408101612e1782856124c9565b606081016130d882866124c9565b6130e560208301856124c9565b6118ec60408301846124c9565b6080810161310082876124c9565b61310d60208301866124c9565b61311a60408301856124c9565b611c3660608301846124c0565b60200190565b5190565b90815260200190565b919050565b6000610a558261314f565b151590565b6001600160a01b031690565b6000610a55825b6000610a558261313f565b60005b83811015613188578181015183820152602001613170565b83811115612d6c5750506000910152565b601f01601f191690565b6131ac8161313f565b8114610e3d57600080fd5b6131ac81610aa756fea365627a7a723158207044da864f9240c126a0a2587313fc7e7e2a2636ec7e926d3acc22a2f693cb4c6c6578706572696d656e74616cf564736f6c63430005110040",
  "source": "pragma solidity 0.5.17;\npragma experimental ABIEncoderV2;\n\n// Libraries\nimport \"@openzeppelin/contracts-ethereum-package/contracts/utils/Address.sol\";\nimport \"../util/AddressLib.sol\";\nimport \"../util/AssetSettingsLib.sol\";\nimport \"../util/PlatformSettingsLib.sol\";\nimport \"../util/AddressArrayLib.sol\";\n\n// Contracts\nimport \"@openzeppelin/contracts-ethereum-package/contracts/lifecycle/Pausable.sol\";\nimport \"./BaseUpgradeable.sol\";\nimport \"./TInitializable.sol\";\n\n// Interfaces\nimport \"../interfaces/SettingsInterface.sol\";\nimport \"../interfaces/EscrowFactoryInterface.sol\";\nimport \"../interfaces/MarketsStateInterface.sol\";\nimport \"../interfaces/InterestValidatorInterface.sol\";\nimport \"../providers/chainlink/IChainlinkPairAggregatorRegistry.sol\";\nimport \"../settings/IATMSettings.sol\";\n\n/*****************************************************************************************************/\n/**                                             WARNING                                             **/\n/**                                  THIS CONTRACT IS UPGRADEABLE!                                  **/\n/**  ---------------------------------------------------------------------------------------------  **/\n/**  Do NOT change the order of or PREPEND any storage variables to this or new versions of this    **/\n/**  contract as this will cause the the storage slots to be overwritten on the proxy contract!!    **/\n/**                                                                                                 **/\n/**  Visit https://docs.openzeppelin.com/upgrades/2.6/proxies#upgrading-via-the-proxy-pattern for   **/\n/**  more information.                                                                              **/\n/*****************************************************************************************************/\n/**\n    @notice This contract manages the configuration of the platform.\n    @dev The platform settings functions (create, update, and remove) don't include the whenNotPaused() modifier because we might need to use them in both cases (when the platform is paused and not paused).\n        Example:\n            - There is a potential issue and before analyzing it, we pause the platform to avoid funds losses. Finally, as result of the analysis, we decided to update a platform setting (or create a new one for the cloud nodes). In this scenario, if the modifier is present, we couldn't update the setting (because the platform is paused).\n\n    @author develop@teller.finance\n */\ncontract Settings is SettingsInterface, TInitializable, Pausable, BaseUpgradeable {\n    using AddressLib for address;\n    using Address for address;\n    using AssetSettingsLib for AssetSettingsLib.AssetSettings;\n    using AddressArrayLib for address[];\n    using PlatformSettingsLib for PlatformSettingsLib.PlatformSetting;\n\n    /** Constants */\n    /**\n        @notice The asset setting name for the maximum loan amount settings.\n     */\n    bytes32 public constant MAX_LOAN_AMOUNT_ASSET_SETTING = \"MaxLoanAmount\";\n    /**\n        @notice The asset setting name for cToken address settings.\n     */\n    bytes32 public constant CTOKEN_ADDRESS_ASSET_SETTING = \"CTokenAddress\";\n    /**\n        @notice It defines the constant address to represent ETHER.\n     */\n    address public constant ETH_ADDRESS = 0xEeeeeEeeeEeEeeEeEeEeeEEEeeeeEeeeeeeeEEeE;\n\n    /* State Variables */\n\n    /**\n        @notice It represents a mapping to identify the lending pools paused and not paused.\n\n        i.e.: address(lending pool) => true or false.\n     */\n    mapping(address => bool) public lendingPoolPaused;\n\n    /**\n        @notice It represents a mapping to configure the asset settings.\n        @notice The key belongs to the asset address. Example: address(DAI) or address(USDC).\n        @notice The value has the asset settings.\n\n        Examples:\n\n        address(DAI) => {\n            cTokenAddress = 0x1234...890\n            maxLoanAmount = 1000 DAI (max)\n        }\n        address(USDC) => {\n            cTokenAddress = 0x2345...901\n            maxLoanAmount = 500 USDC (max)\n        }\n     */\n    mapping(address => AssetSettingsLib.AssetSettings) public assetSettings;\n\n    /**\n        @notice It contains all the current assets.\n     */\n    address[] public assets;\n\n    /**\n        @notice This mapping represents the platform settings where:\n\n        - The key is the platform setting name.\n        - The value is the platform setting. It includes the value, minimum and maximum values.\n     */\n    mapping(bytes32 => PlatformSettingsLib.PlatformSetting) public platformSettings;\n\n    /**\n        @notice It is the global instance of the EscrowFactory contract.\n     */\n    EscrowFactoryInterface public escrowFactory;\n\n    /**\n        @notice It is the global instance of the logic versions registry contract.\n     */\n    LogicVersionsRegistryInterface public versionsRegistry;\n\n    /**\n        @notice It is the global instance of the ChainlinkPairAggregatorRegistry contract.\n     */\n    IChainlinkPairAggregatorRegistry public pairAggregatorRegistry;\n\n    /**\n        @notice The markets state.\n     */\n    MarketsStateInterface public marketsState;\n\n    /**\n        @notice The current interest validator.\n     */\n    InterestValidatorInterface public interestValidator;\n\n    /**\n        @notice The current ATM settings.\n     */\n    IATMSettings public atmSettings;\n\n    /** Modifiers */\n\n    /* Constructor */\n\n    /** External Functions */\n\n    /**\n        @notice It creates a new platform setting given a setting name, value, min and max values.\n        @param settingName setting name to create.\n        @param value the initial value for the given setting name.\n        @param minValue the min value for the setting.\n        @param maxValue the max value for the setting.\n     */\n    function createPlatformSetting(\n        bytes32 settingName,\n        uint256 value,\n        uint256 minValue,\n        uint256 maxValue\n    ) external onlyPauser() isInitialized() {\n        require(settingName != \"\", \"SETTING_NAME_MUST_BE_PROVIDED\");\n        platformSettings[settingName].initialize(value, minValue, maxValue);\n\n        emit PlatformSettingCreated(settingName, msg.sender, value, minValue, maxValue);\n    }\n\n    /**\n        @notice It updates an existent platform setting given a setting name.\n        @notice It only allows to update the value (not the min or max values).\n        @notice In case you need to update the min or max values, you need to remove it, and create it again.\n        @param settingName setting name to update.\n        @param newValue the new value to set.\n     */\n    function updatePlatformSetting(bytes32 settingName, uint256 newValue)\n        external\n        onlyPauser()\n        isInitialized()\n    {\n        uint256 oldValue = platformSettings[settingName].update(newValue);\n\n        emit PlatformSettingUpdated(settingName, msg.sender, oldValue, newValue);\n    }\n\n    /**\n        @notice Removes a current platform setting given a setting name.\n        @param settingName to remove.\n     */\n    function removePlatformSetting(bytes32 settingName)\n        external\n        onlyPauser()\n        isInitialized()\n    {\n        uint256 oldValue = platformSettings[settingName].value;\n        platformSettings[settingName].remove();\n\n        emit PlatformSettingRemoved(settingName, oldValue, msg.sender);\n    }\n\n    /**\n        @notice It gets the current platform setting for a given setting name\n        @param settingName to get.\n        @return the current platform setting.\n     */\n    function getPlatformSetting(bytes32 settingName)\n        external\n        view\n        returns (PlatformSettingsLib.PlatformSetting memory)\n    {\n        return _getPlatformSetting(settingName);\n    }\n\n    /**\n        @notice It gets the current platform setting value for a given setting name\n        @param settingName to get.\n        @return the current platform setting value.\n     */\n    function getPlatformSettingValue(bytes32 settingName)\n        external\n        view\n        returns (uint256)\n    {\n        return _getPlatformSetting(settingName).value;\n    }\n\n    /**\n        @notice It tests whether a setting name is already configured.\n        @param settingName setting name to test.\n        @return true if the setting is already configured. Otherwise it returns false.\n     */\n    function hasPlatformSetting(bytes32 settingName) external view returns (bool) {\n        return _getPlatformSetting(settingName).exists;\n    }\n\n    /**\n        @notice It pauses a specific lending pool.\n        @param lendingPoolAddress lending pool address to pause.\n     */\n    function pauseLendingPool(address lendingPoolAddress)\n        external\n        onlyPauser()\n        whenNotPaused()\n        isInitialized()\n    {\n        lendingPoolAddress.requireNotEmpty(\"LENDING_POOL_IS_REQUIRED\");\n        require(!lendingPoolPaused[lendingPoolAddress], \"LENDING_POOL_ALREADY_PAUSED\");\n\n        lendingPoolPaused[lendingPoolAddress] = true;\n\n        emit LendingPoolPaused(msg.sender, lendingPoolAddress);\n    }\n\n    /**\n        @notice It unpauses a specific lending pool.\n        @param lendingPoolAddress lending pool address to unpause.\n     */\n    function unpauseLendingPool(address lendingPoolAddress)\n        external\n        onlyPauser()\n        whenNotPaused()\n        isInitialized()\n    {\n        lendingPoolAddress.requireNotEmpty(\"LENDING_POOL_IS_REQUIRED\");\n        require(lendingPoolPaused[lendingPoolAddress], \"LENDING_POOL_IS_NOT_PAUSED\");\n\n        lendingPoolPaused[lendingPoolAddress] = false;\n\n        emit LendingPoolUnpaused(msg.sender, lendingPoolAddress);\n    }\n\n    /**\n        @notice It gets whether the platform is paused or not.\n        @return true if platform is paused. Otherwise it returns false.\n     */\n    function isPaused() external view returns (bool) {\n        return paused();\n    }\n\n    /**\n        @notice It creates a new asset settings in the platform.\n        @param assetAddress asset address used to create the new setting.\n        @param cTokenAddress cToken address used to configure the asset setting.\n        @param maxLoanAmount the max loan amount used to configure the asset setting.\n     */\n    function createAssetSettings(\n        address assetAddress,\n        address cTokenAddress,\n        uint256 maxLoanAmount\n    ) external onlyPauser() isInitialized() {\n        require(assetAddress.isContract(), \"ASSET_ADDRESS_MUST_BE_CONTRACT\");\n\n        assetSettings[assetAddress].requireNotExists();\n\n        assetSettings[assetAddress].initialize(cTokenAddress, maxLoanAmount);\n\n        assets.add(assetAddress);\n\n        emit AssetSettingsCreated(msg.sender, assetAddress, cTokenAddress, maxLoanAmount);\n    }\n\n    /**\n        @notice It removes all the asset settings for a specific asset address.\n        @param assetAddress asset address used to remove the asset settings.\n     */\n    function removeAssetSettings(address assetAddress)\n        external\n        onlyPauser()\n        isInitialized()\n    {\n        assetAddress.requireNotEmpty(\"ASSET_ADDRESS_IS_REQUIRED\");\n        assetSettings[assetAddress].requireExists();\n\n        delete assetSettings[assetAddress];\n        assets.remove(assetAddress);\n\n        emit AssetSettingsRemoved(msg.sender, assetAddress);\n    }\n\n    /**\n        @notice It updates the maximum loan amount for a specific asset address.\n        @param assetAddress asset address to configure.\n        @param newMaxLoanAmount the new maximum loan amount to configure.\n     */\n    function updateMaxLoanAmount(address assetAddress, uint256 newMaxLoanAmount)\n        external\n        onlyPauser()\n        isInitialized()\n    {\n        uint256 oldMaxLoanAmount = assetSettings[assetAddress].maxLoanAmount;\n\n        assetSettings[assetAddress].updateMaxLoanAmount(newMaxLoanAmount);\n\n        emit AssetSettingsUintUpdated(\n            MAX_LOAN_AMOUNT_ASSET_SETTING,\n            msg.sender,\n            assetAddress,\n            oldMaxLoanAmount,\n            newMaxLoanAmount\n        );\n    }\n\n    /**\n        @notice It updates the cToken address for a specific asset address.\n        @param assetAddress asset address to configure.\n        @param newCTokenAddress the new cToken address to configure.\n     */\n    function updateCTokenAddress(address assetAddress, address newCTokenAddress)\n        external\n        onlyPauser()\n        isInitialized()\n    {\n        address oldCTokenAddress = assetSettings[assetAddress].cTokenAddress;\n\n        assetSettings[assetAddress].updateCTokenAddress(newCTokenAddress);\n\n        emit AssetSettingsAddressUpdated(\n            CTOKEN_ADDRESS_ASSET_SETTING,\n            msg.sender,\n            assetAddress,\n            oldCTokenAddress,\n            newCTokenAddress\n        );\n    }\n\n    /**\n        @notice Tests whether amount exceeds the current maximum loan amount for a specific asset settings.\n        @param assetAddress asset address to test the setting.\n        @param amount amount to test.\n        @return true if amount exceeds current max loan amout. Otherwise it returns false.\n     */\n    function exceedsMaxLoanAmount(address assetAddress, uint256 amount)\n        external\n        view\n        returns (bool)\n    {\n        return assetSettings[assetAddress].exceedsMaxLoanAmount(amount);\n    }\n\n    /**\n        @notice Gets the current asset addresses list.\n        @return the asset addresses list.\n     */\n    function getAssets() external view returns (address[] memory) {\n        return assets;\n    }\n\n    /**\n        @notice Get the current asset settings for a given asset address.\n        @param assetAddress asset address used to get the current settings.\n        @return the current asset settings.\n     */\n    function getAssetSettings(address assetAddress)\n        external\n        view\n        returns (AssetSettingsLib.AssetSettings memory)\n    {\n        return assetSettings[assetAddress];\n    }\n\n    /**\n        @notice Tests whether an account has the pauser role.\n        @param account account to test.\n        @return true if account has the pauser role. Otherwise it returns false.\n     */\n    function hasPauserRole(address account) public view returns (bool) {\n        return isPauser(account);\n    }\n\n    /**\n        @notice Requires an account to have the pauser role.\n        @param account account to test.\n     */\n    function requirePauserRole(address account) public view {\n        require(hasPauserRole(account), \"NOT_PAUSER\");\n    }\n\n    /**\n        @notice It initializes this settings contract instance.\n        @param escrowFactoryAddress the initial escrow factory address.\n        @param versionsRegistryAddress the initial versions registry address.\n        @param pairAggregatorRegistryAddress the initial pair aggregator registry address.\n        @param marketsStateAddress the initial markets state address.\n        @param interestValidatorAddress the initial interest validator address.\n        @param atmSettingsAddress the initial ATM settings address.\n     */\n    function initialize(\n        address escrowFactoryAddress,\n        address versionsRegistryAddress,\n        address pairAggregatorRegistryAddress,\n        address marketsStateAddress,\n        address interestValidatorAddress,\n        address atmSettingsAddress\n    ) external isNotInitialized() {\n        require(escrowFactoryAddress.isContract(), \"ESCROW_FACTORY_MUST_BE_CONTRACT\");\n        require(versionsRegistryAddress.isContract(), \"VERS_REGISTRY_MUST_BE_CONTRACT\");\n        require(\n            pairAggregatorRegistryAddress.isContract(),\n            \"AGGR_REGISTRY_MUST_BE_CONTRACT\"\n        );\n        require(marketsStateAddress.isContract(), \"MARKETS_STATE_MUST_BE_CONTRACT\");\n        require(\n            interestValidatorAddress.isEmpty() || interestValidatorAddress.isContract(),\n            \"INTEREST_VAL_MUST_BE_CONTRACT\"\n        );\n        require(atmSettingsAddress.isContract(), \"ATM_SETTINGS_MUST_BE_CONTRACT\");\n\n        Pausable.initialize(msg.sender);\n        TInitializable._initialize();\n\n        escrowFactory = EscrowFactoryInterface(escrowFactoryAddress);\n        versionsRegistry = LogicVersionsRegistryInterface(versionsRegistryAddress);\n        pairAggregatorRegistry = IChainlinkPairAggregatorRegistry(\n            pairAggregatorRegistryAddress\n        );\n        marketsState = MarketsStateInterface(marketsStateAddress);\n        interestValidator = InterestValidatorInterface(interestValidatorAddress);\n        atmSettings = IATMSettings(atmSettingsAddress);\n\n        _setSettings(address(this));\n    }\n\n    /** Internal functions */\n\n    /**\n        @notice It gets the platform setting for a given setting name.\n        @param settingName the setting name to look for.\n        @return the current platform setting for the given setting name.\n     */\n    function _getPlatformSetting(bytes32 settingName)\n        internal\n        view\n        returns (PlatformSettingsLib.PlatformSetting memory)\n    {\n        return platformSettings[settingName];\n    }\n\n    /** Private functions */\n}\n",
  "sourcePath": "/Users/guillesalazar/Repos/ZeroCollateral/smart-contracts-v1/contracts/base/Settings.sol",
  "compiler": {
    "name": "solc",
    "version": "0.5.17+commit.d19bba13.Emscripten.clang"
  },
  "schemaVersion": "3.0.23",
  "updatedAt": "2020-09-03T13:50:04.101Z",
  "devdoc": {
    "author": "develop@teller.finance",
    "details": "The platform settings functions (create, update, and remove) don't include the whenNotPaused() modifier because we might need to use them in both cases (when the platform is paused and not paused). Example: - There is a potential issue and before analyzing it, we pause the platform to avoid funds losses. Finally, as result of the analysis, we decided to update a platform setting (or create a new one for the cloud nodes). In this scenario, if the modifier is present, we couldn't update the setting (because the platform is paused).",
    "methods": {
      "createAssetSettings(address,address,uint256)": {
        "params": {
          "assetAddress": "asset address used to create the new setting.",
          "cTokenAddress": "cToken address used to configure the asset setting.",
          "maxLoanAmount": "the max loan amount used to configure the asset setting."
        }
      },
      "createPlatformSetting(bytes32,uint256,uint256,uint256)": {
        "params": {
          "maxValue": "the max value for the setting.",
          "minValue": "the min value for the setting.",
          "settingName": "setting name to create.",
          "value": "the initial value for the given setting name."
        }
      },
      "exceedsMaxLoanAmount(address,uint256)": {
        "params": {
          "amount": "amount to test.",
          "assetAddress": "asset address to test the setting."
        },
        "return": "true if amount exceeds current max loan amout. Otherwise it returns false."
      },
      "getAssetSettings(address)": {
        "params": {
          "assetAddress": "asset address used to get the current settings."
        },
        "return": "the current asset settings."
      },
      "getAssets()": {
        "return": "the asset addresses list."
      },
      "getPlatformSetting(bytes32)": {
        "params": {
          "settingName": "to get."
        },
        "return": "the current platform setting."
      },
      "getPlatformSettingValue(bytes32)": {
        "params": {
          "settingName": "to get."
        },
        "return": "the current platform setting value."
      },
      "hasPauserRole(address)": {
        "params": {
          "account": "account to test."
        },
        "return": "true if account has the pauser role. Otherwise it returns false."
      },
      "hasPlatformSetting(bytes32)": {
        "params": {
          "settingName": "setting name to test."
        },
        "return": "true if the setting is already configured. Otherwise it returns false."
      },
      "initialize(address)": {
        "details": "Initializes the contract in unpaused state. Assigns the Pauser role to the deployer."
      },
      "initialize(address,address,address,address,address,address)": {
        "params": {
          "atmSettingsAddress": "the initial ATM settings address.",
          "escrowFactoryAddress": "the initial escrow factory address.",
          "interestValidatorAddress": "the initial interest validator address.",
          "marketsStateAddress": "the initial markets state address.",
          "pairAggregatorRegistryAddress": "the initial pair aggregator registry address.",
          "versionsRegistryAddress": "the initial versions registry address."
        }
      },
      "initialized()": {
        "return": "true if contract is initialized. Otherwise it returns false."
      },
      "isPaused()": {
        "return": "true if platform is paused. Otherwise it returns false."
      },
      "pause()": {
        "details": "Called by a pauser to pause, triggers stopped state."
      },
      "pauseLendingPool(address)": {
        "params": {
          "lendingPoolAddress": "lending pool address to pause."
        }
      },
      "paused()": {
        "details": "Returns true if the contract is paused, and false otherwise."
      },
      "removeAssetSettings(address)": {
        "params": {
          "assetAddress": "asset address used to remove the asset settings."
        }
      },
      "removePlatformSetting(bytes32)": {
        "params": {
          "settingName": "to remove."
        }
      },
      "requirePauserRole(address)": {
        "params": {
          "account": "account to test."
        }
      },
      "unpause()": {
        "details": "Called by a pauser to unpause, returns to normal state."
      },
      "unpauseLendingPool(address)": {
        "params": {
          "lendingPoolAddress": "lending pool address to unpause."
        }
      },
      "updateCTokenAddress(address,address)": {
        "params": {
          "assetAddress": "asset address to configure.",
          "newCTokenAddress": "the new cToken address to configure."
        }
      },
      "updateMaxLoanAmount(address,uint256)": {
        "params": {
          "assetAddress": "asset address to configure.",
          "newMaxLoanAmount": "the new maximum loan amount to configure."
        }
      },
      "updatePlatformSetting(bytes32,uint256)": {
        "params": {
          "newValue": "the new value to set.",
          "settingName": "setting name to update."
        }
      }
    }
  },
  "userdoc": {
    "methods": {
      "createAssetSettings(address,address,uint256)": {
        "notice": "It creates a new asset settings in the platform."
      },
      "createPlatformSetting(bytes32,uint256,uint256,uint256)": {
        "notice": "It creates a new platform setting given a setting name, value, min and max values."
      },
      "exceedsMaxLoanAmount(address,uint256)": {
        "notice": "Tests whether amount exceeds the current maximum loan amount for a specific asset settings."
      },
      "getAssetSettings(address)": {
        "notice": "Get the current asset settings for a given asset address."
      },
      "getAssets()": {
        "notice": "Gets the current asset addresses list."
      },
      "getPlatformSetting(bytes32)": {
        "notice": "It gets the current platform setting for a given setting name"
      },
      "getPlatformSettingValue(bytes32)": {
        "notice": "It gets the current platform setting value for a given setting name"
      },
      "hasPauserRole(address)": {
        "notice": "Tests whether an account has the pauser role."
      },
      "hasPlatformSetting(bytes32)": {
        "notice": "It tests whether a setting name is already configured."
      },
      "initialize(address,address,address,address,address,address)": {
        "notice": "It initializes this settings contract instance."
      },
      "initialized()": {
        "notice": "Gets if the contract is initialized."
      },
      "isPaused()": {
        "notice": "It gets whether the platform is paused or not."
      },
      "pauseLendingPool(address)": {
        "notice": "It pauses a specific lending pool."
      },
      "removeAssetSettings(address)": {
        "notice": "It removes all the asset settings for a specific asset address."
      },
      "removePlatformSetting(bytes32)": {
        "notice": "Removes a current platform setting given a setting name."
      },
      "requirePauserRole(address)": {
        "notice": "Requires an account to have the pauser role."
      },
      "settings()": {
        "notice": "The settings contract."
      },
      "unpauseLendingPool(address)": {
        "notice": "It unpauses a specific lending pool."
      },
      "updateCTokenAddress(address,address)": {
        "notice": "It updates the cToken address for a specific asset address."
      },
      "updateMaxLoanAmount(address,uint256)": {
        "notice": "It updates the maximum loan amount for a specific asset address."
      },
      "updatePlatformSetting(bytes32,uint256)": {
        "notice": "It updates an existent platform setting given a setting name.It only allows to update the value (not the min or max values).In case you need to update the min or max values, you need to remove it, and create it again."
      }
    },
    "notice": "This contract manages the configuration of the platform."
  }
}