{
  "contractName": "Settings",
  "abi": [
    {
      "inputs": [
        {
          "internalType": "uint256",
          "name": "aRequiredSubmissions",
          "type": "uint256"
        },
        {
          "internalType": "uint256",
          "name": "aMaximumTolerance",
          "type": "uint256"
        },
        {
          "internalType": "uint256",
          "name": "aResponseExpiryLength",
          "type": "uint256"
        },
        {
          "internalType": "uint256",
          "name": "aSafetyInterval",
          "type": "uint256"
        },
        {
          "internalType": "uint256",
          "name": "aTermsExpiryTime",
          "type": "uint256"
        },
        {
          "internalType": "uint256",
          "name": "aLiquidateEthPrice",
          "type": "uint256"
        },
        {
          "internalType": "uint256",
          "name": "aMaximumLoanDuration",
          "type": "uint256"
        }
      ],
      "payable": false,
      "stateMutability": "nonpayable",
      "type": "constructor"
    },
    {
      "anonymous": false,
      "inputs": [
        {
          "indexed": true,
          "internalType": "bytes32",
          "name": "assetSettingName",
          "type": "bytes32"
        },
        {
          "indexed": true,
          "internalType": "address",
          "name": "sender",
          "type": "address"
        },
        {
          "indexed": true,
          "internalType": "address",
          "name": "assetAddress",
          "type": "address"
        },
        {
          "indexed": false,
          "internalType": "address",
          "name": "oldValue",
          "type": "address"
        },
        {
          "indexed": false,
          "internalType": "address",
          "name": "newValue",
          "type": "address"
        }
      ],
      "name": "AssetSettingsAddressUpdated",
      "type": "event"
    },
    {
      "anonymous": false,
      "inputs": [
        {
          "indexed": true,
          "internalType": "address",
          "name": "sender",
          "type": "address"
        },
        {
          "indexed": true,
          "internalType": "address",
          "name": "assetAddress",
          "type": "address"
        },
        {
          "indexed": false,
          "internalType": "address",
          "name": "cTokenAddress",
          "type": "address"
        },
        {
          "indexed": false,
          "internalType": "uint256",
          "name": "maxLoanAmount",
          "type": "uint256"
        }
      ],
      "name": "AssetSettingsCreated",
      "type": "event"
    },
    {
      "anonymous": false,
      "inputs": [
        {
          "indexed": true,
          "internalType": "address",
          "name": "sender",
          "type": "address"
        },
        {
          "indexed": true,
          "internalType": "address",
          "name": "assetAddress",
          "type": "address"
        }
      ],
      "name": "AssetSettingsRemoved",
      "type": "event"
    },
    {
      "anonymous": false,
      "inputs": [
        {
          "indexed": true,
          "internalType": "bytes32",
          "name": "assetSettingName",
          "type": "bytes32"
        },
        {
          "indexed": true,
          "internalType": "address",
          "name": "sender",
          "type": "address"
        },
        {
          "indexed": true,
          "internalType": "address",
          "name": "assetAddress",
          "type": "address"
        },
        {
          "indexed": false,
          "internalType": "uint256",
          "name": "oldValue",
          "type": "uint256"
        },
        {
          "indexed": false,
          "internalType": "uint256",
          "name": "newValue",
          "type": "uint256"
        }
      ],
      "name": "AssetSettingsUintUpdated",
      "type": "event"
    },
    {
      "anonymous": false,
      "inputs": [
        {
          "indexed": true,
          "internalType": "address",
          "name": "account",
          "type": "address"
        },
        {
          "indexed": true,
          "internalType": "address",
          "name": "lendingPoolAddress",
          "type": "address"
        }
      ],
      "name": "LendingPoolPaused",
      "type": "event"
    },
    {
      "anonymous": false,
      "inputs": [
        {
          "indexed": true,
          "internalType": "address",
          "name": "account",
          "type": "address"
        },
        {
          "indexed": true,
          "internalType": "address",
          "name": "lendingPoolAddress",
          "type": "address"
        }
      ],
      "name": "LendingPoolUnpaused",
      "type": "event"
    },
    {
      "anonymous": false,
      "inputs": [
        {
          "indexed": false,
          "internalType": "address",
          "name": "account",
          "type": "address"
        }
      ],
      "name": "Paused",
      "type": "event"
    },
    {
      "anonymous": false,
      "inputs": [
        {
          "indexed": true,
          "internalType": "address",
          "name": "account",
          "type": "address"
        }
      ],
      "name": "PauserAdded",
      "type": "event"
    },
    {
      "anonymous": false,
      "inputs": [
        {
          "indexed": true,
          "internalType": "address",
          "name": "account",
          "type": "address"
        }
      ],
      "name": "PauserRemoved",
      "type": "event"
    },
    {
      "anonymous": false,
      "inputs": [
        {
          "indexed": true,
          "internalType": "bytes32",
          "name": "settingName",
          "type": "bytes32"
        },
        {
          "indexed": true,
          "internalType": "address",
          "name": "sender",
          "type": "address"
        },
        {
          "indexed": false,
          "internalType": "uint256",
          "name": "oldValue",
          "type": "uint256"
        },
        {
          "indexed": false,
          "internalType": "uint256",
          "name": "newValue",
          "type": "uint256"
        }
      ],
      "name": "SettingUpdated",
      "type": "event"
    },
    {
      "anonymous": false,
      "inputs": [
        {
          "indexed": false,
          "internalType": "address",
          "name": "account",
          "type": "address"
        }
      ],
      "name": "Unpaused",
      "type": "event"
    },
    {
      "constant": true,
      "inputs": [],
      "name": "CTOKEN_ADDRESS_ASSET_SETTING",
      "outputs": [
        {
          "internalType": "bytes32",
          "name": "",
          "type": "bytes32"
        }
      ],
      "payable": false,
      "stateMutability": "view",
      "type": "function"
    },
    {
      "constant": true,
      "inputs": [],
      "name": "LIQUIDATE_ETH_PRICE_SETTING",
      "outputs": [
        {
          "internalType": "bytes32",
          "name": "",
          "type": "bytes32"
        }
      ],
      "payable": false,
      "stateMutability": "view",
      "type": "function"
    },
    {
      "constant": true,
      "inputs": [],
      "name": "MAXIMUM_LOAN_DURATION_SETTING",
      "outputs": [
        {
          "internalType": "bytes32",
          "name": "",
          "type": "bytes32"
        }
      ],
      "payable": false,
      "stateMutability": "view",
      "type": "function"
    },
    {
      "constant": true,
      "inputs": [],
      "name": "MAXIMUM_TOLERANCE_SETTING",
      "outputs": [
        {
          "internalType": "bytes32",
          "name": "",
          "type": "bytes32"
        }
      ],
      "payable": false,
      "stateMutability": "view",
      "type": "function"
    },
    {
      "constant": true,
      "inputs": [],
      "name": "MAX_LOAN_AMOUNT_ASSET_SETTING",
      "outputs": [
        {
          "internalType": "bytes32",
          "name": "",
          "type": "bytes32"
        }
      ],
      "payable": false,
      "stateMutability": "view",
      "type": "function"
    },
    {
      "constant": true,
      "inputs": [],
      "name": "REQUIRED_SUBMISSIONS_SETTING",
      "outputs": [
        {
          "internalType": "bytes32",
          "name": "",
          "type": "bytes32"
        }
      ],
      "payable": false,
      "stateMutability": "view",
      "type": "function"
    },
    {
      "constant": true,
      "inputs": [],
      "name": "RESPONSE_EXPIRY_LENGTH_SETTING",
      "outputs": [
        {
          "internalType": "bytes32",
          "name": "",
          "type": "bytes32"
        }
      ],
      "payable": false,
      "stateMutability": "view",
      "type": "function"
    },
    {
      "constant": true,
      "inputs": [],
      "name": "SAFETY_INTERVAL_SETTING",
      "outputs": [
        {
          "internalType": "bytes32",
          "name": "",
          "type": "bytes32"
        }
      ],
      "payable": false,
      "stateMutability": "view",
      "type": "function"
    },
    {
      "constant": true,
      "inputs": [],
      "name": "TERMS_EXPIRY_TIME_SETTING",
      "outputs": [
        {
          "internalType": "bytes32",
          "name": "",
          "type": "bytes32"
        }
      ],
      "payable": false,
      "stateMutability": "view",
      "type": "function"
    },
    {
      "constant": false,
      "inputs": [
        {
          "internalType": "address",
          "name": "account",
          "type": "address"
        }
      ],
      "name": "addPauser",
      "outputs": [],
      "payable": false,
      "stateMutability": "nonpayable",
      "type": "function"
    },
    {
      "constant": true,
      "inputs": [
        {
          "internalType": "address",
          "name": "",
          "type": "address"
        }
      ],
      "name": "assetSettings",
      "outputs": [
        {
          "internalType": "address",
          "name": "cTokenAddress",
          "type": "address"
        },
        {
          "internalType": "uint256",
          "name": "maxLoanAmount",
          "type": "uint256"
        }
      ],
      "payable": false,
      "stateMutability": "view",
      "type": "function"
    },
    {
      "constant": true,
      "inputs": [
        {
          "internalType": "uint256",
          "name": "",
          "type": "uint256"
        }
      ],
      "name": "assets",
      "outputs": [
        {
          "internalType": "address",
          "name": "",
          "type": "address"
        }
      ],
      "payable": false,
      "stateMutability": "view",
      "type": "function"
    },
    {
      "constant": true,
      "inputs": [
        {
          "internalType": "address",
          "name": "account",
          "type": "address"
        }
      ],
      "name": "isPauser",
      "outputs": [
        {
          "internalType": "bool",
          "name": "",
          "type": "bool"
        }
      ],
      "payable": false,
      "stateMutability": "view",
      "type": "function"
    },
    {
      "constant": true,
      "inputs": [
        {
          "internalType": "address",
          "name": "",
          "type": "address"
        }
      ],
      "name": "lendingPoolPaused",
      "outputs": [
        {
          "internalType": "bool",
          "name": "",
          "type": "bool"
        }
      ],
      "payable": false,
      "stateMutability": "view",
      "type": "function"
    },
    {
      "constant": true,
      "inputs": [],
      "name": "liquidateEthPrice",
      "outputs": [
        {
          "internalType": "uint256",
          "name": "",
          "type": "uint256"
        }
      ],
      "payable": false,
      "stateMutability": "view",
      "type": "function"
    },
    {
      "constant": true,
      "inputs": [],
      "name": "maximumLoanDuration",
      "outputs": [
        {
          "internalType": "uint256",
          "name": "",
          "type": "uint256"
        }
      ],
      "payable": false,
      "stateMutability": "view",
      "type": "function"
    },
    {
      "constant": true,
      "inputs": [],
      "name": "maximumTolerance",
      "outputs": [
        {
          "internalType": "uint256",
          "name": "",
          "type": "uint256"
        }
      ],
      "payable": false,
      "stateMutability": "view",
      "type": "function"
    },
    {
      "constant": false,
      "inputs": [],
      "name": "pause",
      "outputs": [],
      "payable": false,
      "stateMutability": "nonpayable",
      "type": "function"
    },
    {
      "constant": true,
      "inputs": [],
      "name": "paused",
      "outputs": [
        {
          "internalType": "bool",
          "name": "",
          "type": "bool"
        }
      ],
      "payable": false,
      "stateMutability": "view",
      "type": "function"
    },
    {
      "constant": false,
      "inputs": [],
      "name": "renouncePauser",
      "outputs": [],
      "payable": false,
      "stateMutability": "nonpayable",
      "type": "function"
    },
    {
      "constant": true,
      "inputs": [],
      "name": "requiredSubmissions",
      "outputs": [
        {
          "internalType": "uint256",
          "name": "",
          "type": "uint256"
        }
      ],
      "payable": false,
      "stateMutability": "view",
      "type": "function"
    },
    {
      "constant": true,
      "inputs": [],
      "name": "responseExpiryLength",
      "outputs": [
        {
          "internalType": "uint256",
          "name": "",
          "type": "uint256"
        }
      ],
      "payable": false,
      "stateMutability": "view",
      "type": "function"
    },
    {
      "constant": true,
      "inputs": [],
      "name": "safetyInterval",
      "outputs": [
        {
          "internalType": "uint256",
          "name": "",
          "type": "uint256"
        }
      ],
      "payable": false,
      "stateMutability": "view",
      "type": "function"
    },
    {
      "constant": true,
      "inputs": [],
      "name": "termsExpiryTime",
      "outputs": [
        {
          "internalType": "uint256",
          "name": "",
          "type": "uint256"
        }
      ],
      "payable": false,
      "stateMutability": "view",
      "type": "function"
    },
    {
      "constant": false,
      "inputs": [],
      "name": "unpause",
      "outputs": [],
      "payable": false,
      "stateMutability": "nonpayable",
      "type": "function"
    },
    {
      "constant": false,
      "inputs": [
        {
          "internalType": "uint256",
          "name": "newRequiredSubmissions",
          "type": "uint256"
        }
      ],
      "name": "setRequiredSubmissions",
      "outputs": [],
      "payable": false,
      "stateMutability": "nonpayable",
      "type": "function"
    },
    {
      "constant": false,
      "inputs": [
        {
          "internalType": "uint256",
          "name": "newMaximumTolerance",
          "type": "uint256"
        }
      ],
      "name": "setMaximumTolerance",
      "outputs": [],
      "payable": false,
      "stateMutability": "nonpayable",
      "type": "function"
    },
    {
      "constant": false,
      "inputs": [
        {
          "internalType": "uint256",
          "name": "newResponseExpiryLength",
          "type": "uint256"
        }
      ],
      "name": "setResponseExpiryLength",
      "outputs": [],
      "payable": false,
      "stateMutability": "nonpayable",
      "type": "function"
    },
    {
      "constant": false,
      "inputs": [
        {
          "internalType": "uint256",
          "name": "newSafetyInterval",
          "type": "uint256"
        }
      ],
      "name": "setSafetyInterval",
      "outputs": [],
      "payable": false,
      "stateMutability": "nonpayable",
      "type": "function"
    },
    {
      "constant": false,
      "inputs": [
        {
          "internalType": "uint256",
          "name": "newTermsExpiryTime",
          "type": "uint256"
        }
      ],
      "name": "setTermsExpiryTime",
      "outputs": [],
      "payable": false,
      "stateMutability": "nonpayable",
      "type": "function"
    },
    {
      "constant": false,
      "inputs": [
        {
          "internalType": "uint256",
          "name": "newLiquidateEthPrice",
          "type": "uint256"
        }
      ],
      "name": "setLiquidateEthPrice",
      "outputs": [],
      "payable": false,
      "stateMutability": "nonpayable",
      "type": "function"
    },
    {
      "constant": false,
      "inputs": [
        {
          "internalType": "uint256",
          "name": "newMaximumLoanDuration",
          "type": "uint256"
        }
      ],
      "name": "setMaximumLoanDuration",
      "outputs": [],
      "payable": false,
      "stateMutability": "nonpayable",
      "type": "function"
    },
    {
      "constant": false,
      "inputs": [
        {
          "internalType": "address",
          "name": "lendingPoolAddress",
          "type": "address"
        }
      ],
      "name": "pauseLendingPool",
      "outputs": [],
      "payable": false,
      "stateMutability": "nonpayable",
      "type": "function"
    },
    {
      "constant": false,
      "inputs": [
        {
          "internalType": "address",
          "name": "lendingPoolAddress",
          "type": "address"
        }
      ],
      "name": "unpauseLendingPool",
      "outputs": [],
      "payable": false,
      "stateMutability": "nonpayable",
      "type": "function"
    },
    {
      "constant": true,
      "inputs": [],
      "name": "isPaused",
      "outputs": [
        {
          "internalType": "bool",
          "name": "",
          "type": "bool"
        }
      ],
      "payable": false,
      "stateMutability": "view",
      "type": "function"
    },
    {
      "constant": false,
      "inputs": [
        {
          "internalType": "address",
          "name": "assetAddress",
          "type": "address"
        },
        {
          "internalType": "address",
          "name": "cTokenAddress",
          "type": "address"
        },
        {
          "internalType": "uint256",
          "name": "maxLoanAmount",
          "type": "uint256"
        }
      ],
      "name": "createAssetSettings",
      "outputs": [],
      "payable": false,
      "stateMutability": "nonpayable",
      "type": "function"
    },
    {
      "constant": false,
      "inputs": [
        {
          "internalType": "address",
          "name": "assetAddress",
          "type": "address"
        }
      ],
      "name": "removeAssetSettings",
      "outputs": [],
      "payable": false,
      "stateMutability": "nonpayable",
      "type": "function"
    },
    {
      "constant": false,
      "inputs": [
        {
          "internalType": "address",
          "name": "assetAddress",
          "type": "address"
        },
        {
          "internalType": "uint256",
          "name": "newMaxLoanAmount",
          "type": "uint256"
        }
      ],
      "name": "updateMaxLoanAmount",
      "outputs": [],
      "payable": false,
      "stateMutability": "nonpayable",
      "type": "function"
    },
    {
      "constant": false,
      "inputs": [
        {
          "internalType": "address",
          "name": "assetAddress",
          "type": "address"
        },
        {
          "internalType": "address",
          "name": "newCTokenAddress",
          "type": "address"
        }
      ],
      "name": "updateCTokenAddress",
      "outputs": [],
      "payable": false,
      "stateMutability": "nonpayable",
      "type": "function"
    },
    {
      "constant": true,
      "inputs": [
        {
          "internalType": "address",
          "name": "assetAddress",
          "type": "address"
        },
        {
          "internalType": "uint256",
          "name": "amount",
          "type": "uint256"
        }
      ],
      "name": "exceedsMaxLoanAmount",
      "outputs": [
        {
          "internalType": "bool",
          "name": "",
          "type": "bool"
        }
      ],
      "payable": false,
      "stateMutability": "view",
      "type": "function"
    },
    {
      "constant": true,
      "inputs": [],
      "name": "getAssets",
      "outputs": [
        {
          "internalType": "address[]",
          "name": "",
          "type": "address[]"
        }
      ],
      "payable": false,
      "stateMutability": "view",
      "type": "function"
    },
    {
      "constant": true,
      "inputs": [
        {
          "internalType": "address",
          "name": "assetAddress",
          "type": "address"
        }
      ],
      "name": "getAssetSettings",
      "outputs": [
        {
          "components": [
            {
              "internalType": "address",
              "name": "cTokenAddress",
              "type": "address"
            },
            {
              "internalType": "uint256",
              "name": "maxLoanAmount",
              "type": "uint256"
            }
          ],
          "internalType": "struct AssetSettingsLib.AssetSettings",
          "name": "",
          "type": "tuple"
        }
      ],
      "payable": false,
      "stateMutability": "view",
      "type": "function"
    },
    {
      "constant": true,
      "inputs": [
        {
          "internalType": "address",
          "name": "account",
          "type": "address"
        }
      ],
      "name": "hasPauserRole",
      "outputs": [
        {
          "internalType": "bool",
          "name": "",
          "type": "bool"
        }
      ],
      "payable": false,
      "stateMutability": "view",
      "type": "function"
    }
  ],
  "bytecode": "0x60806040523480156200001157600080fd5b5060405162002d1738038062002d1783398101604081905262000034916200026c565b6200005a6200004b6001600160e01b036200016016565b6001600160e01b036200016416565b6001805460ff19169055866200008d5760405162461bcd60e51b815260040162000084906200051e565b60405180910390fd5b60008511620000b05760405162461bcd60e51b8152600401620000849062000578565b60008411620000d35760405162461bcd60e51b8152600401620000849062000554565b60008311620000f65760405162461bcd60e51b8152600401620000849062000542565b60008211620001195760405162461bcd60e51b815260040162000084906200050c565b600081116200013c5760405162461bcd60e51b8152600401620000849062000566565b600596909655600694909455600792909255600855600955600a55600b55620005b0565b3390565b6200017f816000620001b660201b620019221790919060201c565b6040516001600160a01b038216907f6719d08c1888103bea251a4ed56406bd0c3e69723c8a1686e017e7bbe159b6f890600090a250565b620001cb82826001600160e01b036200021016565b15620001eb5760405162461bcd60e51b81526004016200008490620004fa565b6001600160a01b0316600090815260209190915260409020805460ff19166001179055565b60006001600160a01b0382166200023b5760405162461bcd60e51b8152600401620000849062000530565b506001600160a01b03811660009081526020839052604090205460ff165b92915050565b8051620002598162000596565b600080600080600080600060e0888a0312156200028857600080fd5b6000620002968a8a6200025f565b9750506020620002a98a828b016200025f565b9650506040620002bc8a828b016200025f565b9550506060620002cf8a828b016200025f565b9450506080620002e28a828b016200025f565b93505060a0620002f58a828b016200025f565b92505060c0620003088a828b016200025f565b91505092959891949750929550565b600062000326601f836200058a565b7f526f6c65733a206163636f756e7420616c72656164792068617320726f6c6500815260200192915050565b6000620003616016836200058a565b7f4d5553545f50524f564944455f4554485f505249434500000000000000000000815260200192915050565b60006200039c601a836200058a565b7f4d5553545f50524f564944455f52455155495245445f53554253000000000000815260200192915050565b6000620003d76022836200058a565b7f526f6c65733a206163636f756e7420697320746865207a65726f206164647265815261737360f01b602082015260400192915050565b60006200041d6019836200058a565b7f4d5553545f50524f564944455f5445524d535f45585049525900000000000000815260200192915050565b600062000458601c836200058a565b7f4d5553545f50524f564944455f5341464554595f494e54455256414c00000000815260200192915050565b600062000493601e836200058a565b7f4d5553545f50524f564944455f4d41585f4c4f414e5f4455524154494f4e0000815260200192915050565b6000620004ce6019836200058a565b7f4d5553545f50524f564944455f524553504f4e53455f45585000000000000000815260200192915050565b60208082528101620002598162000317565b60208082528101620002598162000352565b6020808252810162000259816200038d565b602080825281016200025981620003c8565b6020808252810162000259816200040e565b60208082528101620002598162000449565b60208082528101620002598162000484565b602080825281016200025981620004bf565b90815260200190565b90565b620005a18162000593565b8114620005ad57600080fd5b50565b61275780620005c06000396000f3fe608060405234801561001057600080fd5b50600436106102695760003560e01c80636ef8d66d11610151578063b8aa6194116100c3578063d6e6b5e411610087578063d6e6b5e4146104b6578063e00a4615146104c9578063e3f33d00146104d1578063ee2e0fdc146104d9578063fa4c4c03146104ec578063fbedbe5c146104f457610269565b8063b8aa619414610476578063b9f9e3041461047e578063c41dd8ce14610486578063cc44cadb1461048e578063cf35bdd01461049657610269565b806386411d481161011557806386411d48146104255780639021be7214610438578063a239c58b14610440578063a7fced6814610453578063b187bd261461045b578063b8691bb31461046357610269565b80636ef8d66d146103f257806375c66828146103fa5780637f4339431461040257806382dc1ec41461040a5780638456cb591461041d57610269565b80633f4ba83a116101ea5780635f72868f116101ae5780635f72868f1461037b5780635ff4bc351461038e57806367e4ac2c1461039657806369ff7744146103ab5780636a7ce18d146103be5780636b3b8ec1146103d157610269565b80633f4ba83a146103305780633ff591d91461033857806346fbf68e146103405780634c7b0972146103535780635c975abb1461037357610269565b80631f338eb5116102315780631f338eb5146102c457806332c1ff91146102d757806339955708146102ea5780633b668321146102fd5780633e9dc4cc1461031d57610269565b8063043bd50a1461026e5780631139087a1461028357806311880cc8146102a1578063192b355d146102a95780631be0ed37146102b1575b600080fd5b61028161027c366004611d73565b610507565b005b61028b6105e9565b6040516102989190612496565b60405180910390f35b61028b610601565b61028b610616565b6102816102bf366004611c9e565b61061c565b6102816102d2366004611d43565b610735565b6102816102e5366004611cbc565b610810565b6102816102f8366004611d73565b6108df565b61031061030b366004611c9e565b6109ae565b6040516102989190612488565b61028161032b366004611d73565b6109c3565b610281610a8c565b61028b610b1f565b61031061034e366004611c9e565b610b39565b610366610361366004611c9e565b610b51565b6040516102989190612645565b610310610b96565b610281610389366004611cf6565b610ba0565b61028b610cc6565b61039e610ccc565b6040516102989190612477565b6103106103b9366004611d43565b610d2e565b6102816103cc366004611d73565b610d5d565b6103e46103df366004611c9e565b610e2b565b60405161029892919061245c565b610281610e50565b61028b610e62565b61028b610e68565b610281610418366004611c9e565b610e6e565b610281610ea1565b610281610433366004611d73565b610f20565b61028b610fea565b61028161044e366004611c9e565b610ff0565b61028b61111e565b610310611124565b610281610471366004611d73565b611133565b61028b611201565b61028b611215565b61028b61121b565b61028b611232565b6104a96104a4366004611d73565b61124c565b6040516102989190612425565b6102816104c4366004611d73565b611273565b61028b61133f565b61028b611355565b6103106104e7366004611c9e565b611370565b61028b61137b565b610281610502366004611c9e565b61138f565b61051261034e6114a4565b6105375760405162461bcd60e51b815260040161052e906124e5565b60405180910390fd5b60015460ff161561055a5760405162461bcd60e51b815260040161052e90612555565b80600654141561057c5760405162461bcd60e51b815260040161052e90612505565b61271081111561059e5760405162461bcd60e51b815260040161052e90612635565b600680549082905560405133906f4d6178696d756d546f6c6572616e636560801b906000805160206126f5833981519152906105dd9085908790612653565b60405180910390a35050565b704c6971756964617465457468507269636560781b81565b6d14d859995d1e525b9d195c9d985b60921b81565b600b5481565b61062761034e6114a4565b6106435760405162461bcd60e51b815260040161052e906124e5565b60015460ff16156106665760405162461bcd60e51b815260040161052e90612555565b60408051808201909152601881527713115391125391d7d413d3d317d254d7d49154555254915160421b60208201526106af906001600160a01b0383169063ffffffff6114a816565b6001600160a01b03811660009081526002602052604090205460ff16156106e85760405162461bcd60e51b815260040161052e906124b5565b6001600160a01b038116600081815260026020526040808220805460ff191660011790555133917fff7b62e2b5984471f0fb76a23e84a0d6f2e5c3e8818a929948190ce967a2fc2e91a350565b61074061034e6114a4565b61075c5760405162461bcd60e51b815260040161052e906124e5565b60015460ff161561077f5760405162461bcd60e51b815260040161052e90612555565b6001600160a01b03821660009081526003602052604090206001810154906107ad908363ffffffff6114d516565b826001600160a01b0316336001600160a01b03166c13585e131bd85b905b5bdd5b9d609a1b7fc34434be61dd5409142baf6b4b56c888a407184091916f210f1229981176729e8486604051610803929190612653565b60405180910390a4505050565b61081b61034e6114a4565b6108375760405162461bcd60e51b815260040161052e906124e5565b60015460ff161561085a5760405162461bcd60e51b815260040161052e90612555565b6001600160a01b038083166000908152600360205260409020805490911690610889908363ffffffff61152a16565b826001600160a01b0316336001600160a01b03166c43546f6b656e4164647265737360981b7f929f6b235ccfb7d9550dd06e5cde398e177120a98377d5f152b6c76e030f45fa8486604051610803929190612441565b6108ea61034e6114a4565b6109065760405162461bcd60e51b815260040161052e906124e5565b60015460ff16156109295760405162461bcd60e51b815260040161052e90612555565b80600754141561094b5760405162461bcd60e51b815260040161052e90612505565b6000811161096b5760405162461bcd60e51b815260040161052e90612615565b60078054908290556040513390730a4cae6e0dedce6ca8af0e0d2e4f298cadccee8d60631b906000805160206126f5833981519152906105dd9085908790612653565b60026020526000908152604090205460ff1681565b6109ce61034e6114a4565b6109ea5760405162461bcd60e51b815260040161052e906124e5565b60015460ff1615610a0d5760405162461bcd60e51b815260040161052e90612555565b806008541415610a2f5760405162461bcd60e51b815260040161052e90612505565b60008111610a4f5760405162461bcd60e51b815260040161052e906125e5565b600880549082905560405133906d14d859995d1e525b9d195c9d985b60921b906000805160206126f5833981519152906105dd9085908790612653565b610a9761034e6114a4565b610ab35760405162461bcd60e51b815260040161052e906124e5565b60015460ff16610ad55760405162461bcd60e51b815260040161052e906124c5565b6001805460ff191690557f5db9ee0a495bf2e6ff9c91a7834c1ba4fdd244a5e8aa4e537bd38aeae4b073aa610b086114a4565b604051610b159190612433565b60405180910390a1565b7252657175697265645375626d697373696f6e7360681b81565b6000610b4b818363ffffffff61157d16565b92915050565b610b59611c34565b506001600160a01b039081166000908152600360209081526040918290208251808401909352805490931682526001909201549181019190915290565b60015460ff165b90565b610bab61034e6114a4565b610bc75760405162461bcd60e51b815260040161052e906124e5565b60015460ff1615610bea5760405162461bcd60e51b815260040161052e90612555565b610bfc836001600160a01b03166115c5565b610c185760405162461bcd60e51b815260040161052e906125d5565b6001600160a01b0383166000908152600360205260409020610c3990611601565b6001600160a01b0383166000908152600360205260409020610c6290838363ffffffff61162716565b610c7360048463ffffffff6116b316565b50826001600160a01b0316336001600160a01b03167fe37faf4827cb3cd6cbaf895d9ca6b0f7ea5113da8a6ca24b281270c760f03bc08484604051610cb992919061245c565b60405180910390a3505050565b600a5481565b60606004805480602002602001604051908101604052809291908181526020018280548015610d2457602002820191906000526020600020905b81546001600160a01b03168152600190910190602001808311610d06575b5050505050905090565b6001600160a01b0382166000908152600360205260408120610d56908363ffffffff61176716565b9392505050565b610d6861034e6114a4565b610d845760405162461bcd60e51b815260040161052e906124e5565b60015460ff1615610da75760405162461bcd60e51b815260040161052e90612555565b806005541415610dc95760405162461bcd60e51b815260040161052e90612505565b60008111610de95760405162461bcd60e51b815260040161052e90612545565b600580549082905560405133907252657175697265645375626d697373696f6e7360681b906000805160206126f5833981519152906105dd9085908790612653565b600360205260009081526040902080546001909101546001600160a01b039091169082565b610e60610e5b6114a4565b611772565b565b60095481565b60065481565b610e7961034e6114a4565b610e955760405162461bcd60e51b815260040161052e906124e5565b610e9e816117ba565b50565b610eac61034e6114a4565b610ec85760405162461bcd60e51b815260040161052e906124e5565b60015460ff1615610eeb5760405162461bcd60e51b815260040161052e90612555565b6001805460ff1916811790557f62e78cea01bee320cd4e420270b5ea74000d11b0c9f74754ebdbfc544b05a258610b086114a4565b610f2b61034e6114a4565b610f475760405162461bcd60e51b815260040161052e906124e5565b60015460ff1615610f6a5760405162461bcd60e51b815260040161052e90612555565b806009541415610f8c5760405162461bcd60e51b815260040161052e90612505565b60008111610fac5760405162461bcd60e51b815260040161052e906125c5565b600980549082905560405133906e5465726d7345787069727954696d6560881b906000805160206126f5833981519152906105dd9085908790612653565b60085481565b610ffb61034e6114a4565b6110175760405162461bcd60e51b815260040161052e906124e5565b60015460ff161561103a5760405162461bcd60e51b815260040161052e90612555565b60408051808201909152601981527f41535345545f414444524553535f49535f5245515549524544000000000000006020820152611088906001600160a01b0383169063ffffffff6114a816565b6001600160a01b03811660009081526003602052604090206110a990611802565b6001600160a01b038116600090815260036020526040812080546001600160a01b0319168155600101556110e460048263ffffffff61182c16565b506040516001600160a01b0382169033907fff739057fdc41db152d18e4a53b9ed8db9afe0b5b7bc4c9e7e60168cb6a0d7e790600090a350565b60075481565b600061112e610b96565b905090565b61113e61034e6114a4565b61115a5760405162461bcd60e51b815260040161052e906124e5565b60015460ff161561117d5760405162461bcd60e51b815260040161052e90612555565b80600b54141561119f5760405162461bcd60e51b815260040161052e90612505565b600081116111bf5760405162461bcd60e51b815260040161052e90612535565b600b80549082905560405133907226b0bc34b6bab6a637b0b7223ab930ba34b7b760691b906000805160206126f5833981519152906105dd9085908790612653565b6c13585e131bd85b905b5bdd5b9d609a1b81565b60055481565b6f4d6178696d756d546f6c6572616e636560801b81565b7226b0bc34b6bab6a637b0b7223ab930ba34b7b760691b81565b6004818154811061125957fe5b6000918252602090912001546001600160a01b0316905081565b61127e61034e6114a4565b61129a5760405162461bcd60e51b815260040161052e906124e5565b60015460ff16156112bd5760405162461bcd60e51b815260040161052e90612555565b80600a5414156112df5760405162461bcd60e51b815260040161052e90612505565b600081116112ff5760405162461bcd60e51b815260040161052e90612515565b600a8054908290556040513390704c6971756964617465457468507269636560781b906000805160206126f5833981519152906105dd9085908790612653565b6e5465726d7345787069727954696d6560881b81565b730a4cae6e0dedce6ca8af0e0d2e4f298cadccee8d60631b81565b6000610b4b82610b39565b6c43546f6b656e4164647265737360981b81565b61139a61034e6114a4565b6113b65760405162461bcd60e51b815260040161052e906124e5565b60015460ff16156113d95760405162461bcd60e51b815260040161052e90612555565b60408051808201909152601881527713115391125391d7d413d3d317d254d7d49154555254915160421b6020820152611422906001600160a01b0383169063ffffffff6114a816565b6001600160a01b03811660009081526002602052604090205460ff1661145a5760405162461bcd60e51b815260040161052e90612605565b6001600160a01b038116600081815260026020526040808220805460ff191690555133917fc55a972437581d7d7bfd8729cdde06ee7e788e1a407b4cfdc6a0330d04b391f191a350565b3390565b6114b1826118b6565b81906114d05760405162461bcd60e51b815260040161052e91906124a4565b505050565b6114de82611802565b80826001015414156115025760405162461bcd60e51b815260040161052e90612595565b600081116115225760405162461bcd60e51b815260040161052e906125f5565b600190910155565b61153382611802565b81546001600160a01b03828116911614156115605760405162461bcd60e51b815260040161052e90612575565b81546001600160a01b0319166001600160a01b0391909116179055565b60006001600160a01b0382166115a55760405162461bcd60e51b815260040161052e906125b5565b506001600160a01b03166000908152602091909152604090205460ff1690565b6000813f7fc5d2460186f7233c927e7db2dcc703c0e500b653ca82273b7bfad8045d85a4708181148015906115f957508115155b949350505050565b61160a816118c4565b15610e9e5760405162461bcd60e51b815260040161052e90612625565b600081116116475760405162461bcd60e51b815260040161052e90612565565b611659826001600160a01b03166118cd565b806116715750611671826001600160a01b03166115c5565b61168d5760405162461bcd60e51b815260040161052e906124f5565b82546001600160a01b0319166001600160a01b0392909216919091178255600190910155565b60606001600160a01b0382166116db5760405162461bcd60e51b815260040161052e90612525565b8254600181018455600084815260209081902090910180546001600160a01b0319166001600160a01b038516179055835460408051828402810184019091528181529185919083018282801561175a57602002820191906000526020600020905b81546001600160a01b0316815260019091019060200180831161173c575b5050505050905092915050565b600191909101541090565b61178360008263ffffffff6118da16565b6040516001600160a01b038216907fcd265ebaf09df2871cc7bd4133404a235ba12eff2041bb89d9c714a2621c7c7e90600090a250565b6117cb60008263ffffffff61192216565b6040516001600160a01b038216907f6719d08c1888103bea251a4ed56406bd0c3e69723c8a1686e017e7bbe159b6f890600090a250565b61180b816118c4565b1515600114610e9e5760405162461bcd60e51b815260040161052e906125a5565b606060008061183b858561196e565b91509150816118a35784546040805160208084028201810190925282815291879183018282801561189557602002820191906000526020600020905b81546001600160a01b03168152600190910190602001808311611877575b505050505092505050610b4b565b6118ad85826119c3565b95945050505050565b6001600160a01b0316151590565b60010154151590565b6001600160a01b03161590565b6118e4828261157d565b6119005760405162461bcd60e51b815260040161052e90612585565b6001600160a01b0316600090815260209190915260409020805460ff19169055565b61192c828261157d565b156119495760405162461bcd60e51b815260040161052e906124d5565b6001600160a01b0316600090815260209190915260409020805460ff19166001179055565b6000805b83548110156119bc57826001600160a01b031684828154811061199157fe5b6000918252602090912001546001600160a01b031614915081156119b4576119bc565b600101611972565b9250929050565b81546060908210611a2b57825460408051602080840282018101909252828152918591830182828015611a1f57602002820191906000526020600020905b81546001600160a01b03168152600190910190602001808311611a01575b50505050509050610b4b565b825460001901821415611acf57825483906000198101908110611a4a57fe5b600091825260209091200180546001600160a01b03191690558254611a73846000198301611c4b565b50825460408051602080840282018101909252828152918591830182828015611a1f576020028201919060005260206000209081546001600160a01b03168152600190910190602001808311611a015750505050509050610b4b565b825460009084906000198101908110611ae457fe5b60009182526020909120015484546001600160a01b039091169150849084908110611b0b57fe5b60009182526020909120015484546001600160a01b039091169085906000198101908110611b3557fe5b9060005260206000200160006101000a8154816001600160a01b0302191690836001600160a01b0316021790555080848481548110611b7057fe5b600091825260209091200180546001600160a01b0319166001600160a01b0392909216919091179055835484906000198101908110611bab57fe5b600091825260209091200180546001600160a01b03191690558354611bd4856000198301611c4b565b50835460408051602080840282018101909252828152918691830182828015611c2657602002820191906000526020600020905b81546001600160a01b03168152600190910190602001808311611c08575b505050505091505092915050565b604080518082019091526000808252602082015290565b8154818355818111156114d0576000838152602090206114d0918101908301610b9d91905b80821115611c845760008155600101611c70565b5090565b8035610b4b816126d7565b8035610b4b816126eb565b600060208284031215611cb057600080fd5b60006115f98484611c88565b60008060408385031215611ccf57600080fd5b6000611cdb8585611c88565b9250506020611cec85828601611c88565b9150509250929050565b600080600060608486031215611d0b57600080fd5b6000611d178686611c88565b9350506020611d2886828701611c88565b9250506040611d3986828701611c93565b9150509250925092565b60008060408385031215611d5657600080fd5b6000611d628585611c88565b9250506020611cec85828601611c93565b600060208284031215611d8557600080fd5b60006115f98484611c93565b6000611d9d8383611db4565b505060200190565b611dae81612690565b82525050565b611dae81612674565b6000611dc882612667565b611dd2818561266b565b9350611ddd83612661565b8060005b83811015611e0b578151611df58882611d91565b9750611e0083612661565b925050600101611de1565b509495945050505050565b611dae8161267f565b611dae81610b9d565b6000611e3382612667565b611e3d818561266b565b9350611e4d8185602086016126a1565b611e56816126cd565b9093019392505050565b6000611e6d601b8361266b565b7f4c454e44494e475f504f4f4c5f414c52454144595f5041555345440000000000815260200192915050565b6000611ea660148361266b565b7314185d5cd8589b194e881b9bdd081c185d5cd95960621b815260200192915050565b6000611ed6601f8361266b565b7f526f6c65733a206163636f756e7420616c72656164792068617320726f6c6500815260200192915050565b6000611f0f60308361266b565b7f506175736572526f6c653a2063616c6c657220646f6573206e6f74206861766581526f207468652050617573657220726f6c6560801b602082015260400192915050565b6000611f6160208361266b565b7f43544f4b454e5f4d5553545f42455f434f4e54524143545f4f525f454d505459815260200192915050565b6000611f9a60128361266b565b71139155d7d59053155157d49154555254915160721b815260200192915050565b6000611fc860168361266b565b754d5553545f50524f564944455f4554485f505249434560501b815260200192915050565b6000611ffa60198361266b565b7f454d5054595f414444524553535f4e4f545f414c4c4f57454400000000000000815260200192915050565b600061203360228361266b565b7f4d5553545f50524f564944455f4d4158494d554d5f4c4f414e5f44555241544981526127a760f11b602082015260400192915050565b6000612077601a8361266b565b7f4d5553545f50524f564944455f52455155495245445f53554253000000000000815260200192915050565b60006120b060108361266b565b6f14185d5cd8589b194e881c185d5cd95960821b815260200192915050565b60006120dc60188361266b565b7f494e49545f4d41585f414d4f554e545f52455155495245440000000000000000815260200192915050565b6000612115601b8361266b565b7f4e45575f43544f4b454e5f414444524553535f52455155495245440000000000815260200192915050565b600061214e60218361266b565b7f526f6c65733a206163636f756e7420646f6573206e6f74206861766520726f6c8152606560f81b602082015260400192915050565b6000612191601c8361266b565b7f4e45575f4d41585f4c4f414e5f414d4f554e545f524551554952454400000000815260200192915050565b60006121ca60198361266b565b7f41535345545f53455454494e47535f4e4f545f45584953545300000000000000815260200192915050565b600061220360228361266b565b7f526f6c65733a206163636f756e7420697320746865207a65726f206164647265815261737360f01b602082015260400192915050565b600061224760198361266b565b7f4d5553545f50524f564944455f5445524d535f45585049525900000000000000815260200192915050565b6000612280601e8361266b565b7f41535345545f414444524553535f4d5553545f42455f434f4e54524143540000815260200192915050565b60006122b9601c8361266b565b7f4d5553545f50524f564944455f5341464554595f494e54455256414c00000000815260200192915050565b60006122f260188361266b565b7f4d41585f4c4f414e5f414d4f554e545f4e4f545f5a45524f0000000000000000815260200192915050565b600061232b601a8361266b565b7f4c454e44494e475f504f4f4c5f49535f4e4f545f504155534544000000000000815260200192915050565b600061236460198361266b565b7f4d5553545f50524f564944455f524553504f4e53455f45585000000000000000815260200192915050565b600061239d601d8361266b565b7f41535345545f53455454494e47535f414c52454144595f455849535453000000815260200192915050565b60006123d660168361266b565b7513505617d513d31154905390d157d15610d15151115160521b815260200192915050565b8051604083019061240c8482611db4565b50602082015161241f6020850182611e1f565b50505050565b60208101610b4b8284611db4565b60208101610b4b8284611da5565b6040810161244f8285611db4565b610d566020830184611db4565b6040810161246a8285611db4565b610d566020830184611e1f565b60208082528101610d568184611dbd565b60208101610b4b8284611e16565b60208101610b4b8284611e1f565b60208082528101610d568184611e28565b60208082528101610b4b81611e60565b60208082528101610b4b81611e99565b60208082528101610b4b81611ec9565b60208082528101610b4b81611f02565b60208082528101610b4b81611f54565b60208082528101610b4b81611f8d565b60208082528101610b4b81611fbb565b60208082528101610b4b81611fed565b60208082528101610b4b81612026565b60208082528101610b4b8161206a565b60208082528101610b4b816120a3565b60208082528101610b4b816120cf565b60208082528101610b4b81612108565b60208082528101610b4b81612141565b60208082528101610b4b81612184565b60208082528101610b4b816121bd565b60208082528101610b4b816121f6565b60208082528101610b4b8161223a565b60208082528101610b4b81612273565b60208082528101610b4b816122ac565b60208082528101610b4b816122e5565b60208082528101610b4b8161231e565b60208082528101610b4b81612357565b60208082528101610b4b81612390565b60208082528101610b4b816123c9565b60408101610b4b82846123fb565b6040810161246a8285611e1f565b60200190565b5190565b90815260200190565b6000610b4b82612684565b151590565b6001600160a01b031690565b6000610b4b826000610b4b82612674565b60005b838110156126bc5781810151838201526020016126a4565b8381111561241f5750506000910152565b601f01601f191690565b6126e081612674565b8114610e9e57600080fd5b6126e081610b9d56fe45c601233c412abb42eff2f29f997f56948e3cc51570478766f4b2c7aedcb4dba365627a7a723158208cc0754cfa252db00624b50ce42c6e3abcc2a95352ca606b74e3b7aa15eedb3a6c6578706572696d656e74616cf564736f6c63430005110040",
  "source": "pragma solidity 0.5.17;\npragma experimental ABIEncoderV2;\n\n// Libraries\nimport \"@openzeppelin/contracts/lifecycle/Pausable.sol\";\n\n// Commons\nimport \"@openzeppelin/contracts/utils/Address.sol\";\nimport \"../util/AddressLib.sol\";\nimport \"../util/AssetSettingsLib.sol\";\nimport \"../util/AddressArrayLib.sol\";\n\n// Interfaces\nimport \"../interfaces/SettingsInterface.sol\";\n\n\n/**\n    @notice This contract manages the configuration of the platform.\n\n    @author develop@teller.finance\n */\ncontract Settings is Pausable, SettingsInterface {\n    using AddressLib for address;\n    using Address for address;\n    using AssetSettingsLib for AssetSettingsLib.AssetSettings;\n    using AddressArrayLib for address[];\n\n    /** Constants */\n    /**\n        The maximum tolerance is a percentage with 2 decimals.\n        Examples:\n            350 => 3.5%\n            4000 => 40.00%\n        \n        The max value is 100% => 10000\n    */\n    uint256 internal constant MAX_MAXIMUM_TOLERANCE_VALUE = 10000;\n\n    /**\n        @notice The setting name for the required subsmission settings.\n     */\n    bytes32 public constant REQUIRED_SUBMISSIONS_SETTING = \"RequiredSubmissions\";\n    /**\n        @notice The setting name for the maximum tolerance settings.\n     */\n    bytes32 public constant MAXIMUM_TOLERANCE_SETTING = \"MaximumTolerance\";\n    /**\n        @notice The setting name for the response expiry length settings.\n     */\n    bytes32 public constant RESPONSE_EXPIRY_LENGTH_SETTING = \"ResponseExpiryLength\";\n    /**\n        @notice The setting name for the safety interval settings.\n     */\n    bytes32 public constant SAFETY_INTERVAL_SETTING = \"SafetyInterval\";\n    /**\n        @notice The setting name for the term expiry time settings.\n     */\n    bytes32 public constant TERMS_EXPIRY_TIME_SETTING = \"TermsExpiryTime\";\n    /**\n        @notice The setting name for the liquidate ETH price settings.\n     */\n    bytes32 public constant LIQUIDATE_ETH_PRICE_SETTING = \"LiquidateEthPrice\";\n    /**\n        @notice The setting name for the maximum loan duration settings.\n     */\n    bytes32 public constant MAXIMUM_LOAN_DURATION_SETTING = \"MaximumLoanDuration\";\n    /**\n        @notice The asset setting name for the maximum loan amount settings.\n     */\n    bytes32 public constant MAX_LOAN_AMOUNT_ASSET_SETTING = \"MaxLoanAmount\";\n    /**\n        @notice The asset setting name for cToken address settings.\n     */\n    bytes32 public constant CTOKEN_ADDRESS_ASSET_SETTING = \"CTokenAddress\";\n\n    /* State Variables */\n\n    /**\n        @notice It represents a mapping to identify the lending pools paused and not paused.\n\n        i.e.: address(lending pool) => true or false.\n     */\n    mapping(address => bool) public lendingPoolPaused;\n\n    /**\n        @notice It represents a mapping to configure the asset settings.\n        @notice The key belongs to the asset address. Example: address(DAI) or address(USDC).\n        @notice The value has the asset settings.\n\n        Examples:\n\n        address(DAI) => {\n            cTokenAddress = 0x1234...890\n            maxLoanAmount = 1000 DAI (max)\n        }\n        address(USDC) => {\n            cTokenAddress = 0x2345...901\n            maxLoanAmount = 500 USDC (max)\n        }\n     */\n    mapping(address => AssetSettingsLib.AssetSettings) public assetSettings;\n\n    /**\n        @notice It contains all the current assets.\n     */\n    address[] public assets;\n\n    /**\n        It represents the total number of submissions required for consensus on a value.\n     */\n    uint256 public requiredSubmissions;\n\n    /**\n        This is the maximum tolerance (a percentage) when the values submitted for the nodes are aggregated.\n        It is used to calculate the collateral ratio, interest rate, and others.\n \n        This is a percentage with 2 decimal places.\n        i.e. maximumTolerance of 325 => tolerance of 3.25% => 0.0325 of value\n        i.e. maximumTolerance of 0 => It means all the values submitted must be equals.\n     */\n    uint256 public maximumTolerance;\n\n    /**\n        This is the maximum time (in seconds) a node has to submit a response. After that time, the response is considered expired.\n     */\n    uint256 public responseExpiryLength;\n\n    /**\n        This is the minimum time you need to wait (in seconds) between the last time you deposit collateral and you take out the loan.\n        It is used to avoid potential attacks using Flash Loans (AAVE) or Flash Swaps (Uniswap V2).\n     */\n    uint256 public safetyInterval;\n\n    /**\n        This represents the time (in seconds) that loan terms will be available after requesting them.\n        After this time, the loan terms will expire and the borrower will need to request it again. \n     */\n    uint256 public termsExpiryTime;\n\n    /**\n        It represents the percentage value (with 2 decimal places) to liquidate loans.\n        \n        i.e. an ETH liquidation price at 95% is stored as 9500\n     */\n    uint256 public liquidateEthPrice;\n    /**\n        It represents the maximum duration for a loan. It is defined in seconds.\n     */\n    uint256 public maximumLoanDuration;\n\n    /** Modifiers */\n\n    /* Constructor */\n\n    /**\n        @notice It creates a new Settings instance.\n        @param aRequiredSubmissions the initial value for the required submissions setting.\n        @param aMaximumTolerance the initial value for the maximum tolerance setting.\n        @param aResponseExpiryLength the initial value for the response expiry length setting.\n        @param aSafetyInterval the initial value for the safety interval setting.\n        @param aTermsExpiryTime the initial value for the terms expiry time setting.\n        @param aLiquidateEthPrice the initial value for the liquidate ETH price setting.\n        @param aMaximumLoanDuration the initial value for the max loan duration setting.\n     */\n    constructor(\n        uint256 aRequiredSubmissions,\n        uint256 aMaximumTolerance,\n        uint256 aResponseExpiryLength,\n        uint256 aSafetyInterval,\n        uint256 aTermsExpiryTime,\n        uint256 aLiquidateEthPrice,\n        uint256 aMaximumLoanDuration\n    ) public {\n        require(aRequiredSubmissions > 0, \"MUST_PROVIDE_REQUIRED_SUBS\");\n        require(aResponseExpiryLength > 0, \"MUST_PROVIDE_RESPONSE_EXP\");\n        require(aSafetyInterval > 0, \"MUST_PROVIDE_SAFETY_INTERVAL\");\n        require(aTermsExpiryTime > 0, \"MUST_PROVIDE_TERMS_EXPIRY\");\n        require(aLiquidateEthPrice > 0, \"MUST_PROVIDE_ETH_PRICE\");\n        require(aMaximumLoanDuration > 0, \"MUST_PROVIDE_MAX_LOAN_DURATION\");\n\n        requiredSubmissions = aRequiredSubmissions;\n        maximumTolerance = aMaximumTolerance;\n        responseExpiryLength = aResponseExpiryLength;\n        safetyInterval = aSafetyInterval;\n        termsExpiryTime = aTermsExpiryTime;\n        liquidateEthPrice = aLiquidateEthPrice;\n        maximumLoanDuration = aMaximumLoanDuration;\n    }\n\n    /** External Functions */\n\n    /**\n        @notice Sets the required responses to process consensus values.\n        @param newRequiredSubmissions the new required submissions value.\n     */\n    function setRequiredSubmissions(uint256 newRequiredSubmissions)\n        external\n        onlyPauser()\n        whenNotPaused()\n    {\n        require(requiredSubmissions != newRequiredSubmissions, \"NEW_VALUE_REQUIRED\");\n        require(newRequiredSubmissions > 0, \"MUST_PROVIDE_REQUIRED_SUBS\");\n        uint256 oldRequiredSubmissions = requiredSubmissions;\n        requiredSubmissions = newRequiredSubmissions;\n\n        emit SettingUpdated(\n            REQUIRED_SUBMISSIONS_SETTING,\n            msg.sender,\n            oldRequiredSubmissions,\n            newRequiredSubmissions\n        );\n    }\n\n    /**\n        @notice This is the maximum tolerance for the values submitted (by nodes) when they are aggregated (average). It is used in the consensus mechanisms.\n        @notice This is a percentage value with 2 decimal places.\n            i.e. maximumTolerance of 325 => tolerance of 3.25% => 0.0325 of value\n            i.e. maximumTolerance of 0 => It means all the values submitted must be equals.        \n        @dev The max value is 100% => 10000\n        @param newMaximumTolerance new maximum tolerance value.\n        @return the current maximum tolerance value.\n     */\n    function setMaximumTolerance(uint256 newMaximumTolerance)\n        external\n        onlyPauser()\n        whenNotPaused()\n    {\n        require(maximumTolerance != newMaximumTolerance, \"NEW_VALUE_REQUIRED\");\n        require(\n            newMaximumTolerance <= MAX_MAXIMUM_TOLERANCE_VALUE,\n            \"MAX_TOLERANCE_EXCEEDED\"\n        );\n        uint256 oldMaximumTolerance = maximumTolerance;\n        maximumTolerance = newMaximumTolerance;\n\n        emit SettingUpdated(\n            MAXIMUM_TOLERANCE_SETTING,\n            msg.sender,\n            oldMaximumTolerance,\n            newMaximumTolerance\n        );\n    }\n\n    /**\n        @notice Sets a new value for the response expiry length setting.\n        @param newResponseExpiryLength new response expiry length value.\n     */\n    function setResponseExpiryLength(uint256 newResponseExpiryLength)\n        external\n        onlyPauser()\n        whenNotPaused()\n    {\n        require(responseExpiryLength != newResponseExpiryLength, \"NEW_VALUE_REQUIRED\");\n        require(newResponseExpiryLength > 0, \"MUST_PROVIDE_RESPONSE_EXP\");\n        uint256 oldResponseExpiryLength = responseExpiryLength;\n        responseExpiryLength = newResponseExpiryLength;\n\n        emit SettingUpdated(\n            RESPONSE_EXPIRY_LENGTH_SETTING,\n            msg.sender,\n            oldResponseExpiryLength,\n            newResponseExpiryLength\n        );\n    }\n\n    /**\n        @notice Sets a new value for the safety interval setting.\n        @param newSafetyInterval new safety interval value.\n    */\n    function setSafetyInterval(uint256 newSafetyInterval)\n        external\n        onlyPauser()\n        whenNotPaused()\n    {\n        require(safetyInterval != newSafetyInterval, \"NEW_VALUE_REQUIRED\");\n        require(newSafetyInterval > 0, \"MUST_PROVIDE_SAFETY_INTERVAL\");\n        uint256 oldSafetyInterval = safetyInterval;\n        safetyInterval = newSafetyInterval;\n\n        emit SettingUpdated(\n            SAFETY_INTERVAL_SETTING,\n            msg.sender,\n            oldSafetyInterval,\n            newSafetyInterval\n        );\n    }\n\n    /**\n        @notice Sets a new value for the terms expiry time setting.\n        @param newTermsExpiryTime new terms expiry time value.\n    */\n    function setTermsExpiryTime(uint256 newTermsExpiryTime)\n        external\n        onlyPauser()\n        whenNotPaused()\n    {\n        require(termsExpiryTime != newTermsExpiryTime, \"NEW_VALUE_REQUIRED\");\n        require(newTermsExpiryTime > 0, \"MUST_PROVIDE_TERMS_EXPIRY\");\n        uint256 oldTermsExpiryTime = termsExpiryTime;\n        termsExpiryTime = newTermsExpiryTime;\n\n        emit SettingUpdated(\n            TERMS_EXPIRY_TIME_SETTING,\n            msg.sender,\n            oldTermsExpiryTime,\n            newTermsExpiryTime\n        );\n    }\n\n    /**\n        @notice Sets a new value for the liquidate ETH price setting.\n        @param newLiquidateEthPrice new liquidate ETH price value.\n    */\n    function setLiquidateEthPrice(uint256 newLiquidateEthPrice)\n        external\n        onlyPauser()\n        whenNotPaused()\n    {\n        require(liquidateEthPrice != newLiquidateEthPrice, \"NEW_VALUE_REQUIRED\");\n        require(newLiquidateEthPrice > 0, \"MUST_PROVIDE_ETH_PRICE\");\n        uint256 oldLiquidateEthPrice = liquidateEthPrice;\n        liquidateEthPrice = newLiquidateEthPrice;\n\n        emit SettingUpdated(\n            LIQUIDATE_ETH_PRICE_SETTING,\n            msg.sender,\n            oldLiquidateEthPrice,\n            newLiquidateEthPrice\n        );\n    }\n\n    /**\n        @notice Sets a new value for maximum loan duration setting (in seconds).\n        @param newMaximumLoanDuration new maximum loan duration value.\n     */\n    function setMaximumLoanDuration(uint256 newMaximumLoanDuration)\n        external\n        onlyPauser()\n        whenNotPaused()\n    {\n        require(maximumLoanDuration != newMaximumLoanDuration, \"NEW_VALUE_REQUIRED\");\n        require(newMaximumLoanDuration > 0, \"MUST_PROVIDE_MAXIMUM_LOAN_DURATION\");\n        uint256 oldMaximumLoanDuration = maximumLoanDuration;\n        maximumLoanDuration = newMaximumLoanDuration;\n\n        emit SettingUpdated(\n            MAXIMUM_LOAN_DURATION_SETTING,\n            msg.sender,\n            oldMaximumLoanDuration,\n            newMaximumLoanDuration\n        );\n    }\n\n    /**\n        @notice It pauses a specific lending pool.\n        @param lendingPoolAddress lending pool address to pause.\n     */\n    function pauseLendingPool(address lendingPoolAddress)\n        external\n        onlyPauser()\n        whenNotPaused()\n    {\n        lendingPoolAddress.requireNotEmpty(\"LENDING_POOL_IS_REQUIRED\");\n        require(!lendingPoolPaused[lendingPoolAddress], \"LENDING_POOL_ALREADY_PAUSED\");\n\n        lendingPoolPaused[lendingPoolAddress] = true;\n\n        emit LendingPoolPaused(msg.sender, lendingPoolAddress);\n    }\n\n    /**\n        @notice It unpauses a specific lending pool.\n        @param lendingPoolAddress lending pool address to unpause.\n     */\n    function unpauseLendingPool(address lendingPoolAddress)\n        external\n        onlyPauser()\n        whenNotPaused()\n    {\n        lendingPoolAddress.requireNotEmpty(\"LENDING_POOL_IS_REQUIRED\");\n        require(lendingPoolPaused[lendingPoolAddress], \"LENDING_POOL_IS_NOT_PAUSED\");\n\n        lendingPoolPaused[lendingPoolAddress] = false;\n\n        emit LendingPoolUnpaused(msg.sender, lendingPoolAddress);\n    }\n\n    /**\n        @notice It gets whether the platform is paused or not.\n        @return true if platform is paused. Otherwise it returns false.\n     */\n    function isPaused() external view returns (bool) {\n        return paused();\n    }\n\n    /**\n        @notice It creates a new asset settings in the platform.\n        @param assetAddress asset address used to create the new setting.\n        @param cTokenAddress cToken address used to configure the asset setting.\n        @param maxLoanAmount the max loan amount used to configure the asset setting.\n     */\n    function createAssetSettings(\n        address assetAddress,\n        address cTokenAddress,\n        uint256 maxLoanAmount\n    ) external onlyPauser() whenNotPaused() {\n        require(assetAddress.isContract(), \"ASSET_ADDRESS_MUST_BE_CONTRACT\");\n\n        assetSettings[assetAddress].requireNotExists();\n\n        assetSettings[assetAddress].initialize(cTokenAddress, maxLoanAmount);\n\n        assets.add(assetAddress);\n\n        emit AssetSettingsCreated(msg.sender, assetAddress, cTokenAddress, maxLoanAmount);\n    }\n\n    /**\n        @notice It removes all the asset settings for a specific asset address.\n        @param assetAddress asset address used to remove the asset settings.\n     */\n    function removeAssetSettings(address assetAddress)\n        external\n        onlyPauser()\n        whenNotPaused()\n    {\n        assetAddress.requireNotEmpty(\"ASSET_ADDRESS_IS_REQUIRED\");\n        assetSettings[assetAddress].requireExists();\n\n        delete assetSettings[assetAddress];\n        assets.remove(assetAddress);\n\n        emit AssetSettingsRemoved(msg.sender, assetAddress);\n    }\n\n    /**\n        @notice It updates the maximum loan amount for a specific asset address.\n        @param assetAddress asset address to configure.\n        @param newMaxLoanAmount the new maximum loan amount to configure.\n     */\n    function updateMaxLoanAmount(address assetAddress, uint256 newMaxLoanAmount)\n        external\n        onlyPauser()\n        whenNotPaused()\n    {\n        uint256 oldMaxLoanAmount = assetSettings[assetAddress].maxLoanAmount;\n\n        assetSettings[assetAddress].updateMaxLoanAmount(newMaxLoanAmount);\n\n        emit AssetSettingsUintUpdated(\n            MAX_LOAN_AMOUNT_ASSET_SETTING,\n            msg.sender,\n            assetAddress,\n            oldMaxLoanAmount,\n            newMaxLoanAmount\n        );\n    }\n\n    /**\n        @notice It updates the cToken address for a specific asset address.\n        @param assetAddress asset address to configure.\n        @param newCTokenAddress the new cToken address to configure.\n     */\n    function updateCTokenAddress(address assetAddress, address newCTokenAddress)\n        external\n        onlyPauser()\n        whenNotPaused()\n    {\n        address oldCTokenAddress = assetSettings[assetAddress].cTokenAddress;\n\n        assetSettings[assetAddress].updateCTokenAddress(newCTokenAddress);\n\n        emit AssetSettingsAddressUpdated(\n            CTOKEN_ADDRESS_ASSET_SETTING,\n            msg.sender,\n            assetAddress,\n            oldCTokenAddress,\n            newCTokenAddress\n        );\n    }\n\n    /**\n        @notice Tests whether amount exceeds the current maximum loan amount for a specific asset settings.\n        @param assetAddress asset address to test the setting.\n        @param amount amount to test.\n        @return true if amount exceeds current max loan amout. Otherwise it returns false.\n     */\n    function exceedsMaxLoanAmount(address assetAddress, uint256 amount)\n        external\n        view\n        returns (bool)\n    {\n        return assetSettings[assetAddress].exceedsMaxLoanAmount(amount);\n    }\n\n    /**\n        @notice Gets the current asset addresses list.\n        @return the asset addresses list.\n     */\n    function getAssets() external view returns (address[] memory) {\n        return assets;\n    }\n\n    /**\n        @notice Get the current asset settings for a given asset address.\n        @param assetAddress asset address used to get the current settings.\n        @return the current asset settings.\n     */\n    function getAssetSettings(address assetAddress)\n        external\n        view\n        returns (AssetSettingsLib.AssetSettings memory)\n    {\n        return assetSettings[assetAddress];\n    }\n\n    /**\n        @notice Tests whether an account has the pauser role.\n        @param account account to test.\n        @return true if account has the pauser role. Otherwise it returns false.\n     */\n    function hasPauserRole(address account) external view returns (bool) {\n        return isPauser(account);\n    }\n\n    /** Internal functions */\n\n    /** Private functions */\n}\n",
  "sourcePath": "/Users/guillesalazar/Repos/ZeroCollateral/smart-contracts-v1/contracts/base/Settings.sol",
  "compiler": {
    "name": "solc",
    "version": "0.5.17+commit.d19bba13.Emscripten.clang"
  },
  "schemaVersion": "3.2.0",
  "updatedAt": "2020-08-05T12:43:31.518Z",
  "networkType": "ethereum",
  "devdoc": {
    "author": "develop@teller.finance",
    "methods": {
      "constructor": {
        "params": {
          "aLiquidateEthPrice": "the initial value for the liquidate ETH price setting.",
          "aMaximumLoanDuration": "the initial value for the max loan duration setting.",
          "aMaximumTolerance": "the initial value for the maximum tolerance setting.",
          "aRequiredSubmissions": "the initial value for the required submissions setting.",
          "aResponseExpiryLength": "the initial value for the response expiry length setting.",
          "aSafetyInterval": "the initial value for the safety interval setting.",
          "aTermsExpiryTime": "the initial value for the terms expiry time setting."
        }
      },
      "createAssetSettings(address,address,uint256)": {
        "params": {
          "assetAddress": "asset address used to create the new setting.",
          "cTokenAddress": "cToken address used to configure the asset setting.",
          "maxLoanAmount": "the max loan amount used to configure the asset setting."
        }
      },
      "exceedsMaxLoanAmount(address,uint256)": {
        "params": {
          "amount": "amount to test.",
          "assetAddress": "asset address to test the setting."
        },
        "return": "true if amount exceeds current max loan amout. Otherwise it returns false."
      },
      "getAssetSettings(address)": {
        "params": {
          "assetAddress": "asset address used to get the current settings."
        },
        "return": "the current asset settings."
      },
      "getAssets()": {
        "return": "the asset addresses list."
      },
      "hasPauserRole(address)": {
        "params": {
          "account": "account to test."
        },
        "return": "true if account has the pauser role. Otherwise it returns false."
      },
      "isPaused()": {
        "return": "true if platform is paused. Otherwise it returns false."
      },
      "pause()": {
        "details": "Called by a pauser to pause, triggers stopped state."
      },
      "pauseLendingPool(address)": {
        "params": {
          "lendingPoolAddress": "lending pool address to pause."
        }
      },
      "paused()": {
        "details": "Returns true if the contract is paused, and false otherwise."
      },
      "removeAssetSettings(address)": {
        "params": {
          "assetAddress": "asset address used to remove the asset settings."
        }
      },
      "setLiquidateEthPrice(uint256)": {
        "params": {
          "newLiquidateEthPrice": "new liquidate ETH price value."
        }
      },
      "setMaximumLoanDuration(uint256)": {
        "params": {
          "newMaximumLoanDuration": "new maximum loan duration value."
        }
      },
      "setMaximumTolerance(uint256)": {
        "details": "The max value is 100% => 10000",
        "params": {
          "newMaximumTolerance": "new maximum tolerance value."
        },
        "return": "the current maximum tolerance value."
      },
      "setRequiredSubmissions(uint256)": {
        "params": {
          "newRequiredSubmissions": "the new required submissions value."
        }
      },
      "setResponseExpiryLength(uint256)": {
        "params": {
          "newResponseExpiryLength": "new response expiry length value."
        }
      },
      "setSafetyInterval(uint256)": {
        "params": {
          "newSafetyInterval": "new safety interval value."
        }
      },
      "setTermsExpiryTime(uint256)": {
        "params": {
          "newTermsExpiryTime": "new terms expiry time value."
        }
      },
      "unpause()": {
        "details": "Called by a pauser to unpause, returns to normal state."
      },
      "unpauseLendingPool(address)": {
        "params": {
          "lendingPoolAddress": "lending pool address to unpause."
        }
      },
      "updateCTokenAddress(address,address)": {
        "params": {
          "assetAddress": "asset address to configure.",
          "newCTokenAddress": "the new cToken address to configure."
        }
      },
      "updateMaxLoanAmount(address,uint256)": {
        "params": {
          "assetAddress": "asset address to configure.",
          "newMaxLoanAmount": "the new maximum loan amount to configure."
        }
      }
    }
  },
  "userdoc": {
    "methods": {
      "constructor": "It creates a new Settings instance.",
      "createAssetSettings(address,address,uint256)": {
        "notice": "It creates a new asset settings in the platform."
      },
      "exceedsMaxLoanAmount(address,uint256)": {
        "notice": "Tests whether amount exceeds the current maximum loan amount for a specific asset settings."
      },
      "getAssetSettings(address)": {
        "notice": "Get the current asset settings for a given asset address."
      },
      "getAssets()": {
        "notice": "Gets the current asset addresses list."
      },
      "hasPauserRole(address)": {
        "notice": "Tests whether an account has the pauser role."
      },
      "isPaused()": {
        "notice": "It gets whether the platform is paused or not."
      },
      "pauseLendingPool(address)": {
        "notice": "It pauses a specific lending pool."
      },
      "removeAssetSettings(address)": {
        "notice": "It removes all the asset settings for a specific asset address."
      },
      "setLiquidateEthPrice(uint256)": {
        "notice": "Sets a new value for the liquidate ETH price setting."
      },
      "setMaximumLoanDuration(uint256)": {
        "notice": "Sets a new value for maximum loan duration setting (in seconds)."
      },
      "setMaximumTolerance(uint256)": {
        "notice": "This is the maximum tolerance for the values submitted (by nodes) when they are aggregated (average). It is used in the consensus mechanisms.This is a percentage value with 2 decimal places. i.e. maximumTolerance of 325 => tolerance of 3.25% => 0.0325 of value i.e. maximumTolerance of 0 => It means all the values submitted must be equals.        "
      },
      "setRequiredSubmissions(uint256)": {
        "notice": "Sets the required responses to process consensus values."
      },
      "setResponseExpiryLength(uint256)": {
        "notice": "Sets a new value for the response expiry length setting."
      },
      "setSafetyInterval(uint256)": {
        "notice": "Sets a new value for the safety interval setting."
      },
      "setTermsExpiryTime(uint256)": {
        "notice": "Sets a new value for the terms expiry time setting."
      },
      "unpauseLendingPool(address)": {
        "notice": "It unpauses a specific lending pool."
      },
      "updateCTokenAddress(address,address)": {
        "notice": "It updates the cToken address for a specific asset address."
      },
      "updateMaxLoanAmount(address,uint256)": {
        "notice": "It updates the maximum loan amount for a specific asset address."
      }
    },
    "notice": "This contract manages the configuration of the platform."
  }
}