{
  "contractName": "Settings",
  "abi": [
    {
      "inputs": [
        {
          "internalType": "uint256",
          "name": "aRequiredSubmissions",
          "type": "uint256"
        },
        {
          "internalType": "uint256",
          "name": "aMaximumTolerance",
          "type": "uint256"
        },
        {
          "internalType": "uint256",
          "name": "aResponseExpiryLength",
          "type": "uint256"
        },
        {
          "internalType": "uint256",
          "name": "aSafetyInterval",
          "type": "uint256"
        },
        {
          "internalType": "uint256",
          "name": "aTermsExpiryTime",
          "type": "uint256"
        },
        {
          "internalType": "uint256",
          "name": "aLiquidateEthPrice",
          "type": "uint256"
        }
      ],
      "payable": false,
      "stateMutability": "nonpayable",
      "type": "constructor"
    },
    {
      "anonymous": false,
      "inputs": [
        {
          "indexed": true,
          "internalType": "address",
          "name": "account",
          "type": "address"
        },
        {
          "indexed": true,
          "internalType": "address",
          "name": "lendingPoolAddress",
          "type": "address"
        }
      ],
      "name": "LendingPoolPaused",
      "type": "event"
    },
    {
      "anonymous": false,
      "inputs": [
        {
          "indexed": true,
          "internalType": "address",
          "name": "account",
          "type": "address"
        },
        {
          "indexed": true,
          "internalType": "address",
          "name": "lendingPoolAddress",
          "type": "address"
        }
      ],
      "name": "LendingPoolUnpaused",
      "type": "event"
    },
    {
      "anonymous": false,
      "inputs": [
        {
          "indexed": false,
          "internalType": "address",
          "name": "account",
          "type": "address"
        }
      ],
      "name": "Paused",
      "type": "event"
    },
    {
      "anonymous": false,
      "inputs": [
        {
          "indexed": true,
          "internalType": "address",
          "name": "account",
          "type": "address"
        }
      ],
      "name": "PauserAdded",
      "type": "event"
    },
    {
      "anonymous": false,
      "inputs": [
        {
          "indexed": true,
          "internalType": "address",
          "name": "account",
          "type": "address"
        }
      ],
      "name": "PauserRemoved",
      "type": "event"
    },
    {
      "anonymous": false,
      "inputs": [
        {
          "indexed": true,
          "internalType": "bytes32",
          "name": "settingName",
          "type": "bytes32"
        },
        {
          "indexed": true,
          "internalType": "address",
          "name": "sender",
          "type": "address"
        },
        {
          "indexed": false,
          "internalType": "uint256",
          "name": "oldValue",
          "type": "uint256"
        },
        {
          "indexed": false,
          "internalType": "uint256",
          "name": "newValue",
          "type": "uint256"
        }
      ],
      "name": "SettingUpdated",
      "type": "event"
    },
    {
      "anonymous": false,
      "inputs": [
        {
          "indexed": false,
          "internalType": "address",
          "name": "account",
          "type": "address"
        }
      ],
      "name": "Unpaused",
      "type": "event"
    },
    {
      "constant": true,
      "inputs": [],
      "name": "LIQUIDATE_ETH_PRICE_SETTING",
      "outputs": [
        {
          "internalType": "bytes32",
          "name": "",
          "type": "bytes32"
        }
      ],
      "payable": false,
      "stateMutability": "view",
      "type": "function"
    },
    {
      "constant": true,
      "inputs": [],
      "name": "MAXIMUM_TOLERANCE_SETTING",
      "outputs": [
        {
          "internalType": "bytes32",
          "name": "",
          "type": "bytes32"
        }
      ],
      "payable": false,
      "stateMutability": "view",
      "type": "function"
    },
    {
      "constant": true,
      "inputs": [],
      "name": "REQUIRED_SUBMISSIONS_SETTING",
      "outputs": [
        {
          "internalType": "bytes32",
          "name": "",
          "type": "bytes32"
        }
      ],
      "payable": false,
      "stateMutability": "view",
      "type": "function"
    },
    {
      "constant": true,
      "inputs": [],
      "name": "RESPONSE_EXPIRY_LENGTH_SETTING",
      "outputs": [
        {
          "internalType": "bytes32",
          "name": "",
          "type": "bytes32"
        }
      ],
      "payable": false,
      "stateMutability": "view",
      "type": "function"
    },
    {
      "constant": true,
      "inputs": [],
      "name": "SAFETY_INTERVAL_LENGTH_SETTING",
      "outputs": [
        {
          "internalType": "bytes32",
          "name": "",
          "type": "bytes32"
        }
      ],
      "payable": false,
      "stateMutability": "view",
      "type": "function"
    },
    {
      "constant": true,
      "inputs": [],
      "name": "TERMS_EXPIRY_TIME_SETTING",
      "outputs": [
        {
          "internalType": "bytes32",
          "name": "",
          "type": "bytes32"
        }
      ],
      "payable": false,
      "stateMutability": "view",
      "type": "function"
    },
    {
      "constant": false,
      "inputs": [
        {
          "internalType": "address",
          "name": "account",
          "type": "address"
        }
      ],
      "name": "addPauser",
      "outputs": [],
      "payable": false,
      "stateMutability": "nonpayable",
      "type": "function"
    },
    {
      "constant": true,
      "inputs": [
        {
          "internalType": "address",
          "name": "account",
          "type": "address"
        }
      ],
      "name": "isPauser",
      "outputs": [
        {
          "internalType": "bool",
          "name": "",
          "type": "bool"
        }
      ],
      "payable": false,
      "stateMutability": "view",
      "type": "function"
    },
    {
      "constant": true,
      "inputs": [
        {
          "internalType": "address",
          "name": "",
          "type": "address"
        }
      ],
      "name": "lendingPoolPaused",
      "outputs": [
        {
          "internalType": "bool",
          "name": "",
          "type": "bool"
        }
      ],
      "payable": false,
      "stateMutability": "view",
      "type": "function"
    },
    {
      "constant": true,
      "inputs": [],
      "name": "liquidateEthPrice",
      "outputs": [
        {
          "internalType": "uint256",
          "name": "",
          "type": "uint256"
        }
      ],
      "payable": false,
      "stateMutability": "view",
      "type": "function"
    },
    {
      "constant": true,
      "inputs": [],
      "name": "maximumTolerance",
      "outputs": [
        {
          "internalType": "uint256",
          "name": "",
          "type": "uint256"
        }
      ],
      "payable": false,
      "stateMutability": "view",
      "type": "function"
    },
    {
      "constant": false,
      "inputs": [],
      "name": "pause",
      "outputs": [],
      "payable": false,
      "stateMutability": "nonpayable",
      "type": "function"
    },
    {
      "constant": true,
      "inputs": [],
      "name": "paused",
      "outputs": [
        {
          "internalType": "bool",
          "name": "",
          "type": "bool"
        }
      ],
      "payable": false,
      "stateMutability": "view",
      "type": "function"
    },
    {
      "constant": false,
      "inputs": [],
      "name": "renouncePauser",
      "outputs": [],
      "payable": false,
      "stateMutability": "nonpayable",
      "type": "function"
    },
    {
      "constant": true,
      "inputs": [],
      "name": "requiredSubmissions",
      "outputs": [
        {
          "internalType": "uint256",
          "name": "",
          "type": "uint256"
        }
      ],
      "payable": false,
      "stateMutability": "view",
      "type": "function"
    },
    {
      "constant": true,
      "inputs": [],
      "name": "responseExpiryLength",
      "outputs": [
        {
          "internalType": "uint256",
          "name": "",
          "type": "uint256"
        }
      ],
      "payable": false,
      "stateMutability": "view",
      "type": "function"
    },
    {
      "constant": true,
      "inputs": [],
      "name": "safetyInterval",
      "outputs": [
        {
          "internalType": "uint256",
          "name": "",
          "type": "uint256"
        }
      ],
      "payable": false,
      "stateMutability": "view",
      "type": "function"
    },
    {
      "constant": true,
      "inputs": [],
      "name": "termsExpiryTime",
      "outputs": [
        {
          "internalType": "uint256",
          "name": "",
          "type": "uint256"
        }
      ],
      "payable": false,
      "stateMutability": "view",
      "type": "function"
    },
    {
      "constant": false,
      "inputs": [],
      "name": "unpause",
      "outputs": [],
      "payable": false,
      "stateMutability": "nonpayable",
      "type": "function"
    },
    {
      "constant": false,
      "inputs": [
        {
          "internalType": "uint256",
          "name": "newRequiredSubmissions",
          "type": "uint256"
        }
      ],
      "name": "setRequiredSubmissions",
      "outputs": [],
      "payable": false,
      "stateMutability": "nonpayable",
      "type": "function"
    },
    {
      "constant": false,
      "inputs": [
        {
          "internalType": "uint256",
          "name": "newMaximumTolerance",
          "type": "uint256"
        }
      ],
      "name": "setMaximumTolerance",
      "outputs": [],
      "payable": false,
      "stateMutability": "nonpayable",
      "type": "function"
    },
    {
      "constant": false,
      "inputs": [
        {
          "internalType": "uint256",
          "name": "newResponseExpiryLength",
          "type": "uint256"
        }
      ],
      "name": "setResponseExpiryLength",
      "outputs": [],
      "payable": false,
      "stateMutability": "nonpayable",
      "type": "function"
    },
    {
      "constant": false,
      "inputs": [
        {
          "internalType": "uint256",
          "name": "newSafetyInterval",
          "type": "uint256"
        }
      ],
      "name": "setSafetyInterval",
      "outputs": [],
      "payable": false,
      "stateMutability": "nonpayable",
      "type": "function"
    },
    {
      "constant": false,
      "inputs": [
        {
          "internalType": "uint256",
          "name": "newTermsExpiryTime",
          "type": "uint256"
        }
      ],
      "name": "setTermsExpiryTime",
      "outputs": [],
      "payable": false,
      "stateMutability": "nonpayable",
      "type": "function"
    },
    {
      "constant": false,
      "inputs": [
        {
          "internalType": "uint256",
          "name": "newLiquidateEthPrice",
          "type": "uint256"
        }
      ],
      "name": "setLiquidateEthPrice",
      "outputs": [],
      "payable": false,
      "stateMutability": "nonpayable",
      "type": "function"
    },
    {
      "constant": false,
      "inputs": [
        {
          "internalType": "address",
          "name": "lendingPoolAddress",
          "type": "address"
        }
      ],
      "name": "pauseLendingPool",
      "outputs": [],
      "payable": false,
      "stateMutability": "nonpayable",
      "type": "function"
    },
    {
      "constant": false,
      "inputs": [
        {
          "internalType": "address",
          "name": "lendingPoolAddress",
          "type": "address"
        }
      ],
      "name": "unpauseLendingPool",
      "outputs": [],
      "payable": false,
      "stateMutability": "nonpayable",
      "type": "function"
    },
    {
      "constant": true,
      "inputs": [],
      "name": "isPaused",
      "outputs": [
        {
          "internalType": "bool",
          "name": "",
          "type": "bool"
        }
      ],
      "payable": false,
      "stateMutability": "view",
      "type": "function"
    }
  ],
  "bytecode": "0x60806040523480156200001157600080fd5b506040516200288738038062002887833981810160405260c08110156200003757600080fd5b810190808051906020019092919080519060200190929190805190602001909291908051906020019092919080519060200190929190805190602001909291905050506200009a6200008e6200033e60201b60201c565b6200034660201b60201c565b6000600160006101000a81548160ff021916908315150217905550600086116200012c576040517f08c379a000000000000000000000000000000000000000000000000000000000815260040180806020018281038252601a8152602001807f4d5553545f50524f564944455f52455155495245445f5355425300000000000081525060200191505060405180910390fd5b60008411620001a3576040517f08c379a00000000000000000000000000000000000000000000000000000000081526004018080602001828103825260198152602001807f4d5553545f50524f564944455f524553504f4e53455f4558500000000000000081525060200191505060405180910390fd5b600083116200021a576040517f08c379a000000000000000000000000000000000000000000000000000000000815260040180806020018281038252601c8152602001807f4d5553545f50524f564944455f5341464554595f494e54455256414c0000000081525060200191505060405180910390fd5b6000821162000291576040517f08c379a00000000000000000000000000000000000000000000000000000000081526004018080602001828103825260198152602001807f4d5553545f50524f564944455f5445524d535f4558504952590000000000000081525060200191505060405180910390fd5b6000811162000308576040517f08c379a00000000000000000000000000000000000000000000000000000000081526004018080602001828103825260168152602001807f4d5553545f50524f564944455f4554485f50524943450000000000000000000081525060200191505060405180910390fd5b8560038190555084600481905550836005819055508260068190555081600781905550806008819055505050505050506200056b565b600033905090565b62000361816000620003a760201b620021671790919060201c565b8073ffffffffffffffffffffffffffffffffffffffff167f6719d08c1888103bea251a4ed56406bd0c3e69723c8a1686e017e7bbe159b6f860405160405180910390a250565b620003b982826200048b60201b60201c565b156200042d576040517f08c379a000000000000000000000000000000000000000000000000000000000815260040180806020018281038252601f8152602001807f526f6c65733a206163636f756e7420616c72656164792068617320726f6c650081525060200191505060405180910390fd5b60018260000160008373ffffffffffffffffffffffffffffffffffffffff1673ffffffffffffffffffffffffffffffffffffffff16815260200190815260200160002060006101000a81548160ff0219169083151502179055505050565b60008073ffffffffffffffffffffffffffffffffffffffff168273ffffffffffffffffffffffffffffffffffffffff16141562000514576040517f08c379a0000000000000000000000000000000000000000000000000000000008152600401808060200182810382526022815260200180620028656022913960400191505060405180910390fd5b8260000160008373ffffffffffffffffffffffffffffffffffffffff1673ffffffffffffffffffffffffffffffffffffffff16815260200190815260200160002060009054906101000a900460ff16905092915050565b6122ea806200057b6000396000f3fe608060405234801561001057600080fd5b50600436106101c45760003560e01c806375c66828116100f9578063b187bd2611610097578063d6e6b5e411610071578063d6e6b5e41461057d578063e00a4615146105ab578063e3f33d00146105c9578063fbedbe5c146105e7576101c4565b8063b187bd261461051f578063b9f9e30414610541578063c41dd8ce1461055f576101c4565b80638456cb59116100d35780638456cb59146104ab57806386411d48146104b55780639021be72146104e3578063a7fced6814610501576101c4565b806375c668281461042b5780637f4339431461044957806382dc1ec414610467576101c4565b80633f4ba83a116101665780635c975abb116101405780635c975abb146103b35780635ff4bc35146103d55780636a7ce18d146103f35780636ef8d66d14610421576101c4565b80633f4ba83a1461032f5780633ff591d91461033957806346fbf68e14610357576101c4565b80631be0ed37116101a25780631be0ed371461023357806339955708146102775780633b668321146102a55780633e9dc4cc14610301576101c4565b8063043bd50a146101c95780631139087a146101f7578063117d128a14610215575b600080fd5b6101f5600480360360208110156101df57600080fd5b810190808035906020019092919050505061062b565b005b6101ff610814565b6040518082815260200191505060405180910390f35b61021d610838565b6040518082815260200191505060405180910390f35b6102756004803603602081101561024957600080fd5b81019080803573ffffffffffffffffffffffffffffffffffffffff16906020019092919050505061085c565b005b6102a36004803603602081101561028d57600080fd5b8101908080359060200190929190505050610b17565b005b6102e7600480360360208110156102bb57600080fd5b81019080803573ffffffffffffffffffffffffffffffffffffffff169060200190929190505050610d76565b604051808215151515815260200191505060405180910390f35b61032d6004803603602081101561031757600080fd5b8101908080359060200190929190505050610d96565b005b610337610ff5565b005b610341611163565b6040518082815260200191505060405180910390f35b6103996004803603602081101561036d57600080fd5b81019080803573ffffffffffffffffffffffffffffffffffffffff169060200190929190505050611187565b604051808215151515815260200191505060405180910390f35b6103bb6111a4565b604051808215151515815260200191505060405180910390f35b6103dd6111bb565b6040518082815260200191505060405180910390f35b61041f6004803603602081101561040957600080fd5b81019080803590602001909291905050506111c1565b005b610429611420565b005b610433611432565b6040518082815260200191505060405180910390f35b610451611438565b6040518082815260200191505060405180910390f35b6104a96004803603602081101561047d57600080fd5b81019080803573ffffffffffffffffffffffffffffffffffffffff16906020019092919050505061143e565b005b6104b36114af565b005b6104e1600480360360208110156104cb57600080fd5b810190808035906020019092919050505061161d565b005b6104eb61187c565b6040518082815260200191505060405180910390f35b610509611882565b6040518082815260200191505060405180910390f35b610527611888565b604051808215151515815260200191505060405180910390f35b610549611897565b6040518082815260200191505060405180910390f35b61056761189d565b6040518082815260200191505060405180910390f35b6105a96004803603602081101561059357600080fd5b81019080803590602001909291905050506118c1565b005b6105b3611b20565b6040518082815260200191505060405180910390f35b6105d1611b44565b6040518082815260200191505060405180910390f35b610629600480360360208110156105fd57600080fd5b81019080803573ffffffffffffffffffffffffffffffffffffffff169060200190929190505050611b68565b005b61063b610636611e22565b611187565b610690576040517f08c379a00000000000000000000000000000000000000000000000000000000081526004018080602001828103825260308152602001806122436030913960400191505060405180910390fd5b600160009054906101000a900460ff1615610713576040517f08c379a00000000000000000000000000000000000000000000000000000000081526004018080602001828103825260108152602001807f5061757361626c653a207061757365640000000000000000000000000000000081525060200191505060405180910390fd5b80600454141561078b576040517f08c379a00000000000000000000000000000000000000000000000000000000081526004018080602001828103825260128152602001807f4e45575f56414c55455f5245515549524544000000000000000000000000000081525060200191505060405180910390fd5b60006004549050816004819055503373ffffffffffffffffffffffffffffffffffffffff167f4d6178696d756d546f6c6572616e6365000000000000000000000000000000007f45c601233c412abb42eff2f29f997f56948e3cc51570478766f4b2c7aedcb4db8385604051808381526020018281526020019250505060405180910390a35050565b7f4c6971756964617465457468507269636500000000000000000000000000000081565b7f536166657479496e74657276616c00000000000000000000000000000000000081565b61086c610867611e22565b611187565b6108c1576040517f08c379a00000000000000000000000000000000000000000000000000000000081526004018080602001828103825260308152602001806122436030913960400191505060405180910390fd5b600160009054906101000a900460ff1615610944576040517f08c379a00000000000000000000000000000000000000000000000000000000081526004018080602001828103825260108152602001807f5061757361626c653a207061757365640000000000000000000000000000000081525060200191505060405180910390fd5b6109a26040518060400160405280601881526020017f4c454e44494e475f504f4f4c5f49535f524551554952454400000000000000008152508273ffffffffffffffffffffffffffffffffffffffff16611e2a90919063ffffffff16565b600260008273ffffffffffffffffffffffffffffffffffffffff1673ffffffffffffffffffffffffffffffffffffffff16815260200190815260200160002060009054906101000a900460ff1615610a62576040517f08c379a000000000000000000000000000000000000000000000000000000000815260040180806020018281038252601b8152602001807f4c454e44494e475f504f4f4c5f414c52454144595f504155534544000000000081525060200191505060405180910390fd5b6001600260008373ffffffffffffffffffffffffffffffffffffffff1673ffffffffffffffffffffffffffffffffffffffff16815260200190815260200160002060006101000a81548160ff0219169083151502179055508073ffffffffffffffffffffffffffffffffffffffff163373ffffffffffffffffffffffffffffffffffffffff167fff7b62e2b5984471f0fb76a23e84a0d6f2e5c3e8818a929948190ce967a2fc2e60405160405180910390a350565b610b27610b22611e22565b611187565b610b7c576040517f08c379a00000000000000000000000000000000000000000000000000000000081526004018080602001828103825260308152602001806122436030913960400191505060405180910390fd5b600160009054906101000a900460ff1615610bff576040517f08c379a00000000000000000000000000000000000000000000000000000000081526004018080602001828103825260108152602001807f5061757361626c653a207061757365640000000000000000000000000000000081525060200191505060405180910390fd5b806005541415610c77576040517f08c379a00000000000000000000000000000000000000000000000000000000081526004018080602001828103825260128152602001807f4e45575f56414c55455f5245515549524544000000000000000000000000000081525060200191505060405180910390fd5b60008111610ced576040517f08c379a00000000000000000000000000000000000000000000000000000000081526004018080602001828103825260198152602001807f4d5553545f50524f564944455f524553504f4e53455f4558500000000000000081525060200191505060405180910390fd5b60006005549050816005819055503373ffffffffffffffffffffffffffffffffffffffff167f526573706f6e73654578706972794c656e6774680000000000000000000000007f45c601233c412abb42eff2f29f997f56948e3cc51570478766f4b2c7aedcb4db8385604051808381526020018281526020019250505060405180910390a35050565b60026020528060005260406000206000915054906101000a900460ff1681565b610da6610da1611e22565b611187565b610dfb576040517f08c379a00000000000000000000000000000000000000000000000000000000081526004018080602001828103825260308152602001806122436030913960400191505060405180910390fd5b600160009054906101000a900460ff1615610e7e576040517f08c379a00000000000000000000000000000000000000000000000000000000081526004018080602001828103825260108152602001807f5061757361626c653a207061757365640000000000000000000000000000000081525060200191505060405180910390fd5b806006541415610ef6576040517f08c379a00000000000000000000000000000000000000000000000000000000081526004018080602001828103825260128152602001807f4e45575f56414c55455f5245515549524544000000000000000000000000000081525060200191505060405180910390fd5b60008111610f6c576040517f08c379a000000000000000000000000000000000000000000000000000000000815260040180806020018281038252601c8152602001807f4d5553545f50524f564944455f5341464554595f494e54455256414c0000000081525060200191505060405180910390fd5b60006006549050816006819055503373ffffffffffffffffffffffffffffffffffffffff167f536166657479496e74657276616c0000000000000000000000000000000000007f45c601233c412abb42eff2f29f997f56948e3cc51570478766f4b2c7aedcb4db8385604051808381526020018281526020019250505060405180910390a35050565b611005611000611e22565b611187565b61105a576040517f08c379a00000000000000000000000000000000000000000000000000000000081526004018080602001828103825260308152602001806122436030913960400191505060405180910390fd5b600160009054906101000a900460ff166110dc576040517f08c379a00000000000000000000000000000000000000000000000000000000081526004018080602001828103825260148152602001807f5061757361626c653a206e6f742070617573656400000000000000000000000081525060200191505060405180910390fd5b6000600160006101000a81548160ff0219169083151502179055507f5db9ee0a495bf2e6ff9c91a7834c1ba4fdd244a5e8aa4e537bd38aeae4b073aa611120611e22565b604051808273ffffffffffffffffffffffffffffffffffffffff1673ffffffffffffffffffffffffffffffffffffffff16815260200191505060405180910390a1565b7f52657175697265645375626d697373696f6e730000000000000000000000000081565b600061119d826000611edf90919063ffffffff16565b9050919050565b6000600160009054906101000a900460ff16905090565b60085481565b6111d16111cc611e22565b611187565b611226576040517f08c379a00000000000000000000000000000000000000000000000000000000081526004018080602001828103825260308152602001806122436030913960400191505060405180910390fd5b600160009054906101000a900460ff16156112a9576040517f08c379a00000000000000000000000000000000000000000000000000000000081526004018080602001828103825260108152602001807f5061757361626c653a207061757365640000000000000000000000000000000081525060200191505060405180910390fd5b806003541415611321576040517f08c379a00000000000000000000000000000000000000000000000000000000081526004018080602001828103825260128152602001807f4e45575f56414c55455f5245515549524544000000000000000000000000000081525060200191505060405180910390fd5b60008111611397576040517f08c379a000000000000000000000000000000000000000000000000000000000815260040180806020018281038252601a8152602001807f4d5553545f50524f564944455f52455155495245445f5355425300000000000081525060200191505060405180910390fd5b60006003549050816003819055503373ffffffffffffffffffffffffffffffffffffffff167f52657175697265645375626d697373696f6e73000000000000000000000000007f45c601233c412abb42eff2f29f997f56948e3cc51570478766f4b2c7aedcb4db8385604051808381526020018281526020019250505060405180910390a35050565b61143061142b611e22565b611fbd565b565b60075481565b60045481565b61144e611449611e22565b611187565b6114a3576040517f08c379a00000000000000000000000000000000000000000000000000000000081526004018080602001828103825260308152602001806122436030913960400191505060405180910390fd5b6114ac81612017565b50565b6114bf6114ba611e22565b611187565b611514576040517f08c379a00000000000000000000000000000000000000000000000000000000081526004018080602001828103825260308152602001806122436030913960400191505060405180910390fd5b600160009054906101000a900460ff1615611597576040517f08c379a00000000000000000000000000000000000000000000000000000000081526004018080602001828103825260108152602001807f5061757361626c653a207061757365640000000000000000000000000000000081525060200191505060405180910390fd5b60018060006101000a81548160ff0219169083151502179055507f62e78cea01bee320cd4e420270b5ea74000d11b0c9f74754ebdbfc544b05a2586115da611e22565b604051808273ffffffffffffffffffffffffffffffffffffffff1673ffffffffffffffffffffffffffffffffffffffff16815260200191505060405180910390a1565b61162d611628611e22565b611187565b611682576040517f08c379a00000000000000000000000000000000000000000000000000000000081526004018080602001828103825260308152602001806122436030913960400191505060405180910390fd5b600160009054906101000a900460ff1615611705576040517f08c379a00000000000000000000000000000000000000000000000000000000081526004018080602001828103825260108152602001807f5061757361626c653a207061757365640000000000000000000000000000000081525060200191505060405180910390fd5b80600754141561177d576040517f08c379a00000000000000000000000000000000000000000000000000000000081526004018080602001828103825260128152602001807f4e45575f56414c55455f5245515549524544000000000000000000000000000081525060200191505060405180910390fd5b600081116117f3576040517f08c379a00000000000000000000000000000000000000000000000000000000081526004018080602001828103825260198152602001807f4d5553545f50524f564944455f5445524d535f4558504952590000000000000081525060200191505060405180910390fd5b60006007549050816007819055503373ffffffffffffffffffffffffffffffffffffffff167f5465726d7345787069727954696d6500000000000000000000000000000000007f45c601233c412abb42eff2f29f997f56948e3cc51570478766f4b2c7aedcb4db8385604051808381526020018281526020019250505060405180910390a35050565b60065481565b60055481565b60006118926111a4565b905090565b60035481565b7f4d6178696d756d546f6c6572616e63650000000000000000000000000000000081565b6118d16118cc611e22565b611187565b611926576040517f08c379a00000000000000000000000000000000000000000000000000000000081526004018080602001828103825260308152602001806122436030913960400191505060405180910390fd5b600160009054906101000a900460ff16156119a9576040517f08c379a00000000000000000000000000000000000000000000000000000000081526004018080602001828103825260108152602001807f5061757361626c653a207061757365640000000000000000000000000000000081525060200191505060405180910390fd5b806008541415611a21576040517f08c379a00000000000000000000000000000000000000000000000000000000081526004018080602001828103825260128152602001807f4e45575f56414c55455f5245515549524544000000000000000000000000000081525060200191505060405180910390fd5b60008111611a97576040517f08c379a00000000000000000000000000000000000000000000000000000000081526004018080602001828103825260168152602001807f4d5553545f50524f564944455f4554485f50524943450000000000000000000081525060200191505060405180910390fd5b60006008549050816008819055503373ffffffffffffffffffffffffffffffffffffffff167f4c697175696461746545746850726963650000000000000000000000000000007f45c601233c412abb42eff2f29f997f56948e3cc51570478766f4b2c7aedcb4db8385604051808381526020018281526020019250505060405180910390a35050565b7f5465726d7345787069727954696d65000000000000000000000000000000000081565b7f526573706f6e73654578706972794c656e67746800000000000000000000000081565b611b78611b73611e22565b611187565b611bcd576040517f08c379a00000000000000000000000000000000000000000000000000000000081526004018080602001828103825260308152602001806122436030913960400191505060405180910390fd5b600160009054906101000a900460ff1615611c50576040517f08c379a00000000000000000000000000000000000000000000000000000000081526004018080602001828103825260108152602001807f5061757361626c653a207061757365640000000000000000000000000000000081525060200191505060405180910390fd5b611cae6040518060400160405280601881526020017f4c454e44494e475f504f4f4c5f49535f524551554952454400000000000000008152508273ffffffffffffffffffffffffffffffffffffffff16611e2a90919063ffffffff16565b600260008273ffffffffffffffffffffffffffffffffffffffff1673ffffffffffffffffffffffffffffffffffffffff16815260200190815260200160002060009054906101000a900460ff16611d6d576040517f08c379a000000000000000000000000000000000000000000000000000000000815260040180806020018281038252601a8152602001807f4c454e44494e475f504f4f4c5f49535f4e4f545f50415553454400000000000081525060200191505060405180910390fd5b6000600260008373ffffffffffffffffffffffffffffffffffffffff1673ffffffffffffffffffffffffffffffffffffffff16815260200190815260200160002060006101000a81548160ff0219169083151502179055508073ffffffffffffffffffffffffffffffffffffffff163373ffffffffffffffffffffffffffffffffffffffff167fc55a972437581d7d7bfd8729cdde06ee7e788e1a407b4cfdc6a0330d04b391f160405160405180910390a350565b600033905090565b611e3382612071565b8190611eda576040517f08c379a00000000000000000000000000000000000000000000000000000000081526004018080602001828103825283818151815260200191508051906020019080838360005b83811015611e9f578082015181840152602081019050611e84565b50505050905090810190601f168015611ecc5780820380516001836020036101000a031916815260200191505b509250505060405180910390fd5b505050565b60008073ffffffffffffffffffffffffffffffffffffffff168273ffffffffffffffffffffffffffffffffffffffff161415611f66576040517f08c379a00000000000000000000000000000000000000000000000000000000081526004018080602001828103825260228152602001806122946022913960400191505060405180910390fd5b8260000160008373ffffffffffffffffffffffffffffffffffffffff1673ffffffffffffffffffffffffffffffffffffffff16815260200190815260200160002060009054906101000a900460ff16905092915050565b611fd18160006120aa90919063ffffffff16565b8073ffffffffffffffffffffffffffffffffffffffff167fcd265ebaf09df2871cc7bd4133404a235ba12eff2041bb89d9c714a2621c7c7e60405160405180910390a250565b61202b81600061216790919063ffffffff16565b8073ffffffffffffffffffffffffffffffffffffffff167f6719d08c1888103bea251a4ed56406bd0c3e69723c8a1686e017e7bbe159b6f860405160405180910390a250565b60008073ffffffffffffffffffffffffffffffffffffffff168273ffffffffffffffffffffffffffffffffffffffff1614159050919050565b6120b48282611edf565b612109576040517f08c379a00000000000000000000000000000000000000000000000000000000081526004018080602001828103825260218152602001806122736021913960400191505060405180910390fd5b60008260000160008373ffffffffffffffffffffffffffffffffffffffff1673ffffffffffffffffffffffffffffffffffffffff16815260200190815260200160002060006101000a81548160ff0219169083151502179055505050565b6121718282611edf565b156121e4576040517f08c379a000000000000000000000000000000000000000000000000000000000815260040180806020018281038252601f8152602001807f526f6c65733a206163636f756e7420616c72656164792068617320726f6c650081525060200191505060405180910390fd5b60018260000160008373ffffffffffffffffffffffffffffffffffffffff1673ffffffffffffffffffffffffffffffffffffffff16815260200190815260200160002060006101000a81548160ff021916908315150217905550505056fe506175736572526f6c653a2063616c6c657220646f6573206e6f742068617665207468652050617573657220726f6c65526f6c65733a206163636f756e7420646f6573206e6f74206861766520726f6c65526f6c65733a206163636f756e7420697320746865207a65726f2061646472657373a265627a7a7231582082266b86e471b4a78c50d35118eaeec4f8a1c95651ebc2aea36ac5054a9edecc64736f6c63430005110032526f6c65733a206163636f756e7420697320746865207a65726f2061646472657373",
  "source": "/*\n    Copyright 2020 Fabrx Labs Inc.\n\n    Licensed under the Apache License, Version 2.0 (the \"License\");\n    you may not use this file except in compliance with the License.\n    You may obtain a copy of the License at\n\n    http://www.apache.org/licenses/LICENSE-2.0\n\n    Unless required by applicable law or agreed to in writing, software\n    distributed under the License is distributed on an \"AS IS\" BASIS,\n    WITHOUT WARRANTIES OR CONDITIONS OF ANY KIND, either express or implied.\n    See the License for the specific language governing permissions and\n    limitations under the License.\n*/\npragma solidity 0.5.17;\n\n// Libraries\nimport \"openzeppelin-solidity/contracts/lifecycle/Pausable.sol\";\n\n// Commons\nimport \"../util/AddressLib.sol\";\n\n// Interfaces\n\nimport \"../interfaces/SettingsInterface.sol\";\n\n\ncontract Settings is Pausable, SettingsInterface {\n    using AddressLib for address;\n\n    /** Constants */\n    bytes32 public constant REQUIRED_SUBMISSIONS_SETTING = \"RequiredSubmissions\";\n    bytes32 public constant MAXIMUM_TOLERANCE_SETTING = \"MaximumTolerance\";\n    bytes32 public constant RESPONSE_EXPIRY_LENGTH_SETTING = \"ResponseExpiryLength\";\n    bytes32 public constant SAFETY_INTERVAL_LENGTH_SETTING = \"SafetyInterval\";\n    bytes32 public constant TERMS_EXPIRY_TIME_SETTING = \"TermsExpiryTime\";\n    bytes32 public constant LIQUIDATE_ETH_PRICE_SETTING = \"LiquidateEthPrice\";\n\n    /* State Variables */\n\n    mapping(address => bool) public lendingPoolPaused;\n\n    // the total number of submissions required for consensus on a value\n    uint256 public requiredSubmissions;\n\n    // this is a percentage with 2 decimal places\n    // i.e. maximumTolerance of 325 => tolerance of 3.25% => 0.0325 of value\n    uint256 public maximumTolerance;\n\n    uint256 public responseExpiryLength;\n\n    uint256 public safetyInterval;\n\n    uint256 public termsExpiryTime;\n\n    // with 2 decimal places. i.e. an ETH liquidation price at 95% is stored as 9500\n    uint256 public liquidateEthPrice;\n\n    /** Modifiers */\n\n    /* Constructor */\n\n    constructor(\n        uint256 aRequiredSubmissions,\n        uint256 aMaximumTolerance,\n        uint256 aResponseExpiryLength,\n        uint256 aSafetyInterval,\n        uint256 aTermsExpiryTime,\n        uint256 aLiquidateEthPrice\n    ) public {\n        require(aRequiredSubmissions > 0, \"MUST_PROVIDE_REQUIRED_SUBS\");\n        require(aResponseExpiryLength > 0, \"MUST_PROVIDE_RESPONSE_EXP\");\n        require(aSafetyInterval > 0, \"MUST_PROVIDE_SAFETY_INTERVAL\");\n        require(aTermsExpiryTime > 0, \"MUST_PROVIDE_TERMS_EXPIRY\");\n        require(aLiquidateEthPrice > 0, \"MUST_PROVIDE_ETH_PRICE\");\n\n        requiredSubmissions = aRequiredSubmissions;\n        maximumTolerance = aMaximumTolerance;\n        responseExpiryLength = aResponseExpiryLength;\n        safetyInterval = aSafetyInterval;\n        termsExpiryTime = aTermsExpiryTime;\n        liquidateEthPrice = aLiquidateEthPrice;\n    }\n\n    /** External Functions */\n\n    function setRequiredSubmissions(uint256 newRequiredSubmissions)\n        external\n        onlyPauser()\n        whenNotPaused()\n    {\n        require(requiredSubmissions != newRequiredSubmissions, \"NEW_VALUE_REQUIRED\");\n        require(newRequiredSubmissions > 0, \"MUST_PROVIDE_REQUIRED_SUBS\");\n        uint256 oldRequiredSubmissions = requiredSubmissions;\n        requiredSubmissions = newRequiredSubmissions;\n\n        emit SettingUpdated(\n            REQUIRED_SUBMISSIONS_SETTING,\n            msg.sender,\n            oldRequiredSubmissions,\n            newRequiredSubmissions\n        );\n    }\n\n    function setMaximumTolerance(uint256 newMaximumTolerance)\n        external\n        onlyPauser()\n        whenNotPaused()\n    {\n        require(maximumTolerance != newMaximumTolerance, \"NEW_VALUE_REQUIRED\");\n        uint256 oldMaximumTolerance = maximumTolerance;\n        maximumTolerance = newMaximumTolerance;\n\n        emit SettingUpdated(\n            MAXIMUM_TOLERANCE_SETTING,\n            msg.sender,\n            oldMaximumTolerance,\n            newMaximumTolerance\n        );\n    }\n\n    function setResponseExpiryLength(uint256 newResponseExpiryLength)\n        external\n        onlyPauser()\n        whenNotPaused()\n    {\n        require(responseExpiryLength != newResponseExpiryLength, \"NEW_VALUE_REQUIRED\");\n        require(newResponseExpiryLength > 0, \"MUST_PROVIDE_RESPONSE_EXP\");\n        uint256 oldResponseExpiryLength = responseExpiryLength;\n        responseExpiryLength = newResponseExpiryLength;\n\n        emit SettingUpdated(\n            RESPONSE_EXPIRY_LENGTH_SETTING,\n            msg.sender,\n            oldResponseExpiryLength,\n            newResponseExpiryLength\n        );\n    }\n\n    function setSafetyInterval(uint256 newSafetyInterval)\n        external\n        onlyPauser()\n        whenNotPaused()\n    {\n        require(safetyInterval != newSafetyInterval, \"NEW_VALUE_REQUIRED\");\n        require(newSafetyInterval > 0, \"MUST_PROVIDE_SAFETY_INTERVAL\");\n        uint256 oldSafetyInterval = safetyInterval;\n        safetyInterval = newSafetyInterval;\n\n        emit SettingUpdated(\n            SAFETY_INTERVAL_LENGTH_SETTING,\n            msg.sender,\n            oldSafetyInterval,\n            newSafetyInterval\n        );\n    }\n\n    function setTermsExpiryTime(uint256 newTermsExpiryTime)\n        external\n        onlyPauser()\n        whenNotPaused()\n    {\n        require(termsExpiryTime != newTermsExpiryTime, \"NEW_VALUE_REQUIRED\");\n        require(newTermsExpiryTime > 0, \"MUST_PROVIDE_TERMS_EXPIRY\");\n        uint256 oldTermsExpiryTime = termsExpiryTime;\n        termsExpiryTime = newTermsExpiryTime;\n\n        emit SettingUpdated(\n            TERMS_EXPIRY_TIME_SETTING,\n            msg.sender,\n            oldTermsExpiryTime,\n            newTermsExpiryTime\n        );\n    }\n\n    function setLiquidateEthPrice(uint256 newLiquidateEthPrice)\n        external\n        onlyPauser()\n        whenNotPaused()\n    {\n        require(liquidateEthPrice != newLiquidateEthPrice, \"NEW_VALUE_REQUIRED\");\n        require(newLiquidateEthPrice > 0, \"MUST_PROVIDE_ETH_PRICE\");\n        uint256 oldLiquidateEthPrice = liquidateEthPrice;\n        liquidateEthPrice = newLiquidateEthPrice;\n\n        emit SettingUpdated(\n            LIQUIDATE_ETH_PRICE_SETTING,\n            msg.sender,\n            oldLiquidateEthPrice,\n            newLiquidateEthPrice\n        );\n    }\n\n    function pauseLendingPool(address lendingPoolAddress)\n        external\n        onlyPauser()\n        whenNotPaused()\n    {\n        lendingPoolAddress.requireNotEmpty(\"LENDING_POOL_IS_REQUIRED\");\n        require(!lendingPoolPaused[lendingPoolAddress], \"LENDING_POOL_ALREADY_PAUSED\");\n\n        lendingPoolPaused[lendingPoolAddress] = true;\n\n        emit LendingPoolPaused(msg.sender, lendingPoolAddress);\n    }\n\n    function unpauseLendingPool(address lendingPoolAddress)\n        external\n        onlyPauser()\n        whenNotPaused()\n    {\n        lendingPoolAddress.requireNotEmpty(\"LENDING_POOL_IS_REQUIRED\");\n        require(lendingPoolPaused[lendingPoolAddress], \"LENDING_POOL_IS_NOT_PAUSED\");\n\n        lendingPoolPaused[lendingPoolAddress] = false;\n\n        emit LendingPoolUnpaused(msg.sender, lendingPoolAddress);\n    }\n\n    function isPaused() external view returns (bool) {\n        return paused();\n    }\n\n    /** Internal functions */\n\n    /** Private functions */\n}\n",
  "sourcePath": "/Users/guillesalazar/Repos/ZeroCollateral/smart-contracts-v1/contracts/base/Settings.sol",
  "compiler": {
    "name": "solc",
    "version": "0.5.17+commit.d19bba13.Emscripten.clang"
  },
  "schemaVersion": "3.0.23",
  "updatedAt": "2020-05-19T14:55:31.501Z",
  "devdoc": {
    "methods": {
      "pause()": {
        "details": "Called by a pauser to pause, triggers stopped state."
      },
      "paused()": {
        "details": "Returns true if the contract is paused, and false otherwise."
      },
      "unpause()": {
        "details": "Called by a pauser to unpause, returns to normal state."
      }
    }
  },
  "userdoc": {
    "methods": {
      "constructor": "Modifiers ",
      "setRequiredSubmissions(uint256)": {
        "notice": "External Functions "
      }
    }
  }
}