{
  "contractName": "Settings",
  "abi": [
    {
      "anonymous": false,
      "inputs": [
        {
          "indexed": true,
          "internalType": "bytes32",
          "name": "assetSettingName",
          "type": "bytes32"
        },
        {
          "indexed": true,
          "internalType": "address",
          "name": "sender",
          "type": "address"
        },
        {
          "indexed": true,
          "internalType": "address",
          "name": "assetAddress",
          "type": "address"
        },
        {
          "indexed": false,
          "internalType": "address",
          "name": "oldValue",
          "type": "address"
        },
        {
          "indexed": false,
          "internalType": "address",
          "name": "newValue",
          "type": "address"
        }
      ],
      "name": "AssetSettingsAddressUpdated",
      "type": "event"
    },
    {
      "anonymous": false,
      "inputs": [
        {
          "indexed": true,
          "internalType": "address",
          "name": "sender",
          "type": "address"
        },
        {
          "indexed": true,
          "internalType": "address",
          "name": "assetAddress",
          "type": "address"
        },
        {
          "indexed": false,
          "internalType": "address",
          "name": "cTokenAddress",
          "type": "address"
        },
        {
          "indexed": false,
          "internalType": "uint256",
          "name": "maxLoanAmount",
          "type": "uint256"
        }
      ],
      "name": "AssetSettingsCreated",
      "type": "event"
    },
    {
      "anonymous": false,
      "inputs": [
        {
          "indexed": true,
          "internalType": "address",
          "name": "sender",
          "type": "address"
        },
        {
          "indexed": true,
          "internalType": "address",
          "name": "assetAddress",
          "type": "address"
        }
      ],
      "name": "AssetSettingsRemoved",
      "type": "event"
    },
    {
      "anonymous": false,
      "inputs": [
        {
          "indexed": true,
          "internalType": "bytes32",
          "name": "assetSettingName",
          "type": "bytes32"
        },
        {
          "indexed": true,
          "internalType": "address",
          "name": "sender",
          "type": "address"
        },
        {
          "indexed": true,
          "internalType": "address",
          "name": "assetAddress",
          "type": "address"
        },
        {
          "indexed": false,
          "internalType": "uint256",
          "name": "oldValue",
          "type": "uint256"
        },
        {
          "indexed": false,
          "internalType": "uint256",
          "name": "newValue",
          "type": "uint256"
        }
      ],
      "name": "AssetSettingsUintUpdated",
      "type": "event"
    },
    {
      "anonymous": false,
      "inputs": [
        {
          "indexed": true,
          "internalType": "address",
          "name": "account",
          "type": "address"
        },
        {
          "indexed": true,
          "internalType": "address",
          "name": "lendingPoolAddress",
          "type": "address"
        }
      ],
      "name": "LendingPoolPaused",
      "type": "event"
    },
    {
      "anonymous": false,
      "inputs": [
        {
          "indexed": true,
          "internalType": "address",
          "name": "account",
          "type": "address"
        },
        {
          "indexed": true,
          "internalType": "address",
          "name": "lendingPoolAddress",
          "type": "address"
        }
      ],
      "name": "LendingPoolUnpaused",
      "type": "event"
    },
    {
      "anonymous": false,
      "inputs": [
        {
          "indexed": false,
          "internalType": "address",
          "name": "account",
          "type": "address"
        }
      ],
      "name": "Paused",
      "type": "event"
    },
    {
      "anonymous": false,
      "inputs": [
        {
          "indexed": true,
          "internalType": "address",
          "name": "account",
          "type": "address"
        }
      ],
      "name": "PauserAdded",
      "type": "event"
    },
    {
      "anonymous": false,
      "inputs": [
        {
          "indexed": true,
          "internalType": "address",
          "name": "account",
          "type": "address"
        }
      ],
      "name": "PauserRemoved",
      "type": "event"
    },
    {
      "anonymous": false,
      "inputs": [
        {
          "indexed": true,
          "internalType": "bytes32",
          "name": "settingName",
          "type": "bytes32"
        },
        {
          "indexed": true,
          "internalType": "address",
          "name": "sender",
          "type": "address"
        },
        {
          "indexed": false,
          "internalType": "uint256",
          "name": "value",
          "type": "uint256"
        },
        {
          "indexed": false,
          "internalType": "uint256",
          "name": "minValue",
          "type": "uint256"
        },
        {
          "indexed": false,
          "internalType": "uint256",
          "name": "maxValue",
          "type": "uint256"
        }
      ],
      "name": "PlatformSettingCreated",
      "type": "event"
    },
    {
      "anonymous": false,
      "inputs": [
        {
          "indexed": true,
          "internalType": "bytes32",
          "name": "settingName",
          "type": "bytes32"
        },
        {
          "indexed": false,
          "internalType": "uint256",
          "name": "lastValue",
          "type": "uint256"
        },
        {
          "indexed": true,
          "internalType": "address",
          "name": "sender",
          "type": "address"
        }
      ],
      "name": "PlatformSettingRemoved",
      "type": "event"
    },
    {
      "anonymous": false,
      "inputs": [
        {
          "indexed": true,
          "internalType": "bytes32",
          "name": "settingName",
          "type": "bytes32"
        },
        {
          "indexed": true,
          "internalType": "address",
          "name": "sender",
          "type": "address"
        },
        {
          "indexed": false,
          "internalType": "uint256",
          "name": "oldValue",
          "type": "uint256"
        },
        {
          "indexed": false,
          "internalType": "uint256",
          "name": "newValue",
          "type": "uint256"
        }
      ],
      "name": "PlatformSettingUpdated",
      "type": "event"
    },
    {
      "anonymous": false,
      "inputs": [
        {
          "indexed": false,
          "internalType": "address",
          "name": "account",
          "type": "address"
        }
      ],
      "name": "Unpaused",
      "type": "event"
    },
    {
      "constant": true,
      "inputs": [],
      "name": "CTOKEN_ADDRESS_ASSET_SETTING",
      "outputs": [
        {
          "internalType": "bytes32",
          "name": "",
          "type": "bytes32"
        }
      ],
      "payable": false,
      "stateMutability": "view",
      "type": "function"
    },
    {
      "constant": true,
      "inputs": [],
      "name": "ETH_ADDRESS",
      "outputs": [
        {
          "internalType": "address",
          "name": "",
          "type": "address"
        }
      ],
      "payable": false,
      "stateMutability": "view",
      "type": "function"
    },
    {
      "constant": true,
      "inputs": [],
      "name": "MAX_LOAN_AMOUNT_ASSET_SETTING",
      "outputs": [
        {
          "internalType": "bytes32",
          "name": "",
          "type": "bytes32"
        }
      ],
      "payable": false,
      "stateMutability": "view",
      "type": "function"
    },
    {
      "constant": true,
      "inputs": [],
      "name": "WETH_ADDRESS",
      "outputs": [
        {
          "internalType": "address",
          "name": "",
          "type": "address"
        }
      ],
      "payable": false,
      "stateMutability": "view",
      "type": "function"
    },
    {
      "constant": false,
      "inputs": [
        {
          "internalType": "address",
          "name": "account",
          "type": "address"
        }
      ],
      "name": "addPauser",
      "outputs": [],
      "payable": false,
      "stateMutability": "nonpayable",
      "type": "function"
    },
    {
      "constant": true,
      "inputs": [
        {
          "internalType": "address",
          "name": "",
          "type": "address"
        }
      ],
      "name": "assetSettings",
      "outputs": [
        {
          "internalType": "address",
          "name": "cTokenAddress",
          "type": "address"
        },
        {
          "internalType": "uint256",
          "name": "maxLoanAmount",
          "type": "uint256"
        },
        {
          "internalType": "bool",
          "name": "initialized",
          "type": "bool"
        }
      ],
      "payable": false,
      "stateMutability": "view",
      "type": "function"
    },
    {
      "constant": true,
      "inputs": [
        {
          "internalType": "uint256",
          "name": "",
          "type": "uint256"
        }
      ],
      "name": "assets",
      "outputs": [
        {
          "internalType": "address",
          "name": "",
          "type": "address"
        }
      ],
      "payable": false,
      "stateMutability": "view",
      "type": "function"
    },
    {
      "constant": true,
      "inputs": [],
      "name": "atmSettings",
      "outputs": [
        {
          "internalType": "contract IATMSettings",
          "name": "",
          "type": "address"
        }
      ],
      "payable": false,
      "stateMutability": "view",
      "type": "function"
    },
    {
      "constant": true,
      "inputs": [
        {
          "internalType": "address",
          "name": "",
          "type": "address"
        }
      ],
      "name": "authorizedAddresses",
      "outputs": [
        {
          "internalType": "bool",
          "name": "",
          "type": "bool"
        }
      ],
      "payable": false,
      "stateMutability": "view",
      "type": "function"
    },
    {
      "constant": true,
      "inputs": [],
      "name": "cethAddress",
      "outputs": [
        {
          "internalType": "address",
          "name": "",
          "type": "address"
        }
      ],
      "payable": false,
      "stateMutability": "view",
      "type": "function"
    },
    {
      "constant": true,
      "inputs": [],
      "name": "chainlinkAggregator",
      "outputs": [
        {
          "internalType": "contract IChainlinkAggregator",
          "name": "",
          "type": "address"
        }
      ],
      "payable": false,
      "stateMutability": "view",
      "type": "function"
    },
    {
      "constant": true,
      "inputs": [],
      "name": "consts",
      "outputs": [
        {
          "internalType": "contract SettingsConsts",
          "name": "",
          "type": "address"
        }
      ],
      "payable": false,
      "stateMutability": "view",
      "type": "function"
    },
    {
      "constant": true,
      "inputs": [],
      "name": "escrowFactory",
      "outputs": [
        {
          "internalType": "contract EscrowFactoryInterface",
          "name": "",
          "type": "address"
        }
      ],
      "payable": false,
      "stateMutability": "view",
      "type": "function"
    },
    {
      "constant": true,
      "inputs": [],
      "name": "initialized",
      "outputs": [
        {
          "internalType": "bool",
          "name": "value",
          "type": "bool"
        }
      ],
      "payable": false,
      "stateMutability": "view",
      "type": "function"
    },
    {
      "constant": true,
      "inputs": [],
      "name": "interestValidator",
      "outputs": [
        {
          "internalType": "contract InterestValidatorInterface",
          "name": "",
          "type": "address"
        }
      ],
      "payable": false,
      "stateMutability": "view",
      "type": "function"
    },
    {
      "constant": true,
      "inputs": [
        {
          "internalType": "address",
          "name": "account",
          "type": "address"
        }
      ],
      "name": "isPauser",
      "outputs": [
        {
          "internalType": "bool",
          "name": "",
          "type": "bool"
        }
      ],
      "payable": false,
      "stateMutability": "view",
      "type": "function"
    },
    {
      "constant": true,
      "inputs": [
        {
          "internalType": "address",
          "name": "",
          "type": "address"
        }
      ],
      "name": "lendingPoolPaused",
      "outputs": [
        {
          "internalType": "bool",
          "name": "",
          "type": "bool"
        }
      ],
      "payable": false,
      "stateMutability": "view",
      "type": "function"
    },
    {
      "constant": true,
      "inputs": [],
      "name": "marketsState",
      "outputs": [
        {
          "internalType": "contract MarketsStateInterface",
          "name": "",
          "type": "address"
        }
      ],
      "payable": false,
      "stateMutability": "view",
      "type": "function"
    },
    {
      "constant": false,
      "inputs": [],
      "name": "pause",
      "outputs": [],
      "payable": false,
      "stateMutability": "nonpayable",
      "type": "function"
    },
    {
      "constant": true,
      "inputs": [],
      "name": "paused",
      "outputs": [
        {
          "internalType": "bool",
          "name": "",
          "type": "bool"
        }
      ],
      "payable": false,
      "stateMutability": "view",
      "type": "function"
    },
    {
      "constant": true,
      "inputs": [
        {
          "internalType": "bytes32",
          "name": "",
          "type": "bytes32"
        }
      ],
      "name": "platformSettings",
      "outputs": [
        {
          "internalType": "uint256",
          "name": "value",
          "type": "uint256"
        },
        {
          "internalType": "uint256",
          "name": "min",
          "type": "uint256"
        },
        {
          "internalType": "uint256",
          "name": "max",
          "type": "uint256"
        },
        {
          "internalType": "bool",
          "name": "exists",
          "type": "bool"
        }
      ],
      "payable": false,
      "stateMutability": "view",
      "type": "function"
    },
    {
      "constant": false,
      "inputs": [],
      "name": "renouncePauser",
      "outputs": [],
      "payable": false,
      "stateMutability": "nonpayable",
      "type": "function"
    },
    {
      "constant": true,
      "inputs": [],
      "name": "settings",
      "outputs": [
        {
          "internalType": "contract SettingsInterface",
          "name": "",
          "type": "address"
        }
      ],
      "payable": false,
      "stateMutability": "view",
      "type": "function"
    },
    {
      "constant": false,
      "inputs": [],
      "name": "unpause",
      "outputs": [],
      "payable": false,
      "stateMutability": "nonpayable",
      "type": "function"
    },
    {
      "constant": true,
      "inputs": [],
      "name": "versionsRegistry",
      "outputs": [
        {
          "internalType": "contract LogicVersionsRegistryInterface",
          "name": "",
          "type": "address"
        }
      ],
      "payable": false,
      "stateMutability": "view",
      "type": "function"
    },
    {
      "constant": false,
      "inputs": [
        {
          "internalType": "bytes32",
          "name": "settingName",
          "type": "bytes32"
        },
        {
          "internalType": "uint256",
          "name": "value",
          "type": "uint256"
        },
        {
          "internalType": "uint256",
          "name": "minValue",
          "type": "uint256"
        },
        {
          "internalType": "uint256",
          "name": "maxValue",
          "type": "uint256"
        }
      ],
      "name": "createPlatformSetting",
      "outputs": [],
      "payable": false,
      "stateMutability": "nonpayable",
      "type": "function"
    },
    {
      "constant": false,
      "inputs": [
        {
          "internalType": "bytes32",
          "name": "settingName",
          "type": "bytes32"
        },
        {
          "internalType": "uint256",
          "name": "newValue",
          "type": "uint256"
        }
      ],
      "name": "updatePlatformSetting",
      "outputs": [],
      "payable": false,
      "stateMutability": "nonpayable",
      "type": "function"
    },
    {
      "constant": false,
      "inputs": [
        {
          "internalType": "bytes32",
          "name": "settingName",
          "type": "bytes32"
        }
      ],
      "name": "removePlatformSetting",
      "outputs": [],
      "payable": false,
      "stateMutability": "nonpayable",
      "type": "function"
    },
    {
      "constant": true,
      "inputs": [
        {
          "internalType": "bytes32",
          "name": "settingName",
          "type": "bytes32"
        }
      ],
      "name": "getPlatformSetting",
      "outputs": [
        {
          "components": [
            {
              "internalType": "uint256",
              "name": "value",
              "type": "uint256"
            },
            {
              "internalType": "uint256",
              "name": "min",
              "type": "uint256"
            },
            {
              "internalType": "uint256",
              "name": "max",
              "type": "uint256"
            },
            {
              "internalType": "bool",
              "name": "exists",
              "type": "bool"
            }
          ],
          "internalType": "struct PlatformSettingsLib.PlatformSetting",
          "name": "",
          "type": "tuple"
        }
      ],
      "payable": false,
      "stateMutability": "view",
      "type": "function"
    },
    {
      "constant": true,
      "inputs": [
        {
          "internalType": "bytes32",
          "name": "settingName",
          "type": "bytes32"
        }
      ],
      "name": "getPlatformSettingValue",
      "outputs": [
        {
          "internalType": "uint256",
          "name": "",
          "type": "uint256"
        }
      ],
      "payable": false,
      "stateMutability": "view",
      "type": "function"
    },
    {
      "constant": true,
      "inputs": [
        {
          "internalType": "bytes32",
          "name": "settingName",
          "type": "bytes32"
        }
      ],
      "name": "hasPlatformSetting",
      "outputs": [
        {
          "internalType": "bool",
          "name": "",
          "type": "bool"
        }
      ],
      "payable": false,
      "stateMutability": "view",
      "type": "function"
    },
    {
      "constant": false,
      "inputs": [
        {
          "internalType": "address",
          "name": "lendingPoolAddress",
          "type": "address"
        }
      ],
      "name": "pauseLendingPool",
      "outputs": [],
      "payable": false,
      "stateMutability": "nonpayable",
      "type": "function"
    },
    {
      "constant": false,
      "inputs": [
        {
          "internalType": "address",
          "name": "lendingPoolAddress",
          "type": "address"
        }
      ],
      "name": "unpauseLendingPool",
      "outputs": [],
      "payable": false,
      "stateMutability": "nonpayable",
      "type": "function"
    },
    {
      "constant": true,
      "inputs": [],
      "name": "isPaused",
      "outputs": [
        {
          "internalType": "bool",
          "name": "",
          "type": "bool"
        }
      ],
      "payable": false,
      "stateMutability": "view",
      "type": "function"
    },
    {
      "constant": false,
      "inputs": [
        {
          "internalType": "address",
          "name": "assetAddress",
          "type": "address"
        },
        {
          "internalType": "address",
          "name": "cTokenAddress",
          "type": "address"
        },
        {
          "internalType": "uint256",
          "name": "maxLoanAmount",
          "type": "uint256"
        }
      ],
      "name": "createAssetSettings",
      "outputs": [],
      "payable": false,
      "stateMutability": "nonpayable",
      "type": "function"
    },
    {
      "constant": false,
      "inputs": [
        {
          "internalType": "address",
          "name": "assetAddress",
          "type": "address"
        }
      ],
      "name": "removeAssetSettings",
      "outputs": [],
      "payable": false,
      "stateMutability": "nonpayable",
      "type": "function"
    },
    {
      "constant": false,
      "inputs": [
        {
          "internalType": "address",
          "name": "assetAddress",
          "type": "address"
        },
        {
          "internalType": "uint256",
          "name": "newMaxLoanAmount",
          "type": "uint256"
        }
      ],
      "name": "updateMaxLoanAmount",
      "outputs": [],
      "payable": false,
      "stateMutability": "nonpayable",
      "type": "function"
    },
    {
      "constant": false,
      "inputs": [
        {
          "internalType": "address",
          "name": "assetAddress",
          "type": "address"
        },
        {
          "internalType": "address",
          "name": "newCTokenAddress",
          "type": "address"
        }
      ],
      "name": "updateCTokenAddress",
      "outputs": [],
      "payable": false,
      "stateMutability": "nonpayable",
      "type": "function"
    },
    {
      "constant": true,
      "inputs": [
        {
          "internalType": "address",
          "name": "assetAddress",
          "type": "address"
        },
        {
          "internalType": "uint256",
          "name": "amount",
          "type": "uint256"
        }
      ],
      "name": "exceedsMaxLoanAmount",
      "outputs": [
        {
          "internalType": "bool",
          "name": "",
          "type": "bool"
        }
      ],
      "payable": false,
      "stateMutability": "view",
      "type": "function"
    },
    {
      "constant": true,
      "inputs": [],
      "name": "getAssets",
      "outputs": [
        {
          "internalType": "address[]",
          "name": "",
          "type": "address[]"
        }
      ],
      "payable": false,
      "stateMutability": "view",
      "type": "function"
    },
    {
      "constant": true,
      "inputs": [
        {
          "internalType": "address",
          "name": "assetAddress",
          "type": "address"
        }
      ],
      "name": "getAssetSettings",
      "outputs": [
        {
          "components": [
            {
              "internalType": "address",
              "name": "cTokenAddress",
              "type": "address"
            },
            {
              "internalType": "uint256",
              "name": "maxLoanAmount",
              "type": "uint256"
            },
            {
              "internalType": "bool",
              "name": "initialized",
              "type": "bool"
            }
          ],
          "internalType": "struct AssetSettingsLib.AssetSettings",
          "name": "",
          "type": "tuple"
        }
      ],
      "payable": false,
      "stateMutability": "view",
      "type": "function"
    },
    {
      "constant": true,
      "inputs": [
        {
          "internalType": "address",
          "name": "assetAddress",
          "type": "address"
        }
      ],
      "name": "getCTokenAddress",
      "outputs": [
        {
          "internalType": "address",
          "name": "",
          "type": "address"
        }
      ],
      "payable": false,
      "stateMutability": "view",
      "type": "function"
    },
    {
      "constant": true,
      "inputs": [
        {
          "internalType": "address",
          "name": "account",
          "type": "address"
        }
      ],
      "name": "requirePauserRole",
      "outputs": [],
      "payable": false,
      "stateMutability": "view",
      "type": "function"
    },
    {
      "constant": false,
      "inputs": [
        {
          "internalType": "bool",
          "name": "restriction",
          "type": "bool"
        }
      ],
      "name": "restrictPlatform",
      "outputs": [],
      "payable": false,
      "stateMutability": "nonpayable",
      "type": "function"
    },
    {
      "constant": true,
      "inputs": [],
      "name": "isPlatformRestricted",
      "outputs": [
        {
          "internalType": "bool",
          "name": "",
          "type": "bool"
        }
      ],
      "payable": false,
      "stateMutability": "view",
      "type": "function"
    },
    {
      "constant": false,
      "inputs": [
        {
          "internalType": "address",
          "name": "addressToAdd",
          "type": "address"
        }
      ],
      "name": "addAuthorizedAddress",
      "outputs": [],
      "payable": false,
      "stateMutability": "nonpayable",
      "type": "function"
    },
    {
      "constant": false,
      "inputs": [
        {
          "internalType": "address",
          "name": "addressToRemove",
          "type": "address"
        }
      ],
      "name": "removeAuthorizedAddress",
      "outputs": [],
      "payable": false,
      "stateMutability": "nonpayable",
      "type": "function"
    },
    {
      "constant": true,
      "inputs": [
        {
          "internalType": "address",
          "name": "account",
          "type": "address"
        }
      ],
      "name": "hasAuthorization",
      "outputs": [
        {
          "internalType": "bool",
          "name": "",
          "type": "bool"
        }
      ],
      "payable": false,
      "stateMutability": "view",
      "type": "function"
    },
    {
      "constant": true,
      "inputs": [
        {
          "internalType": "address",
          "name": "account",
          "type": "address"
        }
      ],
      "name": "requireAuthorization",
      "outputs": [],
      "payable": false,
      "stateMutability": "view",
      "type": "function"
    },
    {
      "constant": false,
      "inputs": [
        {
          "internalType": "address",
          "name": "sender",
          "type": "address"
        }
      ],
      "name": "initialize",
      "outputs": [],
      "payable": false,
      "stateMutability": "nonpayable",
      "type": "function"
    },
    {
      "constant": false,
      "inputs": [
        {
          "internalType": "address",
          "name": "escrowFactoryAddress",
          "type": "address"
        },
        {
          "internalType": "address",
          "name": "versionsRegistryAddress",
          "type": "address"
        },
        {
          "internalType": "address",
          "name": "chainlinkAggregatorAddress",
          "type": "address"
        },
        {
          "internalType": "address",
          "name": "marketsStateAddress",
          "type": "address"
        },
        {
          "internalType": "address",
          "name": "interestValidatorAddress",
          "type": "address"
        },
        {
          "internalType": "address",
          "name": "atmSettingsAddress",
          "type": "address"
        },
        {
          "internalType": "address",
          "name": "cethTokenAddress",
          "type": "address"
        }
      ],
      "name": "initialize",
      "outputs": [],
      "payable": false,
      "stateMutability": "nonpayable",
      "type": "function"
    }
  ],
  "bytecode": "0x6080604052613a17806100136000396000f3fe608060405234801561001057600080fd5b50600436106102f15760003560e01c80636ef8d66d1161019d578063c095ea27116100e9578063d86d744e116100a2578063ea23cb7c1161007c578063ea23cb7c14610627578063f19e207e1461062f578063fa4c4c0314610642578063fbedbe5c1461064a576102f1565b8063d86d744e1461060f578063dc21a6a014610617578063e06174e41461061f576102f1565b8063c095ea271461059b578063c4d66de8146105ae578063ce199129146105c1578063cf35bdd0146105e1578063d10a0aec146105f4578063d2997d2614610607576102f1565b8063a239c58b11610156578063ad21879e11610130578063ad21879e14610570578063b187bd2614610583578063b8aa61941461058b578063bdd1daaa14610593576102f1565b8063a239c58b14610542578063a734f06e14610555578063a832221e1461055d576102f1565b80636ef8d66d146104e657806370712939146104ee57806374b7b6a61461050157806382dc1ec4146105145780638456cb59146105275780639dec88b91461052f576102f1565b80633b6683211161025c5780635c975abb1161021557806367e4ac2c116101ef57806367e4ac2c1461048957806369ff77441461049e5780636a3a61cd146104b15780636b3b8ec1146104c4576102f1565b80635c975abb1461045b5780635f72868f1461046357806362f9ed7714610476576102f1565b80633b668321146103f25780633f4ba83a1461040557806342f1181e1461040d57806346fbf68e146104205780634c7b0972146104335780635004d36c14610453576102f1565b80632653f3d4116102ae5780632653f3d414610389578063269012a01461039157806326c7bd93146103b15780632fa8a7ee146103c457806332c1ff91146103cc57806335876476146103df576102f1565b8063040141e5146102f65780631362fee7146103145780631390f8d714610337578063158ef93e1461034c5780631be0ed37146103615780631f338eb514610376575b600080fd5b6102fe61065d565b60405161030b9190613316565b60405180910390f35b610327610322366004612871565b610675565b60405161030b949392919061367e565b61033f61069f565b60405161030b91906133bd565b6103546106ae565b60405161030b91906133a1565b61037461036f3660046126c4565b6106d0565b005b610374610384366004612823565b610854565b61035461096c565b6103a461039f366004612871565b610976565b60405161030b91906133af565b6102fe6103bf3660046126c4565b61098a565b61033f6109a8565b6103746103da366004612700565b6109b7565b6103746103ed36600461273a565b610ab9565b6103546104003660046126c4565b610d12565b610374610d27565b61037461041b3660046126c4565b610df8565b61035461042e3660046126c4565b610ee0565b6104466104413660046126c4565b610ef9565b60405161030b919061362c565b61033f610f4a565b610354610f59565b6103746104713660046127d6565b610f62565b610374610484366004612871565b6110b7565b61049161119e565b60405161030b9190613390565b6103546104ac366004612823565b611200565b6103746104bf3660046126c4565b61122f565b6104d76104d23660046126c4565b611264565b60405161030b93929190613368565b610374611292565b6103746104fc3660046126c4565b6112a4565b61035461050f366004612871565b611389565b6103746105223660046126c4565b61139e565b61037461140a565b61037461053d3660046128ae565b6114c8565b6103746105503660046126c4565b6115d8565b6102fe611751565b61037461056b366004612853565b611769565b61035461057e3660046126c4565b611803565b610354611838565b6103a4611847565b61033f61185b565b6103746105a93660046126c4565b61186a565b6103746105bc3660046126c4565b61188f565b6105d46105cf366004612871565b611926565b60405161030b919061363a565b6102fe6105ef366004612871565b611937565b61037461060236600461288f565b61195e565b6102fe611a41565b61033f611a50565b61033f611a5f565b61033f611a6e565b61033f611a78565b61035461063d3660046126c4565b611a87565b6103a4611a9c565b6103746106583660046126c4565b611ab0565b73c02aaa39b223fe8d0a0e5c4f27ead9083c756cc281565b609e6020526000908152604090208054600182015460028301546003909301549192909160ff1684565b60a2546001600160a01b031681565b60008060016040516106bf90613300565b604051908190039020035492915050565b6106d8611c27565b6001600160a01b031663c095ea27336040518263ffffffff1660e01b81526004016107039190613324565b60006040518083038186803b15801561071b57600080fd5b505afa15801561072f573d6000803e3d6000fd5b505060665460ff1615915061076190505760405162461bcd60e51b81526004016107589061349c565b60405180910390fd5b6107696106ae565b6107855760405162461bcd60e51b8152600401610758906135cc565b60408051808201909152601881527713115391125391d7d413d3d317d254d7d49154555254915160421b60208201526107ce906001600160a01b0383169063ffffffff611c4c16565b6001600160a01b0381166000908152609b602052604090205460ff16156108075760405162461bcd60e51b8152600401610758906133dc565b6001600160a01b0381166000818152609b6020526040808220805460ff191660011790555133917fff7b62e2b5984471f0fb76a23e84a0d6f2e5c3e8818a929948190ce967a2fc2e91a350565b61085c611c27565b6001600160a01b031663c095ea27336040518263ffffffff1660e01b81526004016108879190613324565b60006040518083038186803b15801561089f57600080fd5b505afa1580156108b3573d6000803e3d6000fd5b505050506108bf6106ae565b6108db5760405162461bcd60e51b8152600401610758906135cc565b6001600160a01b0382166000908152609c60205260409020600181015490610909908363ffffffff611c7916565b826001600160a01b0316336001600160a01b03166c13585e131bd85b905b5bdd5b9d609a1b7fc34434be61dd5409142baf6b4b56c888a407184091916f210f1229981176729e848660405161095f929190613648565b60405180910390a4505050565b60a65460ff165b90565b600061098182611cce565b5190505b919050565b6001600160a01b039081166000908152609c60205260409020541690565b60a3546001600160a01b031681565b6109bf611c27565b6001600160a01b031663c095ea27336040518263ffffffff1660e01b81526004016109ea9190613324565b60006040518083038186803b158015610a0257600080fd5b505afa158015610a16573d6000803e3d6000fd5b50505050610a226106ae565b610a3e5760405162461bcd60e51b8152600401610758906135cc565b6001600160a01b038083166000908152609c602052604090205416610a638383611d20565b826001600160a01b0316336001600160a01b03166c43546f6b656e4164647265737360981b7f929f6b235ccfb7d9550dd06e5cde398e177120a98377d5f152b6c76e030f45fa848660405161095f929190613332565b610ac16106ae565b15610ade5760405162461bcd60e51b8152600401610758906135fc565b610af0876001600160a01b0316611ed4565b610b0c5760405162461bcd60e51b81526004016107589061351c565b610b1e866001600160a01b0316611ed4565b610b3a5760405162461bcd60e51b81526004016107589061350c565b610b4c856001600160a01b0316611ed4565b610b685760405162461bcd60e51b81526004016107589061342c565b610b7a846001600160a01b0316611ed4565b610b965760405162461bcd60e51b81526004016107589061356c565b610ba8836001600160a01b0316611f10565b80610bc05750610bc0836001600160a01b0316611ed4565b610bdc5760405162461bcd60e51b81526004016107589061348c565b610bee826001600160a01b0316611ed4565b610c0a5760405162461bcd60e51b81526004016107589061344c565b610c1c816001600160a01b0316611ed4565b610c385760405162461bcd60e51b8152600401610758906135ec565b610c413361188f565b610c49611f1d565b609f80546001600160a01b03199081166001600160a01b038a81169190911790925560a08054821689841617905560a18054821688841617905560a28054821687841617905560a38054821686841617905560a480548216858416179055609a8054909116918316919091179055604051610cc390612604565b604051809103906000f080158015610cdf573d6000803e3d6000fd5b50609980546001600160a01b0319166001600160a01b0392909216919091179055610d0930611f3f565b50505050505050565b609b6020526000908152604090205460ff1681565b610d2f611c27565b6001600160a01b031663c095ea27336040518263ffffffff1660e01b8152600401610d5a9190613324565b60006040518083038186803b158015610d7257600080fd5b505afa158015610d86573d6000803e3d6000fd5b505060665460ff169150610dae90505760405162461bcd60e51b8152600401610758906133ec565b6066805460ff191690557f5db9ee0a495bf2e6ff9c91a7834c1ba4fdd244a5e8aa4e537bd38aeae4b073aa610de1611fb1565b604051610dee9190613324565b60405180910390a1565b610e00611c27565b6001600160a01b031663c095ea27336040518263ffffffff1660e01b8152600401610e2b9190613324565b60006040518083038186803b158015610e4357600080fd5b505afa158015610e57573d6000803e3d6000fd5b50505050610e636106ae565b610e7f5760405162461bcd60e51b8152600401610758906135cc565b60408051808201909152600c81526b414444524553535f5a45524f60a01b6020820152610ebc906001600160a01b0383169063ffffffff611c4c16565b6001600160a01b0316600090815260a560205260409020805460ff19166001179055565b6000610ef360338363ffffffff611fb516565b92915050565b610f01612611565b506001600160a01b039081166000908152609c60209081526040918290208251606081018452815490941684526001810154918401919091526002015460ff1615159082015290565b60a1546001600160a01b031681565b60665460ff1690565b610f6a611c27565b6001600160a01b031663c095ea27336040518263ffffffff1660e01b8152600401610f959190613324565b60006040518083038186803b158015610fad57600080fd5b505afa158015610fc1573d6000803e3d6000fd5b50505050610fcd6106ae565b610fe95760405162461bcd60e51b8152600401610758906135cc565b6001600160a01b0383166000908152609c6020526040902061100a90611ffd565b6001600160a01b0383166000908152609c60205260409020611032908263ffffffff61202316565b611044826001600160a01b0316612067565b15611053576110538383611d20565b611064609d8463ffffffff61207516565b50826001600160a01b0316336001600160a01b03167fe37faf4827cb3cd6cbaf895d9ca6b0f7ea5113da8a6ca24b281270c760f03bc084846040516110aa92919061334d565b60405180910390a3505050565b6110bf611c27565b6001600160a01b031663c095ea27336040518263ffffffff1660e01b81526004016110ea9190613324565b60006040518083038186803b15801561110257600080fd5b505afa158015611116573d6000803e3d6000fd5b505050506111226106ae565b61113e5760405162461bcd60e51b8152600401610758906135cc565b6000818152609e60205260409020805490611158906120fd565b336001600160a01b0316827f441e6d4e0fa187867205bff50ab3fdf95c4612c241878b3f50d93a1256669dc98360405161119291906133af565b60405180910390a35050565b6060609d8054806020026020016040519081016040528092919081815260200182805480156111f657602002820191906000526020600020905b81546001600160a01b031681526001909101906020018083116111d8575b5050505050905090565b6001600160a01b0382166000908152609c60205260408120611228908363ffffffff61212416565b9392505050565b60a65460ff161580611245575061124581611803565b6112615760405162461bcd60e51b8152600401610758906135dc565b50565b609c602052600090815260409020805460018201546002909201546001600160a01b03909116919060ff1683565b6112a261129d611fb1565b61213b565b565b6112ac611c27565b6001600160a01b031663c095ea27336040518263ffffffff1660e01b81526004016112d79190613324565b60006040518083038186803b1580156112ef57600080fd5b505afa158015611303573d6000803e3d6000fd5b5050505061130f6106ae565b61132b5760405162461bcd60e51b8152600401610758906135cc565b60408051808201909152600c81526b414444524553535f5a45524f60a01b6020820152611368906001600160a01b0383169063ffffffff611c4c16565b6001600160a01b0316600090815260a560205260409020805460ff19169055565b600061139482611cce565b6060015192915050565b6113a6611c27565b6001600160a01b031663c095ea27336040518263ffffffff1660e01b81526004016113d19190613324565b60006040518083038186803b1580156113e957600080fd5b505afa1580156113fd573d6000803e3d6000fd5b5050505061126181612183565b611412611c27565b6001600160a01b031663c095ea27336040518263ffffffff1660e01b815260040161143d9190613324565b60006040518083038186803b15801561145557600080fd5b505afa158015611469573d6000803e3d6000fd5b505060665460ff1615915061149290505760405162461bcd60e51b81526004016107589061349c565b6066805460ff191660011790557f62e78cea01bee320cd4e420270b5ea74000d11b0c9f74754ebdbfc544b05a258610de1611fb1565b6114d0611c27565b6001600160a01b031663c095ea27336040518263ffffffff1660e01b81526004016114fb9190613324565b60006040518083038186803b15801561151357600080fd5b505afa158015611527573d6000803e3d6000fd5b505050506115336106ae565b61154f5760405162461bcd60e51b8152600401610758906135cc565b8361156c5760405162461bcd60e51b81526004016107589061361c565b6000848152609e6020526040902061158c9084848463ffffffff6121cb16565b336001600160a01b0316847f88608f5277d08a47d0b5c4911811b474510dfcb1e303b13120b4fdd013ee4feb8585856040516115ca93929190613656565b60405180910390a350505050565b6115e0611c27565b6001600160a01b031663c095ea27336040518263ffffffff1660e01b815260040161160b9190613324565b60006040518083038186803b15801561162357600080fd5b505afa158015611637573d6000803e3d6000fd5b505050506116436106ae565b61165f5760405162461bcd60e51b8152600401610758906135cc565b60408051808201909152601981527f41535345545f414444524553535f49535f52455155495245440000000000000060208201526116ad906001600160a01b0383169063ffffffff611c4c16565b6001600160a01b0381166000908152609c602052604090206116ce9061223a565b6001600160a01b0381166000908152609c6020526040812080546001600160a01b03191681556001810191909155600201805460ff19169055611718609d8263ffffffff61225f16565b6040516001600160a01b0382169033907fff739057fdc41db152d18e4a53b9ed8db9afe0b5b7bc4c9e7e60168cb6a0d7e790600090a350565b73eeeeeeeeeeeeeeeeeeeeeeeeeeeeeeeeeeeeeeee81565b611771611c27565b6001600160a01b031663c095ea27336040518263ffffffff1660e01b815260040161179c9190613324565b60006040518083038186803b1580156117b457600080fd5b505afa1580156117c8573d6000803e3d6000fd5b505050506117d46106ae565b6117f05760405162461bcd60e51b8152600401610758906135cc565b60a6805460ff1916911515919091179055565b600061180e82610ee0565b8061183157506001600160a01b038216600090815260a5602052604090205460ff165b9050610985565b6000611842610f59565b905090565b6c13585e131bd85b905b5bdd5b9d609a1b81565b609f546001600160a01b031681565b61187381610ee0565b6112615760405162461bcd60e51b81526004016107589061346c565b600054610100900460ff16806118a857506118a861228c565b806118b6575060005460ff16155b6118d25760405162461bcd60e51b81526004016107589061355c565b600054610100900460ff161580156118fd576000805460ff1961ff0019909116610100171660011790555b61190682612292565b6066805460ff191690558015611922576000805461ff00191690555b5050565b61192e612631565b610ef382611cce565b609d818154811061194457fe5b6000918252602090912001546001600160a01b0316905081565b611966611c27565b6001600160a01b031663c095ea27336040518263ffffffff1660e01b81526004016119919190613324565b60006040518083038186803b1580156119a957600080fd5b505afa1580156119bd573d6000803e3d6000fd5b505050506119c96106ae565b6119e55760405162461bcd60e51b8152600401610758906135cc565b6000828152609e60205260408120611a03908363ffffffff61232b16565b9050336001600160a01b0316837ff5d6988acb4a237a95feb459c3b5d7f95ad15acfe26d31cd4bf88b8b1ec792de83856040516110aa929190613648565b609a546001600160a01b031681565b6099546001600160a01b031681565b60a4546001600160a01b031681565b6000611842611c27565b60a0546001600160a01b031681565b60a56020526000908152604090205460ff1681565b6c43546f6b656e4164647265737360981b81565b611ab8611c27565b6001600160a01b031663c095ea27336040518263ffffffff1660e01b8152600401611ae39190613324565b60006040518083038186803b158015611afb57600080fd5b505afa158015611b0f573d6000803e3d6000fd5b505060665460ff16159150611b3890505760405162461bcd60e51b81526004016107589061349c565b611b406106ae565b611b5c5760405162461bcd60e51b8152600401610758906135cc565b60408051808201909152601881527713115391125391d7d413d3d317d254d7d49154555254915160421b6020820152611ba5906001600160a01b0383169063ffffffff611c4c16565b6001600160a01b0381166000908152609b602052604090205460ff16611bdd5760405162461bcd60e51b81526004016107589061359c565b6001600160a01b0381166000818152609b6020526040808220805460ff191690555133917fc55a972437581d7d7bfd8729cdde06ee7e788e1a407b4cfdc6a0330d04b391f191a350565b60008060006001604051611c3a9061330b565b60405190819003902003549250505090565b611c5582612067565b8190611c745760405162461bcd60e51b815260040161075891906133cb565b505050565b611c828261223a565b8082600101541415611ca65760405162461bcd60e51b8152600401610758906134ec565b60008111611cc65760405162461bcd60e51b81526004016107589061357c565b600190910155565b611cd6612631565b506000908152609e602090815260409182902082516080810184528154815260018201549281019290925260028101549282019290925260039091015460ff161515606082015290565b6001600160a01b03821673eeeeeeeeeeeeeeeeeeeeeeeeeeeeeeeeeeeeeeee1415611d9857609a546040805180820190915260168152750868aa890be828888a48aa6a6be9c9ea8be9a82a886960531b6020820152611d93916001600160a01b038481169291169063ffffffff6123a716565b611eac565b611daa826001600160a01b0316611ed4565b611dc65760405162461bcd60e51b81526004016107589061354c565b611dd8816001600160a01b0316612067565b15611eac57611def816001600160a01b0316611ed4565b611e0b5760405162461bcd60e51b81526004016107589061343c565b816001600160a01b0316816001600160a01b0316636f307dc36040518163ffffffff1660e01b815260040160206040518083038186803b158015611e4e57600080fd5b505afa158015611e62573d6000803e3d6000fd5b505050506040513d601f19601f82011682018060405250611e8691908101906126e2565b6001600160a01b031614611eac5760405162461bcd60e51b8152600401610758906134ac565b6001600160a01b0382166000908152609c60205260409020611922908263ffffffff6123d016565b6000813f7fc5d2460186f7233c927e7db2dcc703c0e500b653ca82273b7bfad8045d85a470818114801590611f0857508115155b949350505050565b6001600160a01b03161590565b60006001604051611f2d90613300565b60405190819003902060019190035550565b611f58611f4a611c27565b6001600160a01b0316612067565b15611f6257611261565b611f74816001600160a01b0316611ed4565b611f905760405162461bcd60e51b81526004016107589061347c565b60006001604051611fa09061330b565b604051908190039020038290555050565b3390565b60006001600160a01b038216611fdd5760405162461bcd60e51b81526004016107589061353c565b506001600160a01b03166000908152602091909152604090205460ff1690565b61200681612423565b156112615760405162461bcd60e51b81526004016107589061360c565b61202c82611ffd565b6000811161204c5760405162461bcd60e51b8152600401610758906134bc565b6001808301919091556002909101805460ff19169091179055565b6001600160a01b0316151590565b60006120c86040518060400160405280601981526020017f454d5054595f414444524553535f4e4f545f414c4c4f57454400000000000000815250836001600160a01b0316611c4c90919063ffffffff16565b508154600181018355600083815260209020810180546001600160a01b0384166001600160a01b031990911617905592915050565b6121068161242d565b6000808255600182018190556002820155600301805460ff19169055565b600061212f8361223a565b50600191909101541090565b61214c60338263ffffffff61245116565b6040516001600160a01b038216907fcd265ebaf09df2871cc7bd4133404a235ba12eff2041bb89d9c714a2621c7c7e90600090a250565b61219460338263ffffffff61249916565b6040516001600160a01b038216907f6719d08c1888103bea251a4ed56406bd0c3e69723c8a1686e017e7bbe159b6f890600090a250565b6121d4846124e5565b818310156121f45760405162461bcd60e51b81526004016107589061358c565b808311156122145760405162461bcd60e51b81526004016107589061352c565b91835560018084019190915560028301919091556003909101805460ff19169091179055565b61224381612423565b6112615760405162461bcd60e51b8152600401610758906134fc565b60008061226c848461250a565b915091508161227c575050611922565b612286848261255f565b50505050565b303b1590565b600054610100900460ff16806122ab57506122ab61228c565b806122b9575060005460ff16155b6122d55760405162461bcd60e51b81526004016107589061355c565b600054610100900460ff16158015612300576000805460ff1961ff0019909116610100171660011790555b61230982610ee0565b6123165761231682612183565b8015611922576000805461ff00191690555050565b60006123368361242d565b82548214156123575760405162461bcd60e51b81526004016107589061345c565b826001015482101561237b5760405162461bcd60e51b81526004016107589061341c565b826002015482111561239f5760405162461bcd60e51b8152600401610758906135bc565b508154915590565b6123b183836125f3565b81906122865760405162461bcd60e51b815260040161075891906133cb565b6123d98261223a565b81546001600160a01b03828116911614156124065760405162461bcd60e51b8152600401610758906134cc565b81546001600160a01b0319166001600160a01b0391909116179055565b6002015460ff1690565b600381015460ff166112615760405162461bcd60e51b8152600401610758906135ac565b61245b8282611fb5565b6124775760405162461bcd60e51b8152600401610758906134dc565b6001600160a01b0316600090815260209190915260409020805460ff19169055565b6124a38282611fb5565b156124c05760405162461bcd60e51b8152600401610758906133fc565b6001600160a01b0316600090815260209190915260409020805460ff19166001179055565b600381015460ff16156112615760405162461bcd60e51b81526004016107589061340c565b6000805b835481101561255857826001600160a01b031684828154811061252d57fe5b6000918252602090912001546001600160a01b0316149150811561255057612558565b60010161250e565b9250929050565b8154811061256c57611922565b81546000190181146125e35781548290600019810190811061258a57fe5b9060005260206000200160009054906101000a90046001600160a01b03168282815481106125b457fe5b9060005260206000200160006101000a8154816001600160a01b0302191690836001600160a01b031602179055505b8154611c7483600019830161265b565b6001600160a01b0390811691161490565b61027b8061375a83390190565b604080516060810182526000808252602082018190529181019190915290565b60405180608001604052806000815260200160008152602001600081526020016000151581525090565b815481835581811115611c7457600083815260209020611c7491810190830161097391905b808211156126945760008155600101612680565b5090565b8035610ef381613733565b8051610ef381613733565b8035610ef381613747565b8035610ef381613750565b6000602082840312156126d657600080fd5b6000611f088484612698565b6000602082840312156126f457600080fd5b6000611f0884846126a3565b6000806040838503121561271357600080fd5b600061271f8585612698565b925050602061273085828601612698565b9150509250929050565b600080600080600080600060e0888a03121561275557600080fd5b60006127618a8a612698565b97505060206127728a828b01612698565b96505060406127838a828b01612698565b95505060606127948a828b01612698565b94505060806127a58a828b01612698565b93505060a06127b68a828b01612698565b92505060c06127c78a828b01612698565b91505092959891949750929550565b6000806000606084860312156127eb57600080fd5b60006127f78686612698565b935050602061280886828701612698565b9250506040612819868287016126b9565b9150509250925092565b6000806040838503121561283657600080fd5b60006128428585612698565b9250506020612730858286016126b9565b60006020828403121561286557600080fd5b6000611f0884846126ae565b60006020828403121561288357600080fd5b6000611f0884846126b9565b600080604083850312156128a257600080fd5b600061284285856126b9565b600080600080608085870312156128c457600080fd5b60006128d087876126b9565b94505060206128e1878288016126b9565b93505060406128f2878288016126b9565b9250506060612903878288016126b9565b91505092959194509250565b600061291b8383612932565b505060200190565b61292c816136eb565b82525050565b61292c816136cf565b6000612946826136c2565b61295081856136c6565b935061295b836136bc565b8060005b83811015612989578151612973888261290f565b975061297e836136bc565b92505060010161295f565b509495945050505050565b61292c816136da565b61292c81610973565b61292c816136f2565b60006129ba826136c2565b6129c481856136c6565b93506129d48185602086016136fd565b6129dd81613729565b9093019392505050565b60006129f4601c83610985565b7f54496e697469616c697a61626c652e6973496e697469616c697a6564000000008152601c0192915050565b6000612a2d601b836136c6565b7f4c454e44494e475f504f4f4c5f414c52454144595f5041555345440000000000815260200192915050565b6000612a666014836136c6565b7314185d5cd8589b194e881b9bdd081c185d5cd95960621b815260200192915050565b6000612a96601f836136c6565b7f526f6c65733a206163636f756e7420616c72656164792068617320726f6c6500815260200192915050565b6000612acf601f836136c6565b7f504c4154464f524d5f53455454494e475f414c52454144595f45584953545300815260200192915050565b6000612b08601e836136c6565b7f4e45575f56414c55455f4d5553545f42455f47545f4d494e5f56414c55450000815260200192915050565b6000612b41601b836136c6565b7f41474752454741544f525f4d5553545f42455f434f4e54524143540000000000815260200192915050565b6000612b7a6020836136c6565b7f43544f4b454e5f4d5553545f42455f434f4e54524143545f4f525f454d505459815260200192915050565b6000612bb3601d836136c6565b7f41544d5f53455454494e47535f4d5553545f42455f434f4e5452414354000000815260200192915050565b6000612bec6012836136c6565b71139155d7d59053155157d49154555254915160721b815260200192915050565b6000612c1a600a836136c6565b692727aa2fa820aaa9a2a960b11b815260200192915050565b6000612c40601b836136c6565b7f53455454494e47535f4d5553545f42455f415f434f4e54524143540000000000815260200192915050565b6000612c79601d836136c6565b7f494e5445524553545f56414c5f4d5553545f42455f434f4e5452414354000000815260200192915050565b6000612cb26010836136c6565b6f14185d5cd8589b194e881c185d5cd95960821b815260200192915050565b6000612cde601c836136c6565b7f554e4445524c59494e475f414444524553535f4e4f545f4d4154434800000000815260200192915050565b6000612d176018836136c6565b7f494e49545f4d41585f414d4f554e545f52455155495245440000000000000000815260200192915050565b6000612d50601b836136c6565b7f4e45575f43544f4b454e5f414444524553535f52455155495245440000000000815260200192915050565b6000612d896021836136c6565b7f526f6c65733a206163636f756e7420646f6573206e6f74206861766520726f6c8152606560f81b602082015260400192915050565b6000612dcc601c836136c6565b7f4e45575f4d41585f4c4f414e5f414d4f554e545f524551554952454400000000815260200192915050565b6000612e056019836136c6565b7f41535345545f53455454494e47535f4e4f545f45584953545300000000000000815260200192915050565b6000612e3e601e836136c6565b7f564552535f52454749535452595f4d5553545f42455f434f4e54524143540000815260200192915050565b6000612e77601f836136c6565b7f455343524f575f464143544f52595f4d5553545f42455f434f4e545241435400815260200192915050565b6000612eb0601a836136c6565b7f56414c55455f4d5553545f42455f4c545f4d41585f56414c5545000000000000815260200192915050565b6000612ee96022836136c6565b7f526f6c65733a206163636f756e7420697320746865207a65726f206164647265815261737360f01b602082015260400192915050565b6000612f2d601e836136c6565b7f41535345545f414444524553535f4d5553545f42455f434f4e54524143540000815260200192915050565b6000612f66602e836136c6565b7f436f6e747261637420696e7374616e63652068617320616c726561647920626581526d195b881a5b9a5d1a585b1a5e995960921b602082015260400192915050565b6000612fb6601e836136c6565b7f4d41524b4554535f53544154455f4d5553545f42455f434f4e54524143540000815260200192915050565b6000612fef6018836136c6565b7f4d41585f4c4f414e5f414d4f554e545f4e4f545f5a45524f0000000000000000815260200192915050565b6000613028601a836136c6565b7f56414c55455f4d5553545f42455f47545f4d494e5f56414c5545000000000000815260200192915050565b6000613061601a836136c6565b7f4c454e44494e475f504f4f4c5f49535f4e4f545f504155534544000000000000815260200192915050565b600061309a601b836136c6565b7f504c4154464f524d5f53455454494e475f4e4f545f4558495354530000000000815260200192915050565b60006130d3601883610985565b7f426173655570677261646561626c652e73657474696e67730000000000000000815260180192915050565b600061310c601e836136c6565b7f4e45575f56414c55455f4d5553545f42455f4c545f4d41585f56414c55450000815260200192915050565b60006131456018836136c6565b7f434f4e54524143545f4e4f545f494e495449414c495a45440000000000000000815260200192915050565b600061317e600e836136c6565b6d1393d517d055551213d49256915160921b815260200192915050565b60006131a8601d836136c6565b7f434554485f414444524553535f4d5553545f42455f434f4e5452414354000000815260200192915050565b60006131e1601c836136c6565b7f434f4e54524143545f414c52454144595f494e495449414c495a454400000000815260200192915050565b600061321a601d836136c6565b7f41535345545f53455454494e47535f414c52454144595f455849535453000000815260200192915050565b6000613253601d836136c6565b7f53455454494e475f4e414d455f4d5553545f42455f50524f5649444544000000815260200192915050565b805160608301906132908482612932565b5060208201516132a3602085018261299d565b5060408201516122866040850182612994565b805160808301906132c7848261299d565b5060208201516132da602085018261299d565b5060408201516132ed604085018261299d565b5060608201516122866060850182612994565b6000610ef3826129e7565b6000610ef3826130c6565b60208101610ef38284612932565b60208101610ef38284612923565b604081016133408285612932565b6112286020830184612932565b6040810161335b8285612932565b611228602083018461299d565b606081016133768286612932565b613383602083018561299d565b611f086040830184612994565b60208082528101611228818461293b565b60208101610ef38284612994565b60208101610ef3828461299d565b60208101610ef382846129a6565b6020808252810161122881846129af565b60208082528101610ef381612a20565b60208082528101610ef381612a59565b60208082528101610ef381612a89565b60208082528101610ef381612ac2565b60208082528101610ef381612afb565b60208082528101610ef381612b34565b60208082528101610ef381612b6d565b60208082528101610ef381612ba6565b60208082528101610ef381612bdf565b60208082528101610ef381612c0d565b60208082528101610ef381612c33565b60208082528101610ef381612c6c565b60208082528101610ef381612ca5565b60208082528101610ef381612cd1565b60208082528101610ef381612d0a565b60208082528101610ef381612d43565b60208082528101610ef381612d7c565b60208082528101610ef381612dbf565b60208082528101610ef381612df8565b60208082528101610ef381612e31565b60208082528101610ef381612e6a565b60208082528101610ef381612ea3565b60208082528101610ef381612edc565b60208082528101610ef381612f20565b60208082528101610ef381612f59565b60208082528101610ef381612fa9565b60208082528101610ef381612fe2565b60208082528101610ef38161301b565b60208082528101610ef381613054565b60208082528101610ef38161308d565b60208082528101610ef3816130ff565b60208082528101610ef381613138565b60208082528101610ef381613171565b60208082528101610ef38161319b565b60208082528101610ef3816131d4565b60208082528101610ef38161320d565b60208082528101610ef381613246565b60608101610ef3828461327f565b60808101610ef382846132b6565b6040810161335b828561299d565b60608101613664828661299d565b613671602083018561299d565b611f08604083018461299d565b6080810161368c828761299d565b613699602083018661299d565b6136a6604083018561299d565b6136b36060830184612994565b95945050505050565b60200190565b5190565b90815260200190565b6000610ef3826136df565b151590565b6001600160a01b031690565b6000610ef3825b6000610ef3826136cf565b60005b83811015613718578181015183820152602001613700565b838111156122865750506000910152565b601f01601f191690565b61373c816136cf565b811461126157600080fd5b61373c816136da565b61373c8161097356fe608060405234801561001057600080fd5b5061025b806100206000396000f3fe608060405234801561001057600080fd5b50600436106100a95760003560e01c8063be224fc611610071578063be224fc6146100e8578063c41dd8ce146100f0578063cc44cadb146100f8578063dd0081c714610100578063e00a461514610108578063e3f33d0014610110576100a9565b806308b04f62146100ae5780631139087a146100c857806311880cc8146100d05780633b98dfdb146100d85780633ff591d9146100e0575b600080fd5b6100b6610118565b60408051918252519081900360200190f35b6100b661012f565b6100b6610147565b6100b661015c565b6100b6610180565b6100b661019a565b6100b66101be565b6100b66101d5565b6100b66101ef565b6100b66101f5565b6100b661020b565b6f21b7b63630ba32b930b6213ab33332b960811b81565b704c6971756964617465457468507269636560781b81565b6d14d859995d1e525b9d195c9d985b60921b81565b7f526571756573744c6f616e5465726d73526174654c696d69740000000000000081565b7252657175697265645375626d697373696f6e7360681b81565b7f4f766572436f6c6c61746572616c697a6564427566666572000000000000000081565b6f4d6178696d756d546f6c6572616e636560801b81565b7226b0bc34b6bab6a637b0b7223ab930ba34b7b760691b81565b61271081565b6e5465726d7345787069727954696d6560881b81565b730a4cae6e0dedce6ca8af0e0d2e4f298cadccee8d60631b8156fea265627a7a72315820ddbf1974d81c1b73df5b49f90d24b4d5613e1599e9e0a4f90b5539fbaf1c37a764736f6c63430005110032a365627a7a7231582001ab55144b4f395c3dc2d750e8d1cf2c0828f0535d26756e8ad37b1415f929d36c6578706572696d656e74616cf564736f6c63430005110040",
  "source": "pragma solidity 0.5.17;\npragma experimental ABIEncoderV2;\n\n// Libraries\nimport \"@openzeppelin/contracts-ethereum-package/contracts/utils/Address.sol\";\nimport \"../util/AddressLib.sol\";\nimport \"../util/AssetSettingsLib.sol\";\nimport \"../util/PlatformSettingsLib.sol\";\nimport \"../util/AddressArrayLib.sol\";\n\n// Contracts\nimport \"@openzeppelin/contracts-ethereum-package/contracts/lifecycle/Pausable.sol\";\nimport \"../util/SettingsConsts.sol\";\nimport \"./BaseUpgradeable.sol\";\nimport \"./TInitializable.sol\";\n\n// Interfaces\nimport \"../interfaces/SettingsInterface.sol\";\nimport \"../interfaces/EscrowFactoryInterface.sol\";\nimport \"../interfaces/MarketsStateInterface.sol\";\nimport \"../interfaces/InterestValidatorInterface.sol\";\nimport \"../providers/chainlink/IChainlinkAggregator.sol\";\nimport \"../providers/compound/CErc20Interface.sol\";\nimport \"../settings/IATMSettings.sol\";\n\n/*****************************************************************************************************/\n/**                                             WARNING                                             **/\n/**                                  THIS CONTRACT IS UPGRADEABLE!                                  **/\n/**  ---------------------------------------------------------------------------------------------  **/\n/**  Do NOT change the order of or PREPEND any storage variables to this or new versions of this    **/\n/**  contract as this will cause the the storage slots to be overwritten on the proxy contract!!    **/\n/**                                                                                                 **/\n/**  Visit https://docs.openzeppelin.com/upgrades/2.6/proxies#upgrading-via-the-proxy-pattern for   **/\n/**  more information.                                                                              **/\n/*****************************************************************************************************/\n/**\n    @notice This contract manages the configuration of the platform.\n    @dev The platform settings functions (create, update, and remove) don't include the whenNotPaused() modifier because we might need to use them in both cases (when the platform is paused and not paused).\n        Example:\n            - There is a potential issue and before analyzing it, we pause the platform to avoid funds losses. Finally, as result of the analysis, we decided to update a platform setting (or create a new one for the cloud nodes). In this scenario, if the modifier is present, we couldn't update the setting (because the platform is paused).\n\n    @author develop@teller.finance\n */\ncontract Settings is SettingsInterface, TInitializable, Pausable, BaseUpgradeable {\n    using AddressLib for address;\n    using Address for address;\n    using AssetSettingsLib for AssetSettingsLib.AssetSettings;\n    using AddressArrayLib for address[];\n    using PlatformSettingsLib for PlatformSettingsLib.PlatformSetting;\n\n    /** Constants */\n    /**\n        @notice The asset setting name for the maximum loan amount settings.\n     */\n    bytes32 public constant MAX_LOAN_AMOUNT_ASSET_SETTING = \"MaxLoanAmount\";\n    /**\n        @notice The asset setting name for cToken address settings.\n     */\n    bytes32 public constant CTOKEN_ADDRESS_ASSET_SETTING = \"CTokenAddress\";\n    /**\n        @notice It defines the constant address to represent ETHER.\n     */\n    address public constant ETH_ADDRESS = 0xEeeeeEeeeEeEeeEeEeEeeEEEeeeeEeeeeeeeEEeE;\n    /**\n        @notice It defines the constant address to represent WETH.\n     */\n    address public constant WETH_ADDRESS = 0xC02aaA39b223FE8D0A0e5C4F27eAD9083C756Cc2;\n\n    /* State Variables */\n\n    SettingsConsts public consts;\n\n    /**\n        @notice It defines Compound Ether token address on current network.\n     */\n    address public cethAddress;\n\n    /**\n        @notice It represents a mapping to identify the lending pools paused and not paused.\n\n        i.e.: address(lending pool) => true or false.\n     */\n    mapping(address => bool) public lendingPoolPaused;\n\n    /**\n        @notice It represents a mapping to configure the asset settings.\n        @notice The key belongs to the asset address. Example: address(DAI) or address(USDC).\n        @notice The value has the asset settings.\n\n        Examples:\n\n        address(DAI) => {\n            cTokenAddress = 0x1234...890\n            maxLoanAmount = 1000 DAI (max)\n        }\n        address(USDC) => {\n            cTokenAddress = 0x2345...901\n            maxLoanAmount = 500 USDC (max)\n        }\n     */\n    mapping(address => AssetSettingsLib.AssetSettings) public assetSettings;\n\n    /**\n        @notice It contains all the current assets.\n     */\n    address[] public assets;\n\n    /**\n        @notice This mapping represents the platform settings where:\n\n        - The key is the platform setting name.\n        - The value is the platform setting. It includes the value, minimum and maximum values.\n     */\n    mapping(bytes32 => PlatformSettingsLib.PlatformSetting) public platformSettings;\n\n    /**\n        @notice It is the global instance of the EscrowFactory contract.\n     */\n    EscrowFactoryInterface public escrowFactory;\n\n    /**\n        @notice It is the global instance of the logic versions registry contract.\n     */\n    LogicVersionsRegistryInterface public versionsRegistry;\n\n    /**\n        @notice It is the global instance of the ChainlinkAggregator contract.\n     */\n    IChainlinkAggregator public chainlinkAggregator;\n\n    /**\n        @notice The markets state.\n     */\n    MarketsStateInterface public marketsState;\n\n    /**\n        @notice The current interest validator.\n     */\n    InterestValidatorInterface public interestValidator;\n\n    /**\n        @notice The current ATM settings.\n     */\n    IATMSettings public atmSettings;\n\n    /**\n        @notice This mapping represents the list of wallet addresses that are allowed to interact with the protocol\n        \n        - The key is belongs to the user's wallet address\n        - The value is a boolean flag indicating if the address has permissions\n     */\n    mapping(address => bool) public authorizedAddresses;\n\n    /**\n        @notice Flag restricting the use of the Protocol to authorizedAddress\n     */\n    bool platformRestricted;\n\n    /** Modifiers */\n\n    /* Constructor */\n\n    /** External Functions */\n\n    /**\n        @notice It creates a new platform setting given a setting name, value, min and max values.\n        @param settingName setting name to create.\n        @param value the initial value for the given setting name.\n        @param minValue the min value for the setting.\n        @param maxValue the max value for the setting.\n     */\n    function createPlatformSetting(\n        bytes32 settingName,\n        uint256 value,\n        uint256 minValue,\n        uint256 maxValue\n    ) external onlyPauser() isInitialized() {\n        require(settingName != \"\", \"SETTING_NAME_MUST_BE_PROVIDED\");\n        platformSettings[settingName].initialize(value, minValue, maxValue);\n\n        emit PlatformSettingCreated(settingName, msg.sender, value, minValue, maxValue);\n    }\n\n    /**\n        @notice It updates an existent platform setting given a setting name.\n        @notice It only allows to update the value (not the min or max values).\n        @notice In case you need to update the min or max values, you need to remove it, and create it again.\n        @param settingName setting name to update.\n        @param newValue the new value to set.\n     */\n    function updatePlatformSetting(bytes32 settingName, uint256 newValue)\n        external\n        onlyPauser()\n        isInitialized()\n    {\n        uint256 oldValue = platformSettings[settingName].update(newValue);\n\n        emit PlatformSettingUpdated(settingName, msg.sender, oldValue, newValue);\n    }\n\n    /**\n        @notice Removes a current platform setting given a setting name.\n        @param settingName to remove.\n     */\n    function removePlatformSetting(bytes32 settingName)\n        external\n        onlyPauser()\n        isInitialized()\n    {\n        uint256 oldValue = platformSettings[settingName].value;\n        platformSettings[settingName].remove();\n\n        emit PlatformSettingRemoved(settingName, oldValue, msg.sender);\n    }\n\n    /**\n        @notice It gets the current platform setting for a given setting name\n        @param settingName to get.\n        @return the current platform setting.\n     */\n    function getPlatformSetting(bytes32 settingName)\n        external\n        view\n        returns (PlatformSettingsLib.PlatformSetting memory)\n    {\n        return _getPlatformSetting(settingName);\n    }\n\n    /**\n        @notice It gets the current platform setting value for a given setting name\n        @param settingName to get.\n        @return the current platform setting value.\n     */\n    function getPlatformSettingValue(bytes32 settingName)\n        external\n        view\n        returns (uint256)\n    {\n        return _getPlatformSetting(settingName).value;\n    }\n\n    /**\n        @notice It tests whether a setting name is already configured.\n        @param settingName setting name to test.\n        @return true if the setting is already configured. Otherwise it returns false.\n     */\n    function hasPlatformSetting(bytes32 settingName) external view returns (bool) {\n        return _getPlatformSetting(settingName).exists;\n    }\n\n    /**\n        @notice It pauses a specific lending pool.\n        @param lendingPoolAddress lending pool address to pause.\n     */\n    function pauseLendingPool(address lendingPoolAddress)\n        external\n        onlyPauser()\n        whenNotPaused()\n        isInitialized()\n    {\n        lendingPoolAddress.requireNotEmpty(\"LENDING_POOL_IS_REQUIRED\");\n        require(!lendingPoolPaused[lendingPoolAddress], \"LENDING_POOL_ALREADY_PAUSED\");\n\n        lendingPoolPaused[lendingPoolAddress] = true;\n\n        emit LendingPoolPaused(msg.sender, lendingPoolAddress);\n    }\n\n    /**\n        @notice It unpauses a specific lending pool.\n        @param lendingPoolAddress lending pool address to unpause.\n     */\n    function unpauseLendingPool(address lendingPoolAddress)\n        external\n        onlyPauser()\n        whenNotPaused()\n        isInitialized()\n    {\n        lendingPoolAddress.requireNotEmpty(\"LENDING_POOL_IS_REQUIRED\");\n        require(lendingPoolPaused[lendingPoolAddress], \"LENDING_POOL_IS_NOT_PAUSED\");\n\n        lendingPoolPaused[lendingPoolAddress] = false;\n\n        emit LendingPoolUnpaused(msg.sender, lendingPoolAddress);\n    }\n\n    /**\n        @notice It gets whether the platform is paused or not.\n        @return true if platform is paused. Otherwise it returns false.\n     */\n    function isPaused() external view returns (bool) {\n        return paused();\n    }\n\n    /**\n        @notice It creates a new asset settings in the platform.\n        @param assetAddress asset address used to create the new setting.\n        @param cTokenAddress cToken address used to configure the asset setting.\n        @param maxLoanAmount the max loan amount used to configure the asset setting.\n     */\n    function createAssetSettings(\n        address assetAddress,\n        address cTokenAddress,\n        uint256 maxLoanAmount\n    ) external onlyPauser() isInitialized() {\n        assetSettings[assetAddress].requireNotExists();\n        assetSettings[assetAddress].initialize(maxLoanAmount);\n\n        if (cTokenAddress.isNotEmpty()) {\n            _setCTokenAddress(assetAddress, cTokenAddress);\n        }\n\n        assets.add(assetAddress);\n\n        emit AssetSettingsCreated(msg.sender, assetAddress, cTokenAddress, maxLoanAmount);\n    }\n\n    /**\n        @notice It removes all the asset settings for a specific asset address.\n        @param assetAddress asset address used to remove the asset settings.\n     */\n    function removeAssetSettings(address assetAddress)\n        external\n        onlyPauser()\n        isInitialized()\n    {\n        assetAddress.requireNotEmpty(\"ASSET_ADDRESS_IS_REQUIRED\");\n        assetSettings[assetAddress].requireExists();\n\n        delete assetSettings[assetAddress];\n        assets.remove(assetAddress);\n\n        emit AssetSettingsRemoved(msg.sender, assetAddress);\n    }\n\n    /**\n        @notice It updates the maximum loan amount for a specific asset address.\n        @param assetAddress asset address to configure.\n        @param newMaxLoanAmount the new maximum loan amount to configure.\n     */\n    function updateMaxLoanAmount(address assetAddress, uint256 newMaxLoanAmount)\n        external\n        onlyPauser()\n        isInitialized()\n    {\n        uint256 oldMaxLoanAmount = assetSettings[assetAddress].maxLoanAmount;\n\n        assetSettings[assetAddress].updateMaxLoanAmount(newMaxLoanAmount);\n\n        emit AssetSettingsUintUpdated(\n            MAX_LOAN_AMOUNT_ASSET_SETTING,\n            msg.sender,\n            assetAddress,\n            oldMaxLoanAmount,\n            newMaxLoanAmount\n        );\n    }\n\n    /**\n        @notice It updates the cToken address for a specific asset address.\n        @param assetAddress asset address to configure.\n        @param newCTokenAddress the new cToken address to configure.\n     */\n    function updateCTokenAddress(address assetAddress, address newCTokenAddress)\n        external\n        onlyPauser()\n        isInitialized()\n    {\n        address oldCTokenAddress = assetSettings[assetAddress].cTokenAddress;\n\n        _setCTokenAddress(assetAddress, newCTokenAddress);\n\n        emit AssetSettingsAddressUpdated(\n            CTOKEN_ADDRESS_ASSET_SETTING,\n            msg.sender,\n            assetAddress,\n            oldCTokenAddress,\n            newCTokenAddress\n        );\n    }\n\n    /**\n        @notice Tests whether amount exceeds the current maximum loan amount for a specific asset settings.\n        @param assetAddress asset address to test the setting.\n        @param amount amount to test.\n        @return true if amount exceeds current max loan amout. Otherwise it returns false.\n     */\n    function exceedsMaxLoanAmount(address assetAddress, uint256 amount)\n        external\n        view\n        returns (bool)\n    {\n        return assetSettings[assetAddress].exceedsMaxLoanAmount(amount);\n    }\n\n    /**\n        @notice Gets the current asset addresses list.\n        @return the asset addresses list.\n     */\n    function getAssets() external view returns (address[] memory) {\n        return assets;\n    }\n\n    /**\n        @notice Get the current asset settings for a given asset address.\n        @param assetAddress asset address used to get the current settings.\n        @return the current asset settings.\n     */\n    function getAssetSettings(address assetAddress)\n        external\n        view\n        returns (AssetSettingsLib.AssetSettings memory)\n    {\n        return assetSettings[assetAddress];\n    }\n\n    /**\n        @notice Gets the cToken address for a given asset address.\n        @param assetAddress token address.\n        @return the cToken address for a given asset address.\n     */\n    function getCTokenAddress(address assetAddress) external view returns (address) {\n        return assetSettings[assetAddress].cTokenAddress;\n    }\n\n    /**\n        @notice Requires an account to have the pauser role.\n        @param account account to test.\n     */\n    function requirePauserRole(address account) public view {\n        require(isPauser(account), \"NOT_PAUSER\");\n    }\n\n    /**\n        @notice Restricts the use of the Teller protocol to authorized wallet addresses only\n        @param restriction Bool turning the resitriction on or off\n     */\n    function restrictPlatform(bool restriction) external onlyPauser() isInitialized() {\n        platformRestricted = restriction;\n    }\n\n    /**\n        @notice Returns whether the platform is restricted or not\n        @return bool True if the platform is restricted, false if not\n     */\n    function isPlatformRestricted() external view returns (bool) {\n        return platformRestricted;\n    }\n\n    /**\n        @notice Adds a wallet address to the list of authorized wallets\n        @param addressToAdd The wallet address of the user being authorized\n     */\n    function addAuthorizedAddress(address addressToAdd)\n        external\n        onlyPauser()\n        isInitialized()\n    {\n        addressToAdd.requireNotEmpty(\"ADDRESS_ZERO\");\n        authorizedAddresses[addressToAdd] = true;\n    }\n\n    /**\n        @notice Removes a wallet address from the list of authorized wallets\n        @param addressToRemove The wallet address of the user being unauthorized\n     */\n    function removeAuthorizedAddress(address addressToRemove)\n        external\n        onlyPauser()\n        isInitialized()\n    {\n        addressToRemove.requireNotEmpty(\"ADDRESS_ZERO\");\n        authorizedAddresses[addressToRemove] = false;\n    }\n\n    /**\n        @notice Tests whether an account has authorization\n        @param account The account address to check for\n        @return True if account has authorization, false if it does not\n     */\n    function hasAuthorization(address account) public view returns (bool) {\n        return isPauser(account) || authorizedAddresses[account];\n        versionsRegistry.isProxyRegistered(account);\n    }\n\n    /**\n        @notice Requires an account to have platform authorization.\n        @dev Checks if an account address has authorization or proxy contract is registered.\n        @param account account to test.\n     */\n    function requireAuthorization(address account) public view {\n        require(!platformRestricted || hasAuthorization(account), \"NOT_AUTHORIZED\");\n    }\n\n    /**\n        @notice It initializes this settings contract instance.\n        @param escrowFactoryAddress the initial escrow factory address.\n        @param versionsRegistryAddress the initial versions registry address.\n        @param chainlinkAggregatorAddress the initial pair aggregator registry address.\n        @param marketsStateAddress the initial markets state address.\n        @param interestValidatorAddress the initial interest validator address.\n        @param atmSettingsAddress the initial ATM settings address.\n     */\n    function initialize(\n        address escrowFactoryAddress,\n        address versionsRegistryAddress,\n        address chainlinkAggregatorAddress,\n        address marketsStateAddress,\n        address interestValidatorAddress,\n        address atmSettingsAddress,\n        address cethTokenAddress\n    ) external isNotInitialized() {\n        require(escrowFactoryAddress.isContract(), \"ESCROW_FACTORY_MUST_BE_CONTRACT\");\n        require(versionsRegistryAddress.isContract(), \"VERS_REGISTRY_MUST_BE_CONTRACT\");\n        require(chainlinkAggregatorAddress.isContract(), \"AGGREGATOR_MUST_BE_CONTRACT\");\n        require(marketsStateAddress.isContract(), \"MARKETS_STATE_MUST_BE_CONTRACT\");\n        require(\n            interestValidatorAddress.isEmpty() || interestValidatorAddress.isContract(),\n            \"INTEREST_VAL_MUST_BE_CONTRACT\"\n        );\n        require(atmSettingsAddress.isContract(), \"ATM_SETTINGS_MUST_BE_CONTRACT\");\n        require(cethTokenAddress.isContract(), \"CETH_ADDRESS_MUST_BE_CONTRACT\");\n\n        Pausable.initialize(msg.sender);\n        TInitializable._initialize();\n\n        escrowFactory = EscrowFactoryInterface(escrowFactoryAddress);\n        versionsRegistry = LogicVersionsRegistryInterface(versionsRegistryAddress);\n        chainlinkAggregator = IChainlinkAggregator(chainlinkAggregatorAddress);\n        marketsState = MarketsStateInterface(marketsStateAddress);\n        interestValidator = InterestValidatorInterface(interestValidatorAddress);\n        atmSettings = IATMSettings(atmSettingsAddress);\n        cethAddress = cethTokenAddress;\n\n        consts = new SettingsConsts();\n\n        _setSettings(address(this));\n    }\n\n    /** Internal functions */\n\n    /**\n        @notice It gets the platform setting for a given setting name.\n        @param settingName the setting name to look for.\n        @return the current platform setting for the given setting name.\n     */\n    function _getPlatformSetting(bytes32 settingName)\n        internal\n        view\n        returns (PlatformSettingsLib.PlatformSetting memory)\n    {\n        return platformSettings[settingName];\n    }\n\n    /**\n        @notice It sets the cToken address for a specific asset address.\n        @param assetAddress asset address to configure.\n        @param cTokenAddress the new cToken address to configure.\n     */\n    function _setCTokenAddress(address assetAddress, address cTokenAddress) internal {\n        if (assetAddress == ETH_ADDRESS) {\n            // NOTE: This is the address for the cETH contract. It is hardcoded because the contract does not have a\n            //       underlying() function on it to check that this is the correct contract.\n            cTokenAddress.requireEqualTo(cethAddress, \"CETH_ADDRESS_NOT_MATCH\");\n        } else {\n            require(assetAddress.isContract(), \"ASSET_ADDRESS_MUST_BE_CONTRACT\");\n            if (cTokenAddress.isNotEmpty()) {\n                require(cTokenAddress.isContract(), \"CTOKEN_MUST_BE_CONTRACT_OR_EMPTY\");\n                require(\n                    CErc20Interface(cTokenAddress).underlying() == assetAddress,\n                    \"UNDERLYING_ADDRESS_NOT_MATCH\"\n                );\n            }\n        }\n\n        assetSettings[assetAddress].updateCTokenAddress(cTokenAddress);\n    }\n\n    /** Private functions */\n}\n",
  "sourcePath": "/Users/sy/Documents/GitHub/teller-protocol-v1/contracts/base/Settings.sol",
  "compiler": {
    "name": "solc",
    "version": "0.5.17+commit.d19bba13.Emscripten.clang"
  },
  "schemaVersion": "3.2.3",
  "updatedAt": "2020-12-28T20:49:12.816Z",
  "networkType": "ethereum",
  "devdoc": {
    "author": "develop@teller.finance",
    "details": "The platform settings functions (create, update, and remove) don't include the whenNotPaused() modifier because we might need to use them in both cases (when the platform is paused and not paused). Example: - There is a potential issue and before analyzing it, we pause the platform to avoid funds losses. Finally, as result of the analysis, we decided to update a platform setting (or create a new one for the cloud nodes). In this scenario, if the modifier is present, we couldn't update the setting (because the platform is paused).",
    "methods": {
      "addAuthorizedAddress(address)": {
        "params": {
          "addressToAdd": "The wallet address of the user being authorized"
        }
      },
      "createAssetSettings(address,address,uint256)": {
        "params": {
          "assetAddress": "asset address used to create the new setting.",
          "cTokenAddress": "cToken address used to configure the asset setting.",
          "maxLoanAmount": "the max loan amount used to configure the asset setting."
        }
      },
      "createPlatformSetting(bytes32,uint256,uint256,uint256)": {
        "params": {
          "maxValue": "the max value for the setting.",
          "minValue": "the min value for the setting.",
          "settingName": "setting name to create.",
          "value": "the initial value for the given setting name."
        }
      },
      "exceedsMaxLoanAmount(address,uint256)": {
        "params": {
          "amount": "amount to test.",
          "assetAddress": "asset address to test the setting."
        },
        "return": "true if amount exceeds current max loan amout. Otherwise it returns false."
      },
      "getAssetSettings(address)": {
        "params": {
          "assetAddress": "asset address used to get the current settings."
        },
        "return": "the current asset settings."
      },
      "getAssets()": {
        "return": "the asset addresses list."
      },
      "getCTokenAddress(address)": {
        "params": {
          "assetAddress": "token address."
        },
        "return": "the cToken address for a given asset address."
      },
      "getPlatformSetting(bytes32)": {
        "params": {
          "settingName": "to get."
        },
        "return": "the current platform setting."
      },
      "getPlatformSettingValue(bytes32)": {
        "params": {
          "settingName": "to get."
        },
        "return": "the current platform setting value."
      },
      "hasAuthorization(address)": {
        "params": {
          "account": "The account address to check for"
        },
        "return": "True if account has authorization, false if it does not"
      },
      "hasPlatformSetting(bytes32)": {
        "params": {
          "settingName": "setting name to test."
        },
        "return": "true if the setting is already configured. Otherwise it returns false."
      },
      "initialize(address)": {
        "details": "Initializes the contract in unpaused state. Assigns the Pauser role to the deployer."
      },
      "initialize(address,address,address,address,address,address,address)": {
        "params": {
          "atmSettingsAddress": "the initial ATM settings address.",
          "chainlinkAggregatorAddress": "the initial pair aggregator registry address.",
          "escrowFactoryAddress": "the initial escrow factory address.",
          "interestValidatorAddress": "the initial interest validator address.",
          "marketsStateAddress": "the initial markets state address.",
          "versionsRegistryAddress": "the initial versions registry address."
        }
      },
      "initialized()": {
        "return": "true if contract is initialized. Otherwise it returns false."
      },
      "isPaused()": {
        "return": "true if platform is paused. Otherwise it returns false."
      },
      "isPlatformRestricted()": {
        "return": "bool True if the platform is restricted, false if not"
      },
      "pause()": {
        "details": "Called by a pauser to pause, triggers stopped state."
      },
      "pauseLendingPool(address)": {
        "params": {
          "lendingPoolAddress": "lending pool address to pause."
        }
      },
      "paused()": {
        "details": "Returns true if the contract is paused, and false otherwise."
      },
      "removeAssetSettings(address)": {
        "params": {
          "assetAddress": "asset address used to remove the asset settings."
        }
      },
      "removeAuthorizedAddress(address)": {
        "params": {
          "addressToRemove": "The wallet address of the user being unauthorized"
        }
      },
      "removePlatformSetting(bytes32)": {
        "params": {
          "settingName": "to remove."
        }
      },
      "requireAuthorization(address)": {
        "details": "Checks if an account address has authorization or proxy contract is registered.",
        "params": {
          "account": "account to test."
        }
      },
      "requirePauserRole(address)": {
        "params": {
          "account": "account to test."
        }
      },
      "restrictPlatform(bool)": {
        "params": {
          "restriction": "Bool turning the resitriction on or off"
        }
      },
      "settings()": {
        "details": "This address should NOT change over the time. See details in the _setSettings(...) function."
      },
      "unpause()": {
        "details": "Called by a pauser to unpause, returns to normal state."
      },
      "unpauseLendingPool(address)": {
        "params": {
          "lendingPoolAddress": "lending pool address to unpause."
        }
      },
      "updateCTokenAddress(address,address)": {
        "params": {
          "assetAddress": "asset address to configure.",
          "newCTokenAddress": "the new cToken address to configure."
        }
      },
      "updateMaxLoanAmount(address,uint256)": {
        "params": {
          "assetAddress": "asset address to configure.",
          "newMaxLoanAmount": "the new maximum loan amount to configure."
        }
      },
      "updatePlatformSetting(bytes32,uint256)": {
        "params": {
          "newValue": "the new value to set.",
          "settingName": "setting name to update."
        }
      }
    }
  },
  "userdoc": {
    "methods": {
      "addAuthorizedAddress(address)": {
        "notice": "Adds a wallet address to the list of authorized wallets"
      },
      "createAssetSettings(address,address,uint256)": {
        "notice": "It creates a new asset settings in the platform."
      },
      "createPlatformSetting(bytes32,uint256,uint256,uint256)": {
        "notice": "It creates a new platform setting given a setting name, value, min and max values."
      },
      "exceedsMaxLoanAmount(address,uint256)": {
        "notice": "Tests whether amount exceeds the current maximum loan amount for a specific asset settings."
      },
      "getAssetSettings(address)": {
        "notice": "Get the current asset settings for a given asset address."
      },
      "getAssets()": {
        "notice": "Gets the current asset addresses list."
      },
      "getCTokenAddress(address)": {
        "notice": "Gets the cToken address for a given asset address."
      },
      "getPlatformSetting(bytes32)": {
        "notice": "It gets the current platform setting for a given setting name"
      },
      "getPlatformSettingValue(bytes32)": {
        "notice": "It gets the current platform setting value for a given setting name"
      },
      "hasAuthorization(address)": {
        "notice": "Tests whether an account has authorization"
      },
      "hasPlatformSetting(bytes32)": {
        "notice": "It tests whether a setting name is already configured."
      },
      "initialize(address,address,address,address,address,address,address)": {
        "notice": "It initializes this settings contract instance."
      },
      "initialized()": {
        "notice": "Gets if the contract is initialized."
      },
      "isPaused()": {
        "notice": "It gets whether the platform is paused or not."
      },
      "isPlatformRestricted()": {
        "notice": "Returns whether the platform is restricted or not"
      },
      "pauseLendingPool(address)": {
        "notice": "It pauses a specific lending pool."
      },
      "removeAssetSettings(address)": {
        "notice": "It removes all the asset settings for a specific asset address."
      },
      "removeAuthorizedAddress(address)": {
        "notice": "Removes a wallet address from the list of authorized wallets"
      },
      "removePlatformSetting(bytes32)": {
        "notice": "Removes a current platform setting given a setting name."
      },
      "requireAuthorization(address)": {
        "notice": "Requires an account to have platform authorization."
      },
      "requirePauserRole(address)": {
        "notice": "Requires an account to have the pauser role."
      },
      "restrictPlatform(bool)": {
        "notice": "Restricts the use of the Teller protocol to authorized wallet addresses only"
      },
      "settings()": {
        "notice": "The gets the settings contract address from the SETTINGS_SLOT."
      },
      "unpauseLendingPool(address)": {
        "notice": "It unpauses a specific lending pool."
      },
      "updateCTokenAddress(address,address)": {
        "notice": "It updates the cToken address for a specific asset address."
      },
      "updateMaxLoanAmount(address,uint256)": {
        "notice": "It updates the maximum loan amount for a specific asset address."
      },
      "updatePlatformSetting(bytes32,uint256)": {
        "notice": "It updates an existent platform setting given a setting name.It only allows to update the value (not the min or max values).In case you need to update the min or max values, you need to remove it, and create it again."
      }
    },
    "notice": "This contract manages the configuration of the platform."
  }
}