{
  "contractName": "Settings",
  "abi": [
    {
      "inputs": [
        {
          "internalType": "uint256",
          "name": "aRequiredSubmissions",
          "type": "uint256"
        },
        {
          "internalType": "uint256",
          "name": "aMaximumTolerance",
          "type": "uint256"
        },
        {
          "internalType": "uint256",
          "name": "aResponseExpiryLength",
          "type": "uint256"
        },
        {
          "internalType": "uint256",
          "name": "aSafetyInterval",
          "type": "uint256"
        },
        {
          "internalType": "uint256",
          "name": "aTermsExpiryTime",
          "type": "uint256"
        },
        {
          "internalType": "uint256",
          "name": "aLiquidateEthPrice",
          "type": "uint256"
        }
      ],
      "payable": false,
      "stateMutability": "nonpayable",
      "type": "constructor"
    },
    {
      "anonymous": false,
      "inputs": [
        {
          "indexed": true,
          "internalType": "address",
          "name": "sender",
          "type": "address"
        },
        {
          "indexed": true,
          "internalType": "address",
          "name": "lendingToken",
          "type": "address"
        },
        {
          "indexed": true,
          "internalType": "address",
          "name": "cToken",
          "type": "address"
        },
        {
          "indexed": false,
          "internalType": "uint256",
          "name": "maxLendingAmount",
          "type": "uint256"
        },
        {
          "indexed": false,
          "internalType": "uint256",
          "name": "rateProcessFrequency",
          "type": "uint256"
        }
      ],
      "name": "AssetSettingsCreated",
      "type": "event"
    },
    {
      "anonymous": false,
      "inputs": [
        {
          "indexed": true,
          "internalType": "address",
          "name": "sender",
          "type": "address"
        },
        {
          "indexed": true,
          "internalType": "address",
          "name": "lendingToken",
          "type": "address"
        },
        {
          "indexed": true,
          "internalType": "address",
          "name": "cToken",
          "type": "address"
        },
        {
          "indexed": false,
          "internalType": "uint256",
          "name": "newMaxLendingAmount",
          "type": "uint256"
        },
        {
          "indexed": false,
          "internalType": "uint256",
          "name": "newRateProcessFrequency",
          "type": "uint256"
        }
      ],
      "name": "AssetSettingsUpdated",
      "type": "event"
    },
    {
      "anonymous": false,
      "inputs": [
        {
          "indexed": true,
          "internalType": "address",
          "name": "account",
          "type": "address"
        },
        {
          "indexed": true,
          "internalType": "address",
          "name": "lendingPoolAddress",
          "type": "address"
        }
      ],
      "name": "LendingPoolPaused",
      "type": "event"
    },
    {
      "anonymous": false,
      "inputs": [
        {
          "indexed": true,
          "internalType": "address",
          "name": "account",
          "type": "address"
        },
        {
          "indexed": true,
          "internalType": "address",
          "name": "lendingPoolAddress",
          "type": "address"
        }
      ],
      "name": "LendingPoolUnpaused",
      "type": "event"
    },
    {
      "anonymous": false,
      "inputs": [
        {
          "indexed": false,
          "internalType": "address",
          "name": "account",
          "type": "address"
        }
      ],
      "name": "Paused",
      "type": "event"
    },
    {
      "anonymous": false,
      "inputs": [
        {
          "indexed": true,
          "internalType": "address",
          "name": "account",
          "type": "address"
        }
      ],
      "name": "PauserAdded",
      "type": "event"
    },
    {
      "anonymous": false,
      "inputs": [
        {
          "indexed": true,
          "internalType": "address",
          "name": "account",
          "type": "address"
        }
      ],
      "name": "PauserRemoved",
      "type": "event"
    },
    {
      "anonymous": false,
      "inputs": [
        {
          "indexed": true,
          "internalType": "bytes32",
          "name": "settingName",
          "type": "bytes32"
        },
        {
          "indexed": true,
          "internalType": "address",
          "name": "sender",
          "type": "address"
        },
        {
          "indexed": false,
          "internalType": "uint256",
          "name": "oldValue",
          "type": "uint256"
        },
        {
          "indexed": false,
          "internalType": "uint256",
          "name": "newValue",
          "type": "uint256"
        }
      ],
      "name": "SettingUpdated",
      "type": "event"
    },
    {
      "anonymous": false,
      "inputs": [
        {
          "indexed": false,
          "internalType": "address",
          "name": "account",
          "type": "address"
        }
      ],
      "name": "Unpaused",
      "type": "event"
    },
    {
      "constant": true,
      "inputs": [],
      "name": "LIQUIDATE_ETH_PRICE_SETTING",
      "outputs": [
        {
          "internalType": "bytes32",
          "name": "",
          "type": "bytes32"
        }
      ],
      "payable": false,
      "stateMutability": "view",
      "type": "function"
    },
    {
      "constant": true,
      "inputs": [],
      "name": "MAXIMUM_TOLERANCE_SETTING",
      "outputs": [
        {
          "internalType": "bytes32",
          "name": "",
          "type": "bytes32"
        }
      ],
      "payable": false,
      "stateMutability": "view",
      "type": "function"
    },
    {
      "constant": true,
      "inputs": [],
      "name": "REQUIRED_SUBMISSIONS_SETTING",
      "outputs": [
        {
          "internalType": "bytes32",
          "name": "",
          "type": "bytes32"
        }
      ],
      "payable": false,
      "stateMutability": "view",
      "type": "function"
    },
    {
      "constant": true,
      "inputs": [],
      "name": "RESPONSE_EXPIRY_LENGTH_SETTING",
      "outputs": [
        {
          "internalType": "bytes32",
          "name": "",
          "type": "bytes32"
        }
      ],
      "payable": false,
      "stateMutability": "view",
      "type": "function"
    },
    {
      "constant": true,
      "inputs": [],
      "name": "SAFETY_INTERVAL_SETTING",
      "outputs": [
        {
          "internalType": "bytes32",
          "name": "",
          "type": "bytes32"
        }
      ],
      "payable": false,
      "stateMutability": "view",
      "type": "function"
    },
    {
      "constant": true,
      "inputs": [],
      "name": "TERMS_EXPIRY_TIME_SETTING",
      "outputs": [
        {
          "internalType": "bytes32",
          "name": "",
          "type": "bytes32"
        }
      ],
      "payable": false,
      "stateMutability": "view",
      "type": "function"
    },
    {
      "constant": false,
      "inputs": [
        {
          "internalType": "address",
          "name": "account",
          "type": "address"
        }
      ],
      "name": "addPauser",
      "outputs": [],
      "payable": false,
      "stateMutability": "nonpayable",
      "type": "function"
    },
    {
      "constant": true,
      "inputs": [
        {
          "internalType": "address",
          "name": "",
          "type": "address"
        }
      ],
      "name": "assetSettings",
      "outputs": [
        {
          "internalType": "address",
          "name": "cTokenAddress",
          "type": "address"
        },
        {
          "internalType": "uint256",
          "name": "maxLendingAmount",
          "type": "uint256"
        },
        {
          "internalType": "uint256",
          "name": "rateProcessFrequency",
          "type": "uint256"
        }
      ],
      "payable": false,
      "stateMutability": "view",
      "type": "function"
    },
    {
      "constant": true,
      "inputs": [
        {
          "internalType": "uint256",
          "name": "",
          "type": "uint256"
        }
      ],
      "name": "assets",
      "outputs": [
        {
          "internalType": "address",
          "name": "",
          "type": "address"
        }
      ],
      "payable": false,
      "stateMutability": "view",
      "type": "function"
    },
    {
      "constant": true,
      "inputs": [
        {
          "internalType": "address",
          "name": "account",
          "type": "address"
        }
      ],
      "name": "isPauser",
      "outputs": [
        {
          "internalType": "bool",
          "name": "",
          "type": "bool"
        }
      ],
      "payable": false,
      "stateMutability": "view",
      "type": "function"
    },
    {
      "constant": true,
      "inputs": [
        {
          "internalType": "address",
          "name": "",
          "type": "address"
        }
      ],
      "name": "lendingPoolPaused",
      "outputs": [
        {
          "internalType": "bool",
          "name": "",
          "type": "bool"
        }
      ],
      "payable": false,
      "stateMutability": "view",
      "type": "function"
    },
    {
      "constant": true,
      "inputs": [],
      "name": "liquidateEthPrice",
      "outputs": [
        {
          "internalType": "uint256",
          "name": "",
          "type": "uint256"
        }
      ],
      "payable": false,
      "stateMutability": "view",
      "type": "function"
    },
    {
      "constant": true,
      "inputs": [],
      "name": "maximumTolerance",
      "outputs": [
        {
          "internalType": "uint256",
          "name": "",
          "type": "uint256"
        }
      ],
      "payable": false,
      "stateMutability": "view",
      "type": "function"
    },
    {
      "constant": false,
      "inputs": [],
      "name": "pause",
      "outputs": [],
      "payable": false,
      "stateMutability": "nonpayable",
      "type": "function"
    },
    {
      "constant": true,
      "inputs": [],
      "name": "paused",
      "outputs": [
        {
          "internalType": "bool",
          "name": "",
          "type": "bool"
        }
      ],
      "payable": false,
      "stateMutability": "view",
      "type": "function"
    },
    {
      "constant": false,
      "inputs": [],
      "name": "renouncePauser",
      "outputs": [],
      "payable": false,
      "stateMutability": "nonpayable",
      "type": "function"
    },
    {
      "constant": true,
      "inputs": [],
      "name": "requiredSubmissions",
      "outputs": [
        {
          "internalType": "uint256",
          "name": "",
          "type": "uint256"
        }
      ],
      "payable": false,
      "stateMutability": "view",
      "type": "function"
    },
    {
      "constant": true,
      "inputs": [],
      "name": "responseExpiryLength",
      "outputs": [
        {
          "internalType": "uint256",
          "name": "",
          "type": "uint256"
        }
      ],
      "payable": false,
      "stateMutability": "view",
      "type": "function"
    },
    {
      "constant": true,
      "inputs": [],
      "name": "safetyInterval",
      "outputs": [
        {
          "internalType": "uint256",
          "name": "",
          "type": "uint256"
        }
      ],
      "payable": false,
      "stateMutability": "view",
      "type": "function"
    },
    {
      "constant": true,
      "inputs": [],
      "name": "termsExpiryTime",
      "outputs": [
        {
          "internalType": "uint256",
          "name": "",
          "type": "uint256"
        }
      ],
      "payable": false,
      "stateMutability": "view",
      "type": "function"
    },
    {
      "constant": false,
      "inputs": [],
      "name": "unpause",
      "outputs": [],
      "payable": false,
      "stateMutability": "nonpayable",
      "type": "function"
    },
    {
      "constant": false,
      "inputs": [
        {
          "internalType": "uint256",
          "name": "newRequiredSubmissions",
          "type": "uint256"
        }
      ],
      "name": "setRequiredSubmissions",
      "outputs": [],
      "payable": false,
      "stateMutability": "nonpayable",
      "type": "function"
    },
    {
      "constant": false,
      "inputs": [
        {
          "internalType": "uint256",
          "name": "newMaximumTolerance",
          "type": "uint256"
        }
      ],
      "name": "setMaximumTolerance",
      "outputs": [],
      "payable": false,
      "stateMutability": "nonpayable",
      "type": "function"
    },
    {
      "constant": false,
      "inputs": [
        {
          "internalType": "uint256",
          "name": "newResponseExpiryLength",
          "type": "uint256"
        }
      ],
      "name": "setResponseExpiryLength",
      "outputs": [],
      "payable": false,
      "stateMutability": "nonpayable",
      "type": "function"
    },
    {
      "constant": false,
      "inputs": [
        {
          "internalType": "uint256",
          "name": "newSafetyInterval",
          "type": "uint256"
        }
      ],
      "name": "setSafetyInterval",
      "outputs": [],
      "payable": false,
      "stateMutability": "nonpayable",
      "type": "function"
    },
    {
      "constant": false,
      "inputs": [
        {
          "internalType": "uint256",
          "name": "newTermsExpiryTime",
          "type": "uint256"
        }
      ],
      "name": "setTermsExpiryTime",
      "outputs": [],
      "payable": false,
      "stateMutability": "nonpayable",
      "type": "function"
    },
    {
      "constant": false,
      "inputs": [
        {
          "internalType": "uint256",
          "name": "newLiquidateEthPrice",
          "type": "uint256"
        }
      ],
      "name": "setLiquidateEthPrice",
      "outputs": [],
      "payable": false,
      "stateMutability": "nonpayable",
      "type": "function"
    },
    {
      "constant": false,
      "inputs": [
        {
          "internalType": "address",
          "name": "lendingPoolAddress",
          "type": "address"
        }
      ],
      "name": "pauseLendingPool",
      "outputs": [],
      "payable": false,
      "stateMutability": "nonpayable",
      "type": "function"
    },
    {
      "constant": false,
      "inputs": [
        {
          "internalType": "address",
          "name": "lendingPoolAddress",
          "type": "address"
        }
      ],
      "name": "unpauseLendingPool",
      "outputs": [],
      "payable": false,
      "stateMutability": "nonpayable",
      "type": "function"
    },
    {
      "constant": true,
      "inputs": [
        {
          "internalType": "address",
          "name": "lendingTokenAddress",
          "type": "address"
        }
      ],
      "name": "hasAssetSettings",
      "outputs": [
        {
          "internalType": "bool",
          "name": "",
          "type": "bool"
        }
      ],
      "payable": false,
      "stateMutability": "view",
      "type": "function"
    },
    {
      "constant": false,
      "inputs": [
        {
          "internalType": "address",
          "name": "lendingTokenAddress",
          "type": "address"
        },
        {
          "internalType": "address",
          "name": "cTokenAddress",
          "type": "address"
        },
        {
          "internalType": "uint256",
          "name": "newMaxLendingAmount",
          "type": "uint256"
        },
        {
          "internalType": "uint256",
          "name": "newRateProcessFrequency",
          "type": "uint256"
        }
      ],
      "name": "createAssetSettings",
      "outputs": [],
      "payable": false,
      "stateMutability": "nonpayable",
      "type": "function"
    },
    {
      "constant": false,
      "inputs": [
        {
          "internalType": "address",
          "name": "lendingTokenAddress",
          "type": "address"
        },
        {
          "internalType": "address",
          "name": "cTokenAddress",
          "type": "address"
        },
        {
          "internalType": "uint256",
          "name": "newMaxLendingAmount",
          "type": "uint256"
        },
        {
          "internalType": "uint256",
          "name": "newRateProcessFrequency",
          "type": "uint256"
        }
      ],
      "name": "updateAssetSettings",
      "outputs": [],
      "payable": false,
      "stateMutability": "nonpayable",
      "type": "function"
    },
    {
      "constant": true,
      "inputs": [
        {
          "internalType": "address",
          "name": "lendingTokenAddress",
          "type": "address"
        }
      ],
      "name": "getAssetSettings",
      "outputs": [
        {
          "components": [
            {
              "internalType": "address",
              "name": "cTokenAddress",
              "type": "address"
            },
            {
              "internalType": "uint256",
              "name": "maxLendingAmount",
              "type": "uint256"
            },
            {
              "internalType": "uint256",
              "name": "rateProcessFrequency",
              "type": "uint256"
            }
          ],
          "internalType": "struct AssetSettingsLib.AssetSettings",
          "name": "",
          "type": "tuple"
        }
      ],
      "payable": false,
      "stateMutability": "view",
      "type": "function"
    },
    {
      "constant": true,
      "inputs": [
        {
          "internalType": "address",
          "name": "lendingTokenAddress",
          "type": "address"
        },
        {
          "internalType": "uint256",
          "name": "amount",
          "type": "uint256"
        }
      ],
      "name": "exceedsMaxLendingAmount",
      "outputs": [
        {
          "internalType": "bool",
          "name": "",
          "type": "bool"
        }
      ],
      "payable": false,
      "stateMutability": "view",
      "type": "function"
    },
    {
      "constant": true,
      "inputs": [],
      "name": "isPaused",
      "outputs": [
        {
          "internalType": "bool",
          "name": "",
          "type": "bool"
        }
      ],
      "payable": false,
      "stateMutability": "view",
      "type": "function"
    },
    {
      "constant": true,
      "inputs": [],
      "name": "getAssets",
      "outputs": [
        {
          "internalType": "address[]",
          "name": "",
          "type": "address[]"
        }
      ],
      "payable": false,
      "stateMutability": "view",
      "type": "function"
    }
  ],
  "bytecode": "0x60806040523480156200001157600080fd5b50604051620038f8380380620038f8833981810160405262000037919081019062000404565b620000576200004b6200020660201b60201c565b6200020e60201b60201c565b6000600160006101000a81548160ff02191690831515021790555060008611620000b8576040517f08c379a0000000000000000000000000000000000000000000000000000000008152600401620000af90620006d2565b60405180910390fd5b60008411620000fe576040517f08c379a0000000000000000000000000000000000000000000000000000000008152600401620000f5906200075a565b60405180910390fd5b6000831162000144576040517f08c379a00000000000000000000000000000000000000000000000000000000081526004016200013b9062000738565b60405180910390fd5b600082116200018a576040517f08c379a0000000000000000000000000000000000000000000000000000000008152600401620001819062000716565b60405180910390fd5b60008111620001d0576040517f08c379a0000000000000000000000000000000000000000000000000000000008152600401620001c790620006b0565b60405180910390fd5b856005819055508460068190555083600781905550826008819055508160098190555080600a81905550505050505050620007b1565b600033905090565b620002298160006200026f60201b620023271790919060201c565b8073ffffffffffffffffffffffffffffffffffffffff167f6719d08c1888103bea251a4ed56406bd0c3e69723c8a1686e017e7bbe159b6f860405160405180910390a250565b6200028182826200032260201b60201c565b15620002c4576040517f08c379a0000000000000000000000000000000000000000000000000000000008152600401620002bb906200068e565b60405180910390fd5b60018260000160008373ffffffffffffffffffffffffffffffffffffffff1673ffffffffffffffffffffffffffffffffffffffff16815260200190815260200160002060006101000a81548160ff0219169083151502179055505050565b60008073ffffffffffffffffffffffffffffffffffffffff168273ffffffffffffffffffffffffffffffffffffffff16141562000396576040517f08c379a00000000000000000000000000000000000000000000000000000000081526004016200038d90620006f4565b60405180910390fd5b8260000160008373ffffffffffffffffffffffffffffffffffffffff1673ffffffffffffffffffffffffffffffffffffffff16815260200190815260200160002060009054906101000a900460ff16905092915050565b600081519050620003fe8162000797565b92915050565b60008060008060008060c087890312156200041e57600080fd5b60006200042e89828a01620003ed565b96505060206200044189828a01620003ed565b95505060406200045489828a01620003ed565b94505060606200046789828a01620003ed565b93505060806200047a89828a01620003ed565b92505060a06200048d89828a01620003ed565b9150509295509295509295565b6000620004a9601f836200077c565b91507f526f6c65733a206163636f756e7420616c72656164792068617320726f6c65006000830152602082019050919050565b6000620004eb6016836200077c565b91507f4d5553545f50524f564944455f4554485f5052494345000000000000000000006000830152602082019050919050565b60006200052d601a836200077c565b91507f4d5553545f50524f564944455f52455155495245445f535542530000000000006000830152602082019050919050565b60006200056f6022836200077c565b91507f526f6c65733a206163636f756e7420697320746865207a65726f20616464726560008301527f73730000000000000000000000000000000000000000000000000000000000006020830152604082019050919050565b6000620005d76019836200077c565b91507f4d5553545f50524f564944455f5445524d535f455850495259000000000000006000830152602082019050919050565b600062000619601c836200077c565b91507f4d5553545f50524f564944455f5341464554595f494e54455256414c000000006000830152602082019050919050565b60006200065b6019836200077c565b91507f4d5553545f50524f564944455f524553504f4e53455f455850000000000000006000830152602082019050919050565b60006020820190508181036000830152620006a9816200049a565b9050919050565b60006020820190508181036000830152620006cb81620004dc565b9050919050565b60006020820190508181036000830152620006ed816200051e565b9050919050565b600060208201905081810360008301526200070f8162000560565b9050919050565b600060208201905081810360008301526200073181620005c8565b9050919050565b6000602082019050818103600083015262000753816200060a565b9050919050565b6000602082019050818103600083015262000775816200064c565b9050919050565b600082825260208201905092915050565b6000819050919050565b620007a2816200078d565b8114620007ae57600080fd5b50565b61313780620007c16000396000f3fe608060405234801561001057600080fd5b506004361061021c5760003560e01c80636b3b8ec111610125578063b187bd26116100ad578063cf35bdd01161007c578063cf35bdd0146105e3578063d6e6b5e414610613578063e00a46151461062f578063e3f33d001461064d578063fbedbe5c1461066b5761021c565b8063b187bd261461056d578063b9f9e3041461058b578063c41dd8ce146105a9578063cd023de4146105c75761021c565b806382dc1ec4116100f457806382dc1ec4146104ef5780638456cb591461050b57806386411d48146105155780639021be7214610531578063a7fced681461054f5761021c565b80636b3b8ec1146104775780636ef8d66d146104a957806375c66828146104b35780637f433943146104d15761021c565b80633ff591d9116101a85780635c975abb116101775780635c975abb146103d15780635ff4bc35146103ef57806366aef1171461040d57806367e4ac2c1461043d5780636a7ce18d1461045b5761021c565b80633ff591d91461032357806346fbf68e14610341578063470c1cda146103715780634c7b0972146103a15761021c565b80631e4a7f9a116101ef5780631e4a7f9a1461029557806339955708146102b15780633b668321146102cd5780633e9dc4cc146102fd5780633f4ba83a146103195761021c565b8063043bd50a146102215780631139087a1461023d57806311880cc81461025b5780631be0ed3714610279575b600080fd5b61023b6004803603610236919081019061254a565b610687565b005b6102456107ee565b6040516102529190612ca9565b60405180910390f35b610263610812565b6040516102709190612ca9565b60405180910390f35b610293600480360361028e9190810190612482565b610836565b005b6102af60048036036102aa91908101906124ab565b610a75565b005b6102cb60048036036102c6919081019061254a565b610c4a565b005b6102e760048036036102e29190810190612482565b610df4565b6040516102f49190612c8e565b60405180910390f35b6103176004803603610312919081019061254a565b610e14565b005b610321610fbe565b005b61032b6110b7565b6040516103389190612ca9565b60405180910390f35b61035b60048036036103569190810190612482565b6110db565b6040516103689190612c8e565b60405180910390f35b61038b6004803603610386919081019061250e565b6110f8565b6040516103989190612c8e565b60405180910390f35b6103bb60048036036103b69190810190612482565b611153565b6040516103c89190612f46565b60405180910390f35b6103d9611216565b6040516103e69190612c8e565b60405180910390f35b6103f761122d565b6040516104049190612f61565b60405180910390f35b61042760048036036104229190810190612482565b611233565b6040516104349190612c8e565b60405180910390f35b610445611283565b6040516104529190612c6c565b60405180910390f35b6104756004803603610470919081019061254a565b611311565b005b610491600480360361048c9190810190612482565b6114bb565b6040516104a093929190612c35565b60405180910390f35b6104b1611505565b005b6104bb611517565b6040516104c89190612f61565b60405180910390f35b6104d961151d565b6040516104e69190612f61565b60405180910390f35b61050960048036036105049190810190612482565b611523565b005b61051361157e565b005b61052f600480360361052a919081019061254a565b611677565b005b610539611821565b6040516105469190612f61565b60405180910390f35b610557611827565b6040516105649190612f61565b60405180910390f35b61057561182d565b6040516105829190612c8e565b60405180910390f35b61059361183c565b6040516105a09190612f61565b60405180910390f35b6105b1611842565b6040516105be9190612ca9565b60405180910390f35b6105e160048036036105dc91908101906124ab565b611866565b005b6105fd60048036036105f8919081019061254a565b61198e565b60405161060a9190612bff565b60405180910390f35b61062d6004803603610628919081019061254a565b6119ca565b005b610637611b74565b6040516106449190612ca9565b60405180910390f35b610655611b98565b6040516106629190612ca9565b60405180910390f35b61068560048036036106809190810190612482565b611bbc565b005b610697610692611dfa565b6110db565b6106d6576040517f08c379a00000000000000000000000000000000000000000000000000000000081526004016106cd90612d46565b60405180910390fd5b600160009054906101000a900460ff1615610726576040517f08c379a000000000000000000000000000000000000000000000000000000000815260040161071d90612dc6565b60405180910390fd5b80600654141561076b576040517f08c379a000000000000000000000000000000000000000000000000000000000815260040161076290612d66565b60405180910390fd5b60006006549050816006819055503373ffffffffffffffffffffffffffffffffffffffff167f4d6178696d756d546f6c6572616e6365000000000000000000000000000000007f45c601233c412abb42eff2f29f997f56948e3cc51570478766f4b2c7aedcb4db83856040516107e2929190612f7c565b60405180910390a35050565b7f4c6971756964617465457468507269636500000000000000000000000000000081565b7f536166657479496e74657276616c00000000000000000000000000000000000081565b610846610841611dfa565b6110db565b610885576040517f08c379a000000000000000000000000000000000000000000000000000000000815260040161087c90612d46565b60405180910390fd5b600160009054906101000a900460ff16156108d5576040517f08c379a00000000000000000000000000000000000000000000000000000000081526004016108cc90612dc6565b60405180910390fd5b6109336040518060400160405280601881526020017f4c454e44494e475f504f4f4c5f49535f524551554952454400000000000000008152508273ffffffffffffffffffffffffffffffffffffffff16611e0290919063ffffffff16565b600460008273ffffffffffffffffffffffffffffffffffffffff1673ffffffffffffffffffffffffffffffffffffffff16815260200190815260200160002060009054906101000a900460ff16156109c0576040517f08c379a00000000000000000000000000000000000000000000000000000000081526004016109b790612ce6565b60405180910390fd5b6001600460008373ffffffffffffffffffffffffffffffffffffffff1673ffffffffffffffffffffffffffffffffffffffff16815260200190815260200160002060006101000a81548160ff0219169083151502179055508073ffffffffffffffffffffffffffffffffffffffff163373ffffffffffffffffffffffffffffffffffffffff167fff7b62e2b5984471f0fb76a23e84a0d6f2e5c3e8818a929948190ce967a2fc2e60405160405180910390a350565b610a85610a80611dfa565b6110db565b610ac4576040517f08c379a0000000000000000000000000000000000000000000000000000000008152600401610abb90612d46565b60405180910390fd5b610b0b600260008673ffffffffffffffffffffffffffffffffffffffff1673ffffffffffffffffffffffffffffffffffffffff168152602001908152602001600020611e52565b610b60838383600260008973ffffffffffffffffffffffffffffffffffffffff1673ffffffffffffffffffffffffffffffffffffffff168152602001908152602001600020611ea4909392919063ffffffff16565b60038490806001815401808255809150509060018203906000526020600020016000909192909190916101000a81548173ffffffffffffffffffffffffffffffffffffffff021916908373ffffffffffffffffffffffffffffffffffffffff160217905550508273ffffffffffffffffffffffffffffffffffffffff168473ffffffffffffffffffffffffffffffffffffffff163373ffffffffffffffffffffffffffffffffffffffff167f991a19328698467629f0509aeddc187e18ed8b1a49ab80e1826d79c5a312f5768585604051610c3c929190612f7c565b60405180910390a450505050565b610c5a610c55611dfa565b6110db565b610c99576040517f08c379a0000000000000000000000000000000000000000000000000000000008152600401610c9090612d46565b60405180910390fd5b600160009054906101000a900460ff1615610ce9576040517f08c379a0000000000000000000000000000000000000000000000000000000008152600401610ce090612dc6565b60405180910390fd5b806007541415610d2e576040517f08c379a0000000000000000000000000000000000000000000000000000000008152600401610d2590612d66565b60405180910390fd5b60008111610d71576040517f08c379a0000000000000000000000000000000000000000000000000000000008152600401610d6890612f06565b60405180910390fd5b60006007549050816007819055503373ffffffffffffffffffffffffffffffffffffffff167f526573706f6e73654578706972794c656e6774680000000000000000000000007f45c601233c412abb42eff2f29f997f56948e3cc51570478766f4b2c7aedcb4db8385604051610de8929190612f7c565b60405180910390a35050565b60046020528060005260406000206000915054906101000a900460ff1681565b610e24610e1f611dfa565b6110db565b610e63576040517f08c379a0000000000000000000000000000000000000000000000000000000008152600401610e5a90612d46565b60405180910390fd5b600160009054906101000a900460ff1615610eb3576040517f08c379a0000000000000000000000000000000000000000000000000000000008152600401610eaa90612dc6565b60405180910390fd5b806008541415610ef8576040517f08c379a0000000000000000000000000000000000000000000000000000000008152600401610eef90612d66565b60405180910390fd5b60008111610f3b576040517f08c379a0000000000000000000000000000000000000000000000000000000008152600401610f3290612ec6565b60405180910390fd5b60006008549050816008819055503373ffffffffffffffffffffffffffffffffffffffff167f536166657479496e74657276616c0000000000000000000000000000000000007f45c601233c412abb42eff2f29f997f56948e3cc51570478766f4b2c7aedcb4db8385604051610fb2929190612f7c565b60405180910390a35050565b610fce610fc9611dfa565b6110db565b61100d576040517f08c379a000000000000000000000000000000000000000000000000000000000815260040161100490612d46565b60405180910390fd5b600160009054906101000a900460ff1661105c576040517f08c379a000000000000000000000000000000000000000000000000000000000815260040161105390612d06565b60405180910390fd5b6000600160006101000a81548160ff0219169083151502179055507f5db9ee0a495bf2e6ff9c91a7834c1ba4fdd244a5e8aa4e537bd38aeae4b073aa6110a0611dfa565b6040516110ad9190612c1a565b60405180910390a1565b7f52657175697265645375626d697373696f6e730000000000000000000000000081565b60006110f1826000611f8590919063ffffffff16565b9050919050565b600061114b82600260008673ffffffffffffffffffffffffffffffffffffffff1673ffffffffffffffffffffffffffffffffffffffff16815260200190815260200160002061204d90919063ffffffff16565b905092915050565b61115b612421565b600260008373ffffffffffffffffffffffffffffffffffffffff1673ffffffffffffffffffffffffffffffffffffffff1681526020019081526020016000206040518060600160405290816000820160009054906101000a900473ffffffffffffffffffffffffffffffffffffffff1673ffffffffffffffffffffffffffffffffffffffff1673ffffffffffffffffffffffffffffffffffffffff168152602001600182015481526020016002820154815250509050919050565b6000600160009054906101000a900460ff16905090565b600a5481565b600061127c600260008473ffffffffffffffffffffffffffffffffffffffff1673ffffffffffffffffffffffffffffffffffffffff16815260200190815260200160002061205e565b9050919050565b6060600380548060200260200160405190810160405280929190818152602001828054801561130757602002820191906000526020600020905b8160009054906101000a900473ffffffffffffffffffffffffffffffffffffffff1673ffffffffffffffffffffffffffffffffffffffff16815260200190600101908083116112bd575b5050505050905090565b61132161131c611dfa565b6110db565b611360576040517f08c379a000000000000000000000000000000000000000000000000000000000815260040161135790612d46565b60405180910390fd5b600160009054906101000a900460ff16156113b0576040517f08c379a00000000000000000000000000000000000000000000000000000000081526004016113a790612dc6565b60405180910390fd5b8060055414156113f5576040517f08c379a00000000000000000000000000000000000000000000000000000000081526004016113ec90612d66565b60405180910390fd5b60008111611438576040517f08c379a000000000000000000000000000000000000000000000000000000000815260040161142f90612da6565b60405180910390fd5b60006005549050816005819055503373ffffffffffffffffffffffffffffffffffffffff167f52657175697265645375626d697373696f6e73000000000000000000000000007f45c601233c412abb42eff2f29f997f56948e3cc51570478766f4b2c7aedcb4db83856040516114af929190612f7c565b60405180910390a35050565b60026020528060005260406000206000915090508060000160009054906101000a900473ffffffffffffffffffffffffffffffffffffffff16908060010154908060020154905083565b611515611510611dfa565b61207e565b565b60095481565b60065481565b61153361152e611dfa565b6110db565b611572576040517f08c379a000000000000000000000000000000000000000000000000000000000815260040161156990612d46565b60405180910390fd5b61157b816120d8565b50565b61158e611589611dfa565b6110db565b6115cd576040517f08c379a00000000000000000000000000000000000000000000000000000000081526004016115c490612d46565b60405180910390fd5b600160009054906101000a900460ff161561161d576040517f08c379a000000000000000000000000000000000000000000000000000000000815260040161161490612dc6565b60405180910390fd5b60018060006101000a81548160ff0219169083151502179055507f62e78cea01bee320cd4e420270b5ea74000d11b0c9f74754ebdbfc544b05a258611660611dfa565b60405161166d9190612c1a565b60405180910390a1565b611687611682611dfa565b6110db565b6116c6576040517f08c379a00000000000000000000000000000000000000000000000000000000081526004016116bd90612d46565b60405180910390fd5b600160009054906101000a900460ff1615611716576040517f08c379a000000000000000000000000000000000000000000000000000000000815260040161170d90612dc6565b60405180910390fd5b80600954141561175b576040517f08c379a000000000000000000000000000000000000000000000000000000000815260040161175290612d66565b60405180910390fd5b6000811161179e576040517f08c379a000000000000000000000000000000000000000000000000000000000815260040161179590612ea6565b60405180910390fd5b60006009549050816009819055503373ffffffffffffffffffffffffffffffffffffffff167f5465726d7345787069727954696d6500000000000000000000000000000000007f45c601233c412abb42eff2f29f997f56948e3cc51570478766f4b2c7aedcb4db8385604051611815929190612f7c565b60405180910390a35050565b60085481565b60075481565b6000611837611216565b905090565b60055481565b7f4d6178696d756d546f6c6572616e63650000000000000000000000000000000081565b611876611871611dfa565b6110db565b6118b5576040517f08c379a00000000000000000000000000000000000000000000000000000000081526004016118ac90612d46565b60405180910390fd5b61190a838383600260008973ffffffffffffffffffffffffffffffffffffffff1673ffffffffffffffffffffffffffffffffffffffff168152602001908152602001600020612132909392919063ffffffff16565b8273ffffffffffffffffffffffffffffffffffffffff168473ffffffffffffffffffffffffffffffffffffffff163373ffffffffffffffffffffffffffffffffffffffff167faa1779ac90189697afc427b01e05cc627110467f5fec53d99368ff41afea88ec8585604051611980929190612f7c565b60405180910390a450505050565b6003818154811061199b57fe5b906000526020600020016000915054906101000a900473ffffffffffffffffffffffffffffffffffffffff1681565b6119da6119d5611dfa565b6110db565b611a19576040517f08c379a0000000000000000000000000000000000000000000000000000000008152600401611a1090612d46565b60405180910390fd5b600160009054906101000a900460ff1615611a69576040517f08c379a0000000000000000000000000000000000000000000000000000000008152600401611a6090612dc6565b60405180910390fd5b80600a541415611aae576040517f08c379a0000000000000000000000000000000000000000000000000000000008152600401611aa590612d66565b60405180910390fd5b60008111611af1576040517f08c379a0000000000000000000000000000000000000000000000000000000008152600401611ae890612d86565b60405180910390fd5b6000600a54905081600a819055503373ffffffffffffffffffffffffffffffffffffffff167f4c697175696461746545746850726963650000000000000000000000000000007f45c601233c412abb42eff2f29f997f56948e3cc51570478766f4b2c7aedcb4db8385604051611b68929190612f7c565b60405180910390a35050565b7f5465726d7345787069727954696d65000000000000000000000000000000000081565b7f526573706f6e73654578706972794c656e67746800000000000000000000000081565b611bcc611bc7611dfa565b6110db565b611c0b576040517f08c379a0000000000000000000000000000000000000000000000000000000008152600401611c0290612d46565b60405180910390fd5b600160009054906101000a900460ff1615611c5b576040517f08c379a0000000000000000000000000000000000000000000000000000000008152600401611c5290612dc6565b60405180910390fd5b611cb96040518060400160405280601881526020017f4c454e44494e475f504f4f4c5f49535f524551554952454400000000000000008152508273ffffffffffffffffffffffffffffffffffffffff16611e0290919063ffffffff16565b600460008273ffffffffffffffffffffffffffffffffffffffff1673ffffffffffffffffffffffffffffffffffffffff16815260200190815260200160002060009054906101000a900460ff16611d45576040517f08c379a0000000000000000000000000000000000000000000000000000000008152600401611d3c90612ee6565b60405180910390fd5b6000600460008373ffffffffffffffffffffffffffffffffffffffff1673ffffffffffffffffffffffffffffffffffffffff16815260200190815260200160002060006101000a81548160ff0219169083151502179055508073ffffffffffffffffffffffffffffffffffffffff163373ffffffffffffffffffffffffffffffffffffffff167fc55a972437581d7d7bfd8729cdde06ee7e788e1a407b4cfdc6a0330d04b391f160405160405180910390a350565b600033905090565b611e0b82612247565b8190611e4d576040517f08c379a0000000000000000000000000000000000000000000000000000000008152600401611e449190612cc4565b60405180910390fd5b505050565b60001515611e5f8261205e565b151514611ea1576040517f08c379a0000000000000000000000000000000000000000000000000000000008152600401611e9890612f26565b60405180910390fd5b50565b60008211611ee7576040517f08c379a0000000000000000000000000000000000000000000000000000000008152600401611ede90612de6565b60405180910390fd5b60008111611f2a576040517f08c379a0000000000000000000000000000000000000000000000000000000008152600401611f2190612e26565b60405180910390fd5b828460000160006101000a81548173ffffffffffffffffffffffffffffffffffffffff021916908373ffffffffffffffffffffffffffffffffffffffff16021790555081846001018190555080846002018190555050505050565b60008073ffffffffffffffffffffffffffffffffffffffff168273ffffffffffffffffffffffffffffffffffffffff161415611ff6576040517f08c379a0000000000000000000000000000000000000000000000000000000008152600401611fed90612e86565b60405180910390fd5b8260000160008373ffffffffffffffffffffffffffffffffffffffff1673ffffffffffffffffffffffffffffffffffffffff16815260200190815260200160002060009054906101000a900460ff16905092915050565b600082600101548211905092915050565b6000808260010154118015612077575060008260020154115b9050919050565b61209281600061228090919063ffffffff16565b8073ffffffffffffffffffffffffffffffffffffffff167fcd265ebaf09df2871cc7bd4133404a235ba12eff2041bb89d9c714a2621c7c7e60405160405180910390a250565b6120ec81600061232790919063ffffffff16565b8073ffffffffffffffffffffffffffffffffffffffff167f6719d08c1888103bea251a4ed56406bd0c3e69723c8a1686e017e7bbe159b6f860405160405180910390a250565b61213b846123cf565b8273ffffffffffffffffffffffffffffffffffffffff168460000160009054906101000a900473ffffffffffffffffffffffffffffffffffffffff1673ffffffffffffffffffffffffffffffffffffffff1614158061219e575081846001015414155b806121ad575080846002015414155b6121ec576040517f08c379a00000000000000000000000000000000000000000000000000000000081526004016121e390612e66565b60405180910390fd5b828460000160006101000a81548173ffffffffffffffffffffffffffffffffffffffff021916908373ffffffffffffffffffffffffffffffffffffffff16021790555081846001018190555080846002018190555050505050565b60008073ffffffffffffffffffffffffffffffffffffffff168273ffffffffffffffffffffffffffffffffffffffff1614159050919050565b61228a8282611f85565b6122c9576040517f08c379a00000000000000000000000000000000000000000000000000000000081526004016122c090612e06565b60405180910390fd5b60008260000160008373ffffffffffffffffffffffffffffffffffffffff1673ffffffffffffffffffffffffffffffffffffffff16815260200190815260200160002060006101000a81548160ff0219169083151502179055505050565b6123318282611f85565b15612371576040517f08c379a000000000000000000000000000000000000000000000000000000000815260040161236890612d26565b60405180910390fd5b60018260000160008373ffffffffffffffffffffffffffffffffffffffff1673ffffffffffffffffffffffffffffffffffffffff16815260200190815260200160002060006101000a81548160ff0219169083151502179055505050565b600115156123dc8261205e565b15151461241e576040517f08c379a000000000000000000000000000000000000000000000000000000000815260040161241590612e46565b60405180910390fd5b50565b6040518060600160405280600073ffffffffffffffffffffffffffffffffffffffff16815260200160008152602001600081525090565b600081359050612467816130c6565b92915050565b60008135905061247c816130dd565b92915050565b60006020828403121561249457600080fd5b60006124a284828501612458565b91505092915050565b600080600080608085870312156124c157600080fd5b60006124cf87828801612458565b94505060206124e087828801612458565b93505060406124f18782880161246d565b92505060606125028782880161246d565b91505092959194509250565b6000806040838503121561252157600080fd5b600061252f85828601612458565b92505060206125408582860161246d565b9150509250929050565b60006020828403121561255c57600080fd5b600061256a8482850161246d565b91505092915050565b600061257f838361259a565b60208301905092915050565b6125948161304c565b82525050565b6125a381612ffa565b82525050565b6125b281612ffa565b82525050565b60006125c382612fb5565b6125cd8185612fd8565b93506125d883612fa5565b8060005b838110156126095781516125f08882612573565b97506125fb83612fcb565b9250506001810190506125dc565b5085935050505092915050565b61261f8161300c565b82525050565b61262e81613018565b82525050565b600061263f82612fc0565b6126498185612fe9565b9350612659818560208601613082565b612662816130b5565b840191505092915050565b600061267a601b83612fe9565b91507f4c454e44494e475f504f4f4c5f414c52454144595f50415553454400000000006000830152602082019050919050565b60006126ba601483612fe9565b91507f5061757361626c653a206e6f74207061757365640000000000000000000000006000830152602082019050919050565b60006126fa601f83612fe9565b91507f526f6c65733a206163636f756e7420616c72656164792068617320726f6c65006000830152602082019050919050565b600061273a603083612fe9565b91507f506175736572526f6c653a2063616c6c657220646f6573206e6f74206861766560008301527f207468652050617573657220726f6c65000000000000000000000000000000006020830152604082019050919050565b60006127a0601283612fe9565b91507f4e45575f56414c55455f524551554952454400000000000000000000000000006000830152602082019050919050565b60006127e0601683612fe9565b91507f4d5553545f50524f564944455f4554485f5052494345000000000000000000006000830152602082019050919050565b6000612820601a83612fe9565b91507f4d5553545f50524f564944455f52455155495245445f535542530000000000006000830152602082019050919050565b6000612860601083612fe9565b91507f5061757361626c653a20706175736564000000000000000000000000000000006000830152602082019050919050565b60006128a0601883612fe9565b91507f494e49545f4d41585f414d4f554e545f524551554952454400000000000000006000830152602082019050919050565b60006128e0602183612fe9565b91507f526f6c65733a206163636f756e7420646f6573206e6f74206861766520726f6c60008301527f65000000000000000000000000000000000000000000000000000000000000006020830152604082019050919050565b6000612946601f83612fe9565b91507f494e49545f524154455f50524f434553535f465245515f5245515549524544006000830152602082019050919050565b6000612986601983612fe9565b91507f41535345545f53455454494e47535f4e4f545f455849535453000000000000006000830152602082019050919050565b60006129c6601b83612fe9565b91507f4e45575f53455454494e47535f56414c55455f524551554952454400000000006000830152602082019050919050565b6000612a06602283612fe9565b91507f526f6c65733a206163636f756e7420697320746865207a65726f20616464726560008301527f73730000000000000000000000000000000000000000000000000000000000006020830152604082019050919050565b6000612a6c601983612fe9565b91507f4d5553545f50524f564944455f5445524d535f455850495259000000000000006000830152602082019050919050565b6000612aac601c83612fe9565b91507f4d5553545f50524f564944455f5341464554595f494e54455256414c000000006000830152602082019050919050565b6000612aec601a83612fe9565b91507f4c454e44494e475f504f4f4c5f49535f4e4f545f5041555345440000000000006000830152602082019050919050565b6000612b2c601983612fe9565b91507f4d5553545f50524f564944455f524553504f4e53455f455850000000000000006000830152602082019050919050565b6000612b6c601d83612fe9565b91507f41535345545f53455454494e47535f414c52454144595f4558495354530000006000830152602082019050919050565b606082016000820151612bb5600085018261259a565b506020820151612bc86020850182612be1565b506040820151612bdb6040850182612be1565b50505050565b612bea81613042565b82525050565b612bf981613042565b82525050565b6000602082019050612c1460008301846125a9565b92915050565b6000602082019050612c2f600083018461258b565b92915050565b6000606082019050612c4a60008301866125a9565b612c576020830185612bf0565b612c646040830184612bf0565b949350505050565b60006020820190508181036000830152612c8681846125b8565b905092915050565b6000602082019050612ca36000830184612616565b92915050565b6000602082019050612cbe6000830184612625565b92915050565b60006020820190508181036000830152612cde8184612634565b905092915050565b60006020820190508181036000830152612cff8161266d565b9050919050565b60006020820190508181036000830152612d1f816126ad565b9050919050565b60006020820190508181036000830152612d3f816126ed565b9050919050565b60006020820190508181036000830152612d5f8161272d565b9050919050565b60006020820190508181036000830152612d7f81612793565b9050919050565b60006020820190508181036000830152612d9f816127d3565b9050919050565b60006020820190508181036000830152612dbf81612813565b9050919050565b60006020820190508181036000830152612ddf81612853565b9050919050565b60006020820190508181036000830152612dff81612893565b9050919050565b60006020820190508181036000830152612e1f816128d3565b9050919050565b60006020820190508181036000830152612e3f81612939565b9050919050565b60006020820190508181036000830152612e5f81612979565b9050919050565b60006020820190508181036000830152612e7f816129b9565b9050919050565b60006020820190508181036000830152612e9f816129f9565b9050919050565b60006020820190508181036000830152612ebf81612a5f565b9050919050565b60006020820190508181036000830152612edf81612a9f565b9050919050565b60006020820190508181036000830152612eff81612adf565b9050919050565b60006020820190508181036000830152612f1f81612b1f565b9050919050565b60006020820190508181036000830152612f3f81612b5f565b9050919050565b6000606082019050612f5b6000830184612b9f565b92915050565b6000602082019050612f766000830184612bf0565b92915050565b6000604082019050612f916000830185612bf0565b612f9e6020830184612bf0565b9392505050565b6000819050602082019050919050565b600081519050919050565b600081519050919050565b6000602082019050919050565b600082825260208201905092915050565b600082825260208201905092915050565b600061300582613022565b9050919050565b60008115159050919050565b6000819050919050565b600073ffffffffffffffffffffffffffffffffffffffff82169050919050565b6000819050919050565b60006130578261305e565b9050919050565b600061306982613070565b9050919050565b600061307b82613022565b9050919050565b60005b838110156130a0578082015181840152602081019050613085565b838111156130af576000848401525b50505050565b6000601f19601f8301169050919050565b6130cf81612ffa565b81146130da57600080fd5b50565b6130e681613042565b81146130f157600080fd5b5056fea365627a7a723158201bd138ac4f22c3d6d675919572ad3213068ff025fd44f26bf02f4b695d15b5596c6578706572696d656e74616cf564736f6c63430005110040",
  "source": "/*\n    Copyright 2020 Fabrx Labs Inc.\n\n    Licensed under the Apache License, Version 2.0 (the \"License\");\n    you may not use this file except in compliance with the License.\n    You may obtain a copy of the License at\n\n    http://www.apache.org/licenses/LICENSE-2.0\n\n    Unless required by applicable law or agreed to in writing, software\n    distributed under the License is distributed on an \"AS IS\" BASIS,\n    WITHOUT WARRANTIES OR CONDITIONS OF ANY KIND, either express or implied.\n    See the License for the specific language governing permissions and\n    limitations under the License.\n*/\npragma solidity 0.5.17;\npragma experimental ABIEncoderV2;\n\n// Libraries\nimport \"openzeppelin-solidity/contracts/lifecycle/Pausable.sol\";\n\n// Commons\nimport \"../util/AddressLib.sol\";\nimport \"../util/AssetSettingsLib.sol\";\n\n// Interfaces\n\nimport \"../interfaces/SettingsInterface.sol\";\n\n\ncontract Settings is Pausable, SettingsInterface {\n    using AddressLib for address;\n    using AssetSettingsLib for AssetSettingsLib.AssetSettings;\n\n    /** Constants */\n    bytes32 public constant REQUIRED_SUBMISSIONS_SETTING = \"RequiredSubmissions\";\n    bytes32 public constant MAXIMUM_TOLERANCE_SETTING = \"MaximumTolerance\";\n    bytes32 public constant RESPONSE_EXPIRY_LENGTH_SETTING = \"ResponseExpiryLength\";\n    bytes32 public constant SAFETY_INTERVAL_SETTING = \"SafetyInterval\";\n    bytes32 public constant TERMS_EXPIRY_TIME_SETTING = \"TermsExpiryTime\";\n    bytes32 public constant LIQUIDATE_ETH_PRICE_SETTING = \"LiquidateEthPrice\";\n\n    /* State Variables */\n\n    /**\n        It maps assets settings:\n\n        address(DAI) => {\n            maxLendingAmount = 1000 DAI (max)\n            rateProcessFrequency = 5760 blocks (a day). ~15 seconds per block.\n        }\n        address(USDC) => {\n            maxLendingAmount = 500 USDC (max)\n            rateProcessFrequency = 240 blocks (one hour). ~15 seconds per block.\n        }\n     */\n    mapping(address => AssetSettingsLib.AssetSettings) public assetSettings;\n\n    address[] public assets;\n\n    mapping(address => bool) public lendingPoolPaused;\n\n    /**\n        It represents the total number of submissions required for consensus on a value.\n     */\n    uint256 public requiredSubmissions;\n\n    /**\n        This is the maximum tolerance (a percentage) when the values submitted for the nodes are aggregated.\n        It is used to calculate the collateral ratio, interest rate, and others.\n \n        This is a percentage with 2 decimal places.\n        i.e. maximumTolerance of 325 => tolerance of 3.25% => 0.0325 of value\n        i.e. maximumTolerance of 0 => It means all the values submitted must be equals.\n     */\n    uint256 public maximumTolerance;\n\n    /**\n        This is the maximum time (in seconds) a node has to submit a response. After that time, the response is considered expired.\n     */\n    uint256 public responseExpiryLength;\n\n    /**\n        This is the minimum time you need to wait (in seconds) between the last time you deposit collateral and you take out the loan.\n        It is used to avoid potential attacks using Flash Loans (AAVE) or Flash Swaps (Uniswap V2).\n     */\n    uint256 public safetyInterval;\n\n    /**\n        This represents the time (in seconds) that loan terms will be available after requesting them.\n        After this time, the loan terms will expire and the borrower will need to request it again. \n     */\n    uint256 public termsExpiryTime;\n\n    /**\n        It represents the percentage value (with 2 decimal places) to liquidate loans.\n        \n        i.e. an ETH liquidation price at 95% is stored as 9500\n     */\n    uint256 public liquidateEthPrice;\n\n    /** Modifiers */\n\n    /* Constructor */\n\n    constructor(\n        uint256 aRequiredSubmissions,\n        uint256 aMaximumTolerance,\n        uint256 aResponseExpiryLength,\n        uint256 aSafetyInterval,\n        uint256 aTermsExpiryTime,\n        uint256 aLiquidateEthPrice\n    ) public {\n        require(aRequiredSubmissions > 0, \"MUST_PROVIDE_REQUIRED_SUBS\");\n        require(aResponseExpiryLength > 0, \"MUST_PROVIDE_RESPONSE_EXP\");\n        require(aSafetyInterval > 0, \"MUST_PROVIDE_SAFETY_INTERVAL\");\n        require(aTermsExpiryTime > 0, \"MUST_PROVIDE_TERMS_EXPIRY\");\n        require(aLiquidateEthPrice > 0, \"MUST_PROVIDE_ETH_PRICE\");\n\n        requiredSubmissions = aRequiredSubmissions;\n        maximumTolerance = aMaximumTolerance;\n        responseExpiryLength = aResponseExpiryLength;\n        safetyInterval = aSafetyInterval;\n        termsExpiryTime = aTermsExpiryTime;\n        liquidateEthPrice = aLiquidateEthPrice;\n    }\n\n    /** External Functions */\n\n    function setRequiredSubmissions(uint256 newRequiredSubmissions)\n        external\n        onlyPauser()\n        whenNotPaused()\n    {\n        require(requiredSubmissions != newRequiredSubmissions, \"NEW_VALUE_REQUIRED\");\n        require(newRequiredSubmissions > 0, \"MUST_PROVIDE_REQUIRED_SUBS\");\n        uint256 oldRequiredSubmissions = requiredSubmissions;\n        requiredSubmissions = newRequiredSubmissions;\n\n        emit SettingUpdated(\n            REQUIRED_SUBMISSIONS_SETTING,\n            msg.sender,\n            oldRequiredSubmissions,\n            newRequiredSubmissions\n        );\n    }\n\n    function setMaximumTolerance(uint256 newMaximumTolerance)\n        external\n        onlyPauser()\n        whenNotPaused()\n    {\n        require(maximumTolerance != newMaximumTolerance, \"NEW_VALUE_REQUIRED\");\n        uint256 oldMaximumTolerance = maximumTolerance;\n        maximumTolerance = newMaximumTolerance;\n\n        emit SettingUpdated(\n            MAXIMUM_TOLERANCE_SETTING,\n            msg.sender,\n            oldMaximumTolerance,\n            newMaximumTolerance\n        );\n    }\n\n    function setResponseExpiryLength(uint256 newResponseExpiryLength)\n        external\n        onlyPauser()\n        whenNotPaused()\n    {\n        require(responseExpiryLength != newResponseExpiryLength, \"NEW_VALUE_REQUIRED\");\n        require(newResponseExpiryLength > 0, \"MUST_PROVIDE_RESPONSE_EXP\");\n        uint256 oldResponseExpiryLength = responseExpiryLength;\n        responseExpiryLength = newResponseExpiryLength;\n\n        emit SettingUpdated(\n            RESPONSE_EXPIRY_LENGTH_SETTING,\n            msg.sender,\n            oldResponseExpiryLength,\n            newResponseExpiryLength\n        );\n    }\n\n    function setSafetyInterval(uint256 newSafetyInterval)\n        external\n        onlyPauser()\n        whenNotPaused()\n    {\n        require(safetyInterval != newSafetyInterval, \"NEW_VALUE_REQUIRED\");\n        require(newSafetyInterval > 0, \"MUST_PROVIDE_SAFETY_INTERVAL\");\n        uint256 oldSafetyInterval = safetyInterval;\n        safetyInterval = newSafetyInterval;\n\n        emit SettingUpdated(\n            SAFETY_INTERVAL_SETTING,\n            msg.sender,\n            oldSafetyInterval,\n            newSafetyInterval\n        );\n    }\n\n    function setTermsExpiryTime(uint256 newTermsExpiryTime)\n        external\n        onlyPauser()\n        whenNotPaused()\n    {\n        require(termsExpiryTime != newTermsExpiryTime, \"NEW_VALUE_REQUIRED\");\n        require(newTermsExpiryTime > 0, \"MUST_PROVIDE_TERMS_EXPIRY\");\n        uint256 oldTermsExpiryTime = termsExpiryTime;\n        termsExpiryTime = newTermsExpiryTime;\n\n        emit SettingUpdated(\n            TERMS_EXPIRY_TIME_SETTING,\n            msg.sender,\n            oldTermsExpiryTime,\n            newTermsExpiryTime\n        );\n    }\n\n    function setLiquidateEthPrice(uint256 newLiquidateEthPrice)\n        external\n        onlyPauser()\n        whenNotPaused()\n    {\n        require(liquidateEthPrice != newLiquidateEthPrice, \"NEW_VALUE_REQUIRED\");\n        require(newLiquidateEthPrice > 0, \"MUST_PROVIDE_ETH_PRICE\");\n        uint256 oldLiquidateEthPrice = liquidateEthPrice;\n        liquidateEthPrice = newLiquidateEthPrice;\n\n        emit SettingUpdated(\n            LIQUIDATE_ETH_PRICE_SETTING,\n            msg.sender,\n            oldLiquidateEthPrice,\n            newLiquidateEthPrice\n        );\n    }\n\n    function pauseLendingPool(address lendingPoolAddress)\n        external\n        onlyPauser()\n        whenNotPaused()\n    {\n        lendingPoolAddress.requireNotEmpty(\"LENDING_POOL_IS_REQUIRED\");\n        require(!lendingPoolPaused[lendingPoolAddress], \"LENDING_POOL_ALREADY_PAUSED\");\n\n        lendingPoolPaused[lendingPoolAddress] = true;\n\n        emit LendingPoolPaused(msg.sender, lendingPoolAddress);\n    }\n\n    function unpauseLendingPool(address lendingPoolAddress)\n        external\n        onlyPauser()\n        whenNotPaused()\n    {\n        lendingPoolAddress.requireNotEmpty(\"LENDING_POOL_IS_REQUIRED\");\n        require(lendingPoolPaused[lendingPoolAddress], \"LENDING_POOL_IS_NOT_PAUSED\");\n\n        lendingPoolPaused[lendingPoolAddress] = false;\n\n        emit LendingPoolUnpaused(msg.sender, lendingPoolAddress);\n    }\n\n    function hasAssetSettings(address lendingTokenAddress) external view returns (bool) {\n        return assetSettings[lendingTokenAddress].exists();\n    }\n\n    function createAssetSettings(address lendingTokenAddress, address cTokenAddress, uint256 newMaxLendingAmount, uint256 newRateProcessFrequency)\n        external\n        onlyPauser()\n    {\n        assetSettings[lendingTokenAddress].requireNotExists();\n\n        assetSettings[lendingTokenAddress].initialize(cTokenAddress, newMaxLendingAmount, newRateProcessFrequency);\n\n        assets.push(lendingTokenAddress);\n\n        emit AssetSettingsCreated(\n            msg.sender,\n            lendingTokenAddress,\n            cTokenAddress,\n            newMaxLendingAmount,\n            newRateProcessFrequency\n        );\n    }\n\n    function updateAssetSettings(address lendingTokenAddress, address cTokenAddress, uint256 newMaxLendingAmount, uint256 newRateProcessFrequency)\n        external\n        onlyPauser()\n    {\n        assetSettings[lendingTokenAddress].update(cTokenAddress, newMaxLendingAmount, newRateProcessFrequency);\n\n        emit AssetSettingsUpdated(\n            msg.sender,\n            lendingTokenAddress,\n            cTokenAddress,\n            newMaxLendingAmount,\n            newRateProcessFrequency\n        );\n    }\n\n    function getAssetSettings(address lendingTokenAddress)\n        external\n        view\n        returns (AssetSettingsLib.AssetSettings memory)\n    {\n        return assetSettings[lendingTokenAddress];\n    }\n\n    function exceedsMaxLendingAmount(address lendingTokenAddress, uint256 amount)\n        external\n        view\n        returns (bool)\n    {\n        return assetSettings[lendingTokenAddress].exceedsMaxLendingAmount(amount);\n    }\n\n    function isPaused() external view returns (bool) {\n        return paused();\n    }\n\n    function getAssets() external view returns (address[] memory) {\n        return assets;\n    }\n\n    /** Internal functions */\n\n    /** Private functions */\n}\n",
  "sourcePath": "/Users/guillesalazar/Repos/ZeroCollateral/smart-contracts-v1/contracts/base/Settings.sol",
  "compiler": {
    "name": "solc",
    "version": "0.5.17+commit.d19bba13.Emscripten.clang"
  },
  "schemaVersion": "3.2.0",
  "updatedAt": "2020-07-06T20:57:56.029Z",
  "networkType": "ethereum",
  "devdoc": {
    "methods": {
      "pause()": {
        "details": "Called by a pauser to pause, triggers stopped state."
      },
      "paused()": {
        "details": "Returns true if the contract is paused, and false otherwise."
      },
      "unpause()": {
        "details": "Called by a pauser to unpause, returns to normal state."
      }
    }
  },
  "userdoc": {
    "methods": {
      "constructor": "Modifiers ",
      "setRequiredSubmissions(uint256)": {
        "notice": "External Functions "
      }
    }
  }
}