{
  "contractName": "Settings",
  "abi": [
    {
      "anonymous": false,
      "inputs": [
        {
          "indexed": true,
          "internalType": "address",
          "name": "account",
          "type": "address"
        },
        {
          "indexed": true,
          "internalType": "address",
          "name": "lendingPoolAddress",
          "type": "address"
        }
      ],
      "name": "LendingPoolPaused",
      "type": "event"
    },
    {
      "anonymous": false,
      "inputs": [
        {
          "indexed": true,
          "internalType": "address",
          "name": "account",
          "type": "address"
        },
        {
          "indexed": true,
          "internalType": "address",
          "name": "lendingPoolAddress",
          "type": "address"
        }
      ],
      "name": "LendingPoolUnpaused",
      "type": "event"
    },
    {
      "anonymous": false,
      "inputs": [
        {
          "indexed": false,
          "internalType": "address",
          "name": "account",
          "type": "address"
        }
      ],
      "name": "Paused",
      "type": "event"
    },
    {
      "anonymous": false,
      "inputs": [
        {
          "indexed": true,
          "internalType": "address",
          "name": "account",
          "type": "address"
        }
      ],
      "name": "PauserAdded",
      "type": "event"
    },
    {
      "anonymous": false,
      "inputs": [
        {
          "indexed": true,
          "internalType": "address",
          "name": "account",
          "type": "address"
        }
      ],
      "name": "PauserRemoved",
      "type": "event"
    },
    {
      "anonymous": false,
      "inputs": [
        {
          "indexed": true,
          "internalType": "bytes32",
          "name": "settingName",
          "type": "bytes32"
        },
        {
          "indexed": true,
          "internalType": "address",
          "name": "sender",
          "type": "address"
        },
        {
          "indexed": false,
          "internalType": "uint256",
          "name": "value",
          "type": "uint256"
        },
        {
          "indexed": false,
          "internalType": "uint256",
          "name": "minValue",
          "type": "uint256"
        },
        {
          "indexed": false,
          "internalType": "uint256",
          "name": "maxValue",
          "type": "uint256"
        }
      ],
      "name": "PlatformSettingCreated",
      "type": "event"
    },
    {
      "anonymous": false,
      "inputs": [
        {
          "indexed": true,
          "internalType": "bytes32",
          "name": "settingName",
          "type": "bytes32"
        },
        {
          "indexed": false,
          "internalType": "uint256",
          "name": "lastValue",
          "type": "uint256"
        },
        {
          "indexed": true,
          "internalType": "address",
          "name": "sender",
          "type": "address"
        }
      ],
      "name": "PlatformSettingRemoved",
      "type": "event"
    },
    {
      "anonymous": false,
      "inputs": [
        {
          "indexed": true,
          "internalType": "bytes32",
          "name": "settingName",
          "type": "bytes32"
        },
        {
          "indexed": true,
          "internalType": "address",
          "name": "sender",
          "type": "address"
        },
        {
          "indexed": false,
          "internalType": "uint256",
          "name": "oldValue",
          "type": "uint256"
        },
        {
          "indexed": false,
          "internalType": "uint256",
          "name": "newValue",
          "type": "uint256"
        }
      ],
      "name": "PlatformSettingUpdated",
      "type": "event"
    },
    {
      "anonymous": false,
      "inputs": [
        {
          "indexed": false,
          "internalType": "address",
          "name": "account",
          "type": "address"
        }
      ],
      "name": "Unpaused",
      "type": "event"
    },
    {
      "constant": true,
      "inputs": [],
      "name": "ASSET_SETTINGS_LOGIC_NAME",
      "outputs": [
        {
          "internalType": "bytes32",
          "name": "",
          "type": "bytes32"
        }
      ],
      "payable": false,
      "stateMutability": "view",
      "type": "function"
    },
    {
      "constant": true,
      "inputs": [],
      "name": "CETH_ADDRESS",
      "outputs": [
        {
          "internalType": "address",
          "name": "",
          "type": "address"
        }
      ],
      "payable": false,
      "stateMutability": "view",
      "type": "function"
    },
    {
      "constant": true,
      "inputs": [],
      "name": "CTOKEN_ADDRESS_ASSET_SETTING",
      "outputs": [
        {
          "internalType": "bytes32",
          "name": "",
          "type": "bytes32"
        }
      ],
      "payable": false,
      "stateMutability": "view",
      "type": "function"
    },
    {
      "constant": true,
      "inputs": [],
      "name": "ETH_ADDRESS",
      "outputs": [
        {
          "internalType": "address",
          "name": "",
          "type": "address"
        }
      ],
      "payable": false,
      "stateMutability": "view",
      "type": "function"
    },
    {
      "constant": true,
      "inputs": [],
      "name": "MAX_LOAN_AMOUNT_ASSET_SETTING",
      "outputs": [
        {
          "internalType": "bytes32",
          "name": "",
          "type": "bytes32"
        }
      ],
      "payable": false,
      "stateMutability": "view",
      "type": "function"
    },
    {
      "constant": true,
      "inputs": [],
      "name": "WETH_ADDRESS",
      "outputs": [
        {
          "internalType": "address",
          "name": "",
          "type": "address"
        }
      ],
      "payable": false,
      "stateMutability": "view",
      "type": "function"
    },
    {
      "constant": false,
      "inputs": [
        {
          "internalType": "address",
          "name": "account",
          "type": "address"
        }
      ],
      "name": "addPauser",
      "outputs": [],
      "payable": false,
      "stateMutability": "nonpayable",
      "type": "function"
    },
    {
      "constant": true,
      "inputs": [],
      "name": "assetSettings",
      "outputs": [
        {
          "internalType": "contract AssetSettingsInterface",
          "name": "",
          "type": "address"
        }
      ],
      "payable": false,
      "stateMutability": "view",
      "type": "function"
    },
    {
      "constant": true,
      "inputs": [],
      "name": "atmSettings",
      "outputs": [
        {
          "internalType": "contract IATMSettings",
          "name": "",
          "type": "address"
        }
      ],
      "payable": false,
      "stateMutability": "view",
      "type": "function"
    },
    {
      "constant": true,
      "inputs": [
        {
          "internalType": "address",
          "name": "",
          "type": "address"
        }
      ],
      "name": "authorizedAddresses",
      "outputs": [
        {
          "internalType": "bool",
          "name": "",
          "type": "bool"
        }
      ],
      "payable": false,
      "stateMutability": "view",
      "type": "function"
    },
    {
      "constant": true,
      "inputs": [],
      "name": "chainlinkAggregator",
      "outputs": [
        {
          "internalType": "contract IChainlinkAggregator",
          "name": "",
          "type": "address"
        }
      ],
      "payable": false,
      "stateMutability": "view",
      "type": "function"
    },
    {
      "constant": true,
      "inputs": [],
      "name": "consts",
      "outputs": [
        {
          "internalType": "contract SettingsConsts",
          "name": "",
          "type": "address"
        }
      ],
      "payable": false,
      "stateMutability": "view",
      "type": "function"
    },
    {
      "constant": true,
      "inputs": [],
      "name": "escrowFactory",
      "outputs": [
        {
          "internalType": "contract EscrowFactoryInterface",
          "name": "",
          "type": "address"
        }
      ],
      "payable": false,
      "stateMutability": "view",
      "type": "function"
    },
    {
      "constant": true,
      "inputs": [],
      "name": "initialized",
      "outputs": [
        {
          "internalType": "bool",
          "name": "value",
          "type": "bool"
        }
      ],
      "payable": false,
      "stateMutability": "view",
      "type": "function"
    },
    {
      "constant": true,
      "inputs": [],
      "name": "interestValidator",
      "outputs": [
        {
          "internalType": "contract InterestValidatorInterface",
          "name": "",
          "type": "address"
        }
      ],
      "payable": false,
      "stateMutability": "view",
      "type": "function"
    },
    {
      "constant": true,
      "inputs": [
        {
          "internalType": "address",
          "name": "account",
          "type": "address"
        }
      ],
      "name": "isPauser",
      "outputs": [
        {
          "internalType": "bool",
          "name": "",
          "type": "bool"
        }
      ],
      "payable": false,
      "stateMutability": "view",
      "type": "function"
    },
    {
      "constant": true,
      "inputs": [
        {
          "internalType": "address",
          "name": "",
          "type": "address"
        }
      ],
      "name": "lendingPoolPaused",
      "outputs": [
        {
          "internalType": "bool",
          "name": "",
          "type": "bool"
        }
      ],
      "payable": false,
      "stateMutability": "view",
      "type": "function"
    },
    {
      "constant": false,
      "inputs": [],
      "name": "pause",
      "outputs": [],
      "payable": false,
      "stateMutability": "nonpayable",
      "type": "function"
    },
    {
      "constant": true,
      "inputs": [],
      "name": "paused",
      "outputs": [
        {
          "internalType": "bool",
          "name": "",
          "type": "bool"
        }
      ],
      "payable": false,
      "stateMutability": "view",
      "type": "function"
    },
    {
      "constant": true,
      "inputs": [
        {
          "internalType": "bytes32",
          "name": "",
          "type": "bytes32"
        }
      ],
      "name": "platformSettings",
      "outputs": [
        {
          "internalType": "uint256",
          "name": "value",
          "type": "uint256"
        },
        {
          "internalType": "uint256",
          "name": "min",
          "type": "uint256"
        },
        {
          "internalType": "uint256",
          "name": "max",
          "type": "uint256"
        },
        {
          "internalType": "bool",
          "name": "exists",
          "type": "bool"
        }
      ],
      "payable": false,
      "stateMutability": "view",
      "type": "function"
    },
    {
      "constant": false,
      "inputs": [],
      "name": "renouncePauser",
      "outputs": [],
      "payable": false,
      "stateMutability": "nonpayable",
      "type": "function"
    },
    {
      "constant": true,
      "inputs": [],
      "name": "settings",
      "outputs": [
        {
          "internalType": "contract SettingsInterface",
          "name": "",
          "type": "address"
        }
      ],
      "payable": false,
      "stateMutability": "view",
      "type": "function"
    },
    {
      "constant": false,
      "inputs": [],
      "name": "unpause",
      "outputs": [],
      "payable": false,
      "stateMutability": "nonpayable",
      "type": "function"
    },
    {
      "constant": true,
      "inputs": [],
      "name": "versionsRegistry",
      "outputs": [
        {
          "internalType": "contract LogicVersionsRegistryInterface",
          "name": "",
          "type": "address"
        }
      ],
      "payable": false,
      "stateMutability": "view",
      "type": "function"
    },
    {
      "constant": false,
      "inputs": [
        {
          "internalType": "bytes32",
          "name": "settingName",
          "type": "bytes32"
        },
        {
          "internalType": "uint256",
          "name": "value",
          "type": "uint256"
        },
        {
          "internalType": "uint256",
          "name": "minValue",
          "type": "uint256"
        },
        {
          "internalType": "uint256",
          "name": "maxValue",
          "type": "uint256"
        }
      ],
      "name": "createPlatformSetting",
      "outputs": [],
      "payable": false,
      "stateMutability": "nonpayable",
      "type": "function"
    },
    {
      "constant": false,
      "inputs": [
        {
          "internalType": "bytes32",
          "name": "settingName",
          "type": "bytes32"
        },
        {
          "internalType": "uint256",
          "name": "newValue",
          "type": "uint256"
        }
      ],
      "name": "updatePlatformSetting",
      "outputs": [],
      "payable": false,
      "stateMutability": "nonpayable",
      "type": "function"
    },
    {
      "constant": false,
      "inputs": [
        {
          "internalType": "bytes32",
          "name": "settingName",
          "type": "bytes32"
        }
      ],
      "name": "removePlatformSetting",
      "outputs": [],
      "payable": false,
      "stateMutability": "nonpayable",
      "type": "function"
    },
    {
      "constant": true,
      "inputs": [
        {
          "internalType": "bytes32",
          "name": "settingName",
          "type": "bytes32"
        }
      ],
      "name": "getPlatformSetting",
      "outputs": [
        {
          "components": [
            {
              "internalType": "uint256",
              "name": "value",
              "type": "uint256"
            },
            {
              "internalType": "uint256",
              "name": "min",
              "type": "uint256"
            },
            {
              "internalType": "uint256",
              "name": "max",
              "type": "uint256"
            },
            {
              "internalType": "bool",
              "name": "exists",
              "type": "bool"
            }
          ],
          "internalType": "struct PlatformSettingsLib.PlatformSetting",
          "name": "",
          "type": "tuple"
        }
      ],
      "payable": false,
      "stateMutability": "view",
      "type": "function"
    },
    {
      "constant": true,
      "inputs": [
        {
          "internalType": "bytes32",
          "name": "settingName",
          "type": "bytes32"
        }
      ],
      "name": "getPlatformSettingValue",
      "outputs": [
        {
          "internalType": "uint256",
          "name": "",
          "type": "uint256"
        }
      ],
      "payable": false,
      "stateMutability": "view",
      "type": "function"
    },
    {
      "constant": true,
      "inputs": [
        {
          "internalType": "bytes32",
          "name": "settingName",
          "type": "bytes32"
        }
      ],
      "name": "hasPlatformSetting",
      "outputs": [
        {
          "internalType": "bool",
          "name": "",
          "type": "bool"
        }
      ],
      "payable": false,
      "stateMutability": "view",
      "type": "function"
    },
    {
      "constant": false,
      "inputs": [
        {
          "internalType": "address",
          "name": "lendingPoolAddress",
          "type": "address"
        }
      ],
      "name": "pauseLendingPool",
      "outputs": [],
      "payable": false,
      "stateMutability": "nonpayable",
      "type": "function"
    },
    {
      "constant": false,
      "inputs": [
        {
          "internalType": "address",
          "name": "lendingPoolAddress",
          "type": "address"
        }
      ],
      "name": "unpauseLendingPool",
      "outputs": [],
      "payable": false,
      "stateMutability": "nonpayable",
      "type": "function"
    },
    {
      "constant": true,
      "inputs": [],
      "name": "isPaused",
      "outputs": [
        {
          "internalType": "bool",
          "name": "",
          "type": "bool"
        }
      ],
      "payable": false,
      "stateMutability": "view",
      "type": "function"
    },
    {
      "constant": true,
      "inputs": [
        {
          "internalType": "address",
          "name": "assetAddress",
          "type": "address"
        },
        {
          "internalType": "uint256",
          "name": "amount",
          "type": "uint256"
        }
      ],
      "name": "exceedsMaxLoanAmount",
      "outputs": [
        {
          "internalType": "bool",
          "name": "",
          "type": "bool"
        }
      ],
      "payable": false,
      "stateMutability": "view",
      "type": "function"
    },
    {
      "constant": true,
      "inputs": [
        {
          "internalType": "address",
          "name": "assetAddress",
          "type": "address"
        }
      ],
      "name": "getCTokenAddress",
      "outputs": [
        {
          "internalType": "address",
          "name": "",
          "type": "address"
        }
      ],
      "payable": false,
      "stateMutability": "view",
      "type": "function"
    },
    {
      "constant": true,
      "inputs": [
        {
          "internalType": "address",
          "name": "account",
          "type": "address"
        }
      ],
      "name": "requirePauserRole",
      "outputs": [],
      "payable": false,
      "stateMutability": "view",
      "type": "function"
    },
    {
      "constant": false,
      "inputs": [
        {
          "internalType": "bool",
          "name": "restriction",
          "type": "bool"
        }
      ],
      "name": "restrictPlatform",
      "outputs": [],
      "payable": false,
      "stateMutability": "nonpayable",
      "type": "function"
    },
    {
      "constant": true,
      "inputs": [],
      "name": "isPlatformRestricted",
      "outputs": [
        {
          "internalType": "bool",
          "name": "",
          "type": "bool"
        }
      ],
      "payable": false,
      "stateMutability": "view",
      "type": "function"
    },
    {
      "constant": false,
      "inputs": [
        {
          "internalType": "address",
          "name": "addressToAdd",
          "type": "address"
        }
      ],
      "name": "addAuthorizedAddress",
      "outputs": [],
      "payable": false,
      "stateMutability": "nonpayable",
      "type": "function"
    },
    {
      "constant": false,
      "inputs": [
        {
          "internalType": "address",
          "name": "addressToRemove",
          "type": "address"
        }
      ],
      "name": "removeAuthorizedAddress",
      "outputs": [],
      "payable": false,
      "stateMutability": "nonpayable",
      "type": "function"
    },
    {
      "constant": true,
      "inputs": [
        {
          "internalType": "address",
          "name": "account",
          "type": "address"
        }
      ],
      "name": "hasAuthorization",
      "outputs": [
        {
          "internalType": "bool",
          "name": "",
          "type": "bool"
        }
      ],
      "payable": false,
      "stateMutability": "view",
      "type": "function"
    },
    {
      "constant": true,
      "inputs": [
        {
          "internalType": "address",
          "name": "account",
          "type": "address"
        }
      ],
      "name": "requireAuthorization",
      "outputs": [],
      "payable": false,
      "stateMutability": "view",
      "type": "function"
    },
    {
      "constant": false,
      "inputs": [
        {
          "internalType": "address",
          "name": "escrowFactoryAddress",
          "type": "address"
        },
        {
          "internalType": "address",
          "name": "versionsRegistryAddress",
          "type": "address"
        },
        {
          "internalType": "address",
          "name": "chainlinkAggregatorAddress",
          "type": "address"
        },
        {
          "internalType": "address",
          "name": "interestValidatorAddress",
          "type": "address"
        },
        {
          "internalType": "address",
          "name": "atmSettingsAddress",
          "type": "address"
        },
        {
          "internalType": "address",
          "name": "wethTokenAddress",
          "type": "address"
        },
        {
          "internalType": "address",
          "name": "cethTokenAddress",
          "type": "address"
        }
      ],
      "name": "initialize",
      "outputs": [],
      "payable": false,
      "stateMutability": "nonpayable",
      "type": "function"
    },
    {
      "constant": false,
      "inputs": [
        {
          "internalType": "address",
          "name": "sender",
          "type": "address"
        }
      ],
      "name": "initialize",
      "outputs": [],
      "payable": false,
      "stateMutability": "nonpayable",
      "type": "function"
    }
  ],
  "bytecode": "0x6080604052614bd5806100136000396000f3fe60806040523480156200001157600080fd5b5060043610620002b05760003560e01c806374b7b6a61162000171578063c095ea2711620000d5578063dc21a6a01162000093578063dc21a6a014620005aa578063e06174e414620005b4578063ea23cb7c14620005be578063f19e207e14620005c8578063fa4c4c0314620005df578063fbedbe5c14620005e957620002b0565b8063c095ea271462000535578063c4d66de8146200054c578063ce1991291462000563578063d10a0aec1462000589578063d86d744e14620005a057620002b0565b8063a832221e116200012f578063a832221e14620004df578063ad21879e14620004f6578063b187bd26146200050d578063b3076d001462000517578063b8aa61941462000521578063bdd1daaa146200052b57620002b0565b806374b7b6a6146200048657806382dc1ec4146200049d5780638456cb5914620004b45780639dec88b914620004be578063a734f06e14620004d557620002b0565b806342f1181e11620002195780635c975abb11620001d75780635c975abb146200041657806362f9ed77146200042057806369ff774414620004375780636a3a61cd146200044e5780636ef8d66d146200046557806370712939146200046f57620002b0565b806342f1181e14620003ca57806346fbf68e14620003e1578063478db61f14620003f85780634ab45d3314620004025780635004d36c146200040c57620002b0565b8063269012a01162000273578063269012a0146200033c57806326c7bd9314620003625780632fa8a7ee14620003795780633587647614620003925780633b66832114620003a95780633f4ba83a14620003c057620002b0565b8063040141e514620002b55780631362fee714620002d7578063158ef93e14620003005780631be0ed3714620003195780632653f3d41462000332575b600080fd5b620002bf62000600565b604051620002ce919062002980565b60405180910390f35b620002ee620002e8366004620020a4565b6200060f565b604051620002ce949392919062002c55565b6200030a62000639565b604051620002ce9190620029bf565b620003306200032a36600462001f36565b6200065d565b005b6200030a620007f4565b620003536200034d366004620020a4565b620007fd565b604051620002ce9190620029cf565b620002bf6200037336600462001f36565b62000811565b620003836200089e565b604051620002ce9190620029fe565b62000330620003a336600462001f78565b620008ad565b6200030a620003ba36600462001f36565b62000c47565b6200033062000c5c565b62000330620003db36600462001f36565b62000d3a565b6200030a620003f236600462001f36565b62000e2f565b6200035362000e44565b620002bf62000e5d565b6200038362000e6c565b6200030a62000e7b565b6200033062000431366004620020a4565b62000e84565b6200030a6200044836600462002023565b62000f7a565b620003306200045f36600462001f36565b6200100a565b6200033062001045565b620003306200048036600462001f36565b6200105b565b6200030a62000497366004620020a4565b6200114d565b62000330620004ae36600462001f36565b62001164565b62000330620011d8565b62000330620004cf366004620020e7565b620012a1565b620002bf620013c3565b62000330620004f036600462002062565b620013db565b6200030a6200050736600462001f36565b62001480565b6200030a6200153e565b620003836200154f565b620003536200155e565b620003836200156c565b620003306200054636600462001f36565b6200157b565b620003306200055d36600462001f36565b620015b9565b6200057a62000574366004620020a4565b6200165b565b604051620002ce919062002c07565b620003306200059a366004620020c5565b62001670565b620003836200176f565b620003836200177e565b620003836200178d565b6200038362001799565b6200030a620005d936600462001f36565b620017a8565b62000353620017bd565b62000330620005fa36600462001f36565b620017cb565b609a546001600160a01b031681565b609e6020526000908152604090208054600182015460028301546003909301549192909160ff1684565b60008060016040516200064c906200293f565b604051908190039020035492915050565b6200066762001955565b6001600160a01b031663c095ea27336040518263ffffffff1660e01b815260040162000694919062002990565b60006040518083038186803b158015620006ad57600080fd5b505afa158015620006c2573d6000803e3d6000fd5b505060665460ff16159150620006f790505760405162461bcd60e51b8152600401620006ee9062002b0b565b60405180910390fd5b6200070162000639565b620007205760405162461bcd60e51b8152600401620006ee9062002bad565b60408051808201909152601881527713115391125391d7d413d3d317d254d7d49154555254915160421b60208201526200076b906001600160a01b0383169063ffffffff6200197c16565b6001600160a01b0381166000908152609c602052604090205460ff1615620007a75760405162461bcd60e51b8152600401620006ee9062002a21565b6001600160a01b0381166000818152609c6020526040808220805460ff191660011790555133917fff7b62e2b5984471f0fb76a23e84a0d6f2e5c3e8818a929948190ce967a2fc2e91a350565b60a55460ff1690565b60006200080a82620019ae565b5192915050565b609d546040516326c7bd9360e01b81526000916001600160a01b0316906326c7bd93906200084490859060040162002980565b60206040518083038186803b1580156200085d57600080fd5b505afa15801562000872573d6000803e3d6000fd5b505050506040513d601f19601f8201168201806040525062000898919081019062001f57565b92915050565b60a2546001600160a01b031681565b620008b762000639565b15620008d75760405162461bcd60e51b8152600401620006ee9062002be3565b620008eb876001600160a01b031662001a02565b6200090a5760405162461bcd60e51b8152600401620006ee9062002b41565b6200091e866001600160a01b031662001a02565b6200093d5760405162461bcd60e51b8152600401620006ee9062002b2f565b62000951856001600160a01b031662001a02565b620009705760405162461bcd60e51b8152600401620006ee9062002a69565b62000984846001600160a01b031662001a3f565b806200099f57506200099f846001600160a01b031662001a02565b620009be5760405162461bcd60e51b8152600401620006ee9062002ad5565b620009d2836001600160a01b031662001a02565b620009f15760405162461bcd60e51b8152600401620006ee9062002a8d565b62000a05816001600160a01b031662001a02565b62000a245760405162461bcd60e51b8152600401620006ee9062002bd1565b62000a2f33620015b9565b62000a3962001a4c565b609f80546001600160a01b03199081166001600160a01b038a81169190911790925560a08054821689841617905560a18054821688841617905560a28054821687841617905560a380548216868416179055609a80548216858416179055609b805490911691831691909117905560405162000ab59062001ea1565b604051809103906000f08015801562000ad2573d6000803e3d6000fd5b50609980546001600160a01b0319166001600160a01b039290921691909117905562000afe3062001a70565b60405162000b0c9062001eaf565b604051809103906000f08015801562000b29573d6000803e3d6000fd5b50609d80546001600160a01b0319166001600160a01b0392831617905560a0546040519116906369cce1269062000b60906200294c565b604051908190038120609d546001600160e01b031960e085901b16835262000b97926001600160a01b0390911690600401620029df565b600060405180830381600087803b15801562000bb257600080fd5b505af115801562000bc7573d6000803e3d6000fd5b5050505060003060405162000bdc906200294c565b604051809103902060405162000bf29062001ebd565b62000bff929190620029a0565b604051809103906000f08015801562000c1c573d6000803e3d6000fd5b50609d80546001600160a01b0319166001600160a01b03929092169190911790555050505050505050565b609c6020526000908152604090205460ff1681565b62000c6662001955565b6001600160a01b031663c095ea27336040518263ffffffff1660e01b815260040162000c93919062002990565b60006040518083038186803b15801562000cac57600080fd5b505afa15801562000cc1573d6000803e3d6000fd5b505060665460ff16915062000cec90505760405162461bcd60e51b8152600401620006ee9062002a33565b6066805460ff191690557f5db9ee0a495bf2e6ff9c91a7834c1ba4fdd244a5e8aa4e537bd38aeae4b073aa62000d2162001aef565b60405162000d30919062002990565b60405180910390a1565b62000d4462001955565b6001600160a01b031663c095ea27336040518263ffffffff1660e01b815260040162000d71919062002990565b60006040518083038186803b15801562000d8a57600080fd5b505afa15801562000d9f573d6000803e3d6000fd5b5050505062000dad62000639565b62000dcc5760405162461bcd60e51b8152600401620006ee9062002bad565b60408051808201909152600c81526b414444524553535f5a45524f60a01b602082015262000e0b906001600160a01b0383169063ffffffff6200197c16565b6001600160a01b0316600090815260a460205260409020805460ff19166001179055565b60006200089860338363ffffffff62001af316565b60405162000e52906200294c565b604051809103902081565b609b546001600160a01b031681565b60a1546001600160a01b031681565b60665460ff1690565b62000e8e62001955565b6001600160a01b031663c095ea27336040518263ffffffff1660e01b815260040162000ebb919062002990565b60006040518083038186803b15801562000ed457600080fd5b505afa15801562000ee9573d6000803e3d6000fd5b5050505062000ef762000639565b62000f165760405162461bcd60e51b8152600401620006ee9062002bad565b6000818152609e6020526040902080549062000f329062001b3e565b336001600160a01b0316827f441e6d4e0fa187867205bff50ab3fdf95c4612c241878b3f50d93a1256669dc98360405162000f6e9190620029cf565b60405180910390a35050565b609d54604051631a7fddd160e21b81526000916001600160a01b0316906369ff77449062000faf9086908690600401620029a0565b60206040518083038186803b15801562000fc857600080fd5b505afa15801562000fdd573d6000803e3d6000fd5b505050506040513d601f19601f8201168201806040525062001003919081019062002083565b9392505050565b60a55460ff161580620010235750620010238162001480565b620010425760405162461bcd60e51b8152600401620006ee9062002bbf565b50565b620010596200105362001aef565b62001b67565b565b6200106562001955565b6001600160a01b031663c095ea27336040518263ffffffff1660e01b815260040162001092919062002990565b60006040518083038186803b158015620010ab57600080fd5b505afa158015620010c0573d6000803e3d6000fd5b50505050620010ce62000639565b620010ed5760405162461bcd60e51b8152600401620006ee9062002bad565b60408051808201909152600c81526b414444524553535f5a45524f60a01b60208201526200112c906001600160a01b0383169063ffffffff6200197c16565b6001600160a01b0316600090815260a460205260409020805460ff19169055565b60006200115a82620019ae565b6060015192915050565b6200116e62001955565b6001600160a01b031663c095ea27336040518263ffffffff1660e01b81526004016200119b919062002990565b60006040518083038186803b158015620011b457600080fd5b505afa158015620011c9573d6000803e3d6000fd5b50505050620010428162001bb1565b620011e262001955565b6001600160a01b031663c095ea27336040518263ffffffff1660e01b81526004016200120f919062002990565b60006040518083038186803b1580156200122857600080fd5b505afa1580156200123d573d6000803e3d6000fd5b505060665460ff161591506200126990505760405162461bcd60e51b8152600401620006ee9062002b0b565b6066805460ff191660011790557f62e78cea01bee320cd4e420270b5ea74000d11b0c9f74754ebdbfc544b05a25862000d2162001aef565b620012ab62001955565b6001600160a01b031663c095ea27336040518263ffffffff1660e01b8152600401620012d8919062002990565b60006040518083038186803b158015620012f157600080fd5b505afa15801562001306573d6000803e3d6000fd5b505050506200131462000639565b620013335760405162461bcd60e51b8152600401620006ee9062002bad565b83620013535760405162461bcd60e51b8152600401620006ee9062002bf5565b6000848152609e60205260409020620013759084848463ffffffff62001bfb16565b336001600160a01b0316847f88608f5277d08a47d0b5c4911811b474510dfcb1e303b13120b4fdd013ee4feb858585604051620013b59392919062002c27565b60405180910390a350505050565b73eeeeeeeeeeeeeeeeeeeeeeeeeeeeeeeeeeeeeeee81565b620013e562001955565b6001600160a01b031663c095ea27336040518263ffffffff1660e01b815260040162001412919062002990565b60006040518083038186803b1580156200142b57600080fd5b505afa15801562001440573d6000803e3d6000fd5b505050506200144e62000639565b6200146d5760405162461bcd60e51b8152600401620006ee9062002bad565b60a5805460ff1916911515919091179055565b60006200148d8262000e2f565b80620014b157506001600160a01b038216600090815260a4602052604090205460ff165b8062000898575060a0546040516375b3621560e01b81526001600160a01b03909116906375b3621590620014ea90859060040162002980565b60206040518083038186803b1580156200150357600080fd5b505afa15801562001518573d6000803e3d6000fd5b505050506040513d601f19601f8201168201806040525062000898919081019062002083565b60006200154a62000e7b565b905090565b609d546001600160a01b031681565b60405162000e529062002973565b609f546001600160a01b031681565b620015868162000e2f565b806200159a57506001600160a01b03811630145b620010425760405162461bcd60e51b8152600401620006ee9062002ab1565b600054610100900460ff1680620015d55750620015d562001c72565b80620015e4575060005460ff16155b620016035760405162461bcd60e51b8152600401620006ee9062002b77565b600054610100900460ff161580156200162f576000805460ff1961ff0019909116610100171660011790555b6200163a8262001c78565b6066805460ff19169055801562001657576000805461ff00191690555b5050565b6200166562001ecb565b6200089882620019ae565b6200167a62001955565b6001600160a01b031663c095ea27336040518263ffffffff1660e01b8152600401620016a7919062002990565b60006040518083038186803b158015620016c057600080fd5b505afa158015620016d5573d6000803e3d6000fd5b50505050620016e362000639565b620017025760405162461bcd60e51b8152600401620006ee9062002bad565b6000828152609e6020526040812062001722908363ffffffff62001d1f16565b9050336001600160a01b0316837ff5d6988acb4a237a95feb459c3b5d7f95ad15acfe26d31cd4bf88b8b1ec792de83856040516200176292919062002c17565b60405180910390a3505050565b6099546001600160a01b031681565b60a3546001600160a01b031681565b60006200154a62001955565b60a0546001600160a01b031681565b60a46020526000908152604090205460ff1681565b60405162000e529062002959565b620017d562001955565b6001600160a01b031663c095ea27336040518263ffffffff1660e01b815260040162001802919062002990565b60006040518083038186803b1580156200181b57600080fd5b505afa15801562001830573d6000803e3d6000fd5b505060665460ff161591506200185c90505760405162461bcd60e51b8152600401620006ee9062002b0b565b6200186662000639565b620018855760405162461bcd60e51b8152600401620006ee9062002bad565b60408051808201909152601881527713115391125391d7d413d3d317d254d7d49154555254915160421b6020820152620018d0906001600160a01b0383169063ffffffff6200197c16565b6001600160a01b0381166000908152609c602052604090205460ff166200190b5760405162461bcd60e51b8152600401620006ee9062002b89565b6001600160a01b0381166000818152609c6020526040808220805460ff191690555133917fc55a972437581d7d7bfd8729cdde06ee7e788e1a407b4cfdc6a0330d04b391f191a350565b600080600060016040516200196a9062002966565b60405190819003902003549250505090565b620019878262001da6565b8190620019a95760405162461bcd60e51b8152600401620006ee919062002a0e565b505050565b620019b862001ecb565b506000908152609e602090815260409182902082516080810184528154815260018201549281019290925260028101549282019290925260039091015460ff161515606082015290565b6000813f7fc5d2460186f7233c927e7db2dcc703c0e500b653ca82273b7bfad8045d85a47081811480159062001a3757508115155b949350505050565b6001600160a01b03161590565b6000600160405162001a5e906200293f565b60405190819003902060019190035550565b62001a8d62001a7e62001955565b6001600160a01b031662001da6565b1562001a995762001042565b62001aad816001600160a01b031662001a02565b62001acc5760405162461bcd60e51b8152600401620006ee9062002ac3565b6000600160405162001ade9062002966565b604051908190039020038290555050565b3390565b60006001600160a01b03821662001b1e5760405162461bcd60e51b8152600401620006ee9062002b65565b506001600160a01b03166000908152602091909152604090205460ff1690565b62001b498162001db4565b6000808255600182018190556002820155600301805460ff19169055565b62001b7a60338263ffffffff62001ddb16565b6040516001600160a01b038216907fcd265ebaf09df2871cc7bd4133404a235ba12eff2041bb89d9c714a2621c7c7e90600090a250565b62001bc460338263ffffffff62001e2816565b6040516001600160a01b038216907f6719d08c1888103bea251a4ed56406bd0c3e69723c8a1686e017e7bbe159b6f890600090a250565b62001c068462001e79565b8183101562001c295760405162461bcd60e51b8152600401620006ee9062002af9565b8083111562001c4c5760405162461bcd60e51b8152600401620006ee9062002b53565b91835560018084019190915560028301919091556003909101805460ff19169091179055565b303b1590565b600054610100900460ff168062001c94575062001c9462001c72565b8062001ca3575060005460ff16155b62001cc25760405162461bcd60e51b8152600401620006ee9062002b77565b600054610100900460ff1615801562001cee576000805460ff1961ff0019909116610100171660011790555b62001cf98262000e2f565b62001d095762001d098262001bb1565b801562001657576000805461ff00191690555050565b600062001d2c8362001db4565b825482141562001d505760405162461bcd60e51b8152600401620006ee9062002a9f565b826001015482101562001d775760405162461bcd60e51b8152600401620006ee9062002a7b565b826002015482111562001d9e5760405162461bcd60e51b8152600401620006ee9062002ae7565b508154915590565b6001600160a01b0316151590565b600381015460ff16620010425760405162461bcd60e51b8152600401620006ee9062002b9b565b62001de7828262001af3565b62001e065760405162461bcd60e51b8152600401620006ee9062002b1d565b6001600160a01b0316600090815260209190915260409020805460ff19169055565b62001e34828262001af3565b1562001e545760405162461bcd60e51b8152600401620006ee9062002a45565b6001600160a01b0316600090815260209190915260409020805460ff19166001179055565b600381015460ff1615620010425760405162461bcd60e51b8152600401620006ee9062002a57565b6102858062002d4a83390190565b6115c18062002fcf83390190565b610603806200459083390190565b60405180608001604052806000815260200160008152602001600081526020016000151581525090565b8035620008988162002d1c565b8051620008988162002d1c565b8035620008988162002d33565b8051620008988162002d33565b8035620008988162002d3e565b60006020828403121562001f4957600080fd5b600062001a37848462001ef5565b60006020828403121562001f6a57600080fd5b600062001a37848462001f02565b600080600080600080600060e0888a03121562001f9457600080fd5b600062001fa28a8a62001ef5565b975050602062001fb58a828b0162001ef5565b965050604062001fc88a828b0162001ef5565b955050606062001fdb8a828b0162001ef5565b945050608062001fee8a828b0162001ef5565b93505060a0620020018a828b0162001ef5565b92505060c0620020148a828b0162001ef5565b91505092959891949750929550565b600080604083850312156200203757600080fd5b600062002045858562001ef5565b9250506020620020588582860162001f29565b9150509250929050565b6000602082840312156200207557600080fd5b600062001a37848462001f0f565b6000602082840312156200209657600080fd5b600062001a37848462001f1c565b600060208284031215620020b757600080fd5b600062001a37848462001f29565b60008060408385031215620020d957600080fd5b600062002045858562001f29565b60008060008060808587031215620020fe57600080fd5b60006200210c878762001f29565b94505060206200211f8782880162001f29565b9350506040620021328782880162001f29565b9250506060620021458782880162001f29565b91505092959194509250565b6200215c8162002cce565b82525050565b6200215c8162002cad565b6200215c8162002cba565b6200215c8162002cbf565b6200215c8162002cd6565b60006200219b8262002c9b565b620021a7818562002c9f565b9350620021b981856020860162002ce3565b620021c48162002d12565b9093019392505050565b6000620021dd601c8362002ca8565b7f54496e697469616c697a61626c652e6973496e697469616c697a6564000000008152601c0192915050565b600062002218601b8362002c9f565b7f4c454e44494e475f504f4f4c5f414c52454144595f5041555345440000000000815260200192915050565b60006200225360148362002c9f565b7314185d5cd8589b194e881b9bdd081c185d5cd95960621b815260200192915050565b600062002285601f8362002c9f565b7f526f6c65733a206163636f756e7420616c72656164792068617320726f6c6500815260200192915050565b6000620022c0601f8362002c9f565b7f504c4154464f524d5f53455454494e475f414c52454144595f45584953545300815260200192915050565b6000620022fb601b8362002c9f565b7f41474752454741544f525f4d5553545f42455f434f4e54524143540000000000815260200192915050565b600062002336601f8362002c9f565b7f4e45575f56414c55455f4d5553545f42455f4754455f4d494e5f56414c554500815260200192915050565b600062002371601d8362002c9f565b7f41544d5f53455454494e47535f4d5553545f42455f434f4e5452414354000000815260200192915050565b6000620023ac60128362002c9f565b71139155d7d59053155157d49154555254915160721b815260200192915050565b6000620023dc600a8362002c9f565b692727aa2fa820aaa9a2a960b11b815260200192915050565b600062002404601b8362002c9f565b7f53455454494e47535f4d5553545f42455f415f434f4e54524143540000000000815260200192915050565b60006200243f601d8362002c9f565b7f494e5445524553545f56414c5f4d5553545f42455f434f4e5452414354000000815260200192915050565b60006200247a601f8362002c9f565b7f4e45575f56414c55455f4d5553545f42455f4c54455f4d41585f56414c554500815260200192915050565b6000620024b5600d8362002ca8565b6c417373657453657474696e677360981b8152600d0192915050565b6000620024e0601b8362002c9f565b7f56414c55455f4d5553545f42455f4754455f4d494e5f56414c55450000000000815260200192915050565b60006200251b60108362002c9f565b6f14185d5cd8589b194e881c185d5cd95960821b815260200192915050565b60006200254960218362002c9f565b7f526f6c65733a206163636f756e7420646f6573206e6f74206861766520726f6c8152606560f81b602082015260400192915050565b60006200258e601e8362002c9f565b7f564552535f52454749535452595f4d5553545f42455f434f4e54524143540000815260200192915050565b6000620025c9600d8362002ca8565b6c43546f6b656e4164647265737360981b8152600d0192915050565b6000620025f4601f8362002c9f565b7f455343524f575f464143544f52595f4d5553545f42455f434f4e545241435400815260200192915050565b60006200262f601b8362002c9f565b7f56414c55455f4d5553545f42455f4c54455f4d41585f56414c55450000000000815260200192915050565b60006200266a60228362002c9f565b7f526f6c65733a206163636f756e7420697320746865207a65726f206164647265815261737360f01b602082015260400192915050565b6000620026b0602e8362002c9f565b7f436f6e747261637420696e7374616e63652068617320616c726561647920626581526d195b881a5b9a5d1a585b1a5e995960921b602082015260400192915050565b600062002702601a8362002c9f565b7f4c454e44494e475f504f4f4c5f49535f4e4f545f504155534544000000000000815260200192915050565b60006200273d601b8362002c9f565b7f504c4154464f524d5f53455454494e475f4e4f545f4558495354530000000000815260200192915050565b60006200277860188362002ca8565b7f426173655570677261646561626c652e73657474696e67730000000000000000815260180192915050565b6000620027b360188362002c9f565b7f434f4e54524143545f4e4f545f494e495449414c495a45440000000000000000815260200192915050565b6000620027ee600e8362002c9f565b6d1393d517d055551213d49256915160921b815260200192915050565b60006200281a601d8362002c9f565b7f434554485f414444524553535f4d5553545f42455f434f4e5452414354000000815260200192915050565b600062002855600d8362002ca8565b6c13585e131bd85b905b5bdd5b9d609a1b8152600d0192915050565b600062002880601c8362002c9f565b7f434f4e54524143545f414c52454144595f494e495449414c495a454400000000815260200192915050565b6000620028bb601d8362002c9f565b7f53455454494e475f4e414d455f4d5553545f42455f50524f5649444544000000815260200192915050565b80516080830190620028fa848262002178565b5060208201516200290f602085018262002178565b50604082015162002924604085018262002178565b5060608201516200293960608501826200216d565b50505050565b60006200089882620021ce565b60006200089882620024a6565b60006200089882620025ba565b6000620008988262002769565b6000620008988262002846565b6020810162000898828462002162565b6020810162000898828462002151565b60408101620029b0828562002162565b62001003602083018462002178565b602081016200089882846200216d565b6020810162000898828462002178565b60408101620029ef828562002178565b62001003602083018462002162565b6020810162000898828462002183565b602080825281016200100381846200218e565b60208082528101620008988162002209565b60208082528101620008988162002244565b60208082528101620008988162002276565b602080825281016200089881620022b1565b602080825281016200089881620022ec565b60208082528101620008988162002327565b60208082528101620008988162002362565b6020808252810162000898816200239d565b602080825281016200089881620023cd565b602080825281016200089881620023f5565b60208082528101620008988162002430565b6020808252810162000898816200246b565b602080825281016200089881620024d1565b6020808252810162000898816200250c565b6020808252810162000898816200253a565b6020808252810162000898816200257f565b602080825281016200089881620025e5565b60208082528101620008988162002620565b6020808252810162000898816200265b565b602080825281016200089881620026a1565b602080825281016200089881620026f3565b6020808252810162000898816200272e565b602080825281016200089881620027a4565b602080825281016200089881620027df565b6020808252810162000898816200280b565b60208082528101620008988162002871565b602080825281016200089881620028ac565b60808101620008988284620028e7565b60408101620029b0828562002178565b6060810162002c37828662002178565b62002c46602083018562002178565b62001a37604083018462002178565b6080810162002c65828762002178565b62002c74602083018662002178565b62002c83604083018562002178565b62002c9260608301846200216d565b95945050505050565b5190565b90815260200190565b919050565b6000620008988262002cc2565b151590565b90565b6001600160a01b031690565b600062000898825b6000620008988262002cad565b60005b8381101562002d0057818101518382015260200162002ce6565b83811115620029395750506000910152565b601f01601f191690565b62002d278162002cad565b81146200104257600080fd5b62002d278162002cba565b62002d278162002cbf56fe608060405234801561001057600080fd5b50610265806100206000396000f3fe608060405234801561001057600080fd5b50600436106100a95760003560e01c8063be224fc611610071578063be224fc6146100e8578063c41dd8ce146100f0578063cc44cadb146100f8578063dd0081c714610100578063e00a461514610108578063e3f33d0014610110576100a9565b806308b04f62146100ae5780631139087a146100c857806311880cc8146100d05780633b98dfdb146100d8578063770f6c74146100e0575b600080fd5b6100b6610118565b60408051918252519081900360200190f35b6100b661012f565b6100b6610147565b6100b661015c565b6100b6610180565b6100b66101a4565b6100b66101c8565b6100b66101df565b6100b66101f9565b6100b66101ff565b6100b6610215565b6f21b7b63630ba32b930b6213ab33332b960811b81565b704c6971756964617465457468507269636560781b81565b6d14d859995d1e525b9d195c9d985b60921b81565b7f526571756573744c6f616e5465726d73526174654c696d69740000000000000081565b7f52657175697265645375626d697373696f6e7350657263656e7461676500000081565b7f4f766572436f6c6c61746572616c697a6564427566666572000000000000000081565b6f4d6178696d756d546f6c6572616e636560801b81565b7226b0bc34b6bab6a637b0b7223ab930ba34b7b760691b81565b61271081565b6e5465726d7345787069727954696d6560881b81565b730a4cae6e0dedce6ca8af0e0d2e4f298cadccee8d60631b8156fea265627a7a723158206395bf6d687e258ef1cd3d3cb9bef3b8e82670615183f9ff09605e17952b0d1864736f6c63430005110032608060405234801561001057600080fd5b506115a1806100206000396000f3fe608060405234801561001057600080fd5b50600436106100ea5760003560e01c80634fd3aad61161008c578063907f304111610066578063907f3041146101bf578063ad73f38e146101d2578063bf6d79ab146101f2578063e06174e414610205576100ea565b80634fd3aad61461017957806357b8342e1461018c57806369ff77441461019f576100ea565b80632c4acfa1116100c85780632c4acfa11461011757806332c1ff911461014057806337929cc3146101535780634a5e42b114610166576100ea565b80631f338eb5146100ef5780631fabcf461461010457806326c7bd9314610117575b600080fd5b6101026100fd366004611114565b61021a565b005b61010261011236600461108d565b610393565b61012a610125366004611067565b610439565b60405161013791906113e6565b60405180910390f35b61010261014e36600461108d565b6104d5565b61010261016136600461108d565b61066a565b610102610174366004611067565b6106dc565b61012a610187366004611067565b61088e565b61010261019a3660046110c7565b610901565b6101b26101ad366004611114565b610a57565b604051610137919061143f565b6101026101cd366004611114565b610acf565b6101e56101e0366004611067565b610be4565b60405161013791906114ac565b6101e5610200366004611067565b610c58565b61020d610cae565b604051610137919061144d565b610222610cbd565b6001600160a01b031663c095ea27336040518263ffffffff1660e01b815260040161024d91906113f4565b60006040518083038186803b15801561026557600080fd5b505afa158015610279573d6000803e3d6000fd5b5050506001600160a01b038316600090815260208190526040902061029e9150610ce2565b6000806000846001600160a01b03166001600160a01b0316815260200190815260200160002060010160006040516102d5906113db565b6040518091039020815260200190815260200160002054905061032d6040516102fd906113db565b60408051918290039091206001600160a01b0386166000908152602081905291909120908463ffffffff610d1316565b826001600160a01b0316336001600160a01b031660405161034d906113db565b60405180910390207fc34434be61dd5409142baf6b4b56c888a407184091916f210f1229981176729e84866040516103869291906114ba565b60405180910390a4505050565b61039b610cbd565b6001600160a01b031663c095ea27336040518263ffffffff1660e01b81526004016103c691906113f4565b60006040518083038186803b1580156103de57600080fd5b505afa1580156103f2573d6000803e3d6000fd5b5050505061043560405161040590611399565b60408051918290039091206001600160a01b0385166000908152602081905291909120908363ffffffff610d6016565b5050565b6000610485604051806040016040528060168152602001751054d4d15517d05111149154d4d7d49154555254915160521b815250836001600160a01b0316610dd190919063ffffffff16565b6001600160a01b03821660009081526020819052604080822090519091906104ac906113a4565b60408051918290039091208252602082019290925201600020546001600160a01b031692915050565b6104dd610cbd565b6001600160a01b031663c095ea27336040518263ffffffff1660e01b815260040161050891906113f4565b60006040518083038186803b15801561052057600080fd5b505afa158015610534573d6000803e3d6000fd5b505060408051808201909152601781527610d513d2d15397d05111149154d4d7d491545552549151604a1b602082015261058092506001600160a01b038416915063ffffffff610dd116565b6001600160a01b038216600090815260208190526040808220905182906105a6906113a4565b6040518091039020815260200190815260200160002060009054906101000a90046001600160a01b031690506106116040516105e1906113a4565b60408051918290039091206001600160a01b0386166000908152602081905291909120908463ffffffff610d6016565b826001600160a01b0316336001600160a01b0316604051610631906113a4565b60405180910390207f929f6b235ccfb7d9550dd06e5cde398e177120a98377d5f152b6c76e030f45fa8486604051610386929190611402565b610672610cbd565b6001600160a01b031663c095ea27336040518263ffffffff1660e01b815260040161069d91906113f4565b60006040518083038186803b1580156106b557600080fd5b505afa1580156106c9573d6000803e3d6000fd5b50505050610435604051610405906113c5565b6106e4610cbd565b6001600160a01b031663c095ea27336040518263ffffffff1660e01b815260040161070f91906113f4565b60006040518083038186803b15801561072757600080fd5b505afa15801561073b573d6000803e3d6000fd5b5050506001600160a01b03821660009081526020819052604090206107609150610ce2565b61084f6040518060a0016040528060405161077a906113db565b60405180910390208152602001604051610793906113d0565b604051809103902081526020016040516107ac906113a4565b604051809103902081526020016040516107c590611399565b604051809103902081526020016040516107de906113c5565b60405180910390208152506040518060a001604052806001600481111561080157fe5b600481111561080c57fe5b8152602001600181526020016000815260200160008152602001600090526001600160a01b0384166000908152602081905260409020919063ffffffff610dfe16565b6001600160a01b0381166000818152602081905260405133917fff739057fdc41db152d18e4a53b9ed8db9afe0b5b7bc4c9e7e60168cb6a0d7e791a350565b60006108da604051806040016040528060168152602001751054d4d15517d05111149154d4d7d49154555254915160521b815250836001600160a01b0316610dd190919063ffffffff16565b6001600160a01b03821660009081526020819052604080822090519091906104ac906113c5565b6040805180820190915260168152751054d4d15517d05111149154d4d7d49154555254915160521b6020820152610948906001600160a01b0385169063ffffffff610dd116565b60408051808201909152601781527610d513d2d15397d05111149154d4d7d491545552549151604a1b6020820152610990906001600160a01b0384169063ffffffff610dd116565b6001600160a01b03831660009081526020819052604090206109b190610f99565b6109c06040516105e1906113a4565b8015610a0557610a056040516109d5906113db565b60408051918290039091206001600160a01b0386166000908152602081905291909120908363ffffffff610d1316565b826001600160a01b0316336001600160a01b03167fe37faf4827cb3cd6cbaf895d9ca6b0f7ea5113da8a6ca24b281270c760f03bc08484604051610a4a929190611424565b60405180910390a3505050565b6001600160a01b0382166000908152602081905260408120610a7890610ce2565b600080846001600160a01b03166001600160a01b031681526020019081526020016000206001016000604051610aad906113db565b6040518091039020815260200190815260200160002054821190505b92915050565b610ad7610cbd565b6001600160a01b031663c095ea27336040518263ffffffff1660e01b8152600401610b0291906113f4565b60006040518083038186803b158015610b1a57600080fd5b505afa158015610b2e573d6000803e3d6000fd5b5050506001600160a01b0383166000908152602081905260409020610b539150610ce2565b600080836001600160a01b03166001600160a01b031681526020019081526020016000206001016000604051610b88906113d0565b6040518091039020815260200190815260200160002054811461043557610435604051610bb4906113d0565b60408051918290039091206001600160a01b0385166000908152602081905291909120908363ffffffff610d1316565b6001600160a01b0381166000908152602081905260408120610c0590610ce2565b600080836001600160a01b03166001600160a01b031681526020019081526020016000206001016000604051610c3a906113db565b60405180910390208152602001908152602001600020549050919050565b6001600160a01b0381166000908152602081905260408120610c7990610ce2565b600080836001600160a01b03166001600160a01b031681526020019081526020016000206001016000604051610c3a906113d0565b6000610cb8610cbd565b905090565b60008060006001604051610cd0906113ba565b60405190819003902003549250505090565b610ceb81610fe6565b610d105760405162461bcd60e51b8152600401610d079061149c565b60405180910390fd5b50565b610d1c83610ce2565b6000828152600184016020526040902054811415610d4c5760405162461bcd60e51b8152600401610d079061148c565b600091825260019092016020526040902055565b610d6983610ce2565b6000828152602084905260409020546001600160a01b0382811691161415610da35760405162461bcd60e51b8152600401610d079061147c565b60009182526020929092526040902080546001600160a01b0319166001600160a01b03909216919091179055565b610dda8261101d565b8190610df95760405162461bcd60e51b8152600401610d07919061145b565b505050565b610e0783610ce2565b60005b60058111610f93576000828260058110610e2057fe5b60200201516004811115610e3057fe5b1415610e7357836000848360058110610e4557fe5b6020020151815260200190815260200160002060006101000a8154906001600160a01b030219169055610f8b565b6001828260058110610e8157fe5b60200201516004811115610e9157fe5b1415610ec557836001016000848360058110610ea957fe5b6020020151815260200190815260200160002060009055610f8b565b6002828260058110610ed357fe5b60200201516004811115610ee357fe5b1415610efb57836002016000848360058110610ea957fe5b6003828260058110610f0957fe5b60200201516004811115610f1957fe5b1415610f3157836003016000848360058110610ea957fe5b6004828260058110610f3f57fe5b60200201516004811115610f4f57fe5b1415610f8b57836004016000848360058110610f6757fe5b6020020151815260200190815260200160002060006101000a81549060ff02191690555b600101610e0a565b50505050565b610fa28161102b565b6001816004016000604051610fb6906113af565b6040518091039020815260200190815260200160002060006101000a81548160ff02191690831515021790555050565b6000816004016000604051610ffa906113af565b604080519182900390912082526020820192909252016000205460ff1692915050565b6001600160a01b0316151590565b61103481610fe6565b15610d105760405162461bcd60e51b8152600401610d079061146c565b8035610ac981611541565b8035610ac981611555565b60006020828403121561107957600080fd5b60006110858484611051565b949350505050565b600080604083850312156110a057600080fd5b60006110ac8585611051565b92505060206110bd85828601611051565b9150509250929050565b6000806000606084860312156110dc57600080fd5b60006110e88686611051565b93505060206110f986828701611051565b925050604061110a8682870161105c565b9150509250925092565b6000806040838503121561112757600080fd5b60006111338585611051565b92505060206110bd8582860161105c565b61114d816114f9565b82525050565b61114d816114da565b61114d816114e5565b61114d81611500565b6000611179826114c8565b61118381856114cc565b935061119381856020860161150b565b61119c81611537565b9093019392505050565b60006111b36014836114cc565b7343414348455f414c52454144595f45584953545360601b815260200192915050565b60006111e36014836114cc565b73139155d7d05111149154d4d7d49154555254915160621b815260200192915050565b6000611213600d836114d5565b6c595661756c744164647265737360981b8152600d0192915050565b600061123c600d836114d5565b6c43546f6b656e4164647265737360981b8152600d0192915050565b60006112656011836114cc565b70139155d7d552539517d491545552549151607a1b815260200192915050565b60006112926014836114cc565b7310d050d21157d113d154d7d393d517d1561254d560621b815260200192915050565b60006112c2600b836114d5565b6a125b9a5d1a585b1a5e995960aa1b8152600b0192915050565b60006112e96018836114d5565b7f426173655570677261646561626c652e73657474696e67730000000000000000815260180192915050565b6000611322600e836114d5565b6d435256506f6f6c4164647265737360901b8152600e0192915050565b600061134c600c836114d5565b6b13585e151593105b5bdd5b9d60a21b8152600c0192915050565b6000611374600d836114d5565b6c13585e131bd85b905b5bdd5b9d609a1b8152600d0192915050565b61114d816114f6565b6000610ac982611206565b6000610ac98261122f565b6000610ac9826112b5565b6000610ac9826112dc565b6000610ac982611315565b6000610ac98261133f565b6000610ac982611367565b60208101610ac98284611153565b60208101610ac98284611144565b604081016114108285611153565b61141d6020830184611153565b9392505050565b604081016114328285611153565b61141d6020830184611390565b60208101610ac9828461115c565b60208101610ac98284611165565b6020808252810161141d818461116e565b60208082528101610ac9816111a6565b60208082528101610ac9816111d6565b60208082528101610ac981611258565b60208082528101610ac981611285565b60208101610ac98284611390565b604081016114328285611390565b5190565b90815260200190565b919050565b6000610ac9826114ea565b151590565b6001600160a01b031690565b90565b6000610ac9825b6000610ac9826114da565b60005b8381101561152657818101518382015260200161150e565b83811115610f935750506000910152565b601f01601f191690565b61154a816114da565b8114610d1057600080fd5b61154a816114f656fea365627a7a7231582001b75380955eb432962e393f9d6ae730156783c78dafcba0f4a19f1ced789e596c6578706572696d656e74616cf564736f6c63430005110040608060405234801561001057600080fd5b506040516106033803806106038339818101604052604081101561003357600080fd5b50805160209091015161004e826001600160e01b0361006716565b610060816001600160e01b0361014716565b50506102a1565b61009361007b6001600160e01b036101e316565b6001600160a01b031661021d60201b61029a1760201c565b1561009d57610144565b6100b9816001600160a01b031661022b60201b6102e21760201c565b61010a576040805162461bcd60e51b815260206004820152601b60248201527f53455454494e47535f4d5553545f42455f415f434f4e54524143540000000000604482015290519081900360640190fd5b604080517f426173655570677261646561626c652e73657474696e6773000000000000000081529051908190036018019020600019018190555b50565b6101586001600160e01b0361026716565b156101aa576040805162461bcd60e51b815260206004820152601660248201527f4c4f4749435f4e414d455f414c52454144595f53455400000000000000000000604482015290519081900360640190fd5b604080517f426173655570677261646561626c652e6c6f6769634e616d6500000000000000815290519081900360190190206000190155565b604080517f426173655570677261646561626c652e73657474696e6773000000000000000081529051908190036018019020600019015490565b6001600160a01b0316151590565b6000813f7fc5d2460186f7233c927e7db2dcc703c0e500b653ca82273b7bfad8045d85a47081811480159061025f57508115155b949350505050565b604080517f426173655570677261646561626c652e6c6f6769634e616d650000000000000081529051908190036019019020600019015490565b610353806102b06000396000f3fe6080604052600436106100295760003560e01c80635c60da1b14610033578063e06174e414610064575b610031610079565b005b34801561003f57600080fd5b50610048610093565b604080516001600160a01b039092168252519081900360200190f35b34801561007057600080fd5b506100486100a2565b6100816100ac565b61009161008c610153565b61023c565b565b600061009d610153565b905090565b600061009d610260565b3033148015906100d057506100d06100c2610260565b6001600160a01b031661029a565b1561014b576100dd610260565b6001600160a01b0316636a3a61cd336040518263ffffffff1660e01b815260040180826001600160a01b03166001600160a01b0316815260200191505060006040518083038186803b15801561013257600080fd5b505afa158015610146573d6000803e3d6000fd5b505050505b610091610091565b600061015d610260565b6001600160a01b031663ea23cb7c6040518163ffffffff1660e01b815260040160206040518083038186803b15801561019557600080fd5b505afa1580156101a9573d6000803e3d6000fd5b505050506040513d60208110156101bf57600080fd5b50516001600160a01b03166373f1fcf66101d76102a8565b6040518263ffffffff1660e01b81526004018082815260200191505060206040518083038186803b15801561020b57600080fd5b505afa15801561021f573d6000803e3d6000fd5b505050506040513d602081101561023557600080fd5b5051905090565b3660008037600080366000845af43d6000803e80801561025b573d6000f35b3d6000fd5b604080517f426173655570677261646561626c652e73657474696e6773000000000000000081529051908190036018019020600019015490565b6001600160a01b0316151590565b604080517f426173655570677261646561626c652e6c6f6769634e616d650000000000000081529051908190036019019020600019015490565b6000813f7fc5d2460186f7233c927e7db2dcc703c0e500b653ca82273b7bfad8045d85a47081811480159061031657508115155b94935050505056fea265627a7a72315820d121afa97bc25612bfac7db3650111d583dda49c2a7e1d9e886d2244d57aa7b264736f6c63430005110032a365627a7a723158205e10188cde17ff3e48131ce2db4b86988f0308ab62bff017df1a51adddf9e8d26c6578706572696d656e74616cf564736f6c63430005110040",
  "source": "pragma solidity 0.5.17;\npragma experimental ABIEncoderV2;\n\n// Libraries\nimport \"@openzeppelin/contracts-ethereum-package/contracts/utils/Address.sol\";\nimport \"../util/AddressLib.sol\";\nimport \"../util/PlatformSettingsLib.sol\";\nimport \"../util/AddressArrayLib.sol\";\nimport \"../util/CacheLib.sol\";\n\n// Contracts\nimport \"@openzeppelin/contracts-ethereum-package/contracts/lifecycle/Pausable.sol\";\nimport \"../util/SettingsConsts.sol\";\nimport \"./BaseUpgradeable.sol\";\nimport \"./TInitializable.sol\";\nimport \"./DynamicProxy.sol\";\nimport \"./AssetSettings.sol\";\n\n// Interfaces\nimport \"../interfaces/SettingsInterface.sol\";\nimport \"../interfaces/EscrowFactoryInterface.sol\";\nimport \"../interfaces/InterestValidatorInterface.sol\";\nimport \"../providers/chainlink/IChainlinkAggregator.sol\";\nimport \"../providers/compound/CErc20Interface.sol\";\nimport \"../settings/IATMSettings.sol\";\nimport \"../interfaces/AssetSettingsInterface.sol\";\n\n/*****************************************************************************************************/\n/**                                             WARNING                                             **/\n/**                                  THIS CONTRACT IS UPGRADEABLE!                                  **/\n/**  ---------------------------------------------------------------------------------------------  **/\n/**  Do NOT change the order of or PREPEND any storage variables to this or new versions of this    **/\n/**  contract as this will cause the the storage slots to be overwritten on the proxy contract!!    **/\n/**                                                                                                 **/\n/**  Visit https://docs.openzeppelin.com/upgrades/2.6/proxies#upgrading-via-the-proxy-pattern for   **/\n/**  more information.                                                                              **/\n/*****************************************************************************************************/\n/**\n    @notice This contract manages the configuration of the platform.\n    @dev The platform settings functions (create, update, and remove) don't include the whenNotPaused() modifier because we might need to use them in both cases (when the platform is paused and not paused).\n        Example:\n            - There is a potential issue and before analyzing it, we pause the platform to avoid funds losses. Finally, as result of the analysis, we decided to update a platform setting (or create a new one for the cloud nodes). In this scenario, if the modifier is present, we couldn't update the setting (because the platform is paused).\n\n    @author develop@teller.finance\n */\ncontract Settings is SettingsInterface, TInitializable, Pausable, BaseUpgradeable {\n  using AddressLib for address;\n  using Address for address;\n  using AddressArrayLib for address[];\n  using PlatformSettingsLib for PlatformSettingsLib.PlatformSetting;\n\n  /** Constants */\n\n  /**\n        @notice The contract that holds global constant variables.\n        @dev It is set by the initialize function.\n     */\n  SettingsConsts public consts;\n\n  /**\n        @notice The asset setting name for the maximum loan amount settings.\n     */\n  bytes32 public constant MAX_LOAN_AMOUNT_ASSET_SETTING = keccak256(\"MaxLoanAmount\");\n\n  /**\n        @notice The asset setting name for cToken address settings.\n     */\n  bytes32 public constant CTOKEN_ADDRESS_ASSET_SETTING = keccak256(\"CTokenAddress\");\n\n  /**\n        @notice The logic name for the Asset setttings contract instance\n     */\n  bytes32 public constant ASSET_SETTINGS_LOGIC_NAME = keccak256(\"AssetSettings\");\n\n  /**\n        @notice It defines the constant address to represent ETHER.\n     */\n  address public constant ETH_ADDRESS = 0xEeeeeEeeeEeEeeEeEeEeeEEEeeeeEeeeeeeeEEeE;\n\n  /**\n        @notice It defines the constant address to represent the canonical WETH token.\n        @dev It is set via the initialize function.\n     */\n  address public WETH_ADDRESS;\n\n  /**\n        @notice It defines Compound Ether token address on current network.\n        @dev It is set by the initialize function.\n     */\n  address public CETH_ADDRESS;\n\n  /* State Variables */\n\n  /**\n        @notice It represents a mapping to identify the lending pools paused and not paused.\n\n        i.e.: address(lending pool) => true or false.\n     */\n  mapping(address => bool) public lendingPoolPaused;\n\n  /**\n        @notice It represents a mapping to configure the asset settings.\n        @notice The key belongs to the asset address. Example: address(DAI) or address(USDC).\n        @notice The value has the asset settings.\n\n        Examples:\n\n        address(DAI) => {\n            cTokenAddress = 0x1234...890\n            maxLoanAmount = 1000 DAI (max)\n        }\n        address(USDC) => {\n            cTokenAddress = 0x2345...901\n            maxLoanAmount = 500 USDC (max)\n        }\n     */\n\n  /**\n        @notice It is the global instance of the AssetSettings contract.\n     */\n  AssetSettingsInterface public assetSettings;\n\n  /**\n        @notice This mapping represents the platform settings where:\n\n        - The key is the platform setting name.\n        - The value is the platform setting. It includes the value, minimum and maximum values.\n     */\n  mapping(bytes32 => PlatformSettingsLib.PlatformSetting) public platformSettings;\n\n  /**\n        @notice It is the global instance of the EscrowFactory contract.\n     */\n  EscrowFactoryInterface public escrowFactory;\n\n  /**\n        @notice It is the global instance of the logic versions registry contract.\n     */\n  LogicVersionsRegistryInterface public versionsRegistry;\n\n  /**\n        @notice It is the global instance of the ChainlinkAggregator contract.\n     */\n  IChainlinkAggregator public chainlinkAggregator;\n\n  /**\n        @notice The current interest validator.\n     */\n  InterestValidatorInterface public interestValidator;\n\n  /**\n        @notice The current ATM settings.\n     */\n  IATMSettings public atmSettings;\n\n  /**\n        @notice This mapping represents the list of wallet addresses that are allowed to interact with the protocol\n\n        - The key is belongs to the user's wallet address\n        - The value is a boolean flag indicating if the address has permissions\n     */\n  mapping(address => bool) public authorizedAddresses;\n\n  /**\n        @notice Flag restricting the use of the Protocol to authorizedAddress\n     */\n  bool platformRestricted;\n\n  /** Modifiers */\n\n  /* Constructor */\n\n  /** External Functions */\n\n  /**\n        @notice It creates a new platform setting given a setting name, value, min and max values.\n        @param settingName setting name to create.\n        @param value the initial value for the given setting name.\n        @param minValue the min value for the setting.\n        @param maxValue the max value for the setting.\n     */\n  function createPlatformSetting(\n    bytes32 settingName,\n    uint256 value,\n    uint256 minValue,\n    uint256 maxValue\n  ) external onlyPauser() isInitialized() {\n    require(settingName != \"\", \"SETTING_NAME_MUST_BE_PROVIDED\");\n    platformSettings[settingName].initialize(value, minValue, maxValue);\n\n    emit PlatformSettingCreated(settingName, msg.sender, value, minValue, maxValue);\n  }\n\n  /**\n        @notice It updates an existent platform setting given a setting name.\n        @notice It only allows to update the value (not the min or max values).\n        @notice In case you need to update the min or max values, you need to remove it, and create it again.\n        @param settingName setting name to update.\n        @param newValue the new value to set.\n     */\n  function updatePlatformSetting(bytes32 settingName, uint256 newValue)\n    external\n    onlyPauser()\n    isInitialized()\n  {\n    uint256 oldValue = platformSettings[settingName].update(newValue);\n\n    emit PlatformSettingUpdated(settingName, msg.sender, oldValue, newValue);\n  }\n\n  /**\n        @notice Removes a current platform setting given a setting name.\n        @param settingName to remove.\n     */\n  function removePlatformSetting(bytes32 settingName)\n    external\n    onlyPauser()\n    isInitialized()\n  {\n    uint256 oldValue = platformSettings[settingName].value;\n    platformSettings[settingName].remove();\n\n    emit PlatformSettingRemoved(settingName, oldValue, msg.sender);\n  }\n\n  /**\n        @notice It gets the current platform setting for a given setting name\n        @param settingName to get.\n        @return the current platform setting.\n     */\n  function getPlatformSetting(bytes32 settingName)\n    external\n    view\n    returns (PlatformSettingsLib.PlatformSetting memory)\n  {\n    return _getPlatformSetting(settingName);\n  }\n\n  /**\n        @notice It gets the current platform setting value for a given setting name\n        @param settingName to get.\n        @return the current platform setting value.\n     */\n  function getPlatformSettingValue(bytes32 settingName) external view returns (uint256) {\n    return _getPlatformSetting(settingName).value;\n  }\n\n  /**\n        @notice It tests whether a setting name is already configured.\n        @param settingName setting name to test.\n        @return true if the setting is already configured. Otherwise it returns false.\n     */\n  function hasPlatformSetting(bytes32 settingName) external view returns (bool) {\n    return _getPlatformSetting(settingName).exists;\n  }\n\n  /**\n        @notice It pauses a specific lending pool.\n        @param lendingPoolAddress lending pool address to pause.\n     */\n  function pauseLendingPool(address lendingPoolAddress)\n    external\n    onlyPauser()\n    whenNotPaused()\n    isInitialized()\n  {\n    lendingPoolAddress.requireNotEmpty(\"LENDING_POOL_IS_REQUIRED\");\n    require(!lendingPoolPaused[lendingPoolAddress], \"LENDING_POOL_ALREADY_PAUSED\");\n\n    lendingPoolPaused[lendingPoolAddress] = true;\n\n    emit LendingPoolPaused(msg.sender, lendingPoolAddress);\n  }\n\n  /**\n        @notice It unpauses a specific lending pool.\n        @param lendingPoolAddress lending pool address to unpause.\n     */\n  function unpauseLendingPool(address lendingPoolAddress)\n    external\n    onlyPauser()\n    whenNotPaused()\n    isInitialized()\n  {\n    lendingPoolAddress.requireNotEmpty(\"LENDING_POOL_IS_REQUIRED\");\n    require(lendingPoolPaused[lendingPoolAddress], \"LENDING_POOL_IS_NOT_PAUSED\");\n\n    lendingPoolPaused[lendingPoolAddress] = false;\n\n    emit LendingPoolUnpaused(msg.sender, lendingPoolAddress);\n  }\n\n  /**\n        @notice It gets whether the platform is paused or not.\n        @return true if platform is paused. Otherwise it returns false.\n     */\n  function isPaused() external view returns (bool) {\n    return paused();\n  }\n\n  /**\n        @notice Tests whether amount exceeds the current maximum loan amount for a specific asset settings.\n        @param assetAddress asset address to test the setting.\n        @param amount amount to test.\n        @return true if amount exceeds current max loan amout. Otherwise it returns false.\n     */\n  function exceedsMaxLoanAmount(address assetAddress, uint256 amount)\n    external\n    view\n    returns (bool)\n  {\n    return assetSettings.exceedsMaxLoanAmount(assetAddress, amount);\n  }\n\n  /**\n        @notice Gets the cToken address for a given asset address.\n        @param assetAddress token address.\n        @return the cToken address for a given asset address.\n     */\n  function getCTokenAddress(address assetAddress) external view returns (address) {\n    return assetSettings.getCTokenAddress(assetAddress);\n  }\n\n  /**\n        @notice Requires an account to have the pauser role.\n        @param account account to test.\n     */\n  function requirePauserRole(address account) public view {\n    require(isPauser(account) || account == address(this), \"NOT_PAUSER\");\n  }\n\n  /**\n        @notice Restricts the use of the Teller protocol to authorized wallet addresses only\n        @param restriction Bool turning the resitriction on or off\n     */\n  function restrictPlatform(bool restriction) external onlyPauser() isInitialized() {\n    platformRestricted = restriction;\n  }\n\n  /**\n        @notice Returns whether the platform is restricted or not\n        @return bool True if the platform is restricted, false if not\n     */\n  function isPlatformRestricted() external view returns (bool) {\n    return platformRestricted;\n  }\n\n  /**\n        @notice Adds a wallet address to the list of authorized wallets\n        @param addressToAdd The wallet address of the user being authorized\n     */\n  function addAuthorizedAddress(address addressToAdd)\n    external\n    onlyPauser()\n    isInitialized()\n  {\n    addressToAdd.requireNotEmpty(\"ADDRESS_ZERO\");\n    authorizedAddresses[addressToAdd] = true;\n  }\n\n  /**\n        @notice Removes a wallet address from the list of authorized wallets\n        @param addressToRemove The wallet address of the user being unauthorized\n     */\n  function removeAuthorizedAddress(address addressToRemove)\n    external\n    onlyPauser()\n    isInitialized()\n  {\n    addressToRemove.requireNotEmpty(\"ADDRESS_ZERO\");\n    authorizedAddresses[addressToRemove] = false;\n  }\n\n  /**\n        @notice Tests whether an account has authorization\n        @param account The account address to check for\n        @return True if account has authorization, false if it does not\n     */\n  function hasAuthorization(address account) public view returns (bool) {\n    return isPauser(account) || authorizedAddresses[account] || versionsRegistry.isProxyRegistered(account);\n\n  }\n\n  /**\n        @notice Requires an account to have platform authorization.\n        @dev Checks if an account address has authorization or proxy contract is registered.\n        @param account account to test.\n     */\n  function requireAuthorization(address account) public view {\n    require(!platformRestricted || hasAuthorization(account), \"NOT_AUTHORIZED\");\n  }\n\n  /**\n        @notice It initializes this settings contract instance.\n        @param escrowFactoryAddress the initial escrow factory address.\n        @param versionsRegistryAddress the initial versions registry address.\n        @param chainlinkAggregatorAddress the initial pair aggregator registry address.\n        @param interestValidatorAddress the initial interest validator address.\n        @param atmSettingsAddress the initial ATM settings address.\n        @param wethTokenAddress canonical WETH token address.\n        @param cethTokenAddress compound CETH token address.\n     */\n  function initialize(\n    address escrowFactoryAddress,\n    address versionsRegistryAddress,\n    address chainlinkAggregatorAddress,\n    address interestValidatorAddress,\n    address atmSettingsAddress,\n    address wethTokenAddress,\n    address cethTokenAddress\n  ) external isNotInitialized() {\n    require(escrowFactoryAddress.isContract(), \"ESCROW_FACTORY_MUST_BE_CONTRACT\");\n    require(versionsRegistryAddress.isContract(), \"VERS_REGISTRY_MUST_BE_CONTRACT\");\n    require(chainlinkAggregatorAddress.isContract(), \"AGGREGATOR_MUST_BE_CONTRACT\");\n    require(\n      interestValidatorAddress.isEmpty() || interestValidatorAddress.isContract(),\n      \"INTEREST_VAL_MUST_BE_CONTRACT\"\n    );\n    require(atmSettingsAddress.isContract(), \"ATM_SETTINGS_MUST_BE_CONTRACT\");\n    require(cethTokenAddress.isContract(), \"CETH_ADDRESS_MUST_BE_CONTRACT\");\n\n    Pausable.initialize(msg.sender);\n    TInitializable._initialize();\n\n    escrowFactory = EscrowFactoryInterface(escrowFactoryAddress);\n    versionsRegistry = LogicVersionsRegistryInterface(versionsRegistryAddress);\n    chainlinkAggregator = IChainlinkAggregator(chainlinkAggregatorAddress);\n    interestValidator = InterestValidatorInterface(interestValidatorAddress);\n    atmSettings = IATMSettings(atmSettingsAddress);\n    WETH_ADDRESS = wethTokenAddress;\n    CETH_ADDRESS = cethTokenAddress;\n\n    consts = new SettingsConsts();\n\n    _setSettings(address(this));\n\n    assetSettings = new AssetSettings();\n    versionsRegistry.createLogicVersion(\n      ASSET_SETTINGS_LOGIC_NAME,\n      address(assetSettings)\n    );\n    DynamicProxy assetSettingsProxy = new DynamicProxy(\n      address(this),\n      ASSET_SETTINGS_LOGIC_NAME\n    );\n\n    assetSettings = AssetSettingsInterface(address(assetSettingsProxy));\n  }\n\n  /** Internal functions */\n\n  /**\n        @notice It gets the platform setting for a given setting name.\n        @param settingName the setting name to look for.\n        @return the current platform setting for the given setting name.\n     */\n  function _getPlatformSetting(bytes32 settingName)\n    internal\n    view\n    returns (PlatformSettingsLib.PlatformSetting memory)\n  {\n    return platformSettings[settingName];\n  }\n}\n",
  "sourcePath": "/Users/sy/Documents/GitHub/teller-protocol-v1/contracts/base/Settings.sol",
  "compiler": {
    "name": "solc",
    "version": "0.5.17+commit.d19bba13.Emscripten.clang"
  },
  "schemaVersion": "3.2.3",
  "updatedAt": "2021-01-25T02:11:32.402Z",
  "networkType": "ethereum",
  "devdoc": {
    "author": "develop@teller.finance",
    "details": "The platform settings functions (create, update, and remove) don't include the whenNotPaused() modifier because we might need to use them in both cases (when the platform is paused and not paused). Example: - There is a potential issue and before analyzing it, we pause the platform to avoid funds losses. Finally, as result of the analysis, we decided to update a platform setting (or create a new one for the cloud nodes). In this scenario, if the modifier is present, we couldn't update the setting (because the platform is paused).",
    "methods": {
      "addAuthorizedAddress(address)": {
        "params": {
          "addressToAdd": "The wallet address of the user being authorized"
        }
      },
      "createPlatformSetting(bytes32,uint256,uint256,uint256)": {
        "params": {
          "maxValue": "the max value for the setting.",
          "minValue": "the min value for the setting.",
          "settingName": "setting name to create.",
          "value": "the initial value for the given setting name."
        }
      },
      "exceedsMaxLoanAmount(address,uint256)": {
        "params": {
          "amount": "amount to test.",
          "assetAddress": "asset address to test the setting."
        },
        "return": "true if amount exceeds current max loan amout. Otherwise it returns false."
      },
      "getCTokenAddress(address)": {
        "params": {
          "assetAddress": "token address."
        },
        "return": "the cToken address for a given asset address."
      },
      "getPlatformSetting(bytes32)": {
        "params": {
          "settingName": "to get."
        },
        "return": "the current platform setting."
      },
      "getPlatformSettingValue(bytes32)": {
        "params": {
          "settingName": "to get."
        },
        "return": "the current platform setting value."
      },
      "hasAuthorization(address)": {
        "params": {
          "account": "The account address to check for"
        },
        "return": "True if account has authorization, false if it does not"
      },
      "hasPlatformSetting(bytes32)": {
        "params": {
          "settingName": "setting name to test."
        },
        "return": "true if the setting is already configured. Otherwise it returns false."
      },
      "initialize(address)": {
        "details": "Initializes the contract in unpaused state. Assigns the Pauser role to the deployer."
      },
      "initialize(address,address,address,address,address,address,address)": {
        "params": {
          "atmSettingsAddress": "the initial ATM settings address.",
          "cethTokenAddress": "compound CETH token address.",
          "chainlinkAggregatorAddress": "the initial pair aggregator registry address.",
          "escrowFactoryAddress": "the initial escrow factory address.",
          "interestValidatorAddress": "the initial interest validator address.",
          "versionsRegistryAddress": "the initial versions registry address.",
          "wethTokenAddress": "canonical WETH token address."
        }
      },
      "initialized()": {
        "return": "true if contract is initialized. Otherwise it returns false."
      },
      "isPaused()": {
        "return": "true if platform is paused. Otherwise it returns false."
      },
      "isPlatformRestricted()": {
        "return": "bool True if the platform is restricted, false if not"
      },
      "pause()": {
        "details": "Called by a pauser to pause, triggers stopped state."
      },
      "pauseLendingPool(address)": {
        "params": {
          "lendingPoolAddress": "lending pool address to pause."
        }
      },
      "paused()": {
        "details": "Returns true if the contract is paused, and false otherwise."
      },
      "removeAuthorizedAddress(address)": {
        "params": {
          "addressToRemove": "The wallet address of the user being unauthorized"
        }
      },
      "removePlatformSetting(bytes32)": {
        "params": {
          "settingName": "to remove."
        }
      },
      "requireAuthorization(address)": {
        "details": "Checks if an account address has authorization or proxy contract is registered.",
        "params": {
          "account": "account to test."
        }
      },
      "requirePauserRole(address)": {
        "params": {
          "account": "account to test."
        }
      },
      "restrictPlatform(bool)": {
        "params": {
          "restriction": "Bool turning the resitriction on or off"
        }
      },
      "settings()": {
        "details": "This address should NOT change over the time. See details in the _setSettings(...) function."
      },
      "unpause()": {
        "details": "Called by a pauser to unpause, returns to normal state."
      },
      "unpauseLendingPool(address)": {
        "params": {
          "lendingPoolAddress": "lending pool address to unpause."
        }
      },
      "updatePlatformSetting(bytes32,uint256)": {
        "params": {
          "newValue": "the new value to set.",
          "settingName": "setting name to update."
        }
      }
    }
  },
  "userdoc": {
    "methods": {
      "addAuthorizedAddress(address)": {
        "notice": "Adds a wallet address to the list of authorized wallets"
      },
      "createPlatformSetting(bytes32,uint256,uint256,uint256)": {
        "notice": "It creates a new platform setting given a setting name, value, min and max values."
      },
      "exceedsMaxLoanAmount(address,uint256)": {
        "notice": "Tests whether amount exceeds the current maximum loan amount for a specific asset settings."
      },
      "getCTokenAddress(address)": {
        "notice": "Gets the cToken address for a given asset address."
      },
      "getPlatformSetting(bytes32)": {
        "notice": "It gets the current platform setting for a given setting name"
      },
      "getPlatformSettingValue(bytes32)": {
        "notice": "It gets the current platform setting value for a given setting name"
      },
      "hasAuthorization(address)": {
        "notice": "Tests whether an account has authorization"
      },
      "hasPlatformSetting(bytes32)": {
        "notice": "It tests whether a setting name is already configured."
      },
      "initialize(address,address,address,address,address,address,address)": {
        "notice": "It initializes this settings contract instance."
      },
      "initialized()": {
        "notice": "Gets if the contract is initialized."
      },
      "isPaused()": {
        "notice": "It gets whether the platform is paused or not."
      },
      "isPlatformRestricted()": {
        "notice": "Returns whether the platform is restricted or not"
      },
      "pauseLendingPool(address)": {
        "notice": "It pauses a specific lending pool."
      },
      "removeAuthorizedAddress(address)": {
        "notice": "Removes a wallet address from the list of authorized wallets"
      },
      "removePlatformSetting(bytes32)": {
        "notice": "Removes a current platform setting given a setting name."
      },
      "requireAuthorization(address)": {
        "notice": "Requires an account to have platform authorization."
      },
      "requirePauserRole(address)": {
        "notice": "Requires an account to have the pauser role."
      },
      "restrictPlatform(bool)": {
        "notice": "Restricts the use of the Teller protocol to authorized wallet addresses only"
      },
      "settings()": {
        "notice": "The gets the settings contract address from the SETTINGS_SLOT."
      },
      "unpauseLendingPool(address)": {
        "notice": "It unpauses a specific lending pool."
      },
      "updatePlatformSetting(bytes32,uint256)": {
        "notice": "It updates an existent platform setting given a setting name.It only allows to update the value (not the min or max values).In case you need to update the min or max values, you need to remove it, and create it again."
      }
    },
    "notice": "This contract manages the configuration of the platform."
  }
}