{
  "_format": "hh-sol-artifact-1",
  "contractName": "TToken",
  "sourceName": "contracts/base/TToken.sol",
  "abi": [
    {
      "anonymous": false,
      "inputs": [
        {
          "indexed": true,
          "internalType": "address",
          "name": "owner",
          "type": "address"
        },
        {
          "indexed": true,
          "internalType": "address",
          "name": "spender",
          "type": "address"
        },
        {
          "indexed": false,
          "internalType": "uint256",
          "name": "value",
          "type": "uint256"
        }
      ],
      "name": "Approval",
      "type": "event"
    },
    {
      "anonymous": false,
      "inputs": [
        {
          "indexed": true,
          "internalType": "address",
          "name": "account",
          "type": "address"
        }
      ],
      "name": "MinterAdded",
      "type": "event"
    },
    {
      "anonymous": false,
      "inputs": [
        {
          "indexed": true,
          "internalType": "address",
          "name": "account",
          "type": "address"
        }
      ],
      "name": "MinterRemoved",
      "type": "event"
    },
    {
      "anonymous": false,
      "inputs": [
        {
          "indexed": true,
          "internalType": "address",
          "name": "from",
          "type": "address"
        },
        {
          "indexed": true,
          "internalType": "address",
          "name": "to",
          "type": "address"
        },
        {
          "indexed": false,
          "internalType": "uint256",
          "name": "value",
          "type": "uint256"
        }
      ],
      "name": "Transfer",
      "type": "event"
    },
    {
      "constant": false,
      "inputs": [],
      "name": "_updateImplementationStored",
      "outputs": [],
      "payable": false,
      "stateMutability": "nonpayable",
      "type": "function"
    },
    {
      "constant": false,
      "inputs": [
        {
          "internalType": "address",
          "name": "account",
          "type": "address"
        }
      ],
      "name": "addMinter",
      "outputs": [],
      "payable": false,
      "stateMutability": "nonpayable",
      "type": "function"
    },
    {
      "constant": true,
      "inputs": [
        {
          "internalType": "address",
          "name": "owner",
          "type": "address"
        },
        {
          "internalType": "address",
          "name": "spender",
          "type": "address"
        }
      ],
      "name": "allowance",
      "outputs": [
        {
          "internalType": "uint256",
          "name": "",
          "type": "uint256"
        }
      ],
      "payable": false,
      "stateMutability": "view",
      "type": "function"
    },
    {
      "constant": false,
      "inputs": [
        {
          "internalType": "address",
          "name": "spender",
          "type": "address"
        },
        {
          "internalType": "uint256",
          "name": "amount",
          "type": "uint256"
        }
      ],
      "name": "approve",
      "outputs": [
        {
          "internalType": "bool",
          "name": "",
          "type": "bool"
        }
      ],
      "payable": false,
      "stateMutability": "nonpayable",
      "type": "function"
    },
    {
      "constant": true,
      "inputs": [
        {
          "internalType": "address",
          "name": "account",
          "type": "address"
        }
      ],
      "name": "balanceOf",
      "outputs": [
        {
          "internalType": "uint256",
          "name": "",
          "type": "uint256"
        }
      ],
      "payable": false,
      "stateMutability": "view",
      "type": "function"
    },
    {
      "constant": false,
      "inputs": [
        {
          "internalType": "address",
          "name": "account",
          "type": "address"
        },
        {
          "internalType": "uint256",
          "name": "amount",
          "type": "uint256"
        }
      ],
      "name": "burn",
      "outputs": [
        {
          "internalType": "bool",
          "name": "",
          "type": "bool"
        }
      ],
      "payable": false,
      "stateMutability": "nonpayable",
      "type": "function"
    },
    {
      "constant": true,
      "inputs": [],
      "name": "decimals",
      "outputs": [
        {
          "internalType": "uint8",
          "name": "",
          "type": "uint8"
        }
      ],
      "payable": false,
      "stateMutability": "view",
      "type": "function"
    },
    {
      "constant": false,
      "inputs": [
        {
          "internalType": "address",
          "name": "spender",
          "type": "address"
        },
        {
          "internalType": "uint256",
          "name": "subtractedValue",
          "type": "uint256"
        }
      ],
      "name": "decreaseAllowance",
      "outputs": [
        {
          "internalType": "bool",
          "name": "",
          "type": "bool"
        }
      ],
      "payable": false,
      "stateMutability": "nonpayable",
      "type": "function"
    },
    {
      "constant": true,
      "inputs": [],
      "name": "implementationStored",
      "outputs": [
        {
          "internalType": "address",
          "name": "",
          "type": "address"
        }
      ],
      "payable": false,
      "stateMutability": "view",
      "type": "function"
    },
    {
      "constant": false,
      "inputs": [
        {
          "internalType": "address",
          "name": "spender",
          "type": "address"
        },
        {
          "internalType": "uint256",
          "name": "addedValue",
          "type": "uint256"
        }
      ],
      "name": "increaseAllowance",
      "outputs": [
        {
          "internalType": "bool",
          "name": "",
          "type": "bool"
        }
      ],
      "payable": false,
      "stateMutability": "nonpayable",
      "type": "function"
    },
    {
      "constant": false,
      "inputs": [
        {
          "internalType": "string",
          "name": "name",
          "type": "string"
        },
        {
          "internalType": "string",
          "name": "symbol",
          "type": "string"
        },
        {
          "internalType": "uint8",
          "name": "decimals",
          "type": "uint8"
        }
      ],
      "name": "initialize",
      "outputs": [],
      "payable": false,
      "stateMutability": "nonpayable",
      "type": "function"
    },
    {
      "constant": false,
      "inputs": [
        {
          "internalType": "address",
          "name": "lendingPoolAddress",
          "type": "address"
        }
      ],
      "name": "initialize",
      "outputs": [],
      "payable": false,
      "stateMutability": "nonpayable",
      "type": "function"
    },
    {
      "constant": true,
      "inputs": [
        {
          "internalType": "address",
          "name": "account",
          "type": "address"
        }
      ],
      "name": "isMinter",
      "outputs": [
        {
          "internalType": "bool",
          "name": "",
          "type": "bool"
        }
      ],
      "payable": false,
      "stateMutability": "view",
      "type": "function"
    },
    {
      "constant": true,
      "inputs": [],
      "name": "lendingPool",
      "outputs": [
        {
          "internalType": "contract LendingPoolInterface",
          "name": "",
          "type": "address"
        }
      ],
      "payable": false,
      "stateMutability": "view",
      "type": "function"
    },
    {
      "constant": true,
      "inputs": [],
      "name": "logicName",
      "outputs": [
        {
          "internalType": "bytes32",
          "name": "",
          "type": "bytes32"
        }
      ],
      "payable": false,
      "stateMutability": "view",
      "type": "function"
    },
    {
      "constant": true,
      "inputs": [],
      "name": "logicRegistry",
      "outputs": [
        {
          "internalType": "contract LogicVersionsRegistryInterface",
          "name": "",
          "type": "address"
        }
      ],
      "payable": false,
      "stateMutability": "view",
      "type": "function"
    },
    {
      "constant": false,
      "inputs": [
        {
          "internalType": "address",
          "name": "account",
          "type": "address"
        },
        {
          "internalType": "uint256",
          "name": "amount",
          "type": "uint256"
        }
      ],
      "name": "mint",
      "outputs": [
        {
          "internalType": "bool",
          "name": "",
          "type": "bool"
        }
      ],
      "payable": false,
      "stateMutability": "nonpayable",
      "type": "function"
    },
    {
      "constant": true,
      "inputs": [],
      "name": "name",
      "outputs": [
        {
          "internalType": "string",
          "name": "",
          "type": "string"
        }
      ],
      "payable": false,
      "stateMutability": "view",
      "type": "function"
    },
    {
      "constant": false,
      "inputs": [],
      "name": "renounceMinter",
      "outputs": [],
      "payable": false,
      "stateMutability": "nonpayable",
      "type": "function"
    },
    {
      "constant": true,
      "inputs": [],
      "name": "strictDynamic",
      "outputs": [
        {
          "internalType": "bool",
          "name": "",
          "type": "bool"
        }
      ],
      "payable": false,
      "stateMutability": "view",
      "type": "function"
    },
    {
      "constant": true,
      "inputs": [],
      "name": "symbol",
      "outputs": [
        {
          "internalType": "string",
          "name": "",
          "type": "string"
        }
      ],
      "payable": false,
      "stateMutability": "view",
      "type": "function"
    },
    {
      "constant": true,
      "inputs": [],
      "name": "totalSupply",
      "outputs": [
        {
          "internalType": "uint256",
          "name": "",
          "type": "uint256"
        }
      ],
      "payable": false,
      "stateMutability": "view",
      "type": "function"
    },
    {
      "constant": false,
      "inputs": [
        {
          "internalType": "address",
          "name": "recipient",
          "type": "address"
        },
        {
          "internalType": "uint256",
          "name": "amount",
          "type": "uint256"
        }
      ],
      "name": "transfer",
      "outputs": [
        {
          "internalType": "bool",
          "name": "",
          "type": "bool"
        }
      ],
      "payable": false,
      "stateMutability": "nonpayable",
      "type": "function"
    },
    {
      "constant": false,
      "inputs": [
        {
          "internalType": "address",
          "name": "sender",
          "type": "address"
        },
        {
          "internalType": "address",
          "name": "recipient",
          "type": "address"
        },
        {
          "internalType": "uint256",
          "name": "amount",
          "type": "uint256"
        }
      ],
      "name": "transferFrom",
      "outputs": [
        {
          "internalType": "bool",
          "name": "",
          "type": "bool"
        }
      ],
      "payable": false,
      "stateMutability": "nonpayable",
      "type": "function"
    },
    {
      "constant": true,
      "inputs": [],
      "name": "underlying",
      "outputs": [
        {
          "internalType": "address",
          "name": "",
          "type": "address"
        }
      ],
      "payable": false,
      "stateMutability": "view",
      "type": "function"
    },
    {
      "constant": false,
      "inputs": [
        {
          "internalType": "address",
          "name": "newImplementation",
          "type": "address"
        }
      ],
      "name": "upgradeProxyTo",
      "outputs": [],
      "payable": false,
      "stateMutability": "nonpayable",
      "type": "function"
    }
  ],
  "bytecode": "0x6080604052611d27806100136000396000f3fe608060405234801561001057600080fd5b506004361061018e5760003560e01c80636f307dc3116100de578063a457c2d711610097578063aa271e1a11610071578063aa271e1a14610598578063c4d66de8146105be578063dd62ed3e146105e4578063e154e9a4146106125761018e565b8063a457c2d714610538578063a59a997314610564578063a9059cbb1461056c5761018e565b80636f307dc3146104a857806370a08231146104b057806395d89b41146104d6578063983b2d56146104de57806398650275146105045780639dc29fac1461050c5761018e565b80632c26486d1161014b5780633950935111610125578063395093511461042257806340c10f191461044e5780634f8654bc1461047a57806355dbd8eb146104825761018e565b80632c26486d146103d8578063313ce567146103e057806337c3eedc146103fe5761018e565b806306fdde0314610193578063095ea7b3146102105780631624f6c61461025057806318160ddd146103805780631eb83d541461039a57806323b872dd146103a2575b600080fd5b61019b61061a565b6040805160208082528351818301528351919283929083019185019080838360005b838110156101d55781810151838201526020016101bd565b50505050905090810190601f1680156102025780820380516001836020036101000a031916815260200191505b509250505060405180910390f35b61023c6004803603604081101561022657600080fd5b506001600160a01b0381351690602001356106b1565b604080519115158252519081900360200190f35b61037e6004803603606081101561026657600080fd5b810190602081018135600160201b81111561028057600080fd5b82018360208201111561029257600080fd5b803590602001918460018302840111600160201b831117156102b357600080fd5b91908080601f0160208091040260200160405190810160405280939291908181526020018383808284376000920191909152509295949360208101935035915050600160201b81111561030557600080fd5b82018360208201111561031757600080fd5b803590602001918460018302840111600160201b8311171561033857600080fd5b91908080601f0160208091040260200160405190810160405280939291908181526020018383808284376000920191909152509295505050903560ff1691506106ce9050565b005b6103886107aa565b60408051918252519081900360200190f35b61037e6107b0565b61023c600480360360608110156103b857600080fd5b506001600160a01b03813581169160208101359091169060400135610878565b610388610905565b6103e861090c565b6040805160ff9092168252519081900360200190f35b610406610915565b604080516001600160a01b039092168252519081900360200190f35b61023c6004803603604081101561043857600080fd5b506001600160a01b038135169060200135610925565b61023c6004803603604081101561046457600080fd5b506001600160a01b038135169060200135610979565b6104066109d0565b61037e6004803603602081101561049857600080fd5b50356001600160a01b03166109e5565b610406610a6c565b610388600480360360208110156104c657600080fd5b50356001600160a01b0316610ae3565b61019b610afe565b61037e600480360360208110156104f457600080fd5b50356001600160a01b0316610b5f565b61037e610bb1565b61023c6004803603604081101561052257600080fd5b506001600160a01b038135169060200135610bc3565b61023c6004803603604081101561054e57600080fd5b506001600160a01b038135169060200135610c15565b610406610c83565b61023c6004803603604081101561058257600080fd5b506001600160a01b038135169060200135610c93565b61023c600480360360208110156105ae57600080fd5b50356001600160a01b0316610ca7565b61037e600480360360208110156105d457600080fd5b50356001600160a01b0316610cc0565b610388600480360360408110156105fa57600080fd5b506001600160a01b038135811691602001351661115b565b61023c611186565b60338054604080516020601f60026000196101006001881615020190951694909404938401819004810282018101909252828152606093909290918301828280156106a65780601f1061067b576101008083540402835291602001916106a6565b820191906000526020600020905b81548152906001019060200180831161068957829003601f168201915b505050505090505b90565b60006106c56106be611190565b8484611194565b50600192915050565b600054610100900460ff16806106e757506106e7611280565b806106f5575060005460ff16155b6107305760405162461bcd60e51b815260040180806020018281038252602e815260200180611c36602e913960400191505060405180910390fd5b600054610100900460ff1615801561075b576000805460ff1961ff0019909116610100171660011790555b835161076e906033906020870190611a75565b508251610782906034906020860190611a75565b506035805460ff191660ff841617905580156107a4576000805461ff00191690555b50505050565b606a5490565b610102546101035460408051638b51f58b60e01b81526004810192909252516000926001600160a01b031691638b51f58b916024808301926060929190829003018186803b15801561080157600080fd5b505afa158015610815573d6000803e3d6000fd5b505050506040513d606081101561082b57600080fd5b5060400151610104549091506001600160a01b038083166101009092041614610870576101048054610100600160a81b0319166101006001600160a01b038416021790555b504361010555565b6000610885848484611286565b6108fb84610891611190565b6108f685604051806060016040528060288152602001611bec602891396001600160a01b038a166000908152606960205260408120906108cf611190565b6001600160a01b03168152602081019190915260400160002054919063ffffffff6113e416565b611194565b5060019392505050565b6101035481565b60355460ff1690565b610102546001600160a01b031681565b60006106c5610932611190565b846108f68560696000610943611190565b6001600160a01b03908116825260208083019390935260409182016000908120918c16815292529020549063ffffffff61147b16565b600061098b610986611190565b610ca7565b6109c65760405162461bcd60e51b8152600401808060200182810382526030815260200180611b9b6030913960400191505060405180910390fd5b6106c583836114dc565b6101045461010090046001600160a01b031681565b610102546001600160a01b03163314610a3e576040805162461bcd60e51b81526020600482015260166024820152754d5553545f42455f4c4f4749435f524547495354525960501b604482015290519081900360640190fd5b61010480546001600160a01b0390921661010002610100600160a81b03199092169190911790554361010555565b610106546040805163155594ab60e31b815290516000926001600160a01b03169163aaaca558916004808301926020929190829003018186803b158015610ab257600080fd5b505afa158015610ac6573d6000803e3d6000fd5b505050506040513d6020811015610adc57600080fd5b5051905090565b6001600160a01b031660009081526068602052604090205490565b60348054604080516020601f60026000196101006001881615020190951694909404938401819004810282018101909252828152606093909290918301828280156106a65780601f1061067b576101008083540402835291602001916106a6565b610b6a610986611190565b610ba55760405162461bcd60e51b8152600401808060200182810382526030815260200180611b9b6030913960400191505060405180910390fd5b610bae816115ce565b50565b610bc1610bbc611190565b611616565b565b6000610bd0610986611190565b610c0b5760405162461bcd60e51b8152600401808060200182810382526030815260200180611b9b6030913960400191505060405180910390fd5b6106c5838361165e565b60006106c5610c22611190565b846108f685604051806060016040528060258152602001611cce6025913960696000610c4c611190565b6001600160a01b03908116825260208083019390935260409182016000908120918d1681529252902054919063ffffffff6113e416565b610106546001600160a01b031681565b60006106c5610ca0611190565b8484611286565b6000610cba609d8363ffffffff61175a16565b92915050565b610cd2816001600160a01b03166117c1565b610d19576040805162461bcd60e51b8152602060048201526013602482015272131417d35554d517d09157d0d3d395149050d5606a1b604482015290519081900360640190fd5b61010680546001600160a01b0319166001600160a01b0383811691909117918290556040805163155594ab60e31b815290516000939092169163aaaca55891600480820192602092909190829003018186803b158015610d7857600080fd5b505afa158015610d8c573d6000803e3d6000fd5b505050506040513d6020811015610da257600080fd5b5051604080516306fdde0360e01b8152905191925061114e916001600160a01b038416916306fdde03916004808301926000929190829003018186803b158015610deb57600080fd5b505afa158015610dff573d6000803e3d6000fd5b505050506040513d6000823e601f3d908101601f191682016040526020811015610e2857600080fd5b8101908080516040519392919084600160201b821115610e4757600080fd5b908301906020820185811115610e5c57600080fd5b8251600160201b811182820188101715610e7557600080fd5b82525081516020918201929091019080838360005b83811015610ea2578181015183820152602001610e8a565b50505050905090810190601f168015610ecf5780820380516001836020036101000a031916815260200191505b5060405250505060405160200180806602a32b63632b9160cd1b81525060070182805190602001908083835b60208310610f1a5780518252601f199092019160209182019101610efb565b6001836020036101000a038019825116818451168082178552505050505050905001915050604051602081830303815290604052826001600160a01b03166395d89b416040518163ffffffff1660e01b815260040160006040518083038186803b158015610f8757600080fd5b505afa158015610f9b573d6000803e3d6000fd5b505050506040513d6000823e601f3d908101601f191682016040526020811015610fc457600080fd5b8101908080516040519392919084600160201b821115610fe357600080fd5b908301906020820185811115610ff857600080fd5b8251600160201b81118282018810171561101157600080fd5b82525081516020918201929091019080838360005b8381101561103e578181015183820152602001611026565b50505050905090810190601f16801561106b5780820380516001836020036101000a031916815260200191505b506040525050506040516020018080601d60fa1b81525060010182805190602001908083835b602083106110b05780518252601f199092019160209182019101611091565b6001836020036101000a038019825116818451168082178552505050505050905001915050604051602081830303815290604052836001600160a01b031663313ce5676040518163ffffffff1660e01b815260040160206040518083038186803b15801561111d57600080fd5b505afa158015611131573d6000803e3d6000fd5b505050506040513d602081101561114757600080fd5b50516106ce565b611157826117fd565b5050565b6001600160a01b03918216600090815260696020908152604080832093909416825291909152205490565b6101045460ff1681565b3390565b6001600160a01b0383166111d95760405162461bcd60e51b8152600401808060200182810382526024815260200180611caa6024913960400191505060405180910390fd5b6001600160a01b03821661121e5760405162461bcd60e51b8152600401808060200182810382526022815260200180611b536022913960400191505060405180910390fd5b6001600160a01b03808416600081815260696020908152604080832094871680845294825291829020859055815185815291517f8c5be1e5ebec7d5bd14f71427d1e84f3dd0314c0f7b2291e5b200ac8c7c3b9259281900390910190a3505050565b303b1590565b6001600160a01b0383166112cb5760405162461bcd60e51b8152600401808060200182810382526025815260200180611c856025913960400191505060405180910390fd5b6001600160a01b0382166113105760405162461bcd60e51b8152600401808060200182810382526023815260200180611b0e6023913960400191505060405180910390fd5b61135381604051806060016040528060268152602001611b75602691396001600160a01b038616600090815260686020526040902054919063ffffffff6113e416565b6001600160a01b038085166000908152606860205260408082209390935590841681522054611388908263ffffffff61147b16565b6001600160a01b0380841660008181526068602090815260409182902094909455805185815290519193928716927fddf252ad1be2c89b69c2b068fc378daa952ba7f163c4a11628f55a4df523b3ef92918290030190a3505050565b600081848411156114735760405162461bcd60e51b81526004018080602001828103825283818151815260200191508051906020019080838360005b83811015611438578181015183820152602001611420565b50505050905090810190601f1680156114655780820380516001836020036101000a031916815260200191505b509250505060405180910390fd5b505050900390565b6000828201838110156114d5576040805162461bcd60e51b815260206004820152601b60248201527f536166654d6174683a206164646974696f6e206f766572666c6f770000000000604482015290519081900360640190fd5b9392505050565b6001600160a01b038216611537576040805162461bcd60e51b815260206004820152601f60248201527f45524332303a206d696e7420746f20746865207a65726f206164647265737300604482015290519081900360640190fd5b606a5461154a908263ffffffff61147b16565b606a556001600160a01b038216600090815260686020526040902054611576908263ffffffff61147b16565b6001600160a01b03831660008181526068602090815260408083209490945583518581529351929391927fddf252ad1be2c89b69c2b068fc378daa952ba7f163c4a11628f55a4df523b3ef9281900390910190a35050565b6115df609d8263ffffffff6118a816565b6040516001600160a01b038216907f6ae172837ea30b801fbfcdd4108aa1d5bf8ff775444fd70256b44e6bf3dfc3f690600090a250565b611627609d8263ffffffff61192916565b6040516001600160a01b038216907fe94479a9f7e1952cc78f2d6baab678adc1b772d936c6583def489e524cb6669290600090a250565b6001600160a01b0382166116a35760405162461bcd60e51b8152600401808060200182810382526021815260200180611c646021913960400191505060405180910390fd5b6116e681604051806060016040528060228152602001611b31602291396001600160a01b038516600090815260686020526040902054919063ffffffff6113e416565b6001600160a01b038316600090815260686020526040902055606a54611712908263ffffffff61199016565b606a556040805182815290516000916001600160a01b038516917fddf252ad1be2c89b69c2b068fc378daa952ba7f163c4a11628f55a4df523b3ef9181900360200190a35050565b60006001600160a01b0382166117a15760405162461bcd60e51b8152600401808060200182810382526022815260200180611c146022913960400191505060405180910390fd5b506001600160a01b03166000908152602091909152604090205460ff1690565b6000813f7fc5d2460186f7233c927e7db2dcc703c0e500b653ca82273b7bfad8045d85a4708181148015906117f557508115155b949350505050565b600054610100900460ff16806118165750611816611280565b80611824575060005460ff16155b61185f5760405162461bcd60e51b815260040180806020018281038252602e815260200180611c36602e913960400191505060405180910390fd5b600054610100900460ff1615801561188a576000805460ff1961ff0019909116610100171660011790555b611893826119d2565b8015611157576000805461ff00191690555050565b6118b2828261175a565b15611904576040805162461bcd60e51b815260206004820152601f60248201527f526f6c65733a206163636f756e7420616c72656164792068617320726f6c6500604482015290519081900360640190fd5b6001600160a01b0316600090815260209190915260409020805460ff19166001179055565b611933828261175a565b61196e5760405162461bcd60e51b8152600401808060200182810382526021815260200180611bcb6021913960400191505060405180910390fd5b6001600160a01b0316600090815260209190915260409020805460ff19169055565b60006114d583836040518060400160405280601e81526020017f536166654d6174683a207375627472616374696f6e206f766572666c6f7700008152506113e4565b600054610100900460ff16806119eb57506119eb611280565b806119f9575060005460ff16155b611a345760405162461bcd60e51b815260040180806020018281038252602e815260200180611c36602e913960400191505060405180910390fd5b600054610100900460ff16158015611a5f576000805460ff1961ff0019909116610100171660011790555b611a6882610ca7565b61189357611893826115ce565b828054600181600116156101000203166002900490600052602060002090601f016020900481019282601f10611ab657805160ff1916838001178555611ae3565b82800160010185558215611ae3579182015b82811115611ae3578251825591602001919060010190611ac8565b50611aef929150611af3565b5090565b6106ae91905b80821115611aef5760008155600101611af956fe45524332303a207472616e7366657220746f20746865207a65726f206164647265737345524332303a206275726e20616d6f756e7420657863656564732062616c616e636545524332303a20617070726f766520746f20746865207a65726f206164647265737345524332303a207472616e7366657220616d6f756e7420657863656564732062616c616e63654d696e746572526f6c653a2063616c6c657220646f6573206e6f74206861766520746865204d696e74657220726f6c65526f6c65733a206163636f756e7420646f6573206e6f74206861766520726f6c6545524332303a207472616e7366657220616d6f756e74206578636565647320616c6c6f77616e6365526f6c65733a206163636f756e7420697320746865207a65726f2061646472657373436f6e747261637420696e7374616e63652068617320616c7265616479206265656e20696e697469616c697a656445524332303a206275726e2066726f6d20746865207a65726f206164647265737345524332303a207472616e736665722066726f6d20746865207a65726f206164647265737345524332303a20617070726f76652066726f6d20746865207a65726f206164647265737345524332303a2064656372656173656420616c6c6f77616e63652062656c6f77207a65726fa265627a7a72315820523f8428b50d6e00c55b37b463760d4028080d0492e1b2c072d456f4e6aa9d7264736f6c63430005110032",
  "linkReferences": {},
  "deployedLinkReferences": {}
}