{
  "contractName": "TToken",
  "abi": [
    {
      "anonymous": false,
      "inputs": [
        {
          "indexed": true,
          "internalType": "address",
          "name": "owner",
          "type": "address"
        },
        {
          "indexed": true,
          "internalType": "address",
          "name": "spender",
          "type": "address"
        },
        {
          "indexed": false,
          "internalType": "uint256",
          "name": "value",
          "type": "uint256"
        }
      ],
      "name": "Approval",
      "type": "event"
    },
    {
      "anonymous": false,
      "inputs": [
        {
          "indexed": true,
          "internalType": "address",
          "name": "account",
          "type": "address"
        }
      ],
      "name": "MinterAdded",
      "type": "event"
    },
    {
      "anonymous": false,
      "inputs": [
        {
          "indexed": true,
          "internalType": "address",
          "name": "account",
          "type": "address"
        }
      ],
      "name": "MinterRemoved",
      "type": "event"
    },
    {
      "anonymous": false,
      "inputs": [
        {
          "indexed": true,
          "internalType": "address",
          "name": "from",
          "type": "address"
        },
        {
          "indexed": true,
          "internalType": "address",
          "name": "to",
          "type": "address"
        },
        {
          "indexed": false,
          "internalType": "uint256",
          "name": "value",
          "type": "uint256"
        }
      ],
      "name": "Transfer",
      "type": "event"
    },
    {
      "constant": false,
      "inputs": [
        {
          "internalType": "address",
          "name": "account",
          "type": "address"
        }
      ],
      "name": "addMinter",
      "outputs": [],
      "payable": false,
      "stateMutability": "nonpayable",
      "type": "function"
    },
    {
      "constant": true,
      "inputs": [
        {
          "internalType": "address",
          "name": "owner",
          "type": "address"
        },
        {
          "internalType": "address",
          "name": "spender",
          "type": "address"
        }
      ],
      "name": "allowance",
      "outputs": [
        {
          "internalType": "uint256",
          "name": "",
          "type": "uint256"
        }
      ],
      "payable": false,
      "stateMutability": "view",
      "type": "function"
    },
    {
      "constant": false,
      "inputs": [
        {
          "internalType": "address",
          "name": "spender",
          "type": "address"
        },
        {
          "internalType": "uint256",
          "name": "amount",
          "type": "uint256"
        }
      ],
      "name": "approve",
      "outputs": [
        {
          "internalType": "bool",
          "name": "",
          "type": "bool"
        }
      ],
      "payable": false,
      "stateMutability": "nonpayable",
      "type": "function"
    },
    {
      "constant": true,
      "inputs": [
        {
          "internalType": "address",
          "name": "account",
          "type": "address"
        }
      ],
      "name": "balanceOf",
      "outputs": [
        {
          "internalType": "uint256",
          "name": "",
          "type": "uint256"
        }
      ],
      "payable": false,
      "stateMutability": "view",
      "type": "function"
    },
    {
      "constant": true,
      "inputs": [],
      "name": "decimals",
      "outputs": [
        {
          "internalType": "uint8",
          "name": "",
          "type": "uint8"
        }
      ],
      "payable": false,
      "stateMutability": "view",
      "type": "function"
    },
    {
      "constant": false,
      "inputs": [
        {
          "internalType": "address",
          "name": "spender",
          "type": "address"
        },
        {
          "internalType": "uint256",
          "name": "subtractedValue",
          "type": "uint256"
        }
      ],
      "name": "decreaseAllowance",
      "outputs": [
        {
          "internalType": "bool",
          "name": "",
          "type": "bool"
        }
      ],
      "payable": false,
      "stateMutability": "nonpayable",
      "type": "function"
    },
    {
      "constant": false,
      "inputs": [
        {
          "internalType": "address",
          "name": "spender",
          "type": "address"
        },
        {
          "internalType": "uint256",
          "name": "addedValue",
          "type": "uint256"
        }
      ],
      "name": "increaseAllowance",
      "outputs": [
        {
          "internalType": "bool",
          "name": "",
          "type": "bool"
        }
      ],
      "payable": false,
      "stateMutability": "nonpayable",
      "type": "function"
    },
    {
      "constant": true,
      "inputs": [
        {
          "internalType": "address",
          "name": "account",
          "type": "address"
        }
      ],
      "name": "isMinter",
      "outputs": [
        {
          "internalType": "bool",
          "name": "",
          "type": "bool"
        }
      ],
      "payable": false,
      "stateMutability": "view",
      "type": "function"
    },
    {
      "constant": true,
      "inputs": [],
      "name": "lendingPool",
      "outputs": [
        {
          "internalType": "contract LendingPoolInterface",
          "name": "",
          "type": "address"
        }
      ],
      "payable": false,
      "stateMutability": "view",
      "type": "function"
    },
    {
      "constant": false,
      "inputs": [
        {
          "internalType": "address",
          "name": "account",
          "type": "address"
        },
        {
          "internalType": "uint256",
          "name": "amount",
          "type": "uint256"
        }
      ],
      "name": "mint",
      "outputs": [
        {
          "internalType": "bool",
          "name": "",
          "type": "bool"
        }
      ],
      "payable": false,
      "stateMutability": "nonpayable",
      "type": "function"
    },
    {
      "constant": true,
      "inputs": [],
      "name": "name",
      "outputs": [
        {
          "internalType": "string",
          "name": "",
          "type": "string"
        }
      ],
      "payable": false,
      "stateMutability": "view",
      "type": "function"
    },
    {
      "constant": false,
      "inputs": [],
      "name": "renounceMinter",
      "outputs": [],
      "payable": false,
      "stateMutability": "nonpayable",
      "type": "function"
    },
    {
      "constant": true,
      "inputs": [],
      "name": "settings",
      "outputs": [
        {
          "internalType": "contract SettingsInterface",
          "name": "",
          "type": "address"
        }
      ],
      "payable": false,
      "stateMutability": "view",
      "type": "function"
    },
    {
      "constant": true,
      "inputs": [],
      "name": "symbol",
      "outputs": [
        {
          "internalType": "string",
          "name": "",
          "type": "string"
        }
      ],
      "payable": false,
      "stateMutability": "view",
      "type": "function"
    },
    {
      "constant": true,
      "inputs": [],
      "name": "totalSupply",
      "outputs": [
        {
          "internalType": "uint256",
          "name": "",
          "type": "uint256"
        }
      ],
      "payable": false,
      "stateMutability": "view",
      "type": "function"
    },
    {
      "constant": false,
      "inputs": [
        {
          "internalType": "address",
          "name": "recipient",
          "type": "address"
        },
        {
          "internalType": "uint256",
          "name": "amount",
          "type": "uint256"
        }
      ],
      "name": "transfer",
      "outputs": [
        {
          "internalType": "bool",
          "name": "",
          "type": "bool"
        }
      ],
      "payable": false,
      "stateMutability": "nonpayable",
      "type": "function"
    },
    {
      "constant": false,
      "inputs": [
        {
          "internalType": "address",
          "name": "sender",
          "type": "address"
        },
        {
          "internalType": "address",
          "name": "recipient",
          "type": "address"
        },
        {
          "internalType": "uint256",
          "name": "amount",
          "type": "uint256"
        }
      ],
      "name": "transferFrom",
      "outputs": [
        {
          "internalType": "bool",
          "name": "",
          "type": "bool"
        }
      ],
      "payable": false,
      "stateMutability": "nonpayable",
      "type": "function"
    },
    {
      "constant": true,
      "inputs": [],
      "name": "underlying",
      "outputs": [
        {
          "internalType": "contract ERC20Detailed",
          "name": "",
          "type": "address"
        }
      ],
      "payable": false,
      "stateMutability": "view",
      "type": "function"
    },
    {
      "constant": false,
      "inputs": [
        {
          "internalType": "address",
          "name": "account",
          "type": "address"
        },
        {
          "internalType": "uint256",
          "name": "amount",
          "type": "uint256"
        }
      ],
      "name": "burn",
      "outputs": [
        {
          "internalType": "bool",
          "name": "",
          "type": "bool"
        }
      ],
      "payable": false,
      "stateMutability": "nonpayable",
      "type": "function"
    },
    {
      "constant": false,
      "inputs": [
        {
          "internalType": "string",
          "name": "name",
          "type": "string"
        },
        {
          "internalType": "string",
          "name": "symbol",
          "type": "string"
        },
        {
          "internalType": "uint8",
          "name": "decimals",
          "type": "uint8"
        }
      ],
      "name": "initialize",
      "outputs": [],
      "payable": false,
      "stateMutability": "nonpayable",
      "type": "function"
    },
    {
      "constant": false,
      "inputs": [
        {
          "internalType": "address",
          "name": "underlyingTokenAddress",
          "type": "address"
        },
        {
          "internalType": "address",
          "name": "lendingPoolAddress",
          "type": "address"
        },
        {
          "internalType": "address",
          "name": "settingsAddress",
          "type": "address"
        }
      ],
      "name": "initialize",
      "outputs": [],
      "payable": false,
      "stateMutability": "nonpayable",
      "type": "function"
    },
    {
      "constant": false,
      "inputs": [
        {
          "internalType": "address",
          "name": "sender",
          "type": "address"
        }
      ],
      "name": "initialize",
      "outputs": [],
      "payable": false,
      "stateMutability": "nonpayable",
      "type": "function"
    }
  ],
  "bytecode": "0x6080604052611d23806100136000396000f3fe608060405234801561001057600080fd5b50600436106101425760003560e01c8063983b2d56116100b8578063a9059cbb1161007c578063a9059cbb146104da578063aa271e1a14610506578063c0c53b8b1461052c578063c4d66de814610564578063dd62ed3e1461058a578063e06174e4146105b857610142565b8063983b2d561461044c57806398650275146104725780639dc29fac1461047a578063a457c2d7146104a6578063a59a9973146104d257610142565b8063313ce5671161010a578063313ce5671461038457806339509351146103a257806340c10f19146103ce5780636f307dc3146103fa57806370a082311461041e57806395d89b411461044457610142565b806306fdde0314610147578063095ea7b3146101c45780631624f6c61461020457806318160ddd1461033457806323b872dd1461034e575b600080fd5b61014f6105c0565b6040805160208082528351818301528351919283929083019185019080838360005b83811015610189578181015183820152602001610171565b50505050905090810190601f1680156101b65780820380516001836020036101000a031916815260200191505b509250505060405180910390f35b6101f0600480360360408110156101da57600080fd5b506001600160a01b038135169060200135610657565b604080519115158252519081900360200190f35b6103326004803603606081101561021a57600080fd5b810190602081018135600160201b81111561023457600080fd5b82018360208201111561024657600080fd5b803590602001918460018302840111600160201b8311171561026757600080fd5b91908080601f0160208091040260200160405190810160405280939291908181526020018383808284376000920191909152509295949360208101935035915050600160201b8111156102b957600080fd5b8201836020820111156102cb57600080fd5b803590602001918460018302840111600160201b831117156102ec57600080fd5b91908080601f0160208091040260200160405190810160405280939291908181526020018383808284376000920191909152509295505050903560ff1691506106749050565b005b61033c610750565b60408051918252519081900360200190f35b6101f06004803603606081101561036457600080fd5b506001600160a01b03813581169160208101359091169060400135610756565b61038c6107e3565b6040805160ff9092168252519081900360200190f35b6101f0600480360360408110156103b857600080fd5b506001600160a01b0381351690602001356107ec565b6101f0600480360360408110156103e457600080fd5b506001600160a01b038135169060200135610840565b610402610897565b604080516001600160a01b039092168252519081900360200190f35b61033c6004803603602081101561043457600080fd5b50356001600160a01b03166108a7565b61014f6108c2565b6103326004803603602081101561046257600080fd5b50356001600160a01b0316610923565b610332610975565b6101f06004803603604081101561049057600080fd5b506001600160a01b038135169060200135610987565b6101f0600480360360408110156104bc57600080fd5b506001600160a01b0381351690602001356109d9565b610402610a47565b6101f0600480360360408110156104f057600080fd5b506001600160a01b038135169060200135610a57565b6101f06004803603602081101561051c57600080fd5b50356001600160a01b0316610a6b565b6103326004803603606081101561054257600080fd5b506001600160a01b038135811691602081013582169160409091013516610a84565b6103326004803603602081101561057a57600080fd5b50356001600160a01b0316611051565b61033c600480360360408110156105a057600080fd5b506001600160a01b03813581169160200135166110fd565b610402611128565b60338054604080516020601f600260001961010060018816150201909516949094049384018190048102820181019092528281526060939092909183018282801561064c5780601f106106215761010080835404028352916020019161064c565b820191906000526020600020905b81548152906001019060200180831161062f57829003601f168201915b505050505090505b90565b600061066b610664611137565b848461113b565b50600192915050565b600054610100900460ff168061068d575061068d611227565b8061069b575060005460ff16155b6106d65760405162461bcd60e51b815260040180806020018281038252602e815260200180611c32602e913960400191505060405180910390fd5b600054610100900460ff16158015610701576000805460ff1961ff0019909116610100171660011790555b8351610714906033906020870190611a71565b508251610728906034906020860190611a71565b506035805460ff191660ff8416179055801561074a576000805461ff00191690555b50505050565b606a5490565b600061076384848461122d565b6107d98461076f611137565b6107d485604051806060016040528060288152602001611be8602891396001600160a01b038a166000908152606960205260408120906107ad611137565b6001600160a01b03168152602081019190915260400160002054919063ffffffff61138b16565b61113b565b5060019392505050565b60355460ff1690565b600061066b6107f9611137565b846107d4856069600061080a611137565b6001600160a01b03908116825260208083019390935260409182016000908120918c16815292529020549063ffffffff61142216565b600061085261084d611137565b610a6b565b61088d5760405162461bcd60e51b8152600401808060200182810382526030815260200180611b976030913960400191505060405180910390fd5b61066b8383611483565b610102546001600160a01b031681565b6001600160a01b031660009081526068602052604090205490565b60348054604080516020601f600260001961010060018816150201909516949094049384018190048102820181019092528281526060939092909183018282801561064c5780601f106106215761010080835404028352916020019161064c565b61092e61084d611137565b6109695760405162461bcd60e51b8152600401808060200182810382526030815260200180611b976030913960400191505060405180910390fd5b61097281611575565b50565b610985610980611137565b6115bd565b565b600061099461084d611137565b6109cf5760405162461bcd60e51b8152600401808060200182810382526030815260200180611b976030913960400191505060405180910390fd5b61066b8383611605565b600061066b6109e6611137565b846107d485604051806060016040528060258152602001611cca6025913960696000610a10611137565b6001600160a01b03908116825260208083019390935260409182016000908120918d1681529252902054919063ffffffff61138b16565b610103546001600160a01b031681565b600061066b610a64611137565b848461122d565b6000610a7e609d8363ffffffff61170116565b92915050565b600054610100900460ff1680610a9d5750610a9d611227565b80610aab575060005460ff16155b610ae65760405162461bcd60e51b815260040180806020018281038252602e815260200180611c32602e913960400191505060405180910390fd5b600054610100900460ff16158015610b11576000805460ff1961ff0019909116610100171660011790555b610b23826001600160a01b0316611768565b610b74576040805162461bcd60e51b815260206004820152601b60248201527f53455454494e47535f4d5553545f42455f415f434f4e54524143540000000000604482015290519081900360640190fd5b610b86846001600160a01b0316611768565b610bd7576040805162461bcd60e51b815260206004820152601b60248201527f554e4445524c59494e475f4d5553545f42455f434f4e54524143540000000000604482015290519081900360640190fd5b610be9836001600160a01b0316611768565b610c30576040805162461bcd60e51b8152602060048201526013602482015272131417d35554d517d09157d0d3d395149050d5606a1b604482015290519081900360640190fd5b61010280546001600160a01b038087166001600160a01b031992831617909255610103805492861692909116919091179055610c6b826117a4565b61010254604080516306fdde0360e01b81529051611031926001600160a01b0316916306fdde03916004808301926000929190829003018186803b158015610cb257600080fd5b505afa158015610cc6573d6000803e3d6000fd5b505050506040513d6000823e601f3d908101601f191682016040526020811015610cef57600080fd5b8101908080516040519392919084600160201b821115610d0e57600080fd5b908301906020820185811115610d2357600080fd5b8251600160201b811182820188101715610d3c57600080fd5b82525081516020918201929091019080838360005b83811015610d69578181015183820152602001610d51565b50505050905090810190601f168015610d965780820380516001836020036101000a031916815260200191505b5060405250505060405160200180806602a32b63632b9160cd1b81525060070182805190602001908083835b60208310610de15780518252601f199092019160209182019101610dc2565b6001836020036101000a03801982511681845116808217855250505050505090500191505060405160208183030381529060405261010260009054906101000a90046001600160a01b03166001600160a01b03166395d89b416040518163ffffffff1660e01b815260040160006040518083038186803b158015610e6457600080fd5b505afa158015610e78573d6000803e3d6000fd5b505050506040513d6000823e601f3d908101601f191682016040526020811015610ea157600080fd5b8101908080516040519392919084600160201b821115610ec057600080fd5b908301906020820185811115610ed557600080fd5b8251600160201b811182820188101715610eee57600080fd5b82525081516020918201929091019080838360005b83811015610f1b578181015183820152602001610f03565b50505050905090810190601f168015610f485780820380516001836020036101000a031916815260200191505b506040525050506040516020018080601d60fa1b81525060010182805190602001908083835b60208310610f8d5780518252601f199092019160209182019101610f6e565b51815160209384036101000a60001901801990921691161790526040805192909401828103601f190183528085526101025463313ce56760e01b825294519296506001600160a01b03909416945063313ce567936004808201945091929190829003018186803b15801561100057600080fd5b505afa158015611014573d6000803e3d6000fd5b505050506040513d602081101561102a57600080fd5b5051610674565b61103a83611051565b801561074a576000805461ff001916905550505050565b600054610100900460ff168061106a575061106a611227565b80611078575060005460ff16155b6110b35760405162461bcd60e51b815260040180806020018281038252602e815260200180611c32602e913960400191505060405180910390fd5b600054610100900460ff161580156110de576000805460ff1961ff0019909116610100171660011790555b6110e782611861565b80156110f9576000805461ff00191690555b5050565b6001600160a01b03918216600090815260696020908152604080832093909416825291909152205490565b6000611132611904565b905090565b3390565b6001600160a01b0383166111805760405162461bcd60e51b8152600401808060200182810382526024815260200180611ca66024913960400191505060405180910390fd5b6001600160a01b0382166111c55760405162461bcd60e51b8152600401808060200182810382526022815260200180611b4f6022913960400191505060405180910390fd5b6001600160a01b03808416600081815260696020908152604080832094871680845294825291829020859055815185815291517f8c5be1e5ebec7d5bd14f71427d1e84f3dd0314c0f7b2291e5b200ac8c7c3b9259281900390910190a3505050565b303b1590565b6001600160a01b0383166112725760405162461bcd60e51b8152600401808060200182810382526025815260200180611c816025913960400191505060405180910390fd5b6001600160a01b0382166112b75760405162461bcd60e51b8152600401808060200182810382526023815260200180611b0a6023913960400191505060405180910390fd5b6112fa81604051806060016040528060268152602001611b71602691396001600160a01b038616600090815260686020526040902054919063ffffffff61138b16565b6001600160a01b03808516600090815260686020526040808220939093559084168152205461132f908263ffffffff61142216565b6001600160a01b0380841660008181526068602090815260409182902094909455805185815290519193928716927fddf252ad1be2c89b69c2b068fc378daa952ba7f163c4a11628f55a4df523b3ef92918290030190a3505050565b6000818484111561141a5760405162461bcd60e51b81526004018080602001828103825283818151815260200191508051906020019080838360005b838110156113df5781810151838201526020016113c7565b50505050905090810190601f16801561140c5780820380516001836020036101000a031916815260200191505b509250505060405180910390fd5b505050900390565b60008282018381101561147c576040805162461bcd60e51b815260206004820152601b60248201527f536166654d6174683a206164646974696f6e206f766572666c6f770000000000604482015290519081900360640190fd5b9392505050565b6001600160a01b0382166114de576040805162461bcd60e51b815260206004820152601f60248201527f45524332303a206d696e7420746f20746865207a65726f206164647265737300604482015290519081900360640190fd5b606a546114f1908263ffffffff61142216565b606a556001600160a01b03821660009081526068602052604090205461151d908263ffffffff61142216565b6001600160a01b03831660008181526068602090815260408083209490945583518581529351929391927fddf252ad1be2c89b69c2b068fc378daa952ba7f163c4a11628f55a4df523b3ef9281900390910190a35050565b611586609d8263ffffffff61193916565b6040516001600160a01b038216907f6ae172837ea30b801fbfcdd4108aa1d5bf8ff775444fd70256b44e6bf3dfc3f690600090a250565b6115ce609d8263ffffffff6119ba16565b6040516001600160a01b038216907fe94479a9f7e1952cc78f2d6baab678adc1b772d936c6583def489e524cb6669290600090a250565b6001600160a01b03821661164a5760405162461bcd60e51b8152600401808060200182810382526021815260200180611c606021913960400191505060405180910390fd5b61168d81604051806060016040528060228152602001611b2d602291396001600160a01b038516600090815260686020526040902054919063ffffffff61138b16565b6001600160a01b038316600090815260686020526040902055606a546116b9908263ffffffff611a2116565b606a556040805182815290516000916001600160a01b038516917fddf252ad1be2c89b69c2b068fc378daa952ba7f163c4a11628f55a4df523b3ef9181900360200190a35050565b60006001600160a01b0382166117485760405162461bcd60e51b8152600401808060200182810382526022815260200180611c106022913960400191505060405180910390fd5b506001600160a01b03166000908152602091909152604090205460ff1690565b6000813f7fc5d2460186f7233c927e7db2dcc703c0e500b653ca82273b7bfad8045d85a47081811480159061179c57508115155b949350505050565b6117bd6117af611904565b6001600160a01b0316611a63565b156117c757610972565b6117d9816001600160a01b0316611768565b61182a576040805162461bcd60e51b815260206004820152601b60248201527f53455454494e47535f4d5553545f42455f415f434f4e54524143540000000000604482015290519081900360640190fd5b6040805177426173655570677261646561626c652e73657474696e677360401b815290519081900360180190206000190181905550565b600054610100900460ff168061187a575061187a611227565b80611888575060005460ff16155b6118c35760405162461bcd60e51b815260040180806020018281038252602e815260200180611c32602e913960400191505060405180910390fd5b600054610100900460ff161580156118ee576000805460ff1961ff0019909116610100171660011790555b6118f782610a6b565b6110e7576110e782611575565b6040805177426173655570677261646561626c652e73657474696e677360401b81529051908190036018019020600019015490565b6119438282611701565b15611995576040805162461bcd60e51b815260206004820152601f60248201527f526f6c65733a206163636f756e7420616c72656164792068617320726f6c6500604482015290519081900360640190fd5b6001600160a01b0316600090815260209190915260409020805460ff19166001179055565b6119c48282611701565b6119ff5760405162461bcd60e51b8152600401808060200182810382526021815260200180611bc76021913960400191505060405180910390fd5b6001600160a01b0316600090815260209190915260409020805460ff19169055565b600061147c83836040518060400160405280601e81526020017f536166654d6174683a207375627472616374696f6e206f766572666c6f77000081525061138b565b6001600160a01b0316151590565b828054600181600116156101000203166002900490600052602060002090601f016020900481019282601f10611ab257805160ff1916838001178555611adf565b82800160010185558215611adf579182015b82811115611adf578251825591602001919060010190611ac4565b50611aeb929150611aef565b5090565b61065491905b80821115611aeb5760008155600101611af556fe45524332303a207472616e7366657220746f20746865207a65726f206164647265737345524332303a206275726e20616d6f756e7420657863656564732062616c616e636545524332303a20617070726f766520746f20746865207a65726f206164647265737345524332303a207472616e7366657220616d6f756e7420657863656564732062616c616e63654d696e746572526f6c653a2063616c6c657220646f6573206e6f74206861766520746865204d696e74657220726f6c65526f6c65733a206163636f756e7420646f6573206e6f74206861766520726f6c6545524332303a207472616e7366657220616d6f756e74206578636565647320616c6c6f77616e6365526f6c65733a206163636f756e7420697320746865207a65726f2061646472657373436f6e747261637420696e7374616e63652068617320616c7265616479206265656e20696e697469616c697a656445524332303a206275726e2066726f6d20746865207a65726f206164647265737345524332303a207472616e736665722066726f6d20746865207a65726f206164647265737345524332303a20617070726f76652066726f6d20746865207a65726f206164647265737345524332303a2064656372656173656420616c6c6f77616e63652062656c6f77207a65726fa265627a7a723158208d6062c63b42b4ade4f9656da933b990e8d3d221b0d86313af4750169d0704d064736f6c63430005110032",
  "source": "pragma solidity 0.5.17;\n\n// Utils\nimport \"@openzeppelin/contracts-ethereum-package/contracts/token/ERC20/ERC20Detailed.sol\";\nimport \"@openzeppelin/contracts-ethereum-package/contracts/token/ERC20/ERC20Mintable.sol\";\nimport \"@openzeppelin/contracts-ethereum-package/contracts/utils/Address.sol\";\n\n// Interfaces\nimport \"../interfaces/SettingsInterface.sol\";\nimport \"../interfaces/LendingPoolInterface.sol\";\n\n// Contracts\nimport \"./BaseUpgradeable.sol\";\n\n/**\n * @notice This contract represents a wrapped token within the Teller protocol\n *\n * @author develop@teller.finance\n */\ncontract TToken is BaseUpgradeable, ERC20Detailed, ERC20Mintable {\n    using Address for address;\n\n    /** State Variables */\n\n    /**\n        @notice The token that is the underlying assets for this Teller token.\n     */\n    ERC20Detailed public underlying;\n\n    /**\n        @notice The LendingPool linked to this Teller Token.\n     */\n    LendingPoolInterface public lendingPool;\n\n\n    /* Public Functions */\n    /**\n     * @notice Reduce account supply of specified token amount\n     * @param account The account to burn tokens from\n     * @param amount The amount of tokens to burn\n     * @return true if successful\n     */\n    function burn(address account, uint256 amount) public onlyMinter returns (bool) {\n        _burn(account, amount);\n        return true;\n    }\n\n    /**\n     * @param underlyingTokenAddress the token address this TToken is for.\n     * @param lendingPoolAddress the address of the lending pool this token is linked to. It is only used to add it as a minter.\n     * @param settingsAddress the settings address.\n     */\n    function initialize(\n        address underlyingTokenAddress,\n        address lendingPoolAddress,\n        address settingsAddress\n    )\n        public\n        initializer\n    {\n        require(settingsAddress.isContract(), \"SETTINGS_MUST_BE_A_CONTRACT\");\n        require(underlyingTokenAddress.isContract(), \"UNDERLYING_MUST_BE_CONTRACT\");\n        require(lendingPoolAddress.isContract(), \"LP_MUST_BE_CONTRACT\");\n\n        underlying = ERC20Detailed(underlyingTokenAddress);\n        lendingPool = LendingPoolInterface(lendingPoolAddress);\n        _setSettings(settingsAddress);\n\n        ERC20Detailed.initialize(\n            string(abi.encodePacked(\"Teller \", underlying.name())),\n            string(abi.encodePacked(\"t\", underlying.symbol())),\n            underlying.decimals()\n        );\n        ERC20Mintable.initialize(lendingPoolAddress);\n    }\n}\n",
  "sourcePath": "/home/jeremig/Documents/Teller/dojo/teller-protocol-v1/contracts/base/TToken.sol",
  "compiler": {
    "name": "solc",
    "version": "0.5.17+commit.d19bba13.Emscripten.clang"
  },
  "schemaVersion": "3.2.3",
  "updatedAt": "2021-04-10T14:20:29.412Z",
  "devdoc": {
    "author": "develop@teller.finance",
    "methods": {
      "allowance(address,address)": {
        "details": "See {IERC20-allowance}."
      },
      "approve(address,uint256)": {
        "details": "See {IERC20-approve}.     * Requirements:     * - `spender` cannot be the zero address."
      },
      "balanceOf(address)": {
        "details": "See {IERC20-balanceOf}."
      },
      "burn(address,uint256)": {
        "params": {
          "account": "The account to burn tokens from",
          "amount": "The amount of tokens to burn"
        },
        "return": "true if successful"
      },
      "decimals()": {
        "details": "Returns the number of decimals used to get its user representation. For example, if `decimals` equals `2`, a balance of `505` tokens should be displayed to a user as `5,05` (`505 / 10 ** 2`).     * Tokens usually opt for a value of 18, imitating the relationship between Ether and Wei.     * NOTE: This information is only used for _display_ purposes: it in no way affects any of the arithmetic of the contract, including {IERC20-balanceOf} and {IERC20-transfer}."
      },
      "decreaseAllowance(address,uint256)": {
        "details": "Atomically decreases the allowance granted to `spender` by the caller.     * This is an alternative to {approve} that can be used as a mitigation for problems described in {IERC20-approve}.     * Emits an {Approval} event indicating the updated allowance.     * Requirements:     * - `spender` cannot be the zero address. - `spender` must have allowance for the caller of at least `subtractedValue`."
      },
      "increaseAllowance(address,uint256)": {
        "details": "Atomically increases the allowance granted to `spender` by the caller.     * This is an alternative to {approve} that can be used as a mitigation for problems described in {IERC20-approve}.     * Emits an {Approval} event indicating the updated allowance.     * Requirements:     * - `spender` cannot be the zero address."
      },
      "initialize(address,address,address)": {
        "params": {
          "lendingPoolAddress": "the address of the lending pool this token is linked to. It is only used to add it as a minter.",
          "settingsAddress": "the settings address.",
          "underlyingTokenAddress": "the token address this TToken is for."
        }
      },
      "initialize(string,string,uint8)": {
        "details": "Sets the values for `name`, `symbol`, and `decimals`. All three of these values are immutable: they can only be set once during construction."
      },
      "mint(address,uint256)": {
        "details": "See {ERC20-_mint}.     * Requirements:     * - the caller must have the {MinterRole}."
      },
      "name()": {
        "details": "Returns the name of the token."
      },
      "settings()": {
        "details": "This address should NOT change over the time. See details in the _setSettings(...) function."
      },
      "symbol()": {
        "details": "Returns the symbol of the token, usually a shorter version of the name."
      },
      "totalSupply()": {
        "details": "See {IERC20-totalSupply}."
      },
      "transfer(address,uint256)": {
        "details": "See {IERC20-transfer}.     * Requirements:     * - `recipient` cannot be the zero address. - the caller must have a balance of at least `amount`."
      },
      "transferFrom(address,address,uint256)": {
        "details": "See {IERC20-transferFrom}.     * Emits an {Approval} event indicating the updated allowance. This is not required by the EIP. See the note at the beginning of {ERC20};     * Requirements: - `sender` and `recipient` cannot be the zero address. - `sender` must have a balance of at least `amount`. - the caller must have allowance for `sender`'s tokens of at least `amount`."
      }
    }
  },
  "userdoc": {
    "methods": {
      "burn(address,uint256)": {
        "notice": "Reduce account supply of specified token amount"
      },
      "settings()": {
        "notice": "The gets the settings contract address from the SETTINGS_SLOT."
      }
    },
    "notice": "This contract represents a wrapped token within the Teller protocol"
  }
}